{
	"contracts/LendingPool.sol": {
		"LendingPool": {
			"abi": [
				{
					"inputs": [
						{
							"internalType": "contract Escrow",
							"name": "_escrow",
							"type": "address"
						}
					],
					"stateMutability": "nonpayable",
					"type": "constructor"
				},
				{
					"anonymous": false,
					"inputs": [
						{
							"indexed": true,
							"internalType": "address",
							"name": "user",
							"type": "address"
						},
						{
							"indexed": true,
							"internalType": "address",
							"name": "token",
							"type": "address"
						},
						{
							"indexed": false,
							"internalType": "uint256",
							"name": "amount",
							"type": "uint256"
						},
						{
							"indexed": false,
							"internalType": "uint256",
							"name": "interestRate",
							"type": "uint256"
						},
						{
							"indexed": false,
							"internalType": "uint256",
							"name": "startTime",
							"type": "uint256"
						}
					],
					"name": "Borrowed",
					"type": "event"
				},
				{
					"anonymous": false,
					"inputs": [
						{
							"indexed": true,
							"internalType": "address",
							"name": "token",
							"type": "address"
						},
						{
							"indexed": true,
							"internalType": "address",
							"name": "user",
							"type": "address"
						},
						{
							"indexed": false,
							"internalType": "uint256",
							"name": "amount",
							"type": "uint256"
						}
					],
					"name": "DepositMade",
					"type": "event"
				},
				{
					"inputs": [],
					"name": "baseInterestRate",
					"outputs": [
						{
							"internalType": "uint256",
							"name": "",
							"type": "uint256"
						}
					],
					"stateMutability": "view",
					"type": "function"
				},
				{
					"inputs": [
						{
							"internalType": "address",
							"name": "token",
							"type": "address"
						},
						{
							"internalType": "uint256",
							"name": "amount",
							"type": "uint256"
						}
					],
					"name": "borrow",
					"outputs": [],
					"stateMutability": "nonpayable",
					"type": "function"
				},
				{
					"inputs": [
						{
							"internalType": "address",
							"name": "",
							"type": "address"
						},
						{
							"internalType": "address",
							"name": "",
							"type": "address"
						}
					],
					"name": "borrowedToken",
					"outputs": [
						{
							"internalType": "uint256",
							"name": "amount",
							"type": "uint256"
						},
						{
							"internalType": "uint256",
							"name": "interestRate",
							"type": "uint256"
						},
						{
							"internalType": "uint256",
							"name": "startTime",
							"type": "uint256"
						}
					],
					"stateMutability": "view",
					"type": "function"
				},
				{
					"inputs": [
						{
							"internalType": "address",
							"name": "token",
							"type": "address"
						},
						{
							"internalType": "address",
							"name": "user",
							"type": "address"
						}
					],
					"name": "calculateAccruedInterest",
					"outputs": [
						{
							"internalType": "uint256",
							"name": "",
							"type": "uint256"
						}
					],
					"stateMutability": "view",
					"type": "function"
				},
				{
					"inputs": [
						{
							"internalType": "address",
							"name": "token",
							"type": "address"
						},
						{
							"internalType": "uint256",
							"name": "totalSupply",
							"type": "uint256"
						},
						{
							"internalType": "uint256",
							"name": "totalBorrows",
							"type": "uint256"
						}
					],
					"name": "calculateInterestRate",
					"outputs": [
						{
							"internalType": "uint256",
							"name": "",
							"type": "uint256"
						}
					],
					"stateMutability": "view",
					"type": "function"
				},
				{
					"inputs": [
						{
							"internalType": "uint256",
							"name": "repayAmount",
							"type": "uint256"
						},
						{
							"internalType": "uint256",
							"name": "accruedInterest",
							"type": "uint256"
						}
					],
					"name": "calculateRepayableCollateral",
					"outputs": [
						{
							"internalType": "uint256",
							"name": "",
							"type": "uint256"
						}
					],
					"stateMutability": "view",
					"type": "function"
				},
				{
					"inputs": [
						{
							"internalType": "uint256",
							"name": "borrowAmount",
							"type": "uint256"
						}
					],
					"name": "calculateRequiredCollateral",
					"outputs": [
						{
							"internalType": "uint256",
							"name": "",
							"type": "uint256"
						}
					],
					"stateMutability": "pure",
					"type": "function"
				},
				{
					"inputs": [
						{
							"internalType": "address",
							"name": "",
							"type": "address"
						},
						{
							"internalType": "address",
							"name": "",
							"type": "address"
						}
					],
					"name": "collateral",
					"outputs": [
						{
							"internalType": "uint256",
							"name": "",
							"type": "uint256"
						}
					],
					"stateMutability": "view",
					"type": "function"
				},
				{
					"inputs": [
						{
							"internalType": "address",
							"name": "token",
							"type": "address"
						},
						{
							"internalType": "uint256",
							"name": "amount",
							"type": "uint256"
						}
					],
					"name": "deposit",
					"outputs": [],
					"stateMutability": "nonpayable",
					"type": "function"
				},
				{
					"inputs": [
						{
							"internalType": "address",
							"name": "token",
							"type": "address"
						},
						{
							"internalType": "address",
							"name": "borrower",
							"type": "address"
						},
						{
							"internalType": "uint256",
							"name": "amount",
							"type": "uint256"
						}
					],
					"name": "depositCollateral",
					"outputs": [],
					"stateMutability": "nonpayable",
					"type": "function"
				},
				{
					"inputs": [],
					"name": "escrow",
					"outputs": [
						{
							"internalType": "contract Escrow",
							"name": "",
							"type": "address"
						}
					],
					"stateMutability": "view",
					"type": "function"
				},
				{
					"inputs": [
						{
							"internalType": "address",
							"name": "user",
							"type": "address"
						},
						{
							"internalType": "address",
							"name": "token",
							"type": "address"
						}
					],
					"name": "getUserBalance",
					"outputs": [
						{
							"internalType": "uint256",
							"name": "",
							"type": "uint256"
						}
					],
					"stateMutability": "view",
					"type": "function"
				},
				{
					"inputs": [
						{
							"internalType": "address",
							"name": "user",
							"type": "address"
						},
						{
							"internalType": "address",
							"name": "token",
							"type": "address"
						},
						{
							"internalType": "uint256",
							"name": "borrowAmount",
							"type": "uint256"
						}
					],
					"name": "isSufficientCollateral",
					"outputs": [
						{
							"internalType": "bool",
							"name": "",
							"type": "bool"
						}
					],
					"stateMutability": "view",
					"type": "function"
				},
				{
					"inputs": [
						{
							"internalType": "address",
							"name": "token",
							"type": "address"
						},
						{
							"internalType": "uint256",
							"name": "amount",
							"type": "uint256"
						}
					],
					"name": "repay",
					"outputs": [],
					"stateMutability": "payable",
					"type": "function"
				},
				{
					"inputs": [
						{
							"internalType": "uint256",
							"name": "",
							"type": "uint256"
						}
					],
					"name": "supportedTokens",
					"outputs": [
						{
							"internalType": "address",
							"name": "",
							"type": "address"
						}
					],
					"stateMutability": "view",
					"type": "function"
				},
				{
					"inputs": [
						{
							"internalType": "address",
							"name": "",
							"type": "address"
						}
					],
					"name": "totalBorrowedperToken",
					"outputs": [
						{
							"internalType": "uint256",
							"name": "",
							"type": "uint256"
						}
					],
					"stateMutability": "view",
					"type": "function"
				},
				{
					"inputs": [
						{
							"internalType": "address",
							"name": "",
							"type": "address"
						}
					],
					"name": "totalBorrowedperUser",
					"outputs": [
						{
							"internalType": "uint256",
							"name": "",
							"type": "uint256"
						}
					],
					"stateMutability": "view",
					"type": "function"
				},
				{
					"inputs": [
						{
							"internalType": "address",
							"name": "",
							"type": "address"
						},
						{
							"internalType": "address",
							"name": "",
							"type": "address"
						}
					],
					"name": "userBorrows",
					"outputs": [
						{
							"internalType": "uint256",
							"name": "",
							"type": "uint256"
						}
					],
					"stateMutability": "view",
					"type": "function"
				},
				{
					"inputs": [
						{
							"internalType": "address",
							"name": "",
							"type": "address"
						},
						{
							"internalType": "address",
							"name": "",
							"type": "address"
						}
					],
					"name": "userDeposits",
					"outputs": [
						{
							"internalType": "uint256",
							"name": "",
							"type": "uint256"
						}
					],
					"stateMutability": "view",
					"type": "function"
				},
				{
					"inputs": [
						{
							"internalType": "address",
							"name": "token",
							"type": "address"
						},
						{
							"internalType": "address",
							"name": "borrower",
							"type": "address"
						},
						{
							"internalType": "uint256",
							"name": "amount",
							"type": "uint256"
						}
					],
					"name": "withdrawCollateral",
					"outputs": [],
					"stateMutability": "nonpayable",
					"type": "function"
				}
			],
			"devdoc": {
				"kind": "dev",
				"methods": {},
				"version": 1
			},
			"evm": {
				"assembly": "    /* \"contracts/LendingPool.sol\":263:7547  contract LendingPool is ReentrancyGuard... */\n  mstore(0x40, 0x80)\n    /* \"contracts/LendingPool.sol\":345:347  10 */\n  0x0a\n    /* \"contracts/LendingPool.sol\":311:347  uint256 public baseInterestRate = 10 */\n  0x01\n  sstore\n    /* \"contracts/LendingPool.sol\":1427:1495  constructor(Escrow _escrow)... */\n  callvalue\n  dup1\n  iszero\n  tag_1\n  jumpi\n  0x00\n  dup1\n  revert\ntag_1:\n  pop\n  mload(0x40)\n  sub(codesize, bytecodeSize)\n  dup1\n  bytecodeSize\n  dup4\n  codecopy\n  dup2\n  dup2\n  add\n  0x40\n  mstore\n  dup2\n  add\n  swap1\n  tag_2\n  swap2\n  swap1\n  tag_3\n  jump\t// in\ntag_2:\n    /* \"@openzeppelin/contracts/security/ReentrancyGuard.sol\":1716:1717  1 */\n  0x01\n    /* \"@openzeppelin/contracts/security/ReentrancyGuard.sol\":1821:1828  _status */\n  0x00\n    /* \"@openzeppelin/contracts/security/ReentrancyGuard.sol\":1821:1843  _status = _NOT_ENTERED */\n  dup2\n  swap1\n  sstore\n  pop\n    /* \"contracts/LendingPool.sol\":1480:1487  _escrow */\n  dup1\n    /* \"contracts/LendingPool.sol\":1471:1477  escrow */\n  0x09\n  0x00\n    /* \"contracts/LendingPool.sol\":1471:1487  escrow = _escrow */\n  0x0100\n  exp\n  dup2\n  sload\n  dup2\n  0xffffffffffffffffffffffffffffffffffffffff\n  mul\n  not\n  and\n  swap1\n  dup4\n  0xffffffffffffffffffffffffffffffffffffffff\n  and\n  mul\n  or\n  swap1\n  sstore\n  pop\n    /* \"contracts/LendingPool.sol\":1427:1495  constructor(Escrow _escrow)... */\n  pop\n    /* \"contracts/LendingPool.sol\":263:7547  contract LendingPool is ReentrancyGuard... */\n  jump(tag_8)\n    /* \"#utility.yul\":88:205   */\ntag_10:\n    /* \"#utility.yul\":197:198   */\n  0x00\n    /* \"#utility.yul\":194:195   */\n  dup1\n    /* \"#utility.yul\":187:199   */\n  revert\n    /* \"#utility.yul\":334:460   */\ntag_12:\n    /* \"#utility.yul\":371:378   */\n  0x00\n    /* \"#utility.yul\":411:453   */\n  0xffffffffffffffffffffffffffffffffffffffff\n    /* \"#utility.yul\":404:409   */\n  dup3\n    /* \"#utility.yul\":400:454   */\n  and\n    /* \"#utility.yul\":389:454   */\n  swap1\n  pop\n    /* \"#utility.yul\":334:460   */\n  swap2\n  swap1\n  pop\n  jump\t// out\n    /* \"#utility.yul\":466:562   */\ntag_13:\n    /* \"#utility.yul\":503:510   */\n  0x00\n    /* \"#utility.yul\":532:556   */\n  tag_23\n    /* \"#utility.yul\":550:555   */\n  dup3\n    /* \"#utility.yul\":532:556   */\n  tag_12\n  jump\t// in\ntag_23:\n    /* \"#utility.yul\":521:556   */\n  swap1\n  pop\n    /* \"#utility.yul\":466:562   */\n  swap2\n  swap1\n  pop\n  jump\t// out\n    /* \"#utility.yul\":568:679   */\ntag_14:\n    /* \"#utility.yul\":620:627   */\n  0x00\n    /* \"#utility.yul\":649:673   */\n  tag_25\n    /* \"#utility.yul\":667:672   */\n  dup3\n    /* \"#utility.yul\":649:673   */\n  tag_13\n  jump\t// in\ntag_25:\n    /* \"#utility.yul\":638:673   */\n  swap1\n  pop\n    /* \"#utility.yul\":568:679   */\n  swap2\n  swap1\n  pop\n  jump\t// out\n    /* \"#utility.yul\":685:837   */\ntag_15:\n    /* \"#utility.yul\":773:812   */\n  tag_27\n    /* \"#utility.yul\":806:811   */\n  dup2\n    /* \"#utility.yul\":773:812   */\n  tag_14\n  jump\t// in\ntag_27:\n    /* \"#utility.yul\":766:771   */\n  dup2\n    /* \"#utility.yul\":763:813   */\n  eq\n    /* \"#utility.yul\":753:831   */\n  tag_28\n  jumpi\n    /* \"#utility.yul\":827:828   */\n  0x00\n    /* \"#utility.yul\":824:825   */\n  dup1\n    /* \"#utility.yul\":817:829   */\n  revert\n    /* \"#utility.yul\":753:831   */\ntag_28:\n    /* \"#utility.yul\":685:837   */\n  pop\n  jump\t// out\n    /* \"#utility.yul\":843:1016   */\ntag_16:\n    /* \"#utility.yul\":915:920   */\n  0x00\n    /* \"#utility.yul\":946:952   */\n  dup2\n    /* \"#utility.yul\":940:953   */\n  mload\n    /* \"#utility.yul\":931:953   */\n  swap1\n  pop\n    /* \"#utility.yul\":962:1010   */\n  tag_30\n    /* \"#utility.yul\":1004:1009   */\n  dup2\n    /* \"#utility.yul\":962:1010   */\n  tag_15\n  jump\t// in\ntag_30:\n    /* \"#utility.yul\":843:1016   */\n  swap3\n  swap2\n  pop\n  pop\n  jump\t// out\n    /* \"#utility.yul\":1022:1403   */\ntag_3:\n    /* \"#utility.yul\":1107:1113   */\n  0x00\n    /* \"#utility.yul\":1156:1158   */\n  0x20\n    /* \"#utility.yul\":1144:1153   */\n  dup3\n    /* \"#utility.yul\":1135:1142   */\n  dup5\n    /* \"#utility.yul\":1131:1154   */\n  sub\n    /* \"#utility.yul\":1127:1159   */\n  slt\n    /* \"#utility.yul\":1124:1243   */\n  iszero\n  tag_32\n  jumpi\n    /* \"#utility.yul\":1162:1241   */\n  tag_33\n  tag_10\n  jump\t// in\ntag_33:\n    /* \"#utility.yul\":1124:1243   */\ntag_32:\n    /* \"#utility.yul\":1282:1283   */\n  0x00\n    /* \"#utility.yul\":1307:1386   */\n  tag_34\n    /* \"#utility.yul\":1378:1385   */\n  dup5\n    /* \"#utility.yul\":1369:1375   */\n  dup3\n    /* \"#utility.yul\":1358:1367   */\n  dup6\n    /* \"#utility.yul\":1354:1376   */\n  add\n    /* \"#utility.yul\":1307:1386   */\n  tag_16\n  jump\t// in\ntag_34:\n    /* \"#utility.yul\":1297:1386   */\n  swap2\n  pop\n    /* \"#utility.yul\":1253:1396   */\n  pop\n    /* \"#utility.yul\":1022:1403   */\n  swap3\n  swap2\n  pop\n  pop\n  jump\t// out\n    /* \"contracts/LendingPool.sol\":263:7547  contract LendingPool is ReentrancyGuard... */\ntag_8:\n  dataSize(sub_0)\n  dup1\n  dataOffset(sub_0)\n  0x00\n  codecopy\n  0x00\n  return\nstop\n\nsub_0: assembly {\n        /* \"contracts/LendingPool.sol\":263:7547  contract LendingPool is ReentrancyGuard... */\n      mstore(0x40, 0x80)\n      jumpi(tag_1, lt(calldatasize, 0x04))\n      shr(0xe0, calldataload(0x00))\n      dup1\n      0x664fa64e\n      gt\n      tag_22\n      jumpi\n      dup1\n      0xcc218ece\n      gt\n      tag_23\n      jumpi\n      dup1\n      0xcc218ece\n      eq\n      tag_17\n      jumpi\n      dup1\n      0xd526fc2e\n      eq\n      tag_18\n      jumpi\n      dup1\n      0xe2fdcc17\n      eq\n      tag_19\n      jumpi\n      dup1\n      0xe80894b6\n      eq\n      tag_20\n      jumpi\n      dup1\n      0xf970c3b7\n      eq\n      tag_21\n      jumpi\n      jump(tag_1)\n    tag_23:\n      dup1\n      0x664fa64e\n      eq\n      tag_12\n      jumpi\n      dup1\n      0x6805d6ad\n      eq\n      tag_13\n      jumpi\n      dup1\n      0x9ee7f702\n      eq\n      tag_14\n      jumpi\n      dup1\n      0xafd92762\n      eq\n      tag_15\n      jumpi\n      dup1\n      0xc6255626\n      eq\n      tag_16\n      jumpi\n      jump(tag_1)\n    tag_22:\n      dup1\n      0x34931b4b\n      gt\n      tag_24\n      jumpi\n      dup1\n      0x34931b4b\n      eq\n      tag_7\n      jumpi\n      dup1\n      0x3b591d6a\n      eq\n      tag_8\n      jumpi\n      dup1\n      0x436d8039\n      eq\n      tag_9\n      jumpi\n      dup1\n      0x47e7ef24\n      eq\n      tag_10\n      jumpi\n      dup1\n      0x4b8a3529\n      eq\n      tag_11\n      jumpi\n      jump(tag_1)\n    tag_24:\n      dup1\n      0x22867d78\n      eq\n      tag_2\n      jumpi\n      dup1\n      0x234a14f9\n      eq\n      tag_3\n      jumpi\n      dup1\n      0x23d0fda1\n      eq\n      tag_4\n      jumpi\n      dup1\n      0x272d1b8e\n      eq\n      tag_5\n      jumpi\n      dup1\n      0x2ae8bdfe\n      eq\n      tag_6\n      jumpi\n    tag_1:\n      0x00\n      dup1\n      revert\n        /* \"contracts/LendingPool.sol\":3651:4777  function repay(address token, uint256 amount) public payable nonReentrant... */\n    tag_2:\n      tag_25\n      0x04\n      dup1\n      calldatasize\n      sub\n      dup2\n      add\n      swap1\n      tag_26\n      swap2\n      swap1\n      tag_27\n      jump\t// in\n    tag_26:\n      tag_28\n      jump\t// in\n    tag_25:\n      stop\n        /* \"contracts/LendingPool.sol\":580:648  mapping (address => mapping (address => uint256)) public userBorrows */\n    tag_3:\n      callvalue\n      dup1\n      iszero\n      tag_29\n      jumpi\n      0x00\n      dup1\n      revert\n    tag_29:\n      pop\n      tag_30\n      0x04\n      dup1\n      calldatasize\n      sub\n      dup2\n      add\n      swap1\n      tag_31\n      swap2\n      swap1\n      tag_32\n      jump\t// in\n    tag_31:\n      tag_33\n      jump\t// in\n    tag_30:\n      mload(0x40)\n      tag_34\n      swap2\n      swap1\n      tag_35\n      jump\t// in\n    tag_34:\n      mload(0x40)\n      dup1\n      swap2\n      sub\n      swap1\n      return\n        /* \"contracts/LendingPool.sol\":996:1051  mapping(address => uint256) public totalBorrowedperUser */\n    tag_4:\n      callvalue\n      dup1\n      iszero\n      tag_36\n      jumpi\n      0x00\n      dup1\n      revert\n    tag_36:\n      pop\n      tag_37\n      0x04\n      dup1\n      calldatasize\n      sub\n      dup2\n      add\n      swap1\n      tag_38\n      swap2\n      swap1\n      tag_39\n      jump\t// in\n    tag_38:\n      tag_40\n      jump\t// in\n    tag_37:\n      mload(0x40)\n      tag_41\n      swap2\n      swap1\n      tag_35\n      jump\t// in\n    tag_41:\n      mload(0x40)\n      dup1\n      swap2\n      sub\n      swap1\n      return\n        /* \"contracts/LendingPool.sol\":1264:1335  mapping(address => mapping(address => BorrowInfo)) public borrowedToken */\n    tag_5:\n      callvalue\n      dup1\n      iszero\n      tag_42\n      jumpi\n      0x00\n      dup1\n      revert\n    tag_42:\n      pop\n      tag_43\n      0x04\n      dup1\n      calldatasize\n      sub\n      dup2\n      add\n      swap1\n      tag_44\n      swap2\n      swap1\n      tag_32\n      jump\t// in\n    tag_44:\n      tag_45\n      jump\t// in\n    tag_43:\n      mload(0x40)\n      tag_46\n      swap4\n      swap3\n      swap2\n      swap1\n      tag_47\n      jump\t// in\n    tag_46:\n      mload(0x40)\n      dup1\n      swap2\n      sub\n      swap1\n      return\n        /* \"contracts/LendingPool.sol\":7219:7305  function withdrawCollateral(address token, address borrower, uint256 amount) public {} */\n    tag_6:\n      callvalue\n      dup1\n      iszero\n      tag_48\n      jumpi\n      0x00\n      dup1\n      revert\n    tag_48:\n      pop\n      tag_49\n      0x04\n      dup1\n      calldatasize\n      sub\n      dup2\n      add\n      swap1\n      tag_50\n      swap2\n      swap1\n      tag_51\n      jump\t// in\n    tag_50:\n      tag_52\n      jump\t// in\n    tag_49:\n      stop\n        /* \"contracts/LendingPool.sol\":6922:7183  function calculateRequiredCollateral(uint256 borrowAmount) public pure returns(uint256)... */\n    tag_7:\n      callvalue\n      dup1\n      iszero\n      tag_53\n      jumpi\n      0x00\n      dup1\n      revert\n    tag_53:\n      pop\n      tag_54\n      0x04\n      dup1\n      calldatasize\n      sub\n      dup2\n      add\n      swap1\n      tag_55\n      swap2\n      swap1\n      tag_56\n      jump\t// in\n    tag_55:\n      tag_57\n      jump\t// in\n    tag_54:\n      mload(0x40)\n      tag_58\n      swap2\n      swap1\n      tag_35\n      jump\t// in\n    tag_58:\n      mload(0x40)\n      dup1\n      swap2\n      sub\n      swap1\n      return\n        /* \"contracts/LendingPool.sol\":6591:6914  function isSufficientCollateral(address user, address token, uint256 borrowAmount) public view returns(bool)... */\n    tag_8:\n      callvalue\n      dup1\n      iszero\n      tag_59\n      jumpi\n      0x00\n      dup1\n      revert\n    tag_59:\n      pop\n      tag_60\n      0x04\n      dup1\n      calldatasize\n      sub\n      dup2\n      add\n      swap1\n      tag_61\n      swap2\n      swap1\n      tag_51\n      jump\t// in\n    tag_61:\n      tag_62\n      jump\t// in\n    tag_60:\n      mload(0x40)\n      tag_63\n      swap2\n      swap1\n      tag_64\n      jump\t// in\n    tag_63:\n      mload(0x40)\n      dup1\n      swap2\n      sub\n      swap1\n      return\n        /* \"contracts/LendingPool.sol\":392:460  mapping (address => mapping(address => uint256)) public userDeposits */\n    tag_9:\n      callvalue\n      dup1\n      iszero\n      tag_65\n      jumpi\n      0x00\n      dup1\n      revert\n    tag_65:\n      pop\n      tag_66\n      0x04\n      dup1\n      calldatasize\n      sub\n      dup2\n      add\n      swap1\n      tag_67\n      swap2\n      swap1\n      tag_32\n      jump\t// in\n    tag_67:\n      tag_68\n      jump\t// in\n    tag_66:\n      mload(0x40)\n      tag_69\n      swap2\n      swap1\n      tag_35\n      jump\t// in\n    tag_69:\n      mload(0x40)\n      dup1\n      swap2\n      sub\n      swap1\n      return\n        /* \"contracts/LendingPool.sol\":1771:2142  function deposit(address token, uint256 amount) public... */\n    tag_10:\n      callvalue\n      dup1\n      iszero\n      tag_70\n      jumpi\n      0x00\n      dup1\n      revert\n    tag_70:\n      pop\n      tag_71\n      0x04\n      dup1\n      calldatasize\n      sub\n      dup2\n      add\n      swap1\n      tag_72\n      swap2\n      swap1\n      tag_27\n      jump\t// in\n    tag_72:\n      tag_73\n      jump\t// in\n    tag_71:\n      stop\n        /* \"contracts/LendingPool.sol\":2461:3643  function borrow(address token, uint256 amount) public nonReentrant... */\n    tag_11:\n      callvalue\n      dup1\n      iszero\n      tag_74\n      jumpi\n      0x00\n      dup1\n      revert\n    tag_74:\n      pop\n      tag_75\n      0x04\n      dup1\n      calldatasize\n      sub\n      dup2\n      add\n      swap1\n      tag_76\n      swap2\n      swap1\n      tag_27\n      jump\t// in\n    tag_76:\n      tag_77\n      jump\t// in\n    tag_75:\n      stop\n        /* \"contracts/LendingPool.sol\":4828:5235  function calculateAccruedInterest(address token, address user) public view returns (uint256) {... */\n    tag_12:\n      callvalue\n      dup1\n      iszero\n      tag_78\n      jumpi\n      0x00\n      dup1\n      revert\n    tag_78:\n      pop\n      tag_79\n      0x04\n      dup1\n      calldatasize\n      sub\n      dup2\n      add\n      swap1\n      tag_80\n      swap2\n      swap1\n      tag_32\n      jump\t// in\n    tag_80:\n      tag_81\n      jump\t// in\n    tag_79:\n      mload(0x40)\n      tag_82\n      swap2\n      swap1\n      tag_35\n      jump\t// in\n    tag_82:\n      mload(0x40)\n      dup1\n      swap2\n      sub\n      swap1\n      return\n        /* \"contracts/LendingPool.sol\":2215:2400  function getUserBalance(address user, address token) public view returns(uint256)... */\n    tag_13:\n      callvalue\n      dup1\n      iszero\n      tag_83\n      jumpi\n      0x00\n      dup1\n      revert\n    tag_83:\n      pop\n      tag_84\n      0x04\n      dup1\n      calldatasize\n      sub\n      dup2\n      add\n      swap1\n      tag_85\n      swap2\n      swap1\n      tag_32\n      jump\t// in\n    tag_85:\n      tag_86\n      jump\t// in\n    tag_84:\n      mload(0x40)\n      tag_87\n      swap2\n      swap1\n      tag_35\n      jump\t// in\n    tag_87:\n      mload(0x40)\n      dup1\n      swap2\n      sub\n      swap1\n      return\n        /* \"contracts/LendingPool.sol\":7313:7538  function calculateInterestRate(address token, uint256 totalSupply, uint256 totalBorrows) public view returns (uint256) {... */\n    tag_14:\n      callvalue\n      dup1\n      iszero\n      tag_88\n      jumpi\n      0x00\n      dup1\n      revert\n    tag_88:\n      pop\n      tag_89\n      0x04\n      dup1\n      calldatasize\n      sub\n      dup2\n      add\n      swap1\n      tag_90\n      swap2\n      swap1\n      tag_91\n      jump\t// in\n    tag_90:\n      tag_92\n      jump\t// in\n    tag_89:\n      mload(0x40)\n      tag_93\n      swap2\n      swap1\n      tag_35\n      jump\t// in\n    tag_93:\n      mload(0x40)\n      dup1\n      swap2\n      sub\n      swap1\n      return\n        /* \"contracts/LendingPool.sol\":311:347  uint256 public baseInterestRate = 10 */\n    tag_15:\n      callvalue\n      dup1\n      iszero\n      tag_94\n      jumpi\n      0x00\n      dup1\n      revert\n    tag_94:\n      pop\n      tag_95\n      tag_96\n      jump\t// in\n    tag_95:\n      mload(0x40)\n      tag_97\n      swap2\n      swap1\n      tag_35\n      jump\t// in\n    tag_97:\n      mload(0x40)\n      dup1\n      swap2\n      sub\n      swap1\n      return\n        /* \"contracts/LendingPool.sol\":510:542  address[] public supportedTokens */\n    tag_16:\n      callvalue\n      dup1\n      iszero\n      tag_98\n      jumpi\n      0x00\n      dup1\n      revert\n    tag_98:\n      pop\n      tag_99\n      0x04\n      dup1\n      calldatasize\n      sub\n      dup2\n      add\n      swap1\n      tag_100\n      swap2\n      swap1\n      tag_56\n      jump\t// in\n    tag_100:\n      tag_101\n      jump\t// in\n    tag_99:\n      mload(0x40)\n      tag_102\n      swap2\n      swap1\n      tag_103\n      jump\t// in\n    tag_102:\n      mload(0x40)\n      dup1\n      swap2\n      sub\n      swap1\n      return\n        /* \"contracts/LendingPool.sol\":744:809  mapping(address => mapping(address => uint256)) public collateral */\n    tag_17:\n      callvalue\n      dup1\n      iszero\n      tag_104\n      jumpi\n      0x00\n      dup1\n      revert\n    tag_104:\n      pop\n      tag_105\n      0x04\n      dup1\n      calldatasize\n      sub\n      dup2\n      add\n      swap1\n      tag_106\n      swap2\n      swap1\n      tag_32\n      jump\t// in\n    tag_106:\n      tag_107\n      jump\t// in\n    tag_105:\n      mload(0x40)\n      tag_108\n      swap2\n      swap1\n      tag_35\n      jump\t// in\n    tag_108:\n      mload(0x40)\n      dup1\n      swap2\n      sub\n      swap1\n      return\n        /* \"contracts/LendingPool.sol\":5294:6327  function calculateRepayableCollateral(uint256 repayAmount, uint256 accruedInterest) public view returns (uint256)... */\n    tag_18:\n      callvalue\n      dup1\n      iszero\n      tag_109\n      jumpi\n      0x00\n      dup1\n      revert\n    tag_109:\n      pop\n      tag_110\n      0x04\n      dup1\n      calldatasize\n      sub\n      dup2\n      add\n      swap1\n      tag_111\n      swap2\n      swap1\n      tag_112\n      jump\t// in\n    tag_111:\n      tag_113\n      jump\t// in\n    tag_110:\n      mload(0x40)\n      tag_114\n      swap2\n      swap1\n      tag_35\n      jump\t// in\n    tag_114:\n      mload(0x40)\n      dup1\n      swap2\n      sub\n      swap1\n      return\n        /* \"contracts/LendingPool.sol\":1394:1414  Escrow public escrow */\n    tag_19:\n      callvalue\n      dup1\n      iszero\n      tag_115\n      jumpi\n      0x00\n      dup1\n      revert\n    tag_115:\n      pop\n      tag_116\n      tag_117\n      jump\t// in\n    tag_116:\n      mload(0x40)\n      tag_118\n      swap2\n      swap1\n      tag_119\n      jump\t// in\n    tag_118:\n      mload(0x40)\n      dup1\n      swap2\n      sub\n      swap1\n      return\n        /* \"contracts/LendingPool.sol\":900:956  mapping(address => uint256) public totalBorrowedperToken */\n    tag_20:\n      callvalue\n      dup1\n      iszero\n      tag_120\n      jumpi\n      0x00\n      dup1\n      revert\n    tag_120:\n      pop\n      tag_121\n      0x04\n      dup1\n      calldatasize\n      sub\n      dup2\n      add\n      swap1\n      tag_122\n      swap2\n      swap1\n      tag_39\n      jump\t// in\n    tag_122:\n      tag_123\n      jump\t// in\n    tag_121:\n      mload(0x40)\n      tag_124\n      swap2\n      swap1\n      tag_35\n      jump\t// in\n    tag_124:\n      mload(0x40)\n      dup1\n      swap2\n      sub\n      swap1\n      return\n        /* \"contracts/LendingPool.sol\":6477:6583  function depositCollateral(address token, address borrower, uint256 amount) public... */\n    tag_21:\n      callvalue\n      dup1\n      iszero\n      tag_125\n      jumpi\n      0x00\n      dup1\n      revert\n    tag_125:\n      pop\n      tag_126\n      0x04\n      dup1\n      calldatasize\n      sub\n      dup2\n      add\n      swap1\n      tag_127\n      swap2\n      swap1\n      tag_51\n      jump\t// in\n    tag_127:\n      tag_128\n      jump\t// in\n    tag_126:\n      stop\n        /* \"contracts/LendingPool.sol\":3651:4777  function repay(address token, uint256 amount) public payable nonReentrant... */\n    tag_28:\n        /* \"@openzeppelin/contracts/security/ReentrancyGuard.sol\":2261:2282  _nonReentrantBefore() */\n      tag_130\n        /* \"@openzeppelin/contracts/security/ReentrancyGuard.sol\":2261:2280  _nonReentrantBefore */\n      tag_131\n        /* \"@openzeppelin/contracts/security/ReentrancyGuard.sol\":2261:2282  _nonReentrantBefore() */\n      jump\t// in\n    tag_130:\n        /* \"contracts/LendingPool.sol\":3758:3759  0 */\n      0x00\n        /* \"contracts/LendingPool.sol\":3749:3755  amount */\n      dup2\n        /* \"contracts/LendingPool.sol\":3749:3759  amount > 0 */\n      gt\n        /* \"contracts/LendingPool.sol\":3741:3806  require(amount > 0, \"Repayment amount must be greater than zero\") */\n      tag_133\n      jumpi\n      mload(0x40)\n      0x08c379a000000000000000000000000000000000000000000000000000000000\n      dup2\n      mstore\n      0x04\n      add\n      tag_134\n      swap1\n      tag_135\n      jump\t// in\n    tag_134:\n      mload(0x40)\n      dup1\n      swap2\n      sub\n      swap1\n      revert\n    tag_133:\n        /* \"contracts/LendingPool.sol\":3913:3919  amount */\n      dup1\n        /* \"contracts/LendingPool.sol\":3879:3890  userBorrows */\n      0x04\n        /* \"contracts/LendingPool.sol\":3879:3897  userBorrows[token] */\n      0x00\n        /* \"contracts/LendingPool.sol\":3891:3896  token */\n      dup5\n        /* \"contracts/LendingPool.sol\":3879:3897  userBorrows[token] */\n      0xffffffffffffffffffffffffffffffffffffffff\n      and\n      0xffffffffffffffffffffffffffffffffffffffff\n      and\n      dup2\n      mstore\n      0x20\n      add\n      swap1\n      dup2\n      mstore\n      0x20\n      add\n      0x00\n      keccak256\n        /* \"contracts/LendingPool.sol\":3879:3909  userBorrows[token][msg.sender] */\n      0x00\n        /* \"contracts/LendingPool.sol\":3898:3908  msg.sender */\n      caller\n        /* \"contracts/LendingPool.sol\":3879:3909  userBorrows[token][msg.sender] */\n      0xffffffffffffffffffffffffffffffffffffffff\n      and\n      0xffffffffffffffffffffffffffffffffffffffff\n      and\n      dup2\n      mstore\n      0x20\n      add\n      swap1\n      dup2\n      mstore\n      0x20\n      add\n      0x00\n      keccak256\n      0x00\n        /* \"contracts/LendingPool.sol\":3879:3919  userBorrows[token][msg.sender] -= amount */\n      dup3\n      dup3\n      sload\n      tag_136\n      swap2\n      swap1\n      tag_137\n      jump\t// in\n    tag_136:\n      swap3\n      pop\n      pop\n      dup2\n      swap1\n      sstore\n      pop\n        /* \"contracts/LendingPool.sol\":3962:3968  amount */\n      dup1\n        /* \"contracts/LendingPool.sol\":3930:3951  totalBorrowedperToken */\n      0x06\n        /* \"contracts/LendingPool.sol\":3930:3958  totalBorrowedperToken[token] */\n      0x00\n        /* \"contracts/LendingPool.sol\":3952:3957  token */\n      dup5\n        /* \"contracts/LendingPool.sol\":3930:3958  totalBorrowedperToken[token] */\n      0xffffffffffffffffffffffffffffffffffffffff\n      and\n      0xffffffffffffffffffffffffffffffffffffffff\n      and\n      dup2\n      mstore\n      0x20\n      add\n      swap1\n      dup2\n      mstore\n      0x20\n      add\n      0x00\n      keccak256\n      0x00\n        /* \"contracts/LendingPool.sol\":3930:3968  totalBorrowedperToken[token] -= amount */\n      dup3\n      dup3\n      sload\n      tag_138\n      swap2\n      swap1\n      tag_137\n      jump\t// in\n    tag_138:\n      swap3\n      pop\n      pop\n      dup2\n      swap1\n      sstore\n      pop\n        /* \"contracts/LendingPool.sol\":4015:4021  amount */\n      dup1\n        /* \"contracts/LendingPool.sol\":3979:3999  totalBorrowedperUser */\n      0x07\n        /* \"contracts/LendingPool.sol\":3979:4011  totalBorrowedperUser[msg.sender] */\n      0x00\n        /* \"contracts/LendingPool.sol\":4000:4010  msg.sender */\n      caller\n        /* \"contracts/LendingPool.sol\":3979:4011  totalBorrowedperUser[msg.sender] */\n      0xffffffffffffffffffffffffffffffffffffffff\n      and\n      0xffffffffffffffffffffffffffffffffffffffff\n      and\n      dup2\n      mstore\n      0x20\n      add\n      swap1\n      dup2\n      mstore\n      0x20\n      add\n      0x00\n      keccak256\n      0x00\n        /* \"contracts/LendingPool.sol\":3979:4021  totalBorrowedperUser[msg.sender] -= amount */\n      dup3\n      dup3\n      sload\n      tag_139\n      swap2\n      swap1\n      tag_137\n      jump\t// in\n    tag_139:\n      swap3\n      pop\n      pop\n      dup2\n      swap1\n      sstore\n      pop\n        /* \"contracts/LendingPool.sol\":4073:4096  uint256 accruedInterest */\n      0x00\n        /* \"contracts/LendingPool.sol\":4099:4142  calculateAccruedInterest(token, msg.sender) */\n      tag_140\n        /* \"contracts/LendingPool.sol\":4124:4129  token */\n      dup4\n        /* \"contracts/LendingPool.sol\":4131:4141  msg.sender */\n      caller\n        /* \"contracts/LendingPool.sol\":4099:4123  calculateAccruedInterest */\n      tag_81\n        /* \"contracts/LendingPool.sol\":4099:4142  calculateAccruedInterest(token, msg.sender) */\n      jump\t// in\n    tag_140:\n        /* \"contracts/LendingPool.sol\":4073:4142  uint256 accruedInterest = calculateAccruedInterest(token, msg.sender) */\n      swap1\n      pop\n        /* \"contracts/LendingPool.sol\":4239:4254  accruedInterest */\n      dup1\n        /* \"contracts/LendingPool.sol\":4230:4236  amount */\n      dup3\n        /* \"contracts/LendingPool.sol\":4230:4254  amount + accruedInterest */\n      tag_141\n      swap2\n      swap1\n      tag_142\n      jump\t// in\n    tag_141:\n        /* \"contracts/LendingPool.sol\":4196:4207  userBorrows */\n      0x04\n        /* \"contracts/LendingPool.sol\":4196:4214  userBorrows[token] */\n      0x00\n        /* \"contracts/LendingPool.sol\":4208:4213  token */\n      dup6\n        /* \"contracts/LendingPool.sol\":4196:4214  userBorrows[token] */\n      0xffffffffffffffffffffffffffffffffffffffff\n      and\n      0xffffffffffffffffffffffffffffffffffffffff\n      and\n      dup2\n      mstore\n      0x20\n      add\n      swap1\n      dup2\n      mstore\n      0x20\n      add\n      0x00\n      keccak256\n        /* \"contracts/LendingPool.sol\":4196:4226  userBorrows[token][msg.sender] */\n      0x00\n        /* \"contracts/LendingPool.sol\":4215:4225  msg.sender */\n      caller\n        /* \"contracts/LendingPool.sol\":4196:4226  userBorrows[token][msg.sender] */\n      0xffffffffffffffffffffffffffffffffffffffff\n      and\n      0xffffffffffffffffffffffffffffffffffffffff\n      and\n      dup2\n      mstore\n      0x20\n      add\n      swap1\n      dup2\n      mstore\n      0x20\n      add\n      0x00\n      keccak256\n      sload\n        /* \"contracts/LendingPool.sol\":4196:4254  userBorrows[token][msg.sender] >= amount + accruedInterest */\n      lt\n      iszero\n        /* \"contracts/LendingPool.sol\":4188:4297  require(userBorrows[token][msg.sender] >= amount + accruedInterest, \"Repayment amount exceeds borrow amount\") */\n      tag_143\n      jumpi\n      mload(0x40)\n      0x08c379a000000000000000000000000000000000000000000000000000000000\n      dup2\n      mstore\n      0x04\n      add\n      tag_144\n      swap1\n      tag_145\n      jump\t// in\n    tag_144:\n      mload(0x40)\n      dup1\n      swap2\n      sub\n      swap1\n      revert\n    tag_143:\n        /* \"contracts/LendingPool.sol\":4445:4454  msg.value */\n      callvalue\n        /* \"contracts/LendingPool.sol\":4426:4441  accruedInterest */\n      dup2\n        /* \"contracts/LendingPool.sol\":4417:4423  amount */\n      dup4\n        /* \"contracts/LendingPool.sol\":4417:4441  amount + accruedInterest */\n      tag_146\n      swap2\n      swap1\n      tag_142\n      jump\t// in\n    tag_146:\n        /* \"contracts/LendingPool.sol\":4417:4454  amount + accruedInterest >= msg.value */\n      lt\n      iszero\n        /* \"contracts/LendingPool.sol\":4409:4512  require(amount + accruedInterest >= msg.value, \"Insufficient funds for repayment and accrued interest\") */\n      tag_147\n      jumpi\n      mload(0x40)\n      0x08c379a000000000000000000000000000000000000000000000000000000000\n      dup2\n      mstore\n      0x04\n      add\n      tag_148\n      swap1\n      tag_149\n      jump\t// in\n    tag_148:\n      mload(0x40)\n      dup1\n      swap2\n      sub\n      swap1\n      revert\n    tag_147:\n        /* \"contracts/LendingPool.sol\":4602:4611  msg.value */\n      callvalue\n        /* \"contracts/LendingPool.sol\":4584:4599  accruedInterest */\n      dup2\n        /* \"contracts/LendingPool.sol\":4575:4581  amount */\n      dup4\n        /* \"contracts/LendingPool.sol\":4575:4599  amount + accruedInterest */\n      tag_150\n      swap2\n      swap1\n      tag_142\n      jump\t// in\n    tag_150:\n        /* \"contracts/LendingPool.sol\":4575:4611  amount + accruedInterest > msg.value */\n      gt\n        /* \"contracts/LendingPool.sol\":4572:4713  if(amount + accruedInterest > msg.value)... */\n      iszero\n      tag_151\n      jumpi\n        /* \"contracts/LendingPool.sol\":4645:4655  msg.sender */\n      caller\n        /* \"contracts/LendingPool.sol\":4637:4665  payable(msg.sender).transfer */\n      0xffffffffffffffffffffffffffffffffffffffff\n      and\n        /* \"contracts/LendingPool.sol\":4637:4701  payable(msg.sender).transfer(amount+accruedInterest - msg.value) */\n      0x08fc\n        /* \"contracts/LendingPool.sol\":4691:4700  msg.value */\n      callvalue\n        /* \"contracts/LendingPool.sol\":4673:4688  accruedInterest */\n      dup4\n        /* \"contracts/LendingPool.sol\":4666:4672  amount */\n      dup6\n        /* \"contracts/LendingPool.sol\":4666:4688  amount+accruedInterest */\n      tag_152\n      swap2\n      swap1\n      tag_142\n      jump\t// in\n    tag_152:\n        /* \"contracts/LendingPool.sol\":4666:4700  amount+accruedInterest - msg.value */\n      tag_153\n      swap2\n      swap1\n      tag_137\n      jump\t// in\n    tag_153:\n        /* \"contracts/LendingPool.sol\":4637:4701  payable(msg.sender).transfer(amount+accruedInterest - msg.value) */\n      swap1\n      dup2\n      iszero\n      mul\n      swap1\n      mload(0x40)\n      0x00\n      mload(0x40)\n      dup1\n      dup4\n      sub\n      dup2\n      dup6\n      dup9\n      dup9\n      call\n      swap4\n      pop\n      pop\n      pop\n      pop\n      iszero\n      dup1\n      iszero\n      tag_155\n      jumpi\n      returndatasize\n      0x00\n      dup1\n      returndatacopy\n      revert(0x00, returndatasize)\n    tag_155:\n      pop\n        /* \"contracts/LendingPool.sol\":4572:4713  if(amount + accruedInterest > msg.value)... */\n    tag_151:\n        /* \"contracts/LendingPool.sol\":3730:4777  {... */\n      pop\n        /* \"@openzeppelin/contracts/security/ReentrancyGuard.sol\":2303:2323  _nonReentrantAfter() */\n      tag_156\n        /* \"@openzeppelin/contracts/security/ReentrancyGuard.sol\":2303:2321  _nonReentrantAfter */\n      tag_157\n        /* \"@openzeppelin/contracts/security/ReentrancyGuard.sol\":2303:2323  _nonReentrantAfter() */\n      jump\t// in\n    tag_156:\n        /* \"contracts/LendingPool.sol\":3651:4777  function repay(address token, uint256 amount) public payable nonReentrant... */\n      pop\n      pop\n      jump\t// out\n        /* \"contracts/LendingPool.sol\":580:648  mapping (address => mapping (address => uint256)) public userBorrows */\n    tag_33:\n      mstore(0x20, 0x04)\n      dup2\n      0x00\n      mstore\n      mstore(0x20, keccak256(0x00, 0x40))\n      dup1\n      0x00\n      mstore\n      keccak256(0x00, 0x40)\n      0x00\n      swap2\n      pop\n      swap2\n      pop\n      pop\n      sload\n      dup2\n      jump\t// out\n        /* \"contracts/LendingPool.sol\":996:1051  mapping(address => uint256) public totalBorrowedperUser */\n    tag_40:\n      mstore(0x20, 0x07)\n      dup1\n      0x00\n      mstore\n      keccak256(0x00, 0x40)\n      0x00\n      swap2\n      pop\n      swap1\n      pop\n      sload\n      dup2\n      jump\t// out\n        /* \"contracts/LendingPool.sol\":1264:1335  mapping(address => mapping(address => BorrowInfo)) public borrowedToken */\n    tag_45:\n      mstore(0x20, 0x08)\n      dup2\n      0x00\n      mstore\n      mstore(0x20, keccak256(0x00, 0x40))\n      dup1\n      0x00\n      mstore\n      keccak256(0x00, 0x40)\n      0x00\n      swap2\n      pop\n      swap2\n      pop\n      pop\n      dup1\n      0x00\n      add\n      sload\n      swap1\n      dup1\n      0x01\n      add\n      sload\n      swap1\n      dup1\n      0x02\n      add\n      sload\n      swap1\n      pop\n      dup4\n      jump\t// out\n        /* \"contracts/LendingPool.sol\":7219:7305  function withdrawCollateral(address token, address borrower, uint256 amount) public {} */\n    tag_52:\n      pop\n      pop\n      pop\n      jump\t// out\n        /* \"contracts/LendingPool.sol\":6922:7183  function calculateRequiredCollateral(uint256 borrowAmount) public pure returns(uint256)... */\n    tag_57:\n        /* \"contracts/LendingPool.sol\":7001:7008  uint256 */\n      0x00\n        /* \"contracts/LendingPool.sol\":6922:7183  function calculateRequiredCollateral(uint256 borrowAmount) public pure returns(uint256)... */\n      swap2\n      swap1\n      pop\n      jump\t// out\n        /* \"contracts/LendingPool.sol\":6591:6914  function isSufficientCollateral(address user, address token, uint256 borrowAmount) public view returns(bool)... */\n    tag_62:\n        /* \"contracts/LendingPool.sol\":6694:6698  bool */\n      0x00\n        /* \"contracts/LendingPool.sol\":6716:6741  uint256 totalUserDeposits */\n      dup1\n        /* \"contracts/LendingPool.sol\":6744:6745  0 */\n      0x00\n        /* \"contracts/LendingPool.sol\":6716:6745  uint256 totalUserDeposits = 0 */\n      swap1\n      pop\n        /* \"contracts/LendingPool.sol\":6760:6769  uint256 i */\n      0x00\n        /* \"contracts/LendingPool.sol\":6756:6899  for(uint256 i=0; i<supportedTokens.length; i++)... */\n    tag_161:\n        /* \"contracts/LendingPool.sol\":6775:6790  supportedTokens */\n      0x03\n        /* \"contracts/LendingPool.sol\":6775:6797  supportedTokens.length */\n      dup1\n      sload\n      swap1\n      pop\n        /* \"contracts/LendingPool.sol\":6773:6774  i */\n      dup2\n        /* \"contracts/LendingPool.sol\":6773:6797  i<supportedTokens.length */\n      lt\n        /* \"contracts/LendingPool.sol\":6756:6899  for(uint256 i=0; i<supportedTokens.length; i++)... */\n      iszero\n      tag_162\n      jumpi\n        /* \"contracts/LendingPool.sol\":6849:6861  userDeposits */\n      0x02\n        /* \"contracts/LendingPool.sol\":6849:6881  userDeposits[supportedTokens[i]] */\n      0x00\n        /* \"contracts/LendingPool.sol\":6862:6877  supportedTokens */\n      0x03\n        /* \"contracts/LendingPool.sol\":6878:6879  i */\n      dup4\n        /* \"contracts/LendingPool.sol\":6862:6880  supportedTokens[i] */\n      dup2\n      sload\n      dup2\n      lt\n      tag_164\n      jumpi\n      tag_165\n      tag_166\n      jump\t// in\n    tag_165:\n    tag_164:\n      swap1\n      0x00\n      mstore\n      keccak256(0x00, 0x20)\n      add\n      0x00\n      swap1\n      sload\n      swap1\n      0x0100\n      exp\n      swap1\n      div\n      0xffffffffffffffffffffffffffffffffffffffff\n      and\n        /* \"contracts/LendingPool.sol\":6849:6881  userDeposits[supportedTokens[i]] */\n      0xffffffffffffffffffffffffffffffffffffffff\n      and\n      0xffffffffffffffffffffffffffffffffffffffff\n      and\n      dup2\n      mstore\n      0x20\n      add\n      swap1\n      dup2\n      mstore\n      0x20\n      add\n      0x00\n      keccak256\n        /* \"contracts/LendingPool.sol\":6849:6887  userDeposits[supportedTokens[i]][user] */\n      0x00\n        /* \"contracts/LendingPool.sol\":6882:6886  user */\n      dup8\n        /* \"contracts/LendingPool.sol\":6849:6887  userDeposits[supportedTokens[i]][user] */\n      0xffffffffffffffffffffffffffffffffffffffff\n      and\n      0xffffffffffffffffffffffffffffffffffffffff\n      and\n      dup2\n      mstore\n      0x20\n      add\n      swap1\n      dup2\n      mstore\n      0x20\n      add\n      0x00\n      keccak256\n      sload\n        /* \"contracts/LendingPool.sol\":6828:6887  totalUserDeposits += userDeposits[supportedTokens[i]][user] */\n      dup3\n      tag_168\n      swap2\n      swap1\n      tag_142\n      jump\t// in\n    tag_168:\n      swap2\n      pop\n        /* \"contracts/LendingPool.sol\":6799:6802  i++ */\n      dup1\n      dup1\n      0x01\n      add\n      swap2\n      pop\n      pop\n        /* \"contracts/LendingPool.sol\":6756:6899  for(uint256 i=0; i<supportedTokens.length; i++)... */\n      jump(tag_161)\n    tag_162:\n      pop\n        /* \"contracts/LendingPool.sol\":6705:6914  {... */\n      pop\n        /* \"contracts/LendingPool.sol\":6591:6914  function isSufficientCollateral(address user, address token, uint256 borrowAmount) public view returns(bool)... */\n      swap4\n      swap3\n      pop\n      pop\n      pop\n      jump\t// out\n        /* \"contracts/LendingPool.sol\":392:460  mapping (address => mapping(address => uint256)) public userDeposits */\n    tag_68:\n      mstore(0x20, 0x02)\n      dup2\n      0x00\n      mstore\n      mstore(0x20, keccak256(0x00, 0x40))\n      dup1\n      0x00\n      mstore\n      keccak256(0x00, 0x40)\n      0x00\n      swap2\n      pop\n      swap2\n      pop\n      pop\n      sload\n      dup2\n      jump\t// out\n        /* \"contracts/LendingPool.sol\":1771:2142  function deposit(address token, uint256 amount) public... */\n    tag_73:\n        /* \"contracts/LendingPool.sol\":1859:1860  0 */\n      0x00\n        /* \"contracts/LendingPool.sol\":1850:1856  amount */\n      dup2\n        /* \"contracts/LendingPool.sol\":1850:1860  amount > 0 */\n      gt\n        /* \"contracts/LendingPool.sol\":1842:1905  require(amount > 0, \"Deposit amount must be greater than zero\") */\n      tag_170\n      jumpi\n      mload(0x40)\n      0x08c379a000000000000000000000000000000000000000000000000000000000\n      dup2\n      mstore\n      0x04\n      add\n      tag_171\n      swap1\n      tag_172\n      jump\t// in\n    tag_171:\n      mload(0x40)\n      dup1\n      swap2\n      sub\n      swap1\n      revert\n    tag_170:\n        /* \"contracts/LendingPool.sol\":1973:1978  token */\n      dup2\n        /* \"contracts/LendingPool.sol\":1966:1992  IERC20(token).transferFrom */\n      0xffffffffffffffffffffffffffffffffffffffff\n      and\n      0x23b872dd\n        /* \"contracts/LendingPool.sol\":1993:2003  msg.sender */\n      caller\n        /* \"contracts/LendingPool.sol\":2013:2017  this */\n      address\n        /* \"contracts/LendingPool.sol\":2020:2026  amount */\n      dup5\n        /* \"contracts/LendingPool.sol\":1966:2027  IERC20(token).transferFrom(msg.sender, address(this), amount) */\n      mload(0x40)\n      dup5\n      0xffffffff\n      and\n      0xe0\n      shl\n      dup2\n      mstore\n      0x04\n      add\n      tag_173\n      swap4\n      swap3\n      swap2\n      swap1\n      tag_174\n      jump\t// in\n    tag_173:\n      0x20\n      mload(0x40)\n      dup1\n      dup4\n      sub\n      dup2\n      0x00\n      dup8\n      gas\n      call\n      iszero\n      dup1\n      iszero\n      tag_176\n      jumpi\n      returndatasize\n      0x00\n      dup1\n      returndatacopy\n      revert(0x00, returndatasize)\n    tag_176:\n      pop\n      pop\n      pop\n      pop\n      mload(0x40)\n      returndatasize\n      not(0x1f)\n      0x1f\n      dup3\n      add\n      and\n      dup3\n      add\n      dup1\n      0x40\n      mstore\n      pop\n      dup2\n      add\n      swap1\n      tag_177\n      swap2\n      swap1\n      tag_178\n      jump\t// in\n    tag_177:\n      pop\n        /* \"contracts/LendingPool.sol\":2074:2080  amount */\n      dup1\n        /* \"contracts/LendingPool.sol\":2039:2051  userDeposits */\n      0x02\n        /* \"contracts/LendingPool.sol\":2039:2058  userDeposits[token] */\n      0x00\n        /* \"contracts/LendingPool.sol\":2052:2057  token */\n      dup5\n        /* \"contracts/LendingPool.sol\":2039:2058  userDeposits[token] */\n      0xffffffffffffffffffffffffffffffffffffffff\n      and\n      0xffffffffffffffffffffffffffffffffffffffff\n      and\n      dup2\n      mstore\n      0x20\n      add\n      swap1\n      dup2\n      mstore\n      0x20\n      add\n      0x00\n      keccak256\n        /* \"contracts/LendingPool.sol\":2039:2070  userDeposits[token][msg.sender] */\n      0x00\n        /* \"contracts/LendingPool.sol\":2059:2069  msg.sender */\n      caller\n        /* \"contracts/LendingPool.sol\":2039:2070  userDeposits[token][msg.sender] */\n      0xffffffffffffffffffffffffffffffffffffffff\n      and\n      0xffffffffffffffffffffffffffffffffffffffff\n      and\n      dup2\n      mstore\n      0x20\n      add\n      swap1\n      dup2\n      mstore\n      0x20\n      add\n      0x00\n      keccak256\n      0x00\n        /* \"contracts/LendingPool.sol\":2039:2080  userDeposits[token][msg.sender] += amount */\n      dup3\n      dup3\n      sload\n      tag_179\n      swap2\n      swap1\n      tag_142\n      jump\t// in\n    tag_179:\n      swap3\n      pop\n      pop\n      dup2\n      swap1\n      sstore\n      pop\n        /* \"contracts/LendingPool.sol\":2115:2125  msg.sender */\n      caller\n        /* \"contracts/LendingPool.sol\":2096:2134  DepositMade(token, msg.sender, amount) */\n      0xffffffffffffffffffffffffffffffffffffffff\n      and\n        /* \"contracts/LendingPool.sol\":2108:2113  token */\n      dup3\n        /* \"contracts/LendingPool.sol\":2096:2134  DepositMade(token, msg.sender, amount) */\n      0xffffffffffffffffffffffffffffffffffffffff\n      and\n      0x1de3ece35391f6bba650736f2d5d3f12e2cfc54538a340cc5d762d34ca449de7\n        /* \"contracts/LendingPool.sol\":2127:2133  amount */\n      dup4\n        /* \"contracts/LendingPool.sol\":2096:2134  DepositMade(token, msg.sender, amount) */\n      mload(0x40)\n      tag_180\n      swap2\n      swap1\n      tag_35\n      jump\t// in\n    tag_180:\n      mload(0x40)\n      dup1\n      swap2\n      sub\n      swap1\n      log3\n        /* \"contracts/LendingPool.sol\":1771:2142  function deposit(address token, uint256 amount) public... */\n      pop\n      pop\n      jump\t// out\n        /* \"contracts/LendingPool.sol\":2461:3643  function borrow(address token, uint256 amount) public nonReentrant... */\n    tag_77:\n        /* \"@openzeppelin/contracts/security/ReentrancyGuard.sol\":2261:2282  _nonReentrantBefore() */\n      tag_182\n        /* \"@openzeppelin/contracts/security/ReentrancyGuard.sol\":2261:2280  _nonReentrantBefore */\n      tag_131\n        /* \"@openzeppelin/contracts/security/ReentrancyGuard.sol\":2261:2282  _nonReentrantBefore() */\n      jump\t// in\n    tag_182:\n        /* \"contracts/LendingPool.sol\":2561:2562  0 */\n      0x00\n        /* \"contracts/LendingPool.sol\":2552:2558  amount */\n      dup2\n        /* \"contracts/LendingPool.sol\":2552:2562  amount > 0 */\n      gt\n        /* \"contracts/LendingPool.sol\":2544:2606  require(amount > 0, \"Borrow amount must be greater than zero\") */\n      tag_184\n      jumpi\n      mload(0x40)\n      0x08c379a000000000000000000000000000000000000000000000000000000000\n      dup2\n      mstore\n      0x04\n      add\n      tag_185\n      swap1\n      tag_186\n      jump\t// in\n    tag_185:\n      mload(0x40)\n      dup1\n      swap2\n      sub\n      swap1\n      revert\n    tag_184:\n        /* \"contracts/LendingPool.sol\":2625:2674  isSufficientCollateral(msg.sender, token, amount) */\n      tag_187\n        /* \"contracts/LendingPool.sol\":2648:2658  msg.sender */\n      caller\n        /* \"contracts/LendingPool.sol\":2660:2665  token */\n      dup4\n        /* \"contracts/LendingPool.sol\":2667:2673  amount */\n      dup4\n        /* \"contracts/LendingPool.sol\":2625:2647  isSufficientCollateral */\n      tag_62\n        /* \"contracts/LendingPool.sol\":2625:2674  isSufficientCollateral(msg.sender, token, amount) */\n      jump\t// in\n    tag_187:\n        /* \"contracts/LendingPool.sol\":2617:2702  require(isSufficientCollateral(msg.sender, token, amount), \"Insufficient collateral\") */\n      tag_188\n      jumpi\n      mload(0x40)\n      0x08c379a000000000000000000000000000000000000000000000000000000000\n      dup2\n      mstore\n      0x04\n      add\n      tag_189\n      swap1\n      tag_190\n      jump\t// in\n    tag_189:\n      mload(0x40)\n      dup1\n      swap2\n      sub\n      swap1\n      revert\n    tag_188:\n        /* \"contracts/LendingPool.sol\":2763:2769  amount */\n      dup1\n        /* \"contracts/LendingPool.sol\":2728:2733  token */\n      dup3\n        /* \"contracts/LendingPool.sol\":2721:2744  IERC20(token).balanceOf */\n      0xffffffffffffffffffffffffffffffffffffffff\n      and\n      0x70a08231\n        /* \"contracts/LendingPool.sol\":2753:2757  this */\n      address\n        /* \"contracts/LendingPool.sol\":2721:2759  IERC20(token).balanceOf(address(this)) */\n      mload(0x40)\n      dup3\n      0xffffffff\n      and\n      0xe0\n      shl\n      dup2\n      mstore\n      0x04\n      add\n      tag_191\n      swap2\n      swap1\n      tag_103\n      jump\t// in\n    tag_191:\n      0x20\n      mload(0x40)\n      dup1\n      dup4\n      sub\n      dup2\n      dup7\n      gas\n      staticcall\n      iszero\n      dup1\n      iszero\n      tag_193\n      jumpi\n      returndatasize\n      0x00\n      dup1\n      returndatacopy\n      revert(0x00, returndatasize)\n    tag_193:\n      pop\n      pop\n      pop\n      pop\n      mload(0x40)\n      returndatasize\n      not(0x1f)\n      0x1f\n      dup3\n      add\n      and\n      dup3\n      add\n      dup1\n      0x40\n      mstore\n      pop\n      dup2\n      add\n      swap1\n      tag_194\n      swap2\n      swap1\n      tag_195\n      jump\t// in\n    tag_194:\n        /* \"contracts/LendingPool.sol\":2721:2769  IERC20(token).balanceOf(address(this)) >= amount */\n      lt\n      iszero\n        /* \"contracts/LendingPool.sol\":2713:2810  require(IERC20(token).balanceOf(address(this)) >= amount, \"Insufficient liquidity for borrowing\") */\n      tag_196\n      jumpi\n      mload(0x40)\n      0x08c379a000000000000000000000000000000000000000000000000000000000\n      dup2\n      mstore\n      0x04\n      add\n      tag_197\n      swap1\n      tag_198\n      jump\t// in\n    tag_197:\n      mload(0x40)\n      dup1\n      swap2\n      sub\n      swap1\n      revert\n    tag_196:\n        /* \"contracts/LendingPool.sol\":2907:2913  amount */\n      dup1\n        /* \"contracts/LendingPool.sol\":2873:2884  userBorrows */\n      0x04\n        /* \"contracts/LendingPool.sol\":2873:2891  userBorrows[token] */\n      0x00\n        /* \"contracts/LendingPool.sol\":2885:2890  token */\n      dup5\n        /* \"contracts/LendingPool.sol\":2873:2891  userBorrows[token] */\n      0xffffffffffffffffffffffffffffffffffffffff\n      and\n      0xffffffffffffffffffffffffffffffffffffffff\n      and\n      dup2\n      mstore\n      0x20\n      add\n      swap1\n      dup2\n      mstore\n      0x20\n      add\n      0x00\n      keccak256\n        /* \"contracts/LendingPool.sol\":2873:2903  userBorrows[token][msg.sender] */\n      0x00\n        /* \"contracts/LendingPool.sol\":2892:2902  msg.sender */\n      caller\n        /* \"contracts/LendingPool.sol\":2873:2903  userBorrows[token][msg.sender] */\n      0xffffffffffffffffffffffffffffffffffffffff\n      and\n      0xffffffffffffffffffffffffffffffffffffffff\n      and\n      dup2\n      mstore\n      0x20\n      add\n      swap1\n      dup2\n      mstore\n      0x20\n      add\n      0x00\n      keccak256\n      0x00\n        /* \"contracts/LendingPool.sol\":2873:2913  userBorrows[token][msg.sender] += amount */\n      dup3\n      dup3\n      sload\n      tag_199\n      swap2\n      swap1\n      tag_142\n      jump\t// in\n    tag_199:\n      swap3\n      pop\n      pop\n      dup2\n      swap1\n      sstore\n      pop\n        /* \"contracts/LendingPool.sol\":2956:2962  amount */\n      dup1\n        /* \"contracts/LendingPool.sol\":2924:2945  totalBorrowedperToken */\n      0x06\n        /* \"contracts/LendingPool.sol\":2924:2952  totalBorrowedperToken[token] */\n      0x00\n        /* \"contracts/LendingPool.sol\":2946:2951  token */\n      dup5\n        /* \"contracts/LendingPool.sol\":2924:2952  totalBorrowedperToken[token] */\n      0xffffffffffffffffffffffffffffffffffffffff\n      and\n      0xffffffffffffffffffffffffffffffffffffffff\n      and\n      dup2\n      mstore\n      0x20\n      add\n      swap1\n      dup2\n      mstore\n      0x20\n      add\n      0x00\n      keccak256\n      0x00\n        /* \"contracts/LendingPool.sol\":2924:2962  totalBorrowedperToken[token] += amount */\n      dup3\n      dup3\n      sload\n      tag_200\n      swap2\n      swap1\n      tag_142\n      jump\t// in\n    tag_200:\n      swap3\n      pop\n      pop\n      dup2\n      swap1\n      sstore\n      pop\n        /* \"contracts/LendingPool.sol\":3009:3015  amount */\n      dup1\n        /* \"contracts/LendingPool.sol\":2973:2993  totalBorrowedperUser */\n      0x07\n        /* \"contracts/LendingPool.sol\":2973:3005  totalBorrowedperUser[msg.sender] */\n      0x00\n        /* \"contracts/LendingPool.sol\":2994:3004  msg.sender */\n      caller\n        /* \"contracts/LendingPool.sol\":2973:3005  totalBorrowedperUser[msg.sender] */\n      0xffffffffffffffffffffffffffffffffffffffff\n      and\n      0xffffffffffffffffffffffffffffffffffffffff\n      and\n      dup2\n      mstore\n      0x20\n      add\n      swap1\n      dup2\n      mstore\n      0x20\n      add\n      0x00\n      keccak256\n      0x00\n        /* \"contracts/LendingPool.sol\":2973:3015  totalBorrowedperUser[msg.sender] += amount */\n      dup3\n      dup3\n      sload\n      tag_201\n      swap2\n      swap1\n      tag_142\n      jump\t// in\n    tag_201:\n      swap3\n      pop\n      pop\n      dup2\n      swap1\n      sstore\n      pop\n        /* \"contracts/LendingPool.sol\":3080:3153  depositCollateral(token, msg.sender, calculateRequiredCollateral(amount)) */\n      tag_202\n        /* \"contracts/LendingPool.sol\":3098:3103  token */\n      dup3\n        /* \"contracts/LendingPool.sol\":3105:3115  msg.sender */\n      caller\n        /* \"contracts/LendingPool.sol\":3117:3152  calculateRequiredCollateral(amount) */\n      tag_203\n        /* \"contracts/LendingPool.sol\":3145:3151  amount */\n      dup5\n        /* \"contracts/LendingPool.sol\":3117:3144  calculateRequiredCollateral */\n      tag_57\n        /* \"contracts/LendingPool.sol\":3117:3152  calculateRequiredCollateral(amount) */\n      jump\t// in\n    tag_203:\n        /* \"contracts/LendingPool.sol\":3080:3097  depositCollateral */\n      tag_128\n        /* \"contracts/LendingPool.sol\":3080:3153  depositCollateral(token, msg.sender, calculateRequiredCollateral(amount)) */\n      jump\t// in\n    tag_202:\n        /* \"contracts/LendingPool.sol\":3243:3261  uint256 timeFactor */\n      0x00\n        /* \"contracts/LendingPool.sol\":3264:3279  block.timestamp */\n      timestamp\n        /* \"contracts/LendingPool.sol\":3243:3279  uint256 timeFactor = block.timestamp */\n      swap1\n      pop\n        /* \"contracts/LendingPool.sol\":3290:3310  uint256 interestRate */\n      0x00\n        /* \"contracts/LendingPool.sol\":3332:3342  timeFactor */\n      dup2\n        /* \"contracts/LendingPool.sol\":3313:3329  baseInterestRate */\n      sload(0x01)\n        /* \"contracts/LendingPool.sol\":3313:3342  baseInterestRate + timeFactor */\n      tag_204\n      swap2\n      swap1\n      tag_142\n      jump\t// in\n    tag_204:\n        /* \"contracts/LendingPool.sol\":3290:3342  uint256 interestRate = baseInterestRate + timeFactor */\n      swap1\n      pop\n        /* \"contracts/LendingPool.sol\":3467:3551  BorrowInfo({amount: amount, interestRate: interestRate, startTime: block.timestamp}) */\n      mload(0x40)\n      dup1\n      0x60\n      add\n      0x40\n      mstore\n      dup1\n        /* \"contracts/LendingPool.sol\":3487:3493  amount */\n      dup5\n        /* \"contracts/LendingPool.sol\":3467:3551  BorrowInfo({amount: amount, interestRate: interestRate, startTime: block.timestamp}) */\n      dup2\n      mstore\n      0x20\n      add\n        /* \"contracts/LendingPool.sol\":3509:3521  interestRate */\n      dup3\n        /* \"contracts/LendingPool.sol\":3467:3551  BorrowInfo({amount: amount, interestRate: interestRate, startTime: block.timestamp}) */\n      dup2\n      mstore\n      0x20\n      add\n        /* \"contracts/LendingPool.sol\":3534:3549  block.timestamp */\n      timestamp\n        /* \"contracts/LendingPool.sol\":3467:3551  BorrowInfo({amount: amount, interestRate: interestRate, startTime: block.timestamp}) */\n      dup2\n      mstore\n      pop\n        /* \"contracts/LendingPool.sol\":3432:3445  borrowedToken */\n      0x08\n        /* \"contracts/LendingPool.sol\":3432:3457  borrowedToken[msg.sender] */\n      0x00\n        /* \"contracts/LendingPool.sol\":3446:3456  msg.sender */\n      caller\n        /* \"contracts/LendingPool.sol\":3432:3457  borrowedToken[msg.sender] */\n      0xffffffffffffffffffffffffffffffffffffffff\n      and\n      0xffffffffffffffffffffffffffffffffffffffff\n      and\n      dup2\n      mstore\n      0x20\n      add\n      swap1\n      dup2\n      mstore\n      0x20\n      add\n      0x00\n      keccak256\n        /* \"contracts/LendingPool.sol\":3432:3464  borrowedToken[msg.sender][token] */\n      0x00\n        /* \"contracts/LendingPool.sol\":3458:3463  token */\n      dup7\n        /* \"contracts/LendingPool.sol\":3432:3464  borrowedToken[msg.sender][token] */\n      0xffffffffffffffffffffffffffffffffffffffff\n      and\n      0xffffffffffffffffffffffffffffffffffffffff\n      and\n      dup2\n      mstore\n      0x20\n      add\n      swap1\n      dup2\n      mstore\n      0x20\n      add\n      0x00\n      keccak256\n        /* \"contracts/LendingPool.sol\":3432:3551  borrowedToken[msg.sender][token] = BorrowInfo({amount: amount, interestRate: interestRate, startTime: block.timestamp}) */\n      0x00\n      dup3\n      add\n      mload\n      dup2\n      0x00\n      add\n      sstore\n      0x20\n      dup3\n      add\n      mload\n      dup2\n      0x01\n      add\n      sstore\n      0x40\n      dup3\n      add\n      mload\n      dup2\n      0x02\n      add\n      sstore\n      swap1\n      pop\n      pop\n        /* \"contracts/LendingPool.sol\":3590:3595  token */\n      dup4\n        /* \"contracts/LendingPool.sol\":3569:3635  Borrowed(msg.sender, token, amount, interestRate, block.timestamp) */\n      0xffffffffffffffffffffffffffffffffffffffff\n      and\n        /* \"contracts/LendingPool.sol\":3578:3588  msg.sender */\n      caller\n        /* \"contracts/LendingPool.sol\":3569:3635  Borrowed(msg.sender, token, amount, interestRate, block.timestamp) */\n      0xffffffffffffffffffffffffffffffffffffffff\n      and\n      0xc1cba78646fef030830d099fc25cb498953709c9d47d883848f81fd207174c9f\n        /* \"contracts/LendingPool.sol\":3597:3603  amount */\n      dup6\n        /* \"contracts/LendingPool.sol\":3605:3617  interestRate */\n      dup5\n        /* \"contracts/LendingPool.sol\":3619:3634  block.timestamp */\n      timestamp\n        /* \"contracts/LendingPool.sol\":3569:3635  Borrowed(msg.sender, token, amount, interestRate, block.timestamp) */\n      mload(0x40)\n      tag_205\n      swap4\n      swap3\n      swap2\n      swap1\n      tag_47\n      jump\t// in\n    tag_205:\n      mload(0x40)\n      dup1\n      swap2\n      sub\n      swap1\n      log3\n        /* \"contracts/LendingPool.sol\":2533:3643  {... */\n      pop\n      pop\n        /* \"@openzeppelin/contracts/security/ReentrancyGuard.sol\":2303:2323  _nonReentrantAfter() */\n      tag_206\n        /* \"@openzeppelin/contracts/security/ReentrancyGuard.sol\":2303:2321  _nonReentrantAfter */\n      tag_157\n        /* \"@openzeppelin/contracts/security/ReentrancyGuard.sol\":2303:2323  _nonReentrantAfter() */\n      jump\t// in\n    tag_206:\n        /* \"contracts/LendingPool.sol\":2461:3643  function borrow(address token, uint256 amount) public nonReentrant... */\n      pop\n      pop\n      jump\t// out\n        /* \"contracts/LendingPool.sol\":4828:5235  function calculateAccruedInterest(address token, address user) public view returns (uint256) {... */\n    tag_81:\n        /* \"contracts/LendingPool.sol\":4912:4919  uint256 */\n      0x00\n        /* \"contracts/LendingPool.sol\":4932:4960  BorrowInfo memory borrowInfo */\n      dup1\n        /* \"contracts/LendingPool.sol\":4963:4976  borrowedToken */\n      0x08\n        /* \"contracts/LendingPool.sol\":4963:4982  borrowedToken[user] */\n      0x00\n        /* \"contracts/LendingPool.sol\":4977:4981  user */\n      dup5\n        /* \"contracts/LendingPool.sol\":4963:4982  borrowedToken[user] */\n      0xffffffffffffffffffffffffffffffffffffffff\n      and\n      0xffffffffffffffffffffffffffffffffffffffff\n      and\n      dup2\n      mstore\n      0x20\n      add\n      swap1\n      dup2\n      mstore\n      0x20\n      add\n      0x00\n      keccak256\n        /* \"contracts/LendingPool.sol\":4963:4989  borrowedToken[user][token] */\n      0x00\n        /* \"contracts/LendingPool.sol\":4983:4988  token */\n      dup6\n        /* \"contracts/LendingPool.sol\":4963:4989  borrowedToken[user][token] */\n      0xffffffffffffffffffffffffffffffffffffffff\n      and\n      0xffffffffffffffffffffffffffffffffffffffff\n      and\n      dup2\n      mstore\n      0x20\n      add\n      swap1\n      dup2\n      mstore\n      0x20\n      add\n      0x00\n      keccak256\n        /* \"contracts/LendingPool.sol\":4932:4989  BorrowInfo memory borrowInfo = borrowedToken[user][token] */\n      mload(0x40)\n      dup1\n      0x60\n      add\n      0x40\n      mstore\n      swap1\n      dup2\n      0x00\n      dup3\n      add\n      sload\n      dup2\n      mstore\n      0x20\n      add\n      0x01\n      dup3\n      add\n      sload\n      dup2\n      mstore\n      0x20\n      add\n      0x02\n      dup3\n      add\n      sload\n      dup2\n      mstore\n      pop\n      pop\n      swap1\n      pop\n        /* \"contracts/LendingPool.sol\":5000:5019  uint256 timeElapsed */\n      0x00\n        /* \"contracts/LendingPool.sol\":5040:5050  borrowInfo */\n      dup2\n        /* \"contracts/LendingPool.sol\":5040:5060  borrowInfo.startTime */\n      0x40\n      add\n      mload\n        /* \"contracts/LendingPool.sol\":5022:5037  block.timestamp */\n      timestamp\n        /* \"contracts/LendingPool.sol\":5022:5060  block.timestamp - borrowInfo.startTime */\n      tag_208\n      swap2\n      swap1\n      tag_137\n      jump\t// in\n    tag_208:\n        /* \"contracts/LendingPool.sol\":5000:5060  uint256 timeElapsed = block.timestamp - borrowInfo.startTime */\n      swap1\n      pop\n        /* \"contracts/LendingPool.sol\":5111:5134  uint256 interestAccrued */\n      0x00\n        /* \"contracts/LendingPool.sol\":5183:5194  timeElapsed */\n      dup2\n        /* \"contracts/LendingPool.sol\":5157:5167  borrowInfo */\n      dup4\n        /* \"contracts/LendingPool.sol\":5157:5180  borrowInfo.interestRate */\n      0x20\n      add\n      mload\n        /* \"contracts/LendingPool.sol\":5137:5147  borrowInfo */\n      dup5\n        /* \"contracts/LendingPool.sol\":5137:5154  borrowInfo.amount */\n      0x00\n      add\n      mload\n        /* \"contracts/LendingPool.sol\":5137:5180  borrowInfo.amount * borrowInfo.interestRate */\n      tag_209\n      swap2\n      swap1\n      tag_210\n      jump\t// in\n    tag_209:\n        /* \"contracts/LendingPool.sol\":5137:5194  borrowInfo.amount * borrowInfo.interestRate * timeElapsed */\n      tag_211\n      swap2\n      swap1\n      tag_210\n      jump\t// in\n    tag_211:\n        /* \"contracts/LendingPool.sol\":5111:5194  uint256 interestAccrued = borrowInfo.amount * borrowInfo.interestRate * timeElapsed */\n      swap1\n      pop\n        /* \"contracts/LendingPool.sol\":5212:5227  interestAccrued */\n      dup1\n        /* \"contracts/LendingPool.sol\":5205:5227  return interestAccrued */\n      swap4\n      pop\n      pop\n      pop\n      pop\n        /* \"contracts/LendingPool.sol\":4828:5235  function calculateAccruedInterest(address token, address user) public view returns (uint256) {... */\n      swap3\n      swap2\n      pop\n      pop\n      jump\t// out\n        /* \"contracts/LendingPool.sol\":2215:2400  function getUserBalance(address user, address token) public view returns(uint256)... */\n    tag_86:\n        /* \"contracts/LendingPool.sol\":2288:2295  uint256 */\n      0x00\n        /* \"contracts/LendingPool.sol\":2320:2332  userDeposits */\n      0x02\n        /* \"contracts/LendingPool.sol\":2320:2339  userDeposits[token] */\n      0x00\n        /* \"contracts/LendingPool.sol\":2333:2338  token */\n      dup4\n        /* \"contracts/LendingPool.sol\":2320:2339  userDeposits[token] */\n      0xffffffffffffffffffffffffffffffffffffffff\n      and\n      0xffffffffffffffffffffffffffffffffffffffff\n      and\n      dup2\n      mstore\n      0x20\n      add\n      swap1\n      dup2\n      mstore\n      0x20\n      add\n      0x00\n      keccak256\n        /* \"contracts/LendingPool.sol\":2320:2345  userDeposits[token][user] */\n      0x00\n        /* \"contracts/LendingPool.sol\":2340:2344  user */\n      dup5\n        /* \"contracts/LendingPool.sol\":2320:2345  userDeposits[token][user] */\n      0xffffffffffffffffffffffffffffffffffffffff\n      and\n      0xffffffffffffffffffffffffffffffffffffffff\n      and\n      dup2\n      mstore\n      0x20\n      add\n      swap1\n      dup2\n      mstore\n      0x20\n      add\n      0x00\n      keccak256\n      sload\n        /* \"contracts/LendingPool.sol\":2313:2345  return userDeposits[token][user] */\n      swap1\n      pop\n        /* \"contracts/LendingPool.sol\":2215:2400  function getUserBalance(address user, address token) public view returns(uint256)... */\n      swap3\n      swap2\n      pop\n      pop\n      jump\t// out\n        /* \"contracts/LendingPool.sol\":7313:7538  function calculateInterestRate(address token, uint256 totalSupply, uint256 totalBorrows) public view returns (uint256) {... */\n    tag_92:\n        /* \"contracts/LendingPool.sol\":7423:7430  uint256 */\n      0x00\n        /* \"contracts/LendingPool.sol\":7313:7538  function calculateInterestRate(address token, uint256 totalSupply, uint256 totalBorrows) public view returns (uint256) {... */\n      swap4\n      swap3\n      pop\n      pop\n      pop\n      jump\t// out\n        /* \"contracts/LendingPool.sol\":311:347  uint256 public baseInterestRate = 10 */\n    tag_96:\n      sload(0x01)\n      dup2\n      jump\t// out\n        /* \"contracts/LendingPool.sol\":510:542  address[] public supportedTokens */\n    tag_101:\n      0x03\n      dup2\n      dup2\n      sload\n      dup2\n      lt\n      tag_214\n      jumpi\n      0x00\n      dup1\n      revert\n    tag_214:\n      swap1\n      0x00\n      mstore\n      keccak256(0x00, 0x20)\n      add\n      0x00\n      swap2\n      pop\n      sload\n      swap1\n      0x0100\n      exp\n      swap1\n      div\n      0xffffffffffffffffffffffffffffffffffffffff\n      and\n      dup2\n      jump\t// out\n        /* \"contracts/LendingPool.sol\":744:809  mapping(address => mapping(address => uint256)) public collateral */\n    tag_107:\n      mstore(0x20, 0x05)\n      dup2\n      0x00\n      mstore\n      mstore(0x20, keccak256(0x00, 0x40))\n      dup1\n      0x00\n      mstore\n      keccak256(0x00, 0x40)\n      0x00\n      swap2\n      pop\n      swap2\n      pop\n      pop\n      sload\n      dup2\n      jump\t// out\n        /* \"contracts/LendingPool.sol\":5294:6327  function calculateRepayableCollateral(uint256 repayAmount, uint256 accruedInterest) public view returns (uint256)... */\n    tag_113:\n        /* \"contracts/LendingPool.sol\":5399:5406  uint256 */\n      0x00\n        /* \"contracts/LendingPool.sol\":5520:5549  uint256 minRequiredCollateral */\n      dup1\n        /* \"contracts/LendingPool.sol\":5582:5612  OVER_COLLATERALIZATION_RATIO() */\n      tag_217\n        /* \"contracts/LendingPool.sol\":5582:5610  OVER_COLLATERALIZATION_RATIO */\n      tag_218\n        /* \"contracts/LendingPool.sol\":5582:5612  OVER_COLLATERALIZATION_RATIO() */\n      jump\t// in\n    tag_217:\n        /* \"contracts/LendingPool.sol\":5566:5581  accruedInterest */\n      dup4\n        /* \"contracts/LendingPool.sol\":5566:5612  accruedInterest/OVER_COLLATERALIZATION_RATIO() */\n      tag_219\n      swap2\n      swap1\n      tag_220\n      jump\t// in\n    tag_219:\n        /* \"contracts/LendingPool.sol\":5552:5563  repayAmount */\n      dup5\n        /* \"contracts/LendingPool.sol\":5552:5612  repayAmount + accruedInterest/OVER_COLLATERALIZATION_RATIO() */\n      tag_221\n      swap2\n      swap1\n      tag_142\n      jump\t// in\n    tag_221:\n        /* \"contracts/LendingPool.sol\":5520:5612  uint256 minRequiredCollateral = repayAmount + accruedInterest/OVER_COLLATERALIZATION_RATIO() */\n      swap1\n      pop\n        /* \"contracts/LendingPool.sol\":5685:5710  uint256 totalUserDeposits */\n      0x00\n        /* \"contracts/LendingPool.sol\":5729:5738  uint256 i */\n      dup1\n        /* \"contracts/LendingPool.sol\":5725:5874  for(uint256 i=0; i<supportedTokens.length; i++)... */\n    tag_222:\n        /* \"contracts/LendingPool.sol\":5744:5759  supportedTokens */\n      0x03\n        /* \"contracts/LendingPool.sol\":5744:5766  supportedTokens.length */\n      dup1\n      sload\n      swap1\n      pop\n        /* \"contracts/LendingPool.sol\":5742:5743  i */\n      dup2\n        /* \"contracts/LendingPool.sol\":5742:5766  i<supportedTokens.length */\n      lt\n        /* \"contracts/LendingPool.sol\":5725:5874  for(uint256 i=0; i<supportedTokens.length; i++)... */\n      iszero\n      tag_223\n      jumpi\n        /* \"contracts/LendingPool.sol\":5818:5830  userDeposits */\n      0x02\n        /* \"contracts/LendingPool.sol\":5818:5850  userDeposits[supportedTokens[i]] */\n      0x00\n        /* \"contracts/LendingPool.sol\":5831:5846  supportedTokens */\n      0x03\n        /* \"contracts/LendingPool.sol\":5847:5848  i */\n      dup4\n        /* \"contracts/LendingPool.sol\":5831:5849  supportedTokens[i] */\n      dup2\n      sload\n      dup2\n      lt\n      tag_225\n      jumpi\n      tag_226\n      tag_166\n      jump\t// in\n    tag_226:\n    tag_225:\n      swap1\n      0x00\n      mstore\n      keccak256(0x00, 0x20)\n      add\n      0x00\n      swap1\n      sload\n      swap1\n      0x0100\n      exp\n      swap1\n      div\n      0xffffffffffffffffffffffffffffffffffffffff\n      and\n        /* \"contracts/LendingPool.sol\":5818:5850  userDeposits[supportedTokens[i]] */\n      0xffffffffffffffffffffffffffffffffffffffff\n      and\n      0xffffffffffffffffffffffffffffffffffffffff\n      and\n      dup2\n      mstore\n      0x20\n      add\n      swap1\n      dup2\n      mstore\n      0x20\n      add\n      0x00\n      keccak256\n        /* \"contracts/LendingPool.sol\":5818:5862  userDeposits[supportedTokens[i]][msg.sender] */\n      0x00\n        /* \"contracts/LendingPool.sol\":5851:5861  msg.sender */\n      caller\n        /* \"contracts/LendingPool.sol\":5818:5862  userDeposits[supportedTokens[i]][msg.sender] */\n      0xffffffffffffffffffffffffffffffffffffffff\n      and\n      0xffffffffffffffffffffffffffffffffffffffff\n      and\n      dup2\n      mstore\n      0x20\n      add\n      swap1\n      dup2\n      mstore\n      0x20\n      add\n      0x00\n      keccak256\n      sload\n        /* \"contracts/LendingPool.sol\":5797:5862  totalUserDeposits += userDeposits[supportedTokens[i]][msg.sender] */\n      dup3\n      tag_228\n      swap2\n      swap1\n      tag_142\n      jump\t// in\n    tag_228:\n      swap2\n      pop\n        /* \"contracts/LendingPool.sol\":5768:5771  i++ */\n      dup1\n      dup1\n      0x01\n      add\n      swap2\n      pop\n      pop\n        /* \"contracts/LendingPool.sol\":5725:5874  for(uint256 i=0; i<supportedTokens.length; i++)... */\n      jump(tag_222)\n    tag_223:\n      pop\n        /* \"contracts/LendingPool.sol\":5970:5997  uint256 collateralToRelease */\n      0x00\n        /* \"contracts/LendingPool.sol\":6014:6029  accruedInterest */\n      dup5\n        /* \"contracts/LendingPool.sol\":6000:6011  repayAmount */\n      dup7\n        /* \"contracts/LendingPool.sol\":6000:6029  repayAmount + accruedInterest */\n      tag_229\n      swap2\n      swap1\n      tag_142\n      jump\t// in\n    tag_229:\n        /* \"contracts/LendingPool.sol\":5970:6029  uint256 collateralToRelease = repayAmount + accruedInterest */\n      swap1\n      pop\n        /* \"contracts/LendingPool.sol\":6065:6086  minRequiredCollateral */\n      dup3\n        /* \"contracts/LendingPool.sol\":6045:6062  totalUserDeposits */\n      dup3\n        /* \"contracts/LendingPool.sol\":6045:6086  totalUserDeposits > minRequiredCollateral */\n      gt\n        /* \"contracts/LendingPool.sol\":6042:6281  if(totalUserDeposits > minRequiredCollateral)... */\n      iszero\n      tag_230\n      jumpi\n        /* \"contracts/LendingPool.sol\":6197:6269  Math.min(collateralToRelease, totalUserDeposits - minRequiredCollateral) */\n      tag_231\n        /* \"contracts/LendingPool.sol\":6206:6225  collateralToRelease */\n      dup2\n        /* \"contracts/LendingPool.sol\":6247:6268  minRequiredCollateral */\n      dup5\n        /* \"contracts/LendingPool.sol\":6227:6244  totalUserDeposits */\n      dup5\n        /* \"contracts/LendingPool.sol\":6227:6268  totalUserDeposits - minRequiredCollateral */\n      tag_232\n      swap2\n      swap1\n      tag_137\n      jump\t// in\n    tag_232:\n        /* \"contracts/LendingPool.sol\":6197:6205  Math.min */\n      tag_233\n        /* \"contracts/LendingPool.sol\":6197:6269  Math.min(collateralToRelease, totalUserDeposits - minRequiredCollateral) */\n      jump\t// in\n    tag_231:\n        /* \"contracts/LendingPool.sol\":6175:6269  collateralToRelease = Math.min(collateralToRelease, totalUserDeposits - minRequiredCollateral) */\n      swap1\n      pop\n        /* \"contracts/LendingPool.sol\":6042:6281  if(totalUserDeposits > minRequiredCollateral)... */\n    tag_230:\n        /* \"contracts/LendingPool.sol\":6300:6319  collateralToRelease */\n      dup1\n        /* \"contracts/LendingPool.sol\":6293:6319  return collateralToRelease */\n      swap4\n      pop\n      pop\n      pop\n      pop\n        /* \"contracts/LendingPool.sol\":5294:6327  function calculateRepayableCollateral(uint256 repayAmount, uint256 accruedInterest) public view returns (uint256)... */\n      swap3\n      swap2\n      pop\n      pop\n      jump\t// out\n        /* \"contracts/LendingPool.sol\":1394:1414  Escrow public escrow */\n    tag_117:\n      0x09\n      0x00\n      swap1\n      sload\n      swap1\n      0x0100\n      exp\n      swap1\n      div\n      0xffffffffffffffffffffffffffffffffffffffff\n      and\n      dup2\n      jump\t// out\n        /* \"contracts/LendingPool.sol\":900:956  mapping(address => uint256) public totalBorrowedperToken */\n    tag_123:\n      mstore(0x20, 0x06)\n      dup1\n      0x00\n      mstore\n      keccak256(0x00, 0x40)\n      0x00\n      swap2\n      pop\n      swap1\n      pop\n      sload\n      dup2\n      jump\t// out\n        /* \"contracts/LendingPool.sol\":6477:6583  function depositCollateral(address token, address borrower, uint256 amount) public... */\n    tag_128:\n      pop\n      pop\n      pop\n      jump\t// out\n        /* \"@openzeppelin/contracts/security/ReentrancyGuard.sol\":2336:2623  function _nonReentrantBefore() private {... */\n    tag_131:\n        /* \"@openzeppelin/contracts/security/ReentrancyGuard.sol\":1759:1760  2 */\n      0x02\n        /* \"@openzeppelin/contracts/security/ReentrancyGuard.sol\":2468:2475  _status */\n      sload(0x00)\n        /* \"@openzeppelin/contracts/security/ReentrancyGuard.sol\":2468:2487  _status != _ENTERED */\n      sub\n        /* \"@openzeppelin/contracts/security/ReentrancyGuard.sol\":2460:2523  require(_status != _ENTERED, \"ReentrancyGuard: reentrant call\") */\n      tag_236\n      jumpi\n      mload(0x40)\n      0x08c379a000000000000000000000000000000000000000000000000000000000\n      dup2\n      mstore\n      0x04\n      add\n      tag_237\n      swap1\n      tag_238\n      jump\t// in\n    tag_237:\n      mload(0x40)\n      dup1\n      swap2\n      sub\n      swap1\n      revert\n    tag_236:\n        /* \"@openzeppelin/contracts/security/ReentrancyGuard.sol\":1759:1760  2 */\n      0x02\n        /* \"@openzeppelin/contracts/security/ReentrancyGuard.sol\":2598:2605  _status */\n      0x00\n        /* \"@openzeppelin/contracts/security/ReentrancyGuard.sol\":2598:2616  _status = _ENTERED */\n      dup2\n      swap1\n      sstore\n      pop\n        /* \"@openzeppelin/contracts/security/ReentrancyGuard.sol\":2336:2623  function _nonReentrantBefore() private {... */\n      jump\t// out\n        /* \"@openzeppelin/contracts/security/ReentrancyGuard.sol\":2629:2838  function _nonReentrantAfter() private {... */\n    tag_157:\n        /* \"@openzeppelin/contracts/security/ReentrancyGuard.sol\":1716:1717  1 */\n      0x01\n        /* \"@openzeppelin/contracts/security/ReentrancyGuard.sol\":2809:2816  _status */\n      0x00\n        /* \"@openzeppelin/contracts/security/ReentrancyGuard.sol\":2809:2831  _status = _NOT_ENTERED */\n      dup2\n      swap1\n      sstore\n      pop\n        /* \"@openzeppelin/contracts/security/ReentrancyGuard.sol\":2629:2838  function _nonReentrantAfter() private {... */\n      jump\t// out\n        /* \"contracts/LendingPool.sol\":6335:6438  function OVER_COLLATERALIZATION_RATIO() internal pure returns(uint256)... */\n    tag_218:\n        /* \"contracts/LendingPool.sol\":6397:6404  uint256 */\n      0x00\n        /* \"contracts/LendingPool.sol\":6429:6430  2 */\n      0x02\n        /* \"contracts/LendingPool.sol\":6422:6430  return 2 */\n      swap1\n      pop\n        /* \"contracts/LendingPool.sol\":6335:6438  function OVER_COLLATERALIZATION_RATIO() internal pure returns(uint256)... */\n      swap1\n      jump\t// out\n        /* \"@openzeppelin/contracts/utils/math/Math.sol\":2557:2661  function min(uint256 a, uint256 b) internal pure returns (uint256) {... */\n    tag_233:\n        /* \"@openzeppelin/contracts/utils/math/Math.sol\":2615:2622  uint256 */\n      0x00\n        /* \"@openzeppelin/contracts/utils/math/Math.sol\":2645:2646  b */\n      dup2\n        /* \"@openzeppelin/contracts/utils/math/Math.sol\":2641:2642  a */\n      dup4\n        /* \"@openzeppelin/contracts/utils/math/Math.sol\":2641:2646  a < b */\n      lt\n        /* \"@openzeppelin/contracts/utils/math/Math.sol\":2641:2654  a < b ? a : b */\n      tag_242\n      jumpi\n        /* \"@openzeppelin/contracts/utils/math/Math.sol\":2653:2654  b */\n      dup2\n        /* \"@openzeppelin/contracts/utils/math/Math.sol\":2641:2654  a < b ? a : b */\n      jump(tag_243)\n    tag_242:\n        /* \"@openzeppelin/contracts/utils/math/Math.sol\":2649:2650  a */\n      dup3\n        /* \"@openzeppelin/contracts/utils/math/Math.sol\":2641:2654  a < b ? a : b */\n    tag_243:\n        /* \"@openzeppelin/contracts/utils/math/Math.sol\":2634:2654  return a < b ? a : b */\n      swap1\n      pop\n        /* \"@openzeppelin/contracts/utils/math/Math.sol\":2557:2661  function min(uint256 a, uint256 b) internal pure returns (uint256) {... */\n      swap3\n      swap2\n      pop\n      pop\n      jump\t// out\n        /* \"#utility.yul\":88:205   */\n    tag_245:\n        /* \"#utility.yul\":197:198   */\n      0x00\n        /* \"#utility.yul\":194:195   */\n      dup1\n        /* \"#utility.yul\":187:199   */\n      revert\n        /* \"#utility.yul\":334:460   */\n    tag_247:\n        /* \"#utility.yul\":371:378   */\n      0x00\n        /* \"#utility.yul\":411:453   */\n      0xffffffffffffffffffffffffffffffffffffffff\n        /* \"#utility.yul\":404:409   */\n      dup3\n        /* \"#utility.yul\":400:454   */\n      and\n        /* \"#utility.yul\":389:454   */\n      swap1\n      pop\n        /* \"#utility.yul\":334:460   */\n      swap2\n      swap1\n      pop\n      jump\t// out\n        /* \"#utility.yul\":466:562   */\n    tag_248:\n        /* \"#utility.yul\":503:510   */\n      0x00\n        /* \"#utility.yul\":532:556   */\n      tag_291\n        /* \"#utility.yul\":550:555   */\n      dup3\n        /* \"#utility.yul\":532:556   */\n      tag_247\n      jump\t// in\n    tag_291:\n        /* \"#utility.yul\":521:556   */\n      swap1\n      pop\n        /* \"#utility.yul\":466:562   */\n      swap2\n      swap1\n      pop\n      jump\t// out\n        /* \"#utility.yul\":568:690   */\n    tag_249:\n        /* \"#utility.yul\":641:665   */\n      tag_293\n        /* \"#utility.yul\":659:664   */\n      dup2\n        /* \"#utility.yul\":641:665   */\n      tag_248\n      jump\t// in\n    tag_293:\n        /* \"#utility.yul\":634:639   */\n      dup2\n        /* \"#utility.yul\":631:666   */\n      eq\n        /* \"#utility.yul\":621:684   */\n      tag_294\n      jumpi\n        /* \"#utility.yul\":680:681   */\n      0x00\n        /* \"#utility.yul\":677:678   */\n      dup1\n        /* \"#utility.yul\":670:682   */\n      revert\n        /* \"#utility.yul\":621:684   */\n    tag_294:\n        /* \"#utility.yul\":568:690   */\n      pop\n      jump\t// out\n        /* \"#utility.yul\":696:835   */\n    tag_250:\n        /* \"#utility.yul\":742:747   */\n      0x00\n        /* \"#utility.yul\":780:786   */\n      dup2\n        /* \"#utility.yul\":767:787   */\n      calldataload\n        /* \"#utility.yul\":758:787   */\n      swap1\n      pop\n        /* \"#utility.yul\":796:829   */\n      tag_296\n        /* \"#utility.yul\":823:828   */\n      dup2\n        /* \"#utility.yul\":796:829   */\n      tag_249\n      jump\t// in\n    tag_296:\n        /* \"#utility.yul\":696:835   */\n      swap3\n      swap2\n      pop\n      pop\n      jump\t// out\n        /* \"#utility.yul\":841:918   */\n    tag_251:\n        /* \"#utility.yul\":878:885   */\n      0x00\n        /* \"#utility.yul\":907:912   */\n      dup2\n        /* \"#utility.yul\":896:912   */\n      swap1\n      pop\n        /* \"#utility.yul\":841:918   */\n      swap2\n      swap1\n      pop\n      jump\t// out\n        /* \"#utility.yul\":924:1046   */\n    tag_252:\n        /* \"#utility.yul\":997:1021   */\n      tag_299\n        /* \"#utility.yul\":1015:1020   */\n      dup2\n        /* \"#utility.yul\":997:1021   */\n      tag_251\n      jump\t// in\n    tag_299:\n        /* \"#utility.yul\":990:995   */\n      dup2\n        /* \"#utility.yul\":987:1022   */\n      eq\n        /* \"#utility.yul\":977:1040   */\n      tag_300\n      jumpi\n        /* \"#utility.yul\":1036:1037   */\n      0x00\n        /* \"#utility.yul\":1033:1034   */\n      dup1\n        /* \"#utility.yul\":1026:1038   */\n      revert\n        /* \"#utility.yul\":977:1040   */\n    tag_300:\n        /* \"#utility.yul\":924:1046   */\n      pop\n      jump\t// out\n        /* \"#utility.yul\":1052:1191   */\n    tag_253:\n        /* \"#utility.yul\":1098:1103   */\n      0x00\n        /* \"#utility.yul\":1136:1142   */\n      dup2\n        /* \"#utility.yul\":1123:1143   */\n      calldataload\n        /* \"#utility.yul\":1114:1143   */\n      swap1\n      pop\n        /* \"#utility.yul\":1152:1185   */\n      tag_302\n        /* \"#utility.yul\":1179:1184   */\n      dup2\n        /* \"#utility.yul\":1152:1185   */\n      tag_252\n      jump\t// in\n    tag_302:\n        /* \"#utility.yul\":1052:1191   */\n      swap3\n      swap2\n      pop\n      pop\n      jump\t// out\n        /* \"#utility.yul\":1197:1671   */\n    tag_27:\n        /* \"#utility.yul\":1265:1271   */\n      0x00\n        /* \"#utility.yul\":1273:1279   */\n      dup1\n        /* \"#utility.yul\":1322:1324   */\n      0x40\n        /* \"#utility.yul\":1310:1319   */\n      dup4\n        /* \"#utility.yul\":1301:1308   */\n      dup6\n        /* \"#utility.yul\":1297:1320   */\n      sub\n        /* \"#utility.yul\":1293:1325   */\n      slt\n        /* \"#utility.yul\":1290:1409   */\n      iszero\n      tag_304\n      jumpi\n        /* \"#utility.yul\":1328:1407   */\n      tag_305\n      tag_245\n      jump\t// in\n    tag_305:\n        /* \"#utility.yul\":1290:1409   */\n    tag_304:\n        /* \"#utility.yul\":1448:1449   */\n      0x00\n        /* \"#utility.yul\":1473:1526   */\n      tag_306\n        /* \"#utility.yul\":1518:1525   */\n      dup6\n        /* \"#utility.yul\":1509:1515   */\n      dup3\n        /* \"#utility.yul\":1498:1507   */\n      dup7\n        /* \"#utility.yul\":1494:1516   */\n      add\n        /* \"#utility.yul\":1473:1526   */\n      tag_250\n      jump\t// in\n    tag_306:\n        /* \"#utility.yul\":1463:1526   */\n      swap3\n      pop\n        /* \"#utility.yul\":1419:1536   */\n      pop\n        /* \"#utility.yul\":1575:1577   */\n      0x20\n        /* \"#utility.yul\":1601:1654   */\n      tag_307\n        /* \"#utility.yul\":1646:1653   */\n      dup6\n        /* \"#utility.yul\":1637:1643   */\n      dup3\n        /* \"#utility.yul\":1626:1635   */\n      dup7\n        /* \"#utility.yul\":1622:1644   */\n      add\n        /* \"#utility.yul\":1601:1654   */\n      tag_253\n      jump\t// in\n    tag_307:\n        /* \"#utility.yul\":1591:1654   */\n      swap2\n      pop\n        /* \"#utility.yul\":1546:1664   */\n      pop\n        /* \"#utility.yul\":1197:1671   */\n      swap3\n      pop\n      swap3\n      swap1\n      pop\n      jump\t// out\n        /* \"#utility.yul\":1677:2151   */\n    tag_32:\n        /* \"#utility.yul\":1745:1751   */\n      0x00\n        /* \"#utility.yul\":1753:1759   */\n      dup1\n        /* \"#utility.yul\":1802:1804   */\n      0x40\n        /* \"#utility.yul\":1790:1799   */\n      dup4\n        /* \"#utility.yul\":1781:1788   */\n      dup6\n        /* \"#utility.yul\":1777:1800   */\n      sub\n        /* \"#utility.yul\":1773:1805   */\n      slt\n        /* \"#utility.yul\":1770:1889   */\n      iszero\n      tag_309\n      jumpi\n        /* \"#utility.yul\":1808:1887   */\n      tag_310\n      tag_245\n      jump\t// in\n    tag_310:\n        /* \"#utility.yul\":1770:1889   */\n    tag_309:\n        /* \"#utility.yul\":1928:1929   */\n      0x00\n        /* \"#utility.yul\":1953:2006   */\n      tag_311\n        /* \"#utility.yul\":1998:2005   */\n      dup6\n        /* \"#utility.yul\":1989:1995   */\n      dup3\n        /* \"#utility.yul\":1978:1987   */\n      dup7\n        /* \"#utility.yul\":1974:1996   */\n      add\n        /* \"#utility.yul\":1953:2006   */\n      tag_250\n      jump\t// in\n    tag_311:\n        /* \"#utility.yul\":1943:2006   */\n      swap3\n      pop\n        /* \"#utility.yul\":1899:2016   */\n      pop\n        /* \"#utility.yul\":2055:2057   */\n      0x20\n        /* \"#utility.yul\":2081:2134   */\n      tag_312\n        /* \"#utility.yul\":2126:2133   */\n      dup6\n        /* \"#utility.yul\":2117:2123   */\n      dup3\n        /* \"#utility.yul\":2106:2115   */\n      dup7\n        /* \"#utility.yul\":2102:2124   */\n      add\n        /* \"#utility.yul\":2081:2134   */\n      tag_250\n      jump\t// in\n    tag_312:\n        /* \"#utility.yul\":2071:2134   */\n      swap2\n      pop\n        /* \"#utility.yul\":2026:2144   */\n      pop\n        /* \"#utility.yul\":1677:2151   */\n      swap3\n      pop\n      swap3\n      swap1\n      pop\n      jump\t// out\n        /* \"#utility.yul\":2157:2275   */\n    tag_254:\n        /* \"#utility.yul\":2244:2268   */\n      tag_314\n        /* \"#utility.yul\":2262:2267   */\n      dup2\n        /* \"#utility.yul\":2244:2268   */\n      tag_251\n      jump\t// in\n    tag_314:\n        /* \"#utility.yul\":2239:2242   */\n      dup3\n        /* \"#utility.yul\":2232:2269   */\n      mstore\n        /* \"#utility.yul\":2157:2275   */\n      pop\n      pop\n      jump\t// out\n        /* \"#utility.yul\":2281:2503   */\n    tag_35:\n        /* \"#utility.yul\":2374:2378   */\n      0x00\n        /* \"#utility.yul\":2412:2414   */\n      0x20\n        /* \"#utility.yul\":2401:2410   */\n      dup3\n        /* \"#utility.yul\":2397:2415   */\n      add\n        /* \"#utility.yul\":2389:2415   */\n      swap1\n      pop\n        /* \"#utility.yul\":2425:2496   */\n      tag_316\n        /* \"#utility.yul\":2493:2494   */\n      0x00\n        /* \"#utility.yul\":2482:2491   */\n      dup4\n        /* \"#utility.yul\":2478:2495   */\n      add\n        /* \"#utility.yul\":2469:2475   */\n      dup5\n        /* \"#utility.yul\":2425:2496   */\n      tag_254\n      jump\t// in\n    tag_316:\n        /* \"#utility.yul\":2281:2503   */\n      swap3\n      swap2\n      pop\n      pop\n      jump\t// out\n        /* \"#utility.yul\":2509:2838   */\n    tag_39:\n        /* \"#utility.yul\":2568:2574   */\n      0x00\n        /* \"#utility.yul\":2617:2619   */\n      0x20\n        /* \"#utility.yul\":2605:2614   */\n      dup3\n        /* \"#utility.yul\":2596:2603   */\n      dup5\n        /* \"#utility.yul\":2592:2615   */\n      sub\n        /* \"#utility.yul\":2588:2620   */\n      slt\n        /* \"#utility.yul\":2585:2704   */\n      iszero\n      tag_318\n      jumpi\n        /* \"#utility.yul\":2623:2702   */\n      tag_319\n      tag_245\n      jump\t// in\n    tag_319:\n        /* \"#utility.yul\":2585:2704   */\n    tag_318:\n        /* \"#utility.yul\":2743:2744   */\n      0x00\n        /* \"#utility.yul\":2768:2821   */\n      tag_320\n        /* \"#utility.yul\":2813:2820   */\n      dup5\n        /* \"#utility.yul\":2804:2810   */\n      dup3\n        /* \"#utility.yul\":2793:2802   */\n      dup6\n        /* \"#utility.yul\":2789:2811   */\n      add\n        /* \"#utility.yul\":2768:2821   */\n      tag_250\n      jump\t// in\n    tag_320:\n        /* \"#utility.yul\":2758:2821   */\n      swap2\n      pop\n        /* \"#utility.yul\":2714:2831   */\n      pop\n        /* \"#utility.yul\":2509:2838   */\n      swap3\n      swap2\n      pop\n      pop\n      jump\t// out\n        /* \"#utility.yul\":2844:3286   */\n    tag_47:\n        /* \"#utility.yul\":2993:2997   */\n      0x00\n        /* \"#utility.yul\":3031:3033   */\n      0x60\n        /* \"#utility.yul\":3020:3029   */\n      dup3\n        /* \"#utility.yul\":3016:3034   */\n      add\n        /* \"#utility.yul\":3008:3034   */\n      swap1\n      pop\n        /* \"#utility.yul\":3044:3115   */\n      tag_322\n        /* \"#utility.yul\":3112:3113   */\n      0x00\n        /* \"#utility.yul\":3101:3110   */\n      dup4\n        /* \"#utility.yul\":3097:3114   */\n      add\n        /* \"#utility.yul\":3088:3094   */\n      dup7\n        /* \"#utility.yul\":3044:3115   */\n      tag_254\n      jump\t// in\n    tag_322:\n        /* \"#utility.yul\":3125:3197   */\n      tag_323\n        /* \"#utility.yul\":3193:3195   */\n      0x20\n        /* \"#utility.yul\":3182:3191   */\n      dup4\n        /* \"#utility.yul\":3178:3196   */\n      add\n        /* \"#utility.yul\":3169:3175   */\n      dup6\n        /* \"#utility.yul\":3125:3197   */\n      tag_254\n      jump\t// in\n    tag_323:\n        /* \"#utility.yul\":3207:3279   */\n      tag_324\n        /* \"#utility.yul\":3275:3277   */\n      0x40\n        /* \"#utility.yul\":3264:3273   */\n      dup4\n        /* \"#utility.yul\":3260:3278   */\n      add\n        /* \"#utility.yul\":3251:3257   */\n      dup5\n        /* \"#utility.yul\":3207:3279   */\n      tag_254\n      jump\t// in\n    tag_324:\n        /* \"#utility.yul\":2844:3286   */\n      swap5\n      swap4\n      pop\n      pop\n      pop\n      pop\n      jump\t// out\n        /* \"#utility.yul\":3292:3911   */\n    tag_51:\n        /* \"#utility.yul\":3369:3375   */\n      0x00\n        /* \"#utility.yul\":3377:3383   */\n      dup1\n        /* \"#utility.yul\":3385:3391   */\n      0x00\n        /* \"#utility.yul\":3434:3436   */\n      0x60\n        /* \"#utility.yul\":3422:3431   */\n      dup5\n        /* \"#utility.yul\":3413:3420   */\n      dup7\n        /* \"#utility.yul\":3409:3432   */\n      sub\n        /* \"#utility.yul\":3405:3437   */\n      slt\n        /* \"#utility.yul\":3402:3521   */\n      iszero\n      tag_326\n      jumpi\n        /* \"#utility.yul\":3440:3519   */\n      tag_327\n      tag_245\n      jump\t// in\n    tag_327:\n        /* \"#utility.yul\":3402:3521   */\n    tag_326:\n        /* \"#utility.yul\":3560:3561   */\n      0x00\n        /* \"#utility.yul\":3585:3638   */\n      tag_328\n        /* \"#utility.yul\":3630:3637   */\n      dup7\n        /* \"#utility.yul\":3621:3627   */\n      dup3\n        /* \"#utility.yul\":3610:3619   */\n      dup8\n        /* \"#utility.yul\":3606:3628   */\n      add\n        /* \"#utility.yul\":3585:3638   */\n      tag_250\n      jump\t// in\n    tag_328:\n        /* \"#utility.yul\":3575:3638   */\n      swap4\n      pop\n        /* \"#utility.yul\":3531:3648   */\n      pop\n        /* \"#utility.yul\":3687:3689   */\n      0x20\n        /* \"#utility.yul\":3713:3766   */\n      tag_329\n        /* \"#utility.yul\":3758:3765   */\n      dup7\n        /* \"#utility.yul\":3749:3755   */\n      dup3\n        /* \"#utility.yul\":3738:3747   */\n      dup8\n        /* \"#utility.yul\":3734:3756   */\n      add\n        /* \"#utility.yul\":3713:3766   */\n      tag_250\n      jump\t// in\n    tag_329:\n        /* \"#utility.yul\":3703:3766   */\n      swap3\n      pop\n        /* \"#utility.yul\":3658:3776   */\n      pop\n        /* \"#utility.yul\":3815:3817   */\n      0x40\n        /* \"#utility.yul\":3841:3894   */\n      tag_330\n        /* \"#utility.yul\":3886:3893   */\n      dup7\n        /* \"#utility.yul\":3877:3883   */\n      dup3\n        /* \"#utility.yul\":3866:3875   */\n      dup8\n        /* \"#utility.yul\":3862:3884   */\n      add\n        /* \"#utility.yul\":3841:3894   */\n      tag_253\n      jump\t// in\n    tag_330:\n        /* \"#utility.yul\":3831:3894   */\n      swap2\n      pop\n        /* \"#utility.yul\":3786:3904   */\n      pop\n        /* \"#utility.yul\":3292:3911   */\n      swap3\n      pop\n      swap3\n      pop\n      swap3\n      jump\t// out\n        /* \"#utility.yul\":3917:4246   */\n    tag_56:\n        /* \"#utility.yul\":3976:3982   */\n      0x00\n        /* \"#utility.yul\":4025:4027   */\n      0x20\n        /* \"#utility.yul\":4013:4022   */\n      dup3\n        /* \"#utility.yul\":4004:4011   */\n      dup5\n        /* \"#utility.yul\":4000:4023   */\n      sub\n        /* \"#utility.yul\":3996:4028   */\n      slt\n        /* \"#utility.yul\":3993:4112   */\n      iszero\n      tag_332\n      jumpi\n        /* \"#utility.yul\":4031:4110   */\n      tag_333\n      tag_245\n      jump\t// in\n    tag_333:\n        /* \"#utility.yul\":3993:4112   */\n    tag_332:\n        /* \"#utility.yul\":4151:4152   */\n      0x00\n        /* \"#utility.yul\":4176:4229   */\n      tag_334\n        /* \"#utility.yul\":4221:4228   */\n      dup5\n        /* \"#utility.yul\":4212:4218   */\n      dup3\n        /* \"#utility.yul\":4201:4210   */\n      dup6\n        /* \"#utility.yul\":4197:4219   */\n      add\n        /* \"#utility.yul\":4176:4229   */\n      tag_253\n      jump\t// in\n    tag_334:\n        /* \"#utility.yul\":4166:4229   */\n      swap2\n      pop\n        /* \"#utility.yul\":4122:4239   */\n      pop\n        /* \"#utility.yul\":3917:4246   */\n      swap3\n      swap2\n      pop\n      pop\n      jump\t// out\n        /* \"#utility.yul\":4252:4342   */\n    tag_255:\n        /* \"#utility.yul\":4286:4293   */\n      0x00\n        /* \"#utility.yul\":4329:4334   */\n      dup2\n        /* \"#utility.yul\":4322:4335   */\n      iszero\n        /* \"#utility.yul\":4315:4336   */\n      iszero\n        /* \"#utility.yul\":4304:4336   */\n      swap1\n      pop\n        /* \"#utility.yul\":4252:4342   */\n      swap2\n      swap1\n      pop\n      jump\t// out\n        /* \"#utility.yul\":4348:4457   */\n    tag_256:\n        /* \"#utility.yul\":4429:4450   */\n      tag_337\n        /* \"#utility.yul\":4444:4449   */\n      dup2\n        /* \"#utility.yul\":4429:4450   */\n      tag_255\n      jump\t// in\n    tag_337:\n        /* \"#utility.yul\":4424:4427   */\n      dup3\n        /* \"#utility.yul\":4417:4451   */\n      mstore\n        /* \"#utility.yul\":4348:4457   */\n      pop\n      pop\n      jump\t// out\n        /* \"#utility.yul\":4463:4673   */\n    tag_64:\n        /* \"#utility.yul\":4550:4554   */\n      0x00\n        /* \"#utility.yul\":4588:4590   */\n      0x20\n        /* \"#utility.yul\":4577:4586   */\n      dup3\n        /* \"#utility.yul\":4573:4591   */\n      add\n        /* \"#utility.yul\":4565:4591   */\n      swap1\n      pop\n        /* \"#utility.yul\":4601:4666   */\n      tag_339\n        /* \"#utility.yul\":4663:4664   */\n      0x00\n        /* \"#utility.yul\":4652:4661   */\n      dup4\n        /* \"#utility.yul\":4648:4665   */\n      add\n        /* \"#utility.yul\":4639:4645   */\n      dup5\n        /* \"#utility.yul\":4601:4666   */\n      tag_256\n      jump\t// in\n    tag_339:\n        /* \"#utility.yul\":4463:4673   */\n      swap3\n      swap2\n      pop\n      pop\n      jump\t// out\n        /* \"#utility.yul\":4679:5298   */\n    tag_91:\n        /* \"#utility.yul\":4756:4762   */\n      0x00\n        /* \"#utility.yul\":4764:4770   */\n      dup1\n        /* \"#utility.yul\":4772:4778   */\n      0x00\n        /* \"#utility.yul\":4821:4823   */\n      0x60\n        /* \"#utility.yul\":4809:4818   */\n      dup5\n        /* \"#utility.yul\":4800:4807   */\n      dup7\n        /* \"#utility.yul\":4796:4819   */\n      sub\n        /* \"#utility.yul\":4792:4824   */\n      slt\n        /* \"#utility.yul\":4789:4908   */\n      iszero\n      tag_341\n      jumpi\n        /* \"#utility.yul\":4827:4906   */\n      tag_342\n      tag_245\n      jump\t// in\n    tag_342:\n        /* \"#utility.yul\":4789:4908   */\n    tag_341:\n        /* \"#utility.yul\":4947:4948   */\n      0x00\n        /* \"#utility.yul\":4972:5025   */\n      tag_343\n        /* \"#utility.yul\":5017:5024   */\n      dup7\n        /* \"#utility.yul\":5008:5014   */\n      dup3\n        /* \"#utility.yul\":4997:5006   */\n      dup8\n        /* \"#utility.yul\":4993:5015   */\n      add\n        /* \"#utility.yul\":4972:5025   */\n      tag_250\n      jump\t// in\n    tag_343:\n        /* \"#utility.yul\":4962:5025   */\n      swap4\n      pop\n        /* \"#utility.yul\":4918:5035   */\n      pop\n        /* \"#utility.yul\":5074:5076   */\n      0x20\n        /* \"#utility.yul\":5100:5153   */\n      tag_344\n        /* \"#utility.yul\":5145:5152   */\n      dup7\n        /* \"#utility.yul\":5136:5142   */\n      dup3\n        /* \"#utility.yul\":5125:5134   */\n      dup8\n        /* \"#utility.yul\":5121:5143   */\n      add\n        /* \"#utility.yul\":5100:5153   */\n      tag_253\n      jump\t// in\n    tag_344:\n        /* \"#utility.yul\":5090:5153   */\n      swap3\n      pop\n        /* \"#utility.yul\":5045:5163   */\n      pop\n        /* \"#utility.yul\":5202:5204   */\n      0x40\n        /* \"#utility.yul\":5228:5281   */\n      tag_345\n        /* \"#utility.yul\":5273:5280   */\n      dup7\n        /* \"#utility.yul\":5264:5270   */\n      dup3\n        /* \"#utility.yul\":5253:5262   */\n      dup8\n        /* \"#utility.yul\":5249:5271   */\n      add\n        /* \"#utility.yul\":5228:5281   */\n      tag_253\n      jump\t// in\n    tag_345:\n        /* \"#utility.yul\":5218:5281   */\n      swap2\n      pop\n        /* \"#utility.yul\":5173:5291   */\n      pop\n        /* \"#utility.yul\":4679:5298   */\n      swap3\n      pop\n      swap3\n      pop\n      swap3\n      jump\t// out\n        /* \"#utility.yul\":5304:5422   */\n    tag_257:\n        /* \"#utility.yul\":5391:5415   */\n      tag_347\n        /* \"#utility.yul\":5409:5414   */\n      dup2\n        /* \"#utility.yul\":5391:5415   */\n      tag_248\n      jump\t// in\n    tag_347:\n        /* \"#utility.yul\":5386:5389   */\n      dup3\n        /* \"#utility.yul\":5379:5416   */\n      mstore\n        /* \"#utility.yul\":5304:5422   */\n      pop\n      pop\n      jump\t// out\n        /* \"#utility.yul\":5428:5650   */\n    tag_103:\n        /* \"#utility.yul\":5521:5525   */\n      0x00\n        /* \"#utility.yul\":5559:5561   */\n      0x20\n        /* \"#utility.yul\":5548:5557   */\n      dup3\n        /* \"#utility.yul\":5544:5562   */\n      add\n        /* \"#utility.yul\":5536:5562   */\n      swap1\n      pop\n        /* \"#utility.yul\":5572:5643   */\n      tag_349\n        /* \"#utility.yul\":5640:5641   */\n      0x00\n        /* \"#utility.yul\":5629:5638   */\n      dup4\n        /* \"#utility.yul\":5625:5642   */\n      add\n        /* \"#utility.yul\":5616:5622   */\n      dup5\n        /* \"#utility.yul\":5572:5643   */\n      tag_257\n      jump\t// in\n    tag_349:\n        /* \"#utility.yul\":5428:5650   */\n      swap3\n      swap2\n      pop\n      pop\n      jump\t// out\n        /* \"#utility.yul\":5656:6130   */\n    tag_112:\n        /* \"#utility.yul\":5724:5730   */\n      0x00\n        /* \"#utility.yul\":5732:5738   */\n      dup1\n        /* \"#utility.yul\":5781:5783   */\n      0x40\n        /* \"#utility.yul\":5769:5778   */\n      dup4\n        /* \"#utility.yul\":5760:5767   */\n      dup6\n        /* \"#utility.yul\":5756:5779   */\n      sub\n        /* \"#utility.yul\":5752:5784   */\n      slt\n        /* \"#utility.yul\":5749:5868   */\n      iszero\n      tag_351\n      jumpi\n        /* \"#utility.yul\":5787:5866   */\n      tag_352\n      tag_245\n      jump\t// in\n    tag_352:\n        /* \"#utility.yul\":5749:5868   */\n    tag_351:\n        /* \"#utility.yul\":5907:5908   */\n      0x00\n        /* \"#utility.yul\":5932:5985   */\n      tag_353\n        /* \"#utility.yul\":5977:5984   */\n      dup6\n        /* \"#utility.yul\":5968:5974   */\n      dup3\n        /* \"#utility.yul\":5957:5966   */\n      dup7\n        /* \"#utility.yul\":5953:5975   */\n      add\n        /* \"#utility.yul\":5932:5985   */\n      tag_253\n      jump\t// in\n    tag_353:\n        /* \"#utility.yul\":5922:5985   */\n      swap3\n      pop\n        /* \"#utility.yul\":5878:5995   */\n      pop\n        /* \"#utility.yul\":6034:6036   */\n      0x20\n        /* \"#utility.yul\":6060:6113   */\n      tag_354\n        /* \"#utility.yul\":6105:6112   */\n      dup6\n        /* \"#utility.yul\":6096:6102   */\n      dup3\n        /* \"#utility.yul\":6085:6094   */\n      dup7\n        /* \"#utility.yul\":6081:6103   */\n      add\n        /* \"#utility.yul\":6060:6113   */\n      tag_253\n      jump\t// in\n    tag_354:\n        /* \"#utility.yul\":6050:6113   */\n      swap2\n      pop\n        /* \"#utility.yul\":6005:6123   */\n      pop\n        /* \"#utility.yul\":5656:6130   */\n      swap3\n      pop\n      swap3\n      swap1\n      pop\n      jump\t// out\n        /* \"#utility.yul\":6136:6196   */\n    tag_258:\n        /* \"#utility.yul\":6164:6167   */\n      0x00\n        /* \"#utility.yul\":6185:6190   */\n      dup2\n        /* \"#utility.yul\":6178:6190   */\n      swap1\n      pop\n        /* \"#utility.yul\":6136:6196   */\n      swap2\n      swap1\n      pop\n      jump\t// out\n        /* \"#utility.yul\":6202:6344   */\n    tag_259:\n        /* \"#utility.yul\":6252:6261   */\n      0x00\n        /* \"#utility.yul\":6285:6338   */\n      tag_357\n        /* \"#utility.yul\":6303:6337   */\n      tag_358\n        /* \"#utility.yul\":6312:6336   */\n      tag_359\n        /* \"#utility.yul\":6330:6335   */\n      dup5\n        /* \"#utility.yul\":6312:6336   */\n      tag_247\n      jump\t// in\n    tag_359:\n        /* \"#utility.yul\":6303:6337   */\n      tag_258\n      jump\t// in\n    tag_358:\n        /* \"#utility.yul\":6285:6338   */\n      tag_247\n      jump\t// in\n    tag_357:\n        /* \"#utility.yul\":6272:6338   */\n      swap1\n      pop\n        /* \"#utility.yul\":6202:6344   */\n      swap2\n      swap1\n      pop\n      jump\t// out\n        /* \"#utility.yul\":6350:6476   */\n    tag_260:\n        /* \"#utility.yul\":6400:6409   */\n      0x00\n        /* \"#utility.yul\":6433:6470   */\n      tag_361\n        /* \"#utility.yul\":6464:6469   */\n      dup3\n        /* \"#utility.yul\":6433:6470   */\n      tag_259\n      jump\t// in\n    tag_361:\n        /* \"#utility.yul\":6420:6470   */\n      swap1\n      pop\n        /* \"#utility.yul\":6350:6476   */\n      swap2\n      swap1\n      pop\n      jump\t// out\n        /* \"#utility.yul\":6482:6623   */\n    tag_261:\n        /* \"#utility.yul\":6547:6556   */\n      0x00\n        /* \"#utility.yul\":6580:6617   */\n      tag_363\n        /* \"#utility.yul\":6611:6616   */\n      dup3\n        /* \"#utility.yul\":6580:6617   */\n      tag_260\n      jump\t// in\n    tag_363:\n        /* \"#utility.yul\":6567:6617   */\n      swap1\n      pop\n        /* \"#utility.yul\":6482:6623   */\n      swap2\n      swap1\n      pop\n      jump\t// out\n        /* \"#utility.yul\":6629:6790   */\n    tag_262:\n        /* \"#utility.yul\":6731:6783   */\n      tag_365\n        /* \"#utility.yul\":6777:6782   */\n      dup2\n        /* \"#utility.yul\":6731:6783   */\n      tag_261\n      jump\t// in\n    tag_365:\n        /* \"#utility.yul\":6726:6729   */\n      dup3\n        /* \"#utility.yul\":6719:6784   */\n      mstore\n        /* \"#utility.yul\":6629:6790   */\n      pop\n      pop\n      jump\t// out\n        /* \"#utility.yul\":6796:7048   */\n    tag_119:\n        /* \"#utility.yul\":6904:6908   */\n      0x00\n        /* \"#utility.yul\":6942:6944   */\n      0x20\n        /* \"#utility.yul\":6931:6940   */\n      dup3\n        /* \"#utility.yul\":6927:6945   */\n      add\n        /* \"#utility.yul\":6919:6945   */\n      swap1\n      pop\n        /* \"#utility.yul\":6955:7041   */\n      tag_367\n        /* \"#utility.yul\":7038:7039   */\n      0x00\n        /* \"#utility.yul\":7027:7036   */\n      dup4\n        /* \"#utility.yul\":7023:7040   */\n      add\n        /* \"#utility.yul\":7014:7020   */\n      dup5\n        /* \"#utility.yul\":6955:7041   */\n      tag_262\n      jump\t// in\n    tag_367:\n        /* \"#utility.yul\":6796:7048   */\n      swap3\n      swap2\n      pop\n      pop\n      jump\t// out\n        /* \"#utility.yul\":7054:7223   */\n    tag_263:\n        /* \"#utility.yul\":7138:7149   */\n      0x00\n        /* \"#utility.yul\":7172:7178   */\n      dup3\n        /* \"#utility.yul\":7167:7170   */\n      dup3\n        /* \"#utility.yul\":7160:7179   */\n      mstore\n        /* \"#utility.yul\":7212:7216   */\n      0x20\n        /* \"#utility.yul\":7207:7210   */\n      dup3\n        /* \"#utility.yul\":7203:7217   */\n      add\n        /* \"#utility.yul\":7188:7217   */\n      swap1\n      pop\n        /* \"#utility.yul\":7054:7223   */\n      swap3\n      swap2\n      pop\n      pop\n      jump\t// out\n        /* \"#utility.yul\":7229:7458   */\n    tag_264:\n        /* \"#utility.yul\":7369:7403   */\n      0x52657061796d656e7420616d6f756e74206d7573742062652067726561746572\n        /* \"#utility.yul\":7365:7366   */\n      0x00\n        /* \"#utility.yul\":7357:7363   */\n      dup3\n        /* \"#utility.yul\":7353:7367   */\n      add\n        /* \"#utility.yul\":7346:7404   */\n      mstore\n        /* \"#utility.yul\":7438:7450   */\n      0x207468616e207a65726f00000000000000000000000000000000000000000000\n        /* \"#utility.yul\":7433:7435   */\n      0x20\n        /* \"#utility.yul\":7425:7431   */\n      dup3\n        /* \"#utility.yul\":7421:7436   */\n      add\n        /* \"#utility.yul\":7414:7451   */\n      mstore\n        /* \"#utility.yul\":7229:7458   */\n      pop\n      jump\t// out\n        /* \"#utility.yul\":7464:7830   */\n    tag_265:\n        /* \"#utility.yul\":7606:7609   */\n      0x00\n        /* \"#utility.yul\":7627:7694   */\n      tag_371\n        /* \"#utility.yul\":7691:7693   */\n      0x2a\n        /* \"#utility.yul\":7686:7689   */\n      dup4\n        /* \"#utility.yul\":7627:7694   */\n      tag_263\n      jump\t// in\n    tag_371:\n        /* \"#utility.yul\":7620:7694   */\n      swap2\n      pop\n        /* \"#utility.yul\":7703:7796   */\n      tag_372\n        /* \"#utility.yul\":7792:7795   */\n      dup3\n        /* \"#utility.yul\":7703:7796   */\n      tag_264\n      jump\t// in\n    tag_372:\n        /* \"#utility.yul\":7821:7823   */\n      0x40\n        /* \"#utility.yul\":7816:7819   */\n      dup3\n        /* \"#utility.yul\":7812:7824   */\n      add\n        /* \"#utility.yul\":7805:7824   */\n      swap1\n      pop\n        /* \"#utility.yul\":7464:7830   */\n      swap2\n      swap1\n      pop\n      jump\t// out\n        /* \"#utility.yul\":7836:8255   */\n    tag_135:\n        /* \"#utility.yul\":8002:8006   */\n      0x00\n        /* \"#utility.yul\":8040:8042   */\n      0x20\n        /* \"#utility.yul\":8029:8038   */\n      dup3\n        /* \"#utility.yul\":8025:8043   */\n      add\n        /* \"#utility.yul\":8017:8043   */\n      swap1\n      pop\n        /* \"#utility.yul\":8089:8098   */\n      dup2\n        /* \"#utility.yul\":8083:8087   */\n      dup2\n        /* \"#utility.yul\":8079:8099   */\n      sub\n        /* \"#utility.yul\":8075:8076   */\n      0x00\n        /* \"#utility.yul\":8064:8073   */\n      dup4\n        /* \"#utility.yul\":8060:8077   */\n      add\n        /* \"#utility.yul\":8053:8100   */\n      mstore\n        /* \"#utility.yul\":8117:8248   */\n      tag_374\n        /* \"#utility.yul\":8243:8247   */\n      dup2\n        /* \"#utility.yul\":8117:8248   */\n      tag_265\n      jump\t// in\n    tag_374:\n        /* \"#utility.yul\":8109:8248   */\n      swap1\n      pop\n        /* \"#utility.yul\":7836:8255   */\n      swap2\n      swap1\n      pop\n      jump\t// out\n        /* \"#utility.yul\":8261:8441   */\n    tag_266:\n        /* \"#utility.yul\":8309:8386   */\n      0x4e487b7100000000000000000000000000000000000000000000000000000000\n        /* \"#utility.yul\":8306:8307   */\n      0x00\n        /* \"#utility.yul\":8299:8387   */\n      mstore\n        /* \"#utility.yul\":8406:8410   */\n      0x11\n        /* \"#utility.yul\":8403:8404   */\n      0x04\n        /* \"#utility.yul\":8396:8411   */\n      mstore\n        /* \"#utility.yul\":8430:8434   */\n      0x24\n        /* \"#utility.yul\":8427:8428   */\n      0x00\n        /* \"#utility.yul\":8420:8435   */\n      revert\n        /* \"#utility.yul\":8447:8641   */\n    tag_137:\n        /* \"#utility.yul\":8487:8491   */\n      0x00\n        /* \"#utility.yul\":8507:8527   */\n      tag_377\n        /* \"#utility.yul\":8525:8526   */\n      dup3\n        /* \"#utility.yul\":8507:8527   */\n      tag_251\n      jump\t// in\n    tag_377:\n        /* \"#utility.yul\":8502:8527   */\n      swap2\n      pop\n        /* \"#utility.yul\":8541:8561   */\n      tag_378\n        /* \"#utility.yul\":8559:8560   */\n      dup4\n        /* \"#utility.yul\":8541:8561   */\n      tag_251\n      jump\t// in\n    tag_378:\n        /* \"#utility.yul\":8536:8561   */\n      swap3\n      pop\n        /* \"#utility.yul\":8585:8586   */\n      dup3\n        /* \"#utility.yul\":8582:8583   */\n      dup3\n        /* \"#utility.yul\":8578:8587   */\n      sub\n        /* \"#utility.yul\":8570:8587   */\n      swap1\n      pop\n        /* \"#utility.yul\":8609:8610   */\n      dup2\n        /* \"#utility.yul\":8603:8607   */\n      dup2\n        /* \"#utility.yul\":8600:8611   */\n      gt\n        /* \"#utility.yul\":8597:8634   */\n      iszero\n      tag_379\n      jumpi\n        /* \"#utility.yul\":8614:8632   */\n      tag_380\n      tag_266\n      jump\t// in\n    tag_380:\n        /* \"#utility.yul\":8597:8634   */\n    tag_379:\n        /* \"#utility.yul\":8447:8641   */\n      swap3\n      swap2\n      pop\n      pop\n      jump\t// out\n        /* \"#utility.yul\":8647:8838   */\n    tag_142:\n        /* \"#utility.yul\":8687:8690   */\n      0x00\n        /* \"#utility.yul\":8706:8726   */\n      tag_382\n        /* \"#utility.yul\":8724:8725   */\n      dup3\n        /* \"#utility.yul\":8706:8726   */\n      tag_251\n      jump\t// in\n    tag_382:\n        /* \"#utility.yul\":8701:8726   */\n      swap2\n      pop\n        /* \"#utility.yul\":8740:8760   */\n      tag_383\n        /* \"#utility.yul\":8758:8759   */\n      dup4\n        /* \"#utility.yul\":8740:8760   */\n      tag_251\n      jump\t// in\n    tag_383:\n        /* \"#utility.yul\":8735:8760   */\n      swap3\n      pop\n        /* \"#utility.yul\":8783:8784   */\n      dup3\n        /* \"#utility.yul\":8780:8781   */\n      dup3\n        /* \"#utility.yul\":8776:8785   */\n      add\n        /* \"#utility.yul\":8769:8785   */\n      swap1\n      pop\n        /* \"#utility.yul\":8804:8807   */\n      dup1\n        /* \"#utility.yul\":8801:8802   */\n      dup3\n        /* \"#utility.yul\":8798:8808   */\n      gt\n        /* \"#utility.yul\":8795:8831   */\n      iszero\n      tag_384\n      jumpi\n        /* \"#utility.yul\":8811:8829   */\n      tag_385\n      tag_266\n      jump\t// in\n    tag_385:\n        /* \"#utility.yul\":8795:8831   */\n    tag_384:\n        /* \"#utility.yul\":8647:8838   */\n      swap3\n      swap2\n      pop\n      pop\n      jump\t// out\n        /* \"#utility.yul\":8844:9069   */\n    tag_267:\n        /* \"#utility.yul\":8984:9018   */\n      0x52657061796d656e7420616d6f756e74206578636565647320626f72726f7720\n        /* \"#utility.yul\":8980:8981   */\n      0x00\n        /* \"#utility.yul\":8972:8978   */\n      dup3\n        /* \"#utility.yul\":8968:8982   */\n      add\n        /* \"#utility.yul\":8961:9019   */\n      mstore\n        /* \"#utility.yul\":9053:9061   */\n      0x616d6f756e740000000000000000000000000000000000000000000000000000\n        /* \"#utility.yul\":9048:9050   */\n      0x20\n        /* \"#utility.yul\":9040:9046   */\n      dup3\n        /* \"#utility.yul\":9036:9051   */\n      add\n        /* \"#utility.yul\":9029:9062   */\n      mstore\n        /* \"#utility.yul\":8844:9069   */\n      pop\n      jump\t// out\n        /* \"#utility.yul\":9075:9441   */\n    tag_268:\n        /* \"#utility.yul\":9217:9220   */\n      0x00\n        /* \"#utility.yul\":9238:9305   */\n      tag_388\n        /* \"#utility.yul\":9302:9304   */\n      0x26\n        /* \"#utility.yul\":9297:9300   */\n      dup4\n        /* \"#utility.yul\":9238:9305   */\n      tag_263\n      jump\t// in\n    tag_388:\n        /* \"#utility.yul\":9231:9305   */\n      swap2\n      pop\n        /* \"#utility.yul\":9314:9407   */\n      tag_389\n        /* \"#utility.yul\":9403:9406   */\n      dup3\n        /* \"#utility.yul\":9314:9407   */\n      tag_267\n      jump\t// in\n    tag_389:\n        /* \"#utility.yul\":9432:9434   */\n      0x40\n        /* \"#utility.yul\":9427:9430   */\n      dup3\n        /* \"#utility.yul\":9423:9435   */\n      add\n        /* \"#utility.yul\":9416:9435   */\n      swap1\n      pop\n        /* \"#utility.yul\":9075:9441   */\n      swap2\n      swap1\n      pop\n      jump\t// out\n        /* \"#utility.yul\":9447:9866   */\n    tag_145:\n        /* \"#utility.yul\":9613:9617   */\n      0x00\n        /* \"#utility.yul\":9651:9653   */\n      0x20\n        /* \"#utility.yul\":9640:9649   */\n      dup3\n        /* \"#utility.yul\":9636:9654   */\n      add\n        /* \"#utility.yul\":9628:9654   */\n      swap1\n      pop\n        /* \"#utility.yul\":9700:9709   */\n      dup2\n        /* \"#utility.yul\":9694:9698   */\n      dup2\n        /* \"#utility.yul\":9690:9710   */\n      sub\n        /* \"#utility.yul\":9686:9687   */\n      0x00\n        /* \"#utility.yul\":9675:9684   */\n      dup4\n        /* \"#utility.yul\":9671:9688   */\n      add\n        /* \"#utility.yul\":9664:9711   */\n      mstore\n        /* \"#utility.yul\":9728:9859   */\n      tag_391\n        /* \"#utility.yul\":9854:9858   */\n      dup2\n        /* \"#utility.yul\":9728:9859   */\n      tag_268\n      jump\t// in\n    tag_391:\n        /* \"#utility.yul\":9720:9859   */\n      swap1\n      pop\n        /* \"#utility.yul\":9447:9866   */\n      swap2\n      swap1\n      pop\n      jump\t// out\n        /* \"#utility.yul\":9872:10112   */\n    tag_269:\n        /* \"#utility.yul\":10012:10046   */\n      0x496e73756666696369656e742066756e647320666f722072657061796d656e74\n        /* \"#utility.yul\":10008:10009   */\n      0x00\n        /* \"#utility.yul\":10000:10006   */\n      dup3\n        /* \"#utility.yul\":9996:10010   */\n      add\n        /* \"#utility.yul\":9989:10047   */\n      mstore\n        /* \"#utility.yul\":10081:10104   */\n      0x20616e64206163637275656420696e7465726573740000000000000000000000\n        /* \"#utility.yul\":10076:10078   */\n      0x20\n        /* \"#utility.yul\":10068:10074   */\n      dup3\n        /* \"#utility.yul\":10064:10079   */\n      add\n        /* \"#utility.yul\":10057:10105   */\n      mstore\n        /* \"#utility.yul\":9872:10112   */\n      pop\n      jump\t// out\n        /* \"#utility.yul\":10118:10484   */\n    tag_270:\n        /* \"#utility.yul\":10260:10263   */\n      0x00\n        /* \"#utility.yul\":10281:10348   */\n      tag_394\n        /* \"#utility.yul\":10345:10347   */\n      0x35\n        /* \"#utility.yul\":10340:10343   */\n      dup4\n        /* \"#utility.yul\":10281:10348   */\n      tag_263\n      jump\t// in\n    tag_394:\n        /* \"#utility.yul\":10274:10348   */\n      swap2\n      pop\n        /* \"#utility.yul\":10357:10450   */\n      tag_395\n        /* \"#utility.yul\":10446:10449   */\n      dup3\n        /* \"#utility.yul\":10357:10450   */\n      tag_269\n      jump\t// in\n    tag_395:\n        /* \"#utility.yul\":10475:10477   */\n      0x40\n        /* \"#utility.yul\":10470:10473   */\n      dup3\n        /* \"#utility.yul\":10466:10478   */\n      add\n        /* \"#utility.yul\":10459:10478   */\n      swap1\n      pop\n        /* \"#utility.yul\":10118:10484   */\n      swap2\n      swap1\n      pop\n      jump\t// out\n        /* \"#utility.yul\":10490:10909   */\n    tag_149:\n        /* \"#utility.yul\":10656:10660   */\n      0x00\n        /* \"#utility.yul\":10694:10696   */\n      0x20\n        /* \"#utility.yul\":10683:10692   */\n      dup3\n        /* \"#utility.yul\":10679:10697   */\n      add\n        /* \"#utility.yul\":10671:10697   */\n      swap1\n      pop\n        /* \"#utility.yul\":10743:10752   */\n      dup2\n        /* \"#utility.yul\":10737:10741   */\n      dup2\n        /* \"#utility.yul\":10733:10753   */\n      sub\n        /* \"#utility.yul\":10729:10730   */\n      0x00\n        /* \"#utility.yul\":10718:10727   */\n      dup4\n        /* \"#utility.yul\":10714:10731   */\n      add\n        /* \"#utility.yul\":10707:10754   */\n      mstore\n        /* \"#utility.yul\":10771:10902   */\n      tag_397\n        /* \"#utility.yul\":10897:10901   */\n      dup2\n        /* \"#utility.yul\":10771:10902   */\n      tag_270\n      jump\t// in\n    tag_397:\n        /* \"#utility.yul\":10763:10902   */\n      swap1\n      pop\n        /* \"#utility.yul\":10490:10909   */\n      swap2\n      swap1\n      pop\n      jump\t// out\n        /* \"#utility.yul\":10915:11095   */\n    tag_166:\n        /* \"#utility.yul\":10963:11040   */\n      0x4e487b7100000000000000000000000000000000000000000000000000000000\n        /* \"#utility.yul\":10960:10961   */\n      0x00\n        /* \"#utility.yul\":10953:11041   */\n      mstore\n        /* \"#utility.yul\":11060:11064   */\n      0x32\n        /* \"#utility.yul\":11057:11058   */\n      0x04\n        /* \"#utility.yul\":11050:11065   */\n      mstore\n        /* \"#utility.yul\":11084:11088   */\n      0x24\n        /* \"#utility.yul\":11081:11082   */\n      0x00\n        /* \"#utility.yul\":11074:11089   */\n      revert\n        /* \"#utility.yul\":11101:11328   */\n    tag_271:\n        /* \"#utility.yul\":11241:11275   */\n      0x4465706f73697420616d6f756e74206d75737420626520677265617465722074\n        /* \"#utility.yul\":11237:11238   */\n      0x00\n        /* \"#utility.yul\":11229:11235   */\n      dup3\n        /* \"#utility.yul\":11225:11239   */\n      add\n        /* \"#utility.yul\":11218:11276   */\n      mstore\n        /* \"#utility.yul\":11310:11320   */\n      0x68616e207a65726f000000000000000000000000000000000000000000000000\n        /* \"#utility.yul\":11305:11307   */\n      0x20\n        /* \"#utility.yul\":11297:11303   */\n      dup3\n        /* \"#utility.yul\":11293:11308   */\n      add\n        /* \"#utility.yul\":11286:11321   */\n      mstore\n        /* \"#utility.yul\":11101:11328   */\n      pop\n      jump\t// out\n        /* \"#utility.yul\":11334:11700   */\n    tag_272:\n        /* \"#utility.yul\":11476:11479   */\n      0x00\n        /* \"#utility.yul\":11497:11564   */\n      tag_401\n        /* \"#utility.yul\":11561:11563   */\n      0x28\n        /* \"#utility.yul\":11556:11559   */\n      dup4\n        /* \"#utility.yul\":11497:11564   */\n      tag_263\n      jump\t// in\n    tag_401:\n        /* \"#utility.yul\":11490:11564   */\n      swap2\n      pop\n        /* \"#utility.yul\":11573:11666   */\n      tag_402\n        /* \"#utility.yul\":11662:11665   */\n      dup3\n        /* \"#utility.yul\":11573:11666   */\n      tag_271\n      jump\t// in\n    tag_402:\n        /* \"#utility.yul\":11691:11693   */\n      0x40\n        /* \"#utility.yul\":11686:11689   */\n      dup3\n        /* \"#utility.yul\":11682:11694   */\n      add\n        /* \"#utility.yul\":11675:11694   */\n      swap1\n      pop\n        /* \"#utility.yul\":11334:11700   */\n      swap2\n      swap1\n      pop\n      jump\t// out\n        /* \"#utility.yul\":11706:12125   */\n    tag_172:\n        /* \"#utility.yul\":11872:11876   */\n      0x00\n        /* \"#utility.yul\":11910:11912   */\n      0x20\n        /* \"#utility.yul\":11899:11908   */\n      dup3\n        /* \"#utility.yul\":11895:11913   */\n      add\n        /* \"#utility.yul\":11887:11913   */\n      swap1\n      pop\n        /* \"#utility.yul\":11959:11968   */\n      dup2\n        /* \"#utility.yul\":11953:11957   */\n      dup2\n        /* \"#utility.yul\":11949:11969   */\n      sub\n        /* \"#utility.yul\":11945:11946   */\n      0x00\n        /* \"#utility.yul\":11934:11943   */\n      dup4\n        /* \"#utility.yul\":11930:11947   */\n      add\n        /* \"#utility.yul\":11923:11970   */\n      mstore\n        /* \"#utility.yul\":11987:12118   */\n      tag_404\n        /* \"#utility.yul\":12113:12117   */\n      dup2\n        /* \"#utility.yul\":11987:12118   */\n      tag_272\n      jump\t// in\n    tag_404:\n        /* \"#utility.yul\":11979:12118   */\n      swap1\n      pop\n        /* \"#utility.yul\":11706:12125   */\n      swap2\n      swap1\n      pop\n      jump\t// out\n        /* \"#utility.yul\":12131:12573   */\n    tag_174:\n        /* \"#utility.yul\":12280:12284   */\n      0x00\n        /* \"#utility.yul\":12318:12320   */\n      0x60\n        /* \"#utility.yul\":12307:12316   */\n      dup3\n        /* \"#utility.yul\":12303:12321   */\n      add\n        /* \"#utility.yul\":12295:12321   */\n      swap1\n      pop\n        /* \"#utility.yul\":12331:12402   */\n      tag_406\n        /* \"#utility.yul\":12399:12400   */\n      0x00\n        /* \"#utility.yul\":12388:12397   */\n      dup4\n        /* \"#utility.yul\":12384:12401   */\n      add\n        /* \"#utility.yul\":12375:12381   */\n      dup7\n        /* \"#utility.yul\":12331:12402   */\n      tag_257\n      jump\t// in\n    tag_406:\n        /* \"#utility.yul\":12412:12484   */\n      tag_407\n        /* \"#utility.yul\":12480:12482   */\n      0x20\n        /* \"#utility.yul\":12469:12478   */\n      dup4\n        /* \"#utility.yul\":12465:12483   */\n      add\n        /* \"#utility.yul\":12456:12462   */\n      dup6\n        /* \"#utility.yul\":12412:12484   */\n      tag_257\n      jump\t// in\n    tag_407:\n        /* \"#utility.yul\":12494:12566   */\n      tag_408\n        /* \"#utility.yul\":12562:12564   */\n      0x40\n        /* \"#utility.yul\":12551:12560   */\n      dup4\n        /* \"#utility.yul\":12547:12565   */\n      add\n        /* \"#utility.yul\":12538:12544   */\n      dup5\n        /* \"#utility.yul\":12494:12566   */\n      tag_254\n      jump\t// in\n    tag_408:\n        /* \"#utility.yul\":12131:12573   */\n      swap5\n      swap4\n      pop\n      pop\n      pop\n      pop\n      jump\t// out\n        /* \"#utility.yul\":12579:12695   */\n    tag_273:\n        /* \"#utility.yul\":12649:12670   */\n      tag_410\n        /* \"#utility.yul\":12664:12669   */\n      dup2\n        /* \"#utility.yul\":12649:12670   */\n      tag_255\n      jump\t// in\n    tag_410:\n        /* \"#utility.yul\":12642:12647   */\n      dup2\n        /* \"#utility.yul\":12639:12671   */\n      eq\n        /* \"#utility.yul\":12629:12689   */\n      tag_411\n      jumpi\n        /* \"#utility.yul\":12685:12686   */\n      0x00\n        /* \"#utility.yul\":12682:12683   */\n      dup1\n        /* \"#utility.yul\":12675:12687   */\n      revert\n        /* \"#utility.yul\":12629:12689   */\n    tag_411:\n        /* \"#utility.yul\":12579:12695   */\n      pop\n      jump\t// out\n        /* \"#utility.yul\":12701:12838   */\n    tag_274:\n        /* \"#utility.yul\":12755:12760   */\n      0x00\n        /* \"#utility.yul\":12786:12792   */\n      dup2\n        /* \"#utility.yul\":12780:12793   */\n      mload\n        /* \"#utility.yul\":12771:12793   */\n      swap1\n      pop\n        /* \"#utility.yul\":12802:12832   */\n      tag_413\n        /* \"#utility.yul\":12826:12831   */\n      dup2\n        /* \"#utility.yul\":12802:12832   */\n      tag_273\n      jump\t// in\n    tag_413:\n        /* \"#utility.yul\":12701:12838   */\n      swap3\n      swap2\n      pop\n      pop\n      jump\t// out\n        /* \"#utility.yul\":12844:13189   */\n    tag_178:\n        /* \"#utility.yul\":12911:12917   */\n      0x00\n        /* \"#utility.yul\":12960:12962   */\n      0x20\n        /* \"#utility.yul\":12948:12957   */\n      dup3\n        /* \"#utility.yul\":12939:12946   */\n      dup5\n        /* \"#utility.yul\":12935:12958   */\n      sub\n        /* \"#utility.yul\":12931:12963   */\n      slt\n        /* \"#utility.yul\":12928:13047   */\n      iszero\n      tag_415\n      jumpi\n        /* \"#utility.yul\":12966:13045   */\n      tag_416\n      tag_245\n      jump\t// in\n    tag_416:\n        /* \"#utility.yul\":12928:13047   */\n    tag_415:\n        /* \"#utility.yul\":13086:13087   */\n      0x00\n        /* \"#utility.yul\":13111:13172   */\n      tag_417\n        /* \"#utility.yul\":13164:13171   */\n      dup5\n        /* \"#utility.yul\":13155:13161   */\n      dup3\n        /* \"#utility.yul\":13144:13153   */\n      dup6\n        /* \"#utility.yul\":13140:13162   */\n      add\n        /* \"#utility.yul\":13111:13172   */\n      tag_274\n      jump\t// in\n    tag_417:\n        /* \"#utility.yul\":13101:13172   */\n      swap2\n      pop\n        /* \"#utility.yul\":13057:13182   */\n      pop\n        /* \"#utility.yul\":12844:13189   */\n      swap3\n      swap2\n      pop\n      pop\n      jump\t// out\n        /* \"#utility.yul\":13195:13421   */\n    tag_275:\n        /* \"#utility.yul\":13335:13369   */\n      0x426f72726f7720616d6f756e74206d7573742062652067726561746572207468\n        /* \"#utility.yul\":13331:13332   */\n      0x00\n        /* \"#utility.yul\":13323:13329   */\n      dup3\n        /* \"#utility.yul\":13319:13333   */\n      add\n        /* \"#utility.yul\":13312:13370   */\n      mstore\n        /* \"#utility.yul\":13404:13413   */\n      0x616e207a65726f00000000000000000000000000000000000000000000000000\n        /* \"#utility.yul\":13399:13401   */\n      0x20\n        /* \"#utility.yul\":13391:13397   */\n      dup3\n        /* \"#utility.yul\":13387:13402   */\n      add\n        /* \"#utility.yul\":13380:13414   */\n      mstore\n        /* \"#utility.yul\":13195:13421   */\n      pop\n      jump\t// out\n        /* \"#utility.yul\":13427:13793   */\n    tag_276:\n        /* \"#utility.yul\":13569:13572   */\n      0x00\n        /* \"#utility.yul\":13590:13657   */\n      tag_420\n        /* \"#utility.yul\":13654:13656   */\n      0x27\n        /* \"#utility.yul\":13649:13652   */\n      dup4\n        /* \"#utility.yul\":13590:13657   */\n      tag_263\n      jump\t// in\n    tag_420:\n        /* \"#utility.yul\":13583:13657   */\n      swap2\n      pop\n        /* \"#utility.yul\":13666:13759   */\n      tag_421\n        /* \"#utility.yul\":13755:13758   */\n      dup3\n        /* \"#utility.yul\":13666:13759   */\n      tag_275\n      jump\t// in\n    tag_421:\n        /* \"#utility.yul\":13784:13786   */\n      0x40\n        /* \"#utility.yul\":13779:13782   */\n      dup3\n        /* \"#utility.yul\":13775:13787   */\n      add\n        /* \"#utility.yul\":13768:13787   */\n      swap1\n      pop\n        /* \"#utility.yul\":13427:13793   */\n      swap2\n      swap1\n      pop\n      jump\t// out\n        /* \"#utility.yul\":13799:14218   */\n    tag_186:\n        /* \"#utility.yul\":13965:13969   */\n      0x00\n        /* \"#utility.yul\":14003:14005   */\n      0x20\n        /* \"#utility.yul\":13992:14001   */\n      dup3\n        /* \"#utility.yul\":13988:14006   */\n      add\n        /* \"#utility.yul\":13980:14006   */\n      swap1\n      pop\n        /* \"#utility.yul\":14052:14061   */\n      dup2\n        /* \"#utility.yul\":14046:14050   */\n      dup2\n        /* \"#utility.yul\":14042:14062   */\n      sub\n        /* \"#utility.yul\":14038:14039   */\n      0x00\n        /* \"#utility.yul\":14027:14036   */\n      dup4\n        /* \"#utility.yul\":14023:14040   */\n      add\n        /* \"#utility.yul\":14016:14063   */\n      mstore\n        /* \"#utility.yul\":14080:14211   */\n      tag_423\n        /* \"#utility.yul\":14206:14210   */\n      dup2\n        /* \"#utility.yul\":14080:14211   */\n      tag_276\n      jump\t// in\n    tag_423:\n        /* \"#utility.yul\":14072:14211   */\n      swap1\n      pop\n        /* \"#utility.yul\":13799:14218   */\n      swap2\n      swap1\n      pop\n      jump\t// out\n        /* \"#utility.yul\":14224:14397   */\n    tag_277:\n        /* \"#utility.yul\":14364:14389   */\n      0x496e73756666696369656e7420636f6c6c61746572616c000000000000000000\n        /* \"#utility.yul\":14360:14361   */\n      0x00\n        /* \"#utility.yul\":14352:14358   */\n      dup3\n        /* \"#utility.yul\":14348:14362   */\n      add\n        /* \"#utility.yul\":14341:14390   */\n      mstore\n        /* \"#utility.yul\":14224:14397   */\n      pop\n      jump\t// out\n        /* \"#utility.yul\":14403:14769   */\n    tag_278:\n        /* \"#utility.yul\":14545:14548   */\n      0x00\n        /* \"#utility.yul\":14566:14633   */\n      tag_426\n        /* \"#utility.yul\":14630:14632   */\n      0x17\n        /* \"#utility.yul\":14625:14628   */\n      dup4\n        /* \"#utility.yul\":14566:14633   */\n      tag_263\n      jump\t// in\n    tag_426:\n        /* \"#utility.yul\":14559:14633   */\n      swap2\n      pop\n        /* \"#utility.yul\":14642:14735   */\n      tag_427\n        /* \"#utility.yul\":14731:14734   */\n      dup3\n        /* \"#utility.yul\":14642:14735   */\n      tag_277\n      jump\t// in\n    tag_427:\n        /* \"#utility.yul\":14760:14762   */\n      0x20\n        /* \"#utility.yul\":14755:14758   */\n      dup3\n        /* \"#utility.yul\":14751:14763   */\n      add\n        /* \"#utility.yul\":14744:14763   */\n      swap1\n      pop\n        /* \"#utility.yul\":14403:14769   */\n      swap2\n      swap1\n      pop\n      jump\t// out\n        /* \"#utility.yul\":14775:15194   */\n    tag_190:\n        /* \"#utility.yul\":14941:14945   */\n      0x00\n        /* \"#utility.yul\":14979:14981   */\n      0x20\n        /* \"#utility.yul\":14968:14977   */\n      dup3\n        /* \"#utility.yul\":14964:14982   */\n      add\n        /* \"#utility.yul\":14956:14982   */\n      swap1\n      pop\n        /* \"#utility.yul\":15028:15037   */\n      dup2\n        /* \"#utility.yul\":15022:15026   */\n      dup2\n        /* \"#utility.yul\":15018:15038   */\n      sub\n        /* \"#utility.yul\":15014:15015   */\n      0x00\n        /* \"#utility.yul\":15003:15012   */\n      dup4\n        /* \"#utility.yul\":14999:15016   */\n      add\n        /* \"#utility.yul\":14992:15039   */\n      mstore\n        /* \"#utility.yul\":15056:15187   */\n      tag_429\n        /* \"#utility.yul\":15182:15186   */\n      dup2\n        /* \"#utility.yul\":15056:15187   */\n      tag_278\n      jump\t// in\n    tag_429:\n        /* \"#utility.yul\":15048:15187   */\n      swap1\n      pop\n        /* \"#utility.yul\":14775:15194   */\n      swap2\n      swap1\n      pop\n      jump\t// out\n        /* \"#utility.yul\":15200:15343   */\n    tag_279:\n        /* \"#utility.yul\":15257:15262   */\n      0x00\n        /* \"#utility.yul\":15288:15294   */\n      dup2\n        /* \"#utility.yul\":15282:15295   */\n      mload\n        /* \"#utility.yul\":15273:15295   */\n      swap1\n      pop\n        /* \"#utility.yul\":15304:15337   */\n      tag_431\n        /* \"#utility.yul\":15331:15336   */\n      dup2\n        /* \"#utility.yul\":15304:15337   */\n      tag_252\n      jump\t// in\n    tag_431:\n        /* \"#utility.yul\":15200:15343   */\n      swap3\n      swap2\n      pop\n      pop\n      jump\t// out\n        /* \"#utility.yul\":15349:15700   */\n    tag_195:\n        /* \"#utility.yul\":15419:15425   */\n      0x00\n        /* \"#utility.yul\":15468:15470   */\n      0x20\n        /* \"#utility.yul\":15456:15465   */\n      dup3\n        /* \"#utility.yul\":15447:15454   */\n      dup5\n        /* \"#utility.yul\":15443:15466   */\n      sub\n        /* \"#utility.yul\":15439:15471   */\n      slt\n        /* \"#utility.yul\":15436:15555   */\n      iszero\n      tag_433\n      jumpi\n        /* \"#utility.yul\":15474:15553   */\n      tag_434\n      tag_245\n      jump\t// in\n    tag_434:\n        /* \"#utility.yul\":15436:15555   */\n    tag_433:\n        /* \"#utility.yul\":15594:15595   */\n      0x00\n        /* \"#utility.yul\":15619:15683   */\n      tag_435\n        /* \"#utility.yul\":15675:15682   */\n      dup5\n        /* \"#utility.yul\":15666:15672   */\n      dup3\n        /* \"#utility.yul\":15655:15664   */\n      dup6\n        /* \"#utility.yul\":15651:15673   */\n      add\n        /* \"#utility.yul\":15619:15683   */\n      tag_279\n      jump\t// in\n    tag_435:\n        /* \"#utility.yul\":15609:15683   */\n      swap2\n      pop\n        /* \"#utility.yul\":15565:15693   */\n      pop\n        /* \"#utility.yul\":15349:15700   */\n      swap3\n      swap2\n      pop\n      pop\n      jump\t// out\n        /* \"#utility.yul\":15706:15929   */\n    tag_280:\n        /* \"#utility.yul\":15846:15880   */\n      0x496e73756666696369656e74206c697175696469747920666f7220626f72726f\n        /* \"#utility.yul\":15842:15843   */\n      0x00\n        /* \"#utility.yul\":15834:15840   */\n      dup3\n        /* \"#utility.yul\":15830:15844   */\n      add\n        /* \"#utility.yul\":15823:15881   */\n      mstore\n        /* \"#utility.yul\":15915:15921   */\n      0x77696e6700000000000000000000000000000000000000000000000000000000\n        /* \"#utility.yul\":15910:15912   */\n      0x20\n        /* \"#utility.yul\":15902:15908   */\n      dup3\n        /* \"#utility.yul\":15898:15913   */\n      add\n        /* \"#utility.yul\":15891:15922   */\n      mstore\n        /* \"#utility.yul\":15706:15929   */\n      pop\n      jump\t// out\n        /* \"#utility.yul\":15935:16301   */\n    tag_281:\n        /* \"#utility.yul\":16077:16080   */\n      0x00\n        /* \"#utility.yul\":16098:16165   */\n      tag_438\n        /* \"#utility.yul\":16162:16164   */\n      0x24\n        /* \"#utility.yul\":16157:16160   */\n      dup4\n        /* \"#utility.yul\":16098:16165   */\n      tag_263\n      jump\t// in\n    tag_438:\n        /* \"#utility.yul\":16091:16165   */\n      swap2\n      pop\n        /* \"#utility.yul\":16174:16267   */\n      tag_439\n        /* \"#utility.yul\":16263:16266   */\n      dup3\n        /* \"#utility.yul\":16174:16267   */\n      tag_280\n      jump\t// in\n    tag_439:\n        /* \"#utility.yul\":16292:16294   */\n      0x40\n        /* \"#utility.yul\":16287:16290   */\n      dup3\n        /* \"#utility.yul\":16283:16295   */\n      add\n        /* \"#utility.yul\":16276:16295   */\n      swap1\n      pop\n        /* \"#utility.yul\":15935:16301   */\n      swap2\n      swap1\n      pop\n      jump\t// out\n        /* \"#utility.yul\":16307:16726   */\n    tag_198:\n        /* \"#utility.yul\":16473:16477   */\n      0x00\n        /* \"#utility.yul\":16511:16513   */\n      0x20\n        /* \"#utility.yul\":16500:16509   */\n      dup3\n        /* \"#utility.yul\":16496:16514   */\n      add\n        /* \"#utility.yul\":16488:16514   */\n      swap1\n      pop\n        /* \"#utility.yul\":16560:16569   */\n      dup2\n        /* \"#utility.yul\":16554:16558   */\n      dup2\n        /* \"#utility.yul\":16550:16570   */\n      sub\n        /* \"#utility.yul\":16546:16547   */\n      0x00\n        /* \"#utility.yul\":16535:16544   */\n      dup4\n        /* \"#utility.yul\":16531:16548   */\n      add\n        /* \"#utility.yul\":16524:16571   */\n      mstore\n        /* \"#utility.yul\":16588:16719   */\n      tag_441\n        /* \"#utility.yul\":16714:16718   */\n      dup2\n        /* \"#utility.yul\":16588:16719   */\n      tag_281\n      jump\t// in\n    tag_441:\n        /* \"#utility.yul\":16580:16719   */\n      swap1\n      pop\n        /* \"#utility.yul\":16307:16726   */\n      swap2\n      swap1\n      pop\n      jump\t// out\n        /* \"#utility.yul\":16732:17142   */\n    tag_210:\n        /* \"#utility.yul\":16772:16779   */\n      0x00\n        /* \"#utility.yul\":16795:16815   */\n      tag_443\n        /* \"#utility.yul\":16813:16814   */\n      dup3\n        /* \"#utility.yul\":16795:16815   */\n      tag_251\n      jump\t// in\n    tag_443:\n        /* \"#utility.yul\":16790:16815   */\n      swap2\n      pop\n        /* \"#utility.yul\":16829:16849   */\n      tag_444\n        /* \"#utility.yul\":16847:16848   */\n      dup4\n        /* \"#utility.yul\":16829:16849   */\n      tag_251\n      jump\t// in\n    tag_444:\n        /* \"#utility.yul\":16824:16849   */\n      swap3\n      pop\n        /* \"#utility.yul\":16884:16885   */\n      dup3\n        /* \"#utility.yul\":16881:16882   */\n      dup3\n        /* \"#utility.yul\":16877:16886   */\n      mul\n        /* \"#utility.yul\":16906:16936   */\n      tag_445\n        /* \"#utility.yul\":16924:16935   */\n      dup2\n        /* \"#utility.yul\":16906:16936   */\n      tag_251\n      jump\t// in\n    tag_445:\n        /* \"#utility.yul\":16895:16936   */\n      swap2\n      pop\n        /* \"#utility.yul\":17085:17086   */\n      dup3\n        /* \"#utility.yul\":17076:17083   */\n      dup3\n        /* \"#utility.yul\":17072:17087   */\n      div\n        /* \"#utility.yul\":17069:17070   */\n      dup5\n        /* \"#utility.yul\":17066:17088   */\n      eq\n        /* \"#utility.yul\":17046:17047   */\n      dup4\n        /* \"#utility.yul\":17039:17048   */\n      iszero\n        /* \"#utility.yul\":17019:17102   */\n      or\n        /* \"#utility.yul\":16996:17135   */\n      tag_446\n      jumpi\n        /* \"#utility.yul\":17115:17133   */\n      tag_447\n      tag_266\n      jump\t// in\n    tag_447:\n        /* \"#utility.yul\":16996:17135   */\n    tag_446:\n        /* \"#utility.yul\":16780:17142   */\n      pop\n        /* \"#utility.yul\":16732:17142   */\n      swap3\n      swap2\n      pop\n      pop\n      jump\t// out\n        /* \"#utility.yul\":17148:17328   */\n    tag_282:\n        /* \"#utility.yul\":17196:17273   */\n      0x4e487b7100000000000000000000000000000000000000000000000000000000\n        /* \"#utility.yul\":17193:17194   */\n      0x00\n        /* \"#utility.yul\":17186:17274   */\n      mstore\n        /* \"#utility.yul\":17293:17297   */\n      0x12\n        /* \"#utility.yul\":17290:17291   */\n      0x04\n        /* \"#utility.yul\":17283:17298   */\n      mstore\n        /* \"#utility.yul\":17317:17321   */\n      0x24\n        /* \"#utility.yul\":17314:17315   */\n      0x00\n        /* \"#utility.yul\":17307:17322   */\n      revert\n        /* \"#utility.yul\":17334:17519   */\n    tag_220:\n        /* \"#utility.yul\":17374:17375   */\n      0x00\n        /* \"#utility.yul\":17391:17411   */\n      tag_450\n        /* \"#utility.yul\":17409:17410   */\n      dup3\n        /* \"#utility.yul\":17391:17411   */\n      tag_251\n      jump\t// in\n    tag_450:\n        /* \"#utility.yul\":17386:17411   */\n      swap2\n      pop\n        /* \"#utility.yul\":17425:17445   */\n      tag_451\n        /* \"#utility.yul\":17443:17444   */\n      dup4\n        /* \"#utility.yul\":17425:17445   */\n      tag_251\n      jump\t// in\n    tag_451:\n        /* \"#utility.yul\":17420:17445   */\n      swap3\n      pop\n        /* \"#utility.yul\":17464:17465   */\n      dup3\n        /* \"#utility.yul\":17454:17489   */\n      tag_452\n      jumpi\n        /* \"#utility.yul\":17469:17487   */\n      tag_453\n      tag_282\n      jump\t// in\n    tag_453:\n        /* \"#utility.yul\":17454:17489   */\n    tag_452:\n        /* \"#utility.yul\":17511:17512   */\n      dup3\n        /* \"#utility.yul\":17508:17509   */\n      dup3\n        /* \"#utility.yul\":17504:17513   */\n      div\n        /* \"#utility.yul\":17499:17513   */\n      swap1\n      pop\n        /* \"#utility.yul\":17334:17519   */\n      swap3\n      swap2\n      pop\n      pop\n      jump\t// out\n        /* \"#utility.yul\":17525:17706   */\n    tag_283:\n        /* \"#utility.yul\":17665:17698   */\n      0x5265656e7472616e637947756172643a207265656e7472616e742063616c6c00\n        /* \"#utility.yul\":17661:17662   */\n      0x00\n        /* \"#utility.yul\":17653:17659   */\n      dup3\n        /* \"#utility.yul\":17649:17663   */\n      add\n        /* \"#utility.yul\":17642:17699   */\n      mstore\n        /* \"#utility.yul\":17525:17706   */\n      pop\n      jump\t// out\n        /* \"#utility.yul\":17712:18078   */\n    tag_284:\n        /* \"#utility.yul\":17854:17857   */\n      0x00\n        /* \"#utility.yul\":17875:17942   */\n      tag_456\n        /* \"#utility.yul\":17939:17941   */\n      0x1f\n        /* \"#utility.yul\":17934:17937   */\n      dup4\n        /* \"#utility.yul\":17875:17942   */\n      tag_263\n      jump\t// in\n    tag_456:\n        /* \"#utility.yul\":17868:17942   */\n      swap2\n      pop\n        /* \"#utility.yul\":17951:18044   */\n      tag_457\n        /* \"#utility.yul\":18040:18043   */\n      dup3\n        /* \"#utility.yul\":17951:18044   */\n      tag_283\n      jump\t// in\n    tag_457:\n        /* \"#utility.yul\":18069:18071   */\n      0x20\n        /* \"#utility.yul\":18064:18067   */\n      dup3\n        /* \"#utility.yul\":18060:18072   */\n      add\n        /* \"#utility.yul\":18053:18072   */\n      swap1\n      pop\n        /* \"#utility.yul\":17712:18078   */\n      swap2\n      swap1\n      pop\n      jump\t// out\n        /* \"#utility.yul\":18084:18503   */\n    tag_238:\n        /* \"#utility.yul\":18250:18254   */\n      0x00\n        /* \"#utility.yul\":18288:18290   */\n      0x20\n        /* \"#utility.yul\":18277:18286   */\n      dup3\n        /* \"#utility.yul\":18273:18291   */\n      add\n        /* \"#utility.yul\":18265:18291   */\n      swap1\n      pop\n        /* \"#utility.yul\":18337:18346   */\n      dup2\n        /* \"#utility.yul\":18331:18335   */\n      dup2\n        /* \"#utility.yul\":18327:18347   */\n      sub\n        /* \"#utility.yul\":18323:18324   */\n      0x00\n        /* \"#utility.yul\":18312:18321   */\n      dup4\n        /* \"#utility.yul\":18308:18325   */\n      add\n        /* \"#utility.yul\":18301:18348   */\n      mstore\n        /* \"#utility.yul\":18365:18496   */\n      tag_459\n        /* \"#utility.yul\":18491:18495   */\n      dup2\n        /* \"#utility.yul\":18365:18496   */\n      tag_284\n      jump\t// in\n    tag_459:\n        /* \"#utility.yul\":18357:18496   */\n      swap1\n      pop\n        /* \"#utility.yul\":18084:18503   */\n      swap2\n      swap1\n      pop\n      jump\t// out\n\n    auxdata: 0xa26469706673582212200eae93d4a53abc162e979c1bd740f3817d5169a8257faff84817a4db1055efc364736f6c63430008180033\n}\n",
				"bytecode": {
					"linkReferences": {},
					"object": "6080604052600a60015534801562000015575f80fd5b5060405162001e5d38038062001e5d83398181016040528101906200003b919062000101565b60015f819055508060095f6101000a81548173ffffffffffffffffffffffffffffffffffffffff021916908373ffffffffffffffffffffffffffffffffffffffff1602179055505062000131565b5f80fd5b5f73ffffffffffffffffffffffffffffffffffffffff82169050919050565b5f620000b8826200008d565b9050919050565b5f620000cb82620000ac565b9050919050565b620000dd81620000bf565b8114620000e8575f80fd5b50565b5f81519050620000fb81620000d2565b92915050565b5f6020828403121562000119576200011862000089565b5b5f6200012884828501620000eb565b91505092915050565b611d1e806200013f5f395ff3fe60806040526004361061011e575f3560e01c8063664fa64e1161009f578063cc218ece11610063578063cc218ece1461043a578063d526fc2e14610476578063e2fdcc17146104b2578063e80894b6146104dc578063f970c3b7146105185761011e565b8063664fa64e146103205780636805d6ad1461035c5780639ee7f70214610398578063afd92762146103d4578063c6255626146103fe5761011e565b806334931b4b116100e657806334931b4b1461021c5780633b591d6a14610258578063436d80391461029457806347e7ef24146102d05780634b8a3529146102f85761011e565b806322867d7814610122578063234a14f91461013e57806323d0fda11461017a578063272d1b8e146101b65780632ae8bdfe146101f4575b5f80fd5b61013c600480360381019061013791906113b1565b610540565b005b348015610149575f80fd5b50610164600480360381019061015f91906113ef565b61085a565b604051610171919061143c565b60405180910390f35b348015610185575f80fd5b506101a0600480360381019061019b9190611455565b61087a565b6040516101ad919061143c565b60405180910390f35b3480156101c1575f80fd5b506101dc60048036038101906101d791906113ef565b61088f565b6040516101eb93929190611480565b60405180910390f35b3480156101ff575f80fd5b5061021a600480360381019061021591906114b5565b6108c0565b005b348015610227575f80fd5b50610242600480360381019061023d9190611505565b6108c5565b60405161024f919061143c565b60405180910390f35b348015610263575f80fd5b5061027e600480360381019061027991906114b5565b6108cb565b60405161028b919061154a565b60405180910390f35b34801561029f575f80fd5b506102ba60048036038101906102b591906113ef565b6109b6565b6040516102c7919061143c565b60405180910390f35b3480156102db575f80fd5b506102f660048036038101906102f191906113b1565b6109d6565b005b348015610303575f80fd5b5061031e600480360381019061031991906113b1565b610b8d565b005b34801561032b575f80fd5b50610346600480360381019061034191906113ef565b610f60565b604051610353919061143c565b60405180910390f35b348015610367575f80fd5b50610382600480360381019061037d91906113ef565b611044565b60405161038f919061143c565b60405180910390f35b3480156103a3575f80fd5b506103be60048036038101906103b99190611563565b6110c6565b6040516103cb919061143c565b60405180910390f35b3480156103df575f80fd5b506103e86110ce565b6040516103f5919061143c565b60405180910390f35b348015610409575f80fd5b50610424600480360381019061041f9190611505565b6110d4565b60405161043191906115c2565b60405180910390f35b348015610445575f80fd5b50610460600480360381019061045b91906113ef565b61110f565b60405161046d919061143c565b60405180910390f35b348015610481575f80fd5b5061049c600480360381019061049791906115db565b61112f565b6040516104a9919061143c565b60405180910390f35b3480156104bd575f80fd5b506104c661126b565b6040516104d39190611674565b60405180910390f35b3480156104e7575f80fd5b5061050260048036038101906104fd9190611455565b611290565b60405161050f919061143c565b60405180910390f35b348015610523575f80fd5b5061053e600480360381019061053991906114b5565b6112a5565b005b6105486112aa565b5f811161058a576040517f08c379a00000000000000000000000000000000000000000000000000000000081526004016105819061170d565b60405180910390fd5b8060045f8473ffffffffffffffffffffffffffffffffffffffff1673ffffffffffffffffffffffffffffffffffffffff1681526020019081526020015f205f3373ffffffffffffffffffffffffffffffffffffffff1673ffffffffffffffffffffffffffffffffffffffff1681526020019081526020015f205f8282546106119190611758565b925050819055508060065f8473ffffffffffffffffffffffffffffffffffffffff1673ffffffffffffffffffffffffffffffffffffffff1681526020019081526020015f205f8282546106649190611758565b925050819055508060075f3373ffffffffffffffffffffffffffffffffffffffff1673ffffffffffffffffffffffffffffffffffffffff1681526020019081526020015f205f8282546106b79190611758565b925050819055505f6106c98333610f60565b905080826106d7919061178b565b60045f8573ffffffffffffffffffffffffffffffffffffffff1673ffffffffffffffffffffffffffffffffffffffff1681526020019081526020015f205f3373ffffffffffffffffffffffffffffffffffffffff1673ffffffffffffffffffffffffffffffffffffffff1681526020019081526020015f20541015610791576040517f08c379a00000000000000000000000000000000000000000000000000000000081526004016107889061182e565b60405180910390fd5b34818361079e919061178b565b10156107df576040517f08c379a00000000000000000000000000000000000000000000000000000000081526004016107d6906118bc565b60405180910390fd5b3481836107ec919061178b565b111561084d573373ffffffffffffffffffffffffffffffffffffffff166108fc348385610819919061178b565b6108239190611758565b90811502906040515f60405180830381858888f1935050505015801561084b573d5f803e3d5ffd5b505b506108566112f7565b5050565b6004602052815f5260405f20602052805f5260405f205f91509150505481565b6007602052805f5260405f205f915090505481565b6008602052815f5260405f20602052805f5260405f205f9150915050805f0154908060010154908060020154905083565b505050565b5f919050565b5f805f90505f5b6003805490508110156109ad5760025f600383815481106108f6576108f56118da565b5b905f5260205f20015f9054906101000a900473ffffffffffffffffffffffffffffffffffffffff1673ffffffffffffffffffffffffffffffffffffffff1673ffffffffffffffffffffffffffffffffffffffff1681526020019081526020015f205f8773ffffffffffffffffffffffffffffffffffffffff1673ffffffffffffffffffffffffffffffffffffffff1681526020019081526020015f20548261099e919061178b565b915080806001019150506108d2565b50509392505050565b6002602052815f5260405f20602052805f5260405f205f91509150505481565b5f8111610a18576040517f08c379a0000000000000000000000000000000000000000000000000000000008152600401610a0f90611977565b60405180910390fd5b8173ffffffffffffffffffffffffffffffffffffffff166323b872dd3330846040518463ffffffff1660e01b8152600401610a5593929190611995565b6020604051808303815f875af1158015610a71573d5f803e3d5ffd5b505050506040513d601f19601f82011682018060405250810190610a9591906119f4565b508060025f8473ffffffffffffffffffffffffffffffffffffffff1673ffffffffffffffffffffffffffffffffffffffff1681526020019081526020015f205f3373ffffffffffffffffffffffffffffffffffffffff1673ffffffffffffffffffffffffffffffffffffffff1681526020019081526020015f205f828254610b1d919061178b565b925050819055503373ffffffffffffffffffffffffffffffffffffffff168273ffffffffffffffffffffffffffffffffffffffff167f1de3ece35391f6bba650736f2d5d3f12e2cfc54538a340cc5d762d34ca449de783604051610b81919061143c565b60405180910390a35050565b610b956112aa565b5f8111610bd7576040517f08c379a0000000000000000000000000000000000000000000000000000000008152600401610bce90611a8f565b60405180910390fd5b610be23383836108cb565b610c21576040517f08c379a0000000000000000000000000000000000000000000000000000000008152600401610c1890611af7565b60405180910390fd5b808273ffffffffffffffffffffffffffffffffffffffff166370a08231306040518263ffffffff1660e01b8152600401610c5b91906115c2565b602060405180830381865afa158015610c76573d5f803e3d5ffd5b505050506040513d601f19601f82011682018060405250810190610c9a9190611b29565b1015610cdb576040517f08c379a0000000000000000000000000000000000000000000000000000000008152600401610cd290611bc4565b60405180910390fd5b8060045f8473ffffffffffffffffffffffffffffffffffffffff1673ffffffffffffffffffffffffffffffffffffffff1681526020019081526020015f205f3373ffffffffffffffffffffffffffffffffffffffff1673ffffffffffffffffffffffffffffffffffffffff1681526020019081526020015f205f828254610d62919061178b565b925050819055508060065f8473ffffffffffffffffffffffffffffffffffffffff1673ffffffffffffffffffffffffffffffffffffffff1681526020019081526020015f205f828254610db5919061178b565b925050819055508060075f3373ffffffffffffffffffffffffffffffffffffffff1673ffffffffffffffffffffffffffffffffffffffff1681526020019081526020015f205f828254610e08919061178b565b92505081905550610e228233610e1d846108c5565b6112a5565b5f4290505f81600154610e35919061178b565b905060405180606001604052808481526020018281526020014281525060085f3373ffffffffffffffffffffffffffffffffffffffff1673ffffffffffffffffffffffffffffffffffffffff1681526020019081526020015f205f8673ffffffffffffffffffffffffffffffffffffffff1673ffffffffffffffffffffffffffffffffffffffff1681526020019081526020015f205f820151815f015560208201518160010155604082015181600201559050508373ffffffffffffffffffffffffffffffffffffffff163373ffffffffffffffffffffffffffffffffffffffff167fc1cba78646fef030830d099fc25cb498953709c9d47d883848f81fd207174c9f858442604051610f4a93929190611480565b60405180910390a35050610f5c6112f7565b5050565b5f8060085f8473ffffffffffffffffffffffffffffffffffffffff1673ffffffffffffffffffffffffffffffffffffffff1681526020019081526020015f205f8573ffffffffffffffffffffffffffffffffffffffff1673ffffffffffffffffffffffffffffffffffffffff1681526020019081526020015f206040518060600160405290815f82015481526020016001820154815260200160028201548152505090505f8160400151426110159190611758565b90505f818360200151845f015161102c9190611be2565b6110369190611be2565b905080935050505092915050565b5f60025f8373ffffffffffffffffffffffffffffffffffffffff1673ffffffffffffffffffffffffffffffffffffffff1681526020019081526020015f205f8473ffffffffffffffffffffffffffffffffffffffff1673ffffffffffffffffffffffffffffffffffffffff1681526020019081526020015f2054905092915050565b5f9392505050565b60015481565b600381815481106110e3575f80fd5b905f5260205f20015f915054906101000a900473ffffffffffffffffffffffffffffffffffffffff1681565b6005602052815f5260405f20602052805f5260405f205f91509150505481565b5f80611139611300565b836111449190611c50565b8461114f919061178b565b90505f805b60038054905081101561122f5760025f60038381548110611178576111776118da565b5b905f5260205f20015f9054906101000a900473ffffffffffffffffffffffffffffffffffffffff1673ffffffffffffffffffffffffffffffffffffffff1673ffffffffffffffffffffffffffffffffffffffff1681526020019081526020015f205f3373ffffffffffffffffffffffffffffffffffffffff1673ffffffffffffffffffffffffffffffffffffffff1681526020019081526020015f205482611220919061178b565b91508080600101915050611154565b505f848661123d919061178b565b90508282111561125f5761125c8184846112579190611758565b611308565b90505b80935050505092915050565b60095f9054906101000a900473ffffffffffffffffffffffffffffffffffffffff1681565b6006602052805f5260405f205f915090505481565b505050565b60025f54036112ee576040517f08c379a00000000000000000000000000000000000000000000000000000000081526004016112e590611cca565b60405180910390fd5b60025f81905550565b60015f81905550565b5f6002905090565b5f8183106113165781611318565b825b905092915050565b5f80fd5b5f73ffffffffffffffffffffffffffffffffffffffff82169050919050565b5f61134d82611324565b9050919050565b61135d81611343565b8114611367575f80fd5b50565b5f8135905061137881611354565b92915050565b5f819050919050565b6113908161137e565b811461139a575f80fd5b50565b5f813590506113ab81611387565b92915050565b5f80604083850312156113c7576113c6611320565b5b5f6113d48582860161136a565b92505060206113e58582860161139d565b9150509250929050565b5f806040838503121561140557611404611320565b5b5f6114128582860161136a565b92505060206114238582860161136a565b9150509250929050565b6114368161137e565b82525050565b5f60208201905061144f5f83018461142d565b92915050565b5f6020828403121561146a57611469611320565b5b5f6114778482850161136a565b91505092915050565b5f6060820190506114935f83018661142d565b6114a0602083018561142d565b6114ad604083018461142d565b949350505050565b5f805f606084860312156114cc576114cb611320565b5b5f6114d98682870161136a565b93505060206114ea8682870161136a565b92505060406114fb8682870161139d565b9150509250925092565b5f6020828403121561151a57611519611320565b5b5f6115278482850161139d565b91505092915050565b5f8115159050919050565b61154481611530565b82525050565b5f60208201905061155d5f83018461153b565b92915050565b5f805f6060848603121561157a57611579611320565b5b5f6115878682870161136a565b93505060206115988682870161139d565b92505060406115a98682870161139d565b9150509250925092565b6115bc81611343565b82525050565b5f6020820190506115d55f8301846115b3565b92915050565b5f80604083850312156115f1576115f0611320565b5b5f6115fe8582860161139d565b925050602061160f8582860161139d565b9150509250929050565b5f819050919050565b5f61163c61163761163284611324565b611619565b611324565b9050919050565b5f61164d82611622565b9050919050565b5f61165e82611643565b9050919050565b61166e81611654565b82525050565b5f6020820190506116875f830184611665565b92915050565b5f82825260208201905092915050565b7f52657061796d656e7420616d6f756e74206d75737420626520677265617465725f8201527f207468616e207a65726f00000000000000000000000000000000000000000000602082015250565b5f6116f7602a8361168d565b91506117028261169d565b604082019050919050565b5f6020820190508181035f830152611724816116eb565b9050919050565b7f4e487b71000000000000000000000000000000000000000000000000000000005f52601160045260245ffd5b5f6117628261137e565b915061176d8361137e565b92508282039050818111156117855761178461172b565b5b92915050565b5f6117958261137e565b91506117a08361137e565b92508282019050808211156117b8576117b761172b565b5b92915050565b7f52657061796d656e7420616d6f756e74206578636565647320626f72726f77205f8201527f616d6f756e740000000000000000000000000000000000000000000000000000602082015250565b5f61181860268361168d565b9150611823826117be565b604082019050919050565b5f6020820190508181035f8301526118458161180c565b9050919050565b7f496e73756666696369656e742066756e647320666f722072657061796d656e745f8201527f20616e64206163637275656420696e7465726573740000000000000000000000602082015250565b5f6118a660358361168d565b91506118b18261184c565b604082019050919050565b5f6020820190508181035f8301526118d38161189a565b9050919050565b7f4e487b71000000000000000000000000000000000000000000000000000000005f52603260045260245ffd5b7f4465706f73697420616d6f756e74206d757374206265206772656174657220745f8201527f68616e207a65726f000000000000000000000000000000000000000000000000602082015250565b5f61196160288361168d565b915061196c82611907565b604082019050919050565b5f6020820190508181035f83015261198e81611955565b9050919050565b5f6060820190506119a85f8301866115b3565b6119b560208301856115b3565b6119c2604083018461142d565b949350505050565b6119d381611530565b81146119dd575f80fd5b50565b5f815190506119ee816119ca565b92915050565b5f60208284031215611a0957611a08611320565b5b5f611a16848285016119e0565b91505092915050565b7f426f72726f7720616d6f756e74206d75737420626520677265617465722074685f8201527f616e207a65726f00000000000000000000000000000000000000000000000000602082015250565b5f611a7960278361168d565b9150611a8482611a1f565b604082019050919050565b5f6020820190508181035f830152611aa681611a6d565b9050919050565b7f496e73756666696369656e7420636f6c6c61746572616c0000000000000000005f82015250565b5f611ae160178361168d565b9150611aec82611aad565b602082019050919050565b5f6020820190508181035f830152611b0e81611ad5565b9050919050565b5f81519050611b2381611387565b92915050565b5f60208284031215611b3e57611b3d611320565b5b5f611b4b84828501611b15565b91505092915050565b7f496e73756666696369656e74206c697175696469747920666f7220626f72726f5f8201527f77696e6700000000000000000000000000000000000000000000000000000000602082015250565b5f611bae60248361168d565b9150611bb982611b54565b604082019050919050565b5f6020820190508181035f830152611bdb81611ba2565b9050919050565b5f611bec8261137e565b9150611bf78361137e565b9250828202611c058161137e565b91508282048414831517611c1c57611c1b61172b565b5b5092915050565b7f4e487b71000000000000000000000000000000000000000000000000000000005f52601260045260245ffd5b5f611c5a8261137e565b9150611c658361137e565b925082611c7557611c74611c23565b5b828204905092915050565b7f5265656e7472616e637947756172643a207265656e7472616e742063616c6c005f82015250565b5f611cb4601f8361168d565b9150611cbf82611c80565b602082019050919050565b5f6020820190508181035f830152611ce181611ca8565b905091905056fea26469706673582212200eae93d4a53abc162e979c1bd740f3817d5169a8257faff84817a4db1055efc364736f6c63430008180033",
					"opcodes": "PUSH1 0x80 PUSH1 0x40 MSTORE PUSH1 0xA PUSH1 0x1 SSTORE CALLVALUE DUP1 ISZERO PUSH3 0x15 JUMPI PUSH0 DUP1 REVERT JUMPDEST POP PUSH1 0x40 MLOAD PUSH3 0x1E5D CODESIZE SUB DUP1 PUSH3 0x1E5D DUP4 CODECOPY DUP2 DUP2 ADD PUSH1 0x40 MSTORE DUP2 ADD SWAP1 PUSH3 0x3B SWAP2 SWAP1 PUSH3 0x101 JUMP JUMPDEST PUSH1 0x1 PUSH0 DUP2 SWAP1 SSTORE POP DUP1 PUSH1 0x9 PUSH0 PUSH2 0x100 EXP DUP2 SLOAD DUP2 PUSH20 0xFFFFFFFFFFFFFFFFFFFFFFFFFFFFFFFFFFFFFFFF MUL NOT AND SWAP1 DUP4 PUSH20 0xFFFFFFFFFFFFFFFFFFFFFFFFFFFFFFFFFFFFFFFF AND MUL OR SWAP1 SSTORE POP POP PUSH3 0x131 JUMP JUMPDEST PUSH0 DUP1 REVERT JUMPDEST PUSH0 PUSH20 0xFFFFFFFFFFFFFFFFFFFFFFFFFFFFFFFFFFFFFFFF DUP3 AND SWAP1 POP SWAP2 SWAP1 POP JUMP JUMPDEST PUSH0 PUSH3 0xB8 DUP3 PUSH3 0x8D JUMP JUMPDEST SWAP1 POP SWAP2 SWAP1 POP JUMP JUMPDEST PUSH0 PUSH3 0xCB DUP3 PUSH3 0xAC JUMP JUMPDEST SWAP1 POP SWAP2 SWAP1 POP JUMP JUMPDEST PUSH3 0xDD DUP2 PUSH3 0xBF JUMP JUMPDEST DUP2 EQ PUSH3 0xE8 JUMPI PUSH0 DUP1 REVERT JUMPDEST POP JUMP JUMPDEST PUSH0 DUP2 MLOAD SWAP1 POP PUSH3 0xFB DUP2 PUSH3 0xD2 JUMP JUMPDEST SWAP3 SWAP2 POP POP JUMP JUMPDEST PUSH0 PUSH1 0x20 DUP3 DUP5 SUB SLT ISZERO PUSH3 0x119 JUMPI PUSH3 0x118 PUSH3 0x89 JUMP JUMPDEST JUMPDEST PUSH0 PUSH3 0x128 DUP5 DUP3 DUP6 ADD PUSH3 0xEB JUMP JUMPDEST SWAP2 POP POP SWAP3 SWAP2 POP POP JUMP JUMPDEST PUSH2 0x1D1E DUP1 PUSH3 0x13F PUSH0 CODECOPY PUSH0 RETURN INVALID PUSH1 0x80 PUSH1 0x40 MSTORE PUSH1 0x4 CALLDATASIZE LT PUSH2 0x11E JUMPI PUSH0 CALLDATALOAD PUSH1 0xE0 SHR DUP1 PUSH4 0x664FA64E GT PUSH2 0x9F JUMPI DUP1 PUSH4 0xCC218ECE GT PUSH2 0x63 JUMPI DUP1 PUSH4 0xCC218ECE EQ PUSH2 0x43A JUMPI DUP1 PUSH4 0xD526FC2E EQ PUSH2 0x476 JUMPI DUP1 PUSH4 0xE2FDCC17 EQ PUSH2 0x4B2 JUMPI DUP1 PUSH4 0xE80894B6 EQ PUSH2 0x4DC JUMPI DUP1 PUSH4 0xF970C3B7 EQ PUSH2 0x518 JUMPI PUSH2 0x11E JUMP JUMPDEST DUP1 PUSH4 0x664FA64E EQ PUSH2 0x320 JUMPI DUP1 PUSH4 0x6805D6AD EQ PUSH2 0x35C JUMPI DUP1 PUSH4 0x9EE7F702 EQ PUSH2 0x398 JUMPI DUP1 PUSH4 0xAFD92762 EQ PUSH2 0x3D4 JUMPI DUP1 PUSH4 0xC6255626 EQ PUSH2 0x3FE JUMPI PUSH2 0x11E JUMP JUMPDEST DUP1 PUSH4 0x34931B4B GT PUSH2 0xE6 JUMPI DUP1 PUSH4 0x34931B4B EQ PUSH2 0x21C JUMPI DUP1 PUSH4 0x3B591D6A EQ PUSH2 0x258 JUMPI DUP1 PUSH4 0x436D8039 EQ PUSH2 0x294 JUMPI DUP1 PUSH4 0x47E7EF24 EQ PUSH2 0x2D0 JUMPI DUP1 PUSH4 0x4B8A3529 EQ PUSH2 0x2F8 JUMPI PUSH2 0x11E JUMP JUMPDEST DUP1 PUSH4 0x22867D78 EQ PUSH2 0x122 JUMPI DUP1 PUSH4 0x234A14F9 EQ PUSH2 0x13E JUMPI DUP1 PUSH4 0x23D0FDA1 EQ PUSH2 0x17A JUMPI DUP1 PUSH4 0x272D1B8E EQ PUSH2 0x1B6 JUMPI DUP1 PUSH4 0x2AE8BDFE EQ PUSH2 0x1F4 JUMPI JUMPDEST PUSH0 DUP1 REVERT JUMPDEST PUSH2 0x13C PUSH1 0x4 DUP1 CALLDATASIZE SUB DUP2 ADD SWAP1 PUSH2 0x137 SWAP2 SWAP1 PUSH2 0x13B1 JUMP JUMPDEST PUSH2 0x540 JUMP JUMPDEST STOP JUMPDEST CALLVALUE DUP1 ISZERO PUSH2 0x149 JUMPI PUSH0 DUP1 REVERT JUMPDEST POP PUSH2 0x164 PUSH1 0x4 DUP1 CALLDATASIZE SUB DUP2 ADD SWAP1 PUSH2 0x15F SWAP2 SWAP1 PUSH2 0x13EF JUMP JUMPDEST PUSH2 0x85A JUMP JUMPDEST PUSH1 0x40 MLOAD PUSH2 0x171 SWAP2 SWAP1 PUSH2 0x143C JUMP JUMPDEST PUSH1 0x40 MLOAD DUP1 SWAP2 SUB SWAP1 RETURN JUMPDEST CALLVALUE DUP1 ISZERO PUSH2 0x185 JUMPI PUSH0 DUP1 REVERT JUMPDEST POP PUSH2 0x1A0 PUSH1 0x4 DUP1 CALLDATASIZE SUB DUP2 ADD SWAP1 PUSH2 0x19B SWAP2 SWAP1 PUSH2 0x1455 JUMP JUMPDEST PUSH2 0x87A JUMP JUMPDEST PUSH1 0x40 MLOAD PUSH2 0x1AD SWAP2 SWAP1 PUSH2 0x143C JUMP JUMPDEST PUSH1 0x40 MLOAD DUP1 SWAP2 SUB SWAP1 RETURN JUMPDEST CALLVALUE DUP1 ISZERO PUSH2 0x1C1 JUMPI PUSH0 DUP1 REVERT JUMPDEST POP PUSH2 0x1DC PUSH1 0x4 DUP1 CALLDATASIZE SUB DUP2 ADD SWAP1 PUSH2 0x1D7 SWAP2 SWAP1 PUSH2 0x13EF JUMP JUMPDEST PUSH2 0x88F JUMP JUMPDEST PUSH1 0x40 MLOAD PUSH2 0x1EB SWAP4 SWAP3 SWAP2 SWAP1 PUSH2 0x1480 JUMP JUMPDEST PUSH1 0x40 MLOAD DUP1 SWAP2 SUB SWAP1 RETURN JUMPDEST CALLVALUE DUP1 ISZERO PUSH2 0x1FF JUMPI PUSH0 DUP1 REVERT JUMPDEST POP PUSH2 0x21A PUSH1 0x4 DUP1 CALLDATASIZE SUB DUP2 ADD SWAP1 PUSH2 0x215 SWAP2 SWAP1 PUSH2 0x14B5 JUMP JUMPDEST PUSH2 0x8C0 JUMP JUMPDEST STOP JUMPDEST CALLVALUE DUP1 ISZERO PUSH2 0x227 JUMPI PUSH0 DUP1 REVERT JUMPDEST POP PUSH2 0x242 PUSH1 0x4 DUP1 CALLDATASIZE SUB DUP2 ADD SWAP1 PUSH2 0x23D SWAP2 SWAP1 PUSH2 0x1505 JUMP JUMPDEST PUSH2 0x8C5 JUMP JUMPDEST PUSH1 0x40 MLOAD PUSH2 0x24F SWAP2 SWAP1 PUSH2 0x143C JUMP JUMPDEST PUSH1 0x40 MLOAD DUP1 SWAP2 SUB SWAP1 RETURN JUMPDEST CALLVALUE DUP1 ISZERO PUSH2 0x263 JUMPI PUSH0 DUP1 REVERT JUMPDEST POP PUSH2 0x27E PUSH1 0x4 DUP1 CALLDATASIZE SUB DUP2 ADD SWAP1 PUSH2 0x279 SWAP2 SWAP1 PUSH2 0x14B5 JUMP JUMPDEST PUSH2 0x8CB JUMP JUMPDEST PUSH1 0x40 MLOAD PUSH2 0x28B SWAP2 SWAP1 PUSH2 0x154A JUMP JUMPDEST PUSH1 0x40 MLOAD DUP1 SWAP2 SUB SWAP1 RETURN JUMPDEST CALLVALUE DUP1 ISZERO PUSH2 0x29F JUMPI PUSH0 DUP1 REVERT JUMPDEST POP PUSH2 0x2BA PUSH1 0x4 DUP1 CALLDATASIZE SUB DUP2 ADD SWAP1 PUSH2 0x2B5 SWAP2 SWAP1 PUSH2 0x13EF JUMP JUMPDEST PUSH2 0x9B6 JUMP JUMPDEST PUSH1 0x40 MLOAD PUSH2 0x2C7 SWAP2 SWAP1 PUSH2 0x143C JUMP JUMPDEST PUSH1 0x40 MLOAD DUP1 SWAP2 SUB SWAP1 RETURN JUMPDEST CALLVALUE DUP1 ISZERO PUSH2 0x2DB JUMPI PUSH0 DUP1 REVERT JUMPDEST POP PUSH2 0x2F6 PUSH1 0x4 DUP1 CALLDATASIZE SUB DUP2 ADD SWAP1 PUSH2 0x2F1 SWAP2 SWAP1 PUSH2 0x13B1 JUMP JUMPDEST PUSH2 0x9D6 JUMP JUMPDEST STOP JUMPDEST CALLVALUE DUP1 ISZERO PUSH2 0x303 JUMPI PUSH0 DUP1 REVERT JUMPDEST POP PUSH2 0x31E PUSH1 0x4 DUP1 CALLDATASIZE SUB DUP2 ADD SWAP1 PUSH2 0x319 SWAP2 SWAP1 PUSH2 0x13B1 JUMP JUMPDEST PUSH2 0xB8D JUMP JUMPDEST STOP JUMPDEST CALLVALUE DUP1 ISZERO PUSH2 0x32B JUMPI PUSH0 DUP1 REVERT JUMPDEST POP PUSH2 0x346 PUSH1 0x4 DUP1 CALLDATASIZE SUB DUP2 ADD SWAP1 PUSH2 0x341 SWAP2 SWAP1 PUSH2 0x13EF JUMP JUMPDEST PUSH2 0xF60 JUMP JUMPDEST PUSH1 0x40 MLOAD PUSH2 0x353 SWAP2 SWAP1 PUSH2 0x143C JUMP JUMPDEST PUSH1 0x40 MLOAD DUP1 SWAP2 SUB SWAP1 RETURN JUMPDEST CALLVALUE DUP1 ISZERO PUSH2 0x367 JUMPI PUSH0 DUP1 REVERT JUMPDEST POP PUSH2 0x382 PUSH1 0x4 DUP1 CALLDATASIZE SUB DUP2 ADD SWAP1 PUSH2 0x37D SWAP2 SWAP1 PUSH2 0x13EF JUMP JUMPDEST PUSH2 0x1044 JUMP JUMPDEST PUSH1 0x40 MLOAD PUSH2 0x38F SWAP2 SWAP1 PUSH2 0x143C JUMP JUMPDEST PUSH1 0x40 MLOAD DUP1 SWAP2 SUB SWAP1 RETURN JUMPDEST CALLVALUE DUP1 ISZERO PUSH2 0x3A3 JUMPI PUSH0 DUP1 REVERT JUMPDEST POP PUSH2 0x3BE PUSH1 0x4 DUP1 CALLDATASIZE SUB DUP2 ADD SWAP1 PUSH2 0x3B9 SWAP2 SWAP1 PUSH2 0x1563 JUMP JUMPDEST PUSH2 0x10C6 JUMP JUMPDEST PUSH1 0x40 MLOAD PUSH2 0x3CB SWAP2 SWAP1 PUSH2 0x143C JUMP JUMPDEST PUSH1 0x40 MLOAD DUP1 SWAP2 SUB SWAP1 RETURN JUMPDEST CALLVALUE DUP1 ISZERO PUSH2 0x3DF JUMPI PUSH0 DUP1 REVERT JUMPDEST POP PUSH2 0x3E8 PUSH2 0x10CE JUMP JUMPDEST PUSH1 0x40 MLOAD PUSH2 0x3F5 SWAP2 SWAP1 PUSH2 0x143C JUMP JUMPDEST PUSH1 0x40 MLOAD DUP1 SWAP2 SUB SWAP1 RETURN JUMPDEST CALLVALUE DUP1 ISZERO PUSH2 0x409 JUMPI PUSH0 DUP1 REVERT JUMPDEST POP PUSH2 0x424 PUSH1 0x4 DUP1 CALLDATASIZE SUB DUP2 ADD SWAP1 PUSH2 0x41F SWAP2 SWAP1 PUSH2 0x1505 JUMP JUMPDEST PUSH2 0x10D4 JUMP JUMPDEST PUSH1 0x40 MLOAD PUSH2 0x431 SWAP2 SWAP1 PUSH2 0x15C2 JUMP JUMPDEST PUSH1 0x40 MLOAD DUP1 SWAP2 SUB SWAP1 RETURN JUMPDEST CALLVALUE DUP1 ISZERO PUSH2 0x445 JUMPI PUSH0 DUP1 REVERT JUMPDEST POP PUSH2 0x460 PUSH1 0x4 DUP1 CALLDATASIZE SUB DUP2 ADD SWAP1 PUSH2 0x45B SWAP2 SWAP1 PUSH2 0x13EF JUMP JUMPDEST PUSH2 0x110F JUMP JUMPDEST PUSH1 0x40 MLOAD PUSH2 0x46D SWAP2 SWAP1 PUSH2 0x143C JUMP JUMPDEST PUSH1 0x40 MLOAD DUP1 SWAP2 SUB SWAP1 RETURN JUMPDEST CALLVALUE DUP1 ISZERO PUSH2 0x481 JUMPI PUSH0 DUP1 REVERT JUMPDEST POP PUSH2 0x49C PUSH1 0x4 DUP1 CALLDATASIZE SUB DUP2 ADD SWAP1 PUSH2 0x497 SWAP2 SWAP1 PUSH2 0x15DB JUMP JUMPDEST PUSH2 0x112F JUMP JUMPDEST PUSH1 0x40 MLOAD PUSH2 0x4A9 SWAP2 SWAP1 PUSH2 0x143C JUMP JUMPDEST PUSH1 0x40 MLOAD DUP1 SWAP2 SUB SWAP1 RETURN JUMPDEST CALLVALUE DUP1 ISZERO PUSH2 0x4BD JUMPI PUSH0 DUP1 REVERT JUMPDEST POP PUSH2 0x4C6 PUSH2 0x126B JUMP JUMPDEST PUSH1 0x40 MLOAD PUSH2 0x4D3 SWAP2 SWAP1 PUSH2 0x1674 JUMP JUMPDEST PUSH1 0x40 MLOAD DUP1 SWAP2 SUB SWAP1 RETURN JUMPDEST CALLVALUE DUP1 ISZERO PUSH2 0x4E7 JUMPI PUSH0 DUP1 REVERT JUMPDEST POP PUSH2 0x502 PUSH1 0x4 DUP1 CALLDATASIZE SUB DUP2 ADD SWAP1 PUSH2 0x4FD SWAP2 SWAP1 PUSH2 0x1455 JUMP JUMPDEST PUSH2 0x1290 JUMP JUMPDEST PUSH1 0x40 MLOAD PUSH2 0x50F SWAP2 SWAP1 PUSH2 0x143C JUMP JUMPDEST PUSH1 0x40 MLOAD DUP1 SWAP2 SUB SWAP1 RETURN JUMPDEST CALLVALUE DUP1 ISZERO PUSH2 0x523 JUMPI PUSH0 DUP1 REVERT JUMPDEST POP PUSH2 0x53E PUSH1 0x4 DUP1 CALLDATASIZE SUB DUP2 ADD SWAP1 PUSH2 0x539 SWAP2 SWAP1 PUSH2 0x14B5 JUMP JUMPDEST PUSH2 0x12A5 JUMP JUMPDEST STOP JUMPDEST PUSH2 0x548 PUSH2 0x12AA JUMP JUMPDEST PUSH0 DUP2 GT PUSH2 0x58A JUMPI PUSH1 0x40 MLOAD PUSH32 0x8C379A000000000000000000000000000000000000000000000000000000000 DUP2 MSTORE PUSH1 0x4 ADD PUSH2 0x581 SWAP1 PUSH2 0x170D JUMP JUMPDEST PUSH1 0x40 MLOAD DUP1 SWAP2 SUB SWAP1 REVERT JUMPDEST DUP1 PUSH1 0x4 PUSH0 DUP5 PUSH20 0xFFFFFFFFFFFFFFFFFFFFFFFFFFFFFFFFFFFFFFFF AND PUSH20 0xFFFFFFFFFFFFFFFFFFFFFFFFFFFFFFFFFFFFFFFF AND DUP2 MSTORE PUSH1 0x20 ADD SWAP1 DUP2 MSTORE PUSH1 0x20 ADD PUSH0 KECCAK256 PUSH0 CALLER PUSH20 0xFFFFFFFFFFFFFFFFFFFFFFFFFFFFFFFFFFFFFFFF AND PUSH20 0xFFFFFFFFFFFFFFFFFFFFFFFFFFFFFFFFFFFFFFFF AND DUP2 MSTORE PUSH1 0x20 ADD SWAP1 DUP2 MSTORE PUSH1 0x20 ADD PUSH0 KECCAK256 PUSH0 DUP3 DUP3 SLOAD PUSH2 0x611 SWAP2 SWAP1 PUSH2 0x1758 JUMP JUMPDEST SWAP3 POP POP DUP2 SWAP1 SSTORE POP DUP1 PUSH1 0x6 PUSH0 DUP5 PUSH20 0xFFFFFFFFFFFFFFFFFFFFFFFFFFFFFFFFFFFFFFFF AND PUSH20 0xFFFFFFFFFFFFFFFFFFFFFFFFFFFFFFFFFFFFFFFF AND DUP2 MSTORE PUSH1 0x20 ADD SWAP1 DUP2 MSTORE PUSH1 0x20 ADD PUSH0 KECCAK256 PUSH0 DUP3 DUP3 SLOAD PUSH2 0x664 SWAP2 SWAP1 PUSH2 0x1758 JUMP JUMPDEST SWAP3 POP POP DUP2 SWAP1 SSTORE POP DUP1 PUSH1 0x7 PUSH0 CALLER PUSH20 0xFFFFFFFFFFFFFFFFFFFFFFFFFFFFFFFFFFFFFFFF AND PUSH20 0xFFFFFFFFFFFFFFFFFFFFFFFFFFFFFFFFFFFFFFFF AND DUP2 MSTORE PUSH1 0x20 ADD SWAP1 DUP2 MSTORE PUSH1 0x20 ADD PUSH0 KECCAK256 PUSH0 DUP3 DUP3 SLOAD PUSH2 0x6B7 SWAP2 SWAP1 PUSH2 0x1758 JUMP JUMPDEST SWAP3 POP POP DUP2 SWAP1 SSTORE POP PUSH0 PUSH2 0x6C9 DUP4 CALLER PUSH2 0xF60 JUMP JUMPDEST SWAP1 POP DUP1 DUP3 PUSH2 0x6D7 SWAP2 SWAP1 PUSH2 0x178B JUMP JUMPDEST PUSH1 0x4 PUSH0 DUP6 PUSH20 0xFFFFFFFFFFFFFFFFFFFFFFFFFFFFFFFFFFFFFFFF AND PUSH20 0xFFFFFFFFFFFFFFFFFFFFFFFFFFFFFFFFFFFFFFFF AND DUP2 MSTORE PUSH1 0x20 ADD SWAP1 DUP2 MSTORE PUSH1 0x20 ADD PUSH0 KECCAK256 PUSH0 CALLER PUSH20 0xFFFFFFFFFFFFFFFFFFFFFFFFFFFFFFFFFFFFFFFF AND PUSH20 0xFFFFFFFFFFFFFFFFFFFFFFFFFFFFFFFFFFFFFFFF AND DUP2 MSTORE PUSH1 0x20 ADD SWAP1 DUP2 MSTORE PUSH1 0x20 ADD PUSH0 KECCAK256 SLOAD LT ISZERO PUSH2 0x791 JUMPI PUSH1 0x40 MLOAD PUSH32 0x8C379A000000000000000000000000000000000000000000000000000000000 DUP2 MSTORE PUSH1 0x4 ADD PUSH2 0x788 SWAP1 PUSH2 0x182E JUMP JUMPDEST PUSH1 0x40 MLOAD DUP1 SWAP2 SUB SWAP1 REVERT JUMPDEST CALLVALUE DUP2 DUP4 PUSH2 0x79E SWAP2 SWAP1 PUSH2 0x178B JUMP JUMPDEST LT ISZERO PUSH2 0x7DF JUMPI PUSH1 0x40 MLOAD PUSH32 0x8C379A000000000000000000000000000000000000000000000000000000000 DUP2 MSTORE PUSH1 0x4 ADD PUSH2 0x7D6 SWAP1 PUSH2 0x18BC JUMP JUMPDEST PUSH1 0x40 MLOAD DUP1 SWAP2 SUB SWAP1 REVERT JUMPDEST CALLVALUE DUP2 DUP4 PUSH2 0x7EC SWAP2 SWAP1 PUSH2 0x178B JUMP JUMPDEST GT ISZERO PUSH2 0x84D JUMPI CALLER PUSH20 0xFFFFFFFFFFFFFFFFFFFFFFFFFFFFFFFFFFFFFFFF AND PUSH2 0x8FC CALLVALUE DUP4 DUP6 PUSH2 0x819 SWAP2 SWAP1 PUSH2 0x178B JUMP JUMPDEST PUSH2 0x823 SWAP2 SWAP1 PUSH2 0x1758 JUMP JUMPDEST SWAP1 DUP2 ISZERO MUL SWAP1 PUSH1 0x40 MLOAD PUSH0 PUSH1 0x40 MLOAD DUP1 DUP4 SUB DUP2 DUP6 DUP9 DUP9 CALL SWAP4 POP POP POP POP ISZERO DUP1 ISZERO PUSH2 0x84B JUMPI RETURNDATASIZE PUSH0 DUP1 RETURNDATACOPY RETURNDATASIZE PUSH0 REVERT JUMPDEST POP JUMPDEST POP PUSH2 0x856 PUSH2 0x12F7 JUMP JUMPDEST POP POP JUMP JUMPDEST PUSH1 0x4 PUSH1 0x20 MSTORE DUP2 PUSH0 MSTORE PUSH1 0x40 PUSH0 KECCAK256 PUSH1 0x20 MSTORE DUP1 PUSH0 MSTORE PUSH1 0x40 PUSH0 KECCAK256 PUSH0 SWAP2 POP SWAP2 POP POP SLOAD DUP2 JUMP JUMPDEST PUSH1 0x7 PUSH1 0x20 MSTORE DUP1 PUSH0 MSTORE PUSH1 0x40 PUSH0 KECCAK256 PUSH0 SWAP2 POP SWAP1 POP SLOAD DUP2 JUMP JUMPDEST PUSH1 0x8 PUSH1 0x20 MSTORE DUP2 PUSH0 MSTORE PUSH1 0x40 PUSH0 KECCAK256 PUSH1 0x20 MSTORE DUP1 PUSH0 MSTORE PUSH1 0x40 PUSH0 KECCAK256 PUSH0 SWAP2 POP SWAP2 POP POP DUP1 PUSH0 ADD SLOAD SWAP1 DUP1 PUSH1 0x1 ADD SLOAD SWAP1 DUP1 PUSH1 0x2 ADD SLOAD SWAP1 POP DUP4 JUMP JUMPDEST POP POP POP JUMP JUMPDEST PUSH0 SWAP2 SWAP1 POP JUMP JUMPDEST PUSH0 DUP1 PUSH0 SWAP1 POP PUSH0 JUMPDEST PUSH1 0x3 DUP1 SLOAD SWAP1 POP DUP2 LT ISZERO PUSH2 0x9AD JUMPI PUSH1 0x2 PUSH0 PUSH1 0x3 DUP4 DUP2 SLOAD DUP2 LT PUSH2 0x8F6 JUMPI PUSH2 0x8F5 PUSH2 0x18DA JUMP JUMPDEST JUMPDEST SWAP1 PUSH0 MSTORE PUSH1 0x20 PUSH0 KECCAK256 ADD PUSH0 SWAP1 SLOAD SWAP1 PUSH2 0x100 EXP SWAP1 DIV PUSH20 0xFFFFFFFFFFFFFFFFFFFFFFFFFFFFFFFFFFFFFFFF AND PUSH20 0xFFFFFFFFFFFFFFFFFFFFFFFFFFFFFFFFFFFFFFFF AND PUSH20 0xFFFFFFFFFFFFFFFFFFFFFFFFFFFFFFFFFFFFFFFF AND DUP2 MSTORE PUSH1 0x20 ADD SWAP1 DUP2 MSTORE PUSH1 0x20 ADD PUSH0 KECCAK256 PUSH0 DUP8 PUSH20 0xFFFFFFFFFFFFFFFFFFFFFFFFFFFFFFFFFFFFFFFF AND PUSH20 0xFFFFFFFFFFFFFFFFFFFFFFFFFFFFFFFFFFFFFFFF AND DUP2 MSTORE PUSH1 0x20 ADD SWAP1 DUP2 MSTORE PUSH1 0x20 ADD PUSH0 KECCAK256 SLOAD DUP3 PUSH2 0x99E SWAP2 SWAP1 PUSH2 0x178B JUMP JUMPDEST SWAP2 POP DUP1 DUP1 PUSH1 0x1 ADD SWAP2 POP POP PUSH2 0x8D2 JUMP JUMPDEST POP POP SWAP4 SWAP3 POP POP POP JUMP JUMPDEST PUSH1 0x2 PUSH1 0x20 MSTORE DUP2 PUSH0 MSTORE PUSH1 0x40 PUSH0 KECCAK256 PUSH1 0x20 MSTORE DUP1 PUSH0 MSTORE PUSH1 0x40 PUSH0 KECCAK256 PUSH0 SWAP2 POP SWAP2 POP POP SLOAD DUP2 JUMP JUMPDEST PUSH0 DUP2 GT PUSH2 0xA18 JUMPI PUSH1 0x40 MLOAD PUSH32 0x8C379A000000000000000000000000000000000000000000000000000000000 DUP2 MSTORE PUSH1 0x4 ADD PUSH2 0xA0F SWAP1 PUSH2 0x1977 JUMP JUMPDEST PUSH1 0x40 MLOAD DUP1 SWAP2 SUB SWAP1 REVERT JUMPDEST DUP2 PUSH20 0xFFFFFFFFFFFFFFFFFFFFFFFFFFFFFFFFFFFFFFFF AND PUSH4 0x23B872DD CALLER ADDRESS DUP5 PUSH1 0x40 MLOAD DUP5 PUSH4 0xFFFFFFFF AND PUSH1 0xE0 SHL DUP2 MSTORE PUSH1 0x4 ADD PUSH2 0xA55 SWAP4 SWAP3 SWAP2 SWAP1 PUSH2 0x1995 JUMP JUMPDEST PUSH1 0x20 PUSH1 0x40 MLOAD DUP1 DUP4 SUB DUP2 PUSH0 DUP8 GAS CALL ISZERO DUP1 ISZERO PUSH2 0xA71 JUMPI RETURNDATASIZE PUSH0 DUP1 RETURNDATACOPY RETURNDATASIZE PUSH0 REVERT JUMPDEST POP POP POP POP PUSH1 0x40 MLOAD RETURNDATASIZE PUSH1 0x1F NOT PUSH1 0x1F DUP3 ADD AND DUP3 ADD DUP1 PUSH1 0x40 MSTORE POP DUP2 ADD SWAP1 PUSH2 0xA95 SWAP2 SWAP1 PUSH2 0x19F4 JUMP JUMPDEST POP DUP1 PUSH1 0x2 PUSH0 DUP5 PUSH20 0xFFFFFFFFFFFFFFFFFFFFFFFFFFFFFFFFFFFFFFFF AND PUSH20 0xFFFFFFFFFFFFFFFFFFFFFFFFFFFFFFFFFFFFFFFF AND DUP2 MSTORE PUSH1 0x20 ADD SWAP1 DUP2 MSTORE PUSH1 0x20 ADD PUSH0 KECCAK256 PUSH0 CALLER PUSH20 0xFFFFFFFFFFFFFFFFFFFFFFFFFFFFFFFFFFFFFFFF AND PUSH20 0xFFFFFFFFFFFFFFFFFFFFFFFFFFFFFFFFFFFFFFFF AND DUP2 MSTORE PUSH1 0x20 ADD SWAP1 DUP2 MSTORE PUSH1 0x20 ADD PUSH0 KECCAK256 PUSH0 DUP3 DUP3 SLOAD PUSH2 0xB1D SWAP2 SWAP1 PUSH2 0x178B JUMP JUMPDEST SWAP3 POP POP DUP2 SWAP1 SSTORE POP CALLER PUSH20 0xFFFFFFFFFFFFFFFFFFFFFFFFFFFFFFFFFFFFFFFF AND DUP3 PUSH20 0xFFFFFFFFFFFFFFFFFFFFFFFFFFFFFFFFFFFFFFFF AND PUSH32 0x1DE3ECE35391F6BBA650736F2D5D3F12E2CFC54538A340CC5D762D34CA449DE7 DUP4 PUSH1 0x40 MLOAD PUSH2 0xB81 SWAP2 SWAP1 PUSH2 0x143C JUMP JUMPDEST PUSH1 0x40 MLOAD DUP1 SWAP2 SUB SWAP1 LOG3 POP POP JUMP JUMPDEST PUSH2 0xB95 PUSH2 0x12AA JUMP JUMPDEST PUSH0 DUP2 GT PUSH2 0xBD7 JUMPI PUSH1 0x40 MLOAD PUSH32 0x8C379A000000000000000000000000000000000000000000000000000000000 DUP2 MSTORE PUSH1 0x4 ADD PUSH2 0xBCE SWAP1 PUSH2 0x1A8F JUMP JUMPDEST PUSH1 0x40 MLOAD DUP1 SWAP2 SUB SWAP1 REVERT JUMPDEST PUSH2 0xBE2 CALLER DUP4 DUP4 PUSH2 0x8CB JUMP JUMPDEST PUSH2 0xC21 JUMPI PUSH1 0x40 MLOAD PUSH32 0x8C379A000000000000000000000000000000000000000000000000000000000 DUP2 MSTORE PUSH1 0x4 ADD PUSH2 0xC18 SWAP1 PUSH2 0x1AF7 JUMP JUMPDEST PUSH1 0x40 MLOAD DUP1 SWAP2 SUB SWAP1 REVERT JUMPDEST DUP1 DUP3 PUSH20 0xFFFFFFFFFFFFFFFFFFFFFFFFFFFFFFFFFFFFFFFF AND PUSH4 0x70A08231 ADDRESS PUSH1 0x40 MLOAD DUP3 PUSH4 0xFFFFFFFF AND PUSH1 0xE0 SHL DUP2 MSTORE PUSH1 0x4 ADD PUSH2 0xC5B SWAP2 SWAP1 PUSH2 0x15C2 JUMP JUMPDEST PUSH1 0x20 PUSH1 0x40 MLOAD DUP1 DUP4 SUB DUP2 DUP7 GAS STATICCALL ISZERO DUP1 ISZERO PUSH2 0xC76 JUMPI RETURNDATASIZE PUSH0 DUP1 RETURNDATACOPY RETURNDATASIZE PUSH0 REVERT JUMPDEST POP POP POP POP PUSH1 0x40 MLOAD RETURNDATASIZE PUSH1 0x1F NOT PUSH1 0x1F DUP3 ADD AND DUP3 ADD DUP1 PUSH1 0x40 MSTORE POP DUP2 ADD SWAP1 PUSH2 0xC9A SWAP2 SWAP1 PUSH2 0x1B29 JUMP JUMPDEST LT ISZERO PUSH2 0xCDB JUMPI PUSH1 0x40 MLOAD PUSH32 0x8C379A000000000000000000000000000000000000000000000000000000000 DUP2 MSTORE PUSH1 0x4 ADD PUSH2 0xCD2 SWAP1 PUSH2 0x1BC4 JUMP JUMPDEST PUSH1 0x40 MLOAD DUP1 SWAP2 SUB SWAP1 REVERT JUMPDEST DUP1 PUSH1 0x4 PUSH0 DUP5 PUSH20 0xFFFFFFFFFFFFFFFFFFFFFFFFFFFFFFFFFFFFFFFF AND PUSH20 0xFFFFFFFFFFFFFFFFFFFFFFFFFFFFFFFFFFFFFFFF AND DUP2 MSTORE PUSH1 0x20 ADD SWAP1 DUP2 MSTORE PUSH1 0x20 ADD PUSH0 KECCAK256 PUSH0 CALLER PUSH20 0xFFFFFFFFFFFFFFFFFFFFFFFFFFFFFFFFFFFFFFFF AND PUSH20 0xFFFFFFFFFFFFFFFFFFFFFFFFFFFFFFFFFFFFFFFF AND DUP2 MSTORE PUSH1 0x20 ADD SWAP1 DUP2 MSTORE PUSH1 0x20 ADD PUSH0 KECCAK256 PUSH0 DUP3 DUP3 SLOAD PUSH2 0xD62 SWAP2 SWAP1 PUSH2 0x178B JUMP JUMPDEST SWAP3 POP POP DUP2 SWAP1 SSTORE POP DUP1 PUSH1 0x6 PUSH0 DUP5 PUSH20 0xFFFFFFFFFFFFFFFFFFFFFFFFFFFFFFFFFFFFFFFF AND PUSH20 0xFFFFFFFFFFFFFFFFFFFFFFFFFFFFFFFFFFFFFFFF AND DUP2 MSTORE PUSH1 0x20 ADD SWAP1 DUP2 MSTORE PUSH1 0x20 ADD PUSH0 KECCAK256 PUSH0 DUP3 DUP3 SLOAD PUSH2 0xDB5 SWAP2 SWAP1 PUSH2 0x178B JUMP JUMPDEST SWAP3 POP POP DUP2 SWAP1 SSTORE POP DUP1 PUSH1 0x7 PUSH0 CALLER PUSH20 0xFFFFFFFFFFFFFFFFFFFFFFFFFFFFFFFFFFFFFFFF AND PUSH20 0xFFFFFFFFFFFFFFFFFFFFFFFFFFFFFFFFFFFFFFFF AND DUP2 MSTORE PUSH1 0x20 ADD SWAP1 DUP2 MSTORE PUSH1 0x20 ADD PUSH0 KECCAK256 PUSH0 DUP3 DUP3 SLOAD PUSH2 0xE08 SWAP2 SWAP1 PUSH2 0x178B JUMP JUMPDEST SWAP3 POP POP DUP2 SWAP1 SSTORE POP PUSH2 0xE22 DUP3 CALLER PUSH2 0xE1D DUP5 PUSH2 0x8C5 JUMP JUMPDEST PUSH2 0x12A5 JUMP JUMPDEST PUSH0 TIMESTAMP SWAP1 POP PUSH0 DUP2 PUSH1 0x1 SLOAD PUSH2 0xE35 SWAP2 SWAP1 PUSH2 0x178B JUMP JUMPDEST SWAP1 POP PUSH1 0x40 MLOAD DUP1 PUSH1 0x60 ADD PUSH1 0x40 MSTORE DUP1 DUP5 DUP2 MSTORE PUSH1 0x20 ADD DUP3 DUP2 MSTORE PUSH1 0x20 ADD TIMESTAMP DUP2 MSTORE POP PUSH1 0x8 PUSH0 CALLER PUSH20 0xFFFFFFFFFFFFFFFFFFFFFFFFFFFFFFFFFFFFFFFF AND PUSH20 0xFFFFFFFFFFFFFFFFFFFFFFFFFFFFFFFFFFFFFFFF AND DUP2 MSTORE PUSH1 0x20 ADD SWAP1 DUP2 MSTORE PUSH1 0x20 ADD PUSH0 KECCAK256 PUSH0 DUP7 PUSH20 0xFFFFFFFFFFFFFFFFFFFFFFFFFFFFFFFFFFFFFFFF AND PUSH20 0xFFFFFFFFFFFFFFFFFFFFFFFFFFFFFFFFFFFFFFFF AND DUP2 MSTORE PUSH1 0x20 ADD SWAP1 DUP2 MSTORE PUSH1 0x20 ADD PUSH0 KECCAK256 PUSH0 DUP3 ADD MLOAD DUP2 PUSH0 ADD SSTORE PUSH1 0x20 DUP3 ADD MLOAD DUP2 PUSH1 0x1 ADD SSTORE PUSH1 0x40 DUP3 ADD MLOAD DUP2 PUSH1 0x2 ADD SSTORE SWAP1 POP POP DUP4 PUSH20 0xFFFFFFFFFFFFFFFFFFFFFFFFFFFFFFFFFFFFFFFF AND CALLER PUSH20 0xFFFFFFFFFFFFFFFFFFFFFFFFFFFFFFFFFFFFFFFF AND PUSH32 0xC1CBA78646FEF030830D099FC25CB498953709C9D47D883848F81FD207174C9F DUP6 DUP5 TIMESTAMP PUSH1 0x40 MLOAD PUSH2 0xF4A SWAP4 SWAP3 SWAP2 SWAP1 PUSH2 0x1480 JUMP JUMPDEST PUSH1 0x40 MLOAD DUP1 SWAP2 SUB SWAP1 LOG3 POP POP PUSH2 0xF5C PUSH2 0x12F7 JUMP JUMPDEST POP POP JUMP JUMPDEST PUSH0 DUP1 PUSH1 0x8 PUSH0 DUP5 PUSH20 0xFFFFFFFFFFFFFFFFFFFFFFFFFFFFFFFFFFFFFFFF AND PUSH20 0xFFFFFFFFFFFFFFFFFFFFFFFFFFFFFFFFFFFFFFFF AND DUP2 MSTORE PUSH1 0x20 ADD SWAP1 DUP2 MSTORE PUSH1 0x20 ADD PUSH0 KECCAK256 PUSH0 DUP6 PUSH20 0xFFFFFFFFFFFFFFFFFFFFFFFFFFFFFFFFFFFFFFFF AND PUSH20 0xFFFFFFFFFFFFFFFFFFFFFFFFFFFFFFFFFFFFFFFF AND DUP2 MSTORE PUSH1 0x20 ADD SWAP1 DUP2 MSTORE PUSH1 0x20 ADD PUSH0 KECCAK256 PUSH1 0x40 MLOAD DUP1 PUSH1 0x60 ADD PUSH1 0x40 MSTORE SWAP1 DUP2 PUSH0 DUP3 ADD SLOAD DUP2 MSTORE PUSH1 0x20 ADD PUSH1 0x1 DUP3 ADD SLOAD DUP2 MSTORE PUSH1 0x20 ADD PUSH1 0x2 DUP3 ADD SLOAD DUP2 MSTORE POP POP SWAP1 POP PUSH0 DUP2 PUSH1 0x40 ADD MLOAD TIMESTAMP PUSH2 0x1015 SWAP2 SWAP1 PUSH2 0x1758 JUMP JUMPDEST SWAP1 POP PUSH0 DUP2 DUP4 PUSH1 0x20 ADD MLOAD DUP5 PUSH0 ADD MLOAD PUSH2 0x102C SWAP2 SWAP1 PUSH2 0x1BE2 JUMP JUMPDEST PUSH2 0x1036 SWAP2 SWAP1 PUSH2 0x1BE2 JUMP JUMPDEST SWAP1 POP DUP1 SWAP4 POP POP POP POP SWAP3 SWAP2 POP POP JUMP JUMPDEST PUSH0 PUSH1 0x2 PUSH0 DUP4 PUSH20 0xFFFFFFFFFFFFFFFFFFFFFFFFFFFFFFFFFFFFFFFF AND PUSH20 0xFFFFFFFFFFFFFFFFFFFFFFFFFFFFFFFFFFFFFFFF AND DUP2 MSTORE PUSH1 0x20 ADD SWAP1 DUP2 MSTORE PUSH1 0x20 ADD PUSH0 KECCAK256 PUSH0 DUP5 PUSH20 0xFFFFFFFFFFFFFFFFFFFFFFFFFFFFFFFFFFFFFFFF AND PUSH20 0xFFFFFFFFFFFFFFFFFFFFFFFFFFFFFFFFFFFFFFFF AND DUP2 MSTORE PUSH1 0x20 ADD SWAP1 DUP2 MSTORE PUSH1 0x20 ADD PUSH0 KECCAK256 SLOAD SWAP1 POP SWAP3 SWAP2 POP POP JUMP JUMPDEST PUSH0 SWAP4 SWAP3 POP POP POP JUMP JUMPDEST PUSH1 0x1 SLOAD DUP2 JUMP JUMPDEST PUSH1 0x3 DUP2 DUP2 SLOAD DUP2 LT PUSH2 0x10E3 JUMPI PUSH0 DUP1 REVERT JUMPDEST SWAP1 PUSH0 MSTORE PUSH1 0x20 PUSH0 KECCAK256 ADD PUSH0 SWAP2 POP SLOAD SWAP1 PUSH2 0x100 EXP SWAP1 DIV PUSH20 0xFFFFFFFFFFFFFFFFFFFFFFFFFFFFFFFFFFFFFFFF AND DUP2 JUMP JUMPDEST PUSH1 0x5 PUSH1 0x20 MSTORE DUP2 PUSH0 MSTORE PUSH1 0x40 PUSH0 KECCAK256 PUSH1 0x20 MSTORE DUP1 PUSH0 MSTORE PUSH1 0x40 PUSH0 KECCAK256 PUSH0 SWAP2 POP SWAP2 POP POP SLOAD DUP2 JUMP JUMPDEST PUSH0 DUP1 PUSH2 0x1139 PUSH2 0x1300 JUMP JUMPDEST DUP4 PUSH2 0x1144 SWAP2 SWAP1 PUSH2 0x1C50 JUMP JUMPDEST DUP5 PUSH2 0x114F SWAP2 SWAP1 PUSH2 0x178B JUMP JUMPDEST SWAP1 POP PUSH0 DUP1 JUMPDEST PUSH1 0x3 DUP1 SLOAD SWAP1 POP DUP2 LT ISZERO PUSH2 0x122F JUMPI PUSH1 0x2 PUSH0 PUSH1 0x3 DUP4 DUP2 SLOAD DUP2 LT PUSH2 0x1178 JUMPI PUSH2 0x1177 PUSH2 0x18DA JUMP JUMPDEST JUMPDEST SWAP1 PUSH0 MSTORE PUSH1 0x20 PUSH0 KECCAK256 ADD PUSH0 SWAP1 SLOAD SWAP1 PUSH2 0x100 EXP SWAP1 DIV PUSH20 0xFFFFFFFFFFFFFFFFFFFFFFFFFFFFFFFFFFFFFFFF AND PUSH20 0xFFFFFFFFFFFFFFFFFFFFFFFFFFFFFFFFFFFFFFFF AND PUSH20 0xFFFFFFFFFFFFFFFFFFFFFFFFFFFFFFFFFFFFFFFF AND DUP2 MSTORE PUSH1 0x20 ADD SWAP1 DUP2 MSTORE PUSH1 0x20 ADD PUSH0 KECCAK256 PUSH0 CALLER PUSH20 0xFFFFFFFFFFFFFFFFFFFFFFFFFFFFFFFFFFFFFFFF AND PUSH20 0xFFFFFFFFFFFFFFFFFFFFFFFFFFFFFFFFFFFFFFFF AND DUP2 MSTORE PUSH1 0x20 ADD SWAP1 DUP2 MSTORE PUSH1 0x20 ADD PUSH0 KECCAK256 SLOAD DUP3 PUSH2 0x1220 SWAP2 SWAP1 PUSH2 0x178B JUMP JUMPDEST SWAP2 POP DUP1 DUP1 PUSH1 0x1 ADD SWAP2 POP POP PUSH2 0x1154 JUMP JUMPDEST POP PUSH0 DUP5 DUP7 PUSH2 0x123D SWAP2 SWAP1 PUSH2 0x178B JUMP JUMPDEST SWAP1 POP DUP3 DUP3 GT ISZERO PUSH2 0x125F JUMPI PUSH2 0x125C DUP2 DUP5 DUP5 PUSH2 0x1257 SWAP2 SWAP1 PUSH2 0x1758 JUMP JUMPDEST PUSH2 0x1308 JUMP JUMPDEST SWAP1 POP JUMPDEST DUP1 SWAP4 POP POP POP POP SWAP3 SWAP2 POP POP JUMP JUMPDEST PUSH1 0x9 PUSH0 SWAP1 SLOAD SWAP1 PUSH2 0x100 EXP SWAP1 DIV PUSH20 0xFFFFFFFFFFFFFFFFFFFFFFFFFFFFFFFFFFFFFFFF AND DUP2 JUMP JUMPDEST PUSH1 0x6 PUSH1 0x20 MSTORE DUP1 PUSH0 MSTORE PUSH1 0x40 PUSH0 KECCAK256 PUSH0 SWAP2 POP SWAP1 POP SLOAD DUP2 JUMP JUMPDEST POP POP POP JUMP JUMPDEST PUSH1 0x2 PUSH0 SLOAD SUB PUSH2 0x12EE JUMPI PUSH1 0x40 MLOAD PUSH32 0x8C379A000000000000000000000000000000000000000000000000000000000 DUP2 MSTORE PUSH1 0x4 ADD PUSH2 0x12E5 SWAP1 PUSH2 0x1CCA JUMP JUMPDEST PUSH1 0x40 MLOAD DUP1 SWAP2 SUB SWAP1 REVERT JUMPDEST PUSH1 0x2 PUSH0 DUP2 SWAP1 SSTORE POP JUMP JUMPDEST PUSH1 0x1 PUSH0 DUP2 SWAP1 SSTORE POP JUMP JUMPDEST PUSH0 PUSH1 0x2 SWAP1 POP SWAP1 JUMP JUMPDEST PUSH0 DUP2 DUP4 LT PUSH2 0x1316 JUMPI DUP2 PUSH2 0x1318 JUMP JUMPDEST DUP3 JUMPDEST SWAP1 POP SWAP3 SWAP2 POP POP JUMP JUMPDEST PUSH0 DUP1 REVERT JUMPDEST PUSH0 PUSH20 0xFFFFFFFFFFFFFFFFFFFFFFFFFFFFFFFFFFFFFFFF DUP3 AND SWAP1 POP SWAP2 SWAP1 POP JUMP JUMPDEST PUSH0 PUSH2 0x134D DUP3 PUSH2 0x1324 JUMP JUMPDEST SWAP1 POP SWAP2 SWAP1 POP JUMP JUMPDEST PUSH2 0x135D DUP2 PUSH2 0x1343 JUMP JUMPDEST DUP2 EQ PUSH2 0x1367 JUMPI PUSH0 DUP1 REVERT JUMPDEST POP JUMP JUMPDEST PUSH0 DUP2 CALLDATALOAD SWAP1 POP PUSH2 0x1378 DUP2 PUSH2 0x1354 JUMP JUMPDEST SWAP3 SWAP2 POP POP JUMP JUMPDEST PUSH0 DUP2 SWAP1 POP SWAP2 SWAP1 POP JUMP JUMPDEST PUSH2 0x1390 DUP2 PUSH2 0x137E JUMP JUMPDEST DUP2 EQ PUSH2 0x139A JUMPI PUSH0 DUP1 REVERT JUMPDEST POP JUMP JUMPDEST PUSH0 DUP2 CALLDATALOAD SWAP1 POP PUSH2 0x13AB DUP2 PUSH2 0x1387 JUMP JUMPDEST SWAP3 SWAP2 POP POP JUMP JUMPDEST PUSH0 DUP1 PUSH1 0x40 DUP4 DUP6 SUB SLT ISZERO PUSH2 0x13C7 JUMPI PUSH2 0x13C6 PUSH2 0x1320 JUMP JUMPDEST JUMPDEST PUSH0 PUSH2 0x13D4 DUP6 DUP3 DUP7 ADD PUSH2 0x136A JUMP JUMPDEST SWAP3 POP POP PUSH1 0x20 PUSH2 0x13E5 DUP6 DUP3 DUP7 ADD PUSH2 0x139D JUMP JUMPDEST SWAP2 POP POP SWAP3 POP SWAP3 SWAP1 POP JUMP JUMPDEST PUSH0 DUP1 PUSH1 0x40 DUP4 DUP6 SUB SLT ISZERO PUSH2 0x1405 JUMPI PUSH2 0x1404 PUSH2 0x1320 JUMP JUMPDEST JUMPDEST PUSH0 PUSH2 0x1412 DUP6 DUP3 DUP7 ADD PUSH2 0x136A JUMP JUMPDEST SWAP3 POP POP PUSH1 0x20 PUSH2 0x1423 DUP6 DUP3 DUP7 ADD PUSH2 0x136A JUMP JUMPDEST SWAP2 POP POP SWAP3 POP SWAP3 SWAP1 POP JUMP JUMPDEST PUSH2 0x1436 DUP2 PUSH2 0x137E JUMP JUMPDEST DUP3 MSTORE POP POP JUMP JUMPDEST PUSH0 PUSH1 0x20 DUP3 ADD SWAP1 POP PUSH2 0x144F PUSH0 DUP4 ADD DUP5 PUSH2 0x142D JUMP JUMPDEST SWAP3 SWAP2 POP POP JUMP JUMPDEST PUSH0 PUSH1 0x20 DUP3 DUP5 SUB SLT ISZERO PUSH2 0x146A JUMPI PUSH2 0x1469 PUSH2 0x1320 JUMP JUMPDEST JUMPDEST PUSH0 PUSH2 0x1477 DUP5 DUP3 DUP6 ADD PUSH2 0x136A JUMP JUMPDEST SWAP2 POP POP SWAP3 SWAP2 POP POP JUMP JUMPDEST PUSH0 PUSH1 0x60 DUP3 ADD SWAP1 POP PUSH2 0x1493 PUSH0 DUP4 ADD DUP7 PUSH2 0x142D JUMP JUMPDEST PUSH2 0x14A0 PUSH1 0x20 DUP4 ADD DUP6 PUSH2 0x142D JUMP JUMPDEST PUSH2 0x14AD PUSH1 0x40 DUP4 ADD DUP5 PUSH2 0x142D JUMP JUMPDEST SWAP5 SWAP4 POP POP POP POP JUMP JUMPDEST PUSH0 DUP1 PUSH0 PUSH1 0x60 DUP5 DUP7 SUB SLT ISZERO PUSH2 0x14CC JUMPI PUSH2 0x14CB PUSH2 0x1320 JUMP JUMPDEST JUMPDEST PUSH0 PUSH2 0x14D9 DUP7 DUP3 DUP8 ADD PUSH2 0x136A JUMP JUMPDEST SWAP4 POP POP PUSH1 0x20 PUSH2 0x14EA DUP7 DUP3 DUP8 ADD PUSH2 0x136A JUMP JUMPDEST SWAP3 POP POP PUSH1 0x40 PUSH2 0x14FB DUP7 DUP3 DUP8 ADD PUSH2 0x139D JUMP JUMPDEST SWAP2 POP POP SWAP3 POP SWAP3 POP SWAP3 JUMP JUMPDEST PUSH0 PUSH1 0x20 DUP3 DUP5 SUB SLT ISZERO PUSH2 0x151A JUMPI PUSH2 0x1519 PUSH2 0x1320 JUMP JUMPDEST JUMPDEST PUSH0 PUSH2 0x1527 DUP5 DUP3 DUP6 ADD PUSH2 0x139D JUMP JUMPDEST SWAP2 POP POP SWAP3 SWAP2 POP POP JUMP JUMPDEST PUSH0 DUP2 ISZERO ISZERO SWAP1 POP SWAP2 SWAP1 POP JUMP JUMPDEST PUSH2 0x1544 DUP2 PUSH2 0x1530 JUMP JUMPDEST DUP3 MSTORE POP POP JUMP JUMPDEST PUSH0 PUSH1 0x20 DUP3 ADD SWAP1 POP PUSH2 0x155D PUSH0 DUP4 ADD DUP5 PUSH2 0x153B JUMP JUMPDEST SWAP3 SWAP2 POP POP JUMP JUMPDEST PUSH0 DUP1 PUSH0 PUSH1 0x60 DUP5 DUP7 SUB SLT ISZERO PUSH2 0x157A JUMPI PUSH2 0x1579 PUSH2 0x1320 JUMP JUMPDEST JUMPDEST PUSH0 PUSH2 0x1587 DUP7 DUP3 DUP8 ADD PUSH2 0x136A JUMP JUMPDEST SWAP4 POP POP PUSH1 0x20 PUSH2 0x1598 DUP7 DUP3 DUP8 ADD PUSH2 0x139D JUMP JUMPDEST SWAP3 POP POP PUSH1 0x40 PUSH2 0x15A9 DUP7 DUP3 DUP8 ADD PUSH2 0x139D JUMP JUMPDEST SWAP2 POP POP SWAP3 POP SWAP3 POP SWAP3 JUMP JUMPDEST PUSH2 0x15BC DUP2 PUSH2 0x1343 JUMP JUMPDEST DUP3 MSTORE POP POP JUMP JUMPDEST PUSH0 PUSH1 0x20 DUP3 ADD SWAP1 POP PUSH2 0x15D5 PUSH0 DUP4 ADD DUP5 PUSH2 0x15B3 JUMP JUMPDEST SWAP3 SWAP2 POP POP JUMP JUMPDEST PUSH0 DUP1 PUSH1 0x40 DUP4 DUP6 SUB SLT ISZERO PUSH2 0x15F1 JUMPI PUSH2 0x15F0 PUSH2 0x1320 JUMP JUMPDEST JUMPDEST PUSH0 PUSH2 0x15FE DUP6 DUP3 DUP7 ADD PUSH2 0x139D JUMP JUMPDEST SWAP3 POP POP PUSH1 0x20 PUSH2 0x160F DUP6 DUP3 DUP7 ADD PUSH2 0x139D JUMP JUMPDEST SWAP2 POP POP SWAP3 POP SWAP3 SWAP1 POP JUMP JUMPDEST PUSH0 DUP2 SWAP1 POP SWAP2 SWAP1 POP JUMP JUMPDEST PUSH0 PUSH2 0x163C PUSH2 0x1637 PUSH2 0x1632 DUP5 PUSH2 0x1324 JUMP JUMPDEST PUSH2 0x1619 JUMP JUMPDEST PUSH2 0x1324 JUMP JUMPDEST SWAP1 POP SWAP2 SWAP1 POP JUMP JUMPDEST PUSH0 PUSH2 0x164D DUP3 PUSH2 0x1622 JUMP JUMPDEST SWAP1 POP SWAP2 SWAP1 POP JUMP JUMPDEST PUSH0 PUSH2 0x165E DUP3 PUSH2 0x1643 JUMP JUMPDEST SWAP1 POP SWAP2 SWAP1 POP JUMP JUMPDEST PUSH2 0x166E DUP2 PUSH2 0x1654 JUMP JUMPDEST DUP3 MSTORE POP POP JUMP JUMPDEST PUSH0 PUSH1 0x20 DUP3 ADD SWAP1 POP PUSH2 0x1687 PUSH0 DUP4 ADD DUP5 PUSH2 0x1665 JUMP JUMPDEST SWAP3 SWAP2 POP POP JUMP JUMPDEST PUSH0 DUP3 DUP3 MSTORE PUSH1 0x20 DUP3 ADD SWAP1 POP SWAP3 SWAP2 POP POP JUMP JUMPDEST PUSH32 0x52657061796D656E7420616D6F756E74206D7573742062652067726561746572 PUSH0 DUP3 ADD MSTORE PUSH32 0x207468616E207A65726F00000000000000000000000000000000000000000000 PUSH1 0x20 DUP3 ADD MSTORE POP JUMP JUMPDEST PUSH0 PUSH2 0x16F7 PUSH1 0x2A DUP4 PUSH2 0x168D JUMP JUMPDEST SWAP2 POP PUSH2 0x1702 DUP3 PUSH2 0x169D JUMP JUMPDEST PUSH1 0x40 DUP3 ADD SWAP1 POP SWAP2 SWAP1 POP JUMP JUMPDEST PUSH0 PUSH1 0x20 DUP3 ADD SWAP1 POP DUP2 DUP2 SUB PUSH0 DUP4 ADD MSTORE PUSH2 0x1724 DUP2 PUSH2 0x16EB JUMP JUMPDEST SWAP1 POP SWAP2 SWAP1 POP JUMP JUMPDEST PUSH32 0x4E487B7100000000000000000000000000000000000000000000000000000000 PUSH0 MSTORE PUSH1 0x11 PUSH1 0x4 MSTORE PUSH1 0x24 PUSH0 REVERT JUMPDEST PUSH0 PUSH2 0x1762 DUP3 PUSH2 0x137E JUMP JUMPDEST SWAP2 POP PUSH2 0x176D DUP4 PUSH2 0x137E JUMP JUMPDEST SWAP3 POP DUP3 DUP3 SUB SWAP1 POP DUP2 DUP2 GT ISZERO PUSH2 0x1785 JUMPI PUSH2 0x1784 PUSH2 0x172B JUMP JUMPDEST JUMPDEST SWAP3 SWAP2 POP POP JUMP JUMPDEST PUSH0 PUSH2 0x1795 DUP3 PUSH2 0x137E JUMP JUMPDEST SWAP2 POP PUSH2 0x17A0 DUP4 PUSH2 0x137E JUMP JUMPDEST SWAP3 POP DUP3 DUP3 ADD SWAP1 POP DUP1 DUP3 GT ISZERO PUSH2 0x17B8 JUMPI PUSH2 0x17B7 PUSH2 0x172B JUMP JUMPDEST JUMPDEST SWAP3 SWAP2 POP POP JUMP JUMPDEST PUSH32 0x52657061796D656E7420616D6F756E74206578636565647320626F72726F7720 PUSH0 DUP3 ADD MSTORE PUSH32 0x616D6F756E740000000000000000000000000000000000000000000000000000 PUSH1 0x20 DUP3 ADD MSTORE POP JUMP JUMPDEST PUSH0 PUSH2 0x1818 PUSH1 0x26 DUP4 PUSH2 0x168D JUMP JUMPDEST SWAP2 POP PUSH2 0x1823 DUP3 PUSH2 0x17BE JUMP JUMPDEST PUSH1 0x40 DUP3 ADD SWAP1 POP SWAP2 SWAP1 POP JUMP JUMPDEST PUSH0 PUSH1 0x20 DUP3 ADD SWAP1 POP DUP2 DUP2 SUB PUSH0 DUP4 ADD MSTORE PUSH2 0x1845 DUP2 PUSH2 0x180C JUMP JUMPDEST SWAP1 POP SWAP2 SWAP1 POP JUMP JUMPDEST PUSH32 0x496E73756666696369656E742066756E647320666F722072657061796D656E74 PUSH0 DUP3 ADD MSTORE PUSH32 0x20616E64206163637275656420696E7465726573740000000000000000000000 PUSH1 0x20 DUP3 ADD MSTORE POP JUMP JUMPDEST PUSH0 PUSH2 0x18A6 PUSH1 0x35 DUP4 PUSH2 0x168D JUMP JUMPDEST SWAP2 POP PUSH2 0x18B1 DUP3 PUSH2 0x184C JUMP JUMPDEST PUSH1 0x40 DUP3 ADD SWAP1 POP SWAP2 SWAP1 POP JUMP JUMPDEST PUSH0 PUSH1 0x20 DUP3 ADD SWAP1 POP DUP2 DUP2 SUB PUSH0 DUP4 ADD MSTORE PUSH2 0x18D3 DUP2 PUSH2 0x189A JUMP JUMPDEST SWAP1 POP SWAP2 SWAP1 POP JUMP JUMPDEST PUSH32 0x4E487B7100000000000000000000000000000000000000000000000000000000 PUSH0 MSTORE PUSH1 0x32 PUSH1 0x4 MSTORE PUSH1 0x24 PUSH0 REVERT JUMPDEST PUSH32 0x4465706F73697420616D6F756E74206D75737420626520677265617465722074 PUSH0 DUP3 ADD MSTORE PUSH32 0x68616E207A65726F000000000000000000000000000000000000000000000000 PUSH1 0x20 DUP3 ADD MSTORE POP JUMP JUMPDEST PUSH0 PUSH2 0x1961 PUSH1 0x28 DUP4 PUSH2 0x168D JUMP JUMPDEST SWAP2 POP PUSH2 0x196C DUP3 PUSH2 0x1907 JUMP JUMPDEST PUSH1 0x40 DUP3 ADD SWAP1 POP SWAP2 SWAP1 POP JUMP JUMPDEST PUSH0 PUSH1 0x20 DUP3 ADD SWAP1 POP DUP2 DUP2 SUB PUSH0 DUP4 ADD MSTORE PUSH2 0x198E DUP2 PUSH2 0x1955 JUMP JUMPDEST SWAP1 POP SWAP2 SWAP1 POP JUMP JUMPDEST PUSH0 PUSH1 0x60 DUP3 ADD SWAP1 POP PUSH2 0x19A8 PUSH0 DUP4 ADD DUP7 PUSH2 0x15B3 JUMP JUMPDEST PUSH2 0x19B5 PUSH1 0x20 DUP4 ADD DUP6 PUSH2 0x15B3 JUMP JUMPDEST PUSH2 0x19C2 PUSH1 0x40 DUP4 ADD DUP5 PUSH2 0x142D JUMP JUMPDEST SWAP5 SWAP4 POP POP POP POP JUMP JUMPDEST PUSH2 0x19D3 DUP2 PUSH2 0x1530 JUMP JUMPDEST DUP2 EQ PUSH2 0x19DD JUMPI PUSH0 DUP1 REVERT JUMPDEST POP JUMP JUMPDEST PUSH0 DUP2 MLOAD SWAP1 POP PUSH2 0x19EE DUP2 PUSH2 0x19CA JUMP JUMPDEST SWAP3 SWAP2 POP POP JUMP JUMPDEST PUSH0 PUSH1 0x20 DUP3 DUP5 SUB SLT ISZERO PUSH2 0x1A09 JUMPI PUSH2 0x1A08 PUSH2 0x1320 JUMP JUMPDEST JUMPDEST PUSH0 PUSH2 0x1A16 DUP5 DUP3 DUP6 ADD PUSH2 0x19E0 JUMP JUMPDEST SWAP2 POP POP SWAP3 SWAP2 POP POP JUMP JUMPDEST PUSH32 0x426F72726F7720616D6F756E74206D7573742062652067726561746572207468 PUSH0 DUP3 ADD MSTORE PUSH32 0x616E207A65726F00000000000000000000000000000000000000000000000000 PUSH1 0x20 DUP3 ADD MSTORE POP JUMP JUMPDEST PUSH0 PUSH2 0x1A79 PUSH1 0x27 DUP4 PUSH2 0x168D JUMP JUMPDEST SWAP2 POP PUSH2 0x1A84 DUP3 PUSH2 0x1A1F JUMP JUMPDEST PUSH1 0x40 DUP3 ADD SWAP1 POP SWAP2 SWAP1 POP JUMP JUMPDEST PUSH0 PUSH1 0x20 DUP3 ADD SWAP1 POP DUP2 DUP2 SUB PUSH0 DUP4 ADD MSTORE PUSH2 0x1AA6 DUP2 PUSH2 0x1A6D JUMP JUMPDEST SWAP1 POP SWAP2 SWAP1 POP JUMP JUMPDEST PUSH32 0x496E73756666696369656E7420636F6C6C61746572616C000000000000000000 PUSH0 DUP3 ADD MSTORE POP JUMP JUMPDEST PUSH0 PUSH2 0x1AE1 PUSH1 0x17 DUP4 PUSH2 0x168D JUMP JUMPDEST SWAP2 POP PUSH2 0x1AEC DUP3 PUSH2 0x1AAD JUMP JUMPDEST PUSH1 0x20 DUP3 ADD SWAP1 POP SWAP2 SWAP1 POP JUMP JUMPDEST PUSH0 PUSH1 0x20 DUP3 ADD SWAP1 POP DUP2 DUP2 SUB PUSH0 DUP4 ADD MSTORE PUSH2 0x1B0E DUP2 PUSH2 0x1AD5 JUMP JUMPDEST SWAP1 POP SWAP2 SWAP1 POP JUMP JUMPDEST PUSH0 DUP2 MLOAD SWAP1 POP PUSH2 0x1B23 DUP2 PUSH2 0x1387 JUMP JUMPDEST SWAP3 SWAP2 POP POP JUMP JUMPDEST PUSH0 PUSH1 0x20 DUP3 DUP5 SUB SLT ISZERO PUSH2 0x1B3E JUMPI PUSH2 0x1B3D PUSH2 0x1320 JUMP JUMPDEST JUMPDEST PUSH0 PUSH2 0x1B4B DUP5 DUP3 DUP6 ADD PUSH2 0x1B15 JUMP JUMPDEST SWAP2 POP POP SWAP3 SWAP2 POP POP JUMP JUMPDEST PUSH32 0x496E73756666696369656E74206C697175696469747920666F7220626F72726F PUSH0 DUP3 ADD MSTORE PUSH32 0x77696E6700000000000000000000000000000000000000000000000000000000 PUSH1 0x20 DUP3 ADD MSTORE POP JUMP JUMPDEST PUSH0 PUSH2 0x1BAE PUSH1 0x24 DUP4 PUSH2 0x168D JUMP JUMPDEST SWAP2 POP PUSH2 0x1BB9 DUP3 PUSH2 0x1B54 JUMP JUMPDEST PUSH1 0x40 DUP3 ADD SWAP1 POP SWAP2 SWAP1 POP JUMP JUMPDEST PUSH0 PUSH1 0x20 DUP3 ADD SWAP1 POP DUP2 DUP2 SUB PUSH0 DUP4 ADD MSTORE PUSH2 0x1BDB DUP2 PUSH2 0x1BA2 JUMP JUMPDEST SWAP1 POP SWAP2 SWAP1 POP JUMP JUMPDEST PUSH0 PUSH2 0x1BEC DUP3 PUSH2 0x137E JUMP JUMPDEST SWAP2 POP PUSH2 0x1BF7 DUP4 PUSH2 0x137E JUMP JUMPDEST SWAP3 POP DUP3 DUP3 MUL PUSH2 0x1C05 DUP2 PUSH2 0x137E JUMP JUMPDEST SWAP2 POP DUP3 DUP3 DIV DUP5 EQ DUP4 ISZERO OR PUSH2 0x1C1C JUMPI PUSH2 0x1C1B PUSH2 0x172B JUMP JUMPDEST JUMPDEST POP SWAP3 SWAP2 POP POP JUMP JUMPDEST PUSH32 0x4E487B7100000000000000000000000000000000000000000000000000000000 PUSH0 MSTORE PUSH1 0x12 PUSH1 0x4 MSTORE PUSH1 0x24 PUSH0 REVERT JUMPDEST PUSH0 PUSH2 0x1C5A DUP3 PUSH2 0x137E JUMP JUMPDEST SWAP2 POP PUSH2 0x1C65 DUP4 PUSH2 0x137E JUMP JUMPDEST SWAP3 POP DUP3 PUSH2 0x1C75 JUMPI PUSH2 0x1C74 PUSH2 0x1C23 JUMP JUMPDEST JUMPDEST DUP3 DUP3 DIV SWAP1 POP SWAP3 SWAP2 POP POP JUMP JUMPDEST PUSH32 0x5265656E7472616E637947756172643A207265656E7472616E742063616C6C00 PUSH0 DUP3 ADD MSTORE POP JUMP JUMPDEST PUSH0 PUSH2 0x1CB4 PUSH1 0x1F DUP4 PUSH2 0x168D JUMP JUMPDEST SWAP2 POP PUSH2 0x1CBF DUP3 PUSH2 0x1C80 JUMP JUMPDEST PUSH1 0x20 DUP3 ADD SWAP1 POP SWAP2 SWAP1 POP JUMP JUMPDEST PUSH0 PUSH1 0x20 DUP3 ADD SWAP1 POP DUP2 DUP2 SUB PUSH0 DUP4 ADD MSTORE PUSH2 0x1CE1 DUP2 PUSH2 0x1CA8 JUMP JUMPDEST SWAP1 POP SWAP2 SWAP1 POP JUMP INVALID LOG2 PUSH5 0x6970667358 0x22 SLT KECCAK256 0xE 0xAE SWAP4 0xD4 0xA5 GASPRICE 0xBC AND 0x2E SWAP8 SWAP13 SHL 0xD7 BLOCKHASH RETURN DUP2 PUSH30 0x5169A8257FAFF84817A4DB1055EFC364736F6C6343000818003300000000 "
				},
				"gasEstimates": {
					"creation": {
						"codeDepositCost": "1490800",
						"executionCost": "infinite",
						"totalCost": "infinite"
					},
					"external": {
						"baseInterestRate()": "2514",
						"borrow(address,uint256)": "infinite",
						"borrowedToken(address,address)": "infinite",
						"calculateAccruedInterest(address,address)": "infinite",
						"calculateInterestRate(address,uint256,uint256)": "infinite",
						"calculateRepayableCollateral(uint256,uint256)": "infinite",
						"calculateRequiredCollateral(uint256)": "infinite",
						"collateral(address,address)": "infinite",
						"deposit(address,uint256)": "infinite",
						"depositCollateral(address,address,uint256)": "infinite",
						"escrow()": "infinite",
						"getUserBalance(address,address)": "infinite",
						"isSufficientCollateral(address,address,uint256)": "infinite",
						"repay(address,uint256)": "infinite",
						"supportedTokens(uint256)": "5055",
						"totalBorrowedperToken(address)": "2890",
						"totalBorrowedperUser(address)": "2870",
						"userBorrows(address,address)": "infinite",
						"userDeposits(address,address)": "infinite",
						"withdrawCollateral(address,address,uint256)": "infinite"
					},
					"internal": {
						"OVER_COLLATERALIZATION_RATIO()": "22"
					}
				},
				"methodIdentifiers": {
					"baseInterestRate()": "afd92762",
					"borrow(address,uint256)": "4b8a3529",
					"borrowedToken(address,address)": "272d1b8e",
					"calculateAccruedInterest(address,address)": "664fa64e",
					"calculateInterestRate(address,uint256,uint256)": "9ee7f702",
					"calculateRepayableCollateral(uint256,uint256)": "d526fc2e",
					"calculateRequiredCollateral(uint256)": "34931b4b",
					"collateral(address,address)": "cc218ece",
					"deposit(address,uint256)": "47e7ef24",
					"depositCollateral(address,address,uint256)": "f970c3b7",
					"escrow()": "e2fdcc17",
					"getUserBalance(address,address)": "6805d6ad",
					"isSufficientCollateral(address,address,uint256)": "3b591d6a",
					"repay(address,uint256)": "22867d78",
					"supportedTokens(uint256)": "c6255626",
					"totalBorrowedperToken(address)": "e80894b6",
					"totalBorrowedperUser(address)": "23d0fda1",
					"userBorrows(address,address)": "234a14f9",
					"userDeposits(address,address)": "436d8039",
					"withdrawCollateral(address,address,uint256)": "2ae8bdfe"
				}
			},
			"storageLayout": {
				"storage": [
					{
						"astId": 147,
						"contract": "contracts/LendingPool.sol:LendingPool",
						"label": "_status",
						"offset": 0,
						"slot": "0",
						"type": "t_uint256"
					},
					{
						"astId": 1920,
						"contract": "contracts/LendingPool.sol:LendingPool",
						"label": "baseInterestRate",
						"offset": 0,
						"slot": "1",
						"type": "t_uint256"
					},
					{
						"astId": 1926,
						"contract": "contracts/LendingPool.sol:LendingPool",
						"label": "userDeposits",
						"offset": 0,
						"slot": "2",
						"type": "t_mapping(t_address,t_mapping(t_address,t_uint256))"
					},
					{
						"astId": 1929,
						"contract": "contracts/LendingPool.sol:LendingPool",
						"label": "supportedTokens",
						"offset": 0,
						"slot": "3",
						"type": "t_array(t_address)dyn_storage"
					},
					{
						"astId": 1935,
						"contract": "contracts/LendingPool.sol:LendingPool",
						"label": "userBorrows",
						"offset": 0,
						"slot": "4",
						"type": "t_mapping(t_address,t_mapping(t_address,t_uint256))"
					},
					{
						"astId": 1941,
						"contract": "contracts/LendingPool.sol:LendingPool",
						"label": "collateral",
						"offset": 0,
						"slot": "5",
						"type": "t_mapping(t_address,t_mapping(t_address,t_uint256))"
					},
					{
						"astId": 1945,
						"contract": "contracts/LendingPool.sol:LendingPool",
						"label": "totalBorrowedperToken",
						"offset": 0,
						"slot": "6",
						"type": "t_mapping(t_address,t_uint256)"
					},
					{
						"astId": 1949,
						"contract": "contracts/LendingPool.sol:LendingPool",
						"label": "totalBorrowedperUser",
						"offset": 0,
						"slot": "7",
						"type": "t_mapping(t_address,t_uint256)"
					},
					{
						"astId": 1963,
						"contract": "contracts/LendingPool.sol:LendingPool",
						"label": "borrowedToken",
						"offset": 0,
						"slot": "8",
						"type": "t_mapping(t_address,t_mapping(t_address,t_struct(BorrowInfo)1956_storage))"
					},
					{
						"astId": 1966,
						"contract": "contracts/LendingPool.sol:LendingPool",
						"label": "escrow",
						"offset": 0,
						"slot": "9",
						"type": "t_contract(Escrow)1909"
					}
				],
				"types": {
					"t_address": {
						"encoding": "inplace",
						"label": "address",
						"numberOfBytes": "20"
					},
					"t_array(t_address)dyn_storage": {
						"base": "t_address",
						"encoding": "dynamic_array",
						"label": "address[]",
						"numberOfBytes": "32"
					},
					"t_contract(Escrow)1909": {
						"encoding": "inplace",
						"label": "contract Escrow",
						"numberOfBytes": "20"
					},
					"t_mapping(t_address,t_mapping(t_address,t_struct(BorrowInfo)1956_storage))": {
						"encoding": "mapping",
						"key": "t_address",
						"label": "mapping(address => mapping(address => struct LendingPool.BorrowInfo))",
						"numberOfBytes": "32",
						"value": "t_mapping(t_address,t_struct(BorrowInfo)1956_storage)"
					},
					"t_mapping(t_address,t_mapping(t_address,t_uint256))": {
						"encoding": "mapping",
						"key": "t_address",
						"label": "mapping(address => mapping(address => uint256))",
						"numberOfBytes": "32",
						"value": "t_mapping(t_address,t_uint256)"
					},
					"t_mapping(t_address,t_struct(BorrowInfo)1956_storage)": {
						"encoding": "mapping",
						"key": "t_address",
						"label": "mapping(address => struct LendingPool.BorrowInfo)",
						"numberOfBytes": "32",
						"value": "t_struct(BorrowInfo)1956_storage"
					},
					"t_mapping(t_address,t_uint256)": {
						"encoding": "mapping",
						"key": "t_address",
						"label": "mapping(address => uint256)",
						"numberOfBytes": "32",
						"value": "t_uint256"
					},
					"t_struct(BorrowInfo)1956_storage": {
						"encoding": "inplace",
						"label": "struct LendingPool.BorrowInfo",
						"members": [
							{
								"astId": 1951,
								"contract": "contracts/LendingPool.sol:LendingPool",
								"label": "amount",
								"offset": 0,
								"slot": "0",
								"type": "t_uint256"
							},
							{
								"astId": 1953,
								"contract": "contracts/LendingPool.sol:LendingPool",
								"label": "interestRate",
								"offset": 0,
								"slot": "1",
								"type": "t_uint256"
							},
							{
								"astId": 1955,
								"contract": "contracts/LendingPool.sol:LendingPool",
								"label": "startTime",
								"offset": 0,
								"slot": "2",
								"type": "t_uint256"
							}
						],
						"numberOfBytes": "96"
					},
					"t_uint256": {
						"encoding": "inplace",
						"label": "uint256",
						"numberOfBytes": "32"
					}
				}
			},
			"userdoc": {
				"kind": "user",
				"methods": {},
				"version": 1
			}
		}
	}
}