{
	"contracts/LendingPool.sol": {
		"LendingPool": {
			"abi": [
				{
					"inputs": [],
					"stateMutability": "nonpayable",
					"type": "constructor"
				},
				{
					"anonymous": false,
					"inputs": [
						{
							"indexed": true,
							"internalType": "address",
							"name": "user",
							"type": "address"
						},
						{
							"indexed": true,
							"internalType": "address",
							"name": "token",
							"type": "address"
						},
						{
							"indexed": false,
							"internalType": "uint256",
							"name": "amount",
							"type": "uint256"
						},
						{
							"indexed": false,
							"internalType": "uint256",
							"name": "interestRate",
							"type": "uint256"
						},
						{
							"indexed": false,
							"internalType": "uint256",
							"name": "startTime",
							"type": "uint256"
						}
					],
					"name": "Borrowed",
					"type": "event"
				},
				{
					"anonymous": false,
					"inputs": [
						{
							"indexed": true,
							"internalType": "address",
							"name": "token",
							"type": "address"
						},
						{
							"indexed": true,
							"internalType": "address",
							"name": "user",
							"type": "address"
						},
						{
							"indexed": false,
							"internalType": "uint256",
							"name": "amount",
							"type": "uint256"
						}
					],
					"name": "DepositMade",
					"type": "event"
				},
				{
					"inputs": [],
					"name": "baseInterestRate",
					"outputs": [
						{
							"internalType": "uint256",
							"name": "",
							"type": "uint256"
						}
					],
					"stateMutability": "view",
					"type": "function"
				},
				{
					"inputs": [
						{
							"internalType": "address",
							"name": "token",
							"type": "address"
						},
						{
							"internalType": "uint256",
							"name": "amount",
							"type": "uint256"
						}
					],
					"name": "borrow",
					"outputs": [],
					"stateMutability": "payable",
					"type": "function"
				},
				{
					"inputs": [
						{
							"internalType": "address",
							"name": "",
							"type": "address"
						},
						{
							"internalType": "address",
							"name": "",
							"type": "address"
						}
					],
					"name": "borrowedToken",
					"outputs": [
						{
							"internalType": "uint256",
							"name": "amount",
							"type": "uint256"
						},
						{
							"internalType": "uint256",
							"name": "interestRate",
							"type": "uint256"
						},
						{
							"internalType": "uint256",
							"name": "startTime",
							"type": "uint256"
						}
					],
					"stateMutability": "view",
					"type": "function"
				},
				{
					"inputs": [
						{
							"internalType": "address",
							"name": "token",
							"type": "address"
						},
						{
							"internalType": "address",
							"name": "user",
							"type": "address"
						}
					],
					"name": "calculateAccruedInterest",
					"outputs": [
						{
							"internalType": "uint256",
							"name": "",
							"type": "uint256"
						}
					],
					"stateMutability": "view",
					"type": "function"
				},
				{
					"inputs": [
						{
							"internalType": "address",
							"name": "token",
							"type": "address"
						},
						{
							"internalType": "uint256",
							"name": "totalSupply",
							"type": "uint256"
						},
						{
							"internalType": "uint256",
							"name": "totalBorrows",
							"type": "uint256"
						}
					],
					"name": "calculateInterestRate",
					"outputs": [
						{
							"internalType": "uint256",
							"name": "",
							"type": "uint256"
						}
					],
					"stateMutability": "view",
					"type": "function"
				},
				{
					"inputs": [
						{
							"internalType": "uint256",
							"name": "repayAmount",
							"type": "uint256"
						},
						{
							"internalType": "uint256",
							"name": "accruedInterest",
							"type": "uint256"
						}
					],
					"name": "calculateRepayableCollateral",
					"outputs": [
						{
							"internalType": "uint256",
							"name": "",
							"type": "uint256"
						}
					],
					"stateMutability": "view",
					"type": "function"
				},
				{
					"inputs": [
						{
							"internalType": "uint256",
							"name": "borrowAmount",
							"type": "uint256"
						}
					],
					"name": "calculateRequiredCollateral",
					"outputs": [
						{
							"internalType": "uint256",
							"name": "",
							"type": "uint256"
						}
					],
					"stateMutability": "pure",
					"type": "function"
				},
				{
					"inputs": [
						{
							"internalType": "address",
							"name": "",
							"type": "address"
						},
						{
							"internalType": "address",
							"name": "",
							"type": "address"
						}
					],
					"name": "collateral",
					"outputs": [
						{
							"internalType": "uint256",
							"name": "",
							"type": "uint256"
						}
					],
					"stateMutability": "view",
					"type": "function"
				},
				{
					"inputs": [
						{
							"internalType": "address",
							"name": "token",
							"type": "address"
						},
						{
							"internalType": "uint256",
							"name": "amount",
							"type": "uint256"
						}
					],
					"name": "deposit",
					"outputs": [],
					"stateMutability": "payable",
					"type": "function"
				},
				{
					"inputs": [
						{
							"internalType": "address",
							"name": "token",
							"type": "address"
						},
						{
							"internalType": "address",
							"name": "borrower",
							"type": "address"
						},
						{
							"internalType": "uint256",
							"name": "amount",
							"type": "uint256"
						}
					],
					"name": "depositCollateral",
					"outputs": [],
					"stateMutability": "nonpayable",
					"type": "function"
				},
				{
					"inputs": [
						{
							"internalType": "address",
							"name": "user",
							"type": "address"
						},
						{
							"internalType": "address",
							"name": "token",
							"type": "address"
						}
					],
					"name": "getUserBalance",
					"outputs": [
						{
							"internalType": "uint256",
							"name": "",
							"type": "uint256"
						}
					],
					"stateMutability": "view",
					"type": "function"
				},
				{
					"inputs": [
						{
							"internalType": "address",
							"name": "user",
							"type": "address"
						},
						{
							"internalType": "address",
							"name": "token",
							"type": "address"
						},
						{
							"internalType": "uint256",
							"name": "borrowAmount",
							"type": "uint256"
						}
					],
					"name": "isSufficientCollateral",
					"outputs": [
						{
							"internalType": "bool",
							"name": "",
							"type": "bool"
						}
					],
					"stateMutability": "view",
					"type": "function"
				},
				{
					"inputs": [
						{
							"internalType": "address",
							"name": "token",
							"type": "address"
						},
						{
							"internalType": "uint256",
							"name": "amount",
							"type": "uint256"
						}
					],
					"name": "repay",
					"outputs": [],
					"stateMutability": "payable",
					"type": "function"
				},
				{
					"inputs": [
						{
							"internalType": "uint256",
							"name": "",
							"type": "uint256"
						}
					],
					"name": "supportedTokens",
					"outputs": [
						{
							"internalType": "address",
							"name": "",
							"type": "address"
						}
					],
					"stateMutability": "view",
					"type": "function"
				},
				{
					"inputs": [
						{
							"internalType": "address",
							"name": "",
							"type": "address"
						}
					],
					"name": "totalBorrowedperToken",
					"outputs": [
						{
							"internalType": "uint256",
							"name": "",
							"type": "uint256"
						}
					],
					"stateMutability": "view",
					"type": "function"
				},
				{
					"inputs": [
						{
							"internalType": "address",
							"name": "",
							"type": "address"
						}
					],
					"name": "totalBorrowedperUser",
					"outputs": [
						{
							"internalType": "uint256",
							"name": "",
							"type": "uint256"
						}
					],
					"stateMutability": "view",
					"type": "function"
				},
				{
					"inputs": [
						{
							"internalType": "address",
							"name": "",
							"type": "address"
						},
						{
							"internalType": "address",
							"name": "",
							"type": "address"
						}
					],
					"name": "userBorrows",
					"outputs": [
						{
							"internalType": "uint256",
							"name": "",
							"type": "uint256"
						}
					],
					"stateMutability": "view",
					"type": "function"
				},
				{
					"inputs": [
						{
							"internalType": "address",
							"name": "",
							"type": "address"
						},
						{
							"internalType": "address",
							"name": "",
							"type": "address"
						}
					],
					"name": "userDeposits",
					"outputs": [
						{
							"internalType": "uint256",
							"name": "",
							"type": "uint256"
						}
					],
					"stateMutability": "view",
					"type": "function"
				},
				{
					"inputs": [
						{
							"internalType": "address",
							"name": "token",
							"type": "address"
						},
						{
							"internalType": "address",
							"name": "borrower",
							"type": "address"
						},
						{
							"internalType": "uint256",
							"name": "amount",
							"type": "uint256"
						}
					],
					"name": "withdrawCollateral",
					"outputs": [],
					"stateMutability": "nonpayable",
					"type": "function"
				}
			],
			"devdoc": {
				"kind": "dev",
				"methods": {},
				"version": 1
			},
			"evm": {
				"assembly": "    /* \"contracts/LendingPool.sol\":265:7682  contract LendingPool is ReentrancyGuard... */\n  mstore(0x40, 0x80)\n    /* \"contracts/LendingPool.sol\":347:349  10 */\n  0x0a\n    /* \"contracts/LendingPool.sol\":313:349  uint256 public baseInterestRate = 10 */\n  0x01\n  sstore\n    /* \"contracts/LendingPool.sol\":1402:1423  constructor()... */\n  callvalue\n  dup1\n  iszero\n  tag_1\n  jumpi\n  0x00\n  dup1\n  revert\ntag_1:\n  pop\n    /* \"@openzeppelin/contracts/security/ReentrancyGuard.sol\":1716:1717  1 */\n  0x01\n    /* \"@openzeppelin/contracts/security/ReentrancyGuard.sol\":1821:1828  _status */\n  0x00\n    /* \"@openzeppelin/contracts/security/ReentrancyGuard.sol\":1821:1843  _status = _NOT_ENTERED */\n  dup2\n  swap1\n  sstore\n  pop\n    /* \"contracts/LendingPool.sol\":265:7682  contract LendingPool is ReentrancyGuard... */\n  dataSize(sub_0)\n  dup1\n  dataOffset(sub_0)\n  0x00\n  codecopy\n  0x00\n  return\nstop\n\nsub_0: assembly {\n        /* \"contracts/LendingPool.sol\":265:7682  contract LendingPool is ReentrancyGuard... */\n      mstore(0x40, 0x80)\n      jumpi(tag_1, lt(calldatasize, 0x04))\n      shr(0xe0, calldataload(0x00))\n      dup1\n      0x4b8a3529\n      gt\n      tag_21\n      jumpi\n      dup1\n      0xc6255626\n      gt\n      tag_22\n      jumpi\n      dup1\n      0xc6255626\n      eq\n      tag_16\n      jumpi\n      dup1\n      0xcc218ece\n      eq\n      tag_17\n      jumpi\n      dup1\n      0xd526fc2e\n      eq\n      tag_18\n      jumpi\n      dup1\n      0xe80894b6\n      eq\n      tag_19\n      jumpi\n      dup1\n      0xf970c3b7\n      eq\n      tag_20\n      jumpi\n      jump(tag_1)\n    tag_22:\n      dup1\n      0x4b8a3529\n      eq\n      tag_11\n      jumpi\n      dup1\n      0x664fa64e\n      eq\n      tag_12\n      jumpi\n      dup1\n      0x6805d6ad\n      eq\n      tag_13\n      jumpi\n      dup1\n      0x9ee7f702\n      eq\n      tag_14\n      jumpi\n      dup1\n      0xafd92762\n      eq\n      tag_15\n      jumpi\n      jump(tag_1)\n    tag_21:\n      dup1\n      0x2ae8bdfe\n      gt\n      tag_23\n      jumpi\n      dup1\n      0x2ae8bdfe\n      eq\n      tag_6\n      jumpi\n      dup1\n      0x34931b4b\n      eq\n      tag_7\n      jumpi\n      dup1\n      0x3b591d6a\n      eq\n      tag_8\n      jumpi\n      dup1\n      0x436d8039\n      eq\n      tag_9\n      jumpi\n      dup1\n      0x47e7ef24\n      eq\n      tag_10\n      jumpi\n      jump(tag_1)\n    tag_23:\n      dup1\n      0x22867d78\n      eq\n      tag_2\n      jumpi\n      dup1\n      0x234a14f9\n      eq\n      tag_3\n      jumpi\n      dup1\n      0x23d0fda1\n      eq\n      tag_4\n      jumpi\n      dup1\n      0x272d1b8e\n      eq\n      tag_5\n      jumpi\n    tag_1:\n      0x00\n      dup1\n      revert\n        /* \"contracts/LendingPool.sol\":3596:4722  function repay(address token, uint256 amount) public payable nonReentrant... */\n    tag_2:\n      tag_24\n      0x04\n      dup1\n      calldatasize\n      sub\n      dup2\n      add\n      swap1\n      tag_25\n      swap2\n      swap1\n      tag_26\n      jump\t// in\n    tag_25:\n      tag_27\n      jump\t// in\n    tag_24:\n      stop\n        /* \"contracts/LendingPool.sol\":582:650  mapping (address => mapping (address => uint256)) public userBorrows */\n    tag_3:\n      callvalue\n      dup1\n      iszero\n      tag_28\n      jumpi\n      0x00\n      dup1\n      revert\n    tag_28:\n      pop\n      tag_29\n      0x04\n      dup1\n      calldatasize\n      sub\n      dup2\n      add\n      swap1\n      tag_30\n      swap2\n      swap1\n      tag_31\n      jump\t// in\n    tag_30:\n      tag_32\n      jump\t// in\n    tag_29:\n      mload(0x40)\n      tag_33\n      swap2\n      swap1\n      tag_34\n      jump\t// in\n    tag_33:\n      mload(0x40)\n      dup1\n      swap2\n      sub\n      swap1\n      return\n        /* \"contracts/LendingPool.sol\":998:1053  mapping(address => uint256) public totalBorrowedperUser */\n    tag_4:\n      callvalue\n      dup1\n      iszero\n      tag_35\n      jumpi\n      0x00\n      dup1\n      revert\n    tag_35:\n      pop\n      tag_36\n      0x04\n      dup1\n      calldatasize\n      sub\n      dup2\n      add\n      swap1\n      tag_37\n      swap2\n      swap1\n      tag_38\n      jump\t// in\n    tag_37:\n      tag_39\n      jump\t// in\n    tag_36:\n      mload(0x40)\n      tag_40\n      swap2\n      swap1\n      tag_34\n      jump\t// in\n    tag_40:\n      mload(0x40)\n      dup1\n      swap2\n      sub\n      swap1\n      return\n        /* \"contracts/LendingPool.sol\":1266:1337  mapping(address => mapping(address => BorrowInfo)) public borrowedToken */\n    tag_5:\n      callvalue\n      dup1\n      iszero\n      tag_41\n      jumpi\n      0x00\n      dup1\n      revert\n    tag_41:\n      pop\n      tag_42\n      0x04\n      dup1\n      calldatasize\n      sub\n      dup2\n      add\n      swap1\n      tag_43\n      swap2\n      swap1\n      tag_31\n      jump\t// in\n    tag_43:\n      tag_44\n      jump\t// in\n    tag_42:\n      mload(0x40)\n      tag_45\n      swap4\n      swap3\n      swap2\n      swap1\n      tag_46\n      jump\t// in\n    tag_45:\n      mload(0x40)\n      dup1\n      swap2\n      sub\n      swap1\n      return\n        /* \"contracts/LendingPool.sol\":7231:7545  function withdrawCollateral(address token, address borrower, uint256 amount) public... */\n    tag_6:\n      callvalue\n      dup1\n      iszero\n      tag_47\n      jumpi\n      0x00\n      dup1\n      revert\n    tag_47:\n      pop\n      tag_48\n      0x04\n      dup1\n      calldatasize\n      sub\n      dup2\n      add\n      swap1\n      tag_49\n      swap2\n      swap1\n      tag_50\n      jump\t// in\n    tag_49:\n      tag_51\n      jump\t// in\n    tag_48:\n      stop\n        /* \"contracts/LendingPool.sol\":7031:7195  function calculateRequiredCollateral(uint256 borrowAmount) public pure returns(uint256)... */\n    tag_7:\n      callvalue\n      dup1\n      iszero\n      tag_52\n      jumpi\n      0x00\n      dup1\n      revert\n    tag_52:\n      pop\n      tag_53\n      0x04\n      dup1\n      calldatasize\n      sub\n      dup2\n      add\n      swap1\n      tag_54\n      swap2\n      swap1\n      tag_55\n      jump\t// in\n    tag_54:\n      tag_56\n      jump\t// in\n    tag_53:\n      mload(0x40)\n      tag_57\n      swap2\n      swap1\n      tag_34\n      jump\t// in\n    tag_57:\n      mload(0x40)\n      dup1\n      swap2\n      sub\n      swap1\n      return\n        /* \"contracts/LendingPool.sol\":6570:7023  function isSufficientCollateral(address user, address token, uint256 borrowAmount) public view returns(bool)... */\n    tag_8:\n      callvalue\n      dup1\n      iszero\n      tag_58\n      jumpi\n      0x00\n      dup1\n      revert\n    tag_58:\n      pop\n      tag_59\n      0x04\n      dup1\n      calldatasize\n      sub\n      dup2\n      add\n      swap1\n      tag_60\n      swap2\n      swap1\n      tag_50\n      jump\t// in\n    tag_60:\n      tag_61\n      jump\t// in\n    tag_59:\n      mload(0x40)\n      tag_62\n      swap2\n      swap1\n      tag_63\n      jump\t// in\n    tag_62:\n      mload(0x40)\n      dup1\n      swap2\n      sub\n      swap1\n      return\n        /* \"contracts/LendingPool.sol\":394:462  mapping (address => mapping(address => uint256)) public userDeposits */\n    tag_9:\n      callvalue\n      dup1\n      iszero\n      tag_64\n      jumpi\n      0x00\n      dup1\n      revert\n    tag_64:\n      pop\n      tag_65\n      0x04\n      dup1\n      calldatasize\n      sub\n      dup2\n      add\n      swap1\n      tag_66\n      swap2\n      swap1\n      tag_31\n      jump\t// in\n    tag_66:\n      tag_67\n      jump\t// in\n    tag_65:\n      mload(0x40)\n      tag_68\n      swap2\n      swap1\n      tag_34\n      jump\t// in\n    tag_68:\n      mload(0x40)\n      dup1\n      swap2\n      sub\n      swap1\n      return\n        /* \"contracts/LendingPool.sol\":1699:2079  function deposit(address token, uint256 amount) public payable ... */\n    tag_10:\n      tag_69\n      0x04\n      dup1\n      calldatasize\n      sub\n      dup2\n      add\n      swap1\n      tag_70\n      swap2\n      swap1\n      tag_26\n      jump\t// in\n    tag_70:\n      tag_71\n      jump\t// in\n    tag_69:\n      stop\n        /* \"contracts/LendingPool.sol\":2398:3588  function borrow(address token, uint256 amount) public payable nonReentrant... */\n    tag_11:\n      tag_72\n      0x04\n      dup1\n      calldatasize\n      sub\n      dup2\n      add\n      swap1\n      tag_73\n      swap2\n      swap1\n      tag_26\n      jump\t// in\n    tag_73:\n      tag_74\n      jump\t// in\n    tag_72:\n      stop\n        /* \"contracts/LendingPool.sol\":4773:5180  function calculateAccruedInterest(address token, address user) public view returns (uint256) {... */\n    tag_12:\n      callvalue\n      dup1\n      iszero\n      tag_75\n      jumpi\n      0x00\n      dup1\n      revert\n    tag_75:\n      pop\n      tag_76\n      0x04\n      dup1\n      calldatasize\n      sub\n      dup2\n      add\n      swap1\n      tag_77\n      swap2\n      swap1\n      tag_31\n      jump\t// in\n    tag_77:\n      tag_78\n      jump\t// in\n    tag_76:\n      mload(0x40)\n      tag_79\n      swap2\n      swap1\n      tag_34\n      jump\t// in\n    tag_79:\n      mload(0x40)\n      dup1\n      swap2\n      sub\n      swap1\n      return\n        /* \"contracts/LendingPool.sol\":2152:2337  function getUserBalance(address user, address token) public view returns(uint256)... */\n    tag_13:\n      callvalue\n      dup1\n      iszero\n      tag_80\n      jumpi\n      0x00\n      dup1\n      revert\n    tag_80:\n      pop\n      tag_81\n      0x04\n      dup1\n      calldatasize\n      sub\n      dup2\n      add\n      swap1\n      tag_82\n      swap2\n      swap1\n      tag_31\n      jump\t// in\n    tag_82:\n      tag_83\n      jump\t// in\n    tag_81:\n      mload(0x40)\n      tag_84\n      swap2\n      swap1\n      tag_34\n      jump\t// in\n    tag_84:\n      mload(0x40)\n      dup1\n      swap2\n      sub\n      swap1\n      return\n        /* \"contracts/LendingPool.sol\":7553:7679  function calculateInterestRate(address token, uint256 totalSupply, uint256 totalBorrows) public view returns (uint256)... */\n    tag_14:\n      callvalue\n      dup1\n      iszero\n      tag_85\n      jumpi\n      0x00\n      dup1\n      revert\n    tag_85:\n      pop\n      tag_86\n      0x04\n      dup1\n      calldatasize\n      sub\n      dup2\n      add\n      swap1\n      tag_87\n      swap2\n      swap1\n      tag_88\n      jump\t// in\n    tag_87:\n      tag_89\n      jump\t// in\n    tag_86:\n      mload(0x40)\n      tag_90\n      swap2\n      swap1\n      tag_34\n      jump\t// in\n    tag_90:\n      mload(0x40)\n      dup1\n      swap2\n      sub\n      swap1\n      return\n        /* \"contracts/LendingPool.sol\":313:349  uint256 public baseInterestRate = 10 */\n    tag_15:\n      callvalue\n      dup1\n      iszero\n      tag_91\n      jumpi\n      0x00\n      dup1\n      revert\n    tag_91:\n      pop\n      tag_92\n      tag_93\n      jump\t// in\n    tag_92:\n      mload(0x40)\n      tag_94\n      swap2\n      swap1\n      tag_34\n      jump\t// in\n    tag_94:\n      mload(0x40)\n      dup1\n      swap2\n      sub\n      swap1\n      return\n        /* \"contracts/LendingPool.sol\":512:544  address[] public supportedTokens */\n    tag_16:\n      callvalue\n      dup1\n      iszero\n      tag_95\n      jumpi\n      0x00\n      dup1\n      revert\n    tag_95:\n      pop\n      tag_96\n      0x04\n      dup1\n      calldatasize\n      sub\n      dup2\n      add\n      swap1\n      tag_97\n      swap2\n      swap1\n      tag_55\n      jump\t// in\n    tag_97:\n      tag_98\n      jump\t// in\n    tag_96:\n      mload(0x40)\n      tag_99\n      swap2\n      swap1\n      tag_100\n      jump\t// in\n    tag_99:\n      mload(0x40)\n      dup1\n      swap2\n      sub\n      swap1\n      return\n        /* \"contracts/LendingPool.sol\":746:811  mapping(address => mapping(address => uint256)) public collateral */\n    tag_17:\n      callvalue\n      dup1\n      iszero\n      tag_101\n      jumpi\n      0x00\n      dup1\n      revert\n    tag_101:\n      pop\n      tag_102\n      0x04\n      dup1\n      calldatasize\n      sub\n      dup2\n      add\n      swap1\n      tag_103\n      swap2\n      swap1\n      tag_31\n      jump\t// in\n    tag_103:\n      tag_104\n      jump\t// in\n    tag_102:\n      mload(0x40)\n      tag_105\n      swap2\n      swap1\n      tag_34\n      jump\t// in\n    tag_105:\n      mload(0x40)\n      dup1\n      swap2\n      sub\n      swap1\n      return\n        /* \"contracts/LendingPool.sol\":5239:6272  function calculateRepayableCollateral(uint256 repayAmount, uint256 accruedInterest) public view returns (uint256)... */\n    tag_18:\n      callvalue\n      dup1\n      iszero\n      tag_106\n      jumpi\n      0x00\n      dup1\n      revert\n    tag_106:\n      pop\n      tag_107\n      0x04\n      dup1\n      calldatasize\n      sub\n      dup2\n      add\n      swap1\n      tag_108\n      swap2\n      swap1\n      tag_109\n      jump\t// in\n    tag_108:\n      tag_110\n      jump\t// in\n    tag_107:\n      mload(0x40)\n      tag_111\n      swap2\n      swap1\n      tag_34\n      jump\t// in\n    tag_111:\n      mload(0x40)\n      dup1\n      swap2\n      sub\n      swap1\n      return\n        /* \"contracts/LendingPool.sol\":902:958  mapping(address => uint256) public totalBorrowedperToken */\n    tag_19:\n      callvalue\n      dup1\n      iszero\n      tag_112\n      jumpi\n      0x00\n      dup1\n      revert\n    tag_112:\n      pop\n      tag_113\n      0x04\n      dup1\n      calldatasize\n      sub\n      dup2\n      add\n      swap1\n      tag_114\n      swap2\n      swap1\n      tag_38\n      jump\t// in\n    tag_114:\n      tag_115\n      jump\t// in\n    tag_113:\n      mload(0x40)\n      tag_116\n      swap2\n      swap1\n      tag_34\n      jump\t// in\n    tag_116:\n      mload(0x40)\n      dup1\n      swap2\n      sub\n      swap1\n      return\n        /* \"contracts/LendingPool.sol\":6418:6562  function depositCollateral(address token, address borrower, uint256 amount) public... */\n    tag_20:\n      callvalue\n      dup1\n      iszero\n      tag_117\n      jumpi\n      0x00\n      dup1\n      revert\n    tag_117:\n      pop\n      tag_118\n      0x04\n      dup1\n      calldatasize\n      sub\n      dup2\n      add\n      swap1\n      tag_119\n      swap2\n      swap1\n      tag_50\n      jump\t// in\n    tag_119:\n      tag_120\n      jump\t// in\n    tag_118:\n      stop\n        /* \"contracts/LendingPool.sol\":3596:4722  function repay(address token, uint256 amount) public payable nonReentrant... */\n    tag_27:\n        /* \"@openzeppelin/contracts/security/ReentrancyGuard.sol\":2261:2282  _nonReentrantBefore() */\n      tag_122\n        /* \"@openzeppelin/contracts/security/ReentrancyGuard.sol\":2261:2280  _nonReentrantBefore */\n      tag_123\n        /* \"@openzeppelin/contracts/security/ReentrancyGuard.sol\":2261:2282  _nonReentrantBefore() */\n      jump\t// in\n    tag_122:\n        /* \"contracts/LendingPool.sol\":3703:3704  0 */\n      0x00\n        /* \"contracts/LendingPool.sol\":3694:3700  amount */\n      dup2\n        /* \"contracts/LendingPool.sol\":3694:3704  amount > 0 */\n      gt\n        /* \"contracts/LendingPool.sol\":3686:3751  require(amount > 0, \"Repayment amount must be greater than zero\") */\n      tag_125\n      jumpi\n      mload(0x40)\n      0x08c379a000000000000000000000000000000000000000000000000000000000\n      dup2\n      mstore\n      0x04\n      add\n      tag_126\n      swap1\n      tag_127\n      jump\t// in\n    tag_126:\n      mload(0x40)\n      dup1\n      swap2\n      sub\n      swap1\n      revert\n    tag_125:\n        /* \"contracts/LendingPool.sol\":3858:3864  amount */\n      dup1\n        /* \"contracts/LendingPool.sol\":3824:3835  userBorrows */\n      0x04\n        /* \"contracts/LendingPool.sol\":3824:3842  userBorrows[token] */\n      0x00\n        /* \"contracts/LendingPool.sol\":3836:3841  token */\n      dup5\n        /* \"contracts/LendingPool.sol\":3824:3842  userBorrows[token] */\n      0xffffffffffffffffffffffffffffffffffffffff\n      and\n      0xffffffffffffffffffffffffffffffffffffffff\n      and\n      dup2\n      mstore\n      0x20\n      add\n      swap1\n      dup2\n      mstore\n      0x20\n      add\n      0x00\n      keccak256\n        /* \"contracts/LendingPool.sol\":3824:3854  userBorrows[token][msg.sender] */\n      0x00\n        /* \"contracts/LendingPool.sol\":3843:3853  msg.sender */\n      caller\n        /* \"contracts/LendingPool.sol\":3824:3854  userBorrows[token][msg.sender] */\n      0xffffffffffffffffffffffffffffffffffffffff\n      and\n      0xffffffffffffffffffffffffffffffffffffffff\n      and\n      dup2\n      mstore\n      0x20\n      add\n      swap1\n      dup2\n      mstore\n      0x20\n      add\n      0x00\n      keccak256\n      0x00\n        /* \"contracts/LendingPool.sol\":3824:3864  userBorrows[token][msg.sender] -= amount */\n      dup3\n      dup3\n      sload\n      tag_128\n      swap2\n      swap1\n      tag_129\n      jump\t// in\n    tag_128:\n      swap3\n      pop\n      pop\n      dup2\n      swap1\n      sstore\n      pop\n        /* \"contracts/LendingPool.sol\":3907:3913  amount */\n      dup1\n        /* \"contracts/LendingPool.sol\":3875:3896  totalBorrowedperToken */\n      0x06\n        /* \"contracts/LendingPool.sol\":3875:3903  totalBorrowedperToken[token] */\n      0x00\n        /* \"contracts/LendingPool.sol\":3897:3902  token */\n      dup5\n        /* \"contracts/LendingPool.sol\":3875:3903  totalBorrowedperToken[token] */\n      0xffffffffffffffffffffffffffffffffffffffff\n      and\n      0xffffffffffffffffffffffffffffffffffffffff\n      and\n      dup2\n      mstore\n      0x20\n      add\n      swap1\n      dup2\n      mstore\n      0x20\n      add\n      0x00\n      keccak256\n      0x00\n        /* \"contracts/LendingPool.sol\":3875:3913  totalBorrowedperToken[token] -= amount */\n      dup3\n      dup3\n      sload\n      tag_130\n      swap2\n      swap1\n      tag_129\n      jump\t// in\n    tag_130:\n      swap3\n      pop\n      pop\n      dup2\n      swap1\n      sstore\n      pop\n        /* \"contracts/LendingPool.sol\":3960:3966  amount */\n      dup1\n        /* \"contracts/LendingPool.sol\":3924:3944  totalBorrowedperUser */\n      0x07\n        /* \"contracts/LendingPool.sol\":3924:3956  totalBorrowedperUser[msg.sender] */\n      0x00\n        /* \"contracts/LendingPool.sol\":3945:3955  msg.sender */\n      caller\n        /* \"contracts/LendingPool.sol\":3924:3956  totalBorrowedperUser[msg.sender] */\n      0xffffffffffffffffffffffffffffffffffffffff\n      and\n      0xffffffffffffffffffffffffffffffffffffffff\n      and\n      dup2\n      mstore\n      0x20\n      add\n      swap1\n      dup2\n      mstore\n      0x20\n      add\n      0x00\n      keccak256\n      0x00\n        /* \"contracts/LendingPool.sol\":3924:3966  totalBorrowedperUser[msg.sender] -= amount */\n      dup3\n      dup3\n      sload\n      tag_131\n      swap2\n      swap1\n      tag_129\n      jump\t// in\n    tag_131:\n      swap3\n      pop\n      pop\n      dup2\n      swap1\n      sstore\n      pop\n        /* \"contracts/LendingPool.sol\":4018:4041  uint256 accruedInterest */\n      0x00\n        /* \"contracts/LendingPool.sol\":4044:4087  calculateAccruedInterest(token, msg.sender) */\n      tag_132\n        /* \"contracts/LendingPool.sol\":4069:4074  token */\n      dup4\n        /* \"contracts/LendingPool.sol\":4076:4086  msg.sender */\n      caller\n        /* \"contracts/LendingPool.sol\":4044:4068  calculateAccruedInterest */\n      tag_78\n        /* \"contracts/LendingPool.sol\":4044:4087  calculateAccruedInterest(token, msg.sender) */\n      jump\t// in\n    tag_132:\n        /* \"contracts/LendingPool.sol\":4018:4087  uint256 accruedInterest = calculateAccruedInterest(token, msg.sender) */\n      swap1\n      pop\n        /* \"contracts/LendingPool.sol\":4184:4199  accruedInterest */\n      dup1\n        /* \"contracts/LendingPool.sol\":4175:4181  amount */\n      dup3\n        /* \"contracts/LendingPool.sol\":4175:4199  amount + accruedInterest */\n      tag_133\n      swap2\n      swap1\n      tag_134\n      jump\t// in\n    tag_133:\n        /* \"contracts/LendingPool.sol\":4141:4152  userBorrows */\n      0x04\n        /* \"contracts/LendingPool.sol\":4141:4159  userBorrows[token] */\n      0x00\n        /* \"contracts/LendingPool.sol\":4153:4158  token */\n      dup6\n        /* \"contracts/LendingPool.sol\":4141:4159  userBorrows[token] */\n      0xffffffffffffffffffffffffffffffffffffffff\n      and\n      0xffffffffffffffffffffffffffffffffffffffff\n      and\n      dup2\n      mstore\n      0x20\n      add\n      swap1\n      dup2\n      mstore\n      0x20\n      add\n      0x00\n      keccak256\n        /* \"contracts/LendingPool.sol\":4141:4171  userBorrows[token][msg.sender] */\n      0x00\n        /* \"contracts/LendingPool.sol\":4160:4170  msg.sender */\n      caller\n        /* \"contracts/LendingPool.sol\":4141:4171  userBorrows[token][msg.sender] */\n      0xffffffffffffffffffffffffffffffffffffffff\n      and\n      0xffffffffffffffffffffffffffffffffffffffff\n      and\n      dup2\n      mstore\n      0x20\n      add\n      swap1\n      dup2\n      mstore\n      0x20\n      add\n      0x00\n      keccak256\n      sload\n        /* \"contracts/LendingPool.sol\":4141:4199  userBorrows[token][msg.sender] >= amount + accruedInterest */\n      lt\n      iszero\n        /* \"contracts/LendingPool.sol\":4133:4242  require(userBorrows[token][msg.sender] >= amount + accruedInterest, \"Repayment amount exceeds borrow amount\") */\n      tag_135\n      jumpi\n      mload(0x40)\n      0x08c379a000000000000000000000000000000000000000000000000000000000\n      dup2\n      mstore\n      0x04\n      add\n      tag_136\n      swap1\n      tag_137\n      jump\t// in\n    tag_136:\n      mload(0x40)\n      dup1\n      swap2\n      sub\n      swap1\n      revert\n    tag_135:\n        /* \"contracts/LendingPool.sol\":4390:4399  msg.value */\n      callvalue\n        /* \"contracts/LendingPool.sol\":4371:4386  accruedInterest */\n      dup2\n        /* \"contracts/LendingPool.sol\":4362:4368  amount */\n      dup4\n        /* \"contracts/LendingPool.sol\":4362:4386  amount + accruedInterest */\n      tag_138\n      swap2\n      swap1\n      tag_134\n      jump\t// in\n    tag_138:\n        /* \"contracts/LendingPool.sol\":4362:4399  amount + accruedInterest >= msg.value */\n      lt\n      iszero\n        /* \"contracts/LendingPool.sol\":4354:4457  require(amount + accruedInterest >= msg.value, \"Insufficient funds for repayment and accrued interest\") */\n      tag_139\n      jumpi\n      mload(0x40)\n      0x08c379a000000000000000000000000000000000000000000000000000000000\n      dup2\n      mstore\n      0x04\n      add\n      tag_140\n      swap1\n      tag_141\n      jump\t// in\n    tag_140:\n      mload(0x40)\n      dup1\n      swap2\n      sub\n      swap1\n      revert\n    tag_139:\n        /* \"contracts/LendingPool.sol\":4547:4556  msg.value */\n      callvalue\n        /* \"contracts/LendingPool.sol\":4529:4544  accruedInterest */\n      dup2\n        /* \"contracts/LendingPool.sol\":4520:4526  amount */\n      dup4\n        /* \"contracts/LendingPool.sol\":4520:4544  amount + accruedInterest */\n      tag_142\n      swap2\n      swap1\n      tag_134\n      jump\t// in\n    tag_142:\n        /* \"contracts/LendingPool.sol\":4520:4556  amount + accruedInterest > msg.value */\n      gt\n        /* \"contracts/LendingPool.sol\":4517:4658  if(amount + accruedInterest > msg.value)... */\n      iszero\n      tag_143\n      jumpi\n        /* \"contracts/LendingPool.sol\":4590:4600  msg.sender */\n      caller\n        /* \"contracts/LendingPool.sol\":4582:4610  payable(msg.sender).transfer */\n      0xffffffffffffffffffffffffffffffffffffffff\n      and\n        /* \"contracts/LendingPool.sol\":4582:4646  payable(msg.sender).transfer(amount+accruedInterest - msg.value) */\n      0x08fc\n        /* \"contracts/LendingPool.sol\":4636:4645  msg.value */\n      callvalue\n        /* \"contracts/LendingPool.sol\":4618:4633  accruedInterest */\n      dup4\n        /* \"contracts/LendingPool.sol\":4611:4617  amount */\n      dup6\n        /* \"contracts/LendingPool.sol\":4611:4633  amount+accruedInterest */\n      tag_144\n      swap2\n      swap1\n      tag_134\n      jump\t// in\n    tag_144:\n        /* \"contracts/LendingPool.sol\":4611:4645  amount+accruedInterest - msg.value */\n      tag_145\n      swap2\n      swap1\n      tag_129\n      jump\t// in\n    tag_145:\n        /* \"contracts/LendingPool.sol\":4582:4646  payable(msg.sender).transfer(amount+accruedInterest - msg.value) */\n      swap1\n      dup2\n      iszero\n      mul\n      swap1\n      mload(0x40)\n      0x00\n      mload(0x40)\n      dup1\n      dup4\n      sub\n      dup2\n      dup6\n      dup9\n      dup9\n      call\n      swap4\n      pop\n      pop\n      pop\n      pop\n      iszero\n      dup1\n      iszero\n      tag_147\n      jumpi\n      returndatasize\n      0x00\n      dup1\n      returndatacopy\n      revert(0x00, returndatasize)\n    tag_147:\n      pop\n        /* \"contracts/LendingPool.sol\":4517:4658  if(amount + accruedInterest > msg.value)... */\n    tag_143:\n        /* \"contracts/LendingPool.sol\":3675:4722  {... */\n      pop\n        /* \"@openzeppelin/contracts/security/ReentrancyGuard.sol\":2303:2323  _nonReentrantAfter() */\n      tag_148\n        /* \"@openzeppelin/contracts/security/ReentrancyGuard.sol\":2303:2321  _nonReentrantAfter */\n      tag_149\n        /* \"@openzeppelin/contracts/security/ReentrancyGuard.sol\":2303:2323  _nonReentrantAfter() */\n      jump\t// in\n    tag_148:\n        /* \"contracts/LendingPool.sol\":3596:4722  function repay(address token, uint256 amount) public payable nonReentrant... */\n      pop\n      pop\n      jump\t// out\n        /* \"contracts/LendingPool.sol\":582:650  mapping (address => mapping (address => uint256)) public userBorrows */\n    tag_32:\n      mstore(0x20, 0x04)\n      dup2\n      0x00\n      mstore\n      mstore(0x20, keccak256(0x00, 0x40))\n      dup1\n      0x00\n      mstore\n      keccak256(0x00, 0x40)\n      0x00\n      swap2\n      pop\n      swap2\n      pop\n      pop\n      sload\n      dup2\n      jump\t// out\n        /* \"contracts/LendingPool.sol\":998:1053  mapping(address => uint256) public totalBorrowedperUser */\n    tag_39:\n      mstore(0x20, 0x07)\n      dup1\n      0x00\n      mstore\n      keccak256(0x00, 0x40)\n      0x00\n      swap2\n      pop\n      swap1\n      pop\n      sload\n      dup2\n      jump\t// out\n        /* \"contracts/LendingPool.sol\":1266:1337  mapping(address => mapping(address => BorrowInfo)) public borrowedToken */\n    tag_44:\n      mstore(0x20, 0x08)\n      dup2\n      0x00\n      mstore\n      mstore(0x20, keccak256(0x00, 0x40))\n      dup1\n      0x00\n      mstore\n      keccak256(0x00, 0x40)\n      0x00\n      swap2\n      pop\n      swap2\n      pop\n      pop\n      dup1\n      0x00\n      add\n      sload\n      swap1\n      dup1\n      0x01\n      add\n      sload\n      swap1\n      dup1\n      0x02\n      add\n      sload\n      swap1\n      pop\n      dup4\n      jump\t// out\n        /* \"contracts/LendingPool.sol\":7231:7545  function withdrawCollateral(address token, address borrower, uint256 amount) public... */\n    tag_51:\n        /* \"contracts/LendingPool.sol\":7443:7449  amount */\n      dup1\n        /* \"contracts/LendingPool.sol\":7412:7422  collateral */\n      0x05\n        /* \"contracts/LendingPool.sol\":7412:7429  collateral[token] */\n      0x00\n        /* \"contracts/LendingPool.sol\":7423:7428  token */\n      dup6\n        /* \"contracts/LendingPool.sol\":7412:7429  collateral[token] */\n      0xffffffffffffffffffffffffffffffffffffffff\n      and\n      0xffffffffffffffffffffffffffffffffffffffff\n      and\n      dup2\n      mstore\n      0x20\n      add\n      swap1\n      dup2\n      mstore\n      0x20\n      add\n      0x00\n      keccak256\n        /* \"contracts/LendingPool.sol\":7412:7439  collateral[token][borrower] */\n      0x00\n        /* \"contracts/LendingPool.sol\":7430:7438  borrower */\n      dup5\n        /* \"contracts/LendingPool.sol\":7412:7439  collateral[token][borrower] */\n      0xffffffffffffffffffffffffffffffffffffffff\n      and\n      0xffffffffffffffffffffffffffffffffffffffff\n      and\n      dup2\n      mstore\n      0x20\n      add\n      swap1\n      dup2\n      mstore\n      0x20\n      add\n      0x00\n      keccak256\n      sload\n        /* \"contracts/LendingPool.sol\":7412:7449  collateral[token][borrower] >= amount */\n      lt\n      iszero\n        /* \"contracts/LendingPool.sol\":7404:7489  require(collateral[token][borrower] >= amount, \"Insufficient collateral to withdraw\") */\n      tag_151\n      jumpi\n      mload(0x40)\n      0x08c379a000000000000000000000000000000000000000000000000000000000\n      dup2\n      mstore\n      0x04\n      add\n      tag_152\n      swap1\n      tag_153\n      jump\t// in\n    tag_152:\n      mload(0x40)\n      dup1\n      swap2\n      sub\n      swap1\n      revert\n    tag_151:\n        /* \"contracts/LendingPool.sol\":7531:7537  amount */\n      dup1\n        /* \"contracts/LendingPool.sol\":7500:7510  collateral */\n      0x05\n        /* \"contracts/LendingPool.sol\":7500:7517  collateral[token] */\n      0x00\n        /* \"contracts/LendingPool.sol\":7511:7516  token */\n      dup6\n        /* \"contracts/LendingPool.sol\":7500:7517  collateral[token] */\n      0xffffffffffffffffffffffffffffffffffffffff\n      and\n      0xffffffffffffffffffffffffffffffffffffffff\n      and\n      dup2\n      mstore\n      0x20\n      add\n      swap1\n      dup2\n      mstore\n      0x20\n      add\n      0x00\n      keccak256\n        /* \"contracts/LendingPool.sol\":7500:7527  collateral[token][borrower] */\n      0x00\n        /* \"contracts/LendingPool.sol\":7518:7526  borrower */\n      dup5\n        /* \"contracts/LendingPool.sol\":7500:7527  collateral[token][borrower] */\n      0xffffffffffffffffffffffffffffffffffffffff\n      and\n      0xffffffffffffffffffffffffffffffffffffffff\n      and\n      dup2\n      mstore\n      0x20\n      add\n      swap1\n      dup2\n      mstore\n      0x20\n      add\n      0x00\n      keccak256\n      0x00\n        /* \"contracts/LendingPool.sol\":7500:7537  collateral[token][borrower] -= amount */\n      dup3\n      dup3\n      sload\n      tag_154\n      swap2\n      swap1\n      tag_129\n      jump\t// in\n    tag_154:\n      swap3\n      pop\n      pop\n      dup2\n      swap1\n      sstore\n      pop\n        /* \"contracts/LendingPool.sol\":7231:7545  function withdrawCollateral(address token, address borrower, uint256 amount) public... */\n      pop\n      pop\n      pop\n      jump\t// out\n        /* \"contracts/LendingPool.sol\":7031:7195  function calculateRequiredCollateral(uint256 borrowAmount) public pure returns(uint256)... */\n    tag_56:\n        /* \"contracts/LendingPool.sol\":7110:7117  uint256 */\n      0x00\n        /* \"contracts/LendingPool.sol\":7157:7187  OVER_COLLATERALIZATION_RATIO() */\n      tag_156\n        /* \"contracts/LendingPool.sol\":7157:7185  OVER_COLLATERALIZATION_RATIO */\n      tag_157\n        /* \"contracts/LendingPool.sol\":7157:7187  OVER_COLLATERALIZATION_RATIO() */\n      jump\t// in\n    tag_156:\n        /* \"contracts/LendingPool.sol\":7142:7154  borrowAmount */\n      dup3\n        /* \"contracts/LendingPool.sol\":7142:7187  borrowAmount * OVER_COLLATERALIZATION_RATIO() */\n      tag_158\n      swap2\n      swap1\n      tag_159\n      jump\t// in\n    tag_158:\n        /* \"contracts/LendingPool.sol\":7135:7187  return borrowAmount * OVER_COLLATERALIZATION_RATIO() */\n      swap1\n      pop\n        /* \"contracts/LendingPool.sol\":7031:7195  function calculateRequiredCollateral(uint256 borrowAmount) public pure returns(uint256)... */\n      swap2\n      swap1\n      pop\n      jump\t// out\n        /* \"contracts/LendingPool.sol\":6570:7023  function isSufficientCollateral(address user, address token, uint256 borrowAmount) public view returns(bool)... */\n    tag_61:\n        /* \"contracts/LendingPool.sol\":6673:6677  bool */\n      0x00\n        /* \"contracts/LendingPool.sol\":6695:6720  uint256 totalUserDeposits */\n      dup1\n        /* \"contracts/LendingPool.sol\":6723:6724  0 */\n      0x00\n        /* \"contracts/LendingPool.sol\":6695:6724  uint256 totalUserDeposits = 0 */\n      swap1\n      pop\n        /* \"contracts/LendingPool.sol\":6739:6748  uint256 i */\n      0x00\n        /* \"contracts/LendingPool.sol\":6735:6878  for(uint256 i=0; i<supportedTokens.length; i++)... */\n    tag_161:\n        /* \"contracts/LendingPool.sol\":6754:6769  supportedTokens */\n      0x03\n        /* \"contracts/LendingPool.sol\":6754:6776  supportedTokens.length */\n      dup1\n      sload\n      swap1\n      pop\n        /* \"contracts/LendingPool.sol\":6752:6753  i */\n      dup2\n        /* \"contracts/LendingPool.sol\":6752:6776  i<supportedTokens.length */\n      lt\n        /* \"contracts/LendingPool.sol\":6735:6878  for(uint256 i=0; i<supportedTokens.length; i++)... */\n      iszero\n      tag_162\n      jumpi\n        /* \"contracts/LendingPool.sol\":6828:6840  userDeposits */\n      0x02\n        /* \"contracts/LendingPool.sol\":6828:6860  userDeposits[supportedTokens[i]] */\n      0x00\n        /* \"contracts/LendingPool.sol\":6841:6856  supportedTokens */\n      0x03\n        /* \"contracts/LendingPool.sol\":6857:6858  i */\n      dup4\n        /* \"contracts/LendingPool.sol\":6841:6859  supportedTokens[i] */\n      dup2\n      sload\n      dup2\n      lt\n      tag_164\n      jumpi\n      tag_165\n      tag_166\n      jump\t// in\n    tag_165:\n    tag_164:\n      swap1\n      0x00\n      mstore\n      keccak256(0x00, 0x20)\n      add\n      0x00\n      swap1\n      sload\n      swap1\n      0x0100\n      exp\n      swap1\n      div\n      0xffffffffffffffffffffffffffffffffffffffff\n      and\n        /* \"contracts/LendingPool.sol\":6828:6860  userDeposits[supportedTokens[i]] */\n      0xffffffffffffffffffffffffffffffffffffffff\n      and\n      0xffffffffffffffffffffffffffffffffffffffff\n      and\n      dup2\n      mstore\n      0x20\n      add\n      swap1\n      dup2\n      mstore\n      0x20\n      add\n      0x00\n      keccak256\n        /* \"contracts/LendingPool.sol\":6828:6866  userDeposits[supportedTokens[i]][user] */\n      0x00\n        /* \"contracts/LendingPool.sol\":6861:6865  user */\n      dup8\n        /* \"contracts/LendingPool.sol\":6828:6866  userDeposits[supportedTokens[i]][user] */\n      0xffffffffffffffffffffffffffffffffffffffff\n      and\n      0xffffffffffffffffffffffffffffffffffffffff\n      and\n      dup2\n      mstore\n      0x20\n      add\n      swap1\n      dup2\n      mstore\n      0x20\n      add\n      0x00\n      keccak256\n      sload\n        /* \"contracts/LendingPool.sol\":6807:6866  totalUserDeposits += userDeposits[supportedTokens[i]][user] */\n      dup3\n      tag_168\n      swap2\n      swap1\n      tag_134\n      jump\t// in\n    tag_168:\n      swap2\n      pop\n        /* \"contracts/LendingPool.sol\":6778:6781  i++ */\n      dup1\n      dup1\n      0x01\n      add\n      swap2\n      pop\n      pop\n        /* \"contracts/LendingPool.sol\":6735:6878  for(uint256 i=0; i<supportedTokens.length; i++)... */\n      jump(tag_161)\n    tag_162:\n      pop\n        /* \"contracts/LendingPool.sol\":6888:6914  uint256 requiredCollateral */\n      0x00\n        /* \"contracts/LendingPool.sol\":6917:6958  calculateRequiredCollateral(borrowAmount) */\n      tag_169\n        /* \"contracts/LendingPool.sol\":6945:6957  borrowAmount */\n      dup5\n        /* \"contracts/LendingPool.sol\":6917:6944  calculateRequiredCollateral */\n      tag_56\n        /* \"contracts/LendingPool.sol\":6917:6958  calculateRequiredCollateral(borrowAmount) */\n      jump\t// in\n    tag_169:\n        /* \"contracts/LendingPool.sol\":6888:6958  uint256 requiredCollateral = calculateRequiredCollateral(borrowAmount) */\n      swap1\n      pop\n        /* \"contracts/LendingPool.sol\":6997:7015  requiredCollateral */\n      dup1\n        /* \"contracts/LendingPool.sol\":6976:6993  totalUserDeposits */\n      dup3\n        /* \"contracts/LendingPool.sol\":6976:7015  totalUserDeposits >= requiredCollateral */\n      lt\n      iszero\n        /* \"contracts/LendingPool.sol\":6969:7015  return totalUserDeposits >= requiredCollateral */\n      swap3\n      pop\n      pop\n      pop\n        /* \"contracts/LendingPool.sol\":6570:7023  function isSufficientCollateral(address user, address token, uint256 borrowAmount) public view returns(bool)... */\n      swap4\n      swap3\n      pop\n      pop\n      pop\n      jump\t// out\n        /* \"contracts/LendingPool.sol\":394:462  mapping (address => mapping(address => uint256)) public userDeposits */\n    tag_67:\n      mstore(0x20, 0x02)\n      dup2\n      0x00\n      mstore\n      mstore(0x20, keccak256(0x00, 0x40))\n      dup1\n      0x00\n      mstore\n      keccak256(0x00, 0x40)\n      0x00\n      swap2\n      pop\n      swap2\n      pop\n      pop\n      sload\n      dup2\n      jump\t// out\n        /* \"contracts/LendingPool.sol\":1699:2079  function deposit(address token, uint256 amount) public payable ... */\n    tag_71:\n        /* \"contracts/LendingPool.sol\":1796:1797  0 */\n      0x00\n        /* \"contracts/LendingPool.sol\":1787:1793  amount */\n      dup2\n        /* \"contracts/LendingPool.sol\":1787:1797  amount > 0 */\n      gt\n        /* \"contracts/LendingPool.sol\":1779:1842  require(amount > 0, \"Deposit amount must be greater than zero\") */\n      tag_171\n      jumpi\n      mload(0x40)\n      0x08c379a000000000000000000000000000000000000000000000000000000000\n      dup2\n      mstore\n      0x04\n      add\n      tag_172\n      swap1\n      tag_173\n      jump\t// in\n    tag_172:\n      mload(0x40)\n      dup1\n      swap2\n      sub\n      swap1\n      revert\n    tag_171:\n        /* \"contracts/LendingPool.sol\":1910:1915  token */\n      dup2\n        /* \"contracts/LendingPool.sol\":1903:1929  IERC20(token).transferFrom */\n      0xffffffffffffffffffffffffffffffffffffffff\n      and\n      0x23b872dd\n        /* \"contracts/LendingPool.sol\":1930:1940  msg.sender */\n      caller\n        /* \"contracts/LendingPool.sol\":1950:1954  this */\n      address\n        /* \"contracts/LendingPool.sol\":1957:1963  amount */\n      dup5\n        /* \"contracts/LendingPool.sol\":1903:1964  IERC20(token).transferFrom(msg.sender, address(this), amount) */\n      mload(0x40)\n      dup5\n      0xffffffff\n      and\n      0xe0\n      shl\n      dup2\n      mstore\n      0x04\n      add\n      tag_174\n      swap4\n      swap3\n      swap2\n      swap1\n      tag_175\n      jump\t// in\n    tag_174:\n      0x20\n      mload(0x40)\n      dup1\n      dup4\n      sub\n      dup2\n      0x00\n      dup8\n      gas\n      call\n      iszero\n      dup1\n      iszero\n      tag_177\n      jumpi\n      returndatasize\n      0x00\n      dup1\n      returndatacopy\n      revert(0x00, returndatasize)\n    tag_177:\n      pop\n      pop\n      pop\n      pop\n      mload(0x40)\n      returndatasize\n      not(0x1f)\n      0x1f\n      dup3\n      add\n      and\n      dup3\n      add\n      dup1\n      0x40\n      mstore\n      pop\n      dup2\n      add\n      swap1\n      tag_178\n      swap2\n      swap1\n      tag_179\n      jump\t// in\n    tag_178:\n      pop\n        /* \"contracts/LendingPool.sol\":2011:2017  amount */\n      dup1\n        /* \"contracts/LendingPool.sol\":1976:1988  userDeposits */\n      0x02\n        /* \"contracts/LendingPool.sol\":1976:1995  userDeposits[token] */\n      0x00\n        /* \"contracts/LendingPool.sol\":1989:1994  token */\n      dup5\n        /* \"contracts/LendingPool.sol\":1976:1995  userDeposits[token] */\n      0xffffffffffffffffffffffffffffffffffffffff\n      and\n      0xffffffffffffffffffffffffffffffffffffffff\n      and\n      dup2\n      mstore\n      0x20\n      add\n      swap1\n      dup2\n      mstore\n      0x20\n      add\n      0x00\n      keccak256\n        /* \"contracts/LendingPool.sol\":1976:2007  userDeposits[token][msg.sender] */\n      0x00\n        /* \"contracts/LendingPool.sol\":1996:2006  msg.sender */\n      caller\n        /* \"contracts/LendingPool.sol\":1976:2007  userDeposits[token][msg.sender] */\n      0xffffffffffffffffffffffffffffffffffffffff\n      and\n      0xffffffffffffffffffffffffffffffffffffffff\n      and\n      dup2\n      mstore\n      0x20\n      add\n      swap1\n      dup2\n      mstore\n      0x20\n      add\n      0x00\n      keccak256\n      0x00\n        /* \"contracts/LendingPool.sol\":1976:2017  userDeposits[token][msg.sender] += amount */\n      dup3\n      dup3\n      sload\n      tag_180\n      swap2\n      swap1\n      tag_134\n      jump\t// in\n    tag_180:\n      swap3\n      pop\n      pop\n      dup2\n      swap1\n      sstore\n      pop\n        /* \"contracts/LendingPool.sol\":2052:2062  msg.sender */\n      caller\n        /* \"contracts/LendingPool.sol\":2033:2071  DepositMade(token, msg.sender, amount) */\n      0xffffffffffffffffffffffffffffffffffffffff\n      and\n        /* \"contracts/LendingPool.sol\":2045:2050  token */\n      dup3\n        /* \"contracts/LendingPool.sol\":2033:2071  DepositMade(token, msg.sender, amount) */\n      0xffffffffffffffffffffffffffffffffffffffff\n      and\n      0x1de3ece35391f6bba650736f2d5d3f12e2cfc54538a340cc5d762d34ca449de7\n        /* \"contracts/LendingPool.sol\":2064:2070  amount */\n      dup4\n        /* \"contracts/LendingPool.sol\":2033:2071  DepositMade(token, msg.sender, amount) */\n      mload(0x40)\n      tag_181\n      swap2\n      swap1\n      tag_34\n      jump\t// in\n    tag_181:\n      mload(0x40)\n      dup1\n      swap2\n      sub\n      swap1\n      log3\n        /* \"contracts/LendingPool.sol\":1699:2079  function deposit(address token, uint256 amount) public payable ... */\n      pop\n      pop\n      jump\t// out\n        /* \"contracts/LendingPool.sol\":2398:3588  function borrow(address token, uint256 amount) public payable nonReentrant... */\n    tag_74:\n        /* \"@openzeppelin/contracts/security/ReentrancyGuard.sol\":2261:2282  _nonReentrantBefore() */\n      tag_183\n        /* \"@openzeppelin/contracts/security/ReentrancyGuard.sol\":2261:2280  _nonReentrantBefore */\n      tag_123\n        /* \"@openzeppelin/contracts/security/ReentrancyGuard.sol\":2261:2282  _nonReentrantBefore() */\n      jump\t// in\n    tag_183:\n        /* \"contracts/LendingPool.sol\":2506:2507  0 */\n      0x00\n        /* \"contracts/LendingPool.sol\":2497:2503  amount */\n      dup2\n        /* \"contracts/LendingPool.sol\":2497:2507  amount > 0 */\n      gt\n        /* \"contracts/LendingPool.sol\":2489:2551  require(amount > 0, \"Borrow amount must be greater than zero\") */\n      tag_185\n      jumpi\n      mload(0x40)\n      0x08c379a000000000000000000000000000000000000000000000000000000000\n      dup2\n      mstore\n      0x04\n      add\n      tag_186\n      swap1\n      tag_187\n      jump\t// in\n    tag_186:\n      mload(0x40)\n      dup1\n      swap2\n      sub\n      swap1\n      revert\n    tag_185:\n        /* \"contracts/LendingPool.sol\":2570:2619  isSufficientCollateral(msg.sender, token, amount) */\n      tag_188\n        /* \"contracts/LendingPool.sol\":2593:2603  msg.sender */\n      caller\n        /* \"contracts/LendingPool.sol\":2605:2610  token */\n      dup4\n        /* \"contracts/LendingPool.sol\":2612:2618  amount */\n      dup4\n        /* \"contracts/LendingPool.sol\":2570:2592  isSufficientCollateral */\n      tag_61\n        /* \"contracts/LendingPool.sol\":2570:2619  isSufficientCollateral(msg.sender, token, amount) */\n      jump\t// in\n    tag_188:\n        /* \"contracts/LendingPool.sol\":2562:2647  require(isSufficientCollateral(msg.sender, token, amount), \"Insufficient collateral\") */\n      tag_189\n      jumpi\n      mload(0x40)\n      0x08c379a000000000000000000000000000000000000000000000000000000000\n      dup2\n      mstore\n      0x04\n      add\n      tag_190\n      swap1\n      tag_191\n      jump\t// in\n    tag_190:\n      mload(0x40)\n      dup1\n      swap2\n      sub\n      swap1\n      revert\n    tag_189:\n        /* \"contracts/LendingPool.sol\":2708:2714  amount */\n      dup1\n        /* \"contracts/LendingPool.sol\":2673:2678  token */\n      dup3\n        /* \"contracts/LendingPool.sol\":2666:2689  IERC20(token).balanceOf */\n      0xffffffffffffffffffffffffffffffffffffffff\n      and\n      0x70a08231\n        /* \"contracts/LendingPool.sol\":2698:2702  this */\n      address\n        /* \"contracts/LendingPool.sol\":2666:2704  IERC20(token).balanceOf(address(this)) */\n      mload(0x40)\n      dup3\n      0xffffffff\n      and\n      0xe0\n      shl\n      dup2\n      mstore\n      0x04\n      add\n      tag_192\n      swap2\n      swap1\n      tag_100\n      jump\t// in\n    tag_192:\n      0x20\n      mload(0x40)\n      dup1\n      dup4\n      sub\n      dup2\n      dup7\n      gas\n      staticcall\n      iszero\n      dup1\n      iszero\n      tag_194\n      jumpi\n      returndatasize\n      0x00\n      dup1\n      returndatacopy\n      revert(0x00, returndatasize)\n    tag_194:\n      pop\n      pop\n      pop\n      pop\n      mload(0x40)\n      returndatasize\n      not(0x1f)\n      0x1f\n      dup3\n      add\n      and\n      dup3\n      add\n      dup1\n      0x40\n      mstore\n      pop\n      dup2\n      add\n      swap1\n      tag_195\n      swap2\n      swap1\n      tag_196\n      jump\t// in\n    tag_195:\n        /* \"contracts/LendingPool.sol\":2666:2714  IERC20(token).balanceOf(address(this)) >= amount */\n      lt\n      iszero\n        /* \"contracts/LendingPool.sol\":2658:2755  require(IERC20(token).balanceOf(address(this)) >= amount, \"Insufficient liquidity for borrowing\") */\n      tag_197\n      jumpi\n      mload(0x40)\n      0x08c379a000000000000000000000000000000000000000000000000000000000\n      dup2\n      mstore\n      0x04\n      add\n      tag_198\n      swap1\n      tag_199\n      jump\t// in\n    tag_198:\n      mload(0x40)\n      dup1\n      swap2\n      sub\n      swap1\n      revert\n    tag_197:\n        /* \"contracts/LendingPool.sol\":2852:2858  amount */\n      dup1\n        /* \"contracts/LendingPool.sol\":2818:2829  userBorrows */\n      0x04\n        /* \"contracts/LendingPool.sol\":2818:2836  userBorrows[token] */\n      0x00\n        /* \"contracts/LendingPool.sol\":2830:2835  token */\n      dup5\n        /* \"contracts/LendingPool.sol\":2818:2836  userBorrows[token] */\n      0xffffffffffffffffffffffffffffffffffffffff\n      and\n      0xffffffffffffffffffffffffffffffffffffffff\n      and\n      dup2\n      mstore\n      0x20\n      add\n      swap1\n      dup2\n      mstore\n      0x20\n      add\n      0x00\n      keccak256\n        /* \"contracts/LendingPool.sol\":2818:2848  userBorrows[token][msg.sender] */\n      0x00\n        /* \"contracts/LendingPool.sol\":2837:2847  msg.sender */\n      caller\n        /* \"contracts/LendingPool.sol\":2818:2848  userBorrows[token][msg.sender] */\n      0xffffffffffffffffffffffffffffffffffffffff\n      and\n      0xffffffffffffffffffffffffffffffffffffffff\n      and\n      dup2\n      mstore\n      0x20\n      add\n      swap1\n      dup2\n      mstore\n      0x20\n      add\n      0x00\n      keccak256\n      0x00\n        /* \"contracts/LendingPool.sol\":2818:2858  userBorrows[token][msg.sender] += amount */\n      dup3\n      dup3\n      sload\n      tag_200\n      swap2\n      swap1\n      tag_134\n      jump\t// in\n    tag_200:\n      swap3\n      pop\n      pop\n      dup2\n      swap1\n      sstore\n      pop\n        /* \"contracts/LendingPool.sol\":2901:2907  amount */\n      dup1\n        /* \"contracts/LendingPool.sol\":2869:2890  totalBorrowedperToken */\n      0x06\n        /* \"contracts/LendingPool.sol\":2869:2897  totalBorrowedperToken[token] */\n      0x00\n        /* \"contracts/LendingPool.sol\":2891:2896  token */\n      dup5\n        /* \"contracts/LendingPool.sol\":2869:2897  totalBorrowedperToken[token] */\n      0xffffffffffffffffffffffffffffffffffffffff\n      and\n      0xffffffffffffffffffffffffffffffffffffffff\n      and\n      dup2\n      mstore\n      0x20\n      add\n      swap1\n      dup2\n      mstore\n      0x20\n      add\n      0x00\n      keccak256\n      0x00\n        /* \"contracts/LendingPool.sol\":2869:2907  totalBorrowedperToken[token] += amount */\n      dup3\n      dup3\n      sload\n      tag_201\n      swap2\n      swap1\n      tag_134\n      jump\t// in\n    tag_201:\n      swap3\n      pop\n      pop\n      dup2\n      swap1\n      sstore\n      pop\n        /* \"contracts/LendingPool.sol\":2954:2960  amount */\n      dup1\n        /* \"contracts/LendingPool.sol\":2918:2938  totalBorrowedperUser */\n      0x07\n        /* \"contracts/LendingPool.sol\":2918:2950  totalBorrowedperUser[msg.sender] */\n      0x00\n        /* \"contracts/LendingPool.sol\":2939:2949  msg.sender */\n      caller\n        /* \"contracts/LendingPool.sol\":2918:2950  totalBorrowedperUser[msg.sender] */\n      0xffffffffffffffffffffffffffffffffffffffff\n      and\n      0xffffffffffffffffffffffffffffffffffffffff\n      and\n      dup2\n      mstore\n      0x20\n      add\n      swap1\n      dup2\n      mstore\n      0x20\n      add\n      0x00\n      keccak256\n      0x00\n        /* \"contracts/LendingPool.sol\":2918:2960  totalBorrowedperUser[msg.sender] += amount */\n      dup3\n      dup3\n      sload\n      tag_202\n      swap2\n      swap1\n      tag_134\n      jump\t// in\n    tag_202:\n      swap3\n      pop\n      pop\n      dup2\n      swap1\n      sstore\n      pop\n        /* \"contracts/LendingPool.sol\":3025:3098  depositCollateral(token, msg.sender, calculateRequiredCollateral(amount)) */\n      tag_203\n        /* \"contracts/LendingPool.sol\":3043:3048  token */\n      dup3\n        /* \"contracts/LendingPool.sol\":3050:3060  msg.sender */\n      caller\n        /* \"contracts/LendingPool.sol\":3062:3097  calculateRequiredCollateral(amount) */\n      tag_204\n        /* \"contracts/LendingPool.sol\":3090:3096  amount */\n      dup5\n        /* \"contracts/LendingPool.sol\":3062:3089  calculateRequiredCollateral */\n      tag_56\n        /* \"contracts/LendingPool.sol\":3062:3097  calculateRequiredCollateral(amount) */\n      jump\t// in\n    tag_204:\n        /* \"contracts/LendingPool.sol\":3025:3042  depositCollateral */\n      tag_120\n        /* \"contracts/LendingPool.sol\":3025:3098  depositCollateral(token, msg.sender, calculateRequiredCollateral(amount)) */\n      jump\t// in\n    tag_203:\n        /* \"contracts/LendingPool.sol\":3188:3206  uint256 timeFactor */\n      0x00\n        /* \"contracts/LendingPool.sol\":3209:3224  block.timestamp */\n      timestamp\n        /* \"contracts/LendingPool.sol\":3188:3224  uint256 timeFactor = block.timestamp */\n      swap1\n      pop\n        /* \"contracts/LendingPool.sol\":3235:3255  uint256 interestRate */\n      0x00\n        /* \"contracts/LendingPool.sol\":3277:3287  timeFactor */\n      dup2\n        /* \"contracts/LendingPool.sol\":3258:3274  baseInterestRate */\n      sload(0x01)\n        /* \"contracts/LendingPool.sol\":3258:3287  baseInterestRate + timeFactor */\n      tag_205\n      swap2\n      swap1\n      tag_134\n      jump\t// in\n    tag_205:\n        /* \"contracts/LendingPool.sol\":3235:3287  uint256 interestRate = baseInterestRate + timeFactor */\n      swap1\n      pop\n        /* \"contracts/LendingPool.sol\":3412:3496  BorrowInfo({amount: amount, interestRate: interestRate, startTime: block.timestamp}) */\n      mload(0x40)\n      dup1\n      0x60\n      add\n      0x40\n      mstore\n      dup1\n        /* \"contracts/LendingPool.sol\":3432:3438  amount */\n      dup5\n        /* \"contracts/LendingPool.sol\":3412:3496  BorrowInfo({amount: amount, interestRate: interestRate, startTime: block.timestamp}) */\n      dup2\n      mstore\n      0x20\n      add\n        /* \"contracts/LendingPool.sol\":3454:3466  interestRate */\n      dup3\n        /* \"contracts/LendingPool.sol\":3412:3496  BorrowInfo({amount: amount, interestRate: interestRate, startTime: block.timestamp}) */\n      dup2\n      mstore\n      0x20\n      add\n        /* \"contracts/LendingPool.sol\":3479:3494  block.timestamp */\n      timestamp\n        /* \"contracts/LendingPool.sol\":3412:3496  BorrowInfo({amount: amount, interestRate: interestRate, startTime: block.timestamp}) */\n      dup2\n      mstore\n      pop\n        /* \"contracts/LendingPool.sol\":3377:3390  borrowedToken */\n      0x08\n        /* \"contracts/LendingPool.sol\":3377:3402  borrowedToken[msg.sender] */\n      0x00\n        /* \"contracts/LendingPool.sol\":3391:3401  msg.sender */\n      caller\n        /* \"contracts/LendingPool.sol\":3377:3402  borrowedToken[msg.sender] */\n      0xffffffffffffffffffffffffffffffffffffffff\n      and\n      0xffffffffffffffffffffffffffffffffffffffff\n      and\n      dup2\n      mstore\n      0x20\n      add\n      swap1\n      dup2\n      mstore\n      0x20\n      add\n      0x00\n      keccak256\n        /* \"contracts/LendingPool.sol\":3377:3409  borrowedToken[msg.sender][token] */\n      0x00\n        /* \"contracts/LendingPool.sol\":3403:3408  token */\n      dup7\n        /* \"contracts/LendingPool.sol\":3377:3409  borrowedToken[msg.sender][token] */\n      0xffffffffffffffffffffffffffffffffffffffff\n      and\n      0xffffffffffffffffffffffffffffffffffffffff\n      and\n      dup2\n      mstore\n      0x20\n      add\n      swap1\n      dup2\n      mstore\n      0x20\n      add\n      0x00\n      keccak256\n        /* \"contracts/LendingPool.sol\":3377:3496  borrowedToken[msg.sender][token] = BorrowInfo({amount: amount, interestRate: interestRate, startTime: block.timestamp}) */\n      0x00\n      dup3\n      add\n      mload\n      dup2\n      0x00\n      add\n      sstore\n      0x20\n      dup3\n      add\n      mload\n      dup2\n      0x01\n      add\n      sstore\n      0x40\n      dup3\n      add\n      mload\n      dup2\n      0x02\n      add\n      sstore\n      swap1\n      pop\n      pop\n        /* \"contracts/LendingPool.sol\":3535:3540  token */\n      dup4\n        /* \"contracts/LendingPool.sol\":3514:3580  Borrowed(msg.sender, token, amount, interestRate, block.timestamp) */\n      0xffffffffffffffffffffffffffffffffffffffff\n      and\n        /* \"contracts/LendingPool.sol\":3523:3533  msg.sender */\n      caller\n        /* \"contracts/LendingPool.sol\":3514:3580  Borrowed(msg.sender, token, amount, interestRate, block.timestamp) */\n      0xffffffffffffffffffffffffffffffffffffffff\n      and\n      0xc1cba78646fef030830d099fc25cb498953709c9d47d883848f81fd207174c9f\n        /* \"contracts/LendingPool.sol\":3542:3548  amount */\n      dup6\n        /* \"contracts/LendingPool.sol\":3550:3562  interestRate */\n      dup5\n        /* \"contracts/LendingPool.sol\":3564:3579  block.timestamp */\n      timestamp\n        /* \"contracts/LendingPool.sol\":3514:3580  Borrowed(msg.sender, token, amount, interestRate, block.timestamp) */\n      mload(0x40)\n      tag_206\n      swap4\n      swap3\n      swap2\n      swap1\n      tag_46\n      jump\t// in\n    tag_206:\n      mload(0x40)\n      dup1\n      swap2\n      sub\n      swap1\n      log3\n        /* \"contracts/LendingPool.sol\":2478:3588  {... */\n      pop\n      pop\n        /* \"@openzeppelin/contracts/security/ReentrancyGuard.sol\":2303:2323  _nonReentrantAfter() */\n      tag_207\n        /* \"@openzeppelin/contracts/security/ReentrancyGuard.sol\":2303:2321  _nonReentrantAfter */\n      tag_149\n        /* \"@openzeppelin/contracts/security/ReentrancyGuard.sol\":2303:2323  _nonReentrantAfter() */\n      jump\t// in\n    tag_207:\n        /* \"contracts/LendingPool.sol\":2398:3588  function borrow(address token, uint256 amount) public payable nonReentrant... */\n      pop\n      pop\n      jump\t// out\n        /* \"contracts/LendingPool.sol\":4773:5180  function calculateAccruedInterest(address token, address user) public view returns (uint256) {... */\n    tag_78:\n        /* \"contracts/LendingPool.sol\":4857:4864  uint256 */\n      0x00\n        /* \"contracts/LendingPool.sol\":4877:4905  BorrowInfo memory borrowInfo */\n      dup1\n        /* \"contracts/LendingPool.sol\":4908:4921  borrowedToken */\n      0x08\n        /* \"contracts/LendingPool.sol\":4908:4927  borrowedToken[user] */\n      0x00\n        /* \"contracts/LendingPool.sol\":4922:4926  user */\n      dup5\n        /* \"contracts/LendingPool.sol\":4908:4927  borrowedToken[user] */\n      0xffffffffffffffffffffffffffffffffffffffff\n      and\n      0xffffffffffffffffffffffffffffffffffffffff\n      and\n      dup2\n      mstore\n      0x20\n      add\n      swap1\n      dup2\n      mstore\n      0x20\n      add\n      0x00\n      keccak256\n        /* \"contracts/LendingPool.sol\":4908:4934  borrowedToken[user][token] */\n      0x00\n        /* \"contracts/LendingPool.sol\":4928:4933  token */\n      dup6\n        /* \"contracts/LendingPool.sol\":4908:4934  borrowedToken[user][token] */\n      0xffffffffffffffffffffffffffffffffffffffff\n      and\n      0xffffffffffffffffffffffffffffffffffffffff\n      and\n      dup2\n      mstore\n      0x20\n      add\n      swap1\n      dup2\n      mstore\n      0x20\n      add\n      0x00\n      keccak256\n        /* \"contracts/LendingPool.sol\":4877:4934  BorrowInfo memory borrowInfo = borrowedToken[user][token] */\n      mload(0x40)\n      dup1\n      0x60\n      add\n      0x40\n      mstore\n      swap1\n      dup2\n      0x00\n      dup3\n      add\n      sload\n      dup2\n      mstore\n      0x20\n      add\n      0x01\n      dup3\n      add\n      sload\n      dup2\n      mstore\n      0x20\n      add\n      0x02\n      dup3\n      add\n      sload\n      dup2\n      mstore\n      pop\n      pop\n      swap1\n      pop\n        /* \"contracts/LendingPool.sol\":4945:4964  uint256 timeElapsed */\n      0x00\n        /* \"contracts/LendingPool.sol\":4985:4995  borrowInfo */\n      dup2\n        /* \"contracts/LendingPool.sol\":4985:5005  borrowInfo.startTime */\n      0x40\n      add\n      mload\n        /* \"contracts/LendingPool.sol\":4967:4982  block.timestamp */\n      timestamp\n        /* \"contracts/LendingPool.sol\":4967:5005  block.timestamp - borrowInfo.startTime */\n      tag_209\n      swap2\n      swap1\n      tag_129\n      jump\t// in\n    tag_209:\n        /* \"contracts/LendingPool.sol\":4945:5005  uint256 timeElapsed = block.timestamp - borrowInfo.startTime */\n      swap1\n      pop\n        /* \"contracts/LendingPool.sol\":5056:5079  uint256 interestAccrued */\n      0x00\n        /* \"contracts/LendingPool.sol\":5128:5139  timeElapsed */\n      dup2\n        /* \"contracts/LendingPool.sol\":5102:5112  borrowInfo */\n      dup4\n        /* \"contracts/LendingPool.sol\":5102:5125  borrowInfo.interestRate */\n      0x20\n      add\n      mload\n        /* \"contracts/LendingPool.sol\":5082:5092  borrowInfo */\n      dup5\n        /* \"contracts/LendingPool.sol\":5082:5099  borrowInfo.amount */\n      0x00\n      add\n      mload\n        /* \"contracts/LendingPool.sol\":5082:5125  borrowInfo.amount * borrowInfo.interestRate */\n      tag_210\n      swap2\n      swap1\n      tag_159\n      jump\t// in\n    tag_210:\n        /* \"contracts/LendingPool.sol\":5082:5139  borrowInfo.amount * borrowInfo.interestRate * timeElapsed */\n      tag_211\n      swap2\n      swap1\n      tag_159\n      jump\t// in\n    tag_211:\n        /* \"contracts/LendingPool.sol\":5056:5139  uint256 interestAccrued = borrowInfo.amount * borrowInfo.interestRate * timeElapsed */\n      swap1\n      pop\n        /* \"contracts/LendingPool.sol\":5157:5172  interestAccrued */\n      dup1\n        /* \"contracts/LendingPool.sol\":5150:5172  return interestAccrued */\n      swap4\n      pop\n      pop\n      pop\n      pop\n        /* \"contracts/LendingPool.sol\":4773:5180  function calculateAccruedInterest(address token, address user) public view returns (uint256) {... */\n      swap3\n      swap2\n      pop\n      pop\n      jump\t// out\n        /* \"contracts/LendingPool.sol\":2152:2337  function getUserBalance(address user, address token) public view returns(uint256)... */\n    tag_83:\n        /* \"contracts/LendingPool.sol\":2225:2232  uint256 */\n      0x00\n        /* \"contracts/LendingPool.sol\":2257:2269  userDeposits */\n      0x02\n        /* \"contracts/LendingPool.sol\":2257:2276  userDeposits[token] */\n      0x00\n        /* \"contracts/LendingPool.sol\":2270:2275  token */\n      dup4\n        /* \"contracts/LendingPool.sol\":2257:2276  userDeposits[token] */\n      0xffffffffffffffffffffffffffffffffffffffff\n      and\n      0xffffffffffffffffffffffffffffffffffffffff\n      and\n      dup2\n      mstore\n      0x20\n      add\n      swap1\n      dup2\n      mstore\n      0x20\n      add\n      0x00\n      keccak256\n        /* \"contracts/LendingPool.sol\":2257:2282  userDeposits[token][user] */\n      0x00\n        /* \"contracts/LendingPool.sol\":2277:2281  user */\n      dup5\n        /* \"contracts/LendingPool.sol\":2257:2282  userDeposits[token][user] */\n      0xffffffffffffffffffffffffffffffffffffffff\n      and\n      0xffffffffffffffffffffffffffffffffffffffff\n      and\n      dup2\n      mstore\n      0x20\n      add\n      swap1\n      dup2\n      mstore\n      0x20\n      add\n      0x00\n      keccak256\n      sload\n        /* \"contracts/LendingPool.sol\":2250:2282  return userDeposits[token][user] */\n      swap1\n      pop\n        /* \"contracts/LendingPool.sol\":2152:2337  function getUserBalance(address user, address token) public view returns(uint256)... */\n      swap3\n      swap2\n      pop\n      pop\n      jump\t// out\n        /* \"contracts/LendingPool.sol\":7553:7679  function calculateInterestRate(address token, uint256 totalSupply, uint256 totalBorrows) public view returns (uint256)... */\n    tag_89:\n        /* \"contracts/LendingPool.sol\":7663:7670  uint256 */\n      0x00\n        /* \"contracts/LendingPool.sol\":7553:7679  function calculateInterestRate(address token, uint256 totalSupply, uint256 totalBorrows) public view returns (uint256)... */\n      swap4\n      swap3\n      pop\n      pop\n      pop\n      jump\t// out\n        /* \"contracts/LendingPool.sol\":313:349  uint256 public baseInterestRate = 10 */\n    tag_93:\n      sload(0x01)\n      dup2\n      jump\t// out\n        /* \"contracts/LendingPool.sol\":512:544  address[] public supportedTokens */\n    tag_98:\n      0x03\n      dup2\n      dup2\n      sload\n      dup2\n      lt\n      tag_214\n      jumpi\n      0x00\n      dup1\n      revert\n    tag_214:\n      swap1\n      0x00\n      mstore\n      keccak256(0x00, 0x20)\n      add\n      0x00\n      swap2\n      pop\n      sload\n      swap1\n      0x0100\n      exp\n      swap1\n      div\n      0xffffffffffffffffffffffffffffffffffffffff\n      and\n      dup2\n      jump\t// out\n        /* \"contracts/LendingPool.sol\":746:811  mapping(address => mapping(address => uint256)) public collateral */\n    tag_104:\n      mstore(0x20, 0x05)\n      dup2\n      0x00\n      mstore\n      mstore(0x20, keccak256(0x00, 0x40))\n      dup1\n      0x00\n      mstore\n      keccak256(0x00, 0x40)\n      0x00\n      swap2\n      pop\n      swap2\n      pop\n      pop\n      sload\n      dup2\n      jump\t// out\n        /* \"contracts/LendingPool.sol\":5239:6272  function calculateRepayableCollateral(uint256 repayAmount, uint256 accruedInterest) public view returns (uint256)... */\n    tag_110:\n        /* \"contracts/LendingPool.sol\":5344:5351  uint256 */\n      0x00\n        /* \"contracts/LendingPool.sol\":5465:5494  uint256 minRequiredCollateral */\n      dup1\n        /* \"contracts/LendingPool.sol\":5527:5557  OVER_COLLATERALIZATION_RATIO() */\n      tag_217\n        /* \"contracts/LendingPool.sol\":5527:5555  OVER_COLLATERALIZATION_RATIO */\n      tag_157\n        /* \"contracts/LendingPool.sol\":5527:5557  OVER_COLLATERALIZATION_RATIO() */\n      jump\t// in\n    tag_217:\n        /* \"contracts/LendingPool.sol\":5511:5526  accruedInterest */\n      dup4\n        /* \"contracts/LendingPool.sol\":5511:5557  accruedInterest/OVER_COLLATERALIZATION_RATIO() */\n      tag_218\n      swap2\n      swap1\n      tag_219\n      jump\t// in\n    tag_218:\n        /* \"contracts/LendingPool.sol\":5497:5508  repayAmount */\n      dup5\n        /* \"contracts/LendingPool.sol\":5497:5557  repayAmount + accruedInterest/OVER_COLLATERALIZATION_RATIO() */\n      tag_220\n      swap2\n      swap1\n      tag_134\n      jump\t// in\n    tag_220:\n        /* \"contracts/LendingPool.sol\":5465:5557  uint256 minRequiredCollateral = repayAmount + accruedInterest/OVER_COLLATERALIZATION_RATIO() */\n      swap1\n      pop\n        /* \"contracts/LendingPool.sol\":5630:5655  uint256 totalUserDeposits */\n      0x00\n        /* \"contracts/LendingPool.sol\":5674:5683  uint256 i */\n      dup1\n        /* \"contracts/LendingPool.sol\":5670:5819  for(uint256 i=0; i<supportedTokens.length; i++)... */\n    tag_221:\n        /* \"contracts/LendingPool.sol\":5689:5704  supportedTokens */\n      0x03\n        /* \"contracts/LendingPool.sol\":5689:5711  supportedTokens.length */\n      dup1\n      sload\n      swap1\n      pop\n        /* \"contracts/LendingPool.sol\":5687:5688  i */\n      dup2\n        /* \"contracts/LendingPool.sol\":5687:5711  i<supportedTokens.length */\n      lt\n        /* \"contracts/LendingPool.sol\":5670:5819  for(uint256 i=0; i<supportedTokens.length; i++)... */\n      iszero\n      tag_222\n      jumpi\n        /* \"contracts/LendingPool.sol\":5763:5775  userDeposits */\n      0x02\n        /* \"contracts/LendingPool.sol\":5763:5795  userDeposits[supportedTokens[i]] */\n      0x00\n        /* \"contracts/LendingPool.sol\":5776:5791  supportedTokens */\n      0x03\n        /* \"contracts/LendingPool.sol\":5792:5793  i */\n      dup4\n        /* \"contracts/LendingPool.sol\":5776:5794  supportedTokens[i] */\n      dup2\n      sload\n      dup2\n      lt\n      tag_224\n      jumpi\n      tag_225\n      tag_166\n      jump\t// in\n    tag_225:\n    tag_224:\n      swap1\n      0x00\n      mstore\n      keccak256(0x00, 0x20)\n      add\n      0x00\n      swap1\n      sload\n      swap1\n      0x0100\n      exp\n      swap1\n      div\n      0xffffffffffffffffffffffffffffffffffffffff\n      and\n        /* \"contracts/LendingPool.sol\":5763:5795  userDeposits[supportedTokens[i]] */\n      0xffffffffffffffffffffffffffffffffffffffff\n      and\n      0xffffffffffffffffffffffffffffffffffffffff\n      and\n      dup2\n      mstore\n      0x20\n      add\n      swap1\n      dup2\n      mstore\n      0x20\n      add\n      0x00\n      keccak256\n        /* \"contracts/LendingPool.sol\":5763:5807  userDeposits[supportedTokens[i]][msg.sender] */\n      0x00\n        /* \"contracts/LendingPool.sol\":5796:5806  msg.sender */\n      caller\n        /* \"contracts/LendingPool.sol\":5763:5807  userDeposits[supportedTokens[i]][msg.sender] */\n      0xffffffffffffffffffffffffffffffffffffffff\n      and\n      0xffffffffffffffffffffffffffffffffffffffff\n      and\n      dup2\n      mstore\n      0x20\n      add\n      swap1\n      dup2\n      mstore\n      0x20\n      add\n      0x00\n      keccak256\n      sload\n        /* \"contracts/LendingPool.sol\":5742:5807  totalUserDeposits += userDeposits[supportedTokens[i]][msg.sender] */\n      dup3\n      tag_227\n      swap2\n      swap1\n      tag_134\n      jump\t// in\n    tag_227:\n      swap2\n      pop\n        /* \"contracts/LendingPool.sol\":5713:5716  i++ */\n      dup1\n      dup1\n      0x01\n      add\n      swap2\n      pop\n      pop\n        /* \"contracts/LendingPool.sol\":5670:5819  for(uint256 i=0; i<supportedTokens.length; i++)... */\n      jump(tag_221)\n    tag_222:\n      pop\n        /* \"contracts/LendingPool.sol\":5915:5942  uint256 collateralToRelease */\n      0x00\n        /* \"contracts/LendingPool.sol\":5959:5974  accruedInterest */\n      dup5\n        /* \"contracts/LendingPool.sol\":5945:5956  repayAmount */\n      dup7\n        /* \"contracts/LendingPool.sol\":5945:5974  repayAmount + accruedInterest */\n      tag_228\n      swap2\n      swap1\n      tag_134\n      jump\t// in\n    tag_228:\n        /* \"contracts/LendingPool.sol\":5915:5974  uint256 collateralToRelease = repayAmount + accruedInterest */\n      swap1\n      pop\n        /* \"contracts/LendingPool.sol\":6010:6031  minRequiredCollateral */\n      dup3\n        /* \"contracts/LendingPool.sol\":5990:6007  totalUserDeposits */\n      dup3\n        /* \"contracts/LendingPool.sol\":5990:6031  totalUserDeposits > minRequiredCollateral */\n      gt\n        /* \"contracts/LendingPool.sol\":5987:6226  if(totalUserDeposits > minRequiredCollateral)... */\n      iszero\n      tag_229\n      jumpi\n        /* \"contracts/LendingPool.sol\":6142:6214  Math.min(collateralToRelease, totalUserDeposits - minRequiredCollateral) */\n      tag_230\n        /* \"contracts/LendingPool.sol\":6151:6170  collateralToRelease */\n      dup2\n        /* \"contracts/LendingPool.sol\":6192:6213  minRequiredCollateral */\n      dup5\n        /* \"contracts/LendingPool.sol\":6172:6189  totalUserDeposits */\n      dup5\n        /* \"contracts/LendingPool.sol\":6172:6213  totalUserDeposits - minRequiredCollateral */\n      tag_231\n      swap2\n      swap1\n      tag_129\n      jump\t// in\n    tag_231:\n        /* \"contracts/LendingPool.sol\":6142:6150  Math.min */\n      tag_232\n        /* \"contracts/LendingPool.sol\":6142:6214  Math.min(collateralToRelease, totalUserDeposits - minRequiredCollateral) */\n      jump\t// in\n    tag_230:\n        /* \"contracts/LendingPool.sol\":6120:6214  collateralToRelease = Math.min(collateralToRelease, totalUserDeposits - minRequiredCollateral) */\n      swap1\n      pop\n        /* \"contracts/LendingPool.sol\":5987:6226  if(totalUserDeposits > minRequiredCollateral)... */\n    tag_229:\n        /* \"contracts/LendingPool.sol\":6245:6264  collateralToRelease */\n      dup1\n        /* \"contracts/LendingPool.sol\":6238:6264  return collateralToRelease */\n      swap4\n      pop\n      pop\n      pop\n      pop\n        /* \"contracts/LendingPool.sol\":5239:6272  function calculateRepayableCollateral(uint256 repayAmount, uint256 accruedInterest) public view returns (uint256)... */\n      swap3\n      swap2\n      pop\n      pop\n      jump\t// out\n        /* \"contracts/LendingPool.sol\":902:958  mapping(address => uint256) public totalBorrowedperToken */\n    tag_115:\n      mstore(0x20, 0x06)\n      dup1\n      0x00\n      mstore\n      keccak256(0x00, 0x40)\n      0x00\n      swap2\n      pop\n      swap1\n      pop\n      sload\n      dup2\n      jump\t// out\n        /* \"contracts/LendingPool.sol\":6418:6562  function depositCollateral(address token, address borrower, uint256 amount) public... */\n    tag_120:\n        /* \"contracts/LendingPool.sol\":6548:6554  amount */\n      dup1\n        /* \"contracts/LendingPool.sol\":6517:6527  collateral */\n      0x05\n        /* \"contracts/LendingPool.sol\":6517:6534  collateral[token] */\n      0x00\n        /* \"contracts/LendingPool.sol\":6528:6533  token */\n      dup6\n        /* \"contracts/LendingPool.sol\":6517:6534  collateral[token] */\n      0xffffffffffffffffffffffffffffffffffffffff\n      and\n      0xffffffffffffffffffffffffffffffffffffffff\n      and\n      dup2\n      mstore\n      0x20\n      add\n      swap1\n      dup2\n      mstore\n      0x20\n      add\n      0x00\n      keccak256\n        /* \"contracts/LendingPool.sol\":6517:6544  collateral[token][borrower] */\n      0x00\n        /* \"contracts/LendingPool.sol\":6535:6543  borrower */\n      dup5\n        /* \"contracts/LendingPool.sol\":6517:6544  collateral[token][borrower] */\n      0xffffffffffffffffffffffffffffffffffffffff\n      and\n      0xffffffffffffffffffffffffffffffffffffffff\n      and\n      dup2\n      mstore\n      0x20\n      add\n      swap1\n      dup2\n      mstore\n      0x20\n      add\n      0x00\n      keccak256\n      0x00\n        /* \"contracts/LendingPool.sol\":6517:6554  collateral[token][borrower] += amount */\n      dup3\n      dup3\n      sload\n      tag_234\n      swap2\n      swap1\n      tag_134\n      jump\t// in\n    tag_234:\n      swap3\n      pop\n      pop\n      dup2\n      swap1\n      sstore\n      pop\n        /* \"contracts/LendingPool.sol\":6418:6562  function depositCollateral(address token, address borrower, uint256 amount) public... */\n      pop\n      pop\n      pop\n      jump\t// out\n        /* \"@openzeppelin/contracts/security/ReentrancyGuard.sol\":2336:2623  function _nonReentrantBefore() private {... */\n    tag_123:\n        /* \"@openzeppelin/contracts/security/ReentrancyGuard.sol\":1759:1760  2 */\n      0x02\n        /* \"@openzeppelin/contracts/security/ReentrancyGuard.sol\":2468:2475  _status */\n      sload(0x00)\n        /* \"@openzeppelin/contracts/security/ReentrancyGuard.sol\":2468:2487  _status != _ENTERED */\n      sub\n        /* \"@openzeppelin/contracts/security/ReentrancyGuard.sol\":2460:2523  require(_status != _ENTERED, \"ReentrancyGuard: reentrant call\") */\n      tag_236\n      jumpi\n      mload(0x40)\n      0x08c379a000000000000000000000000000000000000000000000000000000000\n      dup2\n      mstore\n      0x04\n      add\n      tag_237\n      swap1\n      tag_238\n      jump\t// in\n    tag_237:\n      mload(0x40)\n      dup1\n      swap2\n      sub\n      swap1\n      revert\n    tag_236:\n        /* \"@openzeppelin/contracts/security/ReentrancyGuard.sol\":1759:1760  2 */\n      0x02\n        /* \"@openzeppelin/contracts/security/ReentrancyGuard.sol\":2598:2605  _status */\n      0x00\n        /* \"@openzeppelin/contracts/security/ReentrancyGuard.sol\":2598:2616  _status = _ENTERED */\n      dup2\n      swap1\n      sstore\n      pop\n        /* \"@openzeppelin/contracts/security/ReentrancyGuard.sol\":2336:2623  function _nonReentrantBefore() private {... */\n      jump\t// out\n        /* \"@openzeppelin/contracts/security/ReentrancyGuard.sol\":2629:2838  function _nonReentrantAfter() private {... */\n    tag_149:\n        /* \"@openzeppelin/contracts/security/ReentrancyGuard.sol\":1716:1717  1 */\n      0x01\n        /* \"@openzeppelin/contracts/security/ReentrancyGuard.sol\":2809:2816  _status */\n      0x00\n        /* \"@openzeppelin/contracts/security/ReentrancyGuard.sol\":2809:2831  _status = _NOT_ENTERED */\n      dup2\n      swap1\n      sstore\n      pop\n        /* \"@openzeppelin/contracts/security/ReentrancyGuard.sol\":2629:2838  function _nonReentrantAfter() private {... */\n      jump\t// out\n        /* \"contracts/LendingPool.sol\":6280:6383  function OVER_COLLATERALIZATION_RATIO() internal pure returns(uint256)... */\n    tag_157:\n        /* \"contracts/LendingPool.sol\":6342:6349  uint256 */\n      0x00\n        /* \"contracts/LendingPool.sol\":6374:6375  2 */\n      0x02\n        /* \"contracts/LendingPool.sol\":6367:6375  return 2 */\n      swap1\n      pop\n        /* \"contracts/LendingPool.sol\":6280:6383  function OVER_COLLATERALIZATION_RATIO() internal pure returns(uint256)... */\n      swap1\n      jump\t// out\n        /* \"@openzeppelin/contracts/utils/math/Math.sol\":2557:2661  function min(uint256 a, uint256 b) internal pure returns (uint256) {... */\n    tag_232:\n        /* \"@openzeppelin/contracts/utils/math/Math.sol\":2615:2622  uint256 */\n      0x00\n        /* \"@openzeppelin/contracts/utils/math/Math.sol\":2645:2646  b */\n      dup2\n        /* \"@openzeppelin/contracts/utils/math/Math.sol\":2641:2642  a */\n      dup4\n        /* \"@openzeppelin/contracts/utils/math/Math.sol\":2641:2646  a < b */\n      lt\n        /* \"@openzeppelin/contracts/utils/math/Math.sol\":2641:2654  a < b ? a : b */\n      tag_242\n      jumpi\n        /* \"@openzeppelin/contracts/utils/math/Math.sol\":2653:2654  b */\n      dup2\n        /* \"@openzeppelin/contracts/utils/math/Math.sol\":2641:2654  a < b ? a : b */\n      jump(tag_243)\n    tag_242:\n        /* \"@openzeppelin/contracts/utils/math/Math.sol\":2649:2650  a */\n      dup3\n        /* \"@openzeppelin/contracts/utils/math/Math.sol\":2641:2654  a < b ? a : b */\n    tag_243:\n        /* \"@openzeppelin/contracts/utils/math/Math.sol\":2634:2654  return a < b ? a : b */\n      swap1\n      pop\n        /* \"@openzeppelin/contracts/utils/math/Math.sol\":2557:2661  function min(uint256 a, uint256 b) internal pure returns (uint256) {... */\n      swap3\n      swap2\n      pop\n      pop\n      jump\t// out\n        /* \"#utility.yul\":88:205   */\n    tag_245:\n        /* \"#utility.yul\":197:198   */\n      0x00\n        /* \"#utility.yul\":194:195   */\n      dup1\n        /* \"#utility.yul\":187:199   */\n      revert\n        /* \"#utility.yul\":334:460   */\n    tag_247:\n        /* \"#utility.yul\":371:378   */\n      0x00\n        /* \"#utility.yul\":411:453   */\n      0xffffffffffffffffffffffffffffffffffffffff\n        /* \"#utility.yul\":404:409   */\n      dup3\n        /* \"#utility.yul\":400:454   */\n      and\n        /* \"#utility.yul\":389:454   */\n      swap1\n      pop\n        /* \"#utility.yul\":334:460   */\n      swap2\n      swap1\n      pop\n      jump\t// out\n        /* \"#utility.yul\":466:562   */\n    tag_248:\n        /* \"#utility.yul\":503:510   */\n      0x00\n        /* \"#utility.yul\":532:556   */\n      tag_288\n        /* \"#utility.yul\":550:555   */\n      dup3\n        /* \"#utility.yul\":532:556   */\n      tag_247\n      jump\t// in\n    tag_288:\n        /* \"#utility.yul\":521:556   */\n      swap1\n      pop\n        /* \"#utility.yul\":466:562   */\n      swap2\n      swap1\n      pop\n      jump\t// out\n        /* \"#utility.yul\":568:690   */\n    tag_249:\n        /* \"#utility.yul\":641:665   */\n      tag_290\n        /* \"#utility.yul\":659:664   */\n      dup2\n        /* \"#utility.yul\":641:665   */\n      tag_248\n      jump\t// in\n    tag_290:\n        /* \"#utility.yul\":634:639   */\n      dup2\n        /* \"#utility.yul\":631:666   */\n      eq\n        /* \"#utility.yul\":621:684   */\n      tag_291\n      jumpi\n        /* \"#utility.yul\":680:681   */\n      0x00\n        /* \"#utility.yul\":677:678   */\n      dup1\n        /* \"#utility.yul\":670:682   */\n      revert\n        /* \"#utility.yul\":621:684   */\n    tag_291:\n        /* \"#utility.yul\":568:690   */\n      pop\n      jump\t// out\n        /* \"#utility.yul\":696:835   */\n    tag_250:\n        /* \"#utility.yul\":742:747   */\n      0x00\n        /* \"#utility.yul\":780:786   */\n      dup2\n        /* \"#utility.yul\":767:787   */\n      calldataload\n        /* \"#utility.yul\":758:787   */\n      swap1\n      pop\n        /* \"#utility.yul\":796:829   */\n      tag_293\n        /* \"#utility.yul\":823:828   */\n      dup2\n        /* \"#utility.yul\":796:829   */\n      tag_249\n      jump\t// in\n    tag_293:\n        /* \"#utility.yul\":696:835   */\n      swap3\n      swap2\n      pop\n      pop\n      jump\t// out\n        /* \"#utility.yul\":841:918   */\n    tag_251:\n        /* \"#utility.yul\":878:885   */\n      0x00\n        /* \"#utility.yul\":907:912   */\n      dup2\n        /* \"#utility.yul\":896:912   */\n      swap1\n      pop\n        /* \"#utility.yul\":841:918   */\n      swap2\n      swap1\n      pop\n      jump\t// out\n        /* \"#utility.yul\":924:1046   */\n    tag_252:\n        /* \"#utility.yul\":997:1021   */\n      tag_296\n        /* \"#utility.yul\":1015:1020   */\n      dup2\n        /* \"#utility.yul\":997:1021   */\n      tag_251\n      jump\t// in\n    tag_296:\n        /* \"#utility.yul\":990:995   */\n      dup2\n        /* \"#utility.yul\":987:1022   */\n      eq\n        /* \"#utility.yul\":977:1040   */\n      tag_297\n      jumpi\n        /* \"#utility.yul\":1036:1037   */\n      0x00\n        /* \"#utility.yul\":1033:1034   */\n      dup1\n        /* \"#utility.yul\":1026:1038   */\n      revert\n        /* \"#utility.yul\":977:1040   */\n    tag_297:\n        /* \"#utility.yul\":924:1046   */\n      pop\n      jump\t// out\n        /* \"#utility.yul\":1052:1191   */\n    tag_253:\n        /* \"#utility.yul\":1098:1103   */\n      0x00\n        /* \"#utility.yul\":1136:1142   */\n      dup2\n        /* \"#utility.yul\":1123:1143   */\n      calldataload\n        /* \"#utility.yul\":1114:1143   */\n      swap1\n      pop\n        /* \"#utility.yul\":1152:1185   */\n      tag_299\n        /* \"#utility.yul\":1179:1184   */\n      dup2\n        /* \"#utility.yul\":1152:1185   */\n      tag_252\n      jump\t// in\n    tag_299:\n        /* \"#utility.yul\":1052:1191   */\n      swap3\n      swap2\n      pop\n      pop\n      jump\t// out\n        /* \"#utility.yul\":1197:1671   */\n    tag_26:\n        /* \"#utility.yul\":1265:1271   */\n      0x00\n        /* \"#utility.yul\":1273:1279   */\n      dup1\n        /* \"#utility.yul\":1322:1324   */\n      0x40\n        /* \"#utility.yul\":1310:1319   */\n      dup4\n        /* \"#utility.yul\":1301:1308   */\n      dup6\n        /* \"#utility.yul\":1297:1320   */\n      sub\n        /* \"#utility.yul\":1293:1325   */\n      slt\n        /* \"#utility.yul\":1290:1409   */\n      iszero\n      tag_301\n      jumpi\n        /* \"#utility.yul\":1328:1407   */\n      tag_302\n      tag_245\n      jump\t// in\n    tag_302:\n        /* \"#utility.yul\":1290:1409   */\n    tag_301:\n        /* \"#utility.yul\":1448:1449   */\n      0x00\n        /* \"#utility.yul\":1473:1526   */\n      tag_303\n        /* \"#utility.yul\":1518:1525   */\n      dup6\n        /* \"#utility.yul\":1509:1515   */\n      dup3\n        /* \"#utility.yul\":1498:1507   */\n      dup7\n        /* \"#utility.yul\":1494:1516   */\n      add\n        /* \"#utility.yul\":1473:1526   */\n      tag_250\n      jump\t// in\n    tag_303:\n        /* \"#utility.yul\":1463:1526   */\n      swap3\n      pop\n        /* \"#utility.yul\":1419:1536   */\n      pop\n        /* \"#utility.yul\":1575:1577   */\n      0x20\n        /* \"#utility.yul\":1601:1654   */\n      tag_304\n        /* \"#utility.yul\":1646:1653   */\n      dup6\n        /* \"#utility.yul\":1637:1643   */\n      dup3\n        /* \"#utility.yul\":1626:1635   */\n      dup7\n        /* \"#utility.yul\":1622:1644   */\n      add\n        /* \"#utility.yul\":1601:1654   */\n      tag_253\n      jump\t// in\n    tag_304:\n        /* \"#utility.yul\":1591:1654   */\n      swap2\n      pop\n        /* \"#utility.yul\":1546:1664   */\n      pop\n        /* \"#utility.yul\":1197:1671   */\n      swap3\n      pop\n      swap3\n      swap1\n      pop\n      jump\t// out\n        /* \"#utility.yul\":1677:2151   */\n    tag_31:\n        /* \"#utility.yul\":1745:1751   */\n      0x00\n        /* \"#utility.yul\":1753:1759   */\n      dup1\n        /* \"#utility.yul\":1802:1804   */\n      0x40\n        /* \"#utility.yul\":1790:1799   */\n      dup4\n        /* \"#utility.yul\":1781:1788   */\n      dup6\n        /* \"#utility.yul\":1777:1800   */\n      sub\n        /* \"#utility.yul\":1773:1805   */\n      slt\n        /* \"#utility.yul\":1770:1889   */\n      iszero\n      tag_306\n      jumpi\n        /* \"#utility.yul\":1808:1887   */\n      tag_307\n      tag_245\n      jump\t// in\n    tag_307:\n        /* \"#utility.yul\":1770:1889   */\n    tag_306:\n        /* \"#utility.yul\":1928:1929   */\n      0x00\n        /* \"#utility.yul\":1953:2006   */\n      tag_308\n        /* \"#utility.yul\":1998:2005   */\n      dup6\n        /* \"#utility.yul\":1989:1995   */\n      dup3\n        /* \"#utility.yul\":1978:1987   */\n      dup7\n        /* \"#utility.yul\":1974:1996   */\n      add\n        /* \"#utility.yul\":1953:2006   */\n      tag_250\n      jump\t// in\n    tag_308:\n        /* \"#utility.yul\":1943:2006   */\n      swap3\n      pop\n        /* \"#utility.yul\":1899:2016   */\n      pop\n        /* \"#utility.yul\":2055:2057   */\n      0x20\n        /* \"#utility.yul\":2081:2134   */\n      tag_309\n        /* \"#utility.yul\":2126:2133   */\n      dup6\n        /* \"#utility.yul\":2117:2123   */\n      dup3\n        /* \"#utility.yul\":2106:2115   */\n      dup7\n        /* \"#utility.yul\":2102:2124   */\n      add\n        /* \"#utility.yul\":2081:2134   */\n      tag_250\n      jump\t// in\n    tag_309:\n        /* \"#utility.yul\":2071:2134   */\n      swap2\n      pop\n        /* \"#utility.yul\":2026:2144   */\n      pop\n        /* \"#utility.yul\":1677:2151   */\n      swap3\n      pop\n      swap3\n      swap1\n      pop\n      jump\t// out\n        /* \"#utility.yul\":2157:2275   */\n    tag_254:\n        /* \"#utility.yul\":2244:2268   */\n      tag_311\n        /* \"#utility.yul\":2262:2267   */\n      dup2\n        /* \"#utility.yul\":2244:2268   */\n      tag_251\n      jump\t// in\n    tag_311:\n        /* \"#utility.yul\":2239:2242   */\n      dup3\n        /* \"#utility.yul\":2232:2269   */\n      mstore\n        /* \"#utility.yul\":2157:2275   */\n      pop\n      pop\n      jump\t// out\n        /* \"#utility.yul\":2281:2503   */\n    tag_34:\n        /* \"#utility.yul\":2374:2378   */\n      0x00\n        /* \"#utility.yul\":2412:2414   */\n      0x20\n        /* \"#utility.yul\":2401:2410   */\n      dup3\n        /* \"#utility.yul\":2397:2415   */\n      add\n        /* \"#utility.yul\":2389:2415   */\n      swap1\n      pop\n        /* \"#utility.yul\":2425:2496   */\n      tag_313\n        /* \"#utility.yul\":2493:2494   */\n      0x00\n        /* \"#utility.yul\":2482:2491   */\n      dup4\n        /* \"#utility.yul\":2478:2495   */\n      add\n        /* \"#utility.yul\":2469:2475   */\n      dup5\n        /* \"#utility.yul\":2425:2496   */\n      tag_254\n      jump\t// in\n    tag_313:\n        /* \"#utility.yul\":2281:2503   */\n      swap3\n      swap2\n      pop\n      pop\n      jump\t// out\n        /* \"#utility.yul\":2509:2838   */\n    tag_38:\n        /* \"#utility.yul\":2568:2574   */\n      0x00\n        /* \"#utility.yul\":2617:2619   */\n      0x20\n        /* \"#utility.yul\":2605:2614   */\n      dup3\n        /* \"#utility.yul\":2596:2603   */\n      dup5\n        /* \"#utility.yul\":2592:2615   */\n      sub\n        /* \"#utility.yul\":2588:2620   */\n      slt\n        /* \"#utility.yul\":2585:2704   */\n      iszero\n      tag_315\n      jumpi\n        /* \"#utility.yul\":2623:2702   */\n      tag_316\n      tag_245\n      jump\t// in\n    tag_316:\n        /* \"#utility.yul\":2585:2704   */\n    tag_315:\n        /* \"#utility.yul\":2743:2744   */\n      0x00\n        /* \"#utility.yul\":2768:2821   */\n      tag_317\n        /* \"#utility.yul\":2813:2820   */\n      dup5\n        /* \"#utility.yul\":2804:2810   */\n      dup3\n        /* \"#utility.yul\":2793:2802   */\n      dup6\n        /* \"#utility.yul\":2789:2811   */\n      add\n        /* \"#utility.yul\":2768:2821   */\n      tag_250\n      jump\t// in\n    tag_317:\n        /* \"#utility.yul\":2758:2821   */\n      swap2\n      pop\n        /* \"#utility.yul\":2714:2831   */\n      pop\n        /* \"#utility.yul\":2509:2838   */\n      swap3\n      swap2\n      pop\n      pop\n      jump\t// out\n        /* \"#utility.yul\":2844:3286   */\n    tag_46:\n        /* \"#utility.yul\":2993:2997   */\n      0x00\n        /* \"#utility.yul\":3031:3033   */\n      0x60\n        /* \"#utility.yul\":3020:3029   */\n      dup3\n        /* \"#utility.yul\":3016:3034   */\n      add\n        /* \"#utility.yul\":3008:3034   */\n      swap1\n      pop\n        /* \"#utility.yul\":3044:3115   */\n      tag_319\n        /* \"#utility.yul\":3112:3113   */\n      0x00\n        /* \"#utility.yul\":3101:3110   */\n      dup4\n        /* \"#utility.yul\":3097:3114   */\n      add\n        /* \"#utility.yul\":3088:3094   */\n      dup7\n        /* \"#utility.yul\":3044:3115   */\n      tag_254\n      jump\t// in\n    tag_319:\n        /* \"#utility.yul\":3125:3197   */\n      tag_320\n        /* \"#utility.yul\":3193:3195   */\n      0x20\n        /* \"#utility.yul\":3182:3191   */\n      dup4\n        /* \"#utility.yul\":3178:3196   */\n      add\n        /* \"#utility.yul\":3169:3175   */\n      dup6\n        /* \"#utility.yul\":3125:3197   */\n      tag_254\n      jump\t// in\n    tag_320:\n        /* \"#utility.yul\":3207:3279   */\n      tag_321\n        /* \"#utility.yul\":3275:3277   */\n      0x40\n        /* \"#utility.yul\":3264:3273   */\n      dup4\n        /* \"#utility.yul\":3260:3278   */\n      add\n        /* \"#utility.yul\":3251:3257   */\n      dup5\n        /* \"#utility.yul\":3207:3279   */\n      tag_254\n      jump\t// in\n    tag_321:\n        /* \"#utility.yul\":2844:3286   */\n      swap5\n      swap4\n      pop\n      pop\n      pop\n      pop\n      jump\t// out\n        /* \"#utility.yul\":3292:3911   */\n    tag_50:\n        /* \"#utility.yul\":3369:3375   */\n      0x00\n        /* \"#utility.yul\":3377:3383   */\n      dup1\n        /* \"#utility.yul\":3385:3391   */\n      0x00\n        /* \"#utility.yul\":3434:3436   */\n      0x60\n        /* \"#utility.yul\":3422:3431   */\n      dup5\n        /* \"#utility.yul\":3413:3420   */\n      dup7\n        /* \"#utility.yul\":3409:3432   */\n      sub\n        /* \"#utility.yul\":3405:3437   */\n      slt\n        /* \"#utility.yul\":3402:3521   */\n      iszero\n      tag_323\n      jumpi\n        /* \"#utility.yul\":3440:3519   */\n      tag_324\n      tag_245\n      jump\t// in\n    tag_324:\n        /* \"#utility.yul\":3402:3521   */\n    tag_323:\n        /* \"#utility.yul\":3560:3561   */\n      0x00\n        /* \"#utility.yul\":3585:3638   */\n      tag_325\n        /* \"#utility.yul\":3630:3637   */\n      dup7\n        /* \"#utility.yul\":3621:3627   */\n      dup3\n        /* \"#utility.yul\":3610:3619   */\n      dup8\n        /* \"#utility.yul\":3606:3628   */\n      add\n        /* \"#utility.yul\":3585:3638   */\n      tag_250\n      jump\t// in\n    tag_325:\n        /* \"#utility.yul\":3575:3638   */\n      swap4\n      pop\n        /* \"#utility.yul\":3531:3648   */\n      pop\n        /* \"#utility.yul\":3687:3689   */\n      0x20\n        /* \"#utility.yul\":3713:3766   */\n      tag_326\n        /* \"#utility.yul\":3758:3765   */\n      dup7\n        /* \"#utility.yul\":3749:3755   */\n      dup3\n        /* \"#utility.yul\":3738:3747   */\n      dup8\n        /* \"#utility.yul\":3734:3756   */\n      add\n        /* \"#utility.yul\":3713:3766   */\n      tag_250\n      jump\t// in\n    tag_326:\n        /* \"#utility.yul\":3703:3766   */\n      swap3\n      pop\n        /* \"#utility.yul\":3658:3776   */\n      pop\n        /* \"#utility.yul\":3815:3817   */\n      0x40\n        /* \"#utility.yul\":3841:3894   */\n      tag_327\n        /* \"#utility.yul\":3886:3893   */\n      dup7\n        /* \"#utility.yul\":3877:3883   */\n      dup3\n        /* \"#utility.yul\":3866:3875   */\n      dup8\n        /* \"#utility.yul\":3862:3884   */\n      add\n        /* \"#utility.yul\":3841:3894   */\n      tag_253\n      jump\t// in\n    tag_327:\n        /* \"#utility.yul\":3831:3894   */\n      swap2\n      pop\n        /* \"#utility.yul\":3786:3904   */\n      pop\n        /* \"#utility.yul\":3292:3911   */\n      swap3\n      pop\n      swap3\n      pop\n      swap3\n      jump\t// out\n        /* \"#utility.yul\":3917:4246   */\n    tag_55:\n        /* \"#utility.yul\":3976:3982   */\n      0x00\n        /* \"#utility.yul\":4025:4027   */\n      0x20\n        /* \"#utility.yul\":4013:4022   */\n      dup3\n        /* \"#utility.yul\":4004:4011   */\n      dup5\n        /* \"#utility.yul\":4000:4023   */\n      sub\n        /* \"#utility.yul\":3996:4028   */\n      slt\n        /* \"#utility.yul\":3993:4112   */\n      iszero\n      tag_329\n      jumpi\n        /* \"#utility.yul\":4031:4110   */\n      tag_330\n      tag_245\n      jump\t// in\n    tag_330:\n        /* \"#utility.yul\":3993:4112   */\n    tag_329:\n        /* \"#utility.yul\":4151:4152   */\n      0x00\n        /* \"#utility.yul\":4176:4229   */\n      tag_331\n        /* \"#utility.yul\":4221:4228   */\n      dup5\n        /* \"#utility.yul\":4212:4218   */\n      dup3\n        /* \"#utility.yul\":4201:4210   */\n      dup6\n        /* \"#utility.yul\":4197:4219   */\n      add\n        /* \"#utility.yul\":4176:4229   */\n      tag_253\n      jump\t// in\n    tag_331:\n        /* \"#utility.yul\":4166:4229   */\n      swap2\n      pop\n        /* \"#utility.yul\":4122:4239   */\n      pop\n        /* \"#utility.yul\":3917:4246   */\n      swap3\n      swap2\n      pop\n      pop\n      jump\t// out\n        /* \"#utility.yul\":4252:4342   */\n    tag_255:\n        /* \"#utility.yul\":4286:4293   */\n      0x00\n        /* \"#utility.yul\":4329:4334   */\n      dup2\n        /* \"#utility.yul\":4322:4335   */\n      iszero\n        /* \"#utility.yul\":4315:4336   */\n      iszero\n        /* \"#utility.yul\":4304:4336   */\n      swap1\n      pop\n        /* \"#utility.yul\":4252:4342   */\n      swap2\n      swap1\n      pop\n      jump\t// out\n        /* \"#utility.yul\":4348:4457   */\n    tag_256:\n        /* \"#utility.yul\":4429:4450   */\n      tag_334\n        /* \"#utility.yul\":4444:4449   */\n      dup2\n        /* \"#utility.yul\":4429:4450   */\n      tag_255\n      jump\t// in\n    tag_334:\n        /* \"#utility.yul\":4424:4427   */\n      dup3\n        /* \"#utility.yul\":4417:4451   */\n      mstore\n        /* \"#utility.yul\":4348:4457   */\n      pop\n      pop\n      jump\t// out\n        /* \"#utility.yul\":4463:4673   */\n    tag_63:\n        /* \"#utility.yul\":4550:4554   */\n      0x00\n        /* \"#utility.yul\":4588:4590   */\n      0x20\n        /* \"#utility.yul\":4577:4586   */\n      dup3\n        /* \"#utility.yul\":4573:4591   */\n      add\n        /* \"#utility.yul\":4565:4591   */\n      swap1\n      pop\n        /* \"#utility.yul\":4601:4666   */\n      tag_336\n        /* \"#utility.yul\":4663:4664   */\n      0x00\n        /* \"#utility.yul\":4652:4661   */\n      dup4\n        /* \"#utility.yul\":4648:4665   */\n      add\n        /* \"#utility.yul\":4639:4645   */\n      dup5\n        /* \"#utility.yul\":4601:4666   */\n      tag_256\n      jump\t// in\n    tag_336:\n        /* \"#utility.yul\":4463:4673   */\n      swap3\n      swap2\n      pop\n      pop\n      jump\t// out\n        /* \"#utility.yul\":4679:5298   */\n    tag_88:\n        /* \"#utility.yul\":4756:4762   */\n      0x00\n        /* \"#utility.yul\":4764:4770   */\n      dup1\n        /* \"#utility.yul\":4772:4778   */\n      0x00\n        /* \"#utility.yul\":4821:4823   */\n      0x60\n        /* \"#utility.yul\":4809:4818   */\n      dup5\n        /* \"#utility.yul\":4800:4807   */\n      dup7\n        /* \"#utility.yul\":4796:4819   */\n      sub\n        /* \"#utility.yul\":4792:4824   */\n      slt\n        /* \"#utility.yul\":4789:4908   */\n      iszero\n      tag_338\n      jumpi\n        /* \"#utility.yul\":4827:4906   */\n      tag_339\n      tag_245\n      jump\t// in\n    tag_339:\n        /* \"#utility.yul\":4789:4908   */\n    tag_338:\n        /* \"#utility.yul\":4947:4948   */\n      0x00\n        /* \"#utility.yul\":4972:5025   */\n      tag_340\n        /* \"#utility.yul\":5017:5024   */\n      dup7\n        /* \"#utility.yul\":5008:5014   */\n      dup3\n        /* \"#utility.yul\":4997:5006   */\n      dup8\n        /* \"#utility.yul\":4993:5015   */\n      add\n        /* \"#utility.yul\":4972:5025   */\n      tag_250\n      jump\t// in\n    tag_340:\n        /* \"#utility.yul\":4962:5025   */\n      swap4\n      pop\n        /* \"#utility.yul\":4918:5035   */\n      pop\n        /* \"#utility.yul\":5074:5076   */\n      0x20\n        /* \"#utility.yul\":5100:5153   */\n      tag_341\n        /* \"#utility.yul\":5145:5152   */\n      dup7\n        /* \"#utility.yul\":5136:5142   */\n      dup3\n        /* \"#utility.yul\":5125:5134   */\n      dup8\n        /* \"#utility.yul\":5121:5143   */\n      add\n        /* \"#utility.yul\":5100:5153   */\n      tag_253\n      jump\t// in\n    tag_341:\n        /* \"#utility.yul\":5090:5153   */\n      swap3\n      pop\n        /* \"#utility.yul\":5045:5163   */\n      pop\n        /* \"#utility.yul\":5202:5204   */\n      0x40\n        /* \"#utility.yul\":5228:5281   */\n      tag_342\n        /* \"#utility.yul\":5273:5280   */\n      dup7\n        /* \"#utility.yul\":5264:5270   */\n      dup3\n        /* \"#utility.yul\":5253:5262   */\n      dup8\n        /* \"#utility.yul\":5249:5271   */\n      add\n        /* \"#utility.yul\":5228:5281   */\n      tag_253\n      jump\t// in\n    tag_342:\n        /* \"#utility.yul\":5218:5281   */\n      swap2\n      pop\n        /* \"#utility.yul\":5173:5291   */\n      pop\n        /* \"#utility.yul\":4679:5298   */\n      swap3\n      pop\n      swap3\n      pop\n      swap3\n      jump\t// out\n        /* \"#utility.yul\":5304:5422   */\n    tag_257:\n        /* \"#utility.yul\":5391:5415   */\n      tag_344\n        /* \"#utility.yul\":5409:5414   */\n      dup2\n        /* \"#utility.yul\":5391:5415   */\n      tag_248\n      jump\t// in\n    tag_344:\n        /* \"#utility.yul\":5386:5389   */\n      dup3\n        /* \"#utility.yul\":5379:5416   */\n      mstore\n        /* \"#utility.yul\":5304:5422   */\n      pop\n      pop\n      jump\t// out\n        /* \"#utility.yul\":5428:5650   */\n    tag_100:\n        /* \"#utility.yul\":5521:5525   */\n      0x00\n        /* \"#utility.yul\":5559:5561   */\n      0x20\n        /* \"#utility.yul\":5548:5557   */\n      dup3\n        /* \"#utility.yul\":5544:5562   */\n      add\n        /* \"#utility.yul\":5536:5562   */\n      swap1\n      pop\n        /* \"#utility.yul\":5572:5643   */\n      tag_346\n        /* \"#utility.yul\":5640:5641   */\n      0x00\n        /* \"#utility.yul\":5629:5638   */\n      dup4\n        /* \"#utility.yul\":5625:5642   */\n      add\n        /* \"#utility.yul\":5616:5622   */\n      dup5\n        /* \"#utility.yul\":5572:5643   */\n      tag_257\n      jump\t// in\n    tag_346:\n        /* \"#utility.yul\":5428:5650   */\n      swap3\n      swap2\n      pop\n      pop\n      jump\t// out\n        /* \"#utility.yul\":5656:6130   */\n    tag_109:\n        /* \"#utility.yul\":5724:5730   */\n      0x00\n        /* \"#utility.yul\":5732:5738   */\n      dup1\n        /* \"#utility.yul\":5781:5783   */\n      0x40\n        /* \"#utility.yul\":5769:5778   */\n      dup4\n        /* \"#utility.yul\":5760:5767   */\n      dup6\n        /* \"#utility.yul\":5756:5779   */\n      sub\n        /* \"#utility.yul\":5752:5784   */\n      slt\n        /* \"#utility.yul\":5749:5868   */\n      iszero\n      tag_348\n      jumpi\n        /* \"#utility.yul\":5787:5866   */\n      tag_349\n      tag_245\n      jump\t// in\n    tag_349:\n        /* \"#utility.yul\":5749:5868   */\n    tag_348:\n        /* \"#utility.yul\":5907:5908   */\n      0x00\n        /* \"#utility.yul\":5932:5985   */\n      tag_350\n        /* \"#utility.yul\":5977:5984   */\n      dup6\n        /* \"#utility.yul\":5968:5974   */\n      dup3\n        /* \"#utility.yul\":5957:5966   */\n      dup7\n        /* \"#utility.yul\":5953:5975   */\n      add\n        /* \"#utility.yul\":5932:5985   */\n      tag_253\n      jump\t// in\n    tag_350:\n        /* \"#utility.yul\":5922:5985   */\n      swap3\n      pop\n        /* \"#utility.yul\":5878:5995   */\n      pop\n        /* \"#utility.yul\":6034:6036   */\n      0x20\n        /* \"#utility.yul\":6060:6113   */\n      tag_351\n        /* \"#utility.yul\":6105:6112   */\n      dup6\n        /* \"#utility.yul\":6096:6102   */\n      dup3\n        /* \"#utility.yul\":6085:6094   */\n      dup7\n        /* \"#utility.yul\":6081:6103   */\n      add\n        /* \"#utility.yul\":6060:6113   */\n      tag_253\n      jump\t// in\n    tag_351:\n        /* \"#utility.yul\":6050:6113   */\n      swap2\n      pop\n        /* \"#utility.yul\":6005:6123   */\n      pop\n        /* \"#utility.yul\":5656:6130   */\n      swap3\n      pop\n      swap3\n      swap1\n      pop\n      jump\t// out\n        /* \"#utility.yul\":6136:6305   */\n    tag_258:\n        /* \"#utility.yul\":6220:6231   */\n      0x00\n        /* \"#utility.yul\":6254:6260   */\n      dup3\n        /* \"#utility.yul\":6249:6252   */\n      dup3\n        /* \"#utility.yul\":6242:6261   */\n      mstore\n        /* \"#utility.yul\":6294:6298   */\n      0x20\n        /* \"#utility.yul\":6289:6292   */\n      dup3\n        /* \"#utility.yul\":6285:6299   */\n      add\n        /* \"#utility.yul\":6270:6299   */\n      swap1\n      pop\n        /* \"#utility.yul\":6136:6305   */\n      swap3\n      swap2\n      pop\n      pop\n      jump\t// out\n        /* \"#utility.yul\":6311:6540   */\n    tag_259:\n        /* \"#utility.yul\":6451:6485   */\n      0x52657061796d656e7420616d6f756e74206d7573742062652067726561746572\n        /* \"#utility.yul\":6447:6448   */\n      0x00\n        /* \"#utility.yul\":6439:6445   */\n      dup3\n        /* \"#utility.yul\":6435:6449   */\n      add\n        /* \"#utility.yul\":6428:6486   */\n      mstore\n        /* \"#utility.yul\":6520:6532   */\n      0x207468616e207a65726f00000000000000000000000000000000000000000000\n        /* \"#utility.yul\":6515:6517   */\n      0x20\n        /* \"#utility.yul\":6507:6513   */\n      dup3\n        /* \"#utility.yul\":6503:6518   */\n      add\n        /* \"#utility.yul\":6496:6533   */\n      mstore\n        /* \"#utility.yul\":6311:6540   */\n      pop\n      jump\t// out\n        /* \"#utility.yul\":6546:6912   */\n    tag_260:\n        /* \"#utility.yul\":6688:6691   */\n      0x00\n        /* \"#utility.yul\":6709:6776   */\n      tag_355\n        /* \"#utility.yul\":6773:6775   */\n      0x2a\n        /* \"#utility.yul\":6768:6771   */\n      dup4\n        /* \"#utility.yul\":6709:6776   */\n      tag_258\n      jump\t// in\n    tag_355:\n        /* \"#utility.yul\":6702:6776   */\n      swap2\n      pop\n        /* \"#utility.yul\":6785:6878   */\n      tag_356\n        /* \"#utility.yul\":6874:6877   */\n      dup3\n        /* \"#utility.yul\":6785:6878   */\n      tag_259\n      jump\t// in\n    tag_356:\n        /* \"#utility.yul\":6903:6905   */\n      0x40\n        /* \"#utility.yul\":6898:6901   */\n      dup3\n        /* \"#utility.yul\":6894:6906   */\n      add\n        /* \"#utility.yul\":6887:6906   */\n      swap1\n      pop\n        /* \"#utility.yul\":6546:6912   */\n      swap2\n      swap1\n      pop\n      jump\t// out\n        /* \"#utility.yul\":6918:7337   */\n    tag_127:\n        /* \"#utility.yul\":7084:7088   */\n      0x00\n        /* \"#utility.yul\":7122:7124   */\n      0x20\n        /* \"#utility.yul\":7111:7120   */\n      dup3\n        /* \"#utility.yul\":7107:7125   */\n      add\n        /* \"#utility.yul\":7099:7125   */\n      swap1\n      pop\n        /* \"#utility.yul\":7171:7180   */\n      dup2\n        /* \"#utility.yul\":7165:7169   */\n      dup2\n        /* \"#utility.yul\":7161:7181   */\n      sub\n        /* \"#utility.yul\":7157:7158   */\n      0x00\n        /* \"#utility.yul\":7146:7155   */\n      dup4\n        /* \"#utility.yul\":7142:7159   */\n      add\n        /* \"#utility.yul\":7135:7182   */\n      mstore\n        /* \"#utility.yul\":7199:7330   */\n      tag_358\n        /* \"#utility.yul\":7325:7329   */\n      dup2\n        /* \"#utility.yul\":7199:7330   */\n      tag_260\n      jump\t// in\n    tag_358:\n        /* \"#utility.yul\":7191:7330   */\n      swap1\n      pop\n        /* \"#utility.yul\":6918:7337   */\n      swap2\n      swap1\n      pop\n      jump\t// out\n        /* \"#utility.yul\":7343:7523   */\n    tag_261:\n        /* \"#utility.yul\":7391:7468   */\n      0x4e487b7100000000000000000000000000000000000000000000000000000000\n        /* \"#utility.yul\":7388:7389   */\n      0x00\n        /* \"#utility.yul\":7381:7469   */\n      mstore\n        /* \"#utility.yul\":7488:7492   */\n      0x11\n        /* \"#utility.yul\":7485:7486   */\n      0x04\n        /* \"#utility.yul\":7478:7493   */\n      mstore\n        /* \"#utility.yul\":7512:7516   */\n      0x24\n        /* \"#utility.yul\":7509:7510   */\n      0x00\n        /* \"#utility.yul\":7502:7517   */\n      revert\n        /* \"#utility.yul\":7529:7723   */\n    tag_129:\n        /* \"#utility.yul\":7569:7573   */\n      0x00\n        /* \"#utility.yul\":7589:7609   */\n      tag_361\n        /* \"#utility.yul\":7607:7608   */\n      dup3\n        /* \"#utility.yul\":7589:7609   */\n      tag_251\n      jump\t// in\n    tag_361:\n        /* \"#utility.yul\":7584:7609   */\n      swap2\n      pop\n        /* \"#utility.yul\":7623:7643   */\n      tag_362\n        /* \"#utility.yul\":7641:7642   */\n      dup4\n        /* \"#utility.yul\":7623:7643   */\n      tag_251\n      jump\t// in\n    tag_362:\n        /* \"#utility.yul\":7618:7643   */\n      swap3\n      pop\n        /* \"#utility.yul\":7667:7668   */\n      dup3\n        /* \"#utility.yul\":7664:7665   */\n      dup3\n        /* \"#utility.yul\":7660:7669   */\n      sub\n        /* \"#utility.yul\":7652:7669   */\n      swap1\n      pop\n        /* \"#utility.yul\":7691:7692   */\n      dup2\n        /* \"#utility.yul\":7685:7689   */\n      dup2\n        /* \"#utility.yul\":7682:7693   */\n      gt\n        /* \"#utility.yul\":7679:7716   */\n      iszero\n      tag_363\n      jumpi\n        /* \"#utility.yul\":7696:7714   */\n      tag_364\n      tag_261\n      jump\t// in\n    tag_364:\n        /* \"#utility.yul\":7679:7716   */\n    tag_363:\n        /* \"#utility.yul\":7529:7723   */\n      swap3\n      swap2\n      pop\n      pop\n      jump\t// out\n        /* \"#utility.yul\":7729:7920   */\n    tag_134:\n        /* \"#utility.yul\":7769:7772   */\n      0x00\n        /* \"#utility.yul\":7788:7808   */\n      tag_366\n        /* \"#utility.yul\":7806:7807   */\n      dup3\n        /* \"#utility.yul\":7788:7808   */\n      tag_251\n      jump\t// in\n    tag_366:\n        /* \"#utility.yul\":7783:7808   */\n      swap2\n      pop\n        /* \"#utility.yul\":7822:7842   */\n      tag_367\n        /* \"#utility.yul\":7840:7841   */\n      dup4\n        /* \"#utility.yul\":7822:7842   */\n      tag_251\n      jump\t// in\n    tag_367:\n        /* \"#utility.yul\":7817:7842   */\n      swap3\n      pop\n        /* \"#utility.yul\":7865:7866   */\n      dup3\n        /* \"#utility.yul\":7862:7863   */\n      dup3\n        /* \"#utility.yul\":7858:7867   */\n      add\n        /* \"#utility.yul\":7851:7867   */\n      swap1\n      pop\n        /* \"#utility.yul\":7886:7889   */\n      dup1\n        /* \"#utility.yul\":7883:7884   */\n      dup3\n        /* \"#utility.yul\":7880:7890   */\n      gt\n        /* \"#utility.yul\":7877:7913   */\n      iszero\n      tag_368\n      jumpi\n        /* \"#utility.yul\":7893:7911   */\n      tag_369\n      tag_261\n      jump\t// in\n    tag_369:\n        /* \"#utility.yul\":7877:7913   */\n    tag_368:\n        /* \"#utility.yul\":7729:7920   */\n      swap3\n      swap2\n      pop\n      pop\n      jump\t// out\n        /* \"#utility.yul\":7926:8151   */\n    tag_262:\n        /* \"#utility.yul\":8066:8100   */\n      0x52657061796d656e7420616d6f756e74206578636565647320626f72726f7720\n        /* \"#utility.yul\":8062:8063   */\n      0x00\n        /* \"#utility.yul\":8054:8060   */\n      dup3\n        /* \"#utility.yul\":8050:8064   */\n      add\n        /* \"#utility.yul\":8043:8101   */\n      mstore\n        /* \"#utility.yul\":8135:8143   */\n      0x616d6f756e740000000000000000000000000000000000000000000000000000\n        /* \"#utility.yul\":8130:8132   */\n      0x20\n        /* \"#utility.yul\":8122:8128   */\n      dup3\n        /* \"#utility.yul\":8118:8133   */\n      add\n        /* \"#utility.yul\":8111:8144   */\n      mstore\n        /* \"#utility.yul\":7926:8151   */\n      pop\n      jump\t// out\n        /* \"#utility.yul\":8157:8523   */\n    tag_263:\n        /* \"#utility.yul\":8299:8302   */\n      0x00\n        /* \"#utility.yul\":8320:8387   */\n      tag_372\n        /* \"#utility.yul\":8384:8386   */\n      0x26\n        /* \"#utility.yul\":8379:8382   */\n      dup4\n        /* \"#utility.yul\":8320:8387   */\n      tag_258\n      jump\t// in\n    tag_372:\n        /* \"#utility.yul\":8313:8387   */\n      swap2\n      pop\n        /* \"#utility.yul\":8396:8489   */\n      tag_373\n        /* \"#utility.yul\":8485:8488   */\n      dup3\n        /* \"#utility.yul\":8396:8489   */\n      tag_262\n      jump\t// in\n    tag_373:\n        /* \"#utility.yul\":8514:8516   */\n      0x40\n        /* \"#utility.yul\":8509:8512   */\n      dup3\n        /* \"#utility.yul\":8505:8517   */\n      add\n        /* \"#utility.yul\":8498:8517   */\n      swap1\n      pop\n        /* \"#utility.yul\":8157:8523   */\n      swap2\n      swap1\n      pop\n      jump\t// out\n        /* \"#utility.yul\":8529:8948   */\n    tag_137:\n        /* \"#utility.yul\":8695:8699   */\n      0x00\n        /* \"#utility.yul\":8733:8735   */\n      0x20\n        /* \"#utility.yul\":8722:8731   */\n      dup3\n        /* \"#utility.yul\":8718:8736   */\n      add\n        /* \"#utility.yul\":8710:8736   */\n      swap1\n      pop\n        /* \"#utility.yul\":8782:8791   */\n      dup2\n        /* \"#utility.yul\":8776:8780   */\n      dup2\n        /* \"#utility.yul\":8772:8792   */\n      sub\n        /* \"#utility.yul\":8768:8769   */\n      0x00\n        /* \"#utility.yul\":8757:8766   */\n      dup4\n        /* \"#utility.yul\":8753:8770   */\n      add\n        /* \"#utility.yul\":8746:8793   */\n      mstore\n        /* \"#utility.yul\":8810:8941   */\n      tag_375\n        /* \"#utility.yul\":8936:8940   */\n      dup2\n        /* \"#utility.yul\":8810:8941   */\n      tag_263\n      jump\t// in\n    tag_375:\n        /* \"#utility.yul\":8802:8941   */\n      swap1\n      pop\n        /* \"#utility.yul\":8529:8948   */\n      swap2\n      swap1\n      pop\n      jump\t// out\n        /* \"#utility.yul\":8954:9194   */\n    tag_264:\n        /* \"#utility.yul\":9094:9128   */\n      0x496e73756666696369656e742066756e647320666f722072657061796d656e74\n        /* \"#utility.yul\":9090:9091   */\n      0x00\n        /* \"#utility.yul\":9082:9088   */\n      dup3\n        /* \"#utility.yul\":9078:9092   */\n      add\n        /* \"#utility.yul\":9071:9129   */\n      mstore\n        /* \"#utility.yul\":9163:9186   */\n      0x20616e64206163637275656420696e7465726573740000000000000000000000\n        /* \"#utility.yul\":9158:9160   */\n      0x20\n        /* \"#utility.yul\":9150:9156   */\n      dup3\n        /* \"#utility.yul\":9146:9161   */\n      add\n        /* \"#utility.yul\":9139:9187   */\n      mstore\n        /* \"#utility.yul\":8954:9194   */\n      pop\n      jump\t// out\n        /* \"#utility.yul\":9200:9566   */\n    tag_265:\n        /* \"#utility.yul\":9342:9345   */\n      0x00\n        /* \"#utility.yul\":9363:9430   */\n      tag_378\n        /* \"#utility.yul\":9427:9429   */\n      0x35\n        /* \"#utility.yul\":9422:9425   */\n      dup4\n        /* \"#utility.yul\":9363:9430   */\n      tag_258\n      jump\t// in\n    tag_378:\n        /* \"#utility.yul\":9356:9430   */\n      swap2\n      pop\n        /* \"#utility.yul\":9439:9532   */\n      tag_379\n        /* \"#utility.yul\":9528:9531   */\n      dup3\n        /* \"#utility.yul\":9439:9532   */\n      tag_264\n      jump\t// in\n    tag_379:\n        /* \"#utility.yul\":9557:9559   */\n      0x40\n        /* \"#utility.yul\":9552:9555   */\n      dup3\n        /* \"#utility.yul\":9548:9560   */\n      add\n        /* \"#utility.yul\":9541:9560   */\n      swap1\n      pop\n        /* \"#utility.yul\":9200:9566   */\n      swap2\n      swap1\n      pop\n      jump\t// out\n        /* \"#utility.yul\":9572:9991   */\n    tag_141:\n        /* \"#utility.yul\":9738:9742   */\n      0x00\n        /* \"#utility.yul\":9776:9778   */\n      0x20\n        /* \"#utility.yul\":9765:9774   */\n      dup3\n        /* \"#utility.yul\":9761:9779   */\n      add\n        /* \"#utility.yul\":9753:9779   */\n      swap1\n      pop\n        /* \"#utility.yul\":9825:9834   */\n      dup2\n        /* \"#utility.yul\":9819:9823   */\n      dup2\n        /* \"#utility.yul\":9815:9835   */\n      sub\n        /* \"#utility.yul\":9811:9812   */\n      0x00\n        /* \"#utility.yul\":9800:9809   */\n      dup4\n        /* \"#utility.yul\":9796:9813   */\n      add\n        /* \"#utility.yul\":9789:9836   */\n      mstore\n        /* \"#utility.yul\":9853:9984   */\n      tag_381\n        /* \"#utility.yul\":9979:9983   */\n      dup2\n        /* \"#utility.yul\":9853:9984   */\n      tag_265\n      jump\t// in\n    tag_381:\n        /* \"#utility.yul\":9845:9984   */\n      swap1\n      pop\n        /* \"#utility.yul\":9572:9991   */\n      swap2\n      swap1\n      pop\n      jump\t// out\n        /* \"#utility.yul\":9997:10219   */\n    tag_266:\n        /* \"#utility.yul\":10137:10171   */\n      0x496e73756666696369656e7420636f6c6c61746572616c20746f207769746864\n        /* \"#utility.yul\":10133:10134   */\n      0x00\n        /* \"#utility.yul\":10125:10131   */\n      dup3\n        /* \"#utility.yul\":10121:10135   */\n      add\n        /* \"#utility.yul\":10114:10172   */\n      mstore\n        /* \"#utility.yul\":10206:10211   */\n      0x7261770000000000000000000000000000000000000000000000000000000000\n        /* \"#utility.yul\":10201:10203   */\n      0x20\n        /* \"#utility.yul\":10193:10199   */\n      dup3\n        /* \"#utility.yul\":10189:10204   */\n      add\n        /* \"#utility.yul\":10182:10212   */\n      mstore\n        /* \"#utility.yul\":9997:10219   */\n      pop\n      jump\t// out\n        /* \"#utility.yul\":10225:10591   */\n    tag_267:\n        /* \"#utility.yul\":10367:10370   */\n      0x00\n        /* \"#utility.yul\":10388:10455   */\n      tag_384\n        /* \"#utility.yul\":10452:10454   */\n      0x23\n        /* \"#utility.yul\":10447:10450   */\n      dup4\n        /* \"#utility.yul\":10388:10455   */\n      tag_258\n      jump\t// in\n    tag_384:\n        /* \"#utility.yul\":10381:10455   */\n      swap2\n      pop\n        /* \"#utility.yul\":10464:10557   */\n      tag_385\n        /* \"#utility.yul\":10553:10556   */\n      dup3\n        /* \"#utility.yul\":10464:10557   */\n      tag_266\n      jump\t// in\n    tag_385:\n        /* \"#utility.yul\":10582:10584   */\n      0x40\n        /* \"#utility.yul\":10577:10580   */\n      dup3\n        /* \"#utility.yul\":10573:10585   */\n      add\n        /* \"#utility.yul\":10566:10585   */\n      swap1\n      pop\n        /* \"#utility.yul\":10225:10591   */\n      swap2\n      swap1\n      pop\n      jump\t// out\n        /* \"#utility.yul\":10597:11016   */\n    tag_153:\n        /* \"#utility.yul\":10763:10767   */\n      0x00\n        /* \"#utility.yul\":10801:10803   */\n      0x20\n        /* \"#utility.yul\":10790:10799   */\n      dup3\n        /* \"#utility.yul\":10786:10804   */\n      add\n        /* \"#utility.yul\":10778:10804   */\n      swap1\n      pop\n        /* \"#utility.yul\":10850:10859   */\n      dup2\n        /* \"#utility.yul\":10844:10848   */\n      dup2\n        /* \"#utility.yul\":10840:10860   */\n      sub\n        /* \"#utility.yul\":10836:10837   */\n      0x00\n        /* \"#utility.yul\":10825:10834   */\n      dup4\n        /* \"#utility.yul\":10821:10838   */\n      add\n        /* \"#utility.yul\":10814:10861   */\n      mstore\n        /* \"#utility.yul\":10878:11009   */\n      tag_387\n        /* \"#utility.yul\":11004:11008   */\n      dup2\n        /* \"#utility.yul\":10878:11009   */\n      tag_267\n      jump\t// in\n    tag_387:\n        /* \"#utility.yul\":10870:11009   */\n      swap1\n      pop\n        /* \"#utility.yul\":10597:11016   */\n      swap2\n      swap1\n      pop\n      jump\t// out\n        /* \"#utility.yul\":11022:11432   */\n    tag_159:\n        /* \"#utility.yul\":11062:11069   */\n      0x00\n        /* \"#utility.yul\":11085:11105   */\n      tag_389\n        /* \"#utility.yul\":11103:11104   */\n      dup3\n        /* \"#utility.yul\":11085:11105   */\n      tag_251\n      jump\t// in\n    tag_389:\n        /* \"#utility.yul\":11080:11105   */\n      swap2\n      pop\n        /* \"#utility.yul\":11119:11139   */\n      tag_390\n        /* \"#utility.yul\":11137:11138   */\n      dup4\n        /* \"#utility.yul\":11119:11139   */\n      tag_251\n      jump\t// in\n    tag_390:\n        /* \"#utility.yul\":11114:11139   */\n      swap3\n      pop\n        /* \"#utility.yul\":11174:11175   */\n      dup3\n        /* \"#utility.yul\":11171:11172   */\n      dup3\n        /* \"#utility.yul\":11167:11176   */\n      mul\n        /* \"#utility.yul\":11196:11226   */\n      tag_391\n        /* \"#utility.yul\":11214:11225   */\n      dup2\n        /* \"#utility.yul\":11196:11226   */\n      tag_251\n      jump\t// in\n    tag_391:\n        /* \"#utility.yul\":11185:11226   */\n      swap2\n      pop\n        /* \"#utility.yul\":11375:11376   */\n      dup3\n        /* \"#utility.yul\":11366:11373   */\n      dup3\n        /* \"#utility.yul\":11362:11377   */\n      div\n        /* \"#utility.yul\":11359:11360   */\n      dup5\n        /* \"#utility.yul\":11356:11378   */\n      eq\n        /* \"#utility.yul\":11336:11337   */\n      dup4\n        /* \"#utility.yul\":11329:11338   */\n      iszero\n        /* \"#utility.yul\":11309:11392   */\n      or\n        /* \"#utility.yul\":11286:11425   */\n      tag_392\n      jumpi\n        /* \"#utility.yul\":11405:11423   */\n      tag_393\n      tag_261\n      jump\t// in\n    tag_393:\n        /* \"#utility.yul\":11286:11425   */\n    tag_392:\n        /* \"#utility.yul\":11070:11432   */\n      pop\n        /* \"#utility.yul\":11022:11432   */\n      swap3\n      swap2\n      pop\n      pop\n      jump\t// out\n        /* \"#utility.yul\":11438:11618   */\n    tag_166:\n        /* \"#utility.yul\":11486:11563   */\n      0x4e487b7100000000000000000000000000000000000000000000000000000000\n        /* \"#utility.yul\":11483:11484   */\n      0x00\n        /* \"#utility.yul\":11476:11564   */\n      mstore\n        /* \"#utility.yul\":11583:11587   */\n      0x32\n        /* \"#utility.yul\":11580:11581   */\n      0x04\n        /* \"#utility.yul\":11573:11588   */\n      mstore\n        /* \"#utility.yul\":11607:11611   */\n      0x24\n        /* \"#utility.yul\":11604:11605   */\n      0x00\n        /* \"#utility.yul\":11597:11612   */\n      revert\n        /* \"#utility.yul\":11624:11851   */\n    tag_268:\n        /* \"#utility.yul\":11764:11798   */\n      0x4465706f73697420616d6f756e74206d75737420626520677265617465722074\n        /* \"#utility.yul\":11760:11761   */\n      0x00\n        /* \"#utility.yul\":11752:11758   */\n      dup3\n        /* \"#utility.yul\":11748:11762   */\n      add\n        /* \"#utility.yul\":11741:11799   */\n      mstore\n        /* \"#utility.yul\":11833:11843   */\n      0x68616e207a65726f000000000000000000000000000000000000000000000000\n        /* \"#utility.yul\":11828:11830   */\n      0x20\n        /* \"#utility.yul\":11820:11826   */\n      dup3\n        /* \"#utility.yul\":11816:11831   */\n      add\n        /* \"#utility.yul\":11809:11844   */\n      mstore\n        /* \"#utility.yul\":11624:11851   */\n      pop\n      jump\t// out\n        /* \"#utility.yul\":11857:12223   */\n    tag_269:\n        /* \"#utility.yul\":11999:12002   */\n      0x00\n        /* \"#utility.yul\":12020:12087   */\n      tag_397\n        /* \"#utility.yul\":12084:12086   */\n      0x28\n        /* \"#utility.yul\":12079:12082   */\n      dup4\n        /* \"#utility.yul\":12020:12087   */\n      tag_258\n      jump\t// in\n    tag_397:\n        /* \"#utility.yul\":12013:12087   */\n      swap2\n      pop\n        /* \"#utility.yul\":12096:12189   */\n      tag_398\n        /* \"#utility.yul\":12185:12188   */\n      dup3\n        /* \"#utility.yul\":12096:12189   */\n      tag_268\n      jump\t// in\n    tag_398:\n        /* \"#utility.yul\":12214:12216   */\n      0x40\n        /* \"#utility.yul\":12209:12212   */\n      dup3\n        /* \"#utility.yul\":12205:12217   */\n      add\n        /* \"#utility.yul\":12198:12217   */\n      swap1\n      pop\n        /* \"#utility.yul\":11857:12223   */\n      swap2\n      swap1\n      pop\n      jump\t// out\n        /* \"#utility.yul\":12229:12648   */\n    tag_173:\n        /* \"#utility.yul\":12395:12399   */\n      0x00\n        /* \"#utility.yul\":12433:12435   */\n      0x20\n        /* \"#utility.yul\":12422:12431   */\n      dup3\n        /* \"#utility.yul\":12418:12436   */\n      add\n        /* \"#utility.yul\":12410:12436   */\n      swap1\n      pop\n        /* \"#utility.yul\":12482:12491   */\n      dup2\n        /* \"#utility.yul\":12476:12480   */\n      dup2\n        /* \"#utility.yul\":12472:12492   */\n      sub\n        /* \"#utility.yul\":12468:12469   */\n      0x00\n        /* \"#utility.yul\":12457:12466   */\n      dup4\n        /* \"#utility.yul\":12453:12470   */\n      add\n        /* \"#utility.yul\":12446:12493   */\n      mstore\n        /* \"#utility.yul\":12510:12641   */\n      tag_400\n        /* \"#utility.yul\":12636:12640   */\n      dup2\n        /* \"#utility.yul\":12510:12641   */\n      tag_269\n      jump\t// in\n    tag_400:\n        /* \"#utility.yul\":12502:12641   */\n      swap1\n      pop\n        /* \"#utility.yul\":12229:12648   */\n      swap2\n      swap1\n      pop\n      jump\t// out\n        /* \"#utility.yul\":12654:13096   */\n    tag_175:\n        /* \"#utility.yul\":12803:12807   */\n      0x00\n        /* \"#utility.yul\":12841:12843   */\n      0x60\n        /* \"#utility.yul\":12830:12839   */\n      dup3\n        /* \"#utility.yul\":12826:12844   */\n      add\n        /* \"#utility.yul\":12818:12844   */\n      swap1\n      pop\n        /* \"#utility.yul\":12854:12925   */\n      tag_402\n        /* \"#utility.yul\":12922:12923   */\n      0x00\n        /* \"#utility.yul\":12911:12920   */\n      dup4\n        /* \"#utility.yul\":12907:12924   */\n      add\n        /* \"#utility.yul\":12898:12904   */\n      dup7\n        /* \"#utility.yul\":12854:12925   */\n      tag_257\n      jump\t// in\n    tag_402:\n        /* \"#utility.yul\":12935:13007   */\n      tag_403\n        /* \"#utility.yul\":13003:13005   */\n      0x20\n        /* \"#utility.yul\":12992:13001   */\n      dup4\n        /* \"#utility.yul\":12988:13006   */\n      add\n        /* \"#utility.yul\":12979:12985   */\n      dup6\n        /* \"#utility.yul\":12935:13007   */\n      tag_257\n      jump\t// in\n    tag_403:\n        /* \"#utility.yul\":13017:13089   */\n      tag_404\n        /* \"#utility.yul\":13085:13087   */\n      0x40\n        /* \"#utility.yul\":13074:13083   */\n      dup4\n        /* \"#utility.yul\":13070:13088   */\n      add\n        /* \"#utility.yul\":13061:13067   */\n      dup5\n        /* \"#utility.yul\":13017:13089   */\n      tag_254\n      jump\t// in\n    tag_404:\n        /* \"#utility.yul\":12654:13096   */\n      swap5\n      swap4\n      pop\n      pop\n      pop\n      pop\n      jump\t// out\n        /* \"#utility.yul\":13102:13218   */\n    tag_270:\n        /* \"#utility.yul\":13172:13193   */\n      tag_406\n        /* \"#utility.yul\":13187:13192   */\n      dup2\n        /* \"#utility.yul\":13172:13193   */\n      tag_255\n      jump\t// in\n    tag_406:\n        /* \"#utility.yul\":13165:13170   */\n      dup2\n        /* \"#utility.yul\":13162:13194   */\n      eq\n        /* \"#utility.yul\":13152:13212   */\n      tag_407\n      jumpi\n        /* \"#utility.yul\":13208:13209   */\n      0x00\n        /* \"#utility.yul\":13205:13206   */\n      dup1\n        /* \"#utility.yul\":13198:13210   */\n      revert\n        /* \"#utility.yul\":13152:13212   */\n    tag_407:\n        /* \"#utility.yul\":13102:13218   */\n      pop\n      jump\t// out\n        /* \"#utility.yul\":13224:13361   */\n    tag_271:\n        /* \"#utility.yul\":13278:13283   */\n      0x00\n        /* \"#utility.yul\":13309:13315   */\n      dup2\n        /* \"#utility.yul\":13303:13316   */\n      mload\n        /* \"#utility.yul\":13294:13316   */\n      swap1\n      pop\n        /* \"#utility.yul\":13325:13355   */\n      tag_409\n        /* \"#utility.yul\":13349:13354   */\n      dup2\n        /* \"#utility.yul\":13325:13355   */\n      tag_270\n      jump\t// in\n    tag_409:\n        /* \"#utility.yul\":13224:13361   */\n      swap3\n      swap2\n      pop\n      pop\n      jump\t// out\n        /* \"#utility.yul\":13367:13712   */\n    tag_179:\n        /* \"#utility.yul\":13434:13440   */\n      0x00\n        /* \"#utility.yul\":13483:13485   */\n      0x20\n        /* \"#utility.yul\":13471:13480   */\n      dup3\n        /* \"#utility.yul\":13462:13469   */\n      dup5\n        /* \"#utility.yul\":13458:13481   */\n      sub\n        /* \"#utility.yul\":13454:13486   */\n      slt\n        /* \"#utility.yul\":13451:13570   */\n      iszero\n      tag_411\n      jumpi\n        /* \"#utility.yul\":13489:13568   */\n      tag_412\n      tag_245\n      jump\t// in\n    tag_412:\n        /* \"#utility.yul\":13451:13570   */\n    tag_411:\n        /* \"#utility.yul\":13609:13610   */\n      0x00\n        /* \"#utility.yul\":13634:13695   */\n      tag_413\n        /* \"#utility.yul\":13687:13694   */\n      dup5\n        /* \"#utility.yul\":13678:13684   */\n      dup3\n        /* \"#utility.yul\":13667:13676   */\n      dup6\n        /* \"#utility.yul\":13663:13685   */\n      add\n        /* \"#utility.yul\":13634:13695   */\n      tag_271\n      jump\t// in\n    tag_413:\n        /* \"#utility.yul\":13624:13695   */\n      swap2\n      pop\n        /* \"#utility.yul\":13580:13705   */\n      pop\n        /* \"#utility.yul\":13367:13712   */\n      swap3\n      swap2\n      pop\n      pop\n      jump\t// out\n        /* \"#utility.yul\":13718:13944   */\n    tag_272:\n        /* \"#utility.yul\":13858:13892   */\n      0x426f72726f7720616d6f756e74206d7573742062652067726561746572207468\n        /* \"#utility.yul\":13854:13855   */\n      0x00\n        /* \"#utility.yul\":13846:13852   */\n      dup3\n        /* \"#utility.yul\":13842:13856   */\n      add\n        /* \"#utility.yul\":13835:13893   */\n      mstore\n        /* \"#utility.yul\":13927:13936   */\n      0x616e207a65726f00000000000000000000000000000000000000000000000000\n        /* \"#utility.yul\":13922:13924   */\n      0x20\n        /* \"#utility.yul\":13914:13920   */\n      dup3\n        /* \"#utility.yul\":13910:13925   */\n      add\n        /* \"#utility.yul\":13903:13937   */\n      mstore\n        /* \"#utility.yul\":13718:13944   */\n      pop\n      jump\t// out\n        /* \"#utility.yul\":13950:14316   */\n    tag_273:\n        /* \"#utility.yul\":14092:14095   */\n      0x00\n        /* \"#utility.yul\":14113:14180   */\n      tag_416\n        /* \"#utility.yul\":14177:14179   */\n      0x27\n        /* \"#utility.yul\":14172:14175   */\n      dup4\n        /* \"#utility.yul\":14113:14180   */\n      tag_258\n      jump\t// in\n    tag_416:\n        /* \"#utility.yul\":14106:14180   */\n      swap2\n      pop\n        /* \"#utility.yul\":14189:14282   */\n      tag_417\n        /* \"#utility.yul\":14278:14281   */\n      dup3\n        /* \"#utility.yul\":14189:14282   */\n      tag_272\n      jump\t// in\n    tag_417:\n        /* \"#utility.yul\":14307:14309   */\n      0x40\n        /* \"#utility.yul\":14302:14305   */\n      dup3\n        /* \"#utility.yul\":14298:14310   */\n      add\n        /* \"#utility.yul\":14291:14310   */\n      swap1\n      pop\n        /* \"#utility.yul\":13950:14316   */\n      swap2\n      swap1\n      pop\n      jump\t// out\n        /* \"#utility.yul\":14322:14741   */\n    tag_187:\n        /* \"#utility.yul\":14488:14492   */\n      0x00\n        /* \"#utility.yul\":14526:14528   */\n      0x20\n        /* \"#utility.yul\":14515:14524   */\n      dup3\n        /* \"#utility.yul\":14511:14529   */\n      add\n        /* \"#utility.yul\":14503:14529   */\n      swap1\n      pop\n        /* \"#utility.yul\":14575:14584   */\n      dup2\n        /* \"#utility.yul\":14569:14573   */\n      dup2\n        /* \"#utility.yul\":14565:14585   */\n      sub\n        /* \"#utility.yul\":14561:14562   */\n      0x00\n        /* \"#utility.yul\":14550:14559   */\n      dup4\n        /* \"#utility.yul\":14546:14563   */\n      add\n        /* \"#utility.yul\":14539:14586   */\n      mstore\n        /* \"#utility.yul\":14603:14734   */\n      tag_419\n        /* \"#utility.yul\":14729:14733   */\n      dup2\n        /* \"#utility.yul\":14603:14734   */\n      tag_273\n      jump\t// in\n    tag_419:\n        /* \"#utility.yul\":14595:14734   */\n      swap1\n      pop\n        /* \"#utility.yul\":14322:14741   */\n      swap2\n      swap1\n      pop\n      jump\t// out\n        /* \"#utility.yul\":14747:14920   */\n    tag_274:\n        /* \"#utility.yul\":14887:14912   */\n      0x496e73756666696369656e7420636f6c6c61746572616c000000000000000000\n        /* \"#utility.yul\":14883:14884   */\n      0x00\n        /* \"#utility.yul\":14875:14881   */\n      dup3\n        /* \"#utility.yul\":14871:14885   */\n      add\n        /* \"#utility.yul\":14864:14913   */\n      mstore\n        /* \"#utility.yul\":14747:14920   */\n      pop\n      jump\t// out\n        /* \"#utility.yul\":14926:15292   */\n    tag_275:\n        /* \"#utility.yul\":15068:15071   */\n      0x00\n        /* \"#utility.yul\":15089:15156   */\n      tag_422\n        /* \"#utility.yul\":15153:15155   */\n      0x17\n        /* \"#utility.yul\":15148:15151   */\n      dup4\n        /* \"#utility.yul\":15089:15156   */\n      tag_258\n      jump\t// in\n    tag_422:\n        /* \"#utility.yul\":15082:15156   */\n      swap2\n      pop\n        /* \"#utility.yul\":15165:15258   */\n      tag_423\n        /* \"#utility.yul\":15254:15257   */\n      dup3\n        /* \"#utility.yul\":15165:15258   */\n      tag_274\n      jump\t// in\n    tag_423:\n        /* \"#utility.yul\":15283:15285   */\n      0x20\n        /* \"#utility.yul\":15278:15281   */\n      dup3\n        /* \"#utility.yul\":15274:15286   */\n      add\n        /* \"#utility.yul\":15267:15286   */\n      swap1\n      pop\n        /* \"#utility.yul\":14926:15292   */\n      swap2\n      swap1\n      pop\n      jump\t// out\n        /* \"#utility.yul\":15298:15717   */\n    tag_191:\n        /* \"#utility.yul\":15464:15468   */\n      0x00\n        /* \"#utility.yul\":15502:15504   */\n      0x20\n        /* \"#utility.yul\":15491:15500   */\n      dup3\n        /* \"#utility.yul\":15487:15505   */\n      add\n        /* \"#utility.yul\":15479:15505   */\n      swap1\n      pop\n        /* \"#utility.yul\":15551:15560   */\n      dup2\n        /* \"#utility.yul\":15545:15549   */\n      dup2\n        /* \"#utility.yul\":15541:15561   */\n      sub\n        /* \"#utility.yul\":15537:15538   */\n      0x00\n        /* \"#utility.yul\":15526:15535   */\n      dup4\n        /* \"#utility.yul\":15522:15539   */\n      add\n        /* \"#utility.yul\":15515:15562   */\n      mstore\n        /* \"#utility.yul\":15579:15710   */\n      tag_425\n        /* \"#utility.yul\":15705:15709   */\n      dup2\n        /* \"#utility.yul\":15579:15710   */\n      tag_275\n      jump\t// in\n    tag_425:\n        /* \"#utility.yul\":15571:15710   */\n      swap1\n      pop\n        /* \"#utility.yul\":15298:15717   */\n      swap2\n      swap1\n      pop\n      jump\t// out\n        /* \"#utility.yul\":15723:15866   */\n    tag_276:\n        /* \"#utility.yul\":15780:15785   */\n      0x00\n        /* \"#utility.yul\":15811:15817   */\n      dup2\n        /* \"#utility.yul\":15805:15818   */\n      mload\n        /* \"#utility.yul\":15796:15818   */\n      swap1\n      pop\n        /* \"#utility.yul\":15827:15860   */\n      tag_427\n        /* \"#utility.yul\":15854:15859   */\n      dup2\n        /* \"#utility.yul\":15827:15860   */\n      tag_252\n      jump\t// in\n    tag_427:\n        /* \"#utility.yul\":15723:15866   */\n      swap3\n      swap2\n      pop\n      pop\n      jump\t// out\n        /* \"#utility.yul\":15872:16223   */\n    tag_196:\n        /* \"#utility.yul\":15942:15948   */\n      0x00\n        /* \"#utility.yul\":15991:15993   */\n      0x20\n        /* \"#utility.yul\":15979:15988   */\n      dup3\n        /* \"#utility.yul\":15970:15977   */\n      dup5\n        /* \"#utility.yul\":15966:15989   */\n      sub\n        /* \"#utility.yul\":15962:15994   */\n      slt\n        /* \"#utility.yul\":15959:16078   */\n      iszero\n      tag_429\n      jumpi\n        /* \"#utility.yul\":15997:16076   */\n      tag_430\n      tag_245\n      jump\t// in\n    tag_430:\n        /* \"#utility.yul\":15959:16078   */\n    tag_429:\n        /* \"#utility.yul\":16117:16118   */\n      0x00\n        /* \"#utility.yul\":16142:16206   */\n      tag_431\n        /* \"#utility.yul\":16198:16205   */\n      dup5\n        /* \"#utility.yul\":16189:16195   */\n      dup3\n        /* \"#utility.yul\":16178:16187   */\n      dup6\n        /* \"#utility.yul\":16174:16196   */\n      add\n        /* \"#utility.yul\":16142:16206   */\n      tag_276\n      jump\t// in\n    tag_431:\n        /* \"#utility.yul\":16132:16206   */\n      swap2\n      pop\n        /* \"#utility.yul\":16088:16216   */\n      pop\n        /* \"#utility.yul\":15872:16223   */\n      swap3\n      swap2\n      pop\n      pop\n      jump\t// out\n        /* \"#utility.yul\":16229:16452   */\n    tag_277:\n        /* \"#utility.yul\":16369:16403   */\n      0x496e73756666696369656e74206c697175696469747920666f7220626f72726f\n        /* \"#utility.yul\":16365:16366   */\n      0x00\n        /* \"#utility.yul\":16357:16363   */\n      dup3\n        /* \"#utility.yul\":16353:16367   */\n      add\n        /* \"#utility.yul\":16346:16404   */\n      mstore\n        /* \"#utility.yul\":16438:16444   */\n      0x77696e6700000000000000000000000000000000000000000000000000000000\n        /* \"#utility.yul\":16433:16435   */\n      0x20\n        /* \"#utility.yul\":16425:16431   */\n      dup3\n        /* \"#utility.yul\":16421:16436   */\n      add\n        /* \"#utility.yul\":16414:16445   */\n      mstore\n        /* \"#utility.yul\":16229:16452   */\n      pop\n      jump\t// out\n        /* \"#utility.yul\":16458:16824   */\n    tag_278:\n        /* \"#utility.yul\":16600:16603   */\n      0x00\n        /* \"#utility.yul\":16621:16688   */\n      tag_434\n        /* \"#utility.yul\":16685:16687   */\n      0x24\n        /* \"#utility.yul\":16680:16683   */\n      dup4\n        /* \"#utility.yul\":16621:16688   */\n      tag_258\n      jump\t// in\n    tag_434:\n        /* \"#utility.yul\":16614:16688   */\n      swap2\n      pop\n        /* \"#utility.yul\":16697:16790   */\n      tag_435\n        /* \"#utility.yul\":16786:16789   */\n      dup3\n        /* \"#utility.yul\":16697:16790   */\n      tag_277\n      jump\t// in\n    tag_435:\n        /* \"#utility.yul\":16815:16817   */\n      0x40\n        /* \"#utility.yul\":16810:16813   */\n      dup3\n        /* \"#utility.yul\":16806:16818   */\n      add\n        /* \"#utility.yul\":16799:16818   */\n      swap1\n      pop\n        /* \"#utility.yul\":16458:16824   */\n      swap2\n      swap1\n      pop\n      jump\t// out\n        /* \"#utility.yul\":16830:17249   */\n    tag_199:\n        /* \"#utility.yul\":16996:17000   */\n      0x00\n        /* \"#utility.yul\":17034:17036   */\n      0x20\n        /* \"#utility.yul\":17023:17032   */\n      dup3\n        /* \"#utility.yul\":17019:17037   */\n      add\n        /* \"#utility.yul\":17011:17037   */\n      swap1\n      pop\n        /* \"#utility.yul\":17083:17092   */\n      dup2\n        /* \"#utility.yul\":17077:17081   */\n      dup2\n        /* \"#utility.yul\":17073:17093   */\n      sub\n        /* \"#utility.yul\":17069:17070   */\n      0x00\n        /* \"#utility.yul\":17058:17067   */\n      dup4\n        /* \"#utility.yul\":17054:17071   */\n      add\n        /* \"#utility.yul\":17047:17094   */\n      mstore\n        /* \"#utility.yul\":17111:17242   */\n      tag_437\n        /* \"#utility.yul\":17237:17241   */\n      dup2\n        /* \"#utility.yul\":17111:17242   */\n      tag_278\n      jump\t// in\n    tag_437:\n        /* \"#utility.yul\":17103:17242   */\n      swap1\n      pop\n        /* \"#utility.yul\":16830:17249   */\n      swap2\n      swap1\n      pop\n      jump\t// out\n        /* \"#utility.yul\":17255:17435   */\n    tag_279:\n        /* \"#utility.yul\":17303:17380   */\n      0x4e487b7100000000000000000000000000000000000000000000000000000000\n        /* \"#utility.yul\":17300:17301   */\n      0x00\n        /* \"#utility.yul\":17293:17381   */\n      mstore\n        /* \"#utility.yul\":17400:17404   */\n      0x12\n        /* \"#utility.yul\":17397:17398   */\n      0x04\n        /* \"#utility.yul\":17390:17405   */\n      mstore\n        /* \"#utility.yul\":17424:17428   */\n      0x24\n        /* \"#utility.yul\":17421:17422   */\n      0x00\n        /* \"#utility.yul\":17414:17429   */\n      revert\n        /* \"#utility.yul\":17441:17626   */\n    tag_219:\n        /* \"#utility.yul\":17481:17482   */\n      0x00\n        /* \"#utility.yul\":17498:17518   */\n      tag_440\n        /* \"#utility.yul\":17516:17517   */\n      dup3\n        /* \"#utility.yul\":17498:17518   */\n      tag_251\n      jump\t// in\n    tag_440:\n        /* \"#utility.yul\":17493:17518   */\n      swap2\n      pop\n        /* \"#utility.yul\":17532:17552   */\n      tag_441\n        /* \"#utility.yul\":17550:17551   */\n      dup4\n        /* \"#utility.yul\":17532:17552   */\n      tag_251\n      jump\t// in\n    tag_441:\n        /* \"#utility.yul\":17527:17552   */\n      swap3\n      pop\n        /* \"#utility.yul\":17571:17572   */\n      dup3\n        /* \"#utility.yul\":17561:17596   */\n      tag_442\n      jumpi\n        /* \"#utility.yul\":17576:17594   */\n      tag_443\n      tag_279\n      jump\t// in\n    tag_443:\n        /* \"#utility.yul\":17561:17596   */\n    tag_442:\n        /* \"#utility.yul\":17618:17619   */\n      dup3\n        /* \"#utility.yul\":17615:17616   */\n      dup3\n        /* \"#utility.yul\":17611:17620   */\n      div\n        /* \"#utility.yul\":17606:17620   */\n      swap1\n      pop\n        /* \"#utility.yul\":17441:17626   */\n      swap3\n      swap2\n      pop\n      pop\n      jump\t// out\n        /* \"#utility.yul\":17632:17813   */\n    tag_280:\n        /* \"#utility.yul\":17772:17805   */\n      0x5265656e7472616e637947756172643a207265656e7472616e742063616c6c00\n        /* \"#utility.yul\":17768:17769   */\n      0x00\n        /* \"#utility.yul\":17760:17766   */\n      dup3\n        /* \"#utility.yul\":17756:17770   */\n      add\n        /* \"#utility.yul\":17749:17806   */\n      mstore\n        /* \"#utility.yul\":17632:17813   */\n      pop\n      jump\t// out\n        /* \"#utility.yul\":17819:18185   */\n    tag_281:\n        /* \"#utility.yul\":17961:17964   */\n      0x00\n        /* \"#utility.yul\":17982:18049   */\n      tag_446\n        /* \"#utility.yul\":18046:18048   */\n      0x1f\n        /* \"#utility.yul\":18041:18044   */\n      dup4\n        /* \"#utility.yul\":17982:18049   */\n      tag_258\n      jump\t// in\n    tag_446:\n        /* \"#utility.yul\":17975:18049   */\n      swap2\n      pop\n        /* \"#utility.yul\":18058:18151   */\n      tag_447\n        /* \"#utility.yul\":18147:18150   */\n      dup3\n        /* \"#utility.yul\":18058:18151   */\n      tag_280\n      jump\t// in\n    tag_447:\n        /* \"#utility.yul\":18176:18178   */\n      0x20\n        /* \"#utility.yul\":18171:18174   */\n      dup3\n        /* \"#utility.yul\":18167:18179   */\n      add\n        /* \"#utility.yul\":18160:18179   */\n      swap1\n      pop\n        /* \"#utility.yul\":17819:18185   */\n      swap2\n      swap1\n      pop\n      jump\t// out\n        /* \"#utility.yul\":18191:18610   */\n    tag_238:\n        /* \"#utility.yul\":18357:18361   */\n      0x00\n        /* \"#utility.yul\":18395:18397   */\n      0x20\n        /* \"#utility.yul\":18384:18393   */\n      dup3\n        /* \"#utility.yul\":18380:18398   */\n      add\n        /* \"#utility.yul\":18372:18398   */\n      swap1\n      pop\n        /* \"#utility.yul\":18444:18453   */\n      dup2\n        /* \"#utility.yul\":18438:18442   */\n      dup2\n        /* \"#utility.yul\":18434:18454   */\n      sub\n        /* \"#utility.yul\":18430:18431   */\n      0x00\n        /* \"#utility.yul\":18419:18428   */\n      dup4\n        /* \"#utility.yul\":18415:18432   */\n      add\n        /* \"#utility.yul\":18408:18455   */\n      mstore\n        /* \"#utility.yul\":18472:18603   */\n      tag_449\n        /* \"#utility.yul\":18598:18602   */\n      dup2\n        /* \"#utility.yul\":18472:18603   */\n      tag_281\n      jump\t// in\n    tag_449:\n        /* \"#utility.yul\":18464:18603   */\n      swap1\n      pop\n        /* \"#utility.yul\":18191:18610   */\n      swap2\n      swap1\n      pop\n      jump\t// out\n\n    auxdata: 0xa2646970667358221220717ef7506bd352b68878726677c02cead8611cb69a49e5c02ddf8f26486b46b064736f6c63430008180033\n}\n",
				"bytecode": {
					"linkReferences": {},
					"object": "6080604052600a600155348015610014575f80fd5b5060015f81905550611ec5806100295f395ff3fe608060405260043610610113575f3560e01c80634b8a35291161009f578063c625562611610063578063c6255626146103db578063cc218ece14610417578063d526fc2e14610453578063e80894b61461048f578063f970c3b7146104cb57610113565b80634b8a3529146102e1578063664fa64e146102fd5780636805d6ad146103395780639ee7f70214610375578063afd92762146103b157610113565b80632ae8bdfe116100e65780632ae8bdfe146101e957806334931b4b146102115780633b591d6a1461024d578063436d80391461028957806347e7ef24146102c557610113565b806322867d7814610117578063234a14f91461013357806323d0fda11461016f578063272d1b8e146101ab575b5f80fd5b610131600480360381019061012c919061153e565b6104f3565b005b34801561013e575f80fd5b506101596004803603810190610154919061157c565b61080d565b60405161016691906115c9565b60405180910390f35b34801561017a575f80fd5b50610195600480360381019061019091906115e2565b61082d565b6040516101a291906115c9565b60405180910390f35b3480156101b6575f80fd5b506101d160048036038101906101cc919061157c565b610842565b6040516101e09392919061160d565b60405180910390f35b3480156101f4575f80fd5b5061020f600480360381019061020a9190611642565b610873565b005b34801561021c575f80fd5b5061023760048036038101906102329190611692565b6109c1565b60405161024491906115c9565b60405180910390f35b348015610258575f80fd5b50610273600480360381019061026e9190611642565b6109dc565b60405161028091906116d7565b60405180910390f35b348015610294575f80fd5b506102af60048036038101906102aa919061157c565b610ada565b6040516102bc91906115c9565b60405180910390f35b6102df60048036038101906102da919061153e565b610afa565b005b6102fb60048036038101906102f6919061153e565b610cb1565b005b348015610308575f80fd5b50610323600480360381019061031e919061157c565b611084565b60405161033091906115c9565b60405180910390f35b348015610344575f80fd5b5061035f600480360381019061035a919061157c565b611168565b60405161036c91906115c9565b60405180910390f35b348015610380575f80fd5b5061039b600480360381019061039691906116f0565b6111ea565b6040516103a891906115c9565b60405180910390f35b3480156103bc575f80fd5b506103c56111f2565b6040516103d291906115c9565b60405180910390f35b3480156103e6575f80fd5b5061040160048036038101906103fc9190611692565b6111f8565b60405161040e919061174f565b60405180910390f35b348015610422575f80fd5b5061043d6004803603810190610438919061157c565b611233565b60405161044a91906115c9565b60405180910390f35b34801561045e575f80fd5b5061047960048036038101906104749190611768565b611253565b60405161048691906115c9565b60405180910390f35b34801561049a575f80fd5b506104b560048036038101906104b091906115e2565b61138f565b6040516104c291906115c9565b60405180910390f35b3480156104d6575f80fd5b506104f160048036038101906104ec9190611642565b6113a4565b005b6104fb611437565b5f811161053d576040517f08c379a000000000000000000000000000000000000000000000000000000000815260040161053490611826565b60405180910390fd5b8060045f8473ffffffffffffffffffffffffffffffffffffffff1673ffffffffffffffffffffffffffffffffffffffff1681526020019081526020015f205f3373ffffffffffffffffffffffffffffffffffffffff1673ffffffffffffffffffffffffffffffffffffffff1681526020019081526020015f205f8282546105c49190611871565b925050819055508060065f8473ffffffffffffffffffffffffffffffffffffffff1673ffffffffffffffffffffffffffffffffffffffff1681526020019081526020015f205f8282546106179190611871565b925050819055508060075f3373ffffffffffffffffffffffffffffffffffffffff1673ffffffffffffffffffffffffffffffffffffffff1681526020019081526020015f205f82825461066a9190611871565b925050819055505f61067c8333611084565b9050808261068a91906118a4565b60045f8573ffffffffffffffffffffffffffffffffffffffff1673ffffffffffffffffffffffffffffffffffffffff1681526020019081526020015f205f3373ffffffffffffffffffffffffffffffffffffffff1673ffffffffffffffffffffffffffffffffffffffff1681526020019081526020015f20541015610744576040517f08c379a000000000000000000000000000000000000000000000000000000000815260040161073b90611947565b60405180910390fd5b34818361075191906118a4565b1015610792576040517f08c379a0000000000000000000000000000000000000000000000000000000008152600401610789906119d5565b60405180910390fd5b34818361079f91906118a4565b1115610800573373ffffffffffffffffffffffffffffffffffffffff166108fc3483856107cc91906118a4565b6107d69190611871565b90811502906040515f60405180830381858888f193505050501580156107fe573d5f803e3d5ffd5b505b50610809611484565b5050565b6004602052815f5260405f20602052805f5260405f205f91509150505481565b6007602052805f5260405f205f915090505481565b6008602052815f5260405f20602052805f5260405f205f9150915050805f0154908060010154908060020154905083565b8060055f8573ffffffffffffffffffffffffffffffffffffffff1673ffffffffffffffffffffffffffffffffffffffff1681526020019081526020015f205f8473ffffffffffffffffffffffffffffffffffffffff1673ffffffffffffffffffffffffffffffffffffffff1681526020019081526020015f2054101561092e576040517f08c379a000000000000000000000000000000000000000000000000000000000815260040161092590611a63565b60405180910390fd5b8060055f8573ffffffffffffffffffffffffffffffffffffffff1673ffffffffffffffffffffffffffffffffffffffff1681526020019081526020015f205f8473ffffffffffffffffffffffffffffffffffffffff1673ffffffffffffffffffffffffffffffffffffffff1681526020019081526020015f205f8282546109b59190611871565b92505081905550505050565b5f6109ca61148d565b826109d59190611a81565b9050919050565b5f805f90505f5b600380549050811015610abe5760025f60038381548110610a0757610a06611ac2565b5b905f5260205f20015f9054906101000a900473ffffffffffffffffffffffffffffffffffffffff1673ffffffffffffffffffffffffffffffffffffffff1673ffffffffffffffffffffffffffffffffffffffff1681526020019081526020015f205f8773ffffffffffffffffffffffffffffffffffffffff1673ffffffffffffffffffffffffffffffffffffffff1681526020019081526020015f205482610aaf91906118a4565b915080806001019150506109e3565b505f610ac9846109c1565b905080821015925050509392505050565b6002602052815f5260405f20602052805f5260405f205f91509150505481565b5f8111610b3c576040517f08c379a0000000000000000000000000000000000000000000000000000000008152600401610b3390611b5f565b60405180910390fd5b8173ffffffffffffffffffffffffffffffffffffffff166323b872dd3330846040518463ffffffff1660e01b8152600401610b7993929190611b7d565b6020604051808303815f875af1158015610b95573d5f803e3d5ffd5b505050506040513d601f19601f82011682018060405250810190610bb99190611bdc565b508060025f8473ffffffffffffffffffffffffffffffffffffffff1673ffffffffffffffffffffffffffffffffffffffff1681526020019081526020015f205f3373ffffffffffffffffffffffffffffffffffffffff1673ffffffffffffffffffffffffffffffffffffffff1681526020019081526020015f205f828254610c4191906118a4565b925050819055503373ffffffffffffffffffffffffffffffffffffffff168273ffffffffffffffffffffffffffffffffffffffff167f1de3ece35391f6bba650736f2d5d3f12e2cfc54538a340cc5d762d34ca449de783604051610ca591906115c9565b60405180910390a35050565b610cb9611437565b5f8111610cfb576040517f08c379a0000000000000000000000000000000000000000000000000000000008152600401610cf290611c77565b60405180910390fd5b610d063383836109dc565b610d45576040517f08c379a0000000000000000000000000000000000000000000000000000000008152600401610d3c90611cdf565b60405180910390fd5b808273ffffffffffffffffffffffffffffffffffffffff166370a08231306040518263ffffffff1660e01b8152600401610d7f919061174f565b602060405180830381865afa158015610d9a573d5f803e3d5ffd5b505050506040513d601f19601f82011682018060405250810190610dbe9190611d11565b1015610dff576040517f08c379a0000000000000000000000000000000000000000000000000000000008152600401610df690611dac565b60405180910390fd5b8060045f8473ffffffffffffffffffffffffffffffffffffffff1673ffffffffffffffffffffffffffffffffffffffff1681526020019081526020015f205f3373ffffffffffffffffffffffffffffffffffffffff1673ffffffffffffffffffffffffffffffffffffffff1681526020019081526020015f205f828254610e8691906118a4565b925050819055508060065f8473ffffffffffffffffffffffffffffffffffffffff1673ffffffffffffffffffffffffffffffffffffffff1681526020019081526020015f205f828254610ed991906118a4565b925050819055508060075f3373ffffffffffffffffffffffffffffffffffffffff1673ffffffffffffffffffffffffffffffffffffffff1681526020019081526020015f205f828254610f2c91906118a4565b92505081905550610f468233610f41846109c1565b6113a4565b5f4290505f81600154610f5991906118a4565b905060405180606001604052808481526020018281526020014281525060085f3373ffffffffffffffffffffffffffffffffffffffff1673ffffffffffffffffffffffffffffffffffffffff1681526020019081526020015f205f8673ffffffffffffffffffffffffffffffffffffffff1673ffffffffffffffffffffffffffffffffffffffff1681526020019081526020015f205f820151815f015560208201518160010155604082015181600201559050508373ffffffffffffffffffffffffffffffffffffffff163373ffffffffffffffffffffffffffffffffffffffff167fc1cba78646fef030830d099fc25cb498953709c9d47d883848f81fd207174c9f85844260405161106e9392919061160d565b60405180910390a35050611080611484565b5050565b5f8060085f8473ffffffffffffffffffffffffffffffffffffffff1673ffffffffffffffffffffffffffffffffffffffff1681526020019081526020015f205f8573ffffffffffffffffffffffffffffffffffffffff1673ffffffffffffffffffffffffffffffffffffffff1681526020019081526020015f206040518060600160405290815f82015481526020016001820154815260200160028201548152505090505f8160400151426111399190611871565b90505f818360200151845f01516111509190611a81565b61115a9190611a81565b905080935050505092915050565b5f60025f8373ffffffffffffffffffffffffffffffffffffffff1673ffffffffffffffffffffffffffffffffffffffff1681526020019081526020015f205f8473ffffffffffffffffffffffffffffffffffffffff1673ffffffffffffffffffffffffffffffffffffffff1681526020019081526020015f2054905092915050565b5f9392505050565b60015481565b60038181548110611207575f80fd5b905f5260205f20015f915054906101000a900473ffffffffffffffffffffffffffffffffffffffff1681565b6005602052815f5260405f20602052805f5260405f205f91509150505481565b5f8061125d61148d565b836112689190611df7565b8461127391906118a4565b90505f805b6003805490508110156113535760025f6003838154811061129c5761129b611ac2565b5b905f5260205f20015f9054906101000a900473ffffffffffffffffffffffffffffffffffffffff1673ffffffffffffffffffffffffffffffffffffffff1673ffffffffffffffffffffffffffffffffffffffff1681526020019081526020015f205f3373ffffffffffffffffffffffffffffffffffffffff1673ffffffffffffffffffffffffffffffffffffffff1681526020019081526020015f20548261134491906118a4565b91508080600101915050611278565b505f848661136191906118a4565b9050828211156113835761138081848461137b9190611871565b611495565b90505b80935050505092915050565b6006602052805f5260405f205f915090505481565b8060055f8573ffffffffffffffffffffffffffffffffffffffff1673ffffffffffffffffffffffffffffffffffffffff1681526020019081526020015f205f8473ffffffffffffffffffffffffffffffffffffffff1673ffffffffffffffffffffffffffffffffffffffff1681526020019081526020015f205f82825461142b91906118a4565b92505081905550505050565b60025f540361147b576040517f08c379a000000000000000000000000000000000000000000000000000000000815260040161147290611e71565b60405180910390fd5b60025f81905550565b60015f81905550565b5f6002905090565b5f8183106114a357816114a5565b825b905092915050565b5f80fd5b5f73ffffffffffffffffffffffffffffffffffffffff82169050919050565b5f6114da826114b1565b9050919050565b6114ea816114d0565b81146114f4575f80fd5b50565b5f81359050611505816114e1565b92915050565b5f819050919050565b61151d8161150b565b8114611527575f80fd5b50565b5f8135905061153881611514565b92915050565b5f8060408385031215611554576115536114ad565b5b5f611561858286016114f7565b92505060206115728582860161152a565b9150509250929050565b5f8060408385031215611592576115916114ad565b5b5f61159f858286016114f7565b92505060206115b0858286016114f7565b9150509250929050565b6115c38161150b565b82525050565b5f6020820190506115dc5f8301846115ba565b92915050565b5f602082840312156115f7576115f66114ad565b5b5f611604848285016114f7565b91505092915050565b5f6060820190506116205f8301866115ba565b61162d60208301856115ba565b61163a60408301846115ba565b949350505050565b5f805f60608486031215611659576116586114ad565b5b5f611666868287016114f7565b9350506020611677868287016114f7565b92505060406116888682870161152a565b9150509250925092565b5f602082840312156116a7576116a66114ad565b5b5f6116b48482850161152a565b91505092915050565b5f8115159050919050565b6116d1816116bd565b82525050565b5f6020820190506116ea5f8301846116c8565b92915050565b5f805f60608486031215611707576117066114ad565b5b5f611714868287016114f7565b93505060206117258682870161152a565b92505060406117368682870161152a565b9150509250925092565b611749816114d0565b82525050565b5f6020820190506117625f830184611740565b92915050565b5f806040838503121561177e5761177d6114ad565b5b5f61178b8582860161152a565b925050602061179c8582860161152a565b9150509250929050565b5f82825260208201905092915050565b7f52657061796d656e7420616d6f756e74206d75737420626520677265617465725f8201527f207468616e207a65726f00000000000000000000000000000000000000000000602082015250565b5f611810602a836117a6565b915061181b826117b6565b604082019050919050565b5f6020820190508181035f83015261183d81611804565b9050919050565b7f4e487b71000000000000000000000000000000000000000000000000000000005f52601160045260245ffd5b5f61187b8261150b565b91506118868361150b565b925082820390508181111561189e5761189d611844565b5b92915050565b5f6118ae8261150b565b91506118b98361150b565b92508282019050808211156118d1576118d0611844565b5b92915050565b7f52657061796d656e7420616d6f756e74206578636565647320626f72726f77205f8201527f616d6f756e740000000000000000000000000000000000000000000000000000602082015250565b5f6119316026836117a6565b915061193c826118d7565b604082019050919050565b5f6020820190508181035f83015261195e81611925565b9050919050565b7f496e73756666696369656e742066756e647320666f722072657061796d656e745f8201527f20616e64206163637275656420696e7465726573740000000000000000000000602082015250565b5f6119bf6035836117a6565b91506119ca82611965565b604082019050919050565b5f6020820190508181035f8301526119ec816119b3565b9050919050565b7f496e73756666696369656e7420636f6c6c61746572616c20746f2077697468645f8201527f7261770000000000000000000000000000000000000000000000000000000000602082015250565b5f611a4d6023836117a6565b9150611a58826119f3565b604082019050919050565b5f6020820190508181035f830152611a7a81611a41565b9050919050565b5f611a8b8261150b565b9150611a968361150b565b9250828202611aa48161150b565b91508282048414831517611abb57611aba611844565b5b5092915050565b7f4e487b71000000000000000000000000000000000000000000000000000000005f52603260045260245ffd5b7f4465706f73697420616d6f756e74206d757374206265206772656174657220745f8201527f68616e207a65726f000000000000000000000000000000000000000000000000602082015250565b5f611b496028836117a6565b9150611b5482611aef565b604082019050919050565b5f6020820190508181035f830152611b7681611b3d565b9050919050565b5f606082019050611b905f830186611740565b611b9d6020830185611740565b611baa60408301846115ba565b949350505050565b611bbb816116bd565b8114611bc5575f80fd5b50565b5f81519050611bd681611bb2565b92915050565b5f60208284031215611bf157611bf06114ad565b5b5f611bfe84828501611bc8565b91505092915050565b7f426f72726f7720616d6f756e74206d75737420626520677265617465722074685f8201527f616e207a65726f00000000000000000000000000000000000000000000000000602082015250565b5f611c616027836117a6565b9150611c6c82611c07565b604082019050919050565b5f6020820190508181035f830152611c8e81611c55565b9050919050565b7f496e73756666696369656e7420636f6c6c61746572616c0000000000000000005f82015250565b5f611cc96017836117a6565b9150611cd482611c95565b602082019050919050565b5f6020820190508181035f830152611cf681611cbd565b9050919050565b5f81519050611d0b81611514565b92915050565b5f60208284031215611d2657611d256114ad565b5b5f611d3384828501611cfd565b91505092915050565b7f496e73756666696369656e74206c697175696469747920666f7220626f72726f5f8201527f77696e6700000000000000000000000000000000000000000000000000000000602082015250565b5f611d966024836117a6565b9150611da182611d3c565b604082019050919050565b5f6020820190508181035f830152611dc381611d8a565b9050919050565b7f4e487b71000000000000000000000000000000000000000000000000000000005f52601260045260245ffd5b5f611e018261150b565b9150611e0c8361150b565b925082611e1c57611e1b611dca565b5b828204905092915050565b7f5265656e7472616e637947756172643a207265656e7472616e742063616c6c005f82015250565b5f611e5b601f836117a6565b9150611e6682611e27565b602082019050919050565b5f6020820190508181035f830152611e8881611e4f565b905091905056fea2646970667358221220717ef7506bd352b68878726677c02cead8611cb69a49e5c02ddf8f26486b46b064736f6c63430008180033",
					"opcodes": "PUSH1 0x80 PUSH1 0x40 MSTORE PUSH1 0xA PUSH1 0x1 SSTORE CALLVALUE DUP1 ISZERO PUSH2 0x14 JUMPI PUSH0 DUP1 REVERT JUMPDEST POP PUSH1 0x1 PUSH0 DUP2 SWAP1 SSTORE POP PUSH2 0x1EC5 DUP1 PUSH2 0x29 PUSH0 CODECOPY PUSH0 RETURN INVALID PUSH1 0x80 PUSH1 0x40 MSTORE PUSH1 0x4 CALLDATASIZE LT PUSH2 0x113 JUMPI PUSH0 CALLDATALOAD PUSH1 0xE0 SHR DUP1 PUSH4 0x4B8A3529 GT PUSH2 0x9F JUMPI DUP1 PUSH4 0xC6255626 GT PUSH2 0x63 JUMPI DUP1 PUSH4 0xC6255626 EQ PUSH2 0x3DB JUMPI DUP1 PUSH4 0xCC218ECE EQ PUSH2 0x417 JUMPI DUP1 PUSH4 0xD526FC2E EQ PUSH2 0x453 JUMPI DUP1 PUSH4 0xE80894B6 EQ PUSH2 0x48F JUMPI DUP1 PUSH4 0xF970C3B7 EQ PUSH2 0x4CB JUMPI PUSH2 0x113 JUMP JUMPDEST DUP1 PUSH4 0x4B8A3529 EQ PUSH2 0x2E1 JUMPI DUP1 PUSH4 0x664FA64E EQ PUSH2 0x2FD JUMPI DUP1 PUSH4 0x6805D6AD EQ PUSH2 0x339 JUMPI DUP1 PUSH4 0x9EE7F702 EQ PUSH2 0x375 JUMPI DUP1 PUSH4 0xAFD92762 EQ PUSH2 0x3B1 JUMPI PUSH2 0x113 JUMP JUMPDEST DUP1 PUSH4 0x2AE8BDFE GT PUSH2 0xE6 JUMPI DUP1 PUSH4 0x2AE8BDFE EQ PUSH2 0x1E9 JUMPI DUP1 PUSH4 0x34931B4B EQ PUSH2 0x211 JUMPI DUP1 PUSH4 0x3B591D6A EQ PUSH2 0x24D JUMPI DUP1 PUSH4 0x436D8039 EQ PUSH2 0x289 JUMPI DUP1 PUSH4 0x47E7EF24 EQ PUSH2 0x2C5 JUMPI PUSH2 0x113 JUMP JUMPDEST DUP1 PUSH4 0x22867D78 EQ PUSH2 0x117 JUMPI DUP1 PUSH4 0x234A14F9 EQ PUSH2 0x133 JUMPI DUP1 PUSH4 0x23D0FDA1 EQ PUSH2 0x16F JUMPI DUP1 PUSH4 0x272D1B8E EQ PUSH2 0x1AB JUMPI JUMPDEST PUSH0 DUP1 REVERT JUMPDEST PUSH2 0x131 PUSH1 0x4 DUP1 CALLDATASIZE SUB DUP2 ADD SWAP1 PUSH2 0x12C SWAP2 SWAP1 PUSH2 0x153E JUMP JUMPDEST PUSH2 0x4F3 JUMP JUMPDEST STOP JUMPDEST CALLVALUE DUP1 ISZERO PUSH2 0x13E JUMPI PUSH0 DUP1 REVERT JUMPDEST POP PUSH2 0x159 PUSH1 0x4 DUP1 CALLDATASIZE SUB DUP2 ADD SWAP1 PUSH2 0x154 SWAP2 SWAP1 PUSH2 0x157C JUMP JUMPDEST PUSH2 0x80D JUMP JUMPDEST PUSH1 0x40 MLOAD PUSH2 0x166 SWAP2 SWAP1 PUSH2 0x15C9 JUMP JUMPDEST PUSH1 0x40 MLOAD DUP1 SWAP2 SUB SWAP1 RETURN JUMPDEST CALLVALUE DUP1 ISZERO PUSH2 0x17A JUMPI PUSH0 DUP1 REVERT JUMPDEST POP PUSH2 0x195 PUSH1 0x4 DUP1 CALLDATASIZE SUB DUP2 ADD SWAP1 PUSH2 0x190 SWAP2 SWAP1 PUSH2 0x15E2 JUMP JUMPDEST PUSH2 0x82D JUMP JUMPDEST PUSH1 0x40 MLOAD PUSH2 0x1A2 SWAP2 SWAP1 PUSH2 0x15C9 JUMP JUMPDEST PUSH1 0x40 MLOAD DUP1 SWAP2 SUB SWAP1 RETURN JUMPDEST CALLVALUE DUP1 ISZERO PUSH2 0x1B6 JUMPI PUSH0 DUP1 REVERT JUMPDEST POP PUSH2 0x1D1 PUSH1 0x4 DUP1 CALLDATASIZE SUB DUP2 ADD SWAP1 PUSH2 0x1CC SWAP2 SWAP1 PUSH2 0x157C JUMP JUMPDEST PUSH2 0x842 JUMP JUMPDEST PUSH1 0x40 MLOAD PUSH2 0x1E0 SWAP4 SWAP3 SWAP2 SWAP1 PUSH2 0x160D JUMP JUMPDEST PUSH1 0x40 MLOAD DUP1 SWAP2 SUB SWAP1 RETURN JUMPDEST CALLVALUE DUP1 ISZERO PUSH2 0x1F4 JUMPI PUSH0 DUP1 REVERT JUMPDEST POP PUSH2 0x20F PUSH1 0x4 DUP1 CALLDATASIZE SUB DUP2 ADD SWAP1 PUSH2 0x20A SWAP2 SWAP1 PUSH2 0x1642 JUMP JUMPDEST PUSH2 0x873 JUMP JUMPDEST STOP JUMPDEST CALLVALUE DUP1 ISZERO PUSH2 0x21C JUMPI PUSH0 DUP1 REVERT JUMPDEST POP PUSH2 0x237 PUSH1 0x4 DUP1 CALLDATASIZE SUB DUP2 ADD SWAP1 PUSH2 0x232 SWAP2 SWAP1 PUSH2 0x1692 JUMP JUMPDEST PUSH2 0x9C1 JUMP JUMPDEST PUSH1 0x40 MLOAD PUSH2 0x244 SWAP2 SWAP1 PUSH2 0x15C9 JUMP JUMPDEST PUSH1 0x40 MLOAD DUP1 SWAP2 SUB SWAP1 RETURN JUMPDEST CALLVALUE DUP1 ISZERO PUSH2 0x258 JUMPI PUSH0 DUP1 REVERT JUMPDEST POP PUSH2 0x273 PUSH1 0x4 DUP1 CALLDATASIZE SUB DUP2 ADD SWAP1 PUSH2 0x26E SWAP2 SWAP1 PUSH2 0x1642 JUMP JUMPDEST PUSH2 0x9DC JUMP JUMPDEST PUSH1 0x40 MLOAD PUSH2 0x280 SWAP2 SWAP1 PUSH2 0x16D7 JUMP JUMPDEST PUSH1 0x40 MLOAD DUP1 SWAP2 SUB SWAP1 RETURN JUMPDEST CALLVALUE DUP1 ISZERO PUSH2 0x294 JUMPI PUSH0 DUP1 REVERT JUMPDEST POP PUSH2 0x2AF PUSH1 0x4 DUP1 CALLDATASIZE SUB DUP2 ADD SWAP1 PUSH2 0x2AA SWAP2 SWAP1 PUSH2 0x157C JUMP JUMPDEST PUSH2 0xADA JUMP JUMPDEST PUSH1 0x40 MLOAD PUSH2 0x2BC SWAP2 SWAP1 PUSH2 0x15C9 JUMP JUMPDEST PUSH1 0x40 MLOAD DUP1 SWAP2 SUB SWAP1 RETURN JUMPDEST PUSH2 0x2DF PUSH1 0x4 DUP1 CALLDATASIZE SUB DUP2 ADD SWAP1 PUSH2 0x2DA SWAP2 SWAP1 PUSH2 0x153E JUMP JUMPDEST PUSH2 0xAFA JUMP JUMPDEST STOP JUMPDEST PUSH2 0x2FB PUSH1 0x4 DUP1 CALLDATASIZE SUB DUP2 ADD SWAP1 PUSH2 0x2F6 SWAP2 SWAP1 PUSH2 0x153E JUMP JUMPDEST PUSH2 0xCB1 JUMP JUMPDEST STOP JUMPDEST CALLVALUE DUP1 ISZERO PUSH2 0x308 JUMPI PUSH0 DUP1 REVERT JUMPDEST POP PUSH2 0x323 PUSH1 0x4 DUP1 CALLDATASIZE SUB DUP2 ADD SWAP1 PUSH2 0x31E SWAP2 SWAP1 PUSH2 0x157C JUMP JUMPDEST PUSH2 0x1084 JUMP JUMPDEST PUSH1 0x40 MLOAD PUSH2 0x330 SWAP2 SWAP1 PUSH2 0x15C9 JUMP JUMPDEST PUSH1 0x40 MLOAD DUP1 SWAP2 SUB SWAP1 RETURN JUMPDEST CALLVALUE DUP1 ISZERO PUSH2 0x344 JUMPI PUSH0 DUP1 REVERT JUMPDEST POP PUSH2 0x35F PUSH1 0x4 DUP1 CALLDATASIZE SUB DUP2 ADD SWAP1 PUSH2 0x35A SWAP2 SWAP1 PUSH2 0x157C JUMP JUMPDEST PUSH2 0x1168 JUMP JUMPDEST PUSH1 0x40 MLOAD PUSH2 0x36C SWAP2 SWAP1 PUSH2 0x15C9 JUMP JUMPDEST PUSH1 0x40 MLOAD DUP1 SWAP2 SUB SWAP1 RETURN JUMPDEST CALLVALUE DUP1 ISZERO PUSH2 0x380 JUMPI PUSH0 DUP1 REVERT JUMPDEST POP PUSH2 0x39B PUSH1 0x4 DUP1 CALLDATASIZE SUB DUP2 ADD SWAP1 PUSH2 0x396 SWAP2 SWAP1 PUSH2 0x16F0 JUMP JUMPDEST PUSH2 0x11EA JUMP JUMPDEST PUSH1 0x40 MLOAD PUSH2 0x3A8 SWAP2 SWAP1 PUSH2 0x15C9 JUMP JUMPDEST PUSH1 0x40 MLOAD DUP1 SWAP2 SUB SWAP1 RETURN JUMPDEST CALLVALUE DUP1 ISZERO PUSH2 0x3BC JUMPI PUSH0 DUP1 REVERT JUMPDEST POP PUSH2 0x3C5 PUSH2 0x11F2 JUMP JUMPDEST PUSH1 0x40 MLOAD PUSH2 0x3D2 SWAP2 SWAP1 PUSH2 0x15C9 JUMP JUMPDEST PUSH1 0x40 MLOAD DUP1 SWAP2 SUB SWAP1 RETURN JUMPDEST CALLVALUE DUP1 ISZERO PUSH2 0x3E6 JUMPI PUSH0 DUP1 REVERT JUMPDEST POP PUSH2 0x401 PUSH1 0x4 DUP1 CALLDATASIZE SUB DUP2 ADD SWAP1 PUSH2 0x3FC SWAP2 SWAP1 PUSH2 0x1692 JUMP JUMPDEST PUSH2 0x11F8 JUMP JUMPDEST PUSH1 0x40 MLOAD PUSH2 0x40E SWAP2 SWAP1 PUSH2 0x174F JUMP JUMPDEST PUSH1 0x40 MLOAD DUP1 SWAP2 SUB SWAP1 RETURN JUMPDEST CALLVALUE DUP1 ISZERO PUSH2 0x422 JUMPI PUSH0 DUP1 REVERT JUMPDEST POP PUSH2 0x43D PUSH1 0x4 DUP1 CALLDATASIZE SUB DUP2 ADD SWAP1 PUSH2 0x438 SWAP2 SWAP1 PUSH2 0x157C JUMP JUMPDEST PUSH2 0x1233 JUMP JUMPDEST PUSH1 0x40 MLOAD PUSH2 0x44A SWAP2 SWAP1 PUSH2 0x15C9 JUMP JUMPDEST PUSH1 0x40 MLOAD DUP1 SWAP2 SUB SWAP1 RETURN JUMPDEST CALLVALUE DUP1 ISZERO PUSH2 0x45E JUMPI PUSH0 DUP1 REVERT JUMPDEST POP PUSH2 0x479 PUSH1 0x4 DUP1 CALLDATASIZE SUB DUP2 ADD SWAP1 PUSH2 0x474 SWAP2 SWAP1 PUSH2 0x1768 JUMP JUMPDEST PUSH2 0x1253 JUMP JUMPDEST PUSH1 0x40 MLOAD PUSH2 0x486 SWAP2 SWAP1 PUSH2 0x15C9 JUMP JUMPDEST PUSH1 0x40 MLOAD DUP1 SWAP2 SUB SWAP1 RETURN JUMPDEST CALLVALUE DUP1 ISZERO PUSH2 0x49A JUMPI PUSH0 DUP1 REVERT JUMPDEST POP PUSH2 0x4B5 PUSH1 0x4 DUP1 CALLDATASIZE SUB DUP2 ADD SWAP1 PUSH2 0x4B0 SWAP2 SWAP1 PUSH2 0x15E2 JUMP JUMPDEST PUSH2 0x138F JUMP JUMPDEST PUSH1 0x40 MLOAD PUSH2 0x4C2 SWAP2 SWAP1 PUSH2 0x15C9 JUMP JUMPDEST PUSH1 0x40 MLOAD DUP1 SWAP2 SUB SWAP1 RETURN JUMPDEST CALLVALUE DUP1 ISZERO PUSH2 0x4D6 JUMPI PUSH0 DUP1 REVERT JUMPDEST POP PUSH2 0x4F1 PUSH1 0x4 DUP1 CALLDATASIZE SUB DUP2 ADD SWAP1 PUSH2 0x4EC SWAP2 SWAP1 PUSH2 0x1642 JUMP JUMPDEST PUSH2 0x13A4 JUMP JUMPDEST STOP JUMPDEST PUSH2 0x4FB PUSH2 0x1437 JUMP JUMPDEST PUSH0 DUP2 GT PUSH2 0x53D JUMPI PUSH1 0x40 MLOAD PUSH32 0x8C379A000000000000000000000000000000000000000000000000000000000 DUP2 MSTORE PUSH1 0x4 ADD PUSH2 0x534 SWAP1 PUSH2 0x1826 JUMP JUMPDEST PUSH1 0x40 MLOAD DUP1 SWAP2 SUB SWAP1 REVERT JUMPDEST DUP1 PUSH1 0x4 PUSH0 DUP5 PUSH20 0xFFFFFFFFFFFFFFFFFFFFFFFFFFFFFFFFFFFFFFFF AND PUSH20 0xFFFFFFFFFFFFFFFFFFFFFFFFFFFFFFFFFFFFFFFF AND DUP2 MSTORE PUSH1 0x20 ADD SWAP1 DUP2 MSTORE PUSH1 0x20 ADD PUSH0 KECCAK256 PUSH0 CALLER PUSH20 0xFFFFFFFFFFFFFFFFFFFFFFFFFFFFFFFFFFFFFFFF AND PUSH20 0xFFFFFFFFFFFFFFFFFFFFFFFFFFFFFFFFFFFFFFFF AND DUP2 MSTORE PUSH1 0x20 ADD SWAP1 DUP2 MSTORE PUSH1 0x20 ADD PUSH0 KECCAK256 PUSH0 DUP3 DUP3 SLOAD PUSH2 0x5C4 SWAP2 SWAP1 PUSH2 0x1871 JUMP JUMPDEST SWAP3 POP POP DUP2 SWAP1 SSTORE POP DUP1 PUSH1 0x6 PUSH0 DUP5 PUSH20 0xFFFFFFFFFFFFFFFFFFFFFFFFFFFFFFFFFFFFFFFF AND PUSH20 0xFFFFFFFFFFFFFFFFFFFFFFFFFFFFFFFFFFFFFFFF AND DUP2 MSTORE PUSH1 0x20 ADD SWAP1 DUP2 MSTORE PUSH1 0x20 ADD PUSH0 KECCAK256 PUSH0 DUP3 DUP3 SLOAD PUSH2 0x617 SWAP2 SWAP1 PUSH2 0x1871 JUMP JUMPDEST SWAP3 POP POP DUP2 SWAP1 SSTORE POP DUP1 PUSH1 0x7 PUSH0 CALLER PUSH20 0xFFFFFFFFFFFFFFFFFFFFFFFFFFFFFFFFFFFFFFFF AND PUSH20 0xFFFFFFFFFFFFFFFFFFFFFFFFFFFFFFFFFFFFFFFF AND DUP2 MSTORE PUSH1 0x20 ADD SWAP1 DUP2 MSTORE PUSH1 0x20 ADD PUSH0 KECCAK256 PUSH0 DUP3 DUP3 SLOAD PUSH2 0x66A SWAP2 SWAP1 PUSH2 0x1871 JUMP JUMPDEST SWAP3 POP POP DUP2 SWAP1 SSTORE POP PUSH0 PUSH2 0x67C DUP4 CALLER PUSH2 0x1084 JUMP JUMPDEST SWAP1 POP DUP1 DUP3 PUSH2 0x68A SWAP2 SWAP1 PUSH2 0x18A4 JUMP JUMPDEST PUSH1 0x4 PUSH0 DUP6 PUSH20 0xFFFFFFFFFFFFFFFFFFFFFFFFFFFFFFFFFFFFFFFF AND PUSH20 0xFFFFFFFFFFFFFFFFFFFFFFFFFFFFFFFFFFFFFFFF AND DUP2 MSTORE PUSH1 0x20 ADD SWAP1 DUP2 MSTORE PUSH1 0x20 ADD PUSH0 KECCAK256 PUSH0 CALLER PUSH20 0xFFFFFFFFFFFFFFFFFFFFFFFFFFFFFFFFFFFFFFFF AND PUSH20 0xFFFFFFFFFFFFFFFFFFFFFFFFFFFFFFFFFFFFFFFF AND DUP2 MSTORE PUSH1 0x20 ADD SWAP1 DUP2 MSTORE PUSH1 0x20 ADD PUSH0 KECCAK256 SLOAD LT ISZERO PUSH2 0x744 JUMPI PUSH1 0x40 MLOAD PUSH32 0x8C379A000000000000000000000000000000000000000000000000000000000 DUP2 MSTORE PUSH1 0x4 ADD PUSH2 0x73B SWAP1 PUSH2 0x1947 JUMP JUMPDEST PUSH1 0x40 MLOAD DUP1 SWAP2 SUB SWAP1 REVERT JUMPDEST CALLVALUE DUP2 DUP4 PUSH2 0x751 SWAP2 SWAP1 PUSH2 0x18A4 JUMP JUMPDEST LT ISZERO PUSH2 0x792 JUMPI PUSH1 0x40 MLOAD PUSH32 0x8C379A000000000000000000000000000000000000000000000000000000000 DUP2 MSTORE PUSH1 0x4 ADD PUSH2 0x789 SWAP1 PUSH2 0x19D5 JUMP JUMPDEST PUSH1 0x40 MLOAD DUP1 SWAP2 SUB SWAP1 REVERT JUMPDEST CALLVALUE DUP2 DUP4 PUSH2 0x79F SWAP2 SWAP1 PUSH2 0x18A4 JUMP JUMPDEST GT ISZERO PUSH2 0x800 JUMPI CALLER PUSH20 0xFFFFFFFFFFFFFFFFFFFFFFFFFFFFFFFFFFFFFFFF AND PUSH2 0x8FC CALLVALUE DUP4 DUP6 PUSH2 0x7CC SWAP2 SWAP1 PUSH2 0x18A4 JUMP JUMPDEST PUSH2 0x7D6 SWAP2 SWAP1 PUSH2 0x1871 JUMP JUMPDEST SWAP1 DUP2 ISZERO MUL SWAP1 PUSH1 0x40 MLOAD PUSH0 PUSH1 0x40 MLOAD DUP1 DUP4 SUB DUP2 DUP6 DUP9 DUP9 CALL SWAP4 POP POP POP POP ISZERO DUP1 ISZERO PUSH2 0x7FE JUMPI RETURNDATASIZE PUSH0 DUP1 RETURNDATACOPY RETURNDATASIZE PUSH0 REVERT JUMPDEST POP JUMPDEST POP PUSH2 0x809 PUSH2 0x1484 JUMP JUMPDEST POP POP JUMP JUMPDEST PUSH1 0x4 PUSH1 0x20 MSTORE DUP2 PUSH0 MSTORE PUSH1 0x40 PUSH0 KECCAK256 PUSH1 0x20 MSTORE DUP1 PUSH0 MSTORE PUSH1 0x40 PUSH0 KECCAK256 PUSH0 SWAP2 POP SWAP2 POP POP SLOAD DUP2 JUMP JUMPDEST PUSH1 0x7 PUSH1 0x20 MSTORE DUP1 PUSH0 MSTORE PUSH1 0x40 PUSH0 KECCAK256 PUSH0 SWAP2 POP SWAP1 POP SLOAD DUP2 JUMP JUMPDEST PUSH1 0x8 PUSH1 0x20 MSTORE DUP2 PUSH0 MSTORE PUSH1 0x40 PUSH0 KECCAK256 PUSH1 0x20 MSTORE DUP1 PUSH0 MSTORE PUSH1 0x40 PUSH0 KECCAK256 PUSH0 SWAP2 POP SWAP2 POP POP DUP1 PUSH0 ADD SLOAD SWAP1 DUP1 PUSH1 0x1 ADD SLOAD SWAP1 DUP1 PUSH1 0x2 ADD SLOAD SWAP1 POP DUP4 JUMP JUMPDEST DUP1 PUSH1 0x5 PUSH0 DUP6 PUSH20 0xFFFFFFFFFFFFFFFFFFFFFFFFFFFFFFFFFFFFFFFF AND PUSH20 0xFFFFFFFFFFFFFFFFFFFFFFFFFFFFFFFFFFFFFFFF AND DUP2 MSTORE PUSH1 0x20 ADD SWAP1 DUP2 MSTORE PUSH1 0x20 ADD PUSH0 KECCAK256 PUSH0 DUP5 PUSH20 0xFFFFFFFFFFFFFFFFFFFFFFFFFFFFFFFFFFFFFFFF AND PUSH20 0xFFFFFFFFFFFFFFFFFFFFFFFFFFFFFFFFFFFFFFFF AND DUP2 MSTORE PUSH1 0x20 ADD SWAP1 DUP2 MSTORE PUSH1 0x20 ADD PUSH0 KECCAK256 SLOAD LT ISZERO PUSH2 0x92E JUMPI PUSH1 0x40 MLOAD PUSH32 0x8C379A000000000000000000000000000000000000000000000000000000000 DUP2 MSTORE PUSH1 0x4 ADD PUSH2 0x925 SWAP1 PUSH2 0x1A63 JUMP JUMPDEST PUSH1 0x40 MLOAD DUP1 SWAP2 SUB SWAP1 REVERT JUMPDEST DUP1 PUSH1 0x5 PUSH0 DUP6 PUSH20 0xFFFFFFFFFFFFFFFFFFFFFFFFFFFFFFFFFFFFFFFF AND PUSH20 0xFFFFFFFFFFFFFFFFFFFFFFFFFFFFFFFFFFFFFFFF AND DUP2 MSTORE PUSH1 0x20 ADD SWAP1 DUP2 MSTORE PUSH1 0x20 ADD PUSH0 KECCAK256 PUSH0 DUP5 PUSH20 0xFFFFFFFFFFFFFFFFFFFFFFFFFFFFFFFFFFFFFFFF AND PUSH20 0xFFFFFFFFFFFFFFFFFFFFFFFFFFFFFFFFFFFFFFFF AND DUP2 MSTORE PUSH1 0x20 ADD SWAP1 DUP2 MSTORE PUSH1 0x20 ADD PUSH0 KECCAK256 PUSH0 DUP3 DUP3 SLOAD PUSH2 0x9B5 SWAP2 SWAP1 PUSH2 0x1871 JUMP JUMPDEST SWAP3 POP POP DUP2 SWAP1 SSTORE POP POP POP POP JUMP JUMPDEST PUSH0 PUSH2 0x9CA PUSH2 0x148D JUMP JUMPDEST DUP3 PUSH2 0x9D5 SWAP2 SWAP1 PUSH2 0x1A81 JUMP JUMPDEST SWAP1 POP SWAP2 SWAP1 POP JUMP JUMPDEST PUSH0 DUP1 PUSH0 SWAP1 POP PUSH0 JUMPDEST PUSH1 0x3 DUP1 SLOAD SWAP1 POP DUP2 LT ISZERO PUSH2 0xABE JUMPI PUSH1 0x2 PUSH0 PUSH1 0x3 DUP4 DUP2 SLOAD DUP2 LT PUSH2 0xA07 JUMPI PUSH2 0xA06 PUSH2 0x1AC2 JUMP JUMPDEST JUMPDEST SWAP1 PUSH0 MSTORE PUSH1 0x20 PUSH0 KECCAK256 ADD PUSH0 SWAP1 SLOAD SWAP1 PUSH2 0x100 EXP SWAP1 DIV PUSH20 0xFFFFFFFFFFFFFFFFFFFFFFFFFFFFFFFFFFFFFFFF AND PUSH20 0xFFFFFFFFFFFFFFFFFFFFFFFFFFFFFFFFFFFFFFFF AND PUSH20 0xFFFFFFFFFFFFFFFFFFFFFFFFFFFFFFFFFFFFFFFF AND DUP2 MSTORE PUSH1 0x20 ADD SWAP1 DUP2 MSTORE PUSH1 0x20 ADD PUSH0 KECCAK256 PUSH0 DUP8 PUSH20 0xFFFFFFFFFFFFFFFFFFFFFFFFFFFFFFFFFFFFFFFF AND PUSH20 0xFFFFFFFFFFFFFFFFFFFFFFFFFFFFFFFFFFFFFFFF AND DUP2 MSTORE PUSH1 0x20 ADD SWAP1 DUP2 MSTORE PUSH1 0x20 ADD PUSH0 KECCAK256 SLOAD DUP3 PUSH2 0xAAF SWAP2 SWAP1 PUSH2 0x18A4 JUMP JUMPDEST SWAP2 POP DUP1 DUP1 PUSH1 0x1 ADD SWAP2 POP POP PUSH2 0x9E3 JUMP JUMPDEST POP PUSH0 PUSH2 0xAC9 DUP5 PUSH2 0x9C1 JUMP JUMPDEST SWAP1 POP DUP1 DUP3 LT ISZERO SWAP3 POP POP POP SWAP4 SWAP3 POP POP POP JUMP JUMPDEST PUSH1 0x2 PUSH1 0x20 MSTORE DUP2 PUSH0 MSTORE PUSH1 0x40 PUSH0 KECCAK256 PUSH1 0x20 MSTORE DUP1 PUSH0 MSTORE PUSH1 0x40 PUSH0 KECCAK256 PUSH0 SWAP2 POP SWAP2 POP POP SLOAD DUP2 JUMP JUMPDEST PUSH0 DUP2 GT PUSH2 0xB3C JUMPI PUSH1 0x40 MLOAD PUSH32 0x8C379A000000000000000000000000000000000000000000000000000000000 DUP2 MSTORE PUSH1 0x4 ADD PUSH2 0xB33 SWAP1 PUSH2 0x1B5F JUMP JUMPDEST PUSH1 0x40 MLOAD DUP1 SWAP2 SUB SWAP1 REVERT JUMPDEST DUP2 PUSH20 0xFFFFFFFFFFFFFFFFFFFFFFFFFFFFFFFFFFFFFFFF AND PUSH4 0x23B872DD CALLER ADDRESS DUP5 PUSH1 0x40 MLOAD DUP5 PUSH4 0xFFFFFFFF AND PUSH1 0xE0 SHL DUP2 MSTORE PUSH1 0x4 ADD PUSH2 0xB79 SWAP4 SWAP3 SWAP2 SWAP1 PUSH2 0x1B7D JUMP JUMPDEST PUSH1 0x20 PUSH1 0x40 MLOAD DUP1 DUP4 SUB DUP2 PUSH0 DUP8 GAS CALL ISZERO DUP1 ISZERO PUSH2 0xB95 JUMPI RETURNDATASIZE PUSH0 DUP1 RETURNDATACOPY RETURNDATASIZE PUSH0 REVERT JUMPDEST POP POP POP POP PUSH1 0x40 MLOAD RETURNDATASIZE PUSH1 0x1F NOT PUSH1 0x1F DUP3 ADD AND DUP3 ADD DUP1 PUSH1 0x40 MSTORE POP DUP2 ADD SWAP1 PUSH2 0xBB9 SWAP2 SWAP1 PUSH2 0x1BDC JUMP JUMPDEST POP DUP1 PUSH1 0x2 PUSH0 DUP5 PUSH20 0xFFFFFFFFFFFFFFFFFFFFFFFFFFFFFFFFFFFFFFFF AND PUSH20 0xFFFFFFFFFFFFFFFFFFFFFFFFFFFFFFFFFFFFFFFF AND DUP2 MSTORE PUSH1 0x20 ADD SWAP1 DUP2 MSTORE PUSH1 0x20 ADD PUSH0 KECCAK256 PUSH0 CALLER PUSH20 0xFFFFFFFFFFFFFFFFFFFFFFFFFFFFFFFFFFFFFFFF AND PUSH20 0xFFFFFFFFFFFFFFFFFFFFFFFFFFFFFFFFFFFFFFFF AND DUP2 MSTORE PUSH1 0x20 ADD SWAP1 DUP2 MSTORE PUSH1 0x20 ADD PUSH0 KECCAK256 PUSH0 DUP3 DUP3 SLOAD PUSH2 0xC41 SWAP2 SWAP1 PUSH2 0x18A4 JUMP JUMPDEST SWAP3 POP POP DUP2 SWAP1 SSTORE POP CALLER PUSH20 0xFFFFFFFFFFFFFFFFFFFFFFFFFFFFFFFFFFFFFFFF AND DUP3 PUSH20 0xFFFFFFFFFFFFFFFFFFFFFFFFFFFFFFFFFFFFFFFF AND PUSH32 0x1DE3ECE35391F6BBA650736F2D5D3F12E2CFC54538A340CC5D762D34CA449DE7 DUP4 PUSH1 0x40 MLOAD PUSH2 0xCA5 SWAP2 SWAP1 PUSH2 0x15C9 JUMP JUMPDEST PUSH1 0x40 MLOAD DUP1 SWAP2 SUB SWAP1 LOG3 POP POP JUMP JUMPDEST PUSH2 0xCB9 PUSH2 0x1437 JUMP JUMPDEST PUSH0 DUP2 GT PUSH2 0xCFB JUMPI PUSH1 0x40 MLOAD PUSH32 0x8C379A000000000000000000000000000000000000000000000000000000000 DUP2 MSTORE PUSH1 0x4 ADD PUSH2 0xCF2 SWAP1 PUSH2 0x1C77 JUMP JUMPDEST PUSH1 0x40 MLOAD DUP1 SWAP2 SUB SWAP1 REVERT JUMPDEST PUSH2 0xD06 CALLER DUP4 DUP4 PUSH2 0x9DC JUMP JUMPDEST PUSH2 0xD45 JUMPI PUSH1 0x40 MLOAD PUSH32 0x8C379A000000000000000000000000000000000000000000000000000000000 DUP2 MSTORE PUSH1 0x4 ADD PUSH2 0xD3C SWAP1 PUSH2 0x1CDF JUMP JUMPDEST PUSH1 0x40 MLOAD DUP1 SWAP2 SUB SWAP1 REVERT JUMPDEST DUP1 DUP3 PUSH20 0xFFFFFFFFFFFFFFFFFFFFFFFFFFFFFFFFFFFFFFFF AND PUSH4 0x70A08231 ADDRESS PUSH1 0x40 MLOAD DUP3 PUSH4 0xFFFFFFFF AND PUSH1 0xE0 SHL DUP2 MSTORE PUSH1 0x4 ADD PUSH2 0xD7F SWAP2 SWAP1 PUSH2 0x174F JUMP JUMPDEST PUSH1 0x20 PUSH1 0x40 MLOAD DUP1 DUP4 SUB DUP2 DUP7 GAS STATICCALL ISZERO DUP1 ISZERO PUSH2 0xD9A JUMPI RETURNDATASIZE PUSH0 DUP1 RETURNDATACOPY RETURNDATASIZE PUSH0 REVERT JUMPDEST POP POP POP POP PUSH1 0x40 MLOAD RETURNDATASIZE PUSH1 0x1F NOT PUSH1 0x1F DUP3 ADD AND DUP3 ADD DUP1 PUSH1 0x40 MSTORE POP DUP2 ADD SWAP1 PUSH2 0xDBE SWAP2 SWAP1 PUSH2 0x1D11 JUMP JUMPDEST LT ISZERO PUSH2 0xDFF JUMPI PUSH1 0x40 MLOAD PUSH32 0x8C379A000000000000000000000000000000000000000000000000000000000 DUP2 MSTORE PUSH1 0x4 ADD PUSH2 0xDF6 SWAP1 PUSH2 0x1DAC JUMP JUMPDEST PUSH1 0x40 MLOAD DUP1 SWAP2 SUB SWAP1 REVERT JUMPDEST DUP1 PUSH1 0x4 PUSH0 DUP5 PUSH20 0xFFFFFFFFFFFFFFFFFFFFFFFFFFFFFFFFFFFFFFFF AND PUSH20 0xFFFFFFFFFFFFFFFFFFFFFFFFFFFFFFFFFFFFFFFF AND DUP2 MSTORE PUSH1 0x20 ADD SWAP1 DUP2 MSTORE PUSH1 0x20 ADD PUSH0 KECCAK256 PUSH0 CALLER PUSH20 0xFFFFFFFFFFFFFFFFFFFFFFFFFFFFFFFFFFFFFFFF AND PUSH20 0xFFFFFFFFFFFFFFFFFFFFFFFFFFFFFFFFFFFFFFFF AND DUP2 MSTORE PUSH1 0x20 ADD SWAP1 DUP2 MSTORE PUSH1 0x20 ADD PUSH0 KECCAK256 PUSH0 DUP3 DUP3 SLOAD PUSH2 0xE86 SWAP2 SWAP1 PUSH2 0x18A4 JUMP JUMPDEST SWAP3 POP POP DUP2 SWAP1 SSTORE POP DUP1 PUSH1 0x6 PUSH0 DUP5 PUSH20 0xFFFFFFFFFFFFFFFFFFFFFFFFFFFFFFFFFFFFFFFF AND PUSH20 0xFFFFFFFFFFFFFFFFFFFFFFFFFFFFFFFFFFFFFFFF AND DUP2 MSTORE PUSH1 0x20 ADD SWAP1 DUP2 MSTORE PUSH1 0x20 ADD PUSH0 KECCAK256 PUSH0 DUP3 DUP3 SLOAD PUSH2 0xED9 SWAP2 SWAP1 PUSH2 0x18A4 JUMP JUMPDEST SWAP3 POP POP DUP2 SWAP1 SSTORE POP DUP1 PUSH1 0x7 PUSH0 CALLER PUSH20 0xFFFFFFFFFFFFFFFFFFFFFFFFFFFFFFFFFFFFFFFF AND PUSH20 0xFFFFFFFFFFFFFFFFFFFFFFFFFFFFFFFFFFFFFFFF AND DUP2 MSTORE PUSH1 0x20 ADD SWAP1 DUP2 MSTORE PUSH1 0x20 ADD PUSH0 KECCAK256 PUSH0 DUP3 DUP3 SLOAD PUSH2 0xF2C SWAP2 SWAP1 PUSH2 0x18A4 JUMP JUMPDEST SWAP3 POP POP DUP2 SWAP1 SSTORE POP PUSH2 0xF46 DUP3 CALLER PUSH2 0xF41 DUP5 PUSH2 0x9C1 JUMP JUMPDEST PUSH2 0x13A4 JUMP JUMPDEST PUSH0 TIMESTAMP SWAP1 POP PUSH0 DUP2 PUSH1 0x1 SLOAD PUSH2 0xF59 SWAP2 SWAP1 PUSH2 0x18A4 JUMP JUMPDEST SWAP1 POP PUSH1 0x40 MLOAD DUP1 PUSH1 0x60 ADD PUSH1 0x40 MSTORE DUP1 DUP5 DUP2 MSTORE PUSH1 0x20 ADD DUP3 DUP2 MSTORE PUSH1 0x20 ADD TIMESTAMP DUP2 MSTORE POP PUSH1 0x8 PUSH0 CALLER PUSH20 0xFFFFFFFFFFFFFFFFFFFFFFFFFFFFFFFFFFFFFFFF AND PUSH20 0xFFFFFFFFFFFFFFFFFFFFFFFFFFFFFFFFFFFFFFFF AND DUP2 MSTORE PUSH1 0x20 ADD SWAP1 DUP2 MSTORE PUSH1 0x20 ADD PUSH0 KECCAK256 PUSH0 DUP7 PUSH20 0xFFFFFFFFFFFFFFFFFFFFFFFFFFFFFFFFFFFFFFFF AND PUSH20 0xFFFFFFFFFFFFFFFFFFFFFFFFFFFFFFFFFFFFFFFF AND DUP2 MSTORE PUSH1 0x20 ADD SWAP1 DUP2 MSTORE PUSH1 0x20 ADD PUSH0 KECCAK256 PUSH0 DUP3 ADD MLOAD DUP2 PUSH0 ADD SSTORE PUSH1 0x20 DUP3 ADD MLOAD DUP2 PUSH1 0x1 ADD SSTORE PUSH1 0x40 DUP3 ADD MLOAD DUP2 PUSH1 0x2 ADD SSTORE SWAP1 POP POP DUP4 PUSH20 0xFFFFFFFFFFFFFFFFFFFFFFFFFFFFFFFFFFFFFFFF AND CALLER PUSH20 0xFFFFFFFFFFFFFFFFFFFFFFFFFFFFFFFFFFFFFFFF AND PUSH32 0xC1CBA78646FEF030830D099FC25CB498953709C9D47D883848F81FD207174C9F DUP6 DUP5 TIMESTAMP PUSH1 0x40 MLOAD PUSH2 0x106E SWAP4 SWAP3 SWAP2 SWAP1 PUSH2 0x160D JUMP JUMPDEST PUSH1 0x40 MLOAD DUP1 SWAP2 SUB SWAP1 LOG3 POP POP PUSH2 0x1080 PUSH2 0x1484 JUMP JUMPDEST POP POP JUMP JUMPDEST PUSH0 DUP1 PUSH1 0x8 PUSH0 DUP5 PUSH20 0xFFFFFFFFFFFFFFFFFFFFFFFFFFFFFFFFFFFFFFFF AND PUSH20 0xFFFFFFFFFFFFFFFFFFFFFFFFFFFFFFFFFFFFFFFF AND DUP2 MSTORE PUSH1 0x20 ADD SWAP1 DUP2 MSTORE PUSH1 0x20 ADD PUSH0 KECCAK256 PUSH0 DUP6 PUSH20 0xFFFFFFFFFFFFFFFFFFFFFFFFFFFFFFFFFFFFFFFF AND PUSH20 0xFFFFFFFFFFFFFFFFFFFFFFFFFFFFFFFFFFFFFFFF AND DUP2 MSTORE PUSH1 0x20 ADD SWAP1 DUP2 MSTORE PUSH1 0x20 ADD PUSH0 KECCAK256 PUSH1 0x40 MLOAD DUP1 PUSH1 0x60 ADD PUSH1 0x40 MSTORE SWAP1 DUP2 PUSH0 DUP3 ADD SLOAD DUP2 MSTORE PUSH1 0x20 ADD PUSH1 0x1 DUP3 ADD SLOAD DUP2 MSTORE PUSH1 0x20 ADD PUSH1 0x2 DUP3 ADD SLOAD DUP2 MSTORE POP POP SWAP1 POP PUSH0 DUP2 PUSH1 0x40 ADD MLOAD TIMESTAMP PUSH2 0x1139 SWAP2 SWAP1 PUSH2 0x1871 JUMP JUMPDEST SWAP1 POP PUSH0 DUP2 DUP4 PUSH1 0x20 ADD MLOAD DUP5 PUSH0 ADD MLOAD PUSH2 0x1150 SWAP2 SWAP1 PUSH2 0x1A81 JUMP JUMPDEST PUSH2 0x115A SWAP2 SWAP1 PUSH2 0x1A81 JUMP JUMPDEST SWAP1 POP DUP1 SWAP4 POP POP POP POP SWAP3 SWAP2 POP POP JUMP JUMPDEST PUSH0 PUSH1 0x2 PUSH0 DUP4 PUSH20 0xFFFFFFFFFFFFFFFFFFFFFFFFFFFFFFFFFFFFFFFF AND PUSH20 0xFFFFFFFFFFFFFFFFFFFFFFFFFFFFFFFFFFFFFFFF AND DUP2 MSTORE PUSH1 0x20 ADD SWAP1 DUP2 MSTORE PUSH1 0x20 ADD PUSH0 KECCAK256 PUSH0 DUP5 PUSH20 0xFFFFFFFFFFFFFFFFFFFFFFFFFFFFFFFFFFFFFFFF AND PUSH20 0xFFFFFFFFFFFFFFFFFFFFFFFFFFFFFFFFFFFFFFFF AND DUP2 MSTORE PUSH1 0x20 ADD SWAP1 DUP2 MSTORE PUSH1 0x20 ADD PUSH0 KECCAK256 SLOAD SWAP1 POP SWAP3 SWAP2 POP POP JUMP JUMPDEST PUSH0 SWAP4 SWAP3 POP POP POP JUMP JUMPDEST PUSH1 0x1 SLOAD DUP2 JUMP JUMPDEST PUSH1 0x3 DUP2 DUP2 SLOAD DUP2 LT PUSH2 0x1207 JUMPI PUSH0 DUP1 REVERT JUMPDEST SWAP1 PUSH0 MSTORE PUSH1 0x20 PUSH0 KECCAK256 ADD PUSH0 SWAP2 POP SLOAD SWAP1 PUSH2 0x100 EXP SWAP1 DIV PUSH20 0xFFFFFFFFFFFFFFFFFFFFFFFFFFFFFFFFFFFFFFFF AND DUP2 JUMP JUMPDEST PUSH1 0x5 PUSH1 0x20 MSTORE DUP2 PUSH0 MSTORE PUSH1 0x40 PUSH0 KECCAK256 PUSH1 0x20 MSTORE DUP1 PUSH0 MSTORE PUSH1 0x40 PUSH0 KECCAK256 PUSH0 SWAP2 POP SWAP2 POP POP SLOAD DUP2 JUMP JUMPDEST PUSH0 DUP1 PUSH2 0x125D PUSH2 0x148D JUMP JUMPDEST DUP4 PUSH2 0x1268 SWAP2 SWAP1 PUSH2 0x1DF7 JUMP JUMPDEST DUP5 PUSH2 0x1273 SWAP2 SWAP1 PUSH2 0x18A4 JUMP JUMPDEST SWAP1 POP PUSH0 DUP1 JUMPDEST PUSH1 0x3 DUP1 SLOAD SWAP1 POP DUP2 LT ISZERO PUSH2 0x1353 JUMPI PUSH1 0x2 PUSH0 PUSH1 0x3 DUP4 DUP2 SLOAD DUP2 LT PUSH2 0x129C JUMPI PUSH2 0x129B PUSH2 0x1AC2 JUMP JUMPDEST JUMPDEST SWAP1 PUSH0 MSTORE PUSH1 0x20 PUSH0 KECCAK256 ADD PUSH0 SWAP1 SLOAD SWAP1 PUSH2 0x100 EXP SWAP1 DIV PUSH20 0xFFFFFFFFFFFFFFFFFFFFFFFFFFFFFFFFFFFFFFFF AND PUSH20 0xFFFFFFFFFFFFFFFFFFFFFFFFFFFFFFFFFFFFFFFF AND PUSH20 0xFFFFFFFFFFFFFFFFFFFFFFFFFFFFFFFFFFFFFFFF AND DUP2 MSTORE PUSH1 0x20 ADD SWAP1 DUP2 MSTORE PUSH1 0x20 ADD PUSH0 KECCAK256 PUSH0 CALLER PUSH20 0xFFFFFFFFFFFFFFFFFFFFFFFFFFFFFFFFFFFFFFFF AND PUSH20 0xFFFFFFFFFFFFFFFFFFFFFFFFFFFFFFFFFFFFFFFF AND DUP2 MSTORE PUSH1 0x20 ADD SWAP1 DUP2 MSTORE PUSH1 0x20 ADD PUSH0 KECCAK256 SLOAD DUP3 PUSH2 0x1344 SWAP2 SWAP1 PUSH2 0x18A4 JUMP JUMPDEST SWAP2 POP DUP1 DUP1 PUSH1 0x1 ADD SWAP2 POP POP PUSH2 0x1278 JUMP JUMPDEST POP PUSH0 DUP5 DUP7 PUSH2 0x1361 SWAP2 SWAP1 PUSH2 0x18A4 JUMP JUMPDEST SWAP1 POP DUP3 DUP3 GT ISZERO PUSH2 0x1383 JUMPI PUSH2 0x1380 DUP2 DUP5 DUP5 PUSH2 0x137B SWAP2 SWAP1 PUSH2 0x1871 JUMP JUMPDEST PUSH2 0x1495 JUMP JUMPDEST SWAP1 POP JUMPDEST DUP1 SWAP4 POP POP POP POP SWAP3 SWAP2 POP POP JUMP JUMPDEST PUSH1 0x6 PUSH1 0x20 MSTORE DUP1 PUSH0 MSTORE PUSH1 0x40 PUSH0 KECCAK256 PUSH0 SWAP2 POP SWAP1 POP SLOAD DUP2 JUMP JUMPDEST DUP1 PUSH1 0x5 PUSH0 DUP6 PUSH20 0xFFFFFFFFFFFFFFFFFFFFFFFFFFFFFFFFFFFFFFFF AND PUSH20 0xFFFFFFFFFFFFFFFFFFFFFFFFFFFFFFFFFFFFFFFF AND DUP2 MSTORE PUSH1 0x20 ADD SWAP1 DUP2 MSTORE PUSH1 0x20 ADD PUSH0 KECCAK256 PUSH0 DUP5 PUSH20 0xFFFFFFFFFFFFFFFFFFFFFFFFFFFFFFFFFFFFFFFF AND PUSH20 0xFFFFFFFFFFFFFFFFFFFFFFFFFFFFFFFFFFFFFFFF AND DUP2 MSTORE PUSH1 0x20 ADD SWAP1 DUP2 MSTORE PUSH1 0x20 ADD PUSH0 KECCAK256 PUSH0 DUP3 DUP3 SLOAD PUSH2 0x142B SWAP2 SWAP1 PUSH2 0x18A4 JUMP JUMPDEST SWAP3 POP POP DUP2 SWAP1 SSTORE POP POP POP POP JUMP JUMPDEST PUSH1 0x2 PUSH0 SLOAD SUB PUSH2 0x147B JUMPI PUSH1 0x40 MLOAD PUSH32 0x8C379A000000000000000000000000000000000000000000000000000000000 DUP2 MSTORE PUSH1 0x4 ADD PUSH2 0x1472 SWAP1 PUSH2 0x1E71 JUMP JUMPDEST PUSH1 0x40 MLOAD DUP1 SWAP2 SUB SWAP1 REVERT JUMPDEST PUSH1 0x2 PUSH0 DUP2 SWAP1 SSTORE POP JUMP JUMPDEST PUSH1 0x1 PUSH0 DUP2 SWAP1 SSTORE POP JUMP JUMPDEST PUSH0 PUSH1 0x2 SWAP1 POP SWAP1 JUMP JUMPDEST PUSH0 DUP2 DUP4 LT PUSH2 0x14A3 JUMPI DUP2 PUSH2 0x14A5 JUMP JUMPDEST DUP3 JUMPDEST SWAP1 POP SWAP3 SWAP2 POP POP JUMP JUMPDEST PUSH0 DUP1 REVERT JUMPDEST PUSH0 PUSH20 0xFFFFFFFFFFFFFFFFFFFFFFFFFFFFFFFFFFFFFFFF DUP3 AND SWAP1 POP SWAP2 SWAP1 POP JUMP JUMPDEST PUSH0 PUSH2 0x14DA DUP3 PUSH2 0x14B1 JUMP JUMPDEST SWAP1 POP SWAP2 SWAP1 POP JUMP JUMPDEST PUSH2 0x14EA DUP2 PUSH2 0x14D0 JUMP JUMPDEST DUP2 EQ PUSH2 0x14F4 JUMPI PUSH0 DUP1 REVERT JUMPDEST POP JUMP JUMPDEST PUSH0 DUP2 CALLDATALOAD SWAP1 POP PUSH2 0x1505 DUP2 PUSH2 0x14E1 JUMP JUMPDEST SWAP3 SWAP2 POP POP JUMP JUMPDEST PUSH0 DUP2 SWAP1 POP SWAP2 SWAP1 POP JUMP JUMPDEST PUSH2 0x151D DUP2 PUSH2 0x150B JUMP JUMPDEST DUP2 EQ PUSH2 0x1527 JUMPI PUSH0 DUP1 REVERT JUMPDEST POP JUMP JUMPDEST PUSH0 DUP2 CALLDATALOAD SWAP1 POP PUSH2 0x1538 DUP2 PUSH2 0x1514 JUMP JUMPDEST SWAP3 SWAP2 POP POP JUMP JUMPDEST PUSH0 DUP1 PUSH1 0x40 DUP4 DUP6 SUB SLT ISZERO PUSH2 0x1554 JUMPI PUSH2 0x1553 PUSH2 0x14AD JUMP JUMPDEST JUMPDEST PUSH0 PUSH2 0x1561 DUP6 DUP3 DUP7 ADD PUSH2 0x14F7 JUMP JUMPDEST SWAP3 POP POP PUSH1 0x20 PUSH2 0x1572 DUP6 DUP3 DUP7 ADD PUSH2 0x152A JUMP JUMPDEST SWAP2 POP POP SWAP3 POP SWAP3 SWAP1 POP JUMP JUMPDEST PUSH0 DUP1 PUSH1 0x40 DUP4 DUP6 SUB SLT ISZERO PUSH2 0x1592 JUMPI PUSH2 0x1591 PUSH2 0x14AD JUMP JUMPDEST JUMPDEST PUSH0 PUSH2 0x159F DUP6 DUP3 DUP7 ADD PUSH2 0x14F7 JUMP JUMPDEST SWAP3 POP POP PUSH1 0x20 PUSH2 0x15B0 DUP6 DUP3 DUP7 ADD PUSH2 0x14F7 JUMP JUMPDEST SWAP2 POP POP SWAP3 POP SWAP3 SWAP1 POP JUMP JUMPDEST PUSH2 0x15C3 DUP2 PUSH2 0x150B JUMP JUMPDEST DUP3 MSTORE POP POP JUMP JUMPDEST PUSH0 PUSH1 0x20 DUP3 ADD SWAP1 POP PUSH2 0x15DC PUSH0 DUP4 ADD DUP5 PUSH2 0x15BA JUMP JUMPDEST SWAP3 SWAP2 POP POP JUMP JUMPDEST PUSH0 PUSH1 0x20 DUP3 DUP5 SUB SLT ISZERO PUSH2 0x15F7 JUMPI PUSH2 0x15F6 PUSH2 0x14AD JUMP JUMPDEST JUMPDEST PUSH0 PUSH2 0x1604 DUP5 DUP3 DUP6 ADD PUSH2 0x14F7 JUMP JUMPDEST SWAP2 POP POP SWAP3 SWAP2 POP POP JUMP JUMPDEST PUSH0 PUSH1 0x60 DUP3 ADD SWAP1 POP PUSH2 0x1620 PUSH0 DUP4 ADD DUP7 PUSH2 0x15BA JUMP JUMPDEST PUSH2 0x162D PUSH1 0x20 DUP4 ADD DUP6 PUSH2 0x15BA JUMP JUMPDEST PUSH2 0x163A PUSH1 0x40 DUP4 ADD DUP5 PUSH2 0x15BA JUMP JUMPDEST SWAP5 SWAP4 POP POP POP POP JUMP JUMPDEST PUSH0 DUP1 PUSH0 PUSH1 0x60 DUP5 DUP7 SUB SLT ISZERO PUSH2 0x1659 JUMPI PUSH2 0x1658 PUSH2 0x14AD JUMP JUMPDEST JUMPDEST PUSH0 PUSH2 0x1666 DUP7 DUP3 DUP8 ADD PUSH2 0x14F7 JUMP JUMPDEST SWAP4 POP POP PUSH1 0x20 PUSH2 0x1677 DUP7 DUP3 DUP8 ADD PUSH2 0x14F7 JUMP JUMPDEST SWAP3 POP POP PUSH1 0x40 PUSH2 0x1688 DUP7 DUP3 DUP8 ADD PUSH2 0x152A JUMP JUMPDEST SWAP2 POP POP SWAP3 POP SWAP3 POP SWAP3 JUMP JUMPDEST PUSH0 PUSH1 0x20 DUP3 DUP5 SUB SLT ISZERO PUSH2 0x16A7 JUMPI PUSH2 0x16A6 PUSH2 0x14AD JUMP JUMPDEST JUMPDEST PUSH0 PUSH2 0x16B4 DUP5 DUP3 DUP6 ADD PUSH2 0x152A JUMP JUMPDEST SWAP2 POP POP SWAP3 SWAP2 POP POP JUMP JUMPDEST PUSH0 DUP2 ISZERO ISZERO SWAP1 POP SWAP2 SWAP1 POP JUMP JUMPDEST PUSH2 0x16D1 DUP2 PUSH2 0x16BD JUMP JUMPDEST DUP3 MSTORE POP POP JUMP JUMPDEST PUSH0 PUSH1 0x20 DUP3 ADD SWAP1 POP PUSH2 0x16EA PUSH0 DUP4 ADD DUP5 PUSH2 0x16C8 JUMP JUMPDEST SWAP3 SWAP2 POP POP JUMP JUMPDEST PUSH0 DUP1 PUSH0 PUSH1 0x60 DUP5 DUP7 SUB SLT ISZERO PUSH2 0x1707 JUMPI PUSH2 0x1706 PUSH2 0x14AD JUMP JUMPDEST JUMPDEST PUSH0 PUSH2 0x1714 DUP7 DUP3 DUP8 ADD PUSH2 0x14F7 JUMP JUMPDEST SWAP4 POP POP PUSH1 0x20 PUSH2 0x1725 DUP7 DUP3 DUP8 ADD PUSH2 0x152A JUMP JUMPDEST SWAP3 POP POP PUSH1 0x40 PUSH2 0x1736 DUP7 DUP3 DUP8 ADD PUSH2 0x152A JUMP JUMPDEST SWAP2 POP POP SWAP3 POP SWAP3 POP SWAP3 JUMP JUMPDEST PUSH2 0x1749 DUP2 PUSH2 0x14D0 JUMP JUMPDEST DUP3 MSTORE POP POP JUMP JUMPDEST PUSH0 PUSH1 0x20 DUP3 ADD SWAP1 POP PUSH2 0x1762 PUSH0 DUP4 ADD DUP5 PUSH2 0x1740 JUMP JUMPDEST SWAP3 SWAP2 POP POP JUMP JUMPDEST PUSH0 DUP1 PUSH1 0x40 DUP4 DUP6 SUB SLT ISZERO PUSH2 0x177E JUMPI PUSH2 0x177D PUSH2 0x14AD JUMP JUMPDEST JUMPDEST PUSH0 PUSH2 0x178B DUP6 DUP3 DUP7 ADD PUSH2 0x152A JUMP JUMPDEST SWAP3 POP POP PUSH1 0x20 PUSH2 0x179C DUP6 DUP3 DUP7 ADD PUSH2 0x152A JUMP JUMPDEST SWAP2 POP POP SWAP3 POP SWAP3 SWAP1 POP JUMP JUMPDEST PUSH0 DUP3 DUP3 MSTORE PUSH1 0x20 DUP3 ADD SWAP1 POP SWAP3 SWAP2 POP POP JUMP JUMPDEST PUSH32 0x52657061796D656E7420616D6F756E74206D7573742062652067726561746572 PUSH0 DUP3 ADD MSTORE PUSH32 0x207468616E207A65726F00000000000000000000000000000000000000000000 PUSH1 0x20 DUP3 ADD MSTORE POP JUMP JUMPDEST PUSH0 PUSH2 0x1810 PUSH1 0x2A DUP4 PUSH2 0x17A6 JUMP JUMPDEST SWAP2 POP PUSH2 0x181B DUP3 PUSH2 0x17B6 JUMP JUMPDEST PUSH1 0x40 DUP3 ADD SWAP1 POP SWAP2 SWAP1 POP JUMP JUMPDEST PUSH0 PUSH1 0x20 DUP3 ADD SWAP1 POP DUP2 DUP2 SUB PUSH0 DUP4 ADD MSTORE PUSH2 0x183D DUP2 PUSH2 0x1804 JUMP JUMPDEST SWAP1 POP SWAP2 SWAP1 POP JUMP JUMPDEST PUSH32 0x4E487B7100000000000000000000000000000000000000000000000000000000 PUSH0 MSTORE PUSH1 0x11 PUSH1 0x4 MSTORE PUSH1 0x24 PUSH0 REVERT JUMPDEST PUSH0 PUSH2 0x187B DUP3 PUSH2 0x150B JUMP JUMPDEST SWAP2 POP PUSH2 0x1886 DUP4 PUSH2 0x150B JUMP JUMPDEST SWAP3 POP DUP3 DUP3 SUB SWAP1 POP DUP2 DUP2 GT ISZERO PUSH2 0x189E JUMPI PUSH2 0x189D PUSH2 0x1844 JUMP JUMPDEST JUMPDEST SWAP3 SWAP2 POP POP JUMP JUMPDEST PUSH0 PUSH2 0x18AE DUP3 PUSH2 0x150B JUMP JUMPDEST SWAP2 POP PUSH2 0x18B9 DUP4 PUSH2 0x150B JUMP JUMPDEST SWAP3 POP DUP3 DUP3 ADD SWAP1 POP DUP1 DUP3 GT ISZERO PUSH2 0x18D1 JUMPI PUSH2 0x18D0 PUSH2 0x1844 JUMP JUMPDEST JUMPDEST SWAP3 SWAP2 POP POP JUMP JUMPDEST PUSH32 0x52657061796D656E7420616D6F756E74206578636565647320626F72726F7720 PUSH0 DUP3 ADD MSTORE PUSH32 0x616D6F756E740000000000000000000000000000000000000000000000000000 PUSH1 0x20 DUP3 ADD MSTORE POP JUMP JUMPDEST PUSH0 PUSH2 0x1931 PUSH1 0x26 DUP4 PUSH2 0x17A6 JUMP JUMPDEST SWAP2 POP PUSH2 0x193C DUP3 PUSH2 0x18D7 JUMP JUMPDEST PUSH1 0x40 DUP3 ADD SWAP1 POP SWAP2 SWAP1 POP JUMP JUMPDEST PUSH0 PUSH1 0x20 DUP3 ADD SWAP1 POP DUP2 DUP2 SUB PUSH0 DUP4 ADD MSTORE PUSH2 0x195E DUP2 PUSH2 0x1925 JUMP JUMPDEST SWAP1 POP SWAP2 SWAP1 POP JUMP JUMPDEST PUSH32 0x496E73756666696369656E742066756E647320666F722072657061796D656E74 PUSH0 DUP3 ADD MSTORE PUSH32 0x20616E64206163637275656420696E7465726573740000000000000000000000 PUSH1 0x20 DUP3 ADD MSTORE POP JUMP JUMPDEST PUSH0 PUSH2 0x19BF PUSH1 0x35 DUP4 PUSH2 0x17A6 JUMP JUMPDEST SWAP2 POP PUSH2 0x19CA DUP3 PUSH2 0x1965 JUMP JUMPDEST PUSH1 0x40 DUP3 ADD SWAP1 POP SWAP2 SWAP1 POP JUMP JUMPDEST PUSH0 PUSH1 0x20 DUP3 ADD SWAP1 POP DUP2 DUP2 SUB PUSH0 DUP4 ADD MSTORE PUSH2 0x19EC DUP2 PUSH2 0x19B3 JUMP JUMPDEST SWAP1 POP SWAP2 SWAP1 POP JUMP JUMPDEST PUSH32 0x496E73756666696369656E7420636F6C6C61746572616C20746F207769746864 PUSH0 DUP3 ADD MSTORE PUSH32 0x7261770000000000000000000000000000000000000000000000000000000000 PUSH1 0x20 DUP3 ADD MSTORE POP JUMP JUMPDEST PUSH0 PUSH2 0x1A4D PUSH1 0x23 DUP4 PUSH2 0x17A6 JUMP JUMPDEST SWAP2 POP PUSH2 0x1A58 DUP3 PUSH2 0x19F3 JUMP JUMPDEST PUSH1 0x40 DUP3 ADD SWAP1 POP SWAP2 SWAP1 POP JUMP JUMPDEST PUSH0 PUSH1 0x20 DUP3 ADD SWAP1 POP DUP2 DUP2 SUB PUSH0 DUP4 ADD MSTORE PUSH2 0x1A7A DUP2 PUSH2 0x1A41 JUMP JUMPDEST SWAP1 POP SWAP2 SWAP1 POP JUMP JUMPDEST PUSH0 PUSH2 0x1A8B DUP3 PUSH2 0x150B JUMP JUMPDEST SWAP2 POP PUSH2 0x1A96 DUP4 PUSH2 0x150B JUMP JUMPDEST SWAP3 POP DUP3 DUP3 MUL PUSH2 0x1AA4 DUP2 PUSH2 0x150B JUMP JUMPDEST SWAP2 POP DUP3 DUP3 DIV DUP5 EQ DUP4 ISZERO OR PUSH2 0x1ABB JUMPI PUSH2 0x1ABA PUSH2 0x1844 JUMP JUMPDEST JUMPDEST POP SWAP3 SWAP2 POP POP JUMP JUMPDEST PUSH32 0x4E487B7100000000000000000000000000000000000000000000000000000000 PUSH0 MSTORE PUSH1 0x32 PUSH1 0x4 MSTORE PUSH1 0x24 PUSH0 REVERT JUMPDEST PUSH32 0x4465706F73697420616D6F756E74206D75737420626520677265617465722074 PUSH0 DUP3 ADD MSTORE PUSH32 0x68616E207A65726F000000000000000000000000000000000000000000000000 PUSH1 0x20 DUP3 ADD MSTORE POP JUMP JUMPDEST PUSH0 PUSH2 0x1B49 PUSH1 0x28 DUP4 PUSH2 0x17A6 JUMP JUMPDEST SWAP2 POP PUSH2 0x1B54 DUP3 PUSH2 0x1AEF JUMP JUMPDEST PUSH1 0x40 DUP3 ADD SWAP1 POP SWAP2 SWAP1 POP JUMP JUMPDEST PUSH0 PUSH1 0x20 DUP3 ADD SWAP1 POP DUP2 DUP2 SUB PUSH0 DUP4 ADD MSTORE PUSH2 0x1B76 DUP2 PUSH2 0x1B3D JUMP JUMPDEST SWAP1 POP SWAP2 SWAP1 POP JUMP JUMPDEST PUSH0 PUSH1 0x60 DUP3 ADD SWAP1 POP PUSH2 0x1B90 PUSH0 DUP4 ADD DUP7 PUSH2 0x1740 JUMP JUMPDEST PUSH2 0x1B9D PUSH1 0x20 DUP4 ADD DUP6 PUSH2 0x1740 JUMP JUMPDEST PUSH2 0x1BAA PUSH1 0x40 DUP4 ADD DUP5 PUSH2 0x15BA JUMP JUMPDEST SWAP5 SWAP4 POP POP POP POP JUMP JUMPDEST PUSH2 0x1BBB DUP2 PUSH2 0x16BD JUMP JUMPDEST DUP2 EQ PUSH2 0x1BC5 JUMPI PUSH0 DUP1 REVERT JUMPDEST POP JUMP JUMPDEST PUSH0 DUP2 MLOAD SWAP1 POP PUSH2 0x1BD6 DUP2 PUSH2 0x1BB2 JUMP JUMPDEST SWAP3 SWAP2 POP POP JUMP JUMPDEST PUSH0 PUSH1 0x20 DUP3 DUP5 SUB SLT ISZERO PUSH2 0x1BF1 JUMPI PUSH2 0x1BF0 PUSH2 0x14AD JUMP JUMPDEST JUMPDEST PUSH0 PUSH2 0x1BFE DUP5 DUP3 DUP6 ADD PUSH2 0x1BC8 JUMP JUMPDEST SWAP2 POP POP SWAP3 SWAP2 POP POP JUMP JUMPDEST PUSH32 0x426F72726F7720616D6F756E74206D7573742062652067726561746572207468 PUSH0 DUP3 ADD MSTORE PUSH32 0x616E207A65726F00000000000000000000000000000000000000000000000000 PUSH1 0x20 DUP3 ADD MSTORE POP JUMP JUMPDEST PUSH0 PUSH2 0x1C61 PUSH1 0x27 DUP4 PUSH2 0x17A6 JUMP JUMPDEST SWAP2 POP PUSH2 0x1C6C DUP3 PUSH2 0x1C07 JUMP JUMPDEST PUSH1 0x40 DUP3 ADD SWAP1 POP SWAP2 SWAP1 POP JUMP JUMPDEST PUSH0 PUSH1 0x20 DUP3 ADD SWAP1 POP DUP2 DUP2 SUB PUSH0 DUP4 ADD MSTORE PUSH2 0x1C8E DUP2 PUSH2 0x1C55 JUMP JUMPDEST SWAP1 POP SWAP2 SWAP1 POP JUMP JUMPDEST PUSH32 0x496E73756666696369656E7420636F6C6C61746572616C000000000000000000 PUSH0 DUP3 ADD MSTORE POP JUMP JUMPDEST PUSH0 PUSH2 0x1CC9 PUSH1 0x17 DUP4 PUSH2 0x17A6 JUMP JUMPDEST SWAP2 POP PUSH2 0x1CD4 DUP3 PUSH2 0x1C95 JUMP JUMPDEST PUSH1 0x20 DUP3 ADD SWAP1 POP SWAP2 SWAP1 POP JUMP JUMPDEST PUSH0 PUSH1 0x20 DUP3 ADD SWAP1 POP DUP2 DUP2 SUB PUSH0 DUP4 ADD MSTORE PUSH2 0x1CF6 DUP2 PUSH2 0x1CBD JUMP JUMPDEST SWAP1 POP SWAP2 SWAP1 POP JUMP JUMPDEST PUSH0 DUP2 MLOAD SWAP1 POP PUSH2 0x1D0B DUP2 PUSH2 0x1514 JUMP JUMPDEST SWAP3 SWAP2 POP POP JUMP JUMPDEST PUSH0 PUSH1 0x20 DUP3 DUP5 SUB SLT ISZERO PUSH2 0x1D26 JUMPI PUSH2 0x1D25 PUSH2 0x14AD JUMP JUMPDEST JUMPDEST PUSH0 PUSH2 0x1D33 DUP5 DUP3 DUP6 ADD PUSH2 0x1CFD JUMP JUMPDEST SWAP2 POP POP SWAP3 SWAP2 POP POP JUMP JUMPDEST PUSH32 0x496E73756666696369656E74206C697175696469747920666F7220626F72726F PUSH0 DUP3 ADD MSTORE PUSH32 0x77696E6700000000000000000000000000000000000000000000000000000000 PUSH1 0x20 DUP3 ADD MSTORE POP JUMP JUMPDEST PUSH0 PUSH2 0x1D96 PUSH1 0x24 DUP4 PUSH2 0x17A6 JUMP JUMPDEST SWAP2 POP PUSH2 0x1DA1 DUP3 PUSH2 0x1D3C JUMP JUMPDEST PUSH1 0x40 DUP3 ADD SWAP1 POP SWAP2 SWAP1 POP JUMP JUMPDEST PUSH0 PUSH1 0x20 DUP3 ADD SWAP1 POP DUP2 DUP2 SUB PUSH0 DUP4 ADD MSTORE PUSH2 0x1DC3 DUP2 PUSH2 0x1D8A JUMP JUMPDEST SWAP1 POP SWAP2 SWAP1 POP JUMP JUMPDEST PUSH32 0x4E487B7100000000000000000000000000000000000000000000000000000000 PUSH0 MSTORE PUSH1 0x12 PUSH1 0x4 MSTORE PUSH1 0x24 PUSH0 REVERT JUMPDEST PUSH0 PUSH2 0x1E01 DUP3 PUSH2 0x150B JUMP JUMPDEST SWAP2 POP PUSH2 0x1E0C DUP4 PUSH2 0x150B JUMP JUMPDEST SWAP3 POP DUP3 PUSH2 0x1E1C JUMPI PUSH2 0x1E1B PUSH2 0x1DCA JUMP JUMPDEST JUMPDEST DUP3 DUP3 DIV SWAP1 POP SWAP3 SWAP2 POP POP JUMP JUMPDEST PUSH32 0x5265656E7472616E637947756172643A207265656E7472616E742063616C6C00 PUSH0 DUP3 ADD MSTORE POP JUMP JUMPDEST PUSH0 PUSH2 0x1E5B PUSH1 0x1F DUP4 PUSH2 0x17A6 JUMP JUMPDEST SWAP2 POP PUSH2 0x1E66 DUP3 PUSH2 0x1E27 JUMP JUMPDEST PUSH1 0x20 DUP3 ADD SWAP1 POP SWAP2 SWAP1 POP JUMP JUMPDEST PUSH0 PUSH1 0x20 DUP3 ADD SWAP1 POP DUP2 DUP2 SUB PUSH0 DUP4 ADD MSTORE PUSH2 0x1E88 DUP2 PUSH2 0x1E4F JUMP JUMPDEST SWAP1 POP SWAP2 SWAP1 POP JUMP INVALID LOG2 PUSH5 0x6970667358 0x22 SLT KECCAK256 PUSH18 0x7EF7506BD352B68878726677C02CEAD8611C 0xB6 SWAP11 BLOBHASH 0xE5 0xC0 0x2D 0xDF DUP16 0x26 BASEFEE PUSH12 0x46B064736F6C634300081800 CALLER "
				},
				"gasEstimates": {
					"creation": {
						"codeDepositCost": "1575400",
						"executionCost": "45869",
						"totalCost": "1621269"
					},
					"external": {
						"baseInterestRate()": "2536",
						"borrow(address,uint256)": "infinite",
						"borrowedToken(address,address)": "infinite",
						"calculateAccruedInterest(address,address)": "infinite",
						"calculateInterestRate(address,uint256,uint256)": "infinite",
						"calculateRepayableCollateral(uint256,uint256)": "infinite",
						"calculateRequiredCollateral(uint256)": "infinite",
						"collateral(address,address)": "infinite",
						"deposit(address,uint256)": "infinite",
						"depositCollateral(address,address,uint256)": "infinite",
						"getUserBalance(address,address)": "infinite",
						"isSufficientCollateral(address,address,uint256)": "infinite",
						"repay(address,uint256)": "infinite",
						"supportedTokens(uint256)": "4966",
						"totalBorrowedperToken(address)": "2890",
						"totalBorrowedperUser(address)": "2870",
						"userBorrows(address,address)": "infinite",
						"userDeposits(address,address)": "infinite",
						"withdrawCollateral(address,address,uint256)": "infinite"
					},
					"internal": {
						"OVER_COLLATERALIZATION_RATIO()": "22"
					}
				},
				"methodIdentifiers": {
					"baseInterestRate()": "afd92762",
					"borrow(address,uint256)": "4b8a3529",
					"borrowedToken(address,address)": "272d1b8e",
					"calculateAccruedInterest(address,address)": "664fa64e",
					"calculateInterestRate(address,uint256,uint256)": "9ee7f702",
					"calculateRepayableCollateral(uint256,uint256)": "d526fc2e",
					"calculateRequiredCollateral(uint256)": "34931b4b",
					"collateral(address,address)": "cc218ece",
					"deposit(address,uint256)": "47e7ef24",
					"depositCollateral(address,address,uint256)": "f970c3b7",
					"getUserBalance(address,address)": "6805d6ad",
					"isSufficientCollateral(address,address,uint256)": "3b591d6a",
					"repay(address,uint256)": "22867d78",
					"supportedTokens(uint256)": "c6255626",
					"totalBorrowedperToken(address)": "e80894b6",
					"totalBorrowedperUser(address)": "23d0fda1",
					"userBorrows(address,address)": "234a14f9",
					"userDeposits(address,address)": "436d8039",
					"withdrawCollateral(address,address,uint256)": "2ae8bdfe"
				}
			},
			"storageLayout": {
				"storage": [
					{
						"astId": 10,
						"contract": "contracts/LendingPool.sol:LendingPool",
						"label": "_status",
						"offset": 0,
						"slot": "0",
						"type": "t_uint256"
					},
					{
						"astId": 1206,
						"contract": "contracts/LendingPool.sol:LendingPool",
						"label": "baseInterestRate",
						"offset": 0,
						"slot": "1",
						"type": "t_uint256"
					},
					{
						"astId": 1212,
						"contract": "contracts/LendingPool.sol:LendingPool",
						"label": "userDeposits",
						"offset": 0,
						"slot": "2",
						"type": "t_mapping(t_address,t_mapping(t_address,t_uint256))"
					},
					{
						"astId": 1215,
						"contract": "contracts/LendingPool.sol:LendingPool",
						"label": "supportedTokens",
						"offset": 0,
						"slot": "3",
						"type": "t_array(t_address)dyn_storage"
					},
					{
						"astId": 1221,
						"contract": "contracts/LendingPool.sol:LendingPool",
						"label": "userBorrows",
						"offset": 0,
						"slot": "4",
						"type": "t_mapping(t_address,t_mapping(t_address,t_uint256))"
					},
					{
						"astId": 1227,
						"contract": "contracts/LendingPool.sol:LendingPool",
						"label": "collateral",
						"offset": 0,
						"slot": "5",
						"type": "t_mapping(t_address,t_mapping(t_address,t_uint256))"
					},
					{
						"astId": 1231,
						"contract": "contracts/LendingPool.sol:LendingPool",
						"label": "totalBorrowedperToken",
						"offset": 0,
						"slot": "6",
						"type": "t_mapping(t_address,t_uint256)"
					},
					{
						"astId": 1235,
						"contract": "contracts/LendingPool.sol:LendingPool",
						"label": "totalBorrowedperUser",
						"offset": 0,
						"slot": "7",
						"type": "t_mapping(t_address,t_uint256)"
					},
					{
						"astId": 1249,
						"contract": "contracts/LendingPool.sol:LendingPool",
						"label": "borrowedToken",
						"offset": 0,
						"slot": "8",
						"type": "t_mapping(t_address,t_mapping(t_address,t_struct(BorrowInfo)1242_storage))"
					}
				],
				"types": {
					"t_address": {
						"encoding": "inplace",
						"label": "address",
						"numberOfBytes": "20"
					},
					"t_array(t_address)dyn_storage": {
						"base": "t_address",
						"encoding": "dynamic_array",
						"label": "address[]",
						"numberOfBytes": "32"
					},
					"t_mapping(t_address,t_mapping(t_address,t_struct(BorrowInfo)1242_storage))": {
						"encoding": "mapping",
						"key": "t_address",
						"label": "mapping(address => mapping(address => struct LendingPool.BorrowInfo))",
						"numberOfBytes": "32",
						"value": "t_mapping(t_address,t_struct(BorrowInfo)1242_storage)"
					},
					"t_mapping(t_address,t_mapping(t_address,t_uint256))": {
						"encoding": "mapping",
						"key": "t_address",
						"label": "mapping(address => mapping(address => uint256))",
						"numberOfBytes": "32",
						"value": "t_mapping(t_address,t_uint256)"
					},
					"t_mapping(t_address,t_struct(BorrowInfo)1242_storage)": {
						"encoding": "mapping",
						"key": "t_address",
						"label": "mapping(address => struct LendingPool.BorrowInfo)",
						"numberOfBytes": "32",
						"value": "t_struct(BorrowInfo)1242_storage"
					},
					"t_mapping(t_address,t_uint256)": {
						"encoding": "mapping",
						"key": "t_address",
						"label": "mapping(address => uint256)",
						"numberOfBytes": "32",
						"value": "t_uint256"
					},
					"t_struct(BorrowInfo)1242_storage": {
						"encoding": "inplace",
						"label": "struct LendingPool.BorrowInfo",
						"members": [
							{
								"astId": 1237,
								"contract": "contracts/LendingPool.sol:LendingPool",
								"label": "amount",
								"offset": 0,
								"slot": "0",
								"type": "t_uint256"
							},
							{
								"astId": 1239,
								"contract": "contracts/LendingPool.sol:LendingPool",
								"label": "interestRate",
								"offset": 0,
								"slot": "1",
								"type": "t_uint256"
							},
							{
								"astId": 1241,
								"contract": "contracts/LendingPool.sol:LendingPool",
								"label": "startTime",
								"offset": 0,
								"slot": "2",
								"type": "t_uint256"
							}
						],
						"numberOfBytes": "96"
					},
					"t_uint256": {
						"encoding": "inplace",
						"label": "uint256",
						"numberOfBytes": "32"
					}
				}
			},
			"userdoc": {
				"kind": "user",
				"methods": {},
				"version": 1
			}
		}
	}
}