{
	"contracts/Lend.sol": {
		"Lend": {
			"abi": [
				{
					"inputs": [],
					"stateMutability": "nonpayable",
					"type": "constructor"
				},
				{
					"anonymous": false,
					"inputs": [
						{
							"indexed": true,
							"internalType": "address",
							"name": "user",
							"type": "address"
						},
						{
							"indexed": false,
							"internalType": "uint256",
							"name": "amount",
							"type": "uint256"
						},
						{
							"indexed": false,
							"internalType": "uint256",
							"name": "interestRate",
							"type": "uint256"
						},
						{
							"indexed": false,
							"internalType": "uint256",
							"name": "startTime",
							"type": "uint256"
						}
					],
					"name": "Borrowed",
					"type": "event"
				},
				{
					"anonymous": false,
					"inputs": [
						{
							"indexed": true,
							"internalType": "address",
							"name": "user",
							"type": "address"
						},
						{
							"indexed": false,
							"internalType": "uint256",
							"name": "amount",
							"type": "uint256"
						}
					],
					"name": "DepositMade",
					"type": "event"
				},
				{
					"inputs": [],
					"name": "baseInterestRate",
					"outputs": [
						{
							"internalType": "uint256",
							"name": "",
							"type": "uint256"
						}
					],
					"stateMutability": "view",
					"type": "function"
				},
				{
					"inputs": [
						{
							"internalType": "uint256",
							"name": "amount",
							"type": "uint256"
						}
					],
					"name": "borrow",
					"outputs": [],
					"stateMutability": "payable",
					"type": "function"
				},
				{
					"inputs": [
						{
							"internalType": "address",
							"name": "",
							"type": "address"
						}
					],
					"name": "borrowed",
					"outputs": [
						{
							"internalType": "uint256",
							"name": "amount",
							"type": "uint256"
						},
						{
							"internalType": "uint256",
							"name": "interestRate",
							"type": "uint256"
						},
						{
							"internalType": "uint256",
							"name": "startTime",
							"type": "uint256"
						}
					],
					"stateMutability": "view",
					"type": "function"
				},
				{
					"inputs": [
						{
							"internalType": "address",
							"name": "user",
							"type": "address"
						}
					],
					"name": "calculateAccruedInterest",
					"outputs": [
						{
							"internalType": "uint256",
							"name": "",
							"type": "uint256"
						}
					],
					"stateMutability": "view",
					"type": "function"
				},
				{
					"inputs": [],
					"name": "deposit",
					"outputs": [],
					"stateMutability": "payable",
					"type": "function"
				},
				{
					"inputs": [
						{
							"internalType": "address",
							"name": "user",
							"type": "address"
						}
					],
					"name": "getUserBalance",
					"outputs": [
						{
							"internalType": "uint256",
							"name": "",
							"type": "uint256"
						}
					],
					"stateMutability": "view",
					"type": "function"
				},
				{
					"inputs": [],
					"name": "repay",
					"outputs": [],
					"stateMutability": "payable",
					"type": "function"
				},
				{
					"inputs": [],
					"name": "totalBorrowed",
					"outputs": [
						{
							"internalType": "uint256",
							"name": "",
							"type": "uint256"
						}
					],
					"stateMutability": "view",
					"type": "function"
				},
				{
					"inputs": [
						{
							"internalType": "address",
							"name": "",
							"type": "address"
						}
					],
					"name": "userDeposits",
					"outputs": [
						{
							"internalType": "uint256",
							"name": "",
							"type": "uint256"
						}
					],
					"stateMutability": "view",
					"type": "function"
				}
			],
			"devdoc": {
				"kind": "dev",
				"methods": {},
				"version": 1
			},
			"evm": {
				"assembly": "    /* \"contracts/Lend.sol\":181:3237  contract Lend is ReentrancyGuard... */\n  mstore(0x40, 0x80)\n    /* \"contracts/Lend.sol\":252:254  10 */\n  0x0a\n    /* \"contracts/Lend.sol\":220:254  uint256 public baseInterestRate=10 */\n  0x01\n  sstore\n    /* \"contracts/Lend.sol\":705:720  constructor(){} */\n  callvalue\n  dup1\n  iszero\n  tag_1\n  jumpi\n  0x00\n  dup1\n  revert\ntag_1:\n  pop\n    /* \"@openzeppelin/contracts/security/ReentrancyGuard.sol\":1716:1717  1 */\n  0x01\n    /* \"@openzeppelin/contracts/security/ReentrancyGuard.sol\":1821:1828  _status */\n  0x00\n    /* \"@openzeppelin/contracts/security/ReentrancyGuard.sol\":1821:1843  _status = _NOT_ENTERED */\n  dup2\n  swap1\n  sstore\n  pop\n    /* \"contracts/Lend.sol\":181:3237  contract Lend is ReentrancyGuard... */\n  dataSize(sub_0)\n  dup1\n  dataOffset(sub_0)\n  0x00\n  codecopy\n  0x00\n  return\nstop\n\nsub_0: assembly {\n        /* \"contracts/Lend.sol\":181:3237  contract Lend is ReentrancyGuard... */\n      mstore(0x40, 0x80)\n      jumpi(tag_1, lt(calldatasize, 0x04))\n      shr(0xe0, calldataload(0x00))\n      dup1\n      0x4c19386c\n      gt\n      tag_11\n      jumpi\n      dup1\n      0x4c19386c\n      eq\n      tag_6\n      jumpi\n      dup1\n      0xafd92762\n      eq\n      tag_7\n      jumpi\n      dup1\n      0xc5ebeaec\n      eq\n      tag_8\n      jumpi\n      dup1\n      0xd0e30db0\n      eq\n      tag_9\n      jumpi\n      dup1\n      0xd6ef4046\n      eq\n      tag_10\n      jumpi\n      jump(tag_1)\n    tag_11:\n      dup1\n      0x0941cb3d\n      eq\n      tag_2\n      jumpi\n      dup1\n      0x0ba36dcd\n      eq\n      tag_3\n      jumpi\n      dup1\n      0x402d8883\n      eq\n      tag_4\n      jumpi\n      dup1\n      0x47734892\n      eq\n      tag_5\n      jumpi\n    tag_1:\n      0x00\n      dup1\n      revert\n        /* \"contracts/Lend.sol\":652:698  mapping(address => BorrowInfo) public borrowed */\n    tag_2:\n      callvalue\n      dup1\n      iszero\n      tag_12\n      jumpi\n      0x00\n      dup1\n      revert\n    tag_12:\n      pop\n      tag_13\n      0x04\n      dup1\n      calldatasize\n      sub\n      dup2\n      add\n      swap1\n      tag_14\n      swap2\n      swap1\n      tag_15\n      jump\t// in\n    tag_14:\n      tag_16\n      jump\t// in\n    tag_13:\n      mload(0x40)\n      tag_17\n      swap4\n      swap3\n      swap2\n      swap1\n      tag_18\n      jump\t// in\n    tag_17:\n      mload(0x40)\n      dup1\n      swap2\n      sub\n      swap1\n      return\n        /* \"contracts/Lend.sol\":298:345  mapping(address => uint256) public userDeposits */\n    tag_3:\n      callvalue\n      dup1\n      iszero\n      tag_19\n      jumpi\n      0x00\n      dup1\n      revert\n    tag_19:\n      pop\n      tag_20\n      0x04\n      dup1\n      calldatasize\n      sub\n      dup2\n      add\n      swap1\n      tag_21\n      swap2\n      swap1\n      tag_15\n      jump\t// in\n    tag_21:\n      tag_22\n      jump\t// in\n    tag_20:\n      mload(0x40)\n      tag_23\n      swap2\n      swap1\n      tag_24\n      jump\t// in\n    tag_23:\n      mload(0x40)\n      dup1\n      swap2\n      sub\n      swap1\n      return\n        /* \"contracts/Lend.sol\":2036:2890  function repay() public payable nonReentrant... */\n    tag_4:\n      tag_25\n      tag_26\n      jump\t// in\n    tag_25:\n      stop\n        /* \"contracts/Lend.sol\":1183:1296  function getUserBalance(address user) public view returns(uint256)... */\n    tag_5:\n      callvalue\n      dup1\n      iszero\n      tag_27\n      jumpi\n      0x00\n      dup1\n      revert\n    tag_27:\n      pop\n      tag_28\n      0x04\n      dup1\n      calldatasize\n      sub\n      dup2\n      add\n      swap1\n      tag_29\n      swap2\n      swap1\n      tag_15\n      jump\t// in\n    tag_29:\n      tag_30\n      jump\t// in\n    tag_28:\n      mload(0x40)\n      tag_31\n      swap2\n      swap1\n      tag_24\n      jump\t// in\n    tag_31:\n      mload(0x40)\n      dup1\n      swap2\n      sub\n      swap1\n      return\n        /* \"contracts/Lend.sol\":394:422  uint256 public totalBorrowed */\n    tag_6:\n      callvalue\n      dup1\n      iszero\n      tag_32\n      jumpi\n      0x00\n      dup1\n      revert\n    tag_32:\n      pop\n      tag_33\n      tag_34\n      jump\t// in\n    tag_33:\n      mload(0x40)\n      tag_35\n      swap2\n      swap1\n      tag_24\n      jump\t// in\n    tag_35:\n      mload(0x40)\n      dup1\n      swap2\n      sub\n      swap1\n      return\n        /* \"contracts/Lend.sol\":220:254  uint256 public baseInterestRate=10 */\n    tag_7:\n      callvalue\n      dup1\n      iszero\n      tag_36\n      jumpi\n      0x00\n      dup1\n      revert\n    tag_36:\n      pop\n      tag_37\n      tag_38\n      jump\t// in\n    tag_37:\n      mload(0x40)\n      tag_39\n      swap2\n      swap1\n      tag_24\n      jump\t// in\n    tag_39:\n      mload(0x40)\n      dup1\n      swap2\n      sub\n      swap1\n      return\n        /* \"contracts/Lend.sol\":1358:2030  function borrow(uint256 amount) public payable nonReentrant... */\n    tag_8:\n      tag_40\n      0x04\n      dup1\n      calldatasize\n      sub\n      dup2\n      add\n      swap1\n      tag_41\n      swap2\n      swap1\n      tag_42\n      jump\t// in\n    tag_41:\n      tag_43\n      jump\t// in\n    tag_40:\n      stop\n        /* \"contracts/Lend.sol\":941:1158  function deposit() public payable ... */\n    tag_9:\n      tag_44\n      tag_45\n      jump\t// in\n    tag_44:\n      stop\n        /* \"contracts/Lend.sol\":2896:3235  function calculateAccruedInterest(address user) public view returns(uint256)... */\n    tag_10:\n      callvalue\n      dup1\n      iszero\n      tag_46\n      jumpi\n      0x00\n      dup1\n      revert\n    tag_46:\n      pop\n      tag_47\n      0x04\n      dup1\n      calldatasize\n      sub\n      dup2\n      add\n      swap1\n      tag_48\n      swap2\n      swap1\n      tag_15\n      jump\t// in\n    tag_48:\n      tag_49\n      jump\t// in\n    tag_47:\n      mload(0x40)\n      tag_50\n      swap2\n      swap1\n      tag_24\n      jump\t// in\n    tag_50:\n      mload(0x40)\n      dup1\n      swap2\n      sub\n      swap1\n      return\n        /* \"contracts/Lend.sol\":652:698  mapping(address => BorrowInfo) public borrowed */\n    tag_16:\n      mstore(0x20, 0x05)\n      dup1\n      0x00\n      mstore\n      keccak256(0x00, 0x40)\n      0x00\n      swap2\n      pop\n      swap1\n      pop\n      dup1\n      0x00\n      add\n      sload\n      swap1\n      dup1\n      0x01\n      add\n      sload\n      swap1\n      dup1\n      0x02\n      add\n      sload\n      swap1\n      pop\n      dup4\n      jump\t// out\n        /* \"contracts/Lend.sol\":298:345  mapping(address => uint256) public userDeposits */\n    tag_22:\n      mstore(0x20, 0x02)\n      dup1\n      0x00\n      mstore\n      keccak256(0x00, 0x40)\n      0x00\n      swap2\n      pop\n      swap1\n      pop\n      sload\n      dup2\n      jump\t// out\n        /* \"contracts/Lend.sol\":2036:2890  function repay() public payable nonReentrant... */\n    tag_26:\n        /* \"@openzeppelin/contracts/security/ReentrancyGuard.sol\":2261:2282  _nonReentrantBefore() */\n      tag_52\n        /* \"@openzeppelin/contracts/security/ReentrancyGuard.sol\":2261:2280  _nonReentrantBefore */\n      tag_53\n        /* \"@openzeppelin/contracts/security/ReentrancyGuard.sol\":2261:2282  _nonReentrantBefore() */\n      jump\t// in\n    tag_52:\n        /* \"contracts/Lend.sol\":2115:2116  0 */\n      0x00\n        /* \"contracts/Lend.sol\":2103:2112  msg.value */\n      callvalue\n        /* \"contracts/Lend.sol\":2103:2116  msg.value > 0 */\n      gt\n        /* \"contracts/Lend.sol\":2095:2163  require(msg.value > 0, \"Repayment amount must be greater than zero\") */\n      tag_55\n      jumpi\n      mload(0x40)\n      0x08c379a000000000000000000000000000000000000000000000000000000000\n      dup2\n      mstore\n      0x04\n      add\n      tag_56\n      swap1\n      tag_57\n      jump\t// in\n    tag_56:\n      mload(0x40)\n      dup1\n      swap2\n      sub\n      swap1\n      revert\n    tag_55:\n        /* \"contracts/Lend.sol\":2249:2258  msg.value */\n      callvalue\n        /* \"contracts/Lend.sol\":2223:2233  userBorrow */\n      0x04\n        /* \"contracts/Lend.sol\":2223:2245  userBorrow[msg.sender] */\n      0x00\n        /* \"contracts/Lend.sol\":2234:2244  msg.sender */\n      caller\n        /* \"contracts/Lend.sol\":2223:2245  userBorrow[msg.sender] */\n      0xffffffffffffffffffffffffffffffffffffffff\n      and\n      0xffffffffffffffffffffffffffffffffffffffff\n      and\n      dup2\n      mstore\n      0x20\n      add\n      swap1\n      dup2\n      mstore\n      0x20\n      add\n      0x00\n      keccak256\n      0x00\n        /* \"contracts/Lend.sol\":2223:2258  userBorrow[msg.sender] -= msg.value */\n      dup3\n      dup3\n      sload\n      tag_58\n      swap2\n      swap1\n      tag_59\n      jump\t// in\n    tag_58:\n      swap3\n      pop\n      pop\n      dup2\n      swap1\n      sstore\n      pop\n        /* \"contracts/Lend.sol\":2285:2294  msg.value */\n      callvalue\n        /* \"contracts/Lend.sol\":2268:2281  totalBorrowed */\n      0x03\n      0x00\n        /* \"contracts/Lend.sol\":2268:2294  totalBorrowed -= msg.value */\n      dup3\n      dup3\n      sload\n      tag_60\n      swap2\n      swap1\n      tag_59\n      jump\t// in\n    tag_60:\n      swap3\n      pop\n      pop\n      dup2\n      swap1\n      sstore\n      pop\n        /* \"contracts/Lend.sol\":2343:2366  uint256 accruedInterest */\n      0x00\n        /* \"contracts/Lend.sol\":2369:2405  calculateAccruedInterest(msg.sender) */\n      tag_61\n        /* \"contracts/Lend.sol\":2394:2404  msg.sender */\n      caller\n        /* \"contracts/Lend.sol\":2369:2393  calculateAccruedInterest */\n      tag_49\n        /* \"contracts/Lend.sol\":2369:2405  calculateAccruedInterest(msg.sender) */\n      jump\t// in\n    tag_61:\n        /* \"contracts/Lend.sol\":2343:2405  uint256 accruedInterest = calculateAccruedInterest(msg.sender) */\n      swap1\n      pop\n        /* \"contracts/Lend.sol\":2494:2509  accruedInterest */\n      dup1\n        /* \"contracts/Lend.sol\":2482:2491  msg.value */\n      callvalue\n        /* \"contracts/Lend.sol\":2482:2509  msg.value + accruedInterest */\n      tag_62\n      swap2\n      swap1\n      tag_63\n      jump\t// in\n    tag_62:\n        /* \"contracts/Lend.sol\":2456:2466  userBorrow */\n      0x04\n        /* \"contracts/Lend.sol\":2456:2478  userBorrow[msg.sender] */\n      0x00\n        /* \"contracts/Lend.sol\":2467:2477  msg.sender */\n      caller\n        /* \"contracts/Lend.sol\":2456:2478  userBorrow[msg.sender] */\n      0xffffffffffffffffffffffffffffffffffffffff\n      and\n      0xffffffffffffffffffffffffffffffffffffffff\n      and\n      dup2\n      mstore\n      0x20\n      add\n      swap1\n      dup2\n      mstore\n      0x20\n      add\n      0x00\n      keccak256\n      sload\n        /* \"contracts/Lend.sol\":2456:2509  userBorrow[msg.sender] >= msg.value + accruedInterest */\n      lt\n      iszero\n        /* \"contracts/Lend.sol\":2448:2545  require(userBorrow[msg.sender] >= msg.value + accruedInterest, \"Repayment exceeds borrow amount\") */\n      tag_64\n      jumpi\n      mload(0x40)\n      0x08c379a000000000000000000000000000000000000000000000000000000000\n      dup2\n      mstore\n      0x04\n      add\n      tag_65\n      swap1\n      tag_66\n      jump\t// in\n    tag_65:\n      mload(0x40)\n      dup1\n      swap2\n      sub\n      swap1\n      revert\n    tag_64:\n        /* \"contracts/Lend.sol\":2646:2661  accruedInterest */\n      dup1\n        /* \"contracts/Lend.sol\":2633:2642  msg.value */\n      callvalue\n        /* \"contracts/Lend.sol\":2633:2661  msg.value >= accruedInterest */\n      lt\n      iszero\n        /* \"contracts/Lend.sol\":2625:2705  require(msg.value >= accruedInterest, \"Insufficient funds for accrued interest\") */\n      tag_67\n      jumpi\n      mload(0x40)\n      0x08c379a000000000000000000000000000000000000000000000000000000000\n      dup2\n      mstore\n      0x04\n      add\n      tag_68\n      swap1\n      tag_69\n      jump\t// in\n    tag_68:\n      mload(0x40)\n      dup1\n      swap2\n      sub\n      swap1\n      revert\n    tag_67:\n        /* \"contracts/Lend.sol\":2777:2792  accruedInterest */\n      dup1\n        /* \"contracts/Lend.sol\":2765:2774  msg.value */\n      callvalue\n        /* \"contracts/Lend.sol\":2765:2792  msg.value > accruedInterest */\n      gt\n        /* \"contracts/Lend.sol\":2762:2884  if(msg.value > accruedInterest)... */\n      iszero\n      tag_70\n      jumpi\n        /* \"contracts/Lend.sol\":2824:2834  msg.sender */\n      caller\n        /* \"contracts/Lend.sol\":2816:2844  payable(msg.sender).transfer */\n      0xffffffffffffffffffffffffffffffffffffffff\n      and\n        /* \"contracts/Lend.sol\":2816:2873  payable(msg.sender).transfer(msg.value - accruedInterest) */\n      0x08fc\n        /* \"contracts/Lend.sol\":2857:2872  accruedInterest */\n      dup3\n        /* \"contracts/Lend.sol\":2845:2854  msg.value */\n      callvalue\n        /* \"contracts/Lend.sol\":2845:2872  msg.value - accruedInterest */\n      tag_71\n      swap2\n      swap1\n      tag_59\n      jump\t// in\n    tag_71:\n        /* \"contracts/Lend.sol\":2816:2873  payable(msg.sender).transfer(msg.value - accruedInterest) */\n      swap1\n      dup2\n      iszero\n      mul\n      swap1\n      mload(0x40)\n      0x00\n      mload(0x40)\n      dup1\n      dup4\n      sub\n      dup2\n      dup6\n      dup9\n      dup9\n      call\n      swap4\n      pop\n      pop\n      pop\n      pop\n      iszero\n      dup1\n      iszero\n      tag_73\n      jumpi\n      returndatasize\n      0x00\n      dup1\n      returndatacopy\n      revert(0x00, returndatasize)\n    tag_73:\n      pop\n        /* \"contracts/Lend.sol\":2762:2884  if(msg.value > accruedInterest)... */\n    tag_70:\n        /* \"contracts/Lend.sol\":2085:2890  {... */\n      pop\n        /* \"@openzeppelin/contracts/security/ReentrancyGuard.sol\":2303:2323  _nonReentrantAfter() */\n      tag_74\n        /* \"@openzeppelin/contracts/security/ReentrancyGuard.sol\":2303:2321  _nonReentrantAfter */\n      tag_75\n        /* \"@openzeppelin/contracts/security/ReentrancyGuard.sol\":2303:2323  _nonReentrantAfter() */\n      jump\t// in\n    tag_74:\n        /* \"contracts/Lend.sol\":2036:2890  function repay() public payable nonReentrant... */\n      jump\t// out\n        /* \"contracts/Lend.sol\":1183:1296  function getUserBalance(address user) public view returns(uint256)... */\n    tag_30:\n        /* \"contracts/Lend.sol\":1241:1248  uint256 */\n      0x00\n        /* \"contracts/Lend.sol\":1271:1283  userDeposits */\n      0x02\n        /* \"contracts/Lend.sol\":1271:1289  userDeposits[user] */\n      0x00\n        /* \"contracts/Lend.sol\":1284:1288  user */\n      dup4\n        /* \"contracts/Lend.sol\":1271:1289  userDeposits[user] */\n      0xffffffffffffffffffffffffffffffffffffffff\n      and\n      0xffffffffffffffffffffffffffffffffffffffff\n      and\n      dup2\n      mstore\n      0x20\n      add\n      swap1\n      dup2\n      mstore\n      0x20\n      add\n      0x00\n      keccak256\n      sload\n        /* \"contracts/Lend.sol\":1264:1289  return userDeposits[user] */\n      swap1\n      pop\n        /* \"contracts/Lend.sol\":1183:1296  function getUserBalance(address user) public view returns(uint256)... */\n      swap2\n      swap1\n      pop\n      jump\t// out\n        /* \"contracts/Lend.sol\":394:422  uint256 public totalBorrowed */\n    tag_34:\n      sload(0x03)\n      dup2\n      jump\t// out\n        /* \"contracts/Lend.sol\":220:254  uint256 public baseInterestRate=10 */\n    tag_38:\n      sload(0x01)\n      dup2\n      jump\t// out\n        /* \"contracts/Lend.sol\":1358:2030  function borrow(uint256 amount) public payable nonReentrant... */\n    tag_43:\n        /* \"@openzeppelin/contracts/security/ReentrancyGuard.sol\":2261:2282  _nonReentrantBefore() */\n      tag_78\n        /* \"@openzeppelin/contracts/security/ReentrancyGuard.sol\":2261:2280  _nonReentrantBefore */\n      tag_53\n        /* \"@openzeppelin/contracts/security/ReentrancyGuard.sol\":2261:2282  _nonReentrantBefore() */\n      jump\t// in\n    tag_78:\n        /* \"contracts/Lend.sol\":1449:1450  0 */\n      0x00\n        /* \"contracts/Lend.sol\":1440:1446  amount */\n      dup2\n        /* \"contracts/Lend.sol\":1440:1450  amount > 0 */\n      gt\n        /* \"contracts/Lend.sol\":1432:1494  require(amount > 0, \"Borrow amount must be greater than zero\") */\n      tag_80\n      jumpi\n      mload(0x40)\n      0x08c379a000000000000000000000000000000000000000000000000000000000\n      dup2\n      mstore\n      0x04\n      add\n      tag_81\n      swap1\n      tag_82\n      jump\t// in\n    tag_81:\n      mload(0x40)\n      dup1\n      swap2\n      sub\n      swap1\n      revert\n    tag_80:\n        /* \"contracts/Lend.sol\":1537:1543  amount */\n      dup1\n        /* \"contracts/Lend.sol\":1512:1533  address(this).balance */\n      selfbalance\n        /* \"contracts/Lend.sol\":1512:1543  address(this).balance >= amount */\n      lt\n      iszero\n        /* \"contracts/Lend.sol\":1504:1584  require(address(this).balance >= amount, \"Insufficient liquidity for borrowing\") */\n      tag_83\n      jumpi\n      mload(0x40)\n      0x08c379a000000000000000000000000000000000000000000000000000000000\n      dup2\n      mstore\n      0x04\n      add\n      tag_84\n      swap1\n      tag_85\n      jump\t// in\n    tag_84:\n      mload(0x40)\n      dup1\n      swap2\n      sub\n      swap1\n      revert\n    tag_83:\n        /* \"contracts/Lend.sol\":1670:1676  amount */\n      dup1\n        /* \"contracts/Lend.sol\":1644:1654  userBorrow */\n      0x04\n        /* \"contracts/Lend.sol\":1644:1666  userBorrow[msg.sender] */\n      0x00\n        /* \"contracts/Lend.sol\":1655:1665  msg.sender */\n      caller\n        /* \"contracts/Lend.sol\":1644:1666  userBorrow[msg.sender] */\n      0xffffffffffffffffffffffffffffffffffffffff\n      and\n      0xffffffffffffffffffffffffffffffffffffffff\n      and\n      dup2\n      mstore\n      0x20\n      add\n      swap1\n      dup2\n      mstore\n      0x20\n      add\n      0x00\n      keccak256\n      0x00\n        /* \"contracts/Lend.sol\":1644:1676  userBorrow[msg.sender] += amount */\n      dup3\n      dup3\n      sload\n      tag_86\n      swap2\n      swap1\n      tag_63\n      jump\t// in\n    tag_86:\n      swap3\n      pop\n      pop\n      dup2\n      swap1\n      sstore\n      pop\n        /* \"contracts/Lend.sol\":1703:1709  amount */\n      dup1\n        /* \"contracts/Lend.sol\":1686:1699  totalBorrowed */\n      0x03\n      0x00\n        /* \"contracts/Lend.sol\":1686:1709  totalBorrowed += amount */\n      dup3\n      dup3\n      sload\n      tag_87\n      swap2\n      swap1\n      tag_63\n      jump\t// in\n    tag_87:\n      swap3\n      pop\n      pop\n      dup2\n      swap1\n      sstore\n      pop\n        /* \"contracts/Lend.sol\":1856:1944  BorrowInfo({amount: amount, interestRate: baseInterestRate, startTime: block.timestamp}) */\n      mload(0x40)\n      dup1\n      0x60\n      add\n      0x40\n      mstore\n      dup1\n        /* \"contracts/Lend.sol\":1876:1882  amount */\n      dup3\n        /* \"contracts/Lend.sol\":1856:1944  BorrowInfo({amount: amount, interestRate: baseInterestRate, startTime: block.timestamp}) */\n      dup2\n      mstore\n      0x20\n      add\n        /* \"contracts/Lend.sol\":1898:1914  baseInterestRate */\n      sload(0x01)\n        /* \"contracts/Lend.sol\":1856:1944  BorrowInfo({amount: amount, interestRate: baseInterestRate, startTime: block.timestamp}) */\n      dup2\n      mstore\n      0x20\n      add\n        /* \"contracts/Lend.sol\":1927:1942  block.timestamp */\n      timestamp\n        /* \"contracts/Lend.sol\":1856:1944  BorrowInfo({amount: amount, interestRate: baseInterestRate, startTime: block.timestamp}) */\n      dup2\n      mstore\n      pop\n        /* \"contracts/Lend.sol\":1833:1841  borrowed */\n      0x05\n        /* \"contracts/Lend.sol\":1833:1853  borrowed[msg.sender] */\n      0x00\n        /* \"contracts/Lend.sol\":1842:1852  msg.sender */\n      caller\n        /* \"contracts/Lend.sol\":1833:1853  borrowed[msg.sender] */\n      0xffffffffffffffffffffffffffffffffffffffff\n      and\n      0xffffffffffffffffffffffffffffffffffffffff\n      and\n      dup2\n      mstore\n      0x20\n      add\n      swap1\n      dup2\n      mstore\n      0x20\n      add\n      0x00\n      keccak256\n        /* \"contracts/Lend.sol\":1833:1944  borrowed[msg.sender] = BorrowInfo({amount: amount, interestRate: baseInterestRate, startTime: block.timestamp}) */\n      0x00\n      dup3\n      add\n      mload\n      dup2\n      0x00\n      add\n      sstore\n      0x20\n      dup3\n      add\n      mload\n      dup2\n      0x01\n      add\n      sstore\n      0x40\n      dup3\n      add\n      mload\n      dup2\n      0x02\n      add\n      sstore\n      swap1\n      pop\n      pop\n        /* \"contracts/Lend.sol\":1969:1979  msg.sender */\n      caller\n        /* \"contracts/Lend.sol\":1960:2023  Borrowed(msg.sender, amount, baseInterestRate, block.timestamp) */\n      0xffffffffffffffffffffffffffffffffffffffff\n      and\n      0xc4381c9c7b508979896c55381c1cb8c2aef28d753cff7661f9cd87b9a14584f8\n        /* \"contracts/Lend.sol\":1981:1987  amount */\n      dup3\n        /* \"contracts/Lend.sol\":1989:2005  baseInterestRate */\n      sload(0x01)\n        /* \"contracts/Lend.sol\":2007:2022  block.timestamp */\n      timestamp\n        /* \"contracts/Lend.sol\":1960:2023  Borrowed(msg.sender, amount, baseInterestRate, block.timestamp) */\n      mload(0x40)\n      tag_88\n      swap4\n      swap3\n      swap2\n      swap1\n      tag_18\n      jump\t// in\n    tag_88:\n      mload(0x40)\n      dup1\n      swap2\n      sub\n      swap1\n      log2\n        /* \"@openzeppelin/contracts/security/ReentrancyGuard.sol\":2303:2323  _nonReentrantAfter() */\n      tag_89\n        /* \"@openzeppelin/contracts/security/ReentrancyGuard.sol\":2303:2321  _nonReentrantAfter */\n      tag_75\n        /* \"@openzeppelin/contracts/security/ReentrancyGuard.sol\":2303:2323  _nonReentrantAfter() */\n      jump\t// in\n    tag_89:\n        /* \"contracts/Lend.sol\":1358:2030  function borrow(uint256 amount) public payable nonReentrant... */\n      pop\n      jump\t// out\n        /* \"contracts/Lend.sol\":941:1158  function deposit() public payable ... */\n    tag_45:\n        /* \"contracts/Lend.sol\":1009:1010  0 */\n      0x00\n        /* \"contracts/Lend.sol\":998:1007  msg.value */\n      callvalue\n        /* \"contracts/Lend.sol\":998:1010  msg.value >0 */\n      gt\n        /* \"contracts/Lend.sol\":990:1055  require(msg.value >0, \"Deposit amount must be greater than zero\") */\n      tag_91\n      jumpi\n      mload(0x40)\n      0x08c379a000000000000000000000000000000000000000000000000000000000\n      dup2\n      mstore\n      0x04\n      add\n      tag_92\n      swap1\n      tag_93\n      jump\t// in\n    tag_92:\n      mload(0x40)\n      dup1\n      swap2\n      sub\n      swap1\n      revert\n    tag_91:\n        /* \"contracts/Lend.sol\":1093:1102  msg.value */\n      callvalue\n        /* \"contracts/Lend.sol\":1065:1077  userDeposits */\n      0x02\n        /* \"contracts/Lend.sol\":1065:1089  userDeposits[msg.sender] */\n      0x00\n        /* \"contracts/Lend.sol\":1078:1088  msg.sender */\n      caller\n        /* \"contracts/Lend.sol\":1065:1089  userDeposits[msg.sender] */\n      0xffffffffffffffffffffffffffffffffffffffff\n      and\n      0xffffffffffffffffffffffffffffffffffffffff\n      and\n      dup2\n      mstore\n      0x20\n      add\n      swap1\n      dup2\n      mstore\n      0x20\n      add\n      0x00\n      keccak256\n      0x00\n        /* \"contracts/Lend.sol\":1065:1102  userDeposits[msg.sender] += msg.value */\n      dup3\n      dup3\n      sload\n      tag_94\n      swap2\n      swap1\n      tag_63\n      jump\t// in\n    tag_94:\n      swap3\n      pop\n      pop\n      dup2\n      swap1\n      sstore\n      pop\n        /* \"contracts/Lend.sol\":1129:1139  msg.sender */\n      caller\n        /* \"contracts/Lend.sol\":1117:1151  DepositMade(msg.sender, msg.value) */\n      0xffffffffffffffffffffffffffffffffffffffff\n      and\n      0xd15c9547ea5c06670c0010ce19bc32d54682a4b3801ece7f3ab0c3f17106b4bb\n        /* \"contracts/Lend.sol\":1141:1150  msg.value */\n      callvalue\n        /* \"contracts/Lend.sol\":1117:1151  DepositMade(msg.sender, msg.value) */\n      mload(0x40)\n      tag_95\n      swap2\n      swap1\n      tag_24\n      jump\t// in\n    tag_95:\n      mload(0x40)\n      dup1\n      swap2\n      sub\n      swap1\n      log2\n        /* \"contracts/Lend.sol\":941:1158  function deposit() public payable ... */\n      jump\t// out\n        /* \"contracts/Lend.sol\":2896:3235  function calculateAccruedInterest(address user) public view returns(uint256)... */\n    tag_49:\n        /* \"contracts/Lend.sol\":2964:2971  uint256 */\n      0x00\n        /* \"contracts/Lend.sol\":2987:3015  BorrowInfo memory borrowInfo */\n      dup1\n        /* \"contracts/Lend.sol\":3018:3026  borrowed */\n      0x05\n        /* \"contracts/Lend.sol\":3018:3032  borrowed[user] */\n      0x00\n        /* \"contracts/Lend.sol\":3027:3031  user */\n      dup5\n        /* \"contracts/Lend.sol\":3018:3032  borrowed[user] */\n      0xffffffffffffffffffffffffffffffffffffffff\n      and\n      0xffffffffffffffffffffffffffffffffffffffff\n      and\n      dup2\n      mstore\n      0x20\n      add\n      swap1\n      dup2\n      mstore\n      0x20\n      add\n      0x00\n      keccak256\n        /* \"contracts/Lend.sol\":2987:3032  BorrowInfo memory borrowInfo = borrowed[user] */\n      mload(0x40)\n      dup1\n      0x60\n      add\n      0x40\n      mstore\n      swap1\n      dup2\n      0x00\n      dup3\n      add\n      sload\n      dup2\n      mstore\n      0x20\n      add\n      0x01\n      dup3\n      add\n      sload\n      dup2\n      mstore\n      0x20\n      add\n      0x02\n      dup3\n      add\n      sload\n      dup2\n      mstore\n      pop\n      pop\n      swap1\n      pop\n        /* \"contracts/Lend.sol\":3042:3061  uint256 timeElapsed */\n      0x00\n        /* \"contracts/Lend.sol\":3082:3092  borrowInfo */\n      dup2\n        /* \"contracts/Lend.sol\":3082:3102  borrowInfo.startTime */\n      0x40\n      add\n      mload\n        /* \"contracts/Lend.sol\":3064:3079  block.timestamp */\n      timestamp\n        /* \"contracts/Lend.sol\":3064:3102  block.timestamp - borrowInfo.startTime */\n      tag_97\n      swap2\n      swap1\n      tag_59\n      jump\t// in\n    tag_97:\n        /* \"contracts/Lend.sol\":3042:3102  uint256 timeElapsed = block.timestamp - borrowInfo.startTime */\n      swap1\n      pop\n        /* \"contracts/Lend.sol\":3112:3135  uint256 interestAccrued */\n      0x00\n        /* \"contracts/Lend.sol\":3184:3195  timeElapsed */\n      dup2\n        /* \"contracts/Lend.sol\":3158:3168  borrowInfo */\n      dup4\n        /* \"contracts/Lend.sol\":3158:3181  borrowInfo.interestRate */\n      0x20\n      add\n      mload\n        /* \"contracts/Lend.sol\":3138:3148  borrowInfo */\n      dup5\n        /* \"contracts/Lend.sol\":3138:3155  borrowInfo.amount */\n      0x00\n      add\n      mload\n        /* \"contracts/Lend.sol\":3138:3181  borrowInfo.amount * borrowInfo.interestRate */\n      tag_98\n      swap2\n      swap1\n      tag_99\n      jump\t// in\n    tag_98:\n        /* \"contracts/Lend.sol\":3138:3195  borrowInfo.amount * borrowInfo.interestRate + timeElapsed */\n      tag_100\n      swap2\n      swap1\n      tag_63\n      jump\t// in\n    tag_100:\n        /* \"contracts/Lend.sol\":3112:3195  uint256 interestAccrued = borrowInfo.amount * borrowInfo.interestRate + timeElapsed */\n      swap1\n      pop\n        /* \"contracts/Lend.sol\":3213:3228  interestAccrued */\n      dup1\n        /* \"contracts/Lend.sol\":3205:3228  return  interestAccrued */\n      swap4\n      pop\n      pop\n      pop\n      pop\n        /* \"contracts/Lend.sol\":2896:3235  function calculateAccruedInterest(address user) public view returns(uint256)... */\n      swap2\n      swap1\n      pop\n      jump\t// out\n        /* \"@openzeppelin/contracts/security/ReentrancyGuard.sol\":2336:2623  function _nonReentrantBefore() private {... */\n    tag_53:\n        /* \"@openzeppelin/contracts/security/ReentrancyGuard.sol\":1759:1760  2 */\n      0x02\n        /* \"@openzeppelin/contracts/security/ReentrancyGuard.sol\":2468:2475  _status */\n      sload(0x00)\n        /* \"@openzeppelin/contracts/security/ReentrancyGuard.sol\":2468:2487  _status != _ENTERED */\n      sub\n        /* \"@openzeppelin/contracts/security/ReentrancyGuard.sol\":2460:2523  require(_status != _ENTERED, \"ReentrancyGuard: reentrant call\") */\n      tag_102\n      jumpi\n      mload(0x40)\n      0x08c379a000000000000000000000000000000000000000000000000000000000\n      dup2\n      mstore\n      0x04\n      add\n      tag_103\n      swap1\n      tag_104\n      jump\t// in\n    tag_103:\n      mload(0x40)\n      dup1\n      swap2\n      sub\n      swap1\n      revert\n    tag_102:\n        /* \"@openzeppelin/contracts/security/ReentrancyGuard.sol\":1759:1760  2 */\n      0x02\n        /* \"@openzeppelin/contracts/security/ReentrancyGuard.sol\":2598:2605  _status */\n      0x00\n        /* \"@openzeppelin/contracts/security/ReentrancyGuard.sol\":2598:2616  _status = _ENTERED */\n      dup2\n      swap1\n      sstore\n      pop\n        /* \"@openzeppelin/contracts/security/ReentrancyGuard.sol\":2336:2623  function _nonReentrantBefore() private {... */\n      jump\t// out\n        /* \"@openzeppelin/contracts/security/ReentrancyGuard.sol\":2629:2838  function _nonReentrantAfter() private {... */\n    tag_75:\n        /* \"@openzeppelin/contracts/security/ReentrancyGuard.sol\":1716:1717  1 */\n      0x01\n        /* \"@openzeppelin/contracts/security/ReentrancyGuard.sol\":2809:2816  _status */\n      0x00\n        /* \"@openzeppelin/contracts/security/ReentrancyGuard.sol\":2809:2831  _status = _NOT_ENTERED */\n      dup2\n      swap1\n      sstore\n      pop\n        /* \"@openzeppelin/contracts/security/ReentrancyGuard.sol\":2629:2838  function _nonReentrantAfter() private {... */\n      jump\t// out\n        /* \"#utility.yul\":88:205   */\n    tag_107:\n        /* \"#utility.yul\":197:198   */\n      0x00\n        /* \"#utility.yul\":194:195   */\n      dup1\n        /* \"#utility.yul\":187:199   */\n      revert\n        /* \"#utility.yul\":334:460   */\n    tag_109:\n        /* \"#utility.yul\":371:378   */\n      0x00\n        /* \"#utility.yul\":411:453   */\n      0xffffffffffffffffffffffffffffffffffffffff\n        /* \"#utility.yul\":404:409   */\n      dup3\n        /* \"#utility.yul\":400:454   */\n      and\n        /* \"#utility.yul\":389:454   */\n      swap1\n      pop\n        /* \"#utility.yul\":334:460   */\n      swap2\n      swap1\n      pop\n      jump\t// out\n        /* \"#utility.yul\":466:562   */\n    tag_110:\n        /* \"#utility.yul\":503:510   */\n      0x00\n        /* \"#utility.yul\":532:556   */\n      tag_139\n        /* \"#utility.yul\":550:555   */\n      dup3\n        /* \"#utility.yul\":532:556   */\n      tag_109\n      jump\t// in\n    tag_139:\n        /* \"#utility.yul\":521:556   */\n      swap1\n      pop\n        /* \"#utility.yul\":466:562   */\n      swap2\n      swap1\n      pop\n      jump\t// out\n        /* \"#utility.yul\":568:690   */\n    tag_111:\n        /* \"#utility.yul\":641:665   */\n      tag_141\n        /* \"#utility.yul\":659:664   */\n      dup2\n        /* \"#utility.yul\":641:665   */\n      tag_110\n      jump\t// in\n    tag_141:\n        /* \"#utility.yul\":634:639   */\n      dup2\n        /* \"#utility.yul\":631:666   */\n      eq\n        /* \"#utility.yul\":621:684   */\n      tag_142\n      jumpi\n        /* \"#utility.yul\":680:681   */\n      0x00\n        /* \"#utility.yul\":677:678   */\n      dup1\n        /* \"#utility.yul\":670:682   */\n      revert\n        /* \"#utility.yul\":621:684   */\n    tag_142:\n        /* \"#utility.yul\":568:690   */\n      pop\n      jump\t// out\n        /* \"#utility.yul\":696:835   */\n    tag_112:\n        /* \"#utility.yul\":742:747   */\n      0x00\n        /* \"#utility.yul\":780:786   */\n      dup2\n        /* \"#utility.yul\":767:787   */\n      calldataload\n        /* \"#utility.yul\":758:787   */\n      swap1\n      pop\n        /* \"#utility.yul\":796:829   */\n      tag_144\n        /* \"#utility.yul\":823:828   */\n      dup2\n        /* \"#utility.yul\":796:829   */\n      tag_111\n      jump\t// in\n    tag_144:\n        /* \"#utility.yul\":696:835   */\n      swap3\n      swap2\n      pop\n      pop\n      jump\t// out\n        /* \"#utility.yul\":841:1170   */\n    tag_15:\n        /* \"#utility.yul\":900:906   */\n      0x00\n        /* \"#utility.yul\":949:951   */\n      0x20\n        /* \"#utility.yul\":937:946   */\n      dup3\n        /* \"#utility.yul\":928:935   */\n      dup5\n        /* \"#utility.yul\":924:947   */\n      sub\n        /* \"#utility.yul\":920:952   */\n      slt\n        /* \"#utility.yul\":917:1036   */\n      iszero\n      tag_146\n      jumpi\n        /* \"#utility.yul\":955:1034   */\n      tag_147\n      tag_107\n      jump\t// in\n    tag_147:\n        /* \"#utility.yul\":917:1036   */\n    tag_146:\n        /* \"#utility.yul\":1075:1076   */\n      0x00\n        /* \"#utility.yul\":1100:1153   */\n      tag_148\n        /* \"#utility.yul\":1145:1152   */\n      dup5\n        /* \"#utility.yul\":1136:1142   */\n      dup3\n        /* \"#utility.yul\":1125:1134   */\n      dup6\n        /* \"#utility.yul\":1121:1143   */\n      add\n        /* \"#utility.yul\":1100:1153   */\n      tag_112\n      jump\t// in\n    tag_148:\n        /* \"#utility.yul\":1090:1153   */\n      swap2\n      pop\n        /* \"#utility.yul\":1046:1163   */\n      pop\n        /* \"#utility.yul\":841:1170   */\n      swap3\n      swap2\n      pop\n      pop\n      jump\t// out\n        /* \"#utility.yul\":1176:1253   */\n    tag_113:\n        /* \"#utility.yul\":1213:1220   */\n      0x00\n        /* \"#utility.yul\":1242:1247   */\n      dup2\n        /* \"#utility.yul\":1231:1247   */\n      swap1\n      pop\n        /* \"#utility.yul\":1176:1253   */\n      swap2\n      swap1\n      pop\n      jump\t// out\n        /* \"#utility.yul\":1259:1377   */\n    tag_114:\n        /* \"#utility.yul\":1346:1370   */\n      tag_151\n        /* \"#utility.yul\":1364:1369   */\n      dup2\n        /* \"#utility.yul\":1346:1370   */\n      tag_113\n      jump\t// in\n    tag_151:\n        /* \"#utility.yul\":1341:1344   */\n      dup3\n        /* \"#utility.yul\":1334:1371   */\n      mstore\n        /* \"#utility.yul\":1259:1377   */\n      pop\n      pop\n      jump\t// out\n        /* \"#utility.yul\":1383:1825   */\n    tag_18:\n        /* \"#utility.yul\":1532:1536   */\n      0x00\n        /* \"#utility.yul\":1570:1572   */\n      0x60\n        /* \"#utility.yul\":1559:1568   */\n      dup3\n        /* \"#utility.yul\":1555:1573   */\n      add\n        /* \"#utility.yul\":1547:1573   */\n      swap1\n      pop\n        /* \"#utility.yul\":1583:1654   */\n      tag_153\n        /* \"#utility.yul\":1651:1652   */\n      0x00\n        /* \"#utility.yul\":1640:1649   */\n      dup4\n        /* \"#utility.yul\":1636:1653   */\n      add\n        /* \"#utility.yul\":1627:1633   */\n      dup7\n        /* \"#utility.yul\":1583:1654   */\n      tag_114\n      jump\t// in\n    tag_153:\n        /* \"#utility.yul\":1664:1736   */\n      tag_154\n        /* \"#utility.yul\":1732:1734   */\n      0x20\n        /* \"#utility.yul\":1721:1730   */\n      dup4\n        /* \"#utility.yul\":1717:1735   */\n      add\n        /* \"#utility.yul\":1708:1714   */\n      dup6\n        /* \"#utility.yul\":1664:1736   */\n      tag_114\n      jump\t// in\n    tag_154:\n        /* \"#utility.yul\":1746:1818   */\n      tag_155\n        /* \"#utility.yul\":1814:1816   */\n      0x40\n        /* \"#utility.yul\":1803:1812   */\n      dup4\n        /* \"#utility.yul\":1799:1817   */\n      add\n        /* \"#utility.yul\":1790:1796   */\n      dup5\n        /* \"#utility.yul\":1746:1818   */\n      tag_114\n      jump\t// in\n    tag_155:\n        /* \"#utility.yul\":1383:1825   */\n      swap5\n      swap4\n      pop\n      pop\n      pop\n      pop\n      jump\t// out\n        /* \"#utility.yul\":1831:2053   */\n    tag_24:\n        /* \"#utility.yul\":1924:1928   */\n      0x00\n        /* \"#utility.yul\":1962:1964   */\n      0x20\n        /* \"#utility.yul\":1951:1960   */\n      dup3\n        /* \"#utility.yul\":1947:1965   */\n      add\n        /* \"#utility.yul\":1939:1965   */\n      swap1\n      pop\n        /* \"#utility.yul\":1975:2046   */\n      tag_157\n        /* \"#utility.yul\":2043:2044   */\n      0x00\n        /* \"#utility.yul\":2032:2041   */\n      dup4\n        /* \"#utility.yul\":2028:2045   */\n      add\n        /* \"#utility.yul\":2019:2025   */\n      dup5\n        /* \"#utility.yul\":1975:2046   */\n      tag_114\n      jump\t// in\n    tag_157:\n        /* \"#utility.yul\":1831:2053   */\n      swap3\n      swap2\n      pop\n      pop\n      jump\t// out\n        /* \"#utility.yul\":2059:2181   */\n    tag_115:\n        /* \"#utility.yul\":2132:2156   */\n      tag_159\n        /* \"#utility.yul\":2150:2155   */\n      dup2\n        /* \"#utility.yul\":2132:2156   */\n      tag_113\n      jump\t// in\n    tag_159:\n        /* \"#utility.yul\":2125:2130   */\n      dup2\n        /* \"#utility.yul\":2122:2157   */\n      eq\n        /* \"#utility.yul\":2112:2175   */\n      tag_160\n      jumpi\n        /* \"#utility.yul\":2171:2172   */\n      0x00\n        /* \"#utility.yul\":2168:2169   */\n      dup1\n        /* \"#utility.yul\":2161:2173   */\n      revert\n        /* \"#utility.yul\":2112:2175   */\n    tag_160:\n        /* \"#utility.yul\":2059:2181   */\n      pop\n      jump\t// out\n        /* \"#utility.yul\":2187:2326   */\n    tag_116:\n        /* \"#utility.yul\":2233:2238   */\n      0x00\n        /* \"#utility.yul\":2271:2277   */\n      dup2\n        /* \"#utility.yul\":2258:2278   */\n      calldataload\n        /* \"#utility.yul\":2249:2278   */\n      swap1\n      pop\n        /* \"#utility.yul\":2287:2320   */\n      tag_162\n        /* \"#utility.yul\":2314:2319   */\n      dup2\n        /* \"#utility.yul\":2287:2320   */\n      tag_115\n      jump\t// in\n    tag_162:\n        /* \"#utility.yul\":2187:2326   */\n      swap3\n      swap2\n      pop\n      pop\n      jump\t// out\n        /* \"#utility.yul\":2332:2661   */\n    tag_42:\n        /* \"#utility.yul\":2391:2397   */\n      0x00\n        /* \"#utility.yul\":2440:2442   */\n      0x20\n        /* \"#utility.yul\":2428:2437   */\n      dup3\n        /* \"#utility.yul\":2419:2426   */\n      dup5\n        /* \"#utility.yul\":2415:2438   */\n      sub\n        /* \"#utility.yul\":2411:2443   */\n      slt\n        /* \"#utility.yul\":2408:2527   */\n      iszero\n      tag_164\n      jumpi\n        /* \"#utility.yul\":2446:2525   */\n      tag_165\n      tag_107\n      jump\t// in\n    tag_165:\n        /* \"#utility.yul\":2408:2527   */\n    tag_164:\n        /* \"#utility.yul\":2566:2567   */\n      0x00\n        /* \"#utility.yul\":2591:2644   */\n      tag_166\n        /* \"#utility.yul\":2636:2643   */\n      dup5\n        /* \"#utility.yul\":2627:2633   */\n      dup3\n        /* \"#utility.yul\":2616:2625   */\n      dup6\n        /* \"#utility.yul\":2612:2634   */\n      add\n        /* \"#utility.yul\":2591:2644   */\n      tag_116\n      jump\t// in\n    tag_166:\n        /* \"#utility.yul\":2581:2644   */\n      swap2\n      pop\n        /* \"#utility.yul\":2537:2654   */\n      pop\n        /* \"#utility.yul\":2332:2661   */\n      swap3\n      swap2\n      pop\n      pop\n      jump\t// out\n        /* \"#utility.yul\":2667:2836   */\n    tag_117:\n        /* \"#utility.yul\":2751:2762   */\n      0x00\n        /* \"#utility.yul\":2785:2791   */\n      dup3\n        /* \"#utility.yul\":2780:2783   */\n      dup3\n        /* \"#utility.yul\":2773:2792   */\n      mstore\n        /* \"#utility.yul\":2825:2829   */\n      0x20\n        /* \"#utility.yul\":2820:2823   */\n      dup3\n        /* \"#utility.yul\":2816:2830   */\n      add\n        /* \"#utility.yul\":2801:2830   */\n      swap1\n      pop\n        /* \"#utility.yul\":2667:2836   */\n      swap3\n      swap2\n      pop\n      pop\n      jump\t// out\n        /* \"#utility.yul\":2842:3071   */\n    tag_118:\n        /* \"#utility.yul\":2982:3016   */\n      0x52657061796d656e7420616d6f756e74206d7573742062652067726561746572\n        /* \"#utility.yul\":2978:2979   */\n      0x00\n        /* \"#utility.yul\":2970:2976   */\n      dup3\n        /* \"#utility.yul\":2966:2980   */\n      add\n        /* \"#utility.yul\":2959:3017   */\n      mstore\n        /* \"#utility.yul\":3051:3063   */\n      0x207468616e207a65726f00000000000000000000000000000000000000000000\n        /* \"#utility.yul\":3046:3048   */\n      0x20\n        /* \"#utility.yul\":3038:3044   */\n      dup3\n        /* \"#utility.yul\":3034:3049   */\n      add\n        /* \"#utility.yul\":3027:3064   */\n      mstore\n        /* \"#utility.yul\":2842:3071   */\n      pop\n      jump\t// out\n        /* \"#utility.yul\":3077:3443   */\n    tag_119:\n        /* \"#utility.yul\":3219:3222   */\n      0x00\n        /* \"#utility.yul\":3240:3307   */\n      tag_170\n        /* \"#utility.yul\":3304:3306   */\n      0x2a\n        /* \"#utility.yul\":3299:3302   */\n      dup4\n        /* \"#utility.yul\":3240:3307   */\n      tag_117\n      jump\t// in\n    tag_170:\n        /* \"#utility.yul\":3233:3307   */\n      swap2\n      pop\n        /* \"#utility.yul\":3316:3409   */\n      tag_171\n        /* \"#utility.yul\":3405:3408   */\n      dup3\n        /* \"#utility.yul\":3316:3409   */\n      tag_118\n      jump\t// in\n    tag_171:\n        /* \"#utility.yul\":3434:3436   */\n      0x40\n        /* \"#utility.yul\":3429:3432   */\n      dup3\n        /* \"#utility.yul\":3425:3437   */\n      add\n        /* \"#utility.yul\":3418:3437   */\n      swap1\n      pop\n        /* \"#utility.yul\":3077:3443   */\n      swap2\n      swap1\n      pop\n      jump\t// out\n        /* \"#utility.yul\":3449:3868   */\n    tag_57:\n        /* \"#utility.yul\":3615:3619   */\n      0x00\n        /* \"#utility.yul\":3653:3655   */\n      0x20\n        /* \"#utility.yul\":3642:3651   */\n      dup3\n        /* \"#utility.yul\":3638:3656   */\n      add\n        /* \"#utility.yul\":3630:3656   */\n      swap1\n      pop\n        /* \"#utility.yul\":3702:3711   */\n      dup2\n        /* \"#utility.yul\":3696:3700   */\n      dup2\n        /* \"#utility.yul\":3692:3712   */\n      sub\n        /* \"#utility.yul\":3688:3689   */\n      0x00\n        /* \"#utility.yul\":3677:3686   */\n      dup4\n        /* \"#utility.yul\":3673:3690   */\n      add\n        /* \"#utility.yul\":3666:3713   */\n      mstore\n        /* \"#utility.yul\":3730:3861   */\n      tag_173\n        /* \"#utility.yul\":3856:3860   */\n      dup2\n        /* \"#utility.yul\":3730:3861   */\n      tag_119\n      jump\t// in\n    tag_173:\n        /* \"#utility.yul\":3722:3861   */\n      swap1\n      pop\n        /* \"#utility.yul\":3449:3868   */\n      swap2\n      swap1\n      pop\n      jump\t// out\n        /* \"#utility.yul\":3874:4054   */\n    tag_120:\n        /* \"#utility.yul\":3922:3999   */\n      0x4e487b7100000000000000000000000000000000000000000000000000000000\n        /* \"#utility.yul\":3919:3920   */\n      0x00\n        /* \"#utility.yul\":3912:4000   */\n      mstore\n        /* \"#utility.yul\":4019:4023   */\n      0x11\n        /* \"#utility.yul\":4016:4017   */\n      0x04\n        /* \"#utility.yul\":4009:4024   */\n      mstore\n        /* \"#utility.yul\":4043:4047   */\n      0x24\n        /* \"#utility.yul\":4040:4041   */\n      0x00\n        /* \"#utility.yul\":4033:4048   */\n      revert\n        /* \"#utility.yul\":4060:4254   */\n    tag_59:\n        /* \"#utility.yul\":4100:4104   */\n      0x00\n        /* \"#utility.yul\":4120:4140   */\n      tag_176\n        /* \"#utility.yul\":4138:4139   */\n      dup3\n        /* \"#utility.yul\":4120:4140   */\n      tag_113\n      jump\t// in\n    tag_176:\n        /* \"#utility.yul\":4115:4140   */\n      swap2\n      pop\n        /* \"#utility.yul\":4154:4174   */\n      tag_177\n        /* \"#utility.yul\":4172:4173   */\n      dup4\n        /* \"#utility.yul\":4154:4174   */\n      tag_113\n      jump\t// in\n    tag_177:\n        /* \"#utility.yul\":4149:4174   */\n      swap3\n      pop\n        /* \"#utility.yul\":4198:4199   */\n      dup3\n        /* \"#utility.yul\":4195:4196   */\n      dup3\n        /* \"#utility.yul\":4191:4200   */\n      sub\n        /* \"#utility.yul\":4183:4200   */\n      swap1\n      pop\n        /* \"#utility.yul\":4222:4223   */\n      dup2\n        /* \"#utility.yul\":4216:4220   */\n      dup2\n        /* \"#utility.yul\":4213:4224   */\n      gt\n        /* \"#utility.yul\":4210:4247   */\n      iszero\n      tag_178\n      jumpi\n        /* \"#utility.yul\":4227:4245   */\n      tag_179\n      tag_120\n      jump\t// in\n    tag_179:\n        /* \"#utility.yul\":4210:4247   */\n    tag_178:\n        /* \"#utility.yul\":4060:4254   */\n      swap3\n      swap2\n      pop\n      pop\n      jump\t// out\n        /* \"#utility.yul\":4260:4451   */\n    tag_63:\n        /* \"#utility.yul\":4300:4303   */\n      0x00\n        /* \"#utility.yul\":4319:4339   */\n      tag_181\n        /* \"#utility.yul\":4337:4338   */\n      dup3\n        /* \"#utility.yul\":4319:4339   */\n      tag_113\n      jump\t// in\n    tag_181:\n        /* \"#utility.yul\":4314:4339   */\n      swap2\n      pop\n        /* \"#utility.yul\":4353:4373   */\n      tag_182\n        /* \"#utility.yul\":4371:4372   */\n      dup4\n        /* \"#utility.yul\":4353:4373   */\n      tag_113\n      jump\t// in\n    tag_182:\n        /* \"#utility.yul\":4348:4373   */\n      swap3\n      pop\n        /* \"#utility.yul\":4396:4397   */\n      dup3\n        /* \"#utility.yul\":4393:4394   */\n      dup3\n        /* \"#utility.yul\":4389:4398   */\n      add\n        /* \"#utility.yul\":4382:4398   */\n      swap1\n      pop\n        /* \"#utility.yul\":4417:4420   */\n      dup1\n        /* \"#utility.yul\":4414:4415   */\n      dup3\n        /* \"#utility.yul\":4411:4421   */\n      gt\n        /* \"#utility.yul\":4408:4444   */\n      iszero\n      tag_183\n      jumpi\n        /* \"#utility.yul\":4424:4442   */\n      tag_184\n      tag_120\n      jump\t// in\n    tag_184:\n        /* \"#utility.yul\":4408:4444   */\n    tag_183:\n        /* \"#utility.yul\":4260:4451   */\n      swap3\n      swap2\n      pop\n      pop\n      jump\t// out\n        /* \"#utility.yul\":4457:4638   */\n    tag_121:\n        /* \"#utility.yul\":4597:4630   */\n      0x52657061796d656e74206578636565647320626f72726f7720616d6f756e7400\n        /* \"#utility.yul\":4593:4594   */\n      0x00\n        /* \"#utility.yul\":4585:4591   */\n      dup3\n        /* \"#utility.yul\":4581:4595   */\n      add\n        /* \"#utility.yul\":4574:4631   */\n      mstore\n        /* \"#utility.yul\":4457:4638   */\n      pop\n      jump\t// out\n        /* \"#utility.yul\":4644:5010   */\n    tag_122:\n        /* \"#utility.yul\":4786:4789   */\n      0x00\n        /* \"#utility.yul\":4807:4874   */\n      tag_187\n        /* \"#utility.yul\":4871:4873   */\n      0x1f\n        /* \"#utility.yul\":4866:4869   */\n      dup4\n        /* \"#utility.yul\":4807:4874   */\n      tag_117\n      jump\t// in\n    tag_187:\n        /* \"#utility.yul\":4800:4874   */\n      swap2\n      pop\n        /* \"#utility.yul\":4883:4976   */\n      tag_188\n        /* \"#utility.yul\":4972:4975   */\n      dup3\n        /* \"#utility.yul\":4883:4976   */\n      tag_121\n      jump\t// in\n    tag_188:\n        /* \"#utility.yul\":5001:5003   */\n      0x20\n        /* \"#utility.yul\":4996:4999   */\n      dup3\n        /* \"#utility.yul\":4992:5004   */\n      add\n        /* \"#utility.yul\":4985:5004   */\n      swap1\n      pop\n        /* \"#utility.yul\":4644:5010   */\n      swap2\n      swap1\n      pop\n      jump\t// out\n        /* \"#utility.yul\":5016:5435   */\n    tag_66:\n        /* \"#utility.yul\":5182:5186   */\n      0x00\n        /* \"#utility.yul\":5220:5222   */\n      0x20\n        /* \"#utility.yul\":5209:5218   */\n      dup3\n        /* \"#utility.yul\":5205:5223   */\n      add\n        /* \"#utility.yul\":5197:5223   */\n      swap1\n      pop\n        /* \"#utility.yul\":5269:5278   */\n      dup2\n        /* \"#utility.yul\":5263:5267   */\n      dup2\n        /* \"#utility.yul\":5259:5279   */\n      sub\n        /* \"#utility.yul\":5255:5256   */\n      0x00\n        /* \"#utility.yul\":5244:5253   */\n      dup4\n        /* \"#utility.yul\":5240:5257   */\n      add\n        /* \"#utility.yul\":5233:5280   */\n      mstore\n        /* \"#utility.yul\":5297:5428   */\n      tag_190\n        /* \"#utility.yul\":5423:5427   */\n      dup2\n        /* \"#utility.yul\":5297:5428   */\n      tag_122\n      jump\t// in\n    tag_190:\n        /* \"#utility.yul\":5289:5428   */\n      swap1\n      pop\n        /* \"#utility.yul\":5016:5435   */\n      swap2\n      swap1\n      pop\n      jump\t// out\n        /* \"#utility.yul\":5441:5667   */\n    tag_123:\n        /* \"#utility.yul\":5581:5615   */\n      0x496e73756666696369656e742066756e647320666f7220616363727565642069\n        /* \"#utility.yul\":5577:5578   */\n      0x00\n        /* \"#utility.yul\":5569:5575   */\n      dup3\n        /* \"#utility.yul\":5565:5579   */\n      add\n        /* \"#utility.yul\":5558:5616   */\n      mstore\n        /* \"#utility.yul\":5650:5659   */\n      0x6e74657265737400000000000000000000000000000000000000000000000000\n        /* \"#utility.yul\":5645:5647   */\n      0x20\n        /* \"#utility.yul\":5637:5643   */\n      dup3\n        /* \"#utility.yul\":5633:5648   */\n      add\n        /* \"#utility.yul\":5626:5660   */\n      mstore\n        /* \"#utility.yul\":5441:5667   */\n      pop\n      jump\t// out\n        /* \"#utility.yul\":5673:6039   */\n    tag_124:\n        /* \"#utility.yul\":5815:5818   */\n      0x00\n        /* \"#utility.yul\":5836:5903   */\n      tag_193\n        /* \"#utility.yul\":5900:5902   */\n      0x27\n        /* \"#utility.yul\":5895:5898   */\n      dup4\n        /* \"#utility.yul\":5836:5903   */\n      tag_117\n      jump\t// in\n    tag_193:\n        /* \"#utility.yul\":5829:5903   */\n      swap2\n      pop\n        /* \"#utility.yul\":5912:6005   */\n      tag_194\n        /* \"#utility.yul\":6001:6004   */\n      dup3\n        /* \"#utility.yul\":5912:6005   */\n      tag_123\n      jump\t// in\n    tag_194:\n        /* \"#utility.yul\":6030:6032   */\n      0x40\n        /* \"#utility.yul\":6025:6028   */\n      dup3\n        /* \"#utility.yul\":6021:6033   */\n      add\n        /* \"#utility.yul\":6014:6033   */\n      swap1\n      pop\n        /* \"#utility.yul\":5673:6039   */\n      swap2\n      swap1\n      pop\n      jump\t// out\n        /* \"#utility.yul\":6045:6464   */\n    tag_69:\n        /* \"#utility.yul\":6211:6215   */\n      0x00\n        /* \"#utility.yul\":6249:6251   */\n      0x20\n        /* \"#utility.yul\":6238:6247   */\n      dup3\n        /* \"#utility.yul\":6234:6252   */\n      add\n        /* \"#utility.yul\":6226:6252   */\n      swap1\n      pop\n        /* \"#utility.yul\":6298:6307   */\n      dup2\n        /* \"#utility.yul\":6292:6296   */\n      dup2\n        /* \"#utility.yul\":6288:6308   */\n      sub\n        /* \"#utility.yul\":6284:6285   */\n      0x00\n        /* \"#utility.yul\":6273:6282   */\n      dup4\n        /* \"#utility.yul\":6269:6286   */\n      add\n        /* \"#utility.yul\":6262:6309   */\n      mstore\n        /* \"#utility.yul\":6326:6457   */\n      tag_196\n        /* \"#utility.yul\":6452:6456   */\n      dup2\n        /* \"#utility.yul\":6326:6457   */\n      tag_124\n      jump\t// in\n    tag_196:\n        /* \"#utility.yul\":6318:6457   */\n      swap1\n      pop\n        /* \"#utility.yul\":6045:6464   */\n      swap2\n      swap1\n      pop\n      jump\t// out\n        /* \"#utility.yul\":6470:6696   */\n    tag_125:\n        /* \"#utility.yul\":6610:6644   */\n      0x426f72726f7720616d6f756e74206d7573742062652067726561746572207468\n        /* \"#utility.yul\":6606:6607   */\n      0x00\n        /* \"#utility.yul\":6598:6604   */\n      dup3\n        /* \"#utility.yul\":6594:6608   */\n      add\n        /* \"#utility.yul\":6587:6645   */\n      mstore\n        /* \"#utility.yul\":6679:6688   */\n      0x616e207a65726f00000000000000000000000000000000000000000000000000\n        /* \"#utility.yul\":6674:6676   */\n      0x20\n        /* \"#utility.yul\":6666:6672   */\n      dup3\n        /* \"#utility.yul\":6662:6677   */\n      add\n        /* \"#utility.yul\":6655:6689   */\n      mstore\n        /* \"#utility.yul\":6470:6696   */\n      pop\n      jump\t// out\n        /* \"#utility.yul\":6702:7068   */\n    tag_126:\n        /* \"#utility.yul\":6844:6847   */\n      0x00\n        /* \"#utility.yul\":6865:6932   */\n      tag_199\n        /* \"#utility.yul\":6929:6931   */\n      0x27\n        /* \"#utility.yul\":6924:6927   */\n      dup4\n        /* \"#utility.yul\":6865:6932   */\n      tag_117\n      jump\t// in\n    tag_199:\n        /* \"#utility.yul\":6858:6932   */\n      swap2\n      pop\n        /* \"#utility.yul\":6941:7034   */\n      tag_200\n        /* \"#utility.yul\":7030:7033   */\n      dup3\n        /* \"#utility.yul\":6941:7034   */\n      tag_125\n      jump\t// in\n    tag_200:\n        /* \"#utility.yul\":7059:7061   */\n      0x40\n        /* \"#utility.yul\":7054:7057   */\n      dup3\n        /* \"#utility.yul\":7050:7062   */\n      add\n        /* \"#utility.yul\":7043:7062   */\n      swap1\n      pop\n        /* \"#utility.yul\":6702:7068   */\n      swap2\n      swap1\n      pop\n      jump\t// out\n        /* \"#utility.yul\":7074:7493   */\n    tag_82:\n        /* \"#utility.yul\":7240:7244   */\n      0x00\n        /* \"#utility.yul\":7278:7280   */\n      0x20\n        /* \"#utility.yul\":7267:7276   */\n      dup3\n        /* \"#utility.yul\":7263:7281   */\n      add\n        /* \"#utility.yul\":7255:7281   */\n      swap1\n      pop\n        /* \"#utility.yul\":7327:7336   */\n      dup2\n        /* \"#utility.yul\":7321:7325   */\n      dup2\n        /* \"#utility.yul\":7317:7337   */\n      sub\n        /* \"#utility.yul\":7313:7314   */\n      0x00\n        /* \"#utility.yul\":7302:7311   */\n      dup4\n        /* \"#utility.yul\":7298:7315   */\n      add\n        /* \"#utility.yul\":7291:7338   */\n      mstore\n        /* \"#utility.yul\":7355:7486   */\n      tag_202\n        /* \"#utility.yul\":7481:7485   */\n      dup2\n        /* \"#utility.yul\":7355:7486   */\n      tag_126\n      jump\t// in\n    tag_202:\n        /* \"#utility.yul\":7347:7486   */\n      swap1\n      pop\n        /* \"#utility.yul\":7074:7493   */\n      swap2\n      swap1\n      pop\n      jump\t// out\n        /* \"#utility.yul\":7499:7722   */\n    tag_127:\n        /* \"#utility.yul\":7639:7673   */\n      0x496e73756666696369656e74206c697175696469747920666f7220626f72726f\n        /* \"#utility.yul\":7635:7636   */\n      0x00\n        /* \"#utility.yul\":7627:7633   */\n      dup3\n        /* \"#utility.yul\":7623:7637   */\n      add\n        /* \"#utility.yul\":7616:7674   */\n      mstore\n        /* \"#utility.yul\":7708:7714   */\n      0x77696e6700000000000000000000000000000000000000000000000000000000\n        /* \"#utility.yul\":7703:7705   */\n      0x20\n        /* \"#utility.yul\":7695:7701   */\n      dup3\n        /* \"#utility.yul\":7691:7706   */\n      add\n        /* \"#utility.yul\":7684:7715   */\n      mstore\n        /* \"#utility.yul\":7499:7722   */\n      pop\n      jump\t// out\n        /* \"#utility.yul\":7728:8094   */\n    tag_128:\n        /* \"#utility.yul\":7870:7873   */\n      0x00\n        /* \"#utility.yul\":7891:7958   */\n      tag_205\n        /* \"#utility.yul\":7955:7957   */\n      0x24\n        /* \"#utility.yul\":7950:7953   */\n      dup4\n        /* \"#utility.yul\":7891:7958   */\n      tag_117\n      jump\t// in\n    tag_205:\n        /* \"#utility.yul\":7884:7958   */\n      swap2\n      pop\n        /* \"#utility.yul\":7967:8060   */\n      tag_206\n        /* \"#utility.yul\":8056:8059   */\n      dup3\n        /* \"#utility.yul\":7967:8060   */\n      tag_127\n      jump\t// in\n    tag_206:\n        /* \"#utility.yul\":8085:8087   */\n      0x40\n        /* \"#utility.yul\":8080:8083   */\n      dup3\n        /* \"#utility.yul\":8076:8088   */\n      add\n        /* \"#utility.yul\":8069:8088   */\n      swap1\n      pop\n        /* \"#utility.yul\":7728:8094   */\n      swap2\n      swap1\n      pop\n      jump\t// out\n        /* \"#utility.yul\":8100:8519   */\n    tag_85:\n        /* \"#utility.yul\":8266:8270   */\n      0x00\n        /* \"#utility.yul\":8304:8306   */\n      0x20\n        /* \"#utility.yul\":8293:8302   */\n      dup3\n        /* \"#utility.yul\":8289:8307   */\n      add\n        /* \"#utility.yul\":8281:8307   */\n      swap1\n      pop\n        /* \"#utility.yul\":8353:8362   */\n      dup2\n        /* \"#utility.yul\":8347:8351   */\n      dup2\n        /* \"#utility.yul\":8343:8363   */\n      sub\n        /* \"#utility.yul\":8339:8340   */\n      0x00\n        /* \"#utility.yul\":8328:8337   */\n      dup4\n        /* \"#utility.yul\":8324:8341   */\n      add\n        /* \"#utility.yul\":8317:8364   */\n      mstore\n        /* \"#utility.yul\":8381:8512   */\n      tag_208\n        /* \"#utility.yul\":8507:8511   */\n      dup2\n        /* \"#utility.yul\":8381:8512   */\n      tag_128\n      jump\t// in\n    tag_208:\n        /* \"#utility.yul\":8373:8512   */\n      swap1\n      pop\n        /* \"#utility.yul\":8100:8519   */\n      swap2\n      swap1\n      pop\n      jump\t// out\n        /* \"#utility.yul\":8525:8752   */\n    tag_129:\n        /* \"#utility.yul\":8665:8699   */\n      0x4465706f73697420616d6f756e74206d75737420626520677265617465722074\n        /* \"#utility.yul\":8661:8662   */\n      0x00\n        /* \"#utility.yul\":8653:8659   */\n      dup3\n        /* \"#utility.yul\":8649:8663   */\n      add\n        /* \"#utility.yul\":8642:8700   */\n      mstore\n        /* \"#utility.yul\":8734:8744   */\n      0x68616e207a65726f000000000000000000000000000000000000000000000000\n        /* \"#utility.yul\":8729:8731   */\n      0x20\n        /* \"#utility.yul\":8721:8727   */\n      dup3\n        /* \"#utility.yul\":8717:8732   */\n      add\n        /* \"#utility.yul\":8710:8745   */\n      mstore\n        /* \"#utility.yul\":8525:8752   */\n      pop\n      jump\t// out\n        /* \"#utility.yul\":8758:9124   */\n    tag_130:\n        /* \"#utility.yul\":8900:8903   */\n      0x00\n        /* \"#utility.yul\":8921:8988   */\n      tag_211\n        /* \"#utility.yul\":8985:8987   */\n      0x28\n        /* \"#utility.yul\":8980:8983   */\n      dup4\n        /* \"#utility.yul\":8921:8988   */\n      tag_117\n      jump\t// in\n    tag_211:\n        /* \"#utility.yul\":8914:8988   */\n      swap2\n      pop\n        /* \"#utility.yul\":8997:9090   */\n      tag_212\n        /* \"#utility.yul\":9086:9089   */\n      dup3\n        /* \"#utility.yul\":8997:9090   */\n      tag_129\n      jump\t// in\n    tag_212:\n        /* \"#utility.yul\":9115:9117   */\n      0x40\n        /* \"#utility.yul\":9110:9113   */\n      dup3\n        /* \"#utility.yul\":9106:9118   */\n      add\n        /* \"#utility.yul\":9099:9118   */\n      swap1\n      pop\n        /* \"#utility.yul\":8758:9124   */\n      swap2\n      swap1\n      pop\n      jump\t// out\n        /* \"#utility.yul\":9130:9549   */\n    tag_93:\n        /* \"#utility.yul\":9296:9300   */\n      0x00\n        /* \"#utility.yul\":9334:9336   */\n      0x20\n        /* \"#utility.yul\":9323:9332   */\n      dup3\n        /* \"#utility.yul\":9319:9337   */\n      add\n        /* \"#utility.yul\":9311:9337   */\n      swap1\n      pop\n        /* \"#utility.yul\":9383:9392   */\n      dup2\n        /* \"#utility.yul\":9377:9381   */\n      dup2\n        /* \"#utility.yul\":9373:9393   */\n      sub\n        /* \"#utility.yul\":9369:9370   */\n      0x00\n        /* \"#utility.yul\":9358:9367   */\n      dup4\n        /* \"#utility.yul\":9354:9371   */\n      add\n        /* \"#utility.yul\":9347:9394   */\n      mstore\n        /* \"#utility.yul\":9411:9542   */\n      tag_214\n        /* \"#utility.yul\":9537:9541   */\n      dup2\n        /* \"#utility.yul\":9411:9542   */\n      tag_130\n      jump\t// in\n    tag_214:\n        /* \"#utility.yul\":9403:9542   */\n      swap1\n      pop\n        /* \"#utility.yul\":9130:9549   */\n      swap2\n      swap1\n      pop\n      jump\t// out\n        /* \"#utility.yul\":9555:9965   */\n    tag_99:\n        /* \"#utility.yul\":9595:9602   */\n      0x00\n        /* \"#utility.yul\":9618:9638   */\n      tag_216\n        /* \"#utility.yul\":9636:9637   */\n      dup3\n        /* \"#utility.yul\":9618:9638   */\n      tag_113\n      jump\t// in\n    tag_216:\n        /* \"#utility.yul\":9613:9638   */\n      swap2\n      pop\n        /* \"#utility.yul\":9652:9672   */\n      tag_217\n        /* \"#utility.yul\":9670:9671   */\n      dup4\n        /* \"#utility.yul\":9652:9672   */\n      tag_113\n      jump\t// in\n    tag_217:\n        /* \"#utility.yul\":9647:9672   */\n      swap3\n      pop\n        /* \"#utility.yul\":9707:9708   */\n      dup3\n        /* \"#utility.yul\":9704:9705   */\n      dup3\n        /* \"#utility.yul\":9700:9709   */\n      mul\n        /* \"#utility.yul\":9729:9759   */\n      tag_218\n        /* \"#utility.yul\":9747:9758   */\n      dup2\n        /* \"#utility.yul\":9729:9759   */\n      tag_113\n      jump\t// in\n    tag_218:\n        /* \"#utility.yul\":9718:9759   */\n      swap2\n      pop\n        /* \"#utility.yul\":9908:9909   */\n      dup3\n        /* \"#utility.yul\":9899:9906   */\n      dup3\n        /* \"#utility.yul\":9895:9910   */\n      div\n        /* \"#utility.yul\":9892:9893   */\n      dup5\n        /* \"#utility.yul\":9889:9911   */\n      eq\n        /* \"#utility.yul\":9869:9870   */\n      dup4\n        /* \"#utility.yul\":9862:9871   */\n      iszero\n        /* \"#utility.yul\":9842:9925   */\n      or\n        /* \"#utility.yul\":9819:9958   */\n      tag_219\n      jumpi\n        /* \"#utility.yul\":9938:9956   */\n      tag_220\n      tag_120\n      jump\t// in\n    tag_220:\n        /* \"#utility.yul\":9819:9958   */\n    tag_219:\n        /* \"#utility.yul\":9603:9965   */\n      pop\n        /* \"#utility.yul\":9555:9965   */\n      swap3\n      swap2\n      pop\n      pop\n      jump\t// out\n        /* \"#utility.yul\":9971:10152   */\n    tag_131:\n        /* \"#utility.yul\":10111:10144   */\n      0x5265656e7472616e637947756172643a207265656e7472616e742063616c6c00\n        /* \"#utility.yul\":10107:10108   */\n      0x00\n        /* \"#utility.yul\":10099:10105   */\n      dup3\n        /* \"#utility.yul\":10095:10109   */\n      add\n        /* \"#utility.yul\":10088:10145   */\n      mstore\n        /* \"#utility.yul\":9971:10152   */\n      pop\n      jump\t// out\n        /* \"#utility.yul\":10158:10524   */\n    tag_132:\n        /* \"#utility.yul\":10300:10303   */\n      0x00\n        /* \"#utility.yul\":10321:10388   */\n      tag_223\n        /* \"#utility.yul\":10385:10387   */\n      0x1f\n        /* \"#utility.yul\":10380:10383   */\n      dup4\n        /* \"#utility.yul\":10321:10388   */\n      tag_117\n      jump\t// in\n    tag_223:\n        /* \"#utility.yul\":10314:10388   */\n      swap2\n      pop\n        /* \"#utility.yul\":10397:10490   */\n      tag_224\n        /* \"#utility.yul\":10486:10489   */\n      dup3\n        /* \"#utility.yul\":10397:10490   */\n      tag_131\n      jump\t// in\n    tag_224:\n        /* \"#utility.yul\":10515:10517   */\n      0x20\n        /* \"#utility.yul\":10510:10513   */\n      dup3\n        /* \"#utility.yul\":10506:10518   */\n      add\n        /* \"#utility.yul\":10499:10518   */\n      swap1\n      pop\n        /* \"#utility.yul\":10158:10524   */\n      swap2\n      swap1\n      pop\n      jump\t// out\n        /* \"#utility.yul\":10530:10949   */\n    tag_104:\n        /* \"#utility.yul\":10696:10700   */\n      0x00\n        /* \"#utility.yul\":10734:10736   */\n      0x20\n        /* \"#utility.yul\":10723:10732   */\n      dup3\n        /* \"#utility.yul\":10719:10737   */\n      add\n        /* \"#utility.yul\":10711:10737   */\n      swap1\n      pop\n        /* \"#utility.yul\":10783:10792   */\n      dup2\n        /* \"#utility.yul\":10777:10781   */\n      dup2\n        /* \"#utility.yul\":10773:10793   */\n      sub\n        /* \"#utility.yul\":10769:10770   */\n      0x00\n        /* \"#utility.yul\":10758:10767   */\n      dup4\n        /* \"#utility.yul\":10754:10771   */\n      add\n        /* \"#utility.yul\":10747:10794   */\n      mstore\n        /* \"#utility.yul\":10811:10942   */\n      tag_226\n        /* \"#utility.yul\":10937:10941   */\n      dup2\n        /* \"#utility.yul\":10811:10942   */\n      tag_132\n      jump\t// in\n    tag_226:\n        /* \"#utility.yul\":10803:10942   */\n      swap1\n      pop\n        /* \"#utility.yul\":10530:10949   */\n      swap2\n      swap1\n      pop\n      jump\t// out\n\n    auxdata: 0xa2646970667358221220da2169123c135f2f499e73b56cfa50b6c1820f524161cb96cd0cb25fc26a28fd64736f6c63430008190033\n}\n",
				"bytecode": {
					"linkReferences": {},
					"object": "6080604052600a6001553480156013575f80fd5b5060015f81905550610e25806100285f395ff3fe608060405260043610610085575f3560e01c80634c19386c116100585780634c19386c14610149578063afd9276214610173578063c5ebeaec1461019d578063d0e30db0146101b9578063d6ef4046146101c357610085565b80630941cb3d146100895780630ba36dcd146100c7578063402d888314610103578063477348921461010d575b5f80fd5b348015610094575f80fd5b506100af60048036038101906100aa919061088f565b6101ff565b6040516100be939291906108d2565b60405180910390f35b3480156100d2575f80fd5b506100ed60048036038101906100e8919061088f565b610225565b6040516100fa9190610907565b60405180910390f35b61010b61023a565b005b348015610118575f80fd5b50610133600480360381019061012e919061088f565b61042c565b6040516101409190610907565b60405180910390f35b348015610154575f80fd5b5061015d610472565b60405161016a9190610907565b60405180910390f35b34801561017e575f80fd5b50610187610478565b6040516101949190610907565b60405180910390f35b6101b760048036038101906101b2919061094a565b61047e565b005b6101c161064e565b005b3480156101ce575f80fd5b506101e960048036038101906101e4919061088f565b610733565b6040516101f69190610907565b60405180910390f35b6005602052805f5260405f205f91509050805f0154908060010154908060020154905083565b6002602052805f5260405f205f915090505481565b6102426107db565b5f3411610284576040517f08c379a000000000000000000000000000000000000000000000000000000000815260040161027b906109f5565b60405180910390fd5b3460045f3373ffffffffffffffffffffffffffffffffffffffff1673ffffffffffffffffffffffffffffffffffffffff1681526020019081526020015f205f8282546102d09190610a40565b925050819055503460035f8282546102e89190610a40565b925050819055505f6102f933610733565b905080346103079190610a73565b60045f3373ffffffffffffffffffffffffffffffffffffffff1673ffffffffffffffffffffffffffffffffffffffff1681526020019081526020015f20541015610386576040517f08c379a000000000000000000000000000000000000000000000000000000000815260040161037d90610af0565b60405180910390fd5b803410156103c9576040517f08c379a00000000000000000000000000000000000000000000000000000000081526004016103c090610b7e565b60405180910390fd5b80341115610421573373ffffffffffffffffffffffffffffffffffffffff166108fc82346103f79190610a40565b90811502906040515f60405180830381858888f1935050505015801561041f573d5f803e3d5ffd5b505b5061042a610828565b565b5f60025f8373ffffffffffffffffffffffffffffffffffffffff1673ffffffffffffffffffffffffffffffffffffffff1681526020019081526020015f20549050919050565b60035481565b60015481565b6104866107db565b5f81116104c8576040517f08c379a00000000000000000000000000000000000000000000000000000000081526004016104bf90610c0c565b60405180910390fd5b8047101561050b576040517f08c379a000000000000000000000000000000000000000000000000000000000815260040161050290610c9a565b60405180910390fd5b8060045f3373ffffffffffffffffffffffffffffffffffffffff1673ffffffffffffffffffffffffffffffffffffffff1681526020019081526020015f205f8282546105579190610a73565b925050819055508060035f82825461056f9190610a73565b92505081905550604051806060016040528082815260200160015481526020014281525060055f3373ffffffffffffffffffffffffffffffffffffffff1673ffffffffffffffffffffffffffffffffffffffff1681526020019081526020015f205f820151815f015560208201518160010155604082015181600201559050503373ffffffffffffffffffffffffffffffffffffffff167fc4381c9c7b508979896c55381c1cb8c2aef28d753cff7661f9cd87b9a14584f8826001544260405161063b939291906108d2565b60405180910390a261064b610828565b50565b5f3411610690576040517f08c379a000000000000000000000000000000000000000000000000000000000815260040161068790610d28565b60405180910390fd5b3460025f3373ffffffffffffffffffffffffffffffffffffffff1673ffffffffffffffffffffffffffffffffffffffff1681526020019081526020015f205f8282546106dc9190610a73565b925050819055503373ffffffffffffffffffffffffffffffffffffffff167fd15c9547ea5c06670c0010ce19bc32d54682a4b3801ece7f3ab0c3f17106b4bb346040516107299190610907565b60405180910390a2565b5f8060055f8473ffffffffffffffffffffffffffffffffffffffff1673ffffffffffffffffffffffffffffffffffffffff1681526020019081526020015f206040518060600160405290815f82015481526020016001820154815260200160028201548152505090505f8160400151426107ad9190610a40565b90505f818360200151845f01516107c49190610d46565b6107ce9190610a73565b9050809350505050919050565b60025f540361081f576040517f08c379a000000000000000000000000000000000000000000000000000000000815260040161081690610dd1565b60405180910390fd5b60025f81905550565b60015f81905550565b5f80fd5b5f73ffffffffffffffffffffffffffffffffffffffff82169050919050565b5f61085e82610835565b9050919050565b61086e81610854565b8114610878575f80fd5b50565b5f8135905061088981610865565b92915050565b5f602082840312156108a4576108a3610831565b5b5f6108b18482850161087b565b91505092915050565b5f819050919050565b6108cc816108ba565b82525050565b5f6060820190506108e55f8301866108c3565b6108f260208301856108c3565b6108ff60408301846108c3565b949350505050565b5f60208201905061091a5f8301846108c3565b92915050565b610929816108ba565b8114610933575f80fd5b50565b5f8135905061094481610920565b92915050565b5f6020828403121561095f5761095e610831565b5b5f61096c84828501610936565b91505092915050565b5f82825260208201905092915050565b7f52657061796d656e7420616d6f756e74206d75737420626520677265617465725f8201527f207468616e207a65726f00000000000000000000000000000000000000000000602082015250565b5f6109df602a83610975565b91506109ea82610985565b604082019050919050565b5f6020820190508181035f830152610a0c816109d3565b9050919050565b7f4e487b71000000000000000000000000000000000000000000000000000000005f52601160045260245ffd5b5f610a4a826108ba565b9150610a55836108ba565b9250828203905081811115610a6d57610a6c610a13565b5b92915050565b5f610a7d826108ba565b9150610a88836108ba565b9250828201905080821115610aa057610a9f610a13565b5b92915050565b7f52657061796d656e74206578636565647320626f72726f7720616d6f756e74005f82015250565b5f610ada601f83610975565b9150610ae582610aa6565b602082019050919050565b5f6020820190508181035f830152610b0781610ace565b9050919050565b7f496e73756666696369656e742066756e647320666f72206163637275656420695f8201527f6e74657265737400000000000000000000000000000000000000000000000000602082015250565b5f610b68602783610975565b9150610b7382610b0e565b604082019050919050565b5f6020820190508181035f830152610b9581610b5c565b9050919050565b7f426f72726f7720616d6f756e74206d75737420626520677265617465722074685f8201527f616e207a65726f00000000000000000000000000000000000000000000000000602082015250565b5f610bf6602783610975565b9150610c0182610b9c565b604082019050919050565b5f6020820190508181035f830152610c2381610bea565b9050919050565b7f496e73756666696369656e74206c697175696469747920666f7220626f72726f5f8201527f77696e6700000000000000000000000000000000000000000000000000000000602082015250565b5f610c84602483610975565b9150610c8f82610c2a565b604082019050919050565b5f6020820190508181035f830152610cb181610c78565b9050919050565b7f4465706f73697420616d6f756e74206d757374206265206772656174657220745f8201527f68616e207a65726f000000000000000000000000000000000000000000000000602082015250565b5f610d12602883610975565b9150610d1d82610cb8565b604082019050919050565b5f6020820190508181035f830152610d3f81610d06565b9050919050565b5f610d50826108ba565b9150610d5b836108ba565b9250828202610d69816108ba565b91508282048414831517610d8057610d7f610a13565b5b5092915050565b7f5265656e7472616e637947756172643a207265656e7472616e742063616c6c005f82015250565b5f610dbb601f83610975565b9150610dc682610d87565b602082019050919050565b5f6020820190508181035f830152610de881610daf565b905091905056fea2646970667358221220da2169123c135f2f499e73b56cfa50b6c1820f524161cb96cd0cb25fc26a28fd64736f6c63430008190033",
					"opcodes": "PUSH1 0x80 PUSH1 0x40 MSTORE PUSH1 0xA PUSH1 0x1 SSTORE CALLVALUE DUP1 ISZERO PUSH1 0x13 JUMPI PUSH0 DUP1 REVERT JUMPDEST POP PUSH1 0x1 PUSH0 DUP2 SWAP1 SSTORE POP PUSH2 0xE25 DUP1 PUSH2 0x28 PUSH0 CODECOPY PUSH0 RETURN INVALID PUSH1 0x80 PUSH1 0x40 MSTORE PUSH1 0x4 CALLDATASIZE LT PUSH2 0x85 JUMPI PUSH0 CALLDATALOAD PUSH1 0xE0 SHR DUP1 PUSH4 0x4C19386C GT PUSH2 0x58 JUMPI DUP1 PUSH4 0x4C19386C EQ PUSH2 0x149 JUMPI DUP1 PUSH4 0xAFD92762 EQ PUSH2 0x173 JUMPI DUP1 PUSH4 0xC5EBEAEC EQ PUSH2 0x19D JUMPI DUP1 PUSH4 0xD0E30DB0 EQ PUSH2 0x1B9 JUMPI DUP1 PUSH4 0xD6EF4046 EQ PUSH2 0x1C3 JUMPI PUSH2 0x85 JUMP JUMPDEST DUP1 PUSH4 0x941CB3D EQ PUSH2 0x89 JUMPI DUP1 PUSH4 0xBA36DCD EQ PUSH2 0xC7 JUMPI DUP1 PUSH4 0x402D8883 EQ PUSH2 0x103 JUMPI DUP1 PUSH4 0x47734892 EQ PUSH2 0x10D JUMPI JUMPDEST PUSH0 DUP1 REVERT JUMPDEST CALLVALUE DUP1 ISZERO PUSH2 0x94 JUMPI PUSH0 DUP1 REVERT JUMPDEST POP PUSH2 0xAF PUSH1 0x4 DUP1 CALLDATASIZE SUB DUP2 ADD SWAP1 PUSH2 0xAA SWAP2 SWAP1 PUSH2 0x88F JUMP JUMPDEST PUSH2 0x1FF JUMP JUMPDEST PUSH1 0x40 MLOAD PUSH2 0xBE SWAP4 SWAP3 SWAP2 SWAP1 PUSH2 0x8D2 JUMP JUMPDEST PUSH1 0x40 MLOAD DUP1 SWAP2 SUB SWAP1 RETURN JUMPDEST CALLVALUE DUP1 ISZERO PUSH2 0xD2 JUMPI PUSH0 DUP1 REVERT JUMPDEST POP PUSH2 0xED PUSH1 0x4 DUP1 CALLDATASIZE SUB DUP2 ADD SWAP1 PUSH2 0xE8 SWAP2 SWAP1 PUSH2 0x88F JUMP JUMPDEST PUSH2 0x225 JUMP JUMPDEST PUSH1 0x40 MLOAD PUSH2 0xFA SWAP2 SWAP1 PUSH2 0x907 JUMP JUMPDEST PUSH1 0x40 MLOAD DUP1 SWAP2 SUB SWAP1 RETURN JUMPDEST PUSH2 0x10B PUSH2 0x23A JUMP JUMPDEST STOP JUMPDEST CALLVALUE DUP1 ISZERO PUSH2 0x118 JUMPI PUSH0 DUP1 REVERT JUMPDEST POP PUSH2 0x133 PUSH1 0x4 DUP1 CALLDATASIZE SUB DUP2 ADD SWAP1 PUSH2 0x12E SWAP2 SWAP1 PUSH2 0x88F JUMP JUMPDEST PUSH2 0x42C JUMP JUMPDEST PUSH1 0x40 MLOAD PUSH2 0x140 SWAP2 SWAP1 PUSH2 0x907 JUMP JUMPDEST PUSH1 0x40 MLOAD DUP1 SWAP2 SUB SWAP1 RETURN JUMPDEST CALLVALUE DUP1 ISZERO PUSH2 0x154 JUMPI PUSH0 DUP1 REVERT JUMPDEST POP PUSH2 0x15D PUSH2 0x472 JUMP JUMPDEST PUSH1 0x40 MLOAD PUSH2 0x16A SWAP2 SWAP1 PUSH2 0x907 JUMP JUMPDEST PUSH1 0x40 MLOAD DUP1 SWAP2 SUB SWAP1 RETURN JUMPDEST CALLVALUE DUP1 ISZERO PUSH2 0x17E JUMPI PUSH0 DUP1 REVERT JUMPDEST POP PUSH2 0x187 PUSH2 0x478 JUMP JUMPDEST PUSH1 0x40 MLOAD PUSH2 0x194 SWAP2 SWAP1 PUSH2 0x907 JUMP JUMPDEST PUSH1 0x40 MLOAD DUP1 SWAP2 SUB SWAP1 RETURN JUMPDEST PUSH2 0x1B7 PUSH1 0x4 DUP1 CALLDATASIZE SUB DUP2 ADD SWAP1 PUSH2 0x1B2 SWAP2 SWAP1 PUSH2 0x94A JUMP JUMPDEST PUSH2 0x47E JUMP JUMPDEST STOP JUMPDEST PUSH2 0x1C1 PUSH2 0x64E JUMP JUMPDEST STOP JUMPDEST CALLVALUE DUP1 ISZERO PUSH2 0x1CE JUMPI PUSH0 DUP1 REVERT JUMPDEST POP PUSH2 0x1E9 PUSH1 0x4 DUP1 CALLDATASIZE SUB DUP2 ADD SWAP1 PUSH2 0x1E4 SWAP2 SWAP1 PUSH2 0x88F JUMP JUMPDEST PUSH2 0x733 JUMP JUMPDEST PUSH1 0x40 MLOAD PUSH2 0x1F6 SWAP2 SWAP1 PUSH2 0x907 JUMP JUMPDEST PUSH1 0x40 MLOAD DUP1 SWAP2 SUB SWAP1 RETURN JUMPDEST PUSH1 0x5 PUSH1 0x20 MSTORE DUP1 PUSH0 MSTORE PUSH1 0x40 PUSH0 KECCAK256 PUSH0 SWAP2 POP SWAP1 POP DUP1 PUSH0 ADD SLOAD SWAP1 DUP1 PUSH1 0x1 ADD SLOAD SWAP1 DUP1 PUSH1 0x2 ADD SLOAD SWAP1 POP DUP4 JUMP JUMPDEST PUSH1 0x2 PUSH1 0x20 MSTORE DUP1 PUSH0 MSTORE PUSH1 0x40 PUSH0 KECCAK256 PUSH0 SWAP2 POP SWAP1 POP SLOAD DUP2 JUMP JUMPDEST PUSH2 0x242 PUSH2 0x7DB JUMP JUMPDEST PUSH0 CALLVALUE GT PUSH2 0x284 JUMPI PUSH1 0x40 MLOAD PUSH32 0x8C379A000000000000000000000000000000000000000000000000000000000 DUP2 MSTORE PUSH1 0x4 ADD PUSH2 0x27B SWAP1 PUSH2 0x9F5 JUMP JUMPDEST PUSH1 0x40 MLOAD DUP1 SWAP2 SUB SWAP1 REVERT JUMPDEST CALLVALUE PUSH1 0x4 PUSH0 CALLER PUSH20 0xFFFFFFFFFFFFFFFFFFFFFFFFFFFFFFFFFFFFFFFF AND PUSH20 0xFFFFFFFFFFFFFFFFFFFFFFFFFFFFFFFFFFFFFFFF AND DUP2 MSTORE PUSH1 0x20 ADD SWAP1 DUP2 MSTORE PUSH1 0x20 ADD PUSH0 KECCAK256 PUSH0 DUP3 DUP3 SLOAD PUSH2 0x2D0 SWAP2 SWAP1 PUSH2 0xA40 JUMP JUMPDEST SWAP3 POP POP DUP2 SWAP1 SSTORE POP CALLVALUE PUSH1 0x3 PUSH0 DUP3 DUP3 SLOAD PUSH2 0x2E8 SWAP2 SWAP1 PUSH2 0xA40 JUMP JUMPDEST SWAP3 POP POP DUP2 SWAP1 SSTORE POP PUSH0 PUSH2 0x2F9 CALLER PUSH2 0x733 JUMP JUMPDEST SWAP1 POP DUP1 CALLVALUE PUSH2 0x307 SWAP2 SWAP1 PUSH2 0xA73 JUMP JUMPDEST PUSH1 0x4 PUSH0 CALLER PUSH20 0xFFFFFFFFFFFFFFFFFFFFFFFFFFFFFFFFFFFFFFFF AND PUSH20 0xFFFFFFFFFFFFFFFFFFFFFFFFFFFFFFFFFFFFFFFF AND DUP2 MSTORE PUSH1 0x20 ADD SWAP1 DUP2 MSTORE PUSH1 0x20 ADD PUSH0 KECCAK256 SLOAD LT ISZERO PUSH2 0x386 JUMPI PUSH1 0x40 MLOAD PUSH32 0x8C379A000000000000000000000000000000000000000000000000000000000 DUP2 MSTORE PUSH1 0x4 ADD PUSH2 0x37D SWAP1 PUSH2 0xAF0 JUMP JUMPDEST PUSH1 0x40 MLOAD DUP1 SWAP2 SUB SWAP1 REVERT JUMPDEST DUP1 CALLVALUE LT ISZERO PUSH2 0x3C9 JUMPI PUSH1 0x40 MLOAD PUSH32 0x8C379A000000000000000000000000000000000000000000000000000000000 DUP2 MSTORE PUSH1 0x4 ADD PUSH2 0x3C0 SWAP1 PUSH2 0xB7E JUMP JUMPDEST PUSH1 0x40 MLOAD DUP1 SWAP2 SUB SWAP1 REVERT JUMPDEST DUP1 CALLVALUE GT ISZERO PUSH2 0x421 JUMPI CALLER PUSH20 0xFFFFFFFFFFFFFFFFFFFFFFFFFFFFFFFFFFFFFFFF AND PUSH2 0x8FC DUP3 CALLVALUE PUSH2 0x3F7 SWAP2 SWAP1 PUSH2 0xA40 JUMP JUMPDEST SWAP1 DUP2 ISZERO MUL SWAP1 PUSH1 0x40 MLOAD PUSH0 PUSH1 0x40 MLOAD DUP1 DUP4 SUB DUP2 DUP6 DUP9 DUP9 CALL SWAP4 POP POP POP POP ISZERO DUP1 ISZERO PUSH2 0x41F JUMPI RETURNDATASIZE PUSH0 DUP1 RETURNDATACOPY RETURNDATASIZE PUSH0 REVERT JUMPDEST POP JUMPDEST POP PUSH2 0x42A PUSH2 0x828 JUMP JUMPDEST JUMP JUMPDEST PUSH0 PUSH1 0x2 PUSH0 DUP4 PUSH20 0xFFFFFFFFFFFFFFFFFFFFFFFFFFFFFFFFFFFFFFFF AND PUSH20 0xFFFFFFFFFFFFFFFFFFFFFFFFFFFFFFFFFFFFFFFF AND DUP2 MSTORE PUSH1 0x20 ADD SWAP1 DUP2 MSTORE PUSH1 0x20 ADD PUSH0 KECCAK256 SLOAD SWAP1 POP SWAP2 SWAP1 POP JUMP JUMPDEST PUSH1 0x3 SLOAD DUP2 JUMP JUMPDEST PUSH1 0x1 SLOAD DUP2 JUMP JUMPDEST PUSH2 0x486 PUSH2 0x7DB JUMP JUMPDEST PUSH0 DUP2 GT PUSH2 0x4C8 JUMPI PUSH1 0x40 MLOAD PUSH32 0x8C379A000000000000000000000000000000000000000000000000000000000 DUP2 MSTORE PUSH1 0x4 ADD PUSH2 0x4BF SWAP1 PUSH2 0xC0C JUMP JUMPDEST PUSH1 0x40 MLOAD DUP1 SWAP2 SUB SWAP1 REVERT JUMPDEST DUP1 SELFBALANCE LT ISZERO PUSH2 0x50B JUMPI PUSH1 0x40 MLOAD PUSH32 0x8C379A000000000000000000000000000000000000000000000000000000000 DUP2 MSTORE PUSH1 0x4 ADD PUSH2 0x502 SWAP1 PUSH2 0xC9A JUMP JUMPDEST PUSH1 0x40 MLOAD DUP1 SWAP2 SUB SWAP1 REVERT JUMPDEST DUP1 PUSH1 0x4 PUSH0 CALLER PUSH20 0xFFFFFFFFFFFFFFFFFFFFFFFFFFFFFFFFFFFFFFFF AND PUSH20 0xFFFFFFFFFFFFFFFFFFFFFFFFFFFFFFFFFFFFFFFF AND DUP2 MSTORE PUSH1 0x20 ADD SWAP1 DUP2 MSTORE PUSH1 0x20 ADD PUSH0 KECCAK256 PUSH0 DUP3 DUP3 SLOAD PUSH2 0x557 SWAP2 SWAP1 PUSH2 0xA73 JUMP JUMPDEST SWAP3 POP POP DUP2 SWAP1 SSTORE POP DUP1 PUSH1 0x3 PUSH0 DUP3 DUP3 SLOAD PUSH2 0x56F SWAP2 SWAP1 PUSH2 0xA73 JUMP JUMPDEST SWAP3 POP POP DUP2 SWAP1 SSTORE POP PUSH1 0x40 MLOAD DUP1 PUSH1 0x60 ADD PUSH1 0x40 MSTORE DUP1 DUP3 DUP2 MSTORE PUSH1 0x20 ADD PUSH1 0x1 SLOAD DUP2 MSTORE PUSH1 0x20 ADD TIMESTAMP DUP2 MSTORE POP PUSH1 0x5 PUSH0 CALLER PUSH20 0xFFFFFFFFFFFFFFFFFFFFFFFFFFFFFFFFFFFFFFFF AND PUSH20 0xFFFFFFFFFFFFFFFFFFFFFFFFFFFFFFFFFFFFFFFF AND DUP2 MSTORE PUSH1 0x20 ADD SWAP1 DUP2 MSTORE PUSH1 0x20 ADD PUSH0 KECCAK256 PUSH0 DUP3 ADD MLOAD DUP2 PUSH0 ADD SSTORE PUSH1 0x20 DUP3 ADD MLOAD DUP2 PUSH1 0x1 ADD SSTORE PUSH1 0x40 DUP3 ADD MLOAD DUP2 PUSH1 0x2 ADD SSTORE SWAP1 POP POP CALLER PUSH20 0xFFFFFFFFFFFFFFFFFFFFFFFFFFFFFFFFFFFFFFFF AND PUSH32 0xC4381C9C7B508979896C55381C1CB8C2AEF28D753CFF7661F9CD87B9A14584F8 DUP3 PUSH1 0x1 SLOAD TIMESTAMP PUSH1 0x40 MLOAD PUSH2 0x63B SWAP4 SWAP3 SWAP2 SWAP1 PUSH2 0x8D2 JUMP JUMPDEST PUSH1 0x40 MLOAD DUP1 SWAP2 SUB SWAP1 LOG2 PUSH2 0x64B PUSH2 0x828 JUMP JUMPDEST POP JUMP JUMPDEST PUSH0 CALLVALUE GT PUSH2 0x690 JUMPI PUSH1 0x40 MLOAD PUSH32 0x8C379A000000000000000000000000000000000000000000000000000000000 DUP2 MSTORE PUSH1 0x4 ADD PUSH2 0x687 SWAP1 PUSH2 0xD28 JUMP JUMPDEST PUSH1 0x40 MLOAD DUP1 SWAP2 SUB SWAP1 REVERT JUMPDEST CALLVALUE PUSH1 0x2 PUSH0 CALLER PUSH20 0xFFFFFFFFFFFFFFFFFFFFFFFFFFFFFFFFFFFFFFFF AND PUSH20 0xFFFFFFFFFFFFFFFFFFFFFFFFFFFFFFFFFFFFFFFF AND DUP2 MSTORE PUSH1 0x20 ADD SWAP1 DUP2 MSTORE PUSH1 0x20 ADD PUSH0 KECCAK256 PUSH0 DUP3 DUP3 SLOAD PUSH2 0x6DC SWAP2 SWAP1 PUSH2 0xA73 JUMP JUMPDEST SWAP3 POP POP DUP2 SWAP1 SSTORE POP CALLER PUSH20 0xFFFFFFFFFFFFFFFFFFFFFFFFFFFFFFFFFFFFFFFF AND PUSH32 0xD15C9547EA5C06670C0010CE19BC32D54682A4B3801ECE7F3AB0C3F17106B4BB CALLVALUE PUSH1 0x40 MLOAD PUSH2 0x729 SWAP2 SWAP1 PUSH2 0x907 JUMP JUMPDEST PUSH1 0x40 MLOAD DUP1 SWAP2 SUB SWAP1 LOG2 JUMP JUMPDEST PUSH0 DUP1 PUSH1 0x5 PUSH0 DUP5 PUSH20 0xFFFFFFFFFFFFFFFFFFFFFFFFFFFFFFFFFFFFFFFF AND PUSH20 0xFFFFFFFFFFFFFFFFFFFFFFFFFFFFFFFFFFFFFFFF AND DUP2 MSTORE PUSH1 0x20 ADD SWAP1 DUP2 MSTORE PUSH1 0x20 ADD PUSH0 KECCAK256 PUSH1 0x40 MLOAD DUP1 PUSH1 0x60 ADD PUSH1 0x40 MSTORE SWAP1 DUP2 PUSH0 DUP3 ADD SLOAD DUP2 MSTORE PUSH1 0x20 ADD PUSH1 0x1 DUP3 ADD SLOAD DUP2 MSTORE PUSH1 0x20 ADD PUSH1 0x2 DUP3 ADD SLOAD DUP2 MSTORE POP POP SWAP1 POP PUSH0 DUP2 PUSH1 0x40 ADD MLOAD TIMESTAMP PUSH2 0x7AD SWAP2 SWAP1 PUSH2 0xA40 JUMP JUMPDEST SWAP1 POP PUSH0 DUP2 DUP4 PUSH1 0x20 ADD MLOAD DUP5 PUSH0 ADD MLOAD PUSH2 0x7C4 SWAP2 SWAP1 PUSH2 0xD46 JUMP JUMPDEST PUSH2 0x7CE SWAP2 SWAP1 PUSH2 0xA73 JUMP JUMPDEST SWAP1 POP DUP1 SWAP4 POP POP POP POP SWAP2 SWAP1 POP JUMP JUMPDEST PUSH1 0x2 PUSH0 SLOAD SUB PUSH2 0x81F JUMPI PUSH1 0x40 MLOAD PUSH32 0x8C379A000000000000000000000000000000000000000000000000000000000 DUP2 MSTORE PUSH1 0x4 ADD PUSH2 0x816 SWAP1 PUSH2 0xDD1 JUMP JUMPDEST PUSH1 0x40 MLOAD DUP1 SWAP2 SUB SWAP1 REVERT JUMPDEST PUSH1 0x2 PUSH0 DUP2 SWAP1 SSTORE POP JUMP JUMPDEST PUSH1 0x1 PUSH0 DUP2 SWAP1 SSTORE POP JUMP JUMPDEST PUSH0 DUP1 REVERT JUMPDEST PUSH0 PUSH20 0xFFFFFFFFFFFFFFFFFFFFFFFFFFFFFFFFFFFFFFFF DUP3 AND SWAP1 POP SWAP2 SWAP1 POP JUMP JUMPDEST PUSH0 PUSH2 0x85E DUP3 PUSH2 0x835 JUMP JUMPDEST SWAP1 POP SWAP2 SWAP1 POP JUMP JUMPDEST PUSH2 0x86E DUP2 PUSH2 0x854 JUMP JUMPDEST DUP2 EQ PUSH2 0x878 JUMPI PUSH0 DUP1 REVERT JUMPDEST POP JUMP JUMPDEST PUSH0 DUP2 CALLDATALOAD SWAP1 POP PUSH2 0x889 DUP2 PUSH2 0x865 JUMP JUMPDEST SWAP3 SWAP2 POP POP JUMP JUMPDEST PUSH0 PUSH1 0x20 DUP3 DUP5 SUB SLT ISZERO PUSH2 0x8A4 JUMPI PUSH2 0x8A3 PUSH2 0x831 JUMP JUMPDEST JUMPDEST PUSH0 PUSH2 0x8B1 DUP5 DUP3 DUP6 ADD PUSH2 0x87B JUMP JUMPDEST SWAP2 POP POP SWAP3 SWAP2 POP POP JUMP JUMPDEST PUSH0 DUP2 SWAP1 POP SWAP2 SWAP1 POP JUMP JUMPDEST PUSH2 0x8CC DUP2 PUSH2 0x8BA JUMP JUMPDEST DUP3 MSTORE POP POP JUMP JUMPDEST PUSH0 PUSH1 0x60 DUP3 ADD SWAP1 POP PUSH2 0x8E5 PUSH0 DUP4 ADD DUP7 PUSH2 0x8C3 JUMP JUMPDEST PUSH2 0x8F2 PUSH1 0x20 DUP4 ADD DUP6 PUSH2 0x8C3 JUMP JUMPDEST PUSH2 0x8FF PUSH1 0x40 DUP4 ADD DUP5 PUSH2 0x8C3 JUMP JUMPDEST SWAP5 SWAP4 POP POP POP POP JUMP JUMPDEST PUSH0 PUSH1 0x20 DUP3 ADD SWAP1 POP PUSH2 0x91A PUSH0 DUP4 ADD DUP5 PUSH2 0x8C3 JUMP JUMPDEST SWAP3 SWAP2 POP POP JUMP JUMPDEST PUSH2 0x929 DUP2 PUSH2 0x8BA JUMP JUMPDEST DUP2 EQ PUSH2 0x933 JUMPI PUSH0 DUP1 REVERT JUMPDEST POP JUMP JUMPDEST PUSH0 DUP2 CALLDATALOAD SWAP1 POP PUSH2 0x944 DUP2 PUSH2 0x920 JUMP JUMPDEST SWAP3 SWAP2 POP POP JUMP JUMPDEST PUSH0 PUSH1 0x20 DUP3 DUP5 SUB SLT ISZERO PUSH2 0x95F JUMPI PUSH2 0x95E PUSH2 0x831 JUMP JUMPDEST JUMPDEST PUSH0 PUSH2 0x96C DUP5 DUP3 DUP6 ADD PUSH2 0x936 JUMP JUMPDEST SWAP2 POP POP SWAP3 SWAP2 POP POP JUMP JUMPDEST PUSH0 DUP3 DUP3 MSTORE PUSH1 0x20 DUP3 ADD SWAP1 POP SWAP3 SWAP2 POP POP JUMP JUMPDEST PUSH32 0x52657061796D656E7420616D6F756E74206D7573742062652067726561746572 PUSH0 DUP3 ADD MSTORE PUSH32 0x207468616E207A65726F00000000000000000000000000000000000000000000 PUSH1 0x20 DUP3 ADD MSTORE POP JUMP JUMPDEST PUSH0 PUSH2 0x9DF PUSH1 0x2A DUP4 PUSH2 0x975 JUMP JUMPDEST SWAP2 POP PUSH2 0x9EA DUP3 PUSH2 0x985 JUMP JUMPDEST PUSH1 0x40 DUP3 ADD SWAP1 POP SWAP2 SWAP1 POP JUMP JUMPDEST PUSH0 PUSH1 0x20 DUP3 ADD SWAP1 POP DUP2 DUP2 SUB PUSH0 DUP4 ADD MSTORE PUSH2 0xA0C DUP2 PUSH2 0x9D3 JUMP JUMPDEST SWAP1 POP SWAP2 SWAP1 POP JUMP JUMPDEST PUSH32 0x4E487B7100000000000000000000000000000000000000000000000000000000 PUSH0 MSTORE PUSH1 0x11 PUSH1 0x4 MSTORE PUSH1 0x24 PUSH0 REVERT JUMPDEST PUSH0 PUSH2 0xA4A DUP3 PUSH2 0x8BA JUMP JUMPDEST SWAP2 POP PUSH2 0xA55 DUP4 PUSH2 0x8BA JUMP JUMPDEST SWAP3 POP DUP3 DUP3 SUB SWAP1 POP DUP2 DUP2 GT ISZERO PUSH2 0xA6D JUMPI PUSH2 0xA6C PUSH2 0xA13 JUMP JUMPDEST JUMPDEST SWAP3 SWAP2 POP POP JUMP JUMPDEST PUSH0 PUSH2 0xA7D DUP3 PUSH2 0x8BA JUMP JUMPDEST SWAP2 POP PUSH2 0xA88 DUP4 PUSH2 0x8BA JUMP JUMPDEST SWAP3 POP DUP3 DUP3 ADD SWAP1 POP DUP1 DUP3 GT ISZERO PUSH2 0xAA0 JUMPI PUSH2 0xA9F PUSH2 0xA13 JUMP JUMPDEST JUMPDEST SWAP3 SWAP2 POP POP JUMP JUMPDEST PUSH32 0x52657061796D656E74206578636565647320626F72726F7720616D6F756E7400 PUSH0 DUP3 ADD MSTORE POP JUMP JUMPDEST PUSH0 PUSH2 0xADA PUSH1 0x1F DUP4 PUSH2 0x975 JUMP JUMPDEST SWAP2 POP PUSH2 0xAE5 DUP3 PUSH2 0xAA6 JUMP JUMPDEST PUSH1 0x20 DUP3 ADD SWAP1 POP SWAP2 SWAP1 POP JUMP JUMPDEST PUSH0 PUSH1 0x20 DUP3 ADD SWAP1 POP DUP2 DUP2 SUB PUSH0 DUP4 ADD MSTORE PUSH2 0xB07 DUP2 PUSH2 0xACE JUMP JUMPDEST SWAP1 POP SWAP2 SWAP1 POP JUMP JUMPDEST PUSH32 0x496E73756666696369656E742066756E647320666F7220616363727565642069 PUSH0 DUP3 ADD MSTORE PUSH32 0x6E74657265737400000000000000000000000000000000000000000000000000 PUSH1 0x20 DUP3 ADD MSTORE POP JUMP JUMPDEST PUSH0 PUSH2 0xB68 PUSH1 0x27 DUP4 PUSH2 0x975 JUMP JUMPDEST SWAP2 POP PUSH2 0xB73 DUP3 PUSH2 0xB0E JUMP JUMPDEST PUSH1 0x40 DUP3 ADD SWAP1 POP SWAP2 SWAP1 POP JUMP JUMPDEST PUSH0 PUSH1 0x20 DUP3 ADD SWAP1 POP DUP2 DUP2 SUB PUSH0 DUP4 ADD MSTORE PUSH2 0xB95 DUP2 PUSH2 0xB5C JUMP JUMPDEST SWAP1 POP SWAP2 SWAP1 POP JUMP JUMPDEST PUSH32 0x426F72726F7720616D6F756E74206D7573742062652067726561746572207468 PUSH0 DUP3 ADD MSTORE PUSH32 0x616E207A65726F00000000000000000000000000000000000000000000000000 PUSH1 0x20 DUP3 ADD MSTORE POP JUMP JUMPDEST PUSH0 PUSH2 0xBF6 PUSH1 0x27 DUP4 PUSH2 0x975 JUMP JUMPDEST SWAP2 POP PUSH2 0xC01 DUP3 PUSH2 0xB9C JUMP JUMPDEST PUSH1 0x40 DUP3 ADD SWAP1 POP SWAP2 SWAP1 POP JUMP JUMPDEST PUSH0 PUSH1 0x20 DUP3 ADD SWAP1 POP DUP2 DUP2 SUB PUSH0 DUP4 ADD MSTORE PUSH2 0xC23 DUP2 PUSH2 0xBEA JUMP JUMPDEST SWAP1 POP SWAP2 SWAP1 POP JUMP JUMPDEST PUSH32 0x496E73756666696369656E74206C697175696469747920666F7220626F72726F PUSH0 DUP3 ADD MSTORE PUSH32 0x77696E6700000000000000000000000000000000000000000000000000000000 PUSH1 0x20 DUP3 ADD MSTORE POP JUMP JUMPDEST PUSH0 PUSH2 0xC84 PUSH1 0x24 DUP4 PUSH2 0x975 JUMP JUMPDEST SWAP2 POP PUSH2 0xC8F DUP3 PUSH2 0xC2A JUMP JUMPDEST PUSH1 0x40 DUP3 ADD SWAP1 POP SWAP2 SWAP1 POP JUMP JUMPDEST PUSH0 PUSH1 0x20 DUP3 ADD SWAP1 POP DUP2 DUP2 SUB PUSH0 DUP4 ADD MSTORE PUSH2 0xCB1 DUP2 PUSH2 0xC78 JUMP JUMPDEST SWAP1 POP SWAP2 SWAP1 POP JUMP JUMPDEST PUSH32 0x4465706F73697420616D6F756E74206D75737420626520677265617465722074 PUSH0 DUP3 ADD MSTORE PUSH32 0x68616E207A65726F000000000000000000000000000000000000000000000000 PUSH1 0x20 DUP3 ADD MSTORE POP JUMP JUMPDEST PUSH0 PUSH2 0xD12 PUSH1 0x28 DUP4 PUSH2 0x975 JUMP JUMPDEST SWAP2 POP PUSH2 0xD1D DUP3 PUSH2 0xCB8 JUMP JUMPDEST PUSH1 0x40 DUP3 ADD SWAP1 POP SWAP2 SWAP1 POP JUMP JUMPDEST PUSH0 PUSH1 0x20 DUP3 ADD SWAP1 POP DUP2 DUP2 SUB PUSH0 DUP4 ADD MSTORE PUSH2 0xD3F DUP2 PUSH2 0xD06 JUMP JUMPDEST SWAP1 POP SWAP2 SWAP1 POP JUMP JUMPDEST PUSH0 PUSH2 0xD50 DUP3 PUSH2 0x8BA JUMP JUMPDEST SWAP2 POP PUSH2 0xD5B DUP4 PUSH2 0x8BA JUMP JUMPDEST SWAP3 POP DUP3 DUP3 MUL PUSH2 0xD69 DUP2 PUSH2 0x8BA JUMP JUMPDEST SWAP2 POP DUP3 DUP3 DIV DUP5 EQ DUP4 ISZERO OR PUSH2 0xD80 JUMPI PUSH2 0xD7F PUSH2 0xA13 JUMP JUMPDEST JUMPDEST POP SWAP3 SWAP2 POP POP JUMP JUMPDEST PUSH32 0x5265656E7472616E637947756172643A207265656E7472616E742063616C6C00 PUSH0 DUP3 ADD MSTORE POP JUMP JUMPDEST PUSH0 PUSH2 0xDBB PUSH1 0x1F DUP4 PUSH2 0x975 JUMP JUMPDEST SWAP2 POP PUSH2 0xDC6 DUP3 PUSH2 0xD87 JUMP JUMPDEST PUSH1 0x20 DUP3 ADD SWAP1 POP SWAP2 SWAP1 POP JUMP JUMPDEST PUSH0 PUSH1 0x20 DUP3 ADD SWAP1 POP DUP2 DUP2 SUB PUSH0 DUP4 ADD MSTORE PUSH2 0xDE8 DUP2 PUSH2 0xDAF JUMP JUMPDEST SWAP1 POP SWAP2 SWAP1 POP JUMP INVALID LOG2 PUSH5 0x6970667358 0x22 SLT KECCAK256 0xDA 0x21 PUSH10 0x123C135F2F499E73B56C STATICCALL POP 0xB6 0xC1 DUP3 0xF MSTORE COINBASE PUSH2 0xCB96 0xCD 0xC 0xB2 PUSH0 0xC2 PUSH11 0x28FD64736F6C6343000819 STOP CALLER "
				},
				"gasEstimates": {
					"creation": {
						"codeDepositCost": "724200",
						"executionCost": "44977",
						"totalCost": "769177"
					},
					"external": {
						"baseInterestRate()": "2447",
						"borrow(uint256)": "infinite",
						"borrowed(address)": "infinite",
						"calculateAccruedInterest(address)": "infinite",
						"deposit()": "infinite",
						"getUserBalance(address)": "2896",
						"repay()": "infinite",
						"totalBorrowed()": "2425",
						"userDeposits(address)": "2825"
					}
				},
				"methodIdentifiers": {
					"baseInterestRate()": "afd92762",
					"borrow(uint256)": "c5ebeaec",
					"borrowed(address)": "0941cb3d",
					"calculateAccruedInterest(address)": "d6ef4046",
					"deposit()": "d0e30db0",
					"getUserBalance(address)": "47734892",
					"repay()": "402d8883",
					"totalBorrowed()": "4c19386c",
					"userDeposits(address)": "0ba36dcd"
				}
			},
			"storageLayout": {
				"storage": [
					{
						"astId": 10,
						"contract": "contracts/Lend.sol:Lend",
						"label": "_status",
						"offset": 0,
						"slot": "0",
						"type": "t_uint256"
					},
					{
						"astId": 72,
						"contract": "contracts/Lend.sol:Lend",
						"label": "baseInterestRate",
						"offset": 0,
						"slot": "1",
						"type": "t_uint256"
					},
					{
						"astId": 76,
						"contract": "contracts/Lend.sol:Lend",
						"label": "userDeposits",
						"offset": 0,
						"slot": "2",
						"type": "t_mapping(t_address,t_uint256)"
					},
					{
						"astId": 78,
						"contract": "contracts/Lend.sol:Lend",
						"label": "totalBorrowed",
						"offset": 0,
						"slot": "3",
						"type": "t_uint256"
					},
					{
						"astId": 82,
						"contract": "contracts/Lend.sol:Lend",
						"label": "userBorrow",
						"offset": 0,
						"slot": "4",
						"type": "t_mapping(t_address,t_uint256)"
					},
					{
						"astId": 94,
						"contract": "contracts/Lend.sol:Lend",
						"label": "borrowed",
						"offset": 0,
						"slot": "5",
						"type": "t_mapping(t_address,t_struct(BorrowInfo)89_storage)"
					}
				],
				"types": {
					"t_address": {
						"encoding": "inplace",
						"label": "address",
						"numberOfBytes": "20"
					},
					"t_mapping(t_address,t_struct(BorrowInfo)89_storage)": {
						"encoding": "mapping",
						"key": "t_address",
						"label": "mapping(address => struct Lend.BorrowInfo)",
						"numberOfBytes": "32",
						"value": "t_struct(BorrowInfo)89_storage"
					},
					"t_mapping(t_address,t_uint256)": {
						"encoding": "mapping",
						"key": "t_address",
						"label": "mapping(address => uint256)",
						"numberOfBytes": "32",
						"value": "t_uint256"
					},
					"t_struct(BorrowInfo)89_storage": {
						"encoding": "inplace",
						"label": "struct Lend.BorrowInfo",
						"members": [
							{
								"astId": 84,
								"contract": "contracts/Lend.sol:Lend",
								"label": "amount",
								"offset": 0,
								"slot": "0",
								"type": "t_uint256"
							},
							{
								"astId": 86,
								"contract": "contracts/Lend.sol:Lend",
								"label": "interestRate",
								"offset": 0,
								"slot": "1",
								"type": "t_uint256"
							},
							{
								"astId": 88,
								"contract": "contracts/Lend.sol:Lend",
								"label": "startTime",
								"offset": 0,
								"slot": "2",
								"type": "t_uint256"
							}
						],
						"numberOfBytes": "96"
					},
					"t_uint256": {
						"encoding": "inplace",
						"label": "uint256",
						"numberOfBytes": "32"
					}
				}
			},
			"userdoc": {
				"kind": "user",
				"methods": {},
				"version": 1
			}
		}
	}
}