{
	"contracts/LendingPool.sol": {
		"LendingPool": {
			"abi": [
				{
					"inputs": [
						{
							"internalType": "contract Escrow",
							"name": "_escrow",
							"type": "address"
						}
					],
					"stateMutability": "nonpayable",
					"type": "constructor"
				},
				{
					"anonymous": false,
					"inputs": [
						{
							"indexed": true,
							"internalType": "address",
							"name": "user",
							"type": "address"
						},
						{
							"indexed": true,
							"internalType": "address",
							"name": "token",
							"type": "address"
						},
						{
							"indexed": false,
							"internalType": "uint256",
							"name": "amount",
							"type": "uint256"
						},
						{
							"indexed": false,
							"internalType": "uint256",
							"name": "interestRate",
							"type": "uint256"
						},
						{
							"indexed": false,
							"internalType": "uint256",
							"name": "startTime",
							"type": "uint256"
						}
					],
					"name": "Borrowed",
					"type": "event"
				},
				{
					"anonymous": false,
					"inputs": [
						{
							"indexed": true,
							"internalType": "address",
							"name": "token",
							"type": "address"
						},
						{
							"indexed": true,
							"internalType": "address",
							"name": "user",
							"type": "address"
						},
						{
							"indexed": false,
							"internalType": "uint256",
							"name": "amount",
							"type": "uint256"
						}
					],
					"name": "DepositMade",
					"type": "event"
				},
				{
					"inputs": [],
					"name": "baseInterestRate",
					"outputs": [
						{
							"internalType": "uint256",
							"name": "",
							"type": "uint256"
						}
					],
					"stateMutability": "view",
					"type": "function"
				},
				{
					"inputs": [
						{
							"internalType": "address",
							"name": "token",
							"type": "address"
						},
						{
							"internalType": "uint256",
							"name": "amount",
							"type": "uint256"
						}
					],
					"name": "borrow",
					"outputs": [],
					"stateMutability": "nonpayable",
					"type": "function"
				},
				{
					"inputs": [
						{
							"internalType": "address",
							"name": "",
							"type": "address"
						},
						{
							"internalType": "address",
							"name": "",
							"type": "address"
						}
					],
					"name": "borrowedToken",
					"outputs": [
						{
							"internalType": "uint256",
							"name": "amount",
							"type": "uint256"
						},
						{
							"internalType": "uint256",
							"name": "interestRate",
							"type": "uint256"
						},
						{
							"internalType": "uint256",
							"name": "startTime",
							"type": "uint256"
						}
					],
					"stateMutability": "view",
					"type": "function"
				},
				{
					"inputs": [
						{
							"internalType": "address",
							"name": "token",
							"type": "address"
						},
						{
							"internalType": "uint256",
							"name": "totalSupply",
							"type": "uint256"
						},
						{
							"internalType": "uint256",
							"name": "totalBorrows",
							"type": "uint256"
						}
					],
					"name": "calculateInterestRate",
					"outputs": [
						{
							"internalType": "uint256",
							"name": "",
							"type": "uint256"
						}
					],
					"stateMutability": "view",
					"type": "function"
				},
				{
					"inputs": [
						{
							"internalType": "uint256",
							"name": "borrowAmount",
							"type": "uint256"
						}
					],
					"name": "calculateRequiredCollateral",
					"outputs": [
						{
							"internalType": "uint256",
							"name": "",
							"type": "uint256"
						}
					],
					"stateMutability": "pure",
					"type": "function"
				},
				{
					"inputs": [
						{
							"internalType": "address",
							"name": "",
							"type": "address"
						},
						{
							"internalType": "address",
							"name": "",
							"type": "address"
						}
					],
					"name": "collateral",
					"outputs": [
						{
							"internalType": "uint256",
							"name": "",
							"type": "uint256"
						}
					],
					"stateMutability": "view",
					"type": "function"
				},
				{
					"inputs": [
						{
							"internalType": "address",
							"name": "token",
							"type": "address"
						},
						{
							"internalType": "uint256",
							"name": "amount",
							"type": "uint256"
						}
					],
					"name": "deposit",
					"outputs": [],
					"stateMutability": "nonpayable",
					"type": "function"
				},
				{
					"inputs": [
						{
							"internalType": "address",
							"name": "token",
							"type": "address"
						},
						{
							"internalType": "address",
							"name": "borrower",
							"type": "address"
						},
						{
							"internalType": "uint256",
							"name": "amount",
							"type": "uint256"
						}
					],
					"name": "depositCollateral",
					"outputs": [],
					"stateMutability": "nonpayable",
					"type": "function"
				},
				{
					"inputs": [],
					"name": "escrow",
					"outputs": [
						{
							"internalType": "contract Escrow",
							"name": "",
							"type": "address"
						}
					],
					"stateMutability": "view",
					"type": "function"
				},
				{
					"inputs": [
						{
							"internalType": "address",
							"name": "user",
							"type": "address"
						},
						{
							"internalType": "address",
							"name": "token",
							"type": "address"
						}
					],
					"name": "getUserBalance",
					"outputs": [
						{
							"internalType": "uint256",
							"name": "",
							"type": "uint256"
						}
					],
					"stateMutability": "view",
					"type": "function"
				},
				{
					"inputs": [
						{
							"internalType": "address",
							"name": "user",
							"type": "address"
						},
						{
							"internalType": "address",
							"name": "token",
							"type": "address"
						},
						{
							"internalType": "uint256",
							"name": "borrowAmount",
							"type": "uint256"
						}
					],
					"name": "isSufficientCollateral",
					"outputs": [
						{
							"internalType": "bool",
							"name": "",
							"type": "bool"
						}
					],
					"stateMutability": "view",
					"type": "function"
				},
				{
					"inputs": [
						{
							"internalType": "address",
							"name": "token",
							"type": "address"
						},
						{
							"internalType": "uint256",
							"name": "amount",
							"type": "uint256"
						}
					],
					"name": "repay",
					"outputs": [],
					"stateMutability": "nonpayable",
					"type": "function"
				},
				{
					"inputs": [
						{
							"internalType": "uint256",
							"name": "",
							"type": "uint256"
						}
					],
					"name": "supportedTokens",
					"outputs": [
						{
							"internalType": "address",
							"name": "",
							"type": "address"
						}
					],
					"stateMutability": "view",
					"type": "function"
				},
				{
					"inputs": [
						{
							"internalType": "address",
							"name": "",
							"type": "address"
						}
					],
					"name": "totalBorrowedperToken",
					"outputs": [
						{
							"internalType": "uint256",
							"name": "",
							"type": "uint256"
						}
					],
					"stateMutability": "view",
					"type": "function"
				},
				{
					"inputs": [
						{
							"internalType": "address",
							"name": "",
							"type": "address"
						}
					],
					"name": "totalBorrowedperUser",
					"outputs": [
						{
							"internalType": "uint256",
							"name": "",
							"type": "uint256"
						}
					],
					"stateMutability": "view",
					"type": "function"
				},
				{
					"inputs": [
						{
							"internalType": "address",
							"name": "",
							"type": "address"
						},
						{
							"internalType": "address",
							"name": "",
							"type": "address"
						}
					],
					"name": "userBorrows",
					"outputs": [
						{
							"internalType": "uint256",
							"name": "",
							"type": "uint256"
						}
					],
					"stateMutability": "view",
					"type": "function"
				},
				{
					"inputs": [
						{
							"internalType": "address",
							"name": "",
							"type": "address"
						},
						{
							"internalType": "address",
							"name": "",
							"type": "address"
						}
					],
					"name": "userDeposits",
					"outputs": [
						{
							"internalType": "uint256",
							"name": "",
							"type": "uint256"
						}
					],
					"stateMutability": "view",
					"type": "function"
				},
				{
					"inputs": [
						{
							"internalType": "address",
							"name": "token",
							"type": "address"
						},
						{
							"internalType": "address",
							"name": "borrower",
							"type": "address"
						},
						{
							"internalType": "uint256",
							"name": "amount",
							"type": "uint256"
						}
					],
					"name": "withdrawCollateral",
					"outputs": [],
					"stateMutability": "nonpayable",
					"type": "function"
				}
			],
			"devdoc": {
				"kind": "dev",
				"methods": {},
				"version": 1
			},
			"evm": {
				"assembly": "    /* \"contracts/LendingPool.sol\":208:5563  contract LendingPool is ReentrancyGuard... */\n  mstore(0x40, 0x80)\n    /* \"contracts/LendingPool.sol\":290:292  10 */\n  0x0a\n    /* \"contracts/LendingPool.sol\":256:292  uint256 public baseInterestRate = 10 */\n  0x01\n  sstore\n    /* \"contracts/LendingPool.sol\":1372:1440  constructor(Escrow _escrow)... */\n  callvalue\n  dup1\n  iszero\n  tag_1\n  jumpi\n  0x00\n  dup1\n  revert\ntag_1:\n  pop\n  mload(0x40)\n  sub(codesize, bytecodeSize)\n  dup1\n  bytecodeSize\n  dup4\n  codecopy\n  dup2\n  dup2\n  add\n  0x40\n  mstore\n  dup2\n  add\n  swap1\n  tag_2\n  swap2\n  swap1\n  tag_3\n  jump\t// in\ntag_2:\n    /* \"@openzeppelin/contracts/security/ReentrancyGuard.sol\":1716:1717  1 */\n  0x01\n    /* \"@openzeppelin/contracts/security/ReentrancyGuard.sol\":1821:1828  _status */\n  0x00\n    /* \"@openzeppelin/contracts/security/ReentrancyGuard.sol\":1821:1843  _status = _NOT_ENTERED */\n  dup2\n  swap1\n  sstore\n  pop\n    /* \"contracts/LendingPool.sol\":1425:1432  _escrow */\n  dup1\n    /* \"contracts/LendingPool.sol\":1416:1422  escrow */\n  0x09\n  0x00\n    /* \"contracts/LendingPool.sol\":1416:1432  escrow = _escrow */\n  0x0100\n  exp\n  dup2\n  sload\n  dup2\n  0xffffffffffffffffffffffffffffffffffffffff\n  mul\n  not\n  and\n  swap1\n  dup4\n  0xffffffffffffffffffffffffffffffffffffffff\n  and\n  mul\n  or\n  swap1\n  sstore\n  pop\n    /* \"contracts/LendingPool.sol\":1372:1440  constructor(Escrow _escrow)... */\n  pop\n    /* \"contracts/LendingPool.sol\":208:5563  contract LendingPool is ReentrancyGuard... */\n  jump(tag_8)\n    /* \"#utility.yul\":88:205   */\ntag_10:\n    /* \"#utility.yul\":197:198   */\n  0x00\n    /* \"#utility.yul\":194:195   */\n  dup1\n    /* \"#utility.yul\":187:199   */\n  revert\n    /* \"#utility.yul\":334:460   */\ntag_12:\n    /* \"#utility.yul\":371:378   */\n  0x00\n    /* \"#utility.yul\":411:453   */\n  0xffffffffffffffffffffffffffffffffffffffff\n    /* \"#utility.yul\":404:409   */\n  dup3\n    /* \"#utility.yul\":400:454   */\n  and\n    /* \"#utility.yul\":389:454   */\n  swap1\n  pop\n    /* \"#utility.yul\":334:460   */\n  swap2\n  swap1\n  pop\n  jump\t// out\n    /* \"#utility.yul\":466:562   */\ntag_13:\n    /* \"#utility.yul\":503:510   */\n  0x00\n    /* \"#utility.yul\":532:556   */\n  tag_23\n    /* \"#utility.yul\":550:555   */\n  dup3\n    /* \"#utility.yul\":532:556   */\n  tag_12\n  jump\t// in\ntag_23:\n    /* \"#utility.yul\":521:556   */\n  swap1\n  pop\n    /* \"#utility.yul\":466:562   */\n  swap2\n  swap1\n  pop\n  jump\t// out\n    /* \"#utility.yul\":568:678   */\ntag_14:\n    /* \"#utility.yul\":619:626   */\n  0x00\n    /* \"#utility.yul\":648:672   */\n  tag_25\n    /* \"#utility.yul\":666:671   */\n  dup3\n    /* \"#utility.yul\":648:672   */\n  tag_13\n  jump\t// in\ntag_25:\n    /* \"#utility.yul\":637:672   */\n  swap1\n  pop\n    /* \"#utility.yul\":568:678   */\n  swap2\n  swap1\n  pop\n  jump\t// out\n    /* \"#utility.yul\":684:834   */\ntag_15:\n    /* \"#utility.yul\":771:809   */\n  tag_27\n    /* \"#utility.yul\":803:808   */\n  dup2\n    /* \"#utility.yul\":771:809   */\n  tag_14\n  jump\t// in\ntag_27:\n    /* \"#utility.yul\":764:769   */\n  dup2\n    /* \"#utility.yul\":761:810   */\n  eq\n    /* \"#utility.yul\":751:828   */\n  tag_28\n  jumpi\n    /* \"#utility.yul\":824:825   */\n  0x00\n    /* \"#utility.yul\":821:822   */\n  dup1\n    /* \"#utility.yul\":814:826   */\n  revert\n    /* \"#utility.yul\":751:828   */\ntag_28:\n    /* \"#utility.yul\":684:834   */\n  pop\n  jump\t// out\n    /* \"#utility.yul\":840:1011   */\ntag_16:\n    /* \"#utility.yul\":911:916   */\n  0x00\n    /* \"#utility.yul\":942:948   */\n  dup2\n    /* \"#utility.yul\":936:949   */\n  mload\n    /* \"#utility.yul\":927:949   */\n  swap1\n  pop\n    /* \"#utility.yul\":958:1005   */\n  tag_30\n    /* \"#utility.yul\":999:1004   */\n  dup2\n    /* \"#utility.yul\":958:1005   */\n  tag_15\n  jump\t// in\ntag_30:\n    /* \"#utility.yul\":840:1011   */\n  swap3\n  swap2\n  pop\n  pop\n  jump\t// out\n    /* \"#utility.yul\":1017:1396   */\ntag_3:\n    /* \"#utility.yul\":1101:1107   */\n  0x00\n    /* \"#utility.yul\":1150:1152   */\n  0x20\n    /* \"#utility.yul\":1138:1147   */\n  dup3\n    /* \"#utility.yul\":1129:1136   */\n  dup5\n    /* \"#utility.yul\":1125:1148   */\n  sub\n    /* \"#utility.yul\":1121:1153   */\n  slt\n    /* \"#utility.yul\":1118:1237   */\n  iszero\n  tag_32\n  jumpi\n    /* \"#utility.yul\":1156:1235   */\n  tag_33\n  tag_10\n  jump\t// in\ntag_33:\n    /* \"#utility.yul\":1118:1237   */\ntag_32:\n    /* \"#utility.yul\":1276:1277   */\n  0x00\n    /* \"#utility.yul\":1301:1379   */\n  tag_34\n    /* \"#utility.yul\":1371:1378   */\n  dup5\n    /* \"#utility.yul\":1362:1368   */\n  dup3\n    /* \"#utility.yul\":1351:1360   */\n  dup6\n    /* \"#utility.yul\":1347:1369   */\n  add\n    /* \"#utility.yul\":1301:1379   */\n  tag_16\n  jump\t// in\ntag_34:\n    /* \"#utility.yul\":1291:1379   */\n  swap2\n  pop\n    /* \"#utility.yul\":1247:1389   */\n  pop\n    /* \"#utility.yul\":1017:1396   */\n  swap3\n  swap2\n  pop\n  pop\n  jump\t// out\n    /* \"contracts/LendingPool.sol\":208:5563  contract LendingPool is ReentrancyGuard... */\ntag_8:\n  dataSize(sub_0)\n  dup1\n  dataOffset(sub_0)\n  0x00\n  codecopy\n  0x00\n  return\nstop\n\nsub_0: assembly {\n        /* \"contracts/LendingPool.sol\":208:5563  contract LendingPool is ReentrancyGuard... */\n      mstore(0x40, 0x80)\n      callvalue\n      dup1\n      iszero\n      tag_1\n      jumpi\n      0x00\n      dup1\n      revert\n    tag_1:\n      pop\n      jumpi(tag_2, lt(calldatasize, 0x04))\n      shr(0xe0, calldataload(0x00))\n      dup1\n      0x4b8a3529\n      gt\n      tag_21\n      jumpi\n      dup1\n      0xc6255626\n      gt\n      tag_22\n      jumpi\n      dup1\n      0xc6255626\n      eq\n      tag_16\n      jumpi\n      dup1\n      0xcc218ece\n      eq\n      tag_17\n      jumpi\n      dup1\n      0xe2fdcc17\n      eq\n      tag_18\n      jumpi\n      dup1\n      0xe80894b6\n      eq\n      tag_19\n      jumpi\n      dup1\n      0xf970c3b7\n      eq\n      tag_20\n      jumpi\n      jump(tag_2)\n    tag_22:\n      dup1\n      0x4b8a3529\n      eq\n      tag_12\n      jumpi\n      dup1\n      0x6805d6ad\n      eq\n      tag_13\n      jumpi\n      dup1\n      0x9ee7f702\n      eq\n      tag_14\n      jumpi\n      dup1\n      0xafd92762\n      eq\n      tag_15\n      jumpi\n      jump(tag_2)\n    tag_21:\n      dup1\n      0x2ae8bdfe\n      gt\n      tag_23\n      jumpi\n      dup1\n      0x2ae8bdfe\n      eq\n      tag_7\n      jumpi\n      dup1\n      0x34931b4b\n      eq\n      tag_8\n      jumpi\n      dup1\n      0x3b591d6a\n      eq\n      tag_9\n      jumpi\n      dup1\n      0x436d8039\n      eq\n      tag_10\n      jumpi\n      dup1\n      0x47e7ef24\n      eq\n      tag_11\n      jumpi\n      jump(tag_2)\n    tag_23:\n      dup1\n      0x22867d78\n      eq\n      tag_3\n      jumpi\n      dup1\n      0x234a14f9\n      eq\n      tag_4\n      jumpi\n      dup1\n      0x23d0fda1\n      eq\n      tag_5\n      jumpi\n      dup1\n      0x272d1b8e\n      eq\n      tag_6\n      jumpi\n    tag_2:\n      0x00\n      dup1\n      revert\n        /* \"contracts/LendingPool.sol\":3596:4224  function repay(address token, uint256 amount) public nonReentrant... */\n    tag_3:\n      tag_24\n      0x04\n      dup1\n      calldatasize\n      sub\n      dup2\n      add\n      swap1\n      tag_25\n      swap2\n      swap1\n      tag_26\n      jump\t// in\n    tag_25:\n      tag_27\n      jump\t// in\n    tag_24:\n      stop\n        /* \"contracts/LendingPool.sol\":525:593  mapping (address => mapping (address => uint256)) public userBorrows */\n    tag_4:\n      tag_28\n      0x04\n      dup1\n      calldatasize\n      sub\n      dup2\n      add\n      swap1\n      tag_29\n      swap2\n      swap1\n      tag_30\n      jump\t// in\n    tag_29:\n      tag_31\n      jump\t// in\n    tag_28:\n      mload(0x40)\n      tag_32\n      swap2\n      swap1\n      tag_33\n      jump\t// in\n    tag_32:\n      mload(0x40)\n      dup1\n      swap2\n      sub\n      swap1\n      return\n        /* \"contracts/LendingPool.sol\":941:996  mapping(address => uint256) public totalBorrowedperUser */\n    tag_5:\n      tag_34\n      0x04\n      dup1\n      calldatasize\n      sub\n      dup2\n      add\n      swap1\n      tag_35\n      swap2\n      swap1\n      tag_36\n      jump\t// in\n    tag_35:\n      tag_37\n      jump\t// in\n    tag_34:\n      mload(0x40)\n      tag_38\n      swap2\n      swap1\n      tag_33\n      jump\t// in\n    tag_38:\n      mload(0x40)\n      dup1\n      swap2\n      sub\n      swap1\n      return\n        /* \"contracts/LendingPool.sol\":1209:1280  mapping(address => mapping(address => BorrowInfo)) public borrowedToken */\n    tag_6:\n      tag_39\n      0x04\n      dup1\n      calldatasize\n      sub\n      dup2\n      add\n      swap1\n      tag_40\n      swap2\n      swap1\n      tag_30\n      jump\t// in\n    tag_40:\n      tag_41\n      jump\t// in\n    tag_39:\n      mload(0x40)\n      tag_42\n      swap4\n      swap3\n      swap2\n      swap1\n      tag_43\n      jump\t// in\n    tag_42:\n      mload(0x40)\n      dup1\n      swap2\n      sub\n      swap1\n      return\n        /* \"contracts/LendingPool.sol\":5235:5321  function withdrawCollateral(address token, address borrower, uint256 amount) public {} */\n    tag_7:\n      tag_44\n      0x04\n      dup1\n      calldatasize\n      sub\n      dup2\n      add\n      swap1\n      tag_45\n      swap2\n      swap1\n      tag_46\n      jump\t// in\n    tag_45:\n      tag_47\n      jump\t// in\n    tag_44:\n      stop\n        /* \"contracts/LendingPool.sol\":4938:5199  function calculateRequiredCollateral(uint256 borrowAmount) public pure returns(uint256)... */\n    tag_8:\n      tag_48\n      0x04\n      dup1\n      calldatasize\n      sub\n      dup2\n      add\n      swap1\n      tag_49\n      swap2\n      swap1\n      tag_50\n      jump\t// in\n    tag_49:\n      tag_51\n      jump\t// in\n    tag_48:\n      mload(0x40)\n      tag_52\n      swap2\n      swap1\n      tag_33\n      jump\t// in\n    tag_52:\n      mload(0x40)\n      dup1\n      swap2\n      sub\n      swap1\n      return\n        /* \"contracts/LendingPool.sol\":4605:4930  function isSufficientCollateral(address user, address token, uint256 borrowAmount) public view returns(bool)... */\n    tag_9:\n      tag_53\n      0x04\n      dup1\n      calldatasize\n      sub\n      dup2\n      add\n      swap1\n      tag_54\n      swap2\n      swap1\n      tag_46\n      jump\t// in\n    tag_54:\n      tag_55\n      jump\t// in\n    tag_53:\n      mload(0x40)\n      tag_56\n      swap2\n      swap1\n      tag_57\n      jump\t// in\n    tag_56:\n      mload(0x40)\n      dup1\n      swap2\n      sub\n      swap1\n      return\n        /* \"contracts/LendingPool.sol\":337:405  mapping (address => mapping(address => uint256)) public userDeposits */\n    tag_10:\n      tag_58\n      0x04\n      dup1\n      calldatasize\n      sub\n      dup2\n      add\n      swap1\n      tag_59\n      swap2\n      swap1\n      tag_30\n      jump\t// in\n    tag_59:\n      tag_60\n      jump\t// in\n    tag_58:\n      mload(0x40)\n      tag_61\n      swap2\n      swap1\n      tag_33\n      jump\t// in\n    tag_61:\n      mload(0x40)\n      dup1\n      swap2\n      sub\n      swap1\n      return\n        /* \"contracts/LendingPool.sol\":1716:2087  function deposit(address token, uint256 amount) public... */\n    tag_11:\n      tag_62\n      0x04\n      dup1\n      calldatasize\n      sub\n      dup2\n      add\n      swap1\n      tag_63\n      swap2\n      swap1\n      tag_26\n      jump\t// in\n    tag_63:\n      tag_64\n      jump\t// in\n    tag_62:\n      stop\n        /* \"contracts/LendingPool.sol\":2406:3588  function borrow(address token, uint256 amount) public nonReentrant... */\n    tag_12:\n      tag_65\n      0x04\n      dup1\n      calldatasize\n      sub\n      dup2\n      add\n      swap1\n      tag_66\n      swap2\n      swap1\n      tag_26\n      jump\t// in\n    tag_66:\n      tag_67\n      jump\t// in\n    tag_65:\n      stop\n        /* \"contracts/LendingPool.sol\":2160:2345  function getUserBalance(address user, address token) public view returns(uint256)... */\n    tag_13:\n      tag_68\n      0x04\n      dup1\n      calldatasize\n      sub\n      dup2\n      add\n      swap1\n      tag_69\n      swap2\n      swap1\n      tag_30\n      jump\t// in\n    tag_69:\n      tag_70\n      jump\t// in\n    tag_68:\n      mload(0x40)\n      tag_71\n      swap2\n      swap1\n      tag_33\n      jump\t// in\n    tag_71:\n      mload(0x40)\n      dup1\n      swap2\n      sub\n      swap1\n      return\n        /* \"contracts/LendingPool.sol\":5329:5554  function calculateInterestRate(address token, uint256 totalSupply, uint256 totalBorrows) public view returns (uint256) {... */\n    tag_14:\n      tag_72\n      0x04\n      dup1\n      calldatasize\n      sub\n      dup2\n      add\n      swap1\n      tag_73\n      swap2\n      swap1\n      tag_74\n      jump\t// in\n    tag_73:\n      tag_75\n      jump\t// in\n    tag_72:\n      mload(0x40)\n      tag_76\n      swap2\n      swap1\n      tag_33\n      jump\t// in\n    tag_76:\n      mload(0x40)\n      dup1\n      swap2\n      sub\n      swap1\n      return\n        /* \"contracts/LendingPool.sol\":256:292  uint256 public baseInterestRate = 10 */\n    tag_15:\n      tag_77\n      tag_78\n      jump\t// in\n    tag_77:\n      mload(0x40)\n      tag_79\n      swap2\n      swap1\n      tag_33\n      jump\t// in\n    tag_79:\n      mload(0x40)\n      dup1\n      swap2\n      sub\n      swap1\n      return\n        /* \"contracts/LendingPool.sol\":455:487  address[] public supportedTokens */\n    tag_16:\n      tag_80\n      0x04\n      dup1\n      calldatasize\n      sub\n      dup2\n      add\n      swap1\n      tag_81\n      swap2\n      swap1\n      tag_50\n      jump\t// in\n    tag_81:\n      tag_82\n      jump\t// in\n    tag_80:\n      mload(0x40)\n      tag_83\n      swap2\n      swap1\n      tag_84\n      jump\t// in\n    tag_83:\n      mload(0x40)\n      dup1\n      swap2\n      sub\n      swap1\n      return\n        /* \"contracts/LendingPool.sol\":689:754  mapping(address => mapping(address => uint256)) public collateral */\n    tag_17:\n      tag_85\n      0x04\n      dup1\n      calldatasize\n      sub\n      dup2\n      add\n      swap1\n      tag_86\n      swap2\n      swap1\n      tag_30\n      jump\t// in\n    tag_86:\n      tag_87\n      jump\t// in\n    tag_85:\n      mload(0x40)\n      tag_88\n      swap2\n      swap1\n      tag_33\n      jump\t// in\n    tag_88:\n      mload(0x40)\n      dup1\n      swap2\n      sub\n      swap1\n      return\n        /* \"contracts/LendingPool.sol\":1339:1359  Escrow public escrow */\n    tag_18:\n      tag_89\n      tag_90\n      jump\t// in\n    tag_89:\n      mload(0x40)\n      tag_91\n      swap2\n      swap1\n      tag_92\n      jump\t// in\n    tag_91:\n      mload(0x40)\n      dup1\n      swap2\n      sub\n      swap1\n      return\n        /* \"contracts/LendingPool.sol\":845:901  mapping(address => uint256) public totalBorrowedperToken */\n    tag_19:\n      tag_93\n      0x04\n      dup1\n      calldatasize\n      sub\n      dup2\n      add\n      swap1\n      tag_94\n      swap2\n      swap1\n      tag_36\n      jump\t// in\n    tag_94:\n      tag_95\n      jump\t// in\n    tag_93:\n      mload(0x40)\n      tag_96\n      swap2\n      swap1\n      tag_33\n      jump\t// in\n    tag_96:\n      mload(0x40)\n      dup1\n      swap2\n      sub\n      swap1\n      return\n        /* \"contracts/LendingPool.sol\":4513:4597  function depositCollateral(address token, address borrower, uint256 amount) public{} */\n    tag_20:\n      tag_97\n      0x04\n      dup1\n      calldatasize\n      sub\n      dup2\n      add\n      swap1\n      tag_98\n      swap2\n      swap1\n      tag_46\n      jump\t// in\n    tag_98:\n      tag_99\n      jump\t// in\n    tag_97:\n      stop\n        /* \"contracts/LendingPool.sol\":3596:4224  function repay(address token, uint256 amount) public nonReentrant... */\n    tag_27:\n        /* \"@openzeppelin/contracts/security/ReentrancyGuard.sol\":2261:2282  _nonReentrantBefore() */\n      tag_101\n        /* \"@openzeppelin/contracts/security/ReentrancyGuard.sol\":2261:2280  _nonReentrantBefore */\n      tag_102\n        /* \"@openzeppelin/contracts/security/ReentrancyGuard.sol\":2261:2282  _nonReentrantBefore() */\n      jump\t// in\n    tag_101:\n        /* \"contracts/LendingPool.sol\":3695:3696  0 */\n      0x00\n        /* \"contracts/LendingPool.sol\":3686:3692  amount */\n      dup2\n        /* \"contracts/LendingPool.sol\":3686:3696  amount > 0 */\n      gt\n        /* \"contracts/LendingPool.sol\":3678:3743  require(amount > 0, \"Repayment amount must be greater than zero\") */\n      tag_104\n      jumpi\n      mload(0x40)\n      0x08c379a000000000000000000000000000000000000000000000000000000000\n      dup2\n      mstore\n      0x04\n      add\n      tag_105\n      swap1\n      tag_106\n      jump\t// in\n    tag_105:\n      mload(0x40)\n      dup1\n      swap2\n      sub\n      swap1\n      revert\n    tag_104:\n        /* \"contracts/LendingPool.sol\":3850:3856  amount */\n      dup1\n        /* \"contracts/LendingPool.sol\":3816:3827  userBorrows */\n      0x04\n        /* \"contracts/LendingPool.sol\":3816:3834  userBorrows[token] */\n      0x00\n        /* \"contracts/LendingPool.sol\":3828:3833  token */\n      dup5\n        /* \"contracts/LendingPool.sol\":3816:3834  userBorrows[token] */\n      0xffffffffffffffffffffffffffffffffffffffff\n      and\n      0xffffffffffffffffffffffffffffffffffffffff\n      and\n      dup2\n      mstore\n      0x20\n      add\n      swap1\n      dup2\n      mstore\n      0x20\n      add\n      0x00\n      keccak256\n        /* \"contracts/LendingPool.sol\":3816:3846  userBorrows[token][msg.sender] */\n      0x00\n        /* \"contracts/LendingPool.sol\":3835:3845  msg.sender */\n      caller\n        /* \"contracts/LendingPool.sol\":3816:3846  userBorrows[token][msg.sender] */\n      0xffffffffffffffffffffffffffffffffffffffff\n      and\n      0xffffffffffffffffffffffffffffffffffffffff\n      and\n      dup2\n      mstore\n      0x20\n      add\n      swap1\n      dup2\n      mstore\n      0x20\n      add\n      0x00\n      keccak256\n      0x00\n        /* \"contracts/LendingPool.sol\":3816:3856  userBorrows[token][msg.sender] -= amount */\n      dup3\n      dup3\n      sload\n      tag_107\n      swap2\n      swap1\n      tag_108\n      jump\t// in\n    tag_107:\n      swap3\n      pop\n      pop\n      dup2\n      swap1\n      sstore\n      pop\n        /* \"contracts/LendingPool.sol\":3899:3905  amount */\n      dup1\n        /* \"contracts/LendingPool.sol\":3867:3888  totalBorrowedperToken */\n      0x06\n        /* \"contracts/LendingPool.sol\":3867:3895  totalBorrowedperToken[token] */\n      0x00\n        /* \"contracts/LendingPool.sol\":3889:3894  token */\n      dup5\n        /* \"contracts/LendingPool.sol\":3867:3895  totalBorrowedperToken[token] */\n      0xffffffffffffffffffffffffffffffffffffffff\n      and\n      0xffffffffffffffffffffffffffffffffffffffff\n      and\n      dup2\n      mstore\n      0x20\n      add\n      swap1\n      dup2\n      mstore\n      0x20\n      add\n      0x00\n      keccak256\n      0x00\n        /* \"contracts/LendingPool.sol\":3867:3905  totalBorrowedperToken[token] -= amount */\n      dup3\n      dup3\n      sload\n      tag_109\n      swap2\n      swap1\n      tag_108\n      jump\t// in\n    tag_109:\n      swap3\n      pop\n      pop\n      dup2\n      swap1\n      sstore\n      pop\n        /* \"contracts/LendingPool.sol\":3952:3958  amount */\n      dup1\n        /* \"contracts/LendingPool.sol\":3916:3936  totalBorrowedperUser */\n      0x07\n        /* \"contracts/LendingPool.sol\":3916:3948  totalBorrowedperUser[msg.sender] */\n      0x00\n        /* \"contracts/LendingPool.sol\":3937:3947  msg.sender */\n      caller\n        /* \"contracts/LendingPool.sol\":3916:3948  totalBorrowedperUser[msg.sender] */\n      0xffffffffffffffffffffffffffffffffffffffff\n      and\n      0xffffffffffffffffffffffffffffffffffffffff\n      and\n      dup2\n      mstore\n      0x20\n      add\n      swap1\n      dup2\n      mstore\n      0x20\n      add\n      0x00\n      keccak256\n      0x00\n        /* \"contracts/LendingPool.sol\":3916:3958  totalBorrowedperUser[msg.sender] -= amount */\n      dup3\n      dup3\n      sload\n      tag_110\n      swap2\n      swap1\n      tag_108\n      jump\t// in\n    tag_110:\n      swap3\n      pop\n      pop\n      dup2\n      swap1\n      sstore\n      pop\n        /* \"contracts/LendingPool.sol\":4010:4033  uint256 accruedInterest */\n      0x00\n        /* \"contracts/LendingPool.sol\":4036:4079  calculateAccruedInterest(token, msg.sender) */\n      tag_111\n        /* \"contracts/LendingPool.sol\":4061:4066  token */\n      dup4\n        /* \"contracts/LendingPool.sol\":4068:4078  msg.sender */\n      caller\n        /* \"contracts/LendingPool.sol\":4036:4060  calculateAccruedInterest */\n      tag_112\n        /* \"contracts/LendingPool.sol\":4036:4079  calculateAccruedInterest(token, msg.sender) */\n      jump\t// in\n    tag_111:\n        /* \"contracts/LendingPool.sol\":4010:4079  uint256 accruedInterest = calculateAccruedInterest(token, msg.sender) */\n      swap1\n      pop\n        /* \"contracts/LendingPool.sol\":4167:4173  amount */\n      dup2\n        /* \"contracts/LendingPool.sol\":4133:4144  userBorrows */\n      0x04\n        /* \"contracts/LendingPool.sol\":4133:4151  userBorrows[token] */\n      0x00\n        /* \"contracts/LendingPool.sol\":4145:4150  token */\n      dup6\n        /* \"contracts/LendingPool.sol\":4133:4151  userBorrows[token] */\n      0xffffffffffffffffffffffffffffffffffffffff\n      and\n      0xffffffffffffffffffffffffffffffffffffffff\n      and\n      dup2\n      mstore\n      0x20\n      add\n      swap1\n      dup2\n      mstore\n      0x20\n      add\n      0x00\n      keccak256\n        /* \"contracts/LendingPool.sol\":4133:4163  userBorrows[token][msg.sender] */\n      0x00\n        /* \"contracts/LendingPool.sol\":4152:4162  msg.sender */\n      caller\n        /* \"contracts/LendingPool.sol\":4133:4163  userBorrows[token][msg.sender] */\n      0xffffffffffffffffffffffffffffffffffffffff\n      and\n      0xffffffffffffffffffffffffffffffffffffffff\n      and\n      dup2\n      mstore\n      0x20\n      add\n      swap1\n      dup2\n      mstore\n      0x20\n      add\n      0x00\n      keccak256\n      sload\n        /* \"contracts/LendingPool.sol\":4133:4173  userBorrows[token][msg.sender] >= amount */\n      lt\n      iszero\n        /* \"contracts/LendingPool.sol\":4125:4216  require(userBorrows[token][msg.sender] >= amount, \"Repayment amount exceeds borrow amount\") */\n      tag_113\n      jumpi\n      mload(0x40)\n      0x08c379a000000000000000000000000000000000000000000000000000000000\n      dup2\n      mstore\n      0x04\n      add\n      tag_114\n      swap1\n      tag_115\n      jump\t// in\n    tag_114:\n      mload(0x40)\n      dup1\n      swap2\n      sub\n      swap1\n      revert\n    tag_113:\n        /* \"contracts/LendingPool.sol\":3667:4224  {... */\n      pop\n        /* \"@openzeppelin/contracts/security/ReentrancyGuard.sol\":2303:2323  _nonReentrantAfter() */\n      tag_116\n        /* \"@openzeppelin/contracts/security/ReentrancyGuard.sol\":2303:2321  _nonReentrantAfter */\n      tag_117\n        /* \"@openzeppelin/contracts/security/ReentrancyGuard.sol\":2303:2323  _nonReentrantAfter() */\n      jump\t// in\n    tag_116:\n        /* \"contracts/LendingPool.sol\":3596:4224  function repay(address token, uint256 amount) public nonReentrant... */\n      pop\n      pop\n      jump\t// out\n        /* \"contracts/LendingPool.sol\":525:593  mapping (address => mapping (address => uint256)) public userBorrows */\n    tag_31:\n      mstore(0x20, 0x04)\n      dup2\n      0x00\n      mstore\n      mstore(0x20, keccak256(0x00, 0x40))\n      dup1\n      0x00\n      mstore\n      keccak256(0x00, 0x40)\n      0x00\n      swap2\n      pop\n      swap2\n      pop\n      pop\n      sload\n      dup2\n      jump\t// out\n        /* \"contracts/LendingPool.sol\":941:996  mapping(address => uint256) public totalBorrowedperUser */\n    tag_37:\n      mstore(0x20, 0x07)\n      dup1\n      0x00\n      mstore\n      keccak256(0x00, 0x40)\n      0x00\n      swap2\n      pop\n      swap1\n      pop\n      sload\n      dup2\n      jump\t// out\n        /* \"contracts/LendingPool.sol\":1209:1280  mapping(address => mapping(address => BorrowInfo)) public borrowedToken */\n    tag_41:\n      mstore(0x20, 0x08)\n      dup2\n      0x00\n      mstore\n      mstore(0x20, keccak256(0x00, 0x40))\n      dup1\n      0x00\n      mstore\n      keccak256(0x00, 0x40)\n      0x00\n      swap2\n      pop\n      swap2\n      pop\n      pop\n      dup1\n      0x00\n      add\n      sload\n      swap1\n      dup1\n      0x01\n      add\n      sload\n      swap1\n      dup1\n      0x02\n      add\n      sload\n      swap1\n      pop\n      dup4\n      jump\t// out\n        /* \"contracts/LendingPool.sol\":5235:5321  function withdrawCollateral(address token, address borrower, uint256 amount) public {} */\n    tag_47:\n      pop\n      pop\n      pop\n      jump\t// out\n        /* \"contracts/LendingPool.sol\":4938:5199  function calculateRequiredCollateral(uint256 borrowAmount) public pure returns(uint256)... */\n    tag_51:\n        /* \"contracts/LendingPool.sol\":5017:5024  uint256 */\n      0x00\n        /* \"contracts/LendingPool.sol\":4938:5199  function calculateRequiredCollateral(uint256 borrowAmount) public pure returns(uint256)... */\n      swap2\n      swap1\n      pop\n      jump\t// out\n        /* \"contracts/LendingPool.sol\":4605:4930  function isSufficientCollateral(address user, address token, uint256 borrowAmount) public view returns(bool)... */\n    tag_55:\n        /* \"contracts/LendingPool.sol\":4708:4712  bool */\n      0x00\n        /* \"contracts/LendingPool.sol\":4730:4756  uint256 totalUserDeposists */\n      dup1\n        /* \"contracts/LendingPool.sol\":4759:4760  0 */\n      0x00\n        /* \"contracts/LendingPool.sol\":4730:4760  uint256 totalUserDeposists = 0 */\n      swap1\n      pop\n        /* \"contracts/LendingPool.sol\":4775:4784  uint256 i */\n      0x00\n        /* \"contracts/LendingPool.sol\":4771:4915  for(uint256 i=0; i<supportedTokens.length; i++)... */\n    tag_121:\n        /* \"contracts/LendingPool.sol\":4790:4805  supportedTokens */\n      0x03\n        /* \"contracts/LendingPool.sol\":4790:4812  supportedTokens.length */\n      dup1\n      sload\n      swap1\n      pop\n        /* \"contracts/LendingPool.sol\":4788:4789  i */\n      dup2\n        /* \"contracts/LendingPool.sol\":4788:4812  i<supportedTokens.length */\n      lt\n        /* \"contracts/LendingPool.sol\":4771:4915  for(uint256 i=0; i<supportedTokens.length; i++)... */\n      iszero\n      tag_122\n      jumpi\n        /* \"contracts/LendingPool.sol\":4865:4877  userDeposits */\n      0x02\n        /* \"contracts/LendingPool.sol\":4865:4897  userDeposits[supportedTokens[i]] */\n      0x00\n        /* \"contracts/LendingPool.sol\":4878:4893  supportedTokens */\n      0x03\n        /* \"contracts/LendingPool.sol\":4894:4895  i */\n      dup4\n        /* \"contracts/LendingPool.sol\":4878:4896  supportedTokens[i] */\n      dup2\n      sload\n      dup2\n      lt\n      tag_124\n      jumpi\n      tag_125\n      tag_126\n      jump\t// in\n    tag_125:\n    tag_124:\n      swap1\n      0x00\n      mstore\n      keccak256(0x00, 0x20)\n      add\n      0x00\n      swap1\n      sload\n      swap1\n      0x0100\n      exp\n      swap1\n      div\n      0xffffffffffffffffffffffffffffffffffffffff\n      and\n        /* \"contracts/LendingPool.sol\":4865:4897  userDeposits[supportedTokens[i]] */\n      0xffffffffffffffffffffffffffffffffffffffff\n      and\n      0xffffffffffffffffffffffffffffffffffffffff\n      and\n      dup2\n      mstore\n      0x20\n      add\n      swap1\n      dup2\n      mstore\n      0x20\n      add\n      0x00\n      keccak256\n        /* \"contracts/LendingPool.sol\":4865:4903  userDeposits[supportedTokens[i]][user] */\n      0x00\n        /* \"contracts/LendingPool.sol\":4898:4902  user */\n      dup8\n        /* \"contracts/LendingPool.sol\":4865:4903  userDeposits[supportedTokens[i]][user] */\n      0xffffffffffffffffffffffffffffffffffffffff\n      and\n      0xffffffffffffffffffffffffffffffffffffffff\n      and\n      dup2\n      mstore\n      0x20\n      add\n      swap1\n      dup2\n      mstore\n      0x20\n      add\n      0x00\n      keccak256\n      sload\n        /* \"contracts/LendingPool.sol\":4843:4903  totalUserDeposists += userDeposits[supportedTokens[i]][user] */\n      dup3\n      tag_128\n      swap2\n      swap1\n      tag_129\n      jump\t// in\n    tag_128:\n      swap2\n      pop\n        /* \"contracts/LendingPool.sol\":4814:4817  i++ */\n      dup1\n      dup1\n      0x01\n      add\n      swap2\n      pop\n      pop\n        /* \"contracts/LendingPool.sol\":4771:4915  for(uint256 i=0; i<supportedTokens.length; i++)... */\n      jump(tag_121)\n    tag_122:\n      pop\n        /* \"contracts/LendingPool.sol\":4719:4930  {... */\n      pop\n        /* \"contracts/LendingPool.sol\":4605:4930  function isSufficientCollateral(address user, address token, uint256 borrowAmount) public view returns(bool)... */\n      swap4\n      swap3\n      pop\n      pop\n      pop\n      jump\t// out\n        /* \"contracts/LendingPool.sol\":337:405  mapping (address => mapping(address => uint256)) public userDeposits */\n    tag_60:\n      mstore(0x20, 0x02)\n      dup2\n      0x00\n      mstore\n      mstore(0x20, keccak256(0x00, 0x40))\n      dup1\n      0x00\n      mstore\n      keccak256(0x00, 0x40)\n      0x00\n      swap2\n      pop\n      swap2\n      pop\n      pop\n      sload\n      dup2\n      jump\t// out\n        /* \"contracts/LendingPool.sol\":1716:2087  function deposit(address token, uint256 amount) public... */\n    tag_64:\n        /* \"contracts/LendingPool.sol\":1804:1805  0 */\n      0x00\n        /* \"contracts/LendingPool.sol\":1795:1801  amount */\n      dup2\n        /* \"contracts/LendingPool.sol\":1795:1805  amount > 0 */\n      gt\n        /* \"contracts/LendingPool.sol\":1787:1850  require(amount > 0, \"Deposit amount must be greater than zero\") */\n      tag_131\n      jumpi\n      mload(0x40)\n      0x08c379a000000000000000000000000000000000000000000000000000000000\n      dup2\n      mstore\n      0x04\n      add\n      tag_132\n      swap1\n      tag_133\n      jump\t// in\n    tag_132:\n      mload(0x40)\n      dup1\n      swap2\n      sub\n      swap1\n      revert\n    tag_131:\n        /* \"contracts/LendingPool.sol\":1918:1923  token */\n      dup2\n        /* \"contracts/LendingPool.sol\":1911:1937  IERC20(token).transferFrom */\n      0xffffffffffffffffffffffffffffffffffffffff\n      and\n      0x23b872dd\n        /* \"contracts/LendingPool.sol\":1938:1948  msg.sender */\n      caller\n        /* \"contracts/LendingPool.sol\":1958:1962  this */\n      address\n        /* \"contracts/LendingPool.sol\":1965:1971  amount */\n      dup5\n        /* \"contracts/LendingPool.sol\":1911:1972  IERC20(token).transferFrom(msg.sender, address(this), amount) */\n      mload(0x40)\n      dup5\n      0xffffffff\n      and\n      0xe0\n      shl\n      dup2\n      mstore\n      0x04\n      add\n      tag_134\n      swap4\n      swap3\n      swap2\n      swap1\n      tag_135\n      jump\t// in\n    tag_134:\n      0x20\n      mload(0x40)\n      dup1\n      dup4\n      sub\n      dup2\n      0x00\n      dup8\n      gas\n      call\n      iszero\n      dup1\n      iszero\n      tag_137\n      jumpi\n      returndatasize\n      0x00\n      dup1\n      returndatacopy\n      revert(0x00, returndatasize)\n    tag_137:\n      pop\n      pop\n      pop\n      pop\n      mload(0x40)\n      returndatasize\n      not(0x1f)\n      0x1f\n      dup3\n      add\n      and\n      dup3\n      add\n      dup1\n      0x40\n      mstore\n      pop\n      dup2\n      add\n      swap1\n      tag_138\n      swap2\n      swap1\n      tag_139\n      jump\t// in\n    tag_138:\n      pop\n        /* \"contracts/LendingPool.sol\":2019:2025  amount */\n      dup1\n        /* \"contracts/LendingPool.sol\":1984:1996  userDeposits */\n      0x02\n        /* \"contracts/LendingPool.sol\":1984:2003  userDeposits[token] */\n      0x00\n        /* \"contracts/LendingPool.sol\":1997:2002  token */\n      dup5\n        /* \"contracts/LendingPool.sol\":1984:2003  userDeposits[token] */\n      0xffffffffffffffffffffffffffffffffffffffff\n      and\n      0xffffffffffffffffffffffffffffffffffffffff\n      and\n      dup2\n      mstore\n      0x20\n      add\n      swap1\n      dup2\n      mstore\n      0x20\n      add\n      0x00\n      keccak256\n        /* \"contracts/LendingPool.sol\":1984:2015  userDeposits[token][msg.sender] */\n      0x00\n        /* \"contracts/LendingPool.sol\":2004:2014  msg.sender */\n      caller\n        /* \"contracts/LendingPool.sol\":1984:2015  userDeposits[token][msg.sender] */\n      0xffffffffffffffffffffffffffffffffffffffff\n      and\n      0xffffffffffffffffffffffffffffffffffffffff\n      and\n      dup2\n      mstore\n      0x20\n      add\n      swap1\n      dup2\n      mstore\n      0x20\n      add\n      0x00\n      keccak256\n      0x00\n        /* \"contracts/LendingPool.sol\":1984:2025  userDeposits[token][msg.sender] += amount */\n      dup3\n      dup3\n      sload\n      tag_140\n      swap2\n      swap1\n      tag_129\n      jump\t// in\n    tag_140:\n      swap3\n      pop\n      pop\n      dup2\n      swap1\n      sstore\n      pop\n        /* \"contracts/LendingPool.sol\":2060:2070  msg.sender */\n      caller\n        /* \"contracts/LendingPool.sol\":2041:2079  DepositMade(token, msg.sender, amount) */\n      0xffffffffffffffffffffffffffffffffffffffff\n      and\n        /* \"contracts/LendingPool.sol\":2053:2058  token */\n      dup3\n        /* \"contracts/LendingPool.sol\":2041:2079  DepositMade(token, msg.sender, amount) */\n      0xffffffffffffffffffffffffffffffffffffffff\n      and\n      0x1de3ece35391f6bba650736f2d5d3f12e2cfc54538a340cc5d762d34ca449de7\n        /* \"contracts/LendingPool.sol\":2072:2078  amount */\n      dup4\n        /* \"contracts/LendingPool.sol\":2041:2079  DepositMade(token, msg.sender, amount) */\n      mload(0x40)\n      tag_141\n      swap2\n      swap1\n      tag_33\n      jump\t// in\n    tag_141:\n      mload(0x40)\n      dup1\n      swap2\n      sub\n      swap1\n      log3\n        /* \"contracts/LendingPool.sol\":1716:2087  function deposit(address token, uint256 amount) public... */\n      pop\n      pop\n      jump\t// out\n        /* \"contracts/LendingPool.sol\":2406:3588  function borrow(address token, uint256 amount) public nonReentrant... */\n    tag_67:\n        /* \"@openzeppelin/contracts/security/ReentrancyGuard.sol\":2261:2282  _nonReentrantBefore() */\n      tag_143\n        /* \"@openzeppelin/contracts/security/ReentrancyGuard.sol\":2261:2280  _nonReentrantBefore */\n      tag_102\n        /* \"@openzeppelin/contracts/security/ReentrancyGuard.sol\":2261:2282  _nonReentrantBefore() */\n      jump\t// in\n    tag_143:\n        /* \"contracts/LendingPool.sol\":2506:2507  0 */\n      0x00\n        /* \"contracts/LendingPool.sol\":2497:2503  amount */\n      dup2\n        /* \"contracts/LendingPool.sol\":2497:2507  amount > 0 */\n      gt\n        /* \"contracts/LendingPool.sol\":2489:2551  require(amount > 0, \"Borrow amount must be greater than zero\") */\n      tag_145\n      jumpi\n      mload(0x40)\n      0x08c379a000000000000000000000000000000000000000000000000000000000\n      dup2\n      mstore\n      0x04\n      add\n      tag_146\n      swap1\n      tag_147\n      jump\t// in\n    tag_146:\n      mload(0x40)\n      dup1\n      swap2\n      sub\n      swap1\n      revert\n    tag_145:\n        /* \"contracts/LendingPool.sol\":2570:2619  isSufficientCollateral(msg.sender, token, amount) */\n      tag_148\n        /* \"contracts/LendingPool.sol\":2593:2603  msg.sender */\n      caller\n        /* \"contracts/LendingPool.sol\":2605:2610  token */\n      dup4\n        /* \"contracts/LendingPool.sol\":2612:2618  amount */\n      dup4\n        /* \"contracts/LendingPool.sol\":2570:2592  isSufficientCollateral */\n      tag_55\n        /* \"contracts/LendingPool.sol\":2570:2619  isSufficientCollateral(msg.sender, token, amount) */\n      jump\t// in\n    tag_148:\n        /* \"contracts/LendingPool.sol\":2562:2647  require(isSufficientCollateral(msg.sender, token, amount), \"Insufficient collateral\") */\n      tag_149\n      jumpi\n      mload(0x40)\n      0x08c379a000000000000000000000000000000000000000000000000000000000\n      dup2\n      mstore\n      0x04\n      add\n      tag_150\n      swap1\n      tag_151\n      jump\t// in\n    tag_150:\n      mload(0x40)\n      dup1\n      swap2\n      sub\n      swap1\n      revert\n    tag_149:\n        /* \"contracts/LendingPool.sol\":2708:2714  amount */\n      dup1\n        /* \"contracts/LendingPool.sol\":2673:2678  token */\n      dup3\n        /* \"contracts/LendingPool.sol\":2666:2689  IERC20(token).balanceOf */\n      0xffffffffffffffffffffffffffffffffffffffff\n      and\n      0x70a08231\n        /* \"contracts/LendingPool.sol\":2698:2702  this */\n      address\n        /* \"contracts/LendingPool.sol\":2666:2704  IERC20(token).balanceOf(address(this)) */\n      mload(0x40)\n      dup3\n      0xffffffff\n      and\n      0xe0\n      shl\n      dup2\n      mstore\n      0x04\n      add\n      tag_152\n      swap2\n      swap1\n      tag_84\n      jump\t// in\n    tag_152:\n      0x20\n      mload(0x40)\n      dup1\n      dup4\n      sub\n      dup2\n      dup7\n      gas\n      staticcall\n      iszero\n      dup1\n      iszero\n      tag_154\n      jumpi\n      returndatasize\n      0x00\n      dup1\n      returndatacopy\n      revert(0x00, returndatasize)\n    tag_154:\n      pop\n      pop\n      pop\n      pop\n      mload(0x40)\n      returndatasize\n      not(0x1f)\n      0x1f\n      dup3\n      add\n      and\n      dup3\n      add\n      dup1\n      0x40\n      mstore\n      pop\n      dup2\n      add\n      swap1\n      tag_155\n      swap2\n      swap1\n      tag_156\n      jump\t// in\n    tag_155:\n        /* \"contracts/LendingPool.sol\":2666:2714  IERC20(token).balanceOf(address(this)) >= amount */\n      lt\n      iszero\n        /* \"contracts/LendingPool.sol\":2658:2755  require(IERC20(token).balanceOf(address(this)) >= amount, \"Insufficient liquidity for borrowing\") */\n      tag_157\n      jumpi\n      mload(0x40)\n      0x08c379a000000000000000000000000000000000000000000000000000000000\n      dup2\n      mstore\n      0x04\n      add\n      tag_158\n      swap1\n      tag_159\n      jump\t// in\n    tag_158:\n      mload(0x40)\n      dup1\n      swap2\n      sub\n      swap1\n      revert\n    tag_157:\n        /* \"contracts/LendingPool.sol\":2852:2858  amount */\n      dup1\n        /* \"contracts/LendingPool.sol\":2818:2829  userBorrows */\n      0x04\n        /* \"contracts/LendingPool.sol\":2818:2836  userBorrows[token] */\n      0x00\n        /* \"contracts/LendingPool.sol\":2830:2835  token */\n      dup5\n        /* \"contracts/LendingPool.sol\":2818:2836  userBorrows[token] */\n      0xffffffffffffffffffffffffffffffffffffffff\n      and\n      0xffffffffffffffffffffffffffffffffffffffff\n      and\n      dup2\n      mstore\n      0x20\n      add\n      swap1\n      dup2\n      mstore\n      0x20\n      add\n      0x00\n      keccak256\n        /* \"contracts/LendingPool.sol\":2818:2848  userBorrows[token][msg.sender] */\n      0x00\n        /* \"contracts/LendingPool.sol\":2837:2847  msg.sender */\n      caller\n        /* \"contracts/LendingPool.sol\":2818:2848  userBorrows[token][msg.sender] */\n      0xffffffffffffffffffffffffffffffffffffffff\n      and\n      0xffffffffffffffffffffffffffffffffffffffff\n      and\n      dup2\n      mstore\n      0x20\n      add\n      swap1\n      dup2\n      mstore\n      0x20\n      add\n      0x00\n      keccak256\n      0x00\n        /* \"contracts/LendingPool.sol\":2818:2858  userBorrows[token][msg.sender] += amount */\n      dup3\n      dup3\n      sload\n      tag_160\n      swap2\n      swap1\n      tag_129\n      jump\t// in\n    tag_160:\n      swap3\n      pop\n      pop\n      dup2\n      swap1\n      sstore\n      pop\n        /* \"contracts/LendingPool.sol\":2901:2907  amount */\n      dup1\n        /* \"contracts/LendingPool.sol\":2869:2890  totalBorrowedperToken */\n      0x06\n        /* \"contracts/LendingPool.sol\":2869:2897  totalBorrowedperToken[token] */\n      0x00\n        /* \"contracts/LendingPool.sol\":2891:2896  token */\n      dup5\n        /* \"contracts/LendingPool.sol\":2869:2897  totalBorrowedperToken[token] */\n      0xffffffffffffffffffffffffffffffffffffffff\n      and\n      0xffffffffffffffffffffffffffffffffffffffff\n      and\n      dup2\n      mstore\n      0x20\n      add\n      swap1\n      dup2\n      mstore\n      0x20\n      add\n      0x00\n      keccak256\n      0x00\n        /* \"contracts/LendingPool.sol\":2869:2907  totalBorrowedperToken[token] += amount */\n      dup3\n      dup3\n      sload\n      tag_161\n      swap2\n      swap1\n      tag_129\n      jump\t// in\n    tag_161:\n      swap3\n      pop\n      pop\n      dup2\n      swap1\n      sstore\n      pop\n        /* \"contracts/LendingPool.sol\":2954:2960  amount */\n      dup1\n        /* \"contracts/LendingPool.sol\":2918:2938  totalBorrowedperUser */\n      0x07\n        /* \"contracts/LendingPool.sol\":2918:2950  totalBorrowedperUser[msg.sender] */\n      0x00\n        /* \"contracts/LendingPool.sol\":2939:2949  msg.sender */\n      caller\n        /* \"contracts/LendingPool.sol\":2918:2950  totalBorrowedperUser[msg.sender] */\n      0xffffffffffffffffffffffffffffffffffffffff\n      and\n      0xffffffffffffffffffffffffffffffffffffffff\n      and\n      dup2\n      mstore\n      0x20\n      add\n      swap1\n      dup2\n      mstore\n      0x20\n      add\n      0x00\n      keccak256\n      0x00\n        /* \"contracts/LendingPool.sol\":2918:2960  totalBorrowedperUser[msg.sender] += amount */\n      dup3\n      dup3\n      sload\n      tag_162\n      swap2\n      swap1\n      tag_129\n      jump\t// in\n    tag_162:\n      swap3\n      pop\n      pop\n      dup2\n      swap1\n      sstore\n      pop\n        /* \"contracts/LendingPool.sol\":3025:3098  depositCollateral(token, msg.sender, calculateRequiredCollateral(amount)) */\n      tag_163\n        /* \"contracts/LendingPool.sol\":3043:3048  token */\n      dup3\n        /* \"contracts/LendingPool.sol\":3050:3060  msg.sender */\n      caller\n        /* \"contracts/LendingPool.sol\":3062:3097  calculateRequiredCollateral(amount) */\n      tag_164\n        /* \"contracts/LendingPool.sol\":3090:3096  amount */\n      dup5\n        /* \"contracts/LendingPool.sol\":3062:3089  calculateRequiredCollateral */\n      tag_51\n        /* \"contracts/LendingPool.sol\":3062:3097  calculateRequiredCollateral(amount) */\n      jump\t// in\n    tag_164:\n        /* \"contracts/LendingPool.sol\":3025:3042  depositCollateral */\n      tag_99\n        /* \"contracts/LendingPool.sol\":3025:3098  depositCollateral(token, msg.sender, calculateRequiredCollateral(amount)) */\n      jump\t// in\n    tag_163:\n        /* \"contracts/LendingPool.sol\":3188:3206  uint256 timeFactor */\n      0x00\n        /* \"contracts/LendingPool.sol\":3209:3224  block.timestamp */\n      timestamp\n        /* \"contracts/LendingPool.sol\":3188:3224  uint256 timeFactor = block.timestamp */\n      swap1\n      pop\n        /* \"contracts/LendingPool.sol\":3235:3255  uint256 interestRate */\n      0x00\n        /* \"contracts/LendingPool.sol\":3277:3287  timeFactor */\n      dup2\n        /* \"contracts/LendingPool.sol\":3258:3274  baseInterestRate */\n      sload(0x01)\n        /* \"contracts/LendingPool.sol\":3258:3287  baseInterestRate + timeFactor */\n      tag_165\n      swap2\n      swap1\n      tag_129\n      jump\t// in\n    tag_165:\n        /* \"contracts/LendingPool.sol\":3235:3287  uint256 interestRate = baseInterestRate + timeFactor */\n      swap1\n      pop\n        /* \"contracts/LendingPool.sol\":3412:3496  BorrowInfo({amount: amount, interestRate: interestRate, startTime: block.timestamp}) */\n      mload(0x40)\n      dup1\n      0x60\n      add\n      0x40\n      mstore\n      dup1\n        /* \"contracts/LendingPool.sol\":3432:3438  amount */\n      dup5\n        /* \"contracts/LendingPool.sol\":3412:3496  BorrowInfo({amount: amount, interestRate: interestRate, startTime: block.timestamp}) */\n      dup2\n      mstore\n      0x20\n      add\n        /* \"contracts/LendingPool.sol\":3454:3466  interestRate */\n      dup3\n        /* \"contracts/LendingPool.sol\":3412:3496  BorrowInfo({amount: amount, interestRate: interestRate, startTime: block.timestamp}) */\n      dup2\n      mstore\n      0x20\n      add\n        /* \"contracts/LendingPool.sol\":3479:3494  block.timestamp */\n      timestamp\n        /* \"contracts/LendingPool.sol\":3412:3496  BorrowInfo({amount: amount, interestRate: interestRate, startTime: block.timestamp}) */\n      dup2\n      mstore\n      pop\n        /* \"contracts/LendingPool.sol\":3377:3390  borrowedToken */\n      0x08\n        /* \"contracts/LendingPool.sol\":3377:3402  borrowedToken[msg.sender] */\n      0x00\n        /* \"contracts/LendingPool.sol\":3391:3401  msg.sender */\n      caller\n        /* \"contracts/LendingPool.sol\":3377:3402  borrowedToken[msg.sender] */\n      0xffffffffffffffffffffffffffffffffffffffff\n      and\n      0xffffffffffffffffffffffffffffffffffffffff\n      and\n      dup2\n      mstore\n      0x20\n      add\n      swap1\n      dup2\n      mstore\n      0x20\n      add\n      0x00\n      keccak256\n        /* \"contracts/LendingPool.sol\":3377:3409  borrowedToken[msg.sender][token] */\n      0x00\n        /* \"contracts/LendingPool.sol\":3403:3408  token */\n      dup7\n        /* \"contracts/LendingPool.sol\":3377:3409  borrowedToken[msg.sender][token] */\n      0xffffffffffffffffffffffffffffffffffffffff\n      and\n      0xffffffffffffffffffffffffffffffffffffffff\n      and\n      dup2\n      mstore\n      0x20\n      add\n      swap1\n      dup2\n      mstore\n      0x20\n      add\n      0x00\n      keccak256\n        /* \"contracts/LendingPool.sol\":3377:3496  borrowedToken[msg.sender][token] = BorrowInfo({amount: amount, interestRate: interestRate, startTime: block.timestamp}) */\n      0x00\n      dup3\n      add\n      mload\n      dup2\n      0x00\n      add\n      sstore\n      0x20\n      dup3\n      add\n      mload\n      dup2\n      0x01\n      add\n      sstore\n      0x40\n      dup3\n      add\n      mload\n      dup2\n      0x02\n      add\n      sstore\n      swap1\n      pop\n      pop\n        /* \"contracts/LendingPool.sol\":3535:3540  token */\n      dup4\n        /* \"contracts/LendingPool.sol\":3514:3580  Borrowed(msg.sender, token, amount, interestRate, block.timestamp) */\n      0xffffffffffffffffffffffffffffffffffffffff\n      and\n        /* \"contracts/LendingPool.sol\":3523:3533  msg.sender */\n      caller\n        /* \"contracts/LendingPool.sol\":3514:3580  Borrowed(msg.sender, token, amount, interestRate, block.timestamp) */\n      0xffffffffffffffffffffffffffffffffffffffff\n      and\n      0xc1cba78646fef030830d099fc25cb498953709c9d47d883848f81fd207174c9f\n        /* \"contracts/LendingPool.sol\":3542:3548  amount */\n      dup6\n        /* \"contracts/LendingPool.sol\":3550:3562  interestRate */\n      dup5\n        /* \"contracts/LendingPool.sol\":3564:3579  block.timestamp */\n      timestamp\n        /* \"contracts/LendingPool.sol\":3514:3580  Borrowed(msg.sender, token, amount, interestRate, block.timestamp) */\n      mload(0x40)\n      tag_166\n      swap4\n      swap3\n      swap2\n      swap1\n      tag_43\n      jump\t// in\n    tag_166:\n      mload(0x40)\n      dup1\n      swap2\n      sub\n      swap1\n      log3\n        /* \"contracts/LendingPool.sol\":2478:3588  {... */\n      pop\n      pop\n        /* \"@openzeppelin/contracts/security/ReentrancyGuard.sol\":2303:2323  _nonReentrantAfter() */\n      tag_167\n        /* \"@openzeppelin/contracts/security/ReentrancyGuard.sol\":2303:2321  _nonReentrantAfter */\n      tag_117\n        /* \"@openzeppelin/contracts/security/ReentrancyGuard.sol\":2303:2323  _nonReentrantAfter() */\n      jump\t// in\n    tag_167:\n        /* \"contracts/LendingPool.sol\":2406:3588  function borrow(address token, uint256 amount) public nonReentrant... */\n      pop\n      pop\n      jump\t// out\n        /* \"contracts/LendingPool.sol\":2160:2345  function getUserBalance(address user, address token) public view returns(uint256)... */\n    tag_70:\n        /* \"contracts/LendingPool.sol\":2233:2240  uint256 */\n      0x00\n        /* \"contracts/LendingPool.sol\":2265:2277  userDeposits */\n      0x02\n        /* \"contracts/LendingPool.sol\":2265:2284  userDeposits[token] */\n      0x00\n        /* \"contracts/LendingPool.sol\":2278:2283  token */\n      dup4\n        /* \"contracts/LendingPool.sol\":2265:2284  userDeposits[token] */\n      0xffffffffffffffffffffffffffffffffffffffff\n      and\n      0xffffffffffffffffffffffffffffffffffffffff\n      and\n      dup2\n      mstore\n      0x20\n      add\n      swap1\n      dup2\n      mstore\n      0x20\n      add\n      0x00\n      keccak256\n        /* \"contracts/LendingPool.sol\":2265:2290  userDeposits[token][user] */\n      0x00\n        /* \"contracts/LendingPool.sol\":2285:2289  user */\n      dup5\n        /* \"contracts/LendingPool.sol\":2265:2290  userDeposits[token][user] */\n      0xffffffffffffffffffffffffffffffffffffffff\n      and\n      0xffffffffffffffffffffffffffffffffffffffff\n      and\n      dup2\n      mstore\n      0x20\n      add\n      swap1\n      dup2\n      mstore\n      0x20\n      add\n      0x00\n      keccak256\n      sload\n        /* \"contracts/LendingPool.sol\":2258:2290  return userDeposits[token][user] */\n      swap1\n      pop\n        /* \"contracts/LendingPool.sol\":2160:2345  function getUserBalance(address user, address token) public view returns(uint256)... */\n      swap3\n      swap2\n      pop\n      pop\n      jump\t// out\n        /* \"contracts/LendingPool.sol\":5329:5554  function calculateInterestRate(address token, uint256 totalSupply, uint256 totalBorrows) public view returns (uint256) {... */\n    tag_75:\n        /* \"contracts/LendingPool.sol\":5439:5446  uint256 */\n      0x00\n        /* \"contracts/LendingPool.sol\":5329:5554  function calculateInterestRate(address token, uint256 totalSupply, uint256 totalBorrows) public view returns (uint256) {... */\n      swap4\n      swap3\n      pop\n      pop\n      pop\n      jump\t// out\n        /* \"contracts/LendingPool.sol\":256:292  uint256 public baseInterestRate = 10 */\n    tag_78:\n      sload(0x01)\n      dup2\n      jump\t// out\n        /* \"contracts/LendingPool.sol\":455:487  address[] public supportedTokens */\n    tag_82:\n      0x03\n      dup2\n      dup2\n      sload\n      dup2\n      lt\n      tag_170\n      jumpi\n      0x00\n      dup1\n      revert\n    tag_170:\n      swap1\n      0x00\n      mstore\n      keccak256(0x00, 0x20)\n      add\n      0x00\n      swap2\n      pop\n      sload\n      swap1\n      0x0100\n      exp\n      swap1\n      div\n      0xffffffffffffffffffffffffffffffffffffffff\n      and\n      dup2\n      jump\t// out\n        /* \"contracts/LendingPool.sol\":689:754  mapping(address => mapping(address => uint256)) public collateral */\n    tag_87:\n      mstore(0x20, 0x05)\n      dup2\n      0x00\n      mstore\n      mstore(0x20, keccak256(0x00, 0x40))\n      dup1\n      0x00\n      mstore\n      keccak256(0x00, 0x40)\n      0x00\n      swap2\n      pop\n      swap2\n      pop\n      pop\n      sload\n      dup2\n      jump\t// out\n        /* \"contracts/LendingPool.sol\":1339:1359  Escrow public escrow */\n    tag_90:\n      0x09\n      0x00\n      swap1\n      sload\n      swap1\n      0x0100\n      exp\n      swap1\n      div\n      0xffffffffffffffffffffffffffffffffffffffff\n      and\n      dup2\n      jump\t// out\n        /* \"contracts/LendingPool.sol\":845:901  mapping(address => uint256) public totalBorrowedperToken */\n    tag_95:\n      mstore(0x20, 0x06)\n      dup1\n      0x00\n      mstore\n      keccak256(0x00, 0x40)\n      0x00\n      swap2\n      pop\n      swap1\n      pop\n      sload\n      dup2\n      jump\t// out\n        /* \"contracts/LendingPool.sol\":4513:4597  function depositCollateral(address token, address borrower, uint256 amount) public{} */\n    tag_99:\n      pop\n      pop\n      pop\n      jump\t// out\n        /* \"@openzeppelin/contracts/security/ReentrancyGuard.sol\":2336:2623  function _nonReentrantBefore() private {... */\n    tag_102:\n        /* \"@openzeppelin/contracts/security/ReentrancyGuard.sol\":1759:1760  2 */\n      0x02\n        /* \"@openzeppelin/contracts/security/ReentrancyGuard.sol\":2468:2475  _status */\n      sload(0x00)\n        /* \"@openzeppelin/contracts/security/ReentrancyGuard.sol\":2468:2487  _status != _ENTERED */\n      sub\n        /* \"@openzeppelin/contracts/security/ReentrancyGuard.sol\":2460:2523  require(_status != _ENTERED, \"ReentrancyGuard: reentrant call\") */\n      tag_174\n      jumpi\n      mload(0x40)\n      0x08c379a000000000000000000000000000000000000000000000000000000000\n      dup2\n      mstore\n      0x04\n      add\n      tag_175\n      swap1\n      tag_176\n      jump\t// in\n    tag_175:\n      mload(0x40)\n      dup1\n      swap2\n      sub\n      swap1\n      revert\n    tag_174:\n        /* \"@openzeppelin/contracts/security/ReentrancyGuard.sol\":1759:1760  2 */\n      0x02\n        /* \"@openzeppelin/contracts/security/ReentrancyGuard.sol\":2598:2605  _status */\n      0x00\n        /* \"@openzeppelin/contracts/security/ReentrancyGuard.sol\":2598:2616  _status = _ENTERED */\n      dup2\n      swap1\n      sstore\n      pop\n        /* \"@openzeppelin/contracts/security/ReentrancyGuard.sol\":2336:2623  function _nonReentrantBefore() private {... */\n      jump\t// out\n        /* \"contracts/LendingPool.sol\":4232:4478  function calculateAccruedInterest(address token, address user) internal view returns(uint256)... */\n    tag_112:\n        /* \"contracts/LendingPool.sol\":4317:4324  uint256 */\n      0x00\n        /* \"contracts/LendingPool.sol\":4342:4373  BorrowInfo storage borrowDetail */\n      dup1\n        /* \"contracts/LendingPool.sol\":4376:4389  borrowedToken */\n      0x08\n        /* \"contracts/LendingPool.sol\":4376:4396  borrowedToken[token] */\n      0x00\n        /* \"contracts/LendingPool.sol\":4390:4395  token */\n      dup6\n        /* \"contracts/LendingPool.sol\":4376:4396  borrowedToken[token] */\n      0xffffffffffffffffffffffffffffffffffffffff\n      and\n      0xffffffffffffffffffffffffffffffffffffffff\n      and\n      dup2\n      mstore\n      0x20\n      add\n      swap1\n      dup2\n      mstore\n      0x20\n      add\n      0x00\n      keccak256\n        /* \"contracts/LendingPool.sol\":4376:4402  borrowedToken[token][user] */\n      0x00\n        /* \"contracts/LendingPool.sol\":4397:4401  user */\n      dup5\n        /* \"contracts/LendingPool.sol\":4376:4402  borrowedToken[token][user] */\n      0xffffffffffffffffffffffffffffffffffffffff\n      and\n      0xffffffffffffffffffffffffffffffffffffffff\n      and\n      dup2\n      mstore\n      0x20\n      add\n      swap1\n      dup2\n      mstore\n      0x20\n      add\n      0x00\n      keccak256\n        /* \"contracts/LendingPool.sol\":4342:4402  BorrowInfo storage borrowDetail = borrowedToken[token][user] */\n      swap1\n      pop\n        /* \"contracts/LendingPool.sol\":4448:4460  borrowDetail */\n      dup1\n        /* \"contracts/LendingPool.sol\":4448:4470  borrowDetail.startTime */\n      0x02\n      add\n      sload\n        /* \"contracts/LendingPool.sol\":4420:4432  borrowDetail */\n      dup2\n        /* \"contracts/LendingPool.sol\":4420:4445  borrowDetail.interestRate */\n      0x01\n      add\n      sload\n        /* \"contracts/LendingPool.sol\":4420:4470  borrowDetail.interestRate + borrowDetail.startTime */\n      tag_178\n      swap2\n      swap1\n      tag_129\n      jump\t// in\n    tag_178:\n        /* \"contracts/LendingPool.sol\":4413:4470  return borrowDetail.interestRate + borrowDetail.startTime */\n      swap2\n      pop\n      pop\n        /* \"contracts/LendingPool.sol\":4232:4478  function calculateAccruedInterest(address token, address user) internal view returns(uint256)... */\n      swap3\n      swap2\n      pop\n      pop\n      jump\t// out\n        /* \"@openzeppelin/contracts/security/ReentrancyGuard.sol\":2629:2838  function _nonReentrantAfter() private {... */\n    tag_117:\n        /* \"@openzeppelin/contracts/security/ReentrancyGuard.sol\":1716:1717  1 */\n      0x01\n        /* \"@openzeppelin/contracts/security/ReentrancyGuard.sol\":2809:2816  _status */\n      0x00\n        /* \"@openzeppelin/contracts/security/ReentrancyGuard.sol\":2809:2831  _status = _NOT_ENTERED */\n      dup2\n      swap1\n      sstore\n      pop\n        /* \"@openzeppelin/contracts/security/ReentrancyGuard.sol\":2629:2838  function _nonReentrantAfter() private {... */\n      jump\t// out\n        /* \"#utility.yul\":88:205   */\n    tag_181:\n        /* \"#utility.yul\":197:198   */\n      0x00\n        /* \"#utility.yul\":194:195   */\n      dup1\n        /* \"#utility.yul\":187:199   */\n      revert\n        /* \"#utility.yul\":334:460   */\n    tag_183:\n        /* \"#utility.yul\":371:378   */\n      0x00\n        /* \"#utility.yul\":411:453   */\n      0xffffffffffffffffffffffffffffffffffffffff\n        /* \"#utility.yul\":404:409   */\n      dup3\n        /* \"#utility.yul\":400:454   */\n      and\n        /* \"#utility.yul\":389:454   */\n      swap1\n      pop\n        /* \"#utility.yul\":334:460   */\n      swap2\n      swap1\n      pop\n      jump\t// out\n        /* \"#utility.yul\":466:562   */\n    tag_184:\n        /* \"#utility.yul\":503:510   */\n      0x00\n        /* \"#utility.yul\":532:556   */\n      tag_224\n        /* \"#utility.yul\":550:555   */\n      dup3\n        /* \"#utility.yul\":532:556   */\n      tag_183\n      jump\t// in\n    tag_224:\n        /* \"#utility.yul\":521:556   */\n      swap1\n      pop\n        /* \"#utility.yul\":466:562   */\n      swap2\n      swap1\n      pop\n      jump\t// out\n        /* \"#utility.yul\":568:690   */\n    tag_185:\n        /* \"#utility.yul\":641:665   */\n      tag_226\n        /* \"#utility.yul\":659:664   */\n      dup2\n        /* \"#utility.yul\":641:665   */\n      tag_184\n      jump\t// in\n    tag_226:\n        /* \"#utility.yul\":634:639   */\n      dup2\n        /* \"#utility.yul\":631:666   */\n      eq\n        /* \"#utility.yul\":621:684   */\n      tag_227\n      jumpi\n        /* \"#utility.yul\":680:681   */\n      0x00\n        /* \"#utility.yul\":677:678   */\n      dup1\n        /* \"#utility.yul\":670:682   */\n      revert\n        /* \"#utility.yul\":621:684   */\n    tag_227:\n        /* \"#utility.yul\":568:690   */\n      pop\n      jump\t// out\n        /* \"#utility.yul\":696:835   */\n    tag_186:\n        /* \"#utility.yul\":742:747   */\n      0x00\n        /* \"#utility.yul\":780:786   */\n      dup2\n        /* \"#utility.yul\":767:787   */\n      calldataload\n        /* \"#utility.yul\":758:787   */\n      swap1\n      pop\n        /* \"#utility.yul\":796:829   */\n      tag_229\n        /* \"#utility.yul\":823:828   */\n      dup2\n        /* \"#utility.yul\":796:829   */\n      tag_185\n      jump\t// in\n    tag_229:\n        /* \"#utility.yul\":696:835   */\n      swap3\n      swap2\n      pop\n      pop\n      jump\t// out\n        /* \"#utility.yul\":841:918   */\n    tag_187:\n        /* \"#utility.yul\":878:885   */\n      0x00\n        /* \"#utility.yul\":907:912   */\n      dup2\n        /* \"#utility.yul\":896:912   */\n      swap1\n      pop\n        /* \"#utility.yul\":841:918   */\n      swap2\n      swap1\n      pop\n      jump\t// out\n        /* \"#utility.yul\":924:1046   */\n    tag_188:\n        /* \"#utility.yul\":997:1021   */\n      tag_232\n        /* \"#utility.yul\":1015:1020   */\n      dup2\n        /* \"#utility.yul\":997:1021   */\n      tag_187\n      jump\t// in\n    tag_232:\n        /* \"#utility.yul\":990:995   */\n      dup2\n        /* \"#utility.yul\":987:1022   */\n      eq\n        /* \"#utility.yul\":977:1040   */\n      tag_233\n      jumpi\n        /* \"#utility.yul\":1036:1037   */\n      0x00\n        /* \"#utility.yul\":1033:1034   */\n      dup1\n        /* \"#utility.yul\":1026:1038   */\n      revert\n        /* \"#utility.yul\":977:1040   */\n    tag_233:\n        /* \"#utility.yul\":924:1046   */\n      pop\n      jump\t// out\n        /* \"#utility.yul\":1052:1191   */\n    tag_189:\n        /* \"#utility.yul\":1098:1103   */\n      0x00\n        /* \"#utility.yul\":1136:1142   */\n      dup2\n        /* \"#utility.yul\":1123:1143   */\n      calldataload\n        /* \"#utility.yul\":1114:1143   */\n      swap1\n      pop\n        /* \"#utility.yul\":1152:1185   */\n      tag_235\n        /* \"#utility.yul\":1179:1184   */\n      dup2\n        /* \"#utility.yul\":1152:1185   */\n      tag_188\n      jump\t// in\n    tag_235:\n        /* \"#utility.yul\":1052:1191   */\n      swap3\n      swap2\n      pop\n      pop\n      jump\t// out\n        /* \"#utility.yul\":1197:1671   */\n    tag_26:\n        /* \"#utility.yul\":1265:1271   */\n      0x00\n        /* \"#utility.yul\":1273:1279   */\n      dup1\n        /* \"#utility.yul\":1322:1324   */\n      0x40\n        /* \"#utility.yul\":1310:1319   */\n      dup4\n        /* \"#utility.yul\":1301:1308   */\n      dup6\n        /* \"#utility.yul\":1297:1320   */\n      sub\n        /* \"#utility.yul\":1293:1325   */\n      slt\n        /* \"#utility.yul\":1290:1409   */\n      iszero\n      tag_237\n      jumpi\n        /* \"#utility.yul\":1328:1407   */\n      tag_238\n      tag_181\n      jump\t// in\n    tag_238:\n        /* \"#utility.yul\":1290:1409   */\n    tag_237:\n        /* \"#utility.yul\":1448:1449   */\n      0x00\n        /* \"#utility.yul\":1473:1526   */\n      tag_239\n        /* \"#utility.yul\":1518:1525   */\n      dup6\n        /* \"#utility.yul\":1509:1515   */\n      dup3\n        /* \"#utility.yul\":1498:1507   */\n      dup7\n        /* \"#utility.yul\":1494:1516   */\n      add\n        /* \"#utility.yul\":1473:1526   */\n      tag_186\n      jump\t// in\n    tag_239:\n        /* \"#utility.yul\":1463:1526   */\n      swap3\n      pop\n        /* \"#utility.yul\":1419:1536   */\n      pop\n        /* \"#utility.yul\":1575:1577   */\n      0x20\n        /* \"#utility.yul\":1601:1654   */\n      tag_240\n        /* \"#utility.yul\":1646:1653   */\n      dup6\n        /* \"#utility.yul\":1637:1643   */\n      dup3\n        /* \"#utility.yul\":1626:1635   */\n      dup7\n        /* \"#utility.yul\":1622:1644   */\n      add\n        /* \"#utility.yul\":1601:1654   */\n      tag_189\n      jump\t// in\n    tag_240:\n        /* \"#utility.yul\":1591:1654   */\n      swap2\n      pop\n        /* \"#utility.yul\":1546:1664   */\n      pop\n        /* \"#utility.yul\":1197:1671   */\n      swap3\n      pop\n      swap3\n      swap1\n      pop\n      jump\t// out\n        /* \"#utility.yul\":1677:2151   */\n    tag_30:\n        /* \"#utility.yul\":1745:1751   */\n      0x00\n        /* \"#utility.yul\":1753:1759   */\n      dup1\n        /* \"#utility.yul\":1802:1804   */\n      0x40\n        /* \"#utility.yul\":1790:1799   */\n      dup4\n        /* \"#utility.yul\":1781:1788   */\n      dup6\n        /* \"#utility.yul\":1777:1800   */\n      sub\n        /* \"#utility.yul\":1773:1805   */\n      slt\n        /* \"#utility.yul\":1770:1889   */\n      iszero\n      tag_242\n      jumpi\n        /* \"#utility.yul\":1808:1887   */\n      tag_243\n      tag_181\n      jump\t// in\n    tag_243:\n        /* \"#utility.yul\":1770:1889   */\n    tag_242:\n        /* \"#utility.yul\":1928:1929   */\n      0x00\n        /* \"#utility.yul\":1953:2006   */\n      tag_244\n        /* \"#utility.yul\":1998:2005   */\n      dup6\n        /* \"#utility.yul\":1989:1995   */\n      dup3\n        /* \"#utility.yul\":1978:1987   */\n      dup7\n        /* \"#utility.yul\":1974:1996   */\n      add\n        /* \"#utility.yul\":1953:2006   */\n      tag_186\n      jump\t// in\n    tag_244:\n        /* \"#utility.yul\":1943:2006   */\n      swap3\n      pop\n        /* \"#utility.yul\":1899:2016   */\n      pop\n        /* \"#utility.yul\":2055:2057   */\n      0x20\n        /* \"#utility.yul\":2081:2134   */\n      tag_245\n        /* \"#utility.yul\":2126:2133   */\n      dup6\n        /* \"#utility.yul\":2117:2123   */\n      dup3\n        /* \"#utility.yul\":2106:2115   */\n      dup7\n        /* \"#utility.yul\":2102:2124   */\n      add\n        /* \"#utility.yul\":2081:2134   */\n      tag_186\n      jump\t// in\n    tag_245:\n        /* \"#utility.yul\":2071:2134   */\n      swap2\n      pop\n        /* \"#utility.yul\":2026:2144   */\n      pop\n        /* \"#utility.yul\":1677:2151   */\n      swap3\n      pop\n      swap3\n      swap1\n      pop\n      jump\t// out\n        /* \"#utility.yul\":2157:2275   */\n    tag_190:\n        /* \"#utility.yul\":2244:2268   */\n      tag_247\n        /* \"#utility.yul\":2262:2267   */\n      dup2\n        /* \"#utility.yul\":2244:2268   */\n      tag_187\n      jump\t// in\n    tag_247:\n        /* \"#utility.yul\":2239:2242   */\n      dup3\n        /* \"#utility.yul\":2232:2269   */\n      mstore\n        /* \"#utility.yul\":2157:2275   */\n      pop\n      pop\n      jump\t// out\n        /* \"#utility.yul\":2281:2503   */\n    tag_33:\n        /* \"#utility.yul\":2374:2378   */\n      0x00\n        /* \"#utility.yul\":2412:2414   */\n      0x20\n        /* \"#utility.yul\":2401:2410   */\n      dup3\n        /* \"#utility.yul\":2397:2415   */\n      add\n        /* \"#utility.yul\":2389:2415   */\n      swap1\n      pop\n        /* \"#utility.yul\":2425:2496   */\n      tag_249\n        /* \"#utility.yul\":2493:2494   */\n      0x00\n        /* \"#utility.yul\":2482:2491   */\n      dup4\n        /* \"#utility.yul\":2478:2495   */\n      add\n        /* \"#utility.yul\":2469:2475   */\n      dup5\n        /* \"#utility.yul\":2425:2496   */\n      tag_190\n      jump\t// in\n    tag_249:\n        /* \"#utility.yul\":2281:2503   */\n      swap3\n      swap2\n      pop\n      pop\n      jump\t// out\n        /* \"#utility.yul\":2509:2838   */\n    tag_36:\n        /* \"#utility.yul\":2568:2574   */\n      0x00\n        /* \"#utility.yul\":2617:2619   */\n      0x20\n        /* \"#utility.yul\":2605:2614   */\n      dup3\n        /* \"#utility.yul\":2596:2603   */\n      dup5\n        /* \"#utility.yul\":2592:2615   */\n      sub\n        /* \"#utility.yul\":2588:2620   */\n      slt\n        /* \"#utility.yul\":2585:2704   */\n      iszero\n      tag_251\n      jumpi\n        /* \"#utility.yul\":2623:2702   */\n      tag_252\n      tag_181\n      jump\t// in\n    tag_252:\n        /* \"#utility.yul\":2585:2704   */\n    tag_251:\n        /* \"#utility.yul\":2743:2744   */\n      0x00\n        /* \"#utility.yul\":2768:2821   */\n      tag_253\n        /* \"#utility.yul\":2813:2820   */\n      dup5\n        /* \"#utility.yul\":2804:2810   */\n      dup3\n        /* \"#utility.yul\":2793:2802   */\n      dup6\n        /* \"#utility.yul\":2789:2811   */\n      add\n        /* \"#utility.yul\":2768:2821   */\n      tag_186\n      jump\t// in\n    tag_253:\n        /* \"#utility.yul\":2758:2821   */\n      swap2\n      pop\n        /* \"#utility.yul\":2714:2831   */\n      pop\n        /* \"#utility.yul\":2509:2838   */\n      swap3\n      swap2\n      pop\n      pop\n      jump\t// out\n        /* \"#utility.yul\":2844:3286   */\n    tag_43:\n        /* \"#utility.yul\":2993:2997   */\n      0x00\n        /* \"#utility.yul\":3031:3033   */\n      0x60\n        /* \"#utility.yul\":3020:3029   */\n      dup3\n        /* \"#utility.yul\":3016:3034   */\n      add\n        /* \"#utility.yul\":3008:3034   */\n      swap1\n      pop\n        /* \"#utility.yul\":3044:3115   */\n      tag_255\n        /* \"#utility.yul\":3112:3113   */\n      0x00\n        /* \"#utility.yul\":3101:3110   */\n      dup4\n        /* \"#utility.yul\":3097:3114   */\n      add\n        /* \"#utility.yul\":3088:3094   */\n      dup7\n        /* \"#utility.yul\":3044:3115   */\n      tag_190\n      jump\t// in\n    tag_255:\n        /* \"#utility.yul\":3125:3197   */\n      tag_256\n        /* \"#utility.yul\":3193:3195   */\n      0x20\n        /* \"#utility.yul\":3182:3191   */\n      dup4\n        /* \"#utility.yul\":3178:3196   */\n      add\n        /* \"#utility.yul\":3169:3175   */\n      dup6\n        /* \"#utility.yul\":3125:3197   */\n      tag_190\n      jump\t// in\n    tag_256:\n        /* \"#utility.yul\":3207:3279   */\n      tag_257\n        /* \"#utility.yul\":3275:3277   */\n      0x40\n        /* \"#utility.yul\":3264:3273   */\n      dup4\n        /* \"#utility.yul\":3260:3278   */\n      add\n        /* \"#utility.yul\":3251:3257   */\n      dup5\n        /* \"#utility.yul\":3207:3279   */\n      tag_190\n      jump\t// in\n    tag_257:\n        /* \"#utility.yul\":2844:3286   */\n      swap5\n      swap4\n      pop\n      pop\n      pop\n      pop\n      jump\t// out\n        /* \"#utility.yul\":3292:3911   */\n    tag_46:\n        /* \"#utility.yul\":3369:3375   */\n      0x00\n        /* \"#utility.yul\":3377:3383   */\n      dup1\n        /* \"#utility.yul\":3385:3391   */\n      0x00\n        /* \"#utility.yul\":3434:3436   */\n      0x60\n        /* \"#utility.yul\":3422:3431   */\n      dup5\n        /* \"#utility.yul\":3413:3420   */\n      dup7\n        /* \"#utility.yul\":3409:3432   */\n      sub\n        /* \"#utility.yul\":3405:3437   */\n      slt\n        /* \"#utility.yul\":3402:3521   */\n      iszero\n      tag_259\n      jumpi\n        /* \"#utility.yul\":3440:3519   */\n      tag_260\n      tag_181\n      jump\t// in\n    tag_260:\n        /* \"#utility.yul\":3402:3521   */\n    tag_259:\n        /* \"#utility.yul\":3560:3561   */\n      0x00\n        /* \"#utility.yul\":3585:3638   */\n      tag_261\n        /* \"#utility.yul\":3630:3637   */\n      dup7\n        /* \"#utility.yul\":3621:3627   */\n      dup3\n        /* \"#utility.yul\":3610:3619   */\n      dup8\n        /* \"#utility.yul\":3606:3628   */\n      add\n        /* \"#utility.yul\":3585:3638   */\n      tag_186\n      jump\t// in\n    tag_261:\n        /* \"#utility.yul\":3575:3638   */\n      swap4\n      pop\n        /* \"#utility.yul\":3531:3648   */\n      pop\n        /* \"#utility.yul\":3687:3689   */\n      0x20\n        /* \"#utility.yul\":3713:3766   */\n      tag_262\n        /* \"#utility.yul\":3758:3765   */\n      dup7\n        /* \"#utility.yul\":3749:3755   */\n      dup3\n        /* \"#utility.yul\":3738:3747   */\n      dup8\n        /* \"#utility.yul\":3734:3756   */\n      add\n        /* \"#utility.yul\":3713:3766   */\n      tag_186\n      jump\t// in\n    tag_262:\n        /* \"#utility.yul\":3703:3766   */\n      swap3\n      pop\n        /* \"#utility.yul\":3658:3776   */\n      pop\n        /* \"#utility.yul\":3815:3817   */\n      0x40\n        /* \"#utility.yul\":3841:3894   */\n      tag_263\n        /* \"#utility.yul\":3886:3893   */\n      dup7\n        /* \"#utility.yul\":3877:3883   */\n      dup3\n        /* \"#utility.yul\":3866:3875   */\n      dup8\n        /* \"#utility.yul\":3862:3884   */\n      add\n        /* \"#utility.yul\":3841:3894   */\n      tag_189\n      jump\t// in\n    tag_263:\n        /* \"#utility.yul\":3831:3894   */\n      swap2\n      pop\n        /* \"#utility.yul\":3786:3904   */\n      pop\n        /* \"#utility.yul\":3292:3911   */\n      swap3\n      pop\n      swap3\n      pop\n      swap3\n      jump\t// out\n        /* \"#utility.yul\":3917:4246   */\n    tag_50:\n        /* \"#utility.yul\":3976:3982   */\n      0x00\n        /* \"#utility.yul\":4025:4027   */\n      0x20\n        /* \"#utility.yul\":4013:4022   */\n      dup3\n        /* \"#utility.yul\":4004:4011   */\n      dup5\n        /* \"#utility.yul\":4000:4023   */\n      sub\n        /* \"#utility.yul\":3996:4028   */\n      slt\n        /* \"#utility.yul\":3993:4112   */\n      iszero\n      tag_265\n      jumpi\n        /* \"#utility.yul\":4031:4110   */\n      tag_266\n      tag_181\n      jump\t// in\n    tag_266:\n        /* \"#utility.yul\":3993:4112   */\n    tag_265:\n        /* \"#utility.yul\":4151:4152   */\n      0x00\n        /* \"#utility.yul\":4176:4229   */\n      tag_267\n        /* \"#utility.yul\":4221:4228   */\n      dup5\n        /* \"#utility.yul\":4212:4218   */\n      dup3\n        /* \"#utility.yul\":4201:4210   */\n      dup6\n        /* \"#utility.yul\":4197:4219   */\n      add\n        /* \"#utility.yul\":4176:4229   */\n      tag_189\n      jump\t// in\n    tag_267:\n        /* \"#utility.yul\":4166:4229   */\n      swap2\n      pop\n        /* \"#utility.yul\":4122:4239   */\n      pop\n        /* \"#utility.yul\":3917:4246   */\n      swap3\n      swap2\n      pop\n      pop\n      jump\t// out\n        /* \"#utility.yul\":4252:4342   */\n    tag_191:\n        /* \"#utility.yul\":4286:4293   */\n      0x00\n        /* \"#utility.yul\":4329:4334   */\n      dup2\n        /* \"#utility.yul\":4322:4335   */\n      iszero\n        /* \"#utility.yul\":4315:4336   */\n      iszero\n        /* \"#utility.yul\":4304:4336   */\n      swap1\n      pop\n        /* \"#utility.yul\":4252:4342   */\n      swap2\n      swap1\n      pop\n      jump\t// out\n        /* \"#utility.yul\":4348:4457   */\n    tag_192:\n        /* \"#utility.yul\":4429:4450   */\n      tag_270\n        /* \"#utility.yul\":4444:4449   */\n      dup2\n        /* \"#utility.yul\":4429:4450   */\n      tag_191\n      jump\t// in\n    tag_270:\n        /* \"#utility.yul\":4424:4427   */\n      dup3\n        /* \"#utility.yul\":4417:4451   */\n      mstore\n        /* \"#utility.yul\":4348:4457   */\n      pop\n      pop\n      jump\t// out\n        /* \"#utility.yul\":4463:4673   */\n    tag_57:\n        /* \"#utility.yul\":4550:4554   */\n      0x00\n        /* \"#utility.yul\":4588:4590   */\n      0x20\n        /* \"#utility.yul\":4577:4586   */\n      dup3\n        /* \"#utility.yul\":4573:4591   */\n      add\n        /* \"#utility.yul\":4565:4591   */\n      swap1\n      pop\n        /* \"#utility.yul\":4601:4666   */\n      tag_272\n        /* \"#utility.yul\":4663:4664   */\n      0x00\n        /* \"#utility.yul\":4652:4661   */\n      dup4\n        /* \"#utility.yul\":4648:4665   */\n      add\n        /* \"#utility.yul\":4639:4645   */\n      dup5\n        /* \"#utility.yul\":4601:4666   */\n      tag_192\n      jump\t// in\n    tag_272:\n        /* \"#utility.yul\":4463:4673   */\n      swap3\n      swap2\n      pop\n      pop\n      jump\t// out\n        /* \"#utility.yul\":4679:5298   */\n    tag_74:\n        /* \"#utility.yul\":4756:4762   */\n      0x00\n        /* \"#utility.yul\":4764:4770   */\n      dup1\n        /* \"#utility.yul\":4772:4778   */\n      0x00\n        /* \"#utility.yul\":4821:4823   */\n      0x60\n        /* \"#utility.yul\":4809:4818   */\n      dup5\n        /* \"#utility.yul\":4800:4807   */\n      dup7\n        /* \"#utility.yul\":4796:4819   */\n      sub\n        /* \"#utility.yul\":4792:4824   */\n      slt\n        /* \"#utility.yul\":4789:4908   */\n      iszero\n      tag_274\n      jumpi\n        /* \"#utility.yul\":4827:4906   */\n      tag_275\n      tag_181\n      jump\t// in\n    tag_275:\n        /* \"#utility.yul\":4789:4908   */\n    tag_274:\n        /* \"#utility.yul\":4947:4948   */\n      0x00\n        /* \"#utility.yul\":4972:5025   */\n      tag_276\n        /* \"#utility.yul\":5017:5024   */\n      dup7\n        /* \"#utility.yul\":5008:5014   */\n      dup3\n        /* \"#utility.yul\":4997:5006   */\n      dup8\n        /* \"#utility.yul\":4993:5015   */\n      add\n        /* \"#utility.yul\":4972:5025   */\n      tag_186\n      jump\t// in\n    tag_276:\n        /* \"#utility.yul\":4962:5025   */\n      swap4\n      pop\n        /* \"#utility.yul\":4918:5035   */\n      pop\n        /* \"#utility.yul\":5074:5076   */\n      0x20\n        /* \"#utility.yul\":5100:5153   */\n      tag_277\n        /* \"#utility.yul\":5145:5152   */\n      dup7\n        /* \"#utility.yul\":5136:5142   */\n      dup3\n        /* \"#utility.yul\":5125:5134   */\n      dup8\n        /* \"#utility.yul\":5121:5143   */\n      add\n        /* \"#utility.yul\":5100:5153   */\n      tag_189\n      jump\t// in\n    tag_277:\n        /* \"#utility.yul\":5090:5153   */\n      swap3\n      pop\n        /* \"#utility.yul\":5045:5163   */\n      pop\n        /* \"#utility.yul\":5202:5204   */\n      0x40\n        /* \"#utility.yul\":5228:5281   */\n      tag_278\n        /* \"#utility.yul\":5273:5280   */\n      dup7\n        /* \"#utility.yul\":5264:5270   */\n      dup3\n        /* \"#utility.yul\":5253:5262   */\n      dup8\n        /* \"#utility.yul\":5249:5271   */\n      add\n        /* \"#utility.yul\":5228:5281   */\n      tag_189\n      jump\t// in\n    tag_278:\n        /* \"#utility.yul\":5218:5281   */\n      swap2\n      pop\n        /* \"#utility.yul\":5173:5291   */\n      pop\n        /* \"#utility.yul\":4679:5298   */\n      swap3\n      pop\n      swap3\n      pop\n      swap3\n      jump\t// out\n        /* \"#utility.yul\":5304:5422   */\n    tag_193:\n        /* \"#utility.yul\":5391:5415   */\n      tag_280\n        /* \"#utility.yul\":5409:5414   */\n      dup2\n        /* \"#utility.yul\":5391:5415   */\n      tag_184\n      jump\t// in\n    tag_280:\n        /* \"#utility.yul\":5386:5389   */\n      dup3\n        /* \"#utility.yul\":5379:5416   */\n      mstore\n        /* \"#utility.yul\":5304:5422   */\n      pop\n      pop\n      jump\t// out\n        /* \"#utility.yul\":5428:5650   */\n    tag_84:\n        /* \"#utility.yul\":5521:5525   */\n      0x00\n        /* \"#utility.yul\":5559:5561   */\n      0x20\n        /* \"#utility.yul\":5548:5557   */\n      dup3\n        /* \"#utility.yul\":5544:5562   */\n      add\n        /* \"#utility.yul\":5536:5562   */\n      swap1\n      pop\n        /* \"#utility.yul\":5572:5643   */\n      tag_282\n        /* \"#utility.yul\":5640:5641   */\n      0x00\n        /* \"#utility.yul\":5629:5638   */\n      dup4\n        /* \"#utility.yul\":5625:5642   */\n      add\n        /* \"#utility.yul\":5616:5622   */\n      dup5\n        /* \"#utility.yul\":5572:5643   */\n      tag_193\n      jump\t// in\n    tag_282:\n        /* \"#utility.yul\":5428:5650   */\n      swap3\n      swap2\n      pop\n      pop\n      jump\t// out\n        /* \"#utility.yul\":5656:5716   */\n    tag_194:\n        /* \"#utility.yul\":5684:5687   */\n      0x00\n        /* \"#utility.yul\":5705:5710   */\n      dup2\n        /* \"#utility.yul\":5698:5710   */\n      swap1\n      pop\n        /* \"#utility.yul\":5656:5716   */\n      swap2\n      swap1\n      pop\n      jump\t// out\n        /* \"#utility.yul\":5722:5864   */\n    tag_195:\n        /* \"#utility.yul\":5772:5781   */\n      0x00\n        /* \"#utility.yul\":5805:5858   */\n      tag_285\n        /* \"#utility.yul\":5823:5857   */\n      tag_286\n        /* \"#utility.yul\":5832:5856   */\n      tag_287\n        /* \"#utility.yul\":5850:5855   */\n      dup5\n        /* \"#utility.yul\":5832:5856   */\n      tag_183\n      jump\t// in\n    tag_287:\n        /* \"#utility.yul\":5823:5857   */\n      tag_194\n      jump\t// in\n    tag_286:\n        /* \"#utility.yul\":5805:5858   */\n      tag_183\n      jump\t// in\n    tag_285:\n        /* \"#utility.yul\":5792:5858   */\n      swap1\n      pop\n        /* \"#utility.yul\":5722:5864   */\n      swap2\n      swap1\n      pop\n      jump\t// out\n        /* \"#utility.yul\":5870:5996   */\n    tag_196:\n        /* \"#utility.yul\":5920:5929   */\n      0x00\n        /* \"#utility.yul\":5953:5990   */\n      tag_289\n        /* \"#utility.yul\":5984:5989   */\n      dup3\n        /* \"#utility.yul\":5953:5990   */\n      tag_195\n      jump\t// in\n    tag_289:\n        /* \"#utility.yul\":5940:5990   */\n      swap1\n      pop\n        /* \"#utility.yul\":5870:5996   */\n      swap2\n      swap1\n      pop\n      jump\t// out\n        /* \"#utility.yul\":6002:6142   */\n    tag_197:\n        /* \"#utility.yul\":6066:6075   */\n      0x00\n        /* \"#utility.yul\":6099:6136   */\n      tag_291\n        /* \"#utility.yul\":6130:6135   */\n      dup3\n        /* \"#utility.yul\":6099:6136   */\n      tag_196\n      jump\t// in\n    tag_291:\n        /* \"#utility.yul\":6086:6136   */\n      swap1\n      pop\n        /* \"#utility.yul\":6002:6142   */\n      swap2\n      swap1\n      pop\n      jump\t// out\n        /* \"#utility.yul\":6148:6307   */\n    tag_198:\n        /* \"#utility.yul\":6249:6300   */\n      tag_293\n        /* \"#utility.yul\":6294:6299   */\n      dup2\n        /* \"#utility.yul\":6249:6300   */\n      tag_197\n      jump\t// in\n    tag_293:\n        /* \"#utility.yul\":6244:6247   */\n      dup3\n        /* \"#utility.yul\":6237:6301   */\n      mstore\n        /* \"#utility.yul\":6148:6307   */\n      pop\n      pop\n      jump\t// out\n        /* \"#utility.yul\":6313:6563   */\n    tag_92:\n        /* \"#utility.yul\":6420:6424   */\n      0x00\n        /* \"#utility.yul\":6458:6460   */\n      0x20\n        /* \"#utility.yul\":6447:6456   */\n      dup3\n        /* \"#utility.yul\":6443:6461   */\n      add\n        /* \"#utility.yul\":6435:6461   */\n      swap1\n      pop\n        /* \"#utility.yul\":6471:6556   */\n      tag_295\n        /* \"#utility.yul\":6553:6554   */\n      0x00\n        /* \"#utility.yul\":6542:6551   */\n      dup4\n        /* \"#utility.yul\":6538:6555   */\n      add\n        /* \"#utility.yul\":6529:6535   */\n      dup5\n        /* \"#utility.yul\":6471:6556   */\n      tag_198\n      jump\t// in\n    tag_295:\n        /* \"#utility.yul\":6313:6563   */\n      swap3\n      swap2\n      pop\n      pop\n      jump\t// out\n        /* \"#utility.yul\":6569:6738   */\n    tag_199:\n        /* \"#utility.yul\":6653:6664   */\n      0x00\n        /* \"#utility.yul\":6687:6693   */\n      dup3\n        /* \"#utility.yul\":6682:6685   */\n      dup3\n        /* \"#utility.yul\":6675:6694   */\n      mstore\n        /* \"#utility.yul\":6727:6731   */\n      0x20\n        /* \"#utility.yul\":6722:6725   */\n      dup3\n        /* \"#utility.yul\":6718:6732   */\n      add\n        /* \"#utility.yul\":6703:6732   */\n      swap1\n      pop\n        /* \"#utility.yul\":6569:6738   */\n      swap3\n      swap2\n      pop\n      pop\n      jump\t// out\n        /* \"#utility.yul\":6744:6973   */\n    tag_200:\n        /* \"#utility.yul\":6884:6918   */\n      0x52657061796d656e7420616d6f756e74206d7573742062652067726561746572\n        /* \"#utility.yul\":6880:6881   */\n      0x00\n        /* \"#utility.yul\":6872:6878   */\n      dup3\n        /* \"#utility.yul\":6868:6882   */\n      add\n        /* \"#utility.yul\":6861:6919   */\n      mstore\n        /* \"#utility.yul\":6953:6965   */\n      0x207468616e207a65726f00000000000000000000000000000000000000000000\n        /* \"#utility.yul\":6948:6950   */\n      0x20\n        /* \"#utility.yul\":6940:6946   */\n      dup3\n        /* \"#utility.yul\":6936:6951   */\n      add\n        /* \"#utility.yul\":6929:6966   */\n      mstore\n        /* \"#utility.yul\":6744:6973   */\n      pop\n      jump\t// out\n        /* \"#utility.yul\":6979:7345   */\n    tag_201:\n        /* \"#utility.yul\":7121:7124   */\n      0x00\n        /* \"#utility.yul\":7142:7209   */\n      tag_299\n        /* \"#utility.yul\":7206:7208   */\n      0x2a\n        /* \"#utility.yul\":7201:7204   */\n      dup4\n        /* \"#utility.yul\":7142:7209   */\n      tag_199\n      jump\t// in\n    tag_299:\n        /* \"#utility.yul\":7135:7209   */\n      swap2\n      pop\n        /* \"#utility.yul\":7218:7311   */\n      tag_300\n        /* \"#utility.yul\":7307:7310   */\n      dup3\n        /* \"#utility.yul\":7218:7311   */\n      tag_200\n      jump\t// in\n    tag_300:\n        /* \"#utility.yul\":7336:7338   */\n      0x40\n        /* \"#utility.yul\":7331:7334   */\n      dup3\n        /* \"#utility.yul\":7327:7339   */\n      add\n        /* \"#utility.yul\":7320:7339   */\n      swap1\n      pop\n        /* \"#utility.yul\":6979:7345   */\n      swap2\n      swap1\n      pop\n      jump\t// out\n        /* \"#utility.yul\":7351:7770   */\n    tag_106:\n        /* \"#utility.yul\":7517:7521   */\n      0x00\n        /* \"#utility.yul\":7555:7557   */\n      0x20\n        /* \"#utility.yul\":7544:7553   */\n      dup3\n        /* \"#utility.yul\":7540:7558   */\n      add\n        /* \"#utility.yul\":7532:7558   */\n      swap1\n      pop\n        /* \"#utility.yul\":7604:7613   */\n      dup2\n        /* \"#utility.yul\":7598:7602   */\n      dup2\n        /* \"#utility.yul\":7594:7614   */\n      sub\n        /* \"#utility.yul\":7590:7591   */\n      0x00\n        /* \"#utility.yul\":7579:7588   */\n      dup4\n        /* \"#utility.yul\":7575:7592   */\n      add\n        /* \"#utility.yul\":7568:7615   */\n      mstore\n        /* \"#utility.yul\":7632:7763   */\n      tag_302\n        /* \"#utility.yul\":7758:7762   */\n      dup2\n        /* \"#utility.yul\":7632:7763   */\n      tag_201\n      jump\t// in\n    tag_302:\n        /* \"#utility.yul\":7624:7763   */\n      swap1\n      pop\n        /* \"#utility.yul\":7351:7770   */\n      swap2\n      swap1\n      pop\n      jump\t// out\n        /* \"#utility.yul\":7776:7956   */\n    tag_202:\n        /* \"#utility.yul\":7824:7901   */\n      0x4e487b7100000000000000000000000000000000000000000000000000000000\n        /* \"#utility.yul\":7821:7822   */\n      0x00\n        /* \"#utility.yul\":7814:7902   */\n      mstore\n        /* \"#utility.yul\":7921:7925   */\n      0x11\n        /* \"#utility.yul\":7918:7919   */\n      0x04\n        /* \"#utility.yul\":7911:7926   */\n      mstore\n        /* \"#utility.yul\":7945:7949   */\n      0x24\n        /* \"#utility.yul\":7942:7943   */\n      0x00\n        /* \"#utility.yul\":7935:7950   */\n      revert\n        /* \"#utility.yul\":7962:8156   */\n    tag_108:\n        /* \"#utility.yul\":8002:8006   */\n      0x00\n        /* \"#utility.yul\":8022:8042   */\n      tag_305\n        /* \"#utility.yul\":8040:8041   */\n      dup3\n        /* \"#utility.yul\":8022:8042   */\n      tag_187\n      jump\t// in\n    tag_305:\n        /* \"#utility.yul\":8017:8042   */\n      swap2\n      pop\n        /* \"#utility.yul\":8056:8076   */\n      tag_306\n        /* \"#utility.yul\":8074:8075   */\n      dup4\n        /* \"#utility.yul\":8056:8076   */\n      tag_187\n      jump\t// in\n    tag_306:\n        /* \"#utility.yul\":8051:8076   */\n      swap3\n      pop\n        /* \"#utility.yul\":8100:8101   */\n      dup3\n        /* \"#utility.yul\":8097:8098   */\n      dup3\n        /* \"#utility.yul\":8093:8102   */\n      sub\n        /* \"#utility.yul\":8085:8102   */\n      swap1\n      pop\n        /* \"#utility.yul\":8124:8125   */\n      dup2\n        /* \"#utility.yul\":8118:8122   */\n      dup2\n        /* \"#utility.yul\":8115:8126   */\n      gt\n        /* \"#utility.yul\":8112:8149   */\n      iszero\n      tag_307\n      jumpi\n        /* \"#utility.yul\":8129:8147   */\n      tag_308\n      tag_202\n      jump\t// in\n    tag_308:\n        /* \"#utility.yul\":8112:8149   */\n    tag_307:\n        /* \"#utility.yul\":7962:8156   */\n      swap3\n      swap2\n      pop\n      pop\n      jump\t// out\n        /* \"#utility.yul\":8162:8387   */\n    tag_203:\n        /* \"#utility.yul\":8302:8336   */\n      0x52657061796d656e7420616d6f756e74206578636565647320626f72726f7720\n        /* \"#utility.yul\":8298:8299   */\n      0x00\n        /* \"#utility.yul\":8290:8296   */\n      dup3\n        /* \"#utility.yul\":8286:8300   */\n      add\n        /* \"#utility.yul\":8279:8337   */\n      mstore\n        /* \"#utility.yul\":8371:8379   */\n      0x616d6f756e740000000000000000000000000000000000000000000000000000\n        /* \"#utility.yul\":8366:8368   */\n      0x20\n        /* \"#utility.yul\":8358:8364   */\n      dup3\n        /* \"#utility.yul\":8354:8369   */\n      add\n        /* \"#utility.yul\":8347:8380   */\n      mstore\n        /* \"#utility.yul\":8162:8387   */\n      pop\n      jump\t// out\n        /* \"#utility.yul\":8393:8759   */\n    tag_204:\n        /* \"#utility.yul\":8535:8538   */\n      0x00\n        /* \"#utility.yul\":8556:8623   */\n      tag_311\n        /* \"#utility.yul\":8620:8622   */\n      0x26\n        /* \"#utility.yul\":8615:8618   */\n      dup4\n        /* \"#utility.yul\":8556:8623   */\n      tag_199\n      jump\t// in\n    tag_311:\n        /* \"#utility.yul\":8549:8623   */\n      swap2\n      pop\n        /* \"#utility.yul\":8632:8725   */\n      tag_312\n        /* \"#utility.yul\":8721:8724   */\n      dup3\n        /* \"#utility.yul\":8632:8725   */\n      tag_203\n      jump\t// in\n    tag_312:\n        /* \"#utility.yul\":8750:8752   */\n      0x40\n        /* \"#utility.yul\":8745:8748   */\n      dup3\n        /* \"#utility.yul\":8741:8753   */\n      add\n        /* \"#utility.yul\":8734:8753   */\n      swap1\n      pop\n        /* \"#utility.yul\":8393:8759   */\n      swap2\n      swap1\n      pop\n      jump\t// out\n        /* \"#utility.yul\":8765:9184   */\n    tag_115:\n        /* \"#utility.yul\":8931:8935   */\n      0x00\n        /* \"#utility.yul\":8969:8971   */\n      0x20\n        /* \"#utility.yul\":8958:8967   */\n      dup3\n        /* \"#utility.yul\":8954:8972   */\n      add\n        /* \"#utility.yul\":8946:8972   */\n      swap1\n      pop\n        /* \"#utility.yul\":9018:9027   */\n      dup2\n        /* \"#utility.yul\":9012:9016   */\n      dup2\n        /* \"#utility.yul\":9008:9028   */\n      sub\n        /* \"#utility.yul\":9004:9005   */\n      0x00\n        /* \"#utility.yul\":8993:9002   */\n      dup4\n        /* \"#utility.yul\":8989:9006   */\n      add\n        /* \"#utility.yul\":8982:9029   */\n      mstore\n        /* \"#utility.yul\":9046:9177   */\n      tag_314\n        /* \"#utility.yul\":9172:9176   */\n      dup2\n        /* \"#utility.yul\":9046:9177   */\n      tag_204\n      jump\t// in\n    tag_314:\n        /* \"#utility.yul\":9038:9177   */\n      swap1\n      pop\n        /* \"#utility.yul\":8765:9184   */\n      swap2\n      swap1\n      pop\n      jump\t// out\n        /* \"#utility.yul\":9190:9370   */\n    tag_126:\n        /* \"#utility.yul\":9238:9315   */\n      0x4e487b7100000000000000000000000000000000000000000000000000000000\n        /* \"#utility.yul\":9235:9236   */\n      0x00\n        /* \"#utility.yul\":9228:9316   */\n      mstore\n        /* \"#utility.yul\":9335:9339   */\n      0x32\n        /* \"#utility.yul\":9332:9333   */\n      0x04\n        /* \"#utility.yul\":9325:9340   */\n      mstore\n        /* \"#utility.yul\":9359:9363   */\n      0x24\n        /* \"#utility.yul\":9356:9357   */\n      0x00\n        /* \"#utility.yul\":9349:9364   */\n      revert\n        /* \"#utility.yul\":9376:9567   */\n    tag_129:\n        /* \"#utility.yul\":9416:9419   */\n      0x00\n        /* \"#utility.yul\":9435:9455   */\n      tag_317\n        /* \"#utility.yul\":9453:9454   */\n      dup3\n        /* \"#utility.yul\":9435:9455   */\n      tag_187\n      jump\t// in\n    tag_317:\n        /* \"#utility.yul\":9430:9455   */\n      swap2\n      pop\n        /* \"#utility.yul\":9469:9489   */\n      tag_318\n        /* \"#utility.yul\":9487:9488   */\n      dup4\n        /* \"#utility.yul\":9469:9489   */\n      tag_187\n      jump\t// in\n    tag_318:\n        /* \"#utility.yul\":9464:9489   */\n      swap3\n      pop\n        /* \"#utility.yul\":9512:9513   */\n      dup3\n        /* \"#utility.yul\":9509:9510   */\n      dup3\n        /* \"#utility.yul\":9505:9514   */\n      add\n        /* \"#utility.yul\":9498:9514   */\n      swap1\n      pop\n        /* \"#utility.yul\":9533:9536   */\n      dup1\n        /* \"#utility.yul\":9530:9531   */\n      dup3\n        /* \"#utility.yul\":9527:9537   */\n      gt\n        /* \"#utility.yul\":9524:9560   */\n      iszero\n      tag_319\n      jumpi\n        /* \"#utility.yul\":9540:9558   */\n      tag_320\n      tag_202\n      jump\t// in\n    tag_320:\n        /* \"#utility.yul\":9524:9560   */\n    tag_319:\n        /* \"#utility.yul\":9376:9567   */\n      swap3\n      swap2\n      pop\n      pop\n      jump\t// out\n        /* \"#utility.yul\":9573:9800   */\n    tag_205:\n        /* \"#utility.yul\":9713:9747   */\n      0x4465706f73697420616d6f756e74206d75737420626520677265617465722074\n        /* \"#utility.yul\":9709:9710   */\n      0x00\n        /* \"#utility.yul\":9701:9707   */\n      dup3\n        /* \"#utility.yul\":9697:9711   */\n      add\n        /* \"#utility.yul\":9690:9748   */\n      mstore\n        /* \"#utility.yul\":9782:9792   */\n      0x68616e207a65726f000000000000000000000000000000000000000000000000\n        /* \"#utility.yul\":9777:9779   */\n      0x20\n        /* \"#utility.yul\":9769:9775   */\n      dup3\n        /* \"#utility.yul\":9765:9780   */\n      add\n        /* \"#utility.yul\":9758:9793   */\n      mstore\n        /* \"#utility.yul\":9573:9800   */\n      pop\n      jump\t// out\n        /* \"#utility.yul\":9806:10172   */\n    tag_206:\n        /* \"#utility.yul\":9948:9951   */\n      0x00\n        /* \"#utility.yul\":9969:10036   */\n      tag_323\n        /* \"#utility.yul\":10033:10035   */\n      0x28\n        /* \"#utility.yul\":10028:10031   */\n      dup4\n        /* \"#utility.yul\":9969:10036   */\n      tag_199\n      jump\t// in\n    tag_323:\n        /* \"#utility.yul\":9962:10036   */\n      swap2\n      pop\n        /* \"#utility.yul\":10045:10138   */\n      tag_324\n        /* \"#utility.yul\":10134:10137   */\n      dup3\n        /* \"#utility.yul\":10045:10138   */\n      tag_205\n      jump\t// in\n    tag_324:\n        /* \"#utility.yul\":10163:10165   */\n      0x40\n        /* \"#utility.yul\":10158:10161   */\n      dup3\n        /* \"#utility.yul\":10154:10166   */\n      add\n        /* \"#utility.yul\":10147:10166   */\n      swap1\n      pop\n        /* \"#utility.yul\":9806:10172   */\n      swap2\n      swap1\n      pop\n      jump\t// out\n        /* \"#utility.yul\":10178:10597   */\n    tag_133:\n        /* \"#utility.yul\":10344:10348   */\n      0x00\n        /* \"#utility.yul\":10382:10384   */\n      0x20\n        /* \"#utility.yul\":10371:10380   */\n      dup3\n        /* \"#utility.yul\":10367:10385   */\n      add\n        /* \"#utility.yul\":10359:10385   */\n      swap1\n      pop\n        /* \"#utility.yul\":10431:10440   */\n      dup2\n        /* \"#utility.yul\":10425:10429   */\n      dup2\n        /* \"#utility.yul\":10421:10441   */\n      sub\n        /* \"#utility.yul\":10417:10418   */\n      0x00\n        /* \"#utility.yul\":10406:10415   */\n      dup4\n        /* \"#utility.yul\":10402:10419   */\n      add\n        /* \"#utility.yul\":10395:10442   */\n      mstore\n        /* \"#utility.yul\":10459:10590   */\n      tag_326\n        /* \"#utility.yul\":10585:10589   */\n      dup2\n        /* \"#utility.yul\":10459:10590   */\n      tag_206\n      jump\t// in\n    tag_326:\n        /* \"#utility.yul\":10451:10590   */\n      swap1\n      pop\n        /* \"#utility.yul\":10178:10597   */\n      swap2\n      swap1\n      pop\n      jump\t// out\n        /* \"#utility.yul\":10603:11045   */\n    tag_135:\n        /* \"#utility.yul\":10752:10756   */\n      0x00\n        /* \"#utility.yul\":10790:10792   */\n      0x60\n        /* \"#utility.yul\":10779:10788   */\n      dup3\n        /* \"#utility.yul\":10775:10793   */\n      add\n        /* \"#utility.yul\":10767:10793   */\n      swap1\n      pop\n        /* \"#utility.yul\":10803:10874   */\n      tag_328\n        /* \"#utility.yul\":10871:10872   */\n      0x00\n        /* \"#utility.yul\":10860:10869   */\n      dup4\n        /* \"#utility.yul\":10856:10873   */\n      add\n        /* \"#utility.yul\":10847:10853   */\n      dup7\n        /* \"#utility.yul\":10803:10874   */\n      tag_193\n      jump\t// in\n    tag_328:\n        /* \"#utility.yul\":10884:10956   */\n      tag_329\n        /* \"#utility.yul\":10952:10954   */\n      0x20\n        /* \"#utility.yul\":10941:10950   */\n      dup4\n        /* \"#utility.yul\":10937:10955   */\n      add\n        /* \"#utility.yul\":10928:10934   */\n      dup6\n        /* \"#utility.yul\":10884:10956   */\n      tag_193\n      jump\t// in\n    tag_329:\n        /* \"#utility.yul\":10966:11038   */\n      tag_330\n        /* \"#utility.yul\":11034:11036   */\n      0x40\n        /* \"#utility.yul\":11023:11032   */\n      dup4\n        /* \"#utility.yul\":11019:11037   */\n      add\n        /* \"#utility.yul\":11010:11016   */\n      dup5\n        /* \"#utility.yul\":10966:11038   */\n      tag_190\n      jump\t// in\n    tag_330:\n        /* \"#utility.yul\":10603:11045   */\n      swap5\n      swap4\n      pop\n      pop\n      pop\n      pop\n      jump\t// out\n        /* \"#utility.yul\":11051:11167   */\n    tag_207:\n        /* \"#utility.yul\":11121:11142   */\n      tag_332\n        /* \"#utility.yul\":11136:11141   */\n      dup2\n        /* \"#utility.yul\":11121:11142   */\n      tag_191\n      jump\t// in\n    tag_332:\n        /* \"#utility.yul\":11114:11119   */\n      dup2\n        /* \"#utility.yul\":11111:11143   */\n      eq\n        /* \"#utility.yul\":11101:11161   */\n      tag_333\n      jumpi\n        /* \"#utility.yul\":11157:11158   */\n      0x00\n        /* \"#utility.yul\":11154:11155   */\n      dup1\n        /* \"#utility.yul\":11147:11159   */\n      revert\n        /* \"#utility.yul\":11101:11161   */\n    tag_333:\n        /* \"#utility.yul\":11051:11167   */\n      pop\n      jump\t// out\n        /* \"#utility.yul\":11173:11310   */\n    tag_208:\n        /* \"#utility.yul\":11227:11232   */\n      0x00\n        /* \"#utility.yul\":11258:11264   */\n      dup2\n        /* \"#utility.yul\":11252:11265   */\n      mload\n        /* \"#utility.yul\":11243:11265   */\n      swap1\n      pop\n        /* \"#utility.yul\":11274:11304   */\n      tag_335\n        /* \"#utility.yul\":11298:11303   */\n      dup2\n        /* \"#utility.yul\":11274:11304   */\n      tag_207\n      jump\t// in\n    tag_335:\n        /* \"#utility.yul\":11173:11310   */\n      swap3\n      swap2\n      pop\n      pop\n      jump\t// out\n        /* \"#utility.yul\":11316:11661   */\n    tag_139:\n        /* \"#utility.yul\":11383:11389   */\n      0x00\n        /* \"#utility.yul\":11432:11434   */\n      0x20\n        /* \"#utility.yul\":11420:11429   */\n      dup3\n        /* \"#utility.yul\":11411:11418   */\n      dup5\n        /* \"#utility.yul\":11407:11430   */\n      sub\n        /* \"#utility.yul\":11403:11435   */\n      slt\n        /* \"#utility.yul\":11400:11519   */\n      iszero\n      tag_337\n      jumpi\n        /* \"#utility.yul\":11438:11517   */\n      tag_338\n      tag_181\n      jump\t// in\n    tag_338:\n        /* \"#utility.yul\":11400:11519   */\n    tag_337:\n        /* \"#utility.yul\":11558:11559   */\n      0x00\n        /* \"#utility.yul\":11583:11644   */\n      tag_339\n        /* \"#utility.yul\":11636:11643   */\n      dup5\n        /* \"#utility.yul\":11627:11633   */\n      dup3\n        /* \"#utility.yul\":11616:11625   */\n      dup6\n        /* \"#utility.yul\":11612:11634   */\n      add\n        /* \"#utility.yul\":11583:11644   */\n      tag_208\n      jump\t// in\n    tag_339:\n        /* \"#utility.yul\":11573:11644   */\n      swap2\n      pop\n        /* \"#utility.yul\":11529:11654   */\n      pop\n        /* \"#utility.yul\":11316:11661   */\n      swap3\n      swap2\n      pop\n      pop\n      jump\t// out\n        /* \"#utility.yul\":11667:11893   */\n    tag_209:\n        /* \"#utility.yul\":11807:11841   */\n      0x426f72726f7720616d6f756e74206d7573742062652067726561746572207468\n        /* \"#utility.yul\":11803:11804   */\n      0x00\n        /* \"#utility.yul\":11795:11801   */\n      dup3\n        /* \"#utility.yul\":11791:11805   */\n      add\n        /* \"#utility.yul\":11784:11842   */\n      mstore\n        /* \"#utility.yul\":11876:11885   */\n      0x616e207a65726f00000000000000000000000000000000000000000000000000\n        /* \"#utility.yul\":11871:11873   */\n      0x20\n        /* \"#utility.yul\":11863:11869   */\n      dup3\n        /* \"#utility.yul\":11859:11874   */\n      add\n        /* \"#utility.yul\":11852:11886   */\n      mstore\n        /* \"#utility.yul\":11667:11893   */\n      pop\n      jump\t// out\n        /* \"#utility.yul\":11899:12265   */\n    tag_210:\n        /* \"#utility.yul\":12041:12044   */\n      0x00\n        /* \"#utility.yul\":12062:12129   */\n      tag_342\n        /* \"#utility.yul\":12126:12128   */\n      0x27\n        /* \"#utility.yul\":12121:12124   */\n      dup4\n        /* \"#utility.yul\":12062:12129   */\n      tag_199\n      jump\t// in\n    tag_342:\n        /* \"#utility.yul\":12055:12129   */\n      swap2\n      pop\n        /* \"#utility.yul\":12138:12231   */\n      tag_343\n        /* \"#utility.yul\":12227:12230   */\n      dup3\n        /* \"#utility.yul\":12138:12231   */\n      tag_209\n      jump\t// in\n    tag_343:\n        /* \"#utility.yul\":12256:12258   */\n      0x40\n        /* \"#utility.yul\":12251:12254   */\n      dup3\n        /* \"#utility.yul\":12247:12259   */\n      add\n        /* \"#utility.yul\":12240:12259   */\n      swap1\n      pop\n        /* \"#utility.yul\":11899:12265   */\n      swap2\n      swap1\n      pop\n      jump\t// out\n        /* \"#utility.yul\":12271:12690   */\n    tag_147:\n        /* \"#utility.yul\":12437:12441   */\n      0x00\n        /* \"#utility.yul\":12475:12477   */\n      0x20\n        /* \"#utility.yul\":12464:12473   */\n      dup3\n        /* \"#utility.yul\":12460:12478   */\n      add\n        /* \"#utility.yul\":12452:12478   */\n      swap1\n      pop\n        /* \"#utility.yul\":12524:12533   */\n      dup2\n        /* \"#utility.yul\":12518:12522   */\n      dup2\n        /* \"#utility.yul\":12514:12534   */\n      sub\n        /* \"#utility.yul\":12510:12511   */\n      0x00\n        /* \"#utility.yul\":12499:12508   */\n      dup4\n        /* \"#utility.yul\":12495:12512   */\n      add\n        /* \"#utility.yul\":12488:12535   */\n      mstore\n        /* \"#utility.yul\":12552:12683   */\n      tag_345\n        /* \"#utility.yul\":12678:12682   */\n      dup2\n        /* \"#utility.yul\":12552:12683   */\n      tag_210\n      jump\t// in\n    tag_345:\n        /* \"#utility.yul\":12544:12683   */\n      swap1\n      pop\n        /* \"#utility.yul\":12271:12690   */\n      swap2\n      swap1\n      pop\n      jump\t// out\n        /* \"#utility.yul\":12696:12869   */\n    tag_211:\n        /* \"#utility.yul\":12836:12861   */\n      0x496e73756666696369656e7420636f6c6c61746572616c000000000000000000\n        /* \"#utility.yul\":12832:12833   */\n      0x00\n        /* \"#utility.yul\":12824:12830   */\n      dup3\n        /* \"#utility.yul\":12820:12834   */\n      add\n        /* \"#utility.yul\":12813:12862   */\n      mstore\n        /* \"#utility.yul\":12696:12869   */\n      pop\n      jump\t// out\n        /* \"#utility.yul\":12875:13241   */\n    tag_212:\n        /* \"#utility.yul\":13017:13020   */\n      0x00\n        /* \"#utility.yul\":13038:13105   */\n      tag_348\n        /* \"#utility.yul\":13102:13104   */\n      0x17\n        /* \"#utility.yul\":13097:13100   */\n      dup4\n        /* \"#utility.yul\":13038:13105   */\n      tag_199\n      jump\t// in\n    tag_348:\n        /* \"#utility.yul\":13031:13105   */\n      swap2\n      pop\n        /* \"#utility.yul\":13114:13207   */\n      tag_349\n        /* \"#utility.yul\":13203:13206   */\n      dup3\n        /* \"#utility.yul\":13114:13207   */\n      tag_211\n      jump\t// in\n    tag_349:\n        /* \"#utility.yul\":13232:13234   */\n      0x20\n        /* \"#utility.yul\":13227:13230   */\n      dup3\n        /* \"#utility.yul\":13223:13235   */\n      add\n        /* \"#utility.yul\":13216:13235   */\n      swap1\n      pop\n        /* \"#utility.yul\":12875:13241   */\n      swap2\n      swap1\n      pop\n      jump\t// out\n        /* \"#utility.yul\":13247:13666   */\n    tag_151:\n        /* \"#utility.yul\":13413:13417   */\n      0x00\n        /* \"#utility.yul\":13451:13453   */\n      0x20\n        /* \"#utility.yul\":13440:13449   */\n      dup3\n        /* \"#utility.yul\":13436:13454   */\n      add\n        /* \"#utility.yul\":13428:13454   */\n      swap1\n      pop\n        /* \"#utility.yul\":13500:13509   */\n      dup2\n        /* \"#utility.yul\":13494:13498   */\n      dup2\n        /* \"#utility.yul\":13490:13510   */\n      sub\n        /* \"#utility.yul\":13486:13487   */\n      0x00\n        /* \"#utility.yul\":13475:13484   */\n      dup4\n        /* \"#utility.yul\":13471:13488   */\n      add\n        /* \"#utility.yul\":13464:13511   */\n      mstore\n        /* \"#utility.yul\":13528:13659   */\n      tag_351\n        /* \"#utility.yul\":13654:13658   */\n      dup2\n        /* \"#utility.yul\":13528:13659   */\n      tag_212\n      jump\t// in\n    tag_351:\n        /* \"#utility.yul\":13520:13659   */\n      swap1\n      pop\n        /* \"#utility.yul\":13247:13666   */\n      swap2\n      swap1\n      pop\n      jump\t// out\n        /* \"#utility.yul\":13672:13815   */\n    tag_213:\n        /* \"#utility.yul\":13729:13734   */\n      0x00\n        /* \"#utility.yul\":13760:13766   */\n      dup2\n        /* \"#utility.yul\":13754:13767   */\n      mload\n        /* \"#utility.yul\":13745:13767   */\n      swap1\n      pop\n        /* \"#utility.yul\":13776:13809   */\n      tag_353\n        /* \"#utility.yul\":13803:13808   */\n      dup2\n        /* \"#utility.yul\":13776:13809   */\n      tag_188\n      jump\t// in\n    tag_353:\n        /* \"#utility.yul\":13672:13815   */\n      swap3\n      swap2\n      pop\n      pop\n      jump\t// out\n        /* \"#utility.yul\":13821:14172   */\n    tag_156:\n        /* \"#utility.yul\":13891:13897   */\n      0x00\n        /* \"#utility.yul\":13940:13942   */\n      0x20\n        /* \"#utility.yul\":13928:13937   */\n      dup3\n        /* \"#utility.yul\":13919:13926   */\n      dup5\n        /* \"#utility.yul\":13915:13938   */\n      sub\n        /* \"#utility.yul\":13911:13943   */\n      slt\n        /* \"#utility.yul\":13908:14027   */\n      iszero\n      tag_355\n      jumpi\n        /* \"#utility.yul\":13946:14025   */\n      tag_356\n      tag_181\n      jump\t// in\n    tag_356:\n        /* \"#utility.yul\":13908:14027   */\n    tag_355:\n        /* \"#utility.yul\":14066:14067   */\n      0x00\n        /* \"#utility.yul\":14091:14155   */\n      tag_357\n        /* \"#utility.yul\":14147:14154   */\n      dup5\n        /* \"#utility.yul\":14138:14144   */\n      dup3\n        /* \"#utility.yul\":14127:14136   */\n      dup6\n        /* \"#utility.yul\":14123:14145   */\n      add\n        /* \"#utility.yul\":14091:14155   */\n      tag_213\n      jump\t// in\n    tag_357:\n        /* \"#utility.yul\":14081:14155   */\n      swap2\n      pop\n        /* \"#utility.yul\":14037:14165   */\n      pop\n        /* \"#utility.yul\":13821:14172   */\n      swap3\n      swap2\n      pop\n      pop\n      jump\t// out\n        /* \"#utility.yul\":14178:14401   */\n    tag_214:\n        /* \"#utility.yul\":14318:14352   */\n      0x496e73756666696369656e74206c697175696469747920666f7220626f72726f\n        /* \"#utility.yul\":14314:14315   */\n      0x00\n        /* \"#utility.yul\":14306:14312   */\n      dup3\n        /* \"#utility.yul\":14302:14316   */\n      add\n        /* \"#utility.yul\":14295:14353   */\n      mstore\n        /* \"#utility.yul\":14387:14393   */\n      0x77696e6700000000000000000000000000000000000000000000000000000000\n        /* \"#utility.yul\":14382:14384   */\n      0x20\n        /* \"#utility.yul\":14374:14380   */\n      dup3\n        /* \"#utility.yul\":14370:14385   */\n      add\n        /* \"#utility.yul\":14363:14394   */\n      mstore\n        /* \"#utility.yul\":14178:14401   */\n      pop\n      jump\t// out\n        /* \"#utility.yul\":14407:14773   */\n    tag_215:\n        /* \"#utility.yul\":14549:14552   */\n      0x00\n        /* \"#utility.yul\":14570:14637   */\n      tag_360\n        /* \"#utility.yul\":14634:14636   */\n      0x24\n        /* \"#utility.yul\":14629:14632   */\n      dup4\n        /* \"#utility.yul\":14570:14637   */\n      tag_199\n      jump\t// in\n    tag_360:\n        /* \"#utility.yul\":14563:14637   */\n      swap2\n      pop\n        /* \"#utility.yul\":14646:14739   */\n      tag_361\n        /* \"#utility.yul\":14735:14738   */\n      dup3\n        /* \"#utility.yul\":14646:14739   */\n      tag_214\n      jump\t// in\n    tag_361:\n        /* \"#utility.yul\":14764:14766   */\n      0x40\n        /* \"#utility.yul\":14759:14762   */\n      dup3\n        /* \"#utility.yul\":14755:14767   */\n      add\n        /* \"#utility.yul\":14748:14767   */\n      swap1\n      pop\n        /* \"#utility.yul\":14407:14773   */\n      swap2\n      swap1\n      pop\n      jump\t// out\n        /* \"#utility.yul\":14779:15198   */\n    tag_159:\n        /* \"#utility.yul\":14945:14949   */\n      0x00\n        /* \"#utility.yul\":14983:14985   */\n      0x20\n        /* \"#utility.yul\":14972:14981   */\n      dup3\n        /* \"#utility.yul\":14968:14986   */\n      add\n        /* \"#utility.yul\":14960:14986   */\n      swap1\n      pop\n        /* \"#utility.yul\":15032:15041   */\n      dup2\n        /* \"#utility.yul\":15026:15030   */\n      dup2\n        /* \"#utility.yul\":15022:15042   */\n      sub\n        /* \"#utility.yul\":15018:15019   */\n      0x00\n        /* \"#utility.yul\":15007:15016   */\n      dup4\n        /* \"#utility.yul\":15003:15020   */\n      add\n        /* \"#utility.yul\":14996:15043   */\n      mstore\n        /* \"#utility.yul\":15060:15191   */\n      tag_363\n        /* \"#utility.yul\":15186:15190   */\n      dup2\n        /* \"#utility.yul\":15060:15191   */\n      tag_215\n      jump\t// in\n    tag_363:\n        /* \"#utility.yul\":15052:15191   */\n      swap1\n      pop\n        /* \"#utility.yul\":14779:15198   */\n      swap2\n      swap1\n      pop\n      jump\t// out\n        /* \"#utility.yul\":15204:15385   */\n    tag_216:\n        /* \"#utility.yul\":15344:15377   */\n      0x5265656e7472616e637947756172643a207265656e7472616e742063616c6c00\n        /* \"#utility.yul\":15340:15341   */\n      0x00\n        /* \"#utility.yul\":15332:15338   */\n      dup3\n        /* \"#utility.yul\":15328:15342   */\n      add\n        /* \"#utility.yul\":15321:15378   */\n      mstore\n        /* \"#utility.yul\":15204:15385   */\n      pop\n      jump\t// out\n        /* \"#utility.yul\":15391:15757   */\n    tag_217:\n        /* \"#utility.yul\":15533:15536   */\n      0x00\n        /* \"#utility.yul\":15554:15621   */\n      tag_366\n        /* \"#utility.yul\":15618:15620   */\n      0x1f\n        /* \"#utility.yul\":15613:15616   */\n      dup4\n        /* \"#utility.yul\":15554:15621   */\n      tag_199\n      jump\t// in\n    tag_366:\n        /* \"#utility.yul\":15547:15621   */\n      swap2\n      pop\n        /* \"#utility.yul\":15630:15723   */\n      tag_367\n        /* \"#utility.yul\":15719:15722   */\n      dup3\n        /* \"#utility.yul\":15630:15723   */\n      tag_216\n      jump\t// in\n    tag_367:\n        /* \"#utility.yul\":15748:15750   */\n      0x20\n        /* \"#utility.yul\":15743:15746   */\n      dup3\n        /* \"#utility.yul\":15739:15751   */\n      add\n        /* \"#utility.yul\":15732:15751   */\n      swap1\n      pop\n        /* \"#utility.yul\":15391:15757   */\n      swap2\n      swap1\n      pop\n      jump\t// out\n        /* \"#utility.yul\":15763:16182   */\n    tag_176:\n        /* \"#utility.yul\":15929:15933   */\n      0x00\n        /* \"#utility.yul\":15967:15969   */\n      0x20\n        /* \"#utility.yul\":15956:15965   */\n      dup3\n        /* \"#utility.yul\":15952:15970   */\n      add\n        /* \"#utility.yul\":15944:15970   */\n      swap1\n      pop\n        /* \"#utility.yul\":16016:16025   */\n      dup2\n        /* \"#utility.yul\":16010:16014   */\n      dup2\n        /* \"#utility.yul\":16006:16026   */\n      sub\n        /* \"#utility.yul\":16002:16003   */\n      0x00\n        /* \"#utility.yul\":15991:16000   */\n      dup4\n        /* \"#utility.yul\":15987:16004   */\n      add\n        /* \"#utility.yul\":15980:16027   */\n      mstore\n        /* \"#utility.yul\":16044:16175   */\n      tag_369\n        /* \"#utility.yul\":16170:16174   */\n      dup2\n        /* \"#utility.yul\":16044:16175   */\n      tag_217\n      jump\t// in\n    tag_369:\n        /* \"#utility.yul\":16036:16175   */\n      swap1\n      pop\n        /* \"#utility.yul\":15763:16182   */\n      swap2\n      swap1\n      pop\n      jump\t// out\n\n    auxdata: 0xa2646970667358221220df86d415bd6ab23ba3da2db67ad444efe304d82cdb91a32140adbbbd8c20ee0e64736f6c63430008180033\n}\n",
				"bytecode": {
					"linkReferences": {},
					"object": "6080604052600a60015534801562000015575f80fd5b50604051620019373803806200193783398181016040528101906200003b919062000101565b60015f819055508060095f6101000a81548173ffffffffffffffffffffffffffffffffffffffff021916908373ffffffffffffffffffffffffffffffffffffffff1602179055505062000131565b5f80fd5b5f73ffffffffffffffffffffffffffffffffffffffff82169050919050565b5f620000b8826200008d565b9050919050565b5f620000cb82620000ac565b9050919050565b620000dd81620000bf565b8114620000e8575f80fd5b50565b5f81519050620000fb81620000d2565b92915050565b5f6020828403121562000119576200011862000089565b5b5f6200012884828501620000eb565b91505092915050565b6117f8806200013f5f395ff3fe608060405234801561000f575f80fd5b5060043610610114575f3560e01c80634b8a3529116100a0578063c62556261161006f578063c625562614610328578063cc218ece14610358578063e2fdcc1714610388578063e80894b6146103a6578063f970c3b7146103d657610114565b80634b8a35291461028e5780636805d6ad146102aa5780639ee7f702146102da578063afd927621461030a57610114565b80632ae8bdfe116100e75780632ae8bdfe146101c657806334931b4b146101e25780633b591d6a14610212578063436d80391461024257806347e7ef241461027257610114565b806322867d7814610118578063234a14f91461013457806323d0fda114610164578063272d1b8e14610194575b5f80fd5b610132600480360381019061012d9190610ff5565b6103f2565b005b61014e60048036038101906101499190611033565b610645565b60405161015b9190611080565b60405180910390f35b61017e60048036038101906101799190611099565b610665565b60405161018b9190611080565b60405180910390f35b6101ae60048036038101906101a99190611033565b61067a565b6040516101bd939291906110c4565b60405180910390f35b6101e060048036038101906101db91906110f9565b6106ab565b005b6101fc60048036038101906101f79190611149565b6106b0565b6040516102099190611080565b60405180910390f35b61022c600480360381019061022791906110f9565b6106b6565b604051610239919061118e565b60405180910390f35b61025c60048036038101906102579190611033565b6107a1565b6040516102699190611080565b60405180910390f35b61028c60048036038101906102879190610ff5565b6107c1565b005b6102a860048036038101906102a39190610ff5565b610978565b005b6102c460048036038101906102bf9190611033565b610d4b565b6040516102d19190611080565b60405180910390f35b6102f460048036038101906102ef91906111a7565b610dcd565b6040516103019190611080565b60405180910390f35b610312610dd5565b60405161031f9190611080565b60405180910390f35b610342600480360381019061033d9190611149565b610ddb565b60405161034f9190611206565b60405180910390f35b610372600480360381019061036d9190611033565b610e16565b60405161037f9190611080565b60405180910390f35b610390610e36565b60405161039d919061127a565b60405180910390f35b6103c060048036038101906103bb9190611099565b610e5b565b6040516103cd9190611080565b60405180910390f35b6103f060048036038101906103eb91906110f9565b610e70565b005b6103fa610e75565b5f811161043c576040517f08c379a000000000000000000000000000000000000000000000000000000000815260040161043390611313565b60405180910390fd5b8060045f8473ffffffffffffffffffffffffffffffffffffffff1673ffffffffffffffffffffffffffffffffffffffff1681526020019081526020015f205f3373ffffffffffffffffffffffffffffffffffffffff1673ffffffffffffffffffffffffffffffffffffffff1681526020019081526020015f205f8282546104c3919061135e565b925050819055508060065f8473ffffffffffffffffffffffffffffffffffffffff1673ffffffffffffffffffffffffffffffffffffffff1681526020019081526020015f205f828254610516919061135e565b925050819055508060075f3373ffffffffffffffffffffffffffffffffffffffff1673ffffffffffffffffffffffffffffffffffffffff1681526020019081526020015f205f828254610569919061135e565b925050819055505f61057b8333610ec2565b90508160045f8573ffffffffffffffffffffffffffffffffffffffff1673ffffffffffffffffffffffffffffffffffffffff1681526020019081526020015f205f3373ffffffffffffffffffffffffffffffffffffffff1673ffffffffffffffffffffffffffffffffffffffff1681526020019081526020015f20541015610638576040517f08c379a000000000000000000000000000000000000000000000000000000000815260040161062f90611401565b60405180910390fd5b50610641610f5b565b5050565b6004602052815f5260405f20602052805f5260405f205f91509150505481565b6007602052805f5260405f205f915090505481565b6008602052815f5260405f20602052805f5260405f205f9150915050805f0154908060010154908060020154905083565b505050565b5f919050565b5f805f90505f5b6003805490508110156107985760025f600383815481106106e1576106e061141f565b5b905f5260205f20015f9054906101000a900473ffffffffffffffffffffffffffffffffffffffff1673ffffffffffffffffffffffffffffffffffffffff1673ffffffffffffffffffffffffffffffffffffffff1681526020019081526020015f205f8773ffffffffffffffffffffffffffffffffffffffff1673ffffffffffffffffffffffffffffffffffffffff1681526020019081526020015f205482610789919061144c565b915080806001019150506106bd565b50509392505050565b6002602052815f5260405f20602052805f5260405f205f91509150505481565b5f8111610803576040517f08c379a00000000000000000000000000000000000000000000000000000000081526004016107fa906114ef565b60405180910390fd5b8173ffffffffffffffffffffffffffffffffffffffff166323b872dd3330846040518463ffffffff1660e01b81526004016108409392919061150d565b6020604051808303815f875af115801561085c573d5f803e3d5ffd5b505050506040513d601f19601f82011682018060405250810190610880919061156c565b508060025f8473ffffffffffffffffffffffffffffffffffffffff1673ffffffffffffffffffffffffffffffffffffffff1681526020019081526020015f205f3373ffffffffffffffffffffffffffffffffffffffff1673ffffffffffffffffffffffffffffffffffffffff1681526020019081526020015f205f828254610908919061144c565b925050819055503373ffffffffffffffffffffffffffffffffffffffff168273ffffffffffffffffffffffffffffffffffffffff167f1de3ece35391f6bba650736f2d5d3f12e2cfc54538a340cc5d762d34ca449de78360405161096c9190611080565b60405180910390a35050565b610980610e75565b5f81116109c2576040517f08c379a00000000000000000000000000000000000000000000000000000000081526004016109b990611607565b60405180910390fd5b6109cd3383836106b6565b610a0c576040517f08c379a0000000000000000000000000000000000000000000000000000000008152600401610a039061166f565b60405180910390fd5b808273ffffffffffffffffffffffffffffffffffffffff166370a08231306040518263ffffffff1660e01b8152600401610a469190611206565b602060405180830381865afa158015610a61573d5f803e3d5ffd5b505050506040513d601f19601f82011682018060405250810190610a8591906116a1565b1015610ac6576040517f08c379a0000000000000000000000000000000000000000000000000000000008152600401610abd9061173c565b60405180910390fd5b8060045f8473ffffffffffffffffffffffffffffffffffffffff1673ffffffffffffffffffffffffffffffffffffffff1681526020019081526020015f205f3373ffffffffffffffffffffffffffffffffffffffff1673ffffffffffffffffffffffffffffffffffffffff1681526020019081526020015f205f828254610b4d919061144c565b925050819055508060065f8473ffffffffffffffffffffffffffffffffffffffff1673ffffffffffffffffffffffffffffffffffffffff1681526020019081526020015f205f828254610ba0919061144c565b925050819055508060075f3373ffffffffffffffffffffffffffffffffffffffff1673ffffffffffffffffffffffffffffffffffffffff1681526020019081526020015f205f828254610bf3919061144c565b92505081905550610c0d8233610c08846106b0565b610e70565b5f4290505f81600154610c20919061144c565b905060405180606001604052808481526020018281526020014281525060085f3373ffffffffffffffffffffffffffffffffffffffff1673ffffffffffffffffffffffffffffffffffffffff1681526020019081526020015f205f8673ffffffffffffffffffffffffffffffffffffffff1673ffffffffffffffffffffffffffffffffffffffff1681526020019081526020015f205f820151815f015560208201518160010155604082015181600201559050508373ffffffffffffffffffffffffffffffffffffffff163373ffffffffffffffffffffffffffffffffffffffff167fc1cba78646fef030830d099fc25cb498953709c9d47d883848f81fd207174c9f858442604051610d35939291906110c4565b60405180910390a35050610d47610f5b565b5050565b5f60025f8373ffffffffffffffffffffffffffffffffffffffff1673ffffffffffffffffffffffffffffffffffffffff1681526020019081526020015f205f8473ffffffffffffffffffffffffffffffffffffffff1673ffffffffffffffffffffffffffffffffffffffff1681526020019081526020015f2054905092915050565b5f9392505050565b60015481565b60038181548110610dea575f80fd5b905f5260205f20015f915054906101000a900473ffffffffffffffffffffffffffffffffffffffff1681565b6005602052815f5260405f20602052805f5260405f205f91509150505481565b60095f9054906101000a900473ffffffffffffffffffffffffffffffffffffffff1681565b6006602052805f5260405f205f915090505481565b505050565b60025f5403610eb9576040517f08c379a0000000000000000000000000000000000000000000000000000000008152600401610eb0906117a4565b60405180910390fd5b60025f81905550565b5f8060085f8573ffffffffffffffffffffffffffffffffffffffff1673ffffffffffffffffffffffffffffffffffffffff1681526020019081526020015f205f8473ffffffffffffffffffffffffffffffffffffffff1673ffffffffffffffffffffffffffffffffffffffff1681526020019081526020015f20905080600201548160010154610f52919061144c565b91505092915050565b60015f81905550565b5f80fd5b5f73ffffffffffffffffffffffffffffffffffffffff82169050919050565b5f610f9182610f68565b9050919050565b610fa181610f87565b8114610fab575f80fd5b50565b5f81359050610fbc81610f98565b92915050565b5f819050919050565b610fd481610fc2565b8114610fde575f80fd5b50565b5f81359050610fef81610fcb565b92915050565b5f806040838503121561100b5761100a610f64565b5b5f61101885828601610fae565b925050602061102985828601610fe1565b9150509250929050565b5f806040838503121561104957611048610f64565b5b5f61105685828601610fae565b925050602061106785828601610fae565b9150509250929050565b61107a81610fc2565b82525050565b5f6020820190506110935f830184611071565b92915050565b5f602082840312156110ae576110ad610f64565b5b5f6110bb84828501610fae565b91505092915050565b5f6060820190506110d75f830186611071565b6110e46020830185611071565b6110f16040830184611071565b949350505050565b5f805f606084860312156111105761110f610f64565b5b5f61111d86828701610fae565b935050602061112e86828701610fae565b925050604061113f86828701610fe1565b9150509250925092565b5f6020828403121561115e5761115d610f64565b5b5f61116b84828501610fe1565b91505092915050565b5f8115159050919050565b61118881611174565b82525050565b5f6020820190506111a15f83018461117f565b92915050565b5f805f606084860312156111be576111bd610f64565b5b5f6111cb86828701610fae565b93505060206111dc86828701610fe1565b92505060406111ed86828701610fe1565b9150509250925092565b61120081610f87565b82525050565b5f6020820190506112195f8301846111f7565b92915050565b5f819050919050565b5f61124261123d61123884610f68565b61121f565b610f68565b9050919050565b5f61125382611228565b9050919050565b5f61126482611249565b9050919050565b6112748161125a565b82525050565b5f60208201905061128d5f83018461126b565b92915050565b5f82825260208201905092915050565b7f52657061796d656e7420616d6f756e74206d75737420626520677265617465725f8201527f207468616e207a65726f00000000000000000000000000000000000000000000602082015250565b5f6112fd602a83611293565b9150611308826112a3565b604082019050919050565b5f6020820190508181035f83015261132a816112f1565b9050919050565b7f4e487b71000000000000000000000000000000000000000000000000000000005f52601160045260245ffd5b5f61136882610fc2565b915061137383610fc2565b925082820390508181111561138b5761138a611331565b5b92915050565b7f52657061796d656e7420616d6f756e74206578636565647320626f72726f77205f8201527f616d6f756e740000000000000000000000000000000000000000000000000000602082015250565b5f6113eb602683611293565b91506113f682611391565b604082019050919050565b5f6020820190508181035f830152611418816113df565b9050919050565b7f4e487b71000000000000000000000000000000000000000000000000000000005f52603260045260245ffd5b5f61145682610fc2565b915061146183610fc2565b925082820190508082111561147957611478611331565b5b92915050565b7f4465706f73697420616d6f756e74206d757374206265206772656174657220745f8201527f68616e207a65726f000000000000000000000000000000000000000000000000602082015250565b5f6114d9602883611293565b91506114e48261147f565b604082019050919050565b5f6020820190508181035f830152611506816114cd565b9050919050565b5f6060820190506115205f8301866111f7565b61152d60208301856111f7565b61153a6040830184611071565b949350505050565b61154b81611174565b8114611555575f80fd5b50565b5f8151905061156681611542565b92915050565b5f6020828403121561158157611580610f64565b5b5f61158e84828501611558565b91505092915050565b7f426f72726f7720616d6f756e74206d75737420626520677265617465722074685f8201527f616e207a65726f00000000000000000000000000000000000000000000000000602082015250565b5f6115f1602783611293565b91506115fc82611597565b604082019050919050565b5f6020820190508181035f83015261161e816115e5565b9050919050565b7f496e73756666696369656e7420636f6c6c61746572616c0000000000000000005f82015250565b5f611659601783611293565b915061166482611625565b602082019050919050565b5f6020820190508181035f8301526116868161164d565b9050919050565b5f8151905061169b81610fcb565b92915050565b5f602082840312156116b6576116b5610f64565b5b5f6116c38482850161168d565b91505092915050565b7f496e73756666696369656e74206c697175696469747920666f7220626f72726f5f8201527f77696e6700000000000000000000000000000000000000000000000000000000602082015250565b5f611726602483611293565b9150611731826116cc565b604082019050919050565b5f6020820190508181035f8301526117538161171a565b9050919050565b7f5265656e7472616e637947756172643a207265656e7472616e742063616c6c005f82015250565b5f61178e601f83611293565b91506117998261175a565b602082019050919050565b5f6020820190508181035f8301526117bb81611782565b905091905056fea2646970667358221220df86d415bd6ab23ba3da2db67ad444efe304d82cdb91a32140adbbbd8c20ee0e64736f6c63430008180033",
					"opcodes": "PUSH1 0x80 PUSH1 0x40 MSTORE PUSH1 0xA PUSH1 0x1 SSTORE CALLVALUE DUP1 ISZERO PUSH3 0x15 JUMPI PUSH0 DUP1 REVERT JUMPDEST POP PUSH1 0x40 MLOAD PUSH3 0x1937 CODESIZE SUB DUP1 PUSH3 0x1937 DUP4 CODECOPY DUP2 DUP2 ADD PUSH1 0x40 MSTORE DUP2 ADD SWAP1 PUSH3 0x3B SWAP2 SWAP1 PUSH3 0x101 JUMP JUMPDEST PUSH1 0x1 PUSH0 DUP2 SWAP1 SSTORE POP DUP1 PUSH1 0x9 PUSH0 PUSH2 0x100 EXP DUP2 SLOAD DUP2 PUSH20 0xFFFFFFFFFFFFFFFFFFFFFFFFFFFFFFFFFFFFFFFF MUL NOT AND SWAP1 DUP4 PUSH20 0xFFFFFFFFFFFFFFFFFFFFFFFFFFFFFFFFFFFFFFFF AND MUL OR SWAP1 SSTORE POP POP PUSH3 0x131 JUMP JUMPDEST PUSH0 DUP1 REVERT JUMPDEST PUSH0 PUSH20 0xFFFFFFFFFFFFFFFFFFFFFFFFFFFFFFFFFFFFFFFF DUP3 AND SWAP1 POP SWAP2 SWAP1 POP JUMP JUMPDEST PUSH0 PUSH3 0xB8 DUP3 PUSH3 0x8D JUMP JUMPDEST SWAP1 POP SWAP2 SWAP1 POP JUMP JUMPDEST PUSH0 PUSH3 0xCB DUP3 PUSH3 0xAC JUMP JUMPDEST SWAP1 POP SWAP2 SWAP1 POP JUMP JUMPDEST PUSH3 0xDD DUP2 PUSH3 0xBF JUMP JUMPDEST DUP2 EQ PUSH3 0xE8 JUMPI PUSH0 DUP1 REVERT JUMPDEST POP JUMP JUMPDEST PUSH0 DUP2 MLOAD SWAP1 POP PUSH3 0xFB DUP2 PUSH3 0xD2 JUMP JUMPDEST SWAP3 SWAP2 POP POP JUMP JUMPDEST PUSH0 PUSH1 0x20 DUP3 DUP5 SUB SLT ISZERO PUSH3 0x119 JUMPI PUSH3 0x118 PUSH3 0x89 JUMP JUMPDEST JUMPDEST PUSH0 PUSH3 0x128 DUP5 DUP3 DUP6 ADD PUSH3 0xEB JUMP JUMPDEST SWAP2 POP POP SWAP3 SWAP2 POP POP JUMP JUMPDEST PUSH2 0x17F8 DUP1 PUSH3 0x13F PUSH0 CODECOPY PUSH0 RETURN INVALID PUSH1 0x80 PUSH1 0x40 MSTORE CALLVALUE DUP1 ISZERO PUSH2 0xF JUMPI PUSH0 DUP1 REVERT JUMPDEST POP PUSH1 0x4 CALLDATASIZE LT PUSH2 0x114 JUMPI PUSH0 CALLDATALOAD PUSH1 0xE0 SHR DUP1 PUSH4 0x4B8A3529 GT PUSH2 0xA0 JUMPI DUP1 PUSH4 0xC6255626 GT PUSH2 0x6F JUMPI DUP1 PUSH4 0xC6255626 EQ PUSH2 0x328 JUMPI DUP1 PUSH4 0xCC218ECE EQ PUSH2 0x358 JUMPI DUP1 PUSH4 0xE2FDCC17 EQ PUSH2 0x388 JUMPI DUP1 PUSH4 0xE80894B6 EQ PUSH2 0x3A6 JUMPI DUP1 PUSH4 0xF970C3B7 EQ PUSH2 0x3D6 JUMPI PUSH2 0x114 JUMP JUMPDEST DUP1 PUSH4 0x4B8A3529 EQ PUSH2 0x28E JUMPI DUP1 PUSH4 0x6805D6AD EQ PUSH2 0x2AA JUMPI DUP1 PUSH4 0x9EE7F702 EQ PUSH2 0x2DA JUMPI DUP1 PUSH4 0xAFD92762 EQ PUSH2 0x30A JUMPI PUSH2 0x114 JUMP JUMPDEST DUP1 PUSH4 0x2AE8BDFE GT PUSH2 0xE7 JUMPI DUP1 PUSH4 0x2AE8BDFE EQ PUSH2 0x1C6 JUMPI DUP1 PUSH4 0x34931B4B EQ PUSH2 0x1E2 JUMPI DUP1 PUSH4 0x3B591D6A EQ PUSH2 0x212 JUMPI DUP1 PUSH4 0x436D8039 EQ PUSH2 0x242 JUMPI DUP1 PUSH4 0x47E7EF24 EQ PUSH2 0x272 JUMPI PUSH2 0x114 JUMP JUMPDEST DUP1 PUSH4 0x22867D78 EQ PUSH2 0x118 JUMPI DUP1 PUSH4 0x234A14F9 EQ PUSH2 0x134 JUMPI DUP1 PUSH4 0x23D0FDA1 EQ PUSH2 0x164 JUMPI DUP1 PUSH4 0x272D1B8E EQ PUSH2 0x194 JUMPI JUMPDEST PUSH0 DUP1 REVERT JUMPDEST PUSH2 0x132 PUSH1 0x4 DUP1 CALLDATASIZE SUB DUP2 ADD SWAP1 PUSH2 0x12D SWAP2 SWAP1 PUSH2 0xFF5 JUMP JUMPDEST PUSH2 0x3F2 JUMP JUMPDEST STOP JUMPDEST PUSH2 0x14E PUSH1 0x4 DUP1 CALLDATASIZE SUB DUP2 ADD SWAP1 PUSH2 0x149 SWAP2 SWAP1 PUSH2 0x1033 JUMP JUMPDEST PUSH2 0x645 JUMP JUMPDEST PUSH1 0x40 MLOAD PUSH2 0x15B SWAP2 SWAP1 PUSH2 0x1080 JUMP JUMPDEST PUSH1 0x40 MLOAD DUP1 SWAP2 SUB SWAP1 RETURN JUMPDEST PUSH2 0x17E PUSH1 0x4 DUP1 CALLDATASIZE SUB DUP2 ADD SWAP1 PUSH2 0x179 SWAP2 SWAP1 PUSH2 0x1099 JUMP JUMPDEST PUSH2 0x665 JUMP JUMPDEST PUSH1 0x40 MLOAD PUSH2 0x18B SWAP2 SWAP1 PUSH2 0x1080 JUMP JUMPDEST PUSH1 0x40 MLOAD DUP1 SWAP2 SUB SWAP1 RETURN JUMPDEST PUSH2 0x1AE PUSH1 0x4 DUP1 CALLDATASIZE SUB DUP2 ADD SWAP1 PUSH2 0x1A9 SWAP2 SWAP1 PUSH2 0x1033 JUMP JUMPDEST PUSH2 0x67A JUMP JUMPDEST PUSH1 0x40 MLOAD PUSH2 0x1BD SWAP4 SWAP3 SWAP2 SWAP1 PUSH2 0x10C4 JUMP JUMPDEST PUSH1 0x40 MLOAD DUP1 SWAP2 SUB SWAP1 RETURN JUMPDEST PUSH2 0x1E0 PUSH1 0x4 DUP1 CALLDATASIZE SUB DUP2 ADD SWAP1 PUSH2 0x1DB SWAP2 SWAP1 PUSH2 0x10F9 JUMP JUMPDEST PUSH2 0x6AB JUMP JUMPDEST STOP JUMPDEST PUSH2 0x1FC PUSH1 0x4 DUP1 CALLDATASIZE SUB DUP2 ADD SWAP1 PUSH2 0x1F7 SWAP2 SWAP1 PUSH2 0x1149 JUMP JUMPDEST PUSH2 0x6B0 JUMP JUMPDEST PUSH1 0x40 MLOAD PUSH2 0x209 SWAP2 SWAP1 PUSH2 0x1080 JUMP JUMPDEST PUSH1 0x40 MLOAD DUP1 SWAP2 SUB SWAP1 RETURN JUMPDEST PUSH2 0x22C PUSH1 0x4 DUP1 CALLDATASIZE SUB DUP2 ADD SWAP1 PUSH2 0x227 SWAP2 SWAP1 PUSH2 0x10F9 JUMP JUMPDEST PUSH2 0x6B6 JUMP JUMPDEST PUSH1 0x40 MLOAD PUSH2 0x239 SWAP2 SWAP1 PUSH2 0x118E JUMP JUMPDEST PUSH1 0x40 MLOAD DUP1 SWAP2 SUB SWAP1 RETURN JUMPDEST PUSH2 0x25C PUSH1 0x4 DUP1 CALLDATASIZE SUB DUP2 ADD SWAP1 PUSH2 0x257 SWAP2 SWAP1 PUSH2 0x1033 JUMP JUMPDEST PUSH2 0x7A1 JUMP JUMPDEST PUSH1 0x40 MLOAD PUSH2 0x269 SWAP2 SWAP1 PUSH2 0x1080 JUMP JUMPDEST PUSH1 0x40 MLOAD DUP1 SWAP2 SUB SWAP1 RETURN JUMPDEST PUSH2 0x28C PUSH1 0x4 DUP1 CALLDATASIZE SUB DUP2 ADD SWAP1 PUSH2 0x287 SWAP2 SWAP1 PUSH2 0xFF5 JUMP JUMPDEST PUSH2 0x7C1 JUMP JUMPDEST STOP JUMPDEST PUSH2 0x2A8 PUSH1 0x4 DUP1 CALLDATASIZE SUB DUP2 ADD SWAP1 PUSH2 0x2A3 SWAP2 SWAP1 PUSH2 0xFF5 JUMP JUMPDEST PUSH2 0x978 JUMP JUMPDEST STOP JUMPDEST PUSH2 0x2C4 PUSH1 0x4 DUP1 CALLDATASIZE SUB DUP2 ADD SWAP1 PUSH2 0x2BF SWAP2 SWAP1 PUSH2 0x1033 JUMP JUMPDEST PUSH2 0xD4B JUMP JUMPDEST PUSH1 0x40 MLOAD PUSH2 0x2D1 SWAP2 SWAP1 PUSH2 0x1080 JUMP JUMPDEST PUSH1 0x40 MLOAD DUP1 SWAP2 SUB SWAP1 RETURN JUMPDEST PUSH2 0x2F4 PUSH1 0x4 DUP1 CALLDATASIZE SUB DUP2 ADD SWAP1 PUSH2 0x2EF SWAP2 SWAP1 PUSH2 0x11A7 JUMP JUMPDEST PUSH2 0xDCD JUMP JUMPDEST PUSH1 0x40 MLOAD PUSH2 0x301 SWAP2 SWAP1 PUSH2 0x1080 JUMP JUMPDEST PUSH1 0x40 MLOAD DUP1 SWAP2 SUB SWAP1 RETURN JUMPDEST PUSH2 0x312 PUSH2 0xDD5 JUMP JUMPDEST PUSH1 0x40 MLOAD PUSH2 0x31F SWAP2 SWAP1 PUSH2 0x1080 JUMP JUMPDEST PUSH1 0x40 MLOAD DUP1 SWAP2 SUB SWAP1 RETURN JUMPDEST PUSH2 0x342 PUSH1 0x4 DUP1 CALLDATASIZE SUB DUP2 ADD SWAP1 PUSH2 0x33D SWAP2 SWAP1 PUSH2 0x1149 JUMP JUMPDEST PUSH2 0xDDB JUMP JUMPDEST PUSH1 0x40 MLOAD PUSH2 0x34F SWAP2 SWAP1 PUSH2 0x1206 JUMP JUMPDEST PUSH1 0x40 MLOAD DUP1 SWAP2 SUB SWAP1 RETURN JUMPDEST PUSH2 0x372 PUSH1 0x4 DUP1 CALLDATASIZE SUB DUP2 ADD SWAP1 PUSH2 0x36D SWAP2 SWAP1 PUSH2 0x1033 JUMP JUMPDEST PUSH2 0xE16 JUMP JUMPDEST PUSH1 0x40 MLOAD PUSH2 0x37F SWAP2 SWAP1 PUSH2 0x1080 JUMP JUMPDEST PUSH1 0x40 MLOAD DUP1 SWAP2 SUB SWAP1 RETURN JUMPDEST PUSH2 0x390 PUSH2 0xE36 JUMP JUMPDEST PUSH1 0x40 MLOAD PUSH2 0x39D SWAP2 SWAP1 PUSH2 0x127A JUMP JUMPDEST PUSH1 0x40 MLOAD DUP1 SWAP2 SUB SWAP1 RETURN JUMPDEST PUSH2 0x3C0 PUSH1 0x4 DUP1 CALLDATASIZE SUB DUP2 ADD SWAP1 PUSH2 0x3BB SWAP2 SWAP1 PUSH2 0x1099 JUMP JUMPDEST PUSH2 0xE5B JUMP JUMPDEST PUSH1 0x40 MLOAD PUSH2 0x3CD SWAP2 SWAP1 PUSH2 0x1080 JUMP JUMPDEST PUSH1 0x40 MLOAD DUP1 SWAP2 SUB SWAP1 RETURN JUMPDEST PUSH2 0x3F0 PUSH1 0x4 DUP1 CALLDATASIZE SUB DUP2 ADD SWAP1 PUSH2 0x3EB SWAP2 SWAP1 PUSH2 0x10F9 JUMP JUMPDEST PUSH2 0xE70 JUMP JUMPDEST STOP JUMPDEST PUSH2 0x3FA PUSH2 0xE75 JUMP JUMPDEST PUSH0 DUP2 GT PUSH2 0x43C JUMPI PUSH1 0x40 MLOAD PUSH32 0x8C379A000000000000000000000000000000000000000000000000000000000 DUP2 MSTORE PUSH1 0x4 ADD PUSH2 0x433 SWAP1 PUSH2 0x1313 JUMP JUMPDEST PUSH1 0x40 MLOAD DUP1 SWAP2 SUB SWAP1 REVERT JUMPDEST DUP1 PUSH1 0x4 PUSH0 DUP5 PUSH20 0xFFFFFFFFFFFFFFFFFFFFFFFFFFFFFFFFFFFFFFFF AND PUSH20 0xFFFFFFFFFFFFFFFFFFFFFFFFFFFFFFFFFFFFFFFF AND DUP2 MSTORE PUSH1 0x20 ADD SWAP1 DUP2 MSTORE PUSH1 0x20 ADD PUSH0 KECCAK256 PUSH0 CALLER PUSH20 0xFFFFFFFFFFFFFFFFFFFFFFFFFFFFFFFFFFFFFFFF AND PUSH20 0xFFFFFFFFFFFFFFFFFFFFFFFFFFFFFFFFFFFFFFFF AND DUP2 MSTORE PUSH1 0x20 ADD SWAP1 DUP2 MSTORE PUSH1 0x20 ADD PUSH0 KECCAK256 PUSH0 DUP3 DUP3 SLOAD PUSH2 0x4C3 SWAP2 SWAP1 PUSH2 0x135E JUMP JUMPDEST SWAP3 POP POP DUP2 SWAP1 SSTORE POP DUP1 PUSH1 0x6 PUSH0 DUP5 PUSH20 0xFFFFFFFFFFFFFFFFFFFFFFFFFFFFFFFFFFFFFFFF AND PUSH20 0xFFFFFFFFFFFFFFFFFFFFFFFFFFFFFFFFFFFFFFFF AND DUP2 MSTORE PUSH1 0x20 ADD SWAP1 DUP2 MSTORE PUSH1 0x20 ADD PUSH0 KECCAK256 PUSH0 DUP3 DUP3 SLOAD PUSH2 0x516 SWAP2 SWAP1 PUSH2 0x135E JUMP JUMPDEST SWAP3 POP POP DUP2 SWAP1 SSTORE POP DUP1 PUSH1 0x7 PUSH0 CALLER PUSH20 0xFFFFFFFFFFFFFFFFFFFFFFFFFFFFFFFFFFFFFFFF AND PUSH20 0xFFFFFFFFFFFFFFFFFFFFFFFFFFFFFFFFFFFFFFFF AND DUP2 MSTORE PUSH1 0x20 ADD SWAP1 DUP2 MSTORE PUSH1 0x20 ADD PUSH0 KECCAK256 PUSH0 DUP3 DUP3 SLOAD PUSH2 0x569 SWAP2 SWAP1 PUSH2 0x135E JUMP JUMPDEST SWAP3 POP POP DUP2 SWAP1 SSTORE POP PUSH0 PUSH2 0x57B DUP4 CALLER PUSH2 0xEC2 JUMP JUMPDEST SWAP1 POP DUP2 PUSH1 0x4 PUSH0 DUP6 PUSH20 0xFFFFFFFFFFFFFFFFFFFFFFFFFFFFFFFFFFFFFFFF AND PUSH20 0xFFFFFFFFFFFFFFFFFFFFFFFFFFFFFFFFFFFFFFFF AND DUP2 MSTORE PUSH1 0x20 ADD SWAP1 DUP2 MSTORE PUSH1 0x20 ADD PUSH0 KECCAK256 PUSH0 CALLER PUSH20 0xFFFFFFFFFFFFFFFFFFFFFFFFFFFFFFFFFFFFFFFF AND PUSH20 0xFFFFFFFFFFFFFFFFFFFFFFFFFFFFFFFFFFFFFFFF AND DUP2 MSTORE PUSH1 0x20 ADD SWAP1 DUP2 MSTORE PUSH1 0x20 ADD PUSH0 KECCAK256 SLOAD LT ISZERO PUSH2 0x638 JUMPI PUSH1 0x40 MLOAD PUSH32 0x8C379A000000000000000000000000000000000000000000000000000000000 DUP2 MSTORE PUSH1 0x4 ADD PUSH2 0x62F SWAP1 PUSH2 0x1401 JUMP JUMPDEST PUSH1 0x40 MLOAD DUP1 SWAP2 SUB SWAP1 REVERT JUMPDEST POP PUSH2 0x641 PUSH2 0xF5B JUMP JUMPDEST POP POP JUMP JUMPDEST PUSH1 0x4 PUSH1 0x20 MSTORE DUP2 PUSH0 MSTORE PUSH1 0x40 PUSH0 KECCAK256 PUSH1 0x20 MSTORE DUP1 PUSH0 MSTORE PUSH1 0x40 PUSH0 KECCAK256 PUSH0 SWAP2 POP SWAP2 POP POP SLOAD DUP2 JUMP JUMPDEST PUSH1 0x7 PUSH1 0x20 MSTORE DUP1 PUSH0 MSTORE PUSH1 0x40 PUSH0 KECCAK256 PUSH0 SWAP2 POP SWAP1 POP SLOAD DUP2 JUMP JUMPDEST PUSH1 0x8 PUSH1 0x20 MSTORE DUP2 PUSH0 MSTORE PUSH1 0x40 PUSH0 KECCAK256 PUSH1 0x20 MSTORE DUP1 PUSH0 MSTORE PUSH1 0x40 PUSH0 KECCAK256 PUSH0 SWAP2 POP SWAP2 POP POP DUP1 PUSH0 ADD SLOAD SWAP1 DUP1 PUSH1 0x1 ADD SLOAD SWAP1 DUP1 PUSH1 0x2 ADD SLOAD SWAP1 POP DUP4 JUMP JUMPDEST POP POP POP JUMP JUMPDEST PUSH0 SWAP2 SWAP1 POP JUMP JUMPDEST PUSH0 DUP1 PUSH0 SWAP1 POP PUSH0 JUMPDEST PUSH1 0x3 DUP1 SLOAD SWAP1 POP DUP2 LT ISZERO PUSH2 0x798 JUMPI PUSH1 0x2 PUSH0 PUSH1 0x3 DUP4 DUP2 SLOAD DUP2 LT PUSH2 0x6E1 JUMPI PUSH2 0x6E0 PUSH2 0x141F JUMP JUMPDEST JUMPDEST SWAP1 PUSH0 MSTORE PUSH1 0x20 PUSH0 KECCAK256 ADD PUSH0 SWAP1 SLOAD SWAP1 PUSH2 0x100 EXP SWAP1 DIV PUSH20 0xFFFFFFFFFFFFFFFFFFFFFFFFFFFFFFFFFFFFFFFF AND PUSH20 0xFFFFFFFFFFFFFFFFFFFFFFFFFFFFFFFFFFFFFFFF AND PUSH20 0xFFFFFFFFFFFFFFFFFFFFFFFFFFFFFFFFFFFFFFFF AND DUP2 MSTORE PUSH1 0x20 ADD SWAP1 DUP2 MSTORE PUSH1 0x20 ADD PUSH0 KECCAK256 PUSH0 DUP8 PUSH20 0xFFFFFFFFFFFFFFFFFFFFFFFFFFFFFFFFFFFFFFFF AND PUSH20 0xFFFFFFFFFFFFFFFFFFFFFFFFFFFFFFFFFFFFFFFF AND DUP2 MSTORE PUSH1 0x20 ADD SWAP1 DUP2 MSTORE PUSH1 0x20 ADD PUSH0 KECCAK256 SLOAD DUP3 PUSH2 0x789 SWAP2 SWAP1 PUSH2 0x144C JUMP JUMPDEST SWAP2 POP DUP1 DUP1 PUSH1 0x1 ADD SWAP2 POP POP PUSH2 0x6BD JUMP JUMPDEST POP POP SWAP4 SWAP3 POP POP POP JUMP JUMPDEST PUSH1 0x2 PUSH1 0x20 MSTORE DUP2 PUSH0 MSTORE PUSH1 0x40 PUSH0 KECCAK256 PUSH1 0x20 MSTORE DUP1 PUSH0 MSTORE PUSH1 0x40 PUSH0 KECCAK256 PUSH0 SWAP2 POP SWAP2 POP POP SLOAD DUP2 JUMP JUMPDEST PUSH0 DUP2 GT PUSH2 0x803 JUMPI PUSH1 0x40 MLOAD PUSH32 0x8C379A000000000000000000000000000000000000000000000000000000000 DUP2 MSTORE PUSH1 0x4 ADD PUSH2 0x7FA SWAP1 PUSH2 0x14EF JUMP JUMPDEST PUSH1 0x40 MLOAD DUP1 SWAP2 SUB SWAP1 REVERT JUMPDEST DUP2 PUSH20 0xFFFFFFFFFFFFFFFFFFFFFFFFFFFFFFFFFFFFFFFF AND PUSH4 0x23B872DD CALLER ADDRESS DUP5 PUSH1 0x40 MLOAD DUP5 PUSH4 0xFFFFFFFF AND PUSH1 0xE0 SHL DUP2 MSTORE PUSH1 0x4 ADD PUSH2 0x840 SWAP4 SWAP3 SWAP2 SWAP1 PUSH2 0x150D JUMP JUMPDEST PUSH1 0x20 PUSH1 0x40 MLOAD DUP1 DUP4 SUB DUP2 PUSH0 DUP8 GAS CALL ISZERO DUP1 ISZERO PUSH2 0x85C JUMPI RETURNDATASIZE PUSH0 DUP1 RETURNDATACOPY RETURNDATASIZE PUSH0 REVERT JUMPDEST POP POP POP POP PUSH1 0x40 MLOAD RETURNDATASIZE PUSH1 0x1F NOT PUSH1 0x1F DUP3 ADD AND DUP3 ADD DUP1 PUSH1 0x40 MSTORE POP DUP2 ADD SWAP1 PUSH2 0x880 SWAP2 SWAP1 PUSH2 0x156C JUMP JUMPDEST POP DUP1 PUSH1 0x2 PUSH0 DUP5 PUSH20 0xFFFFFFFFFFFFFFFFFFFFFFFFFFFFFFFFFFFFFFFF AND PUSH20 0xFFFFFFFFFFFFFFFFFFFFFFFFFFFFFFFFFFFFFFFF AND DUP2 MSTORE PUSH1 0x20 ADD SWAP1 DUP2 MSTORE PUSH1 0x20 ADD PUSH0 KECCAK256 PUSH0 CALLER PUSH20 0xFFFFFFFFFFFFFFFFFFFFFFFFFFFFFFFFFFFFFFFF AND PUSH20 0xFFFFFFFFFFFFFFFFFFFFFFFFFFFFFFFFFFFFFFFF AND DUP2 MSTORE PUSH1 0x20 ADD SWAP1 DUP2 MSTORE PUSH1 0x20 ADD PUSH0 KECCAK256 PUSH0 DUP3 DUP3 SLOAD PUSH2 0x908 SWAP2 SWAP1 PUSH2 0x144C JUMP JUMPDEST SWAP3 POP POP DUP2 SWAP1 SSTORE POP CALLER PUSH20 0xFFFFFFFFFFFFFFFFFFFFFFFFFFFFFFFFFFFFFFFF AND DUP3 PUSH20 0xFFFFFFFFFFFFFFFFFFFFFFFFFFFFFFFFFFFFFFFF AND PUSH32 0x1DE3ECE35391F6BBA650736F2D5D3F12E2CFC54538A340CC5D762D34CA449DE7 DUP4 PUSH1 0x40 MLOAD PUSH2 0x96C SWAP2 SWAP1 PUSH2 0x1080 JUMP JUMPDEST PUSH1 0x40 MLOAD DUP1 SWAP2 SUB SWAP1 LOG3 POP POP JUMP JUMPDEST PUSH2 0x980 PUSH2 0xE75 JUMP JUMPDEST PUSH0 DUP2 GT PUSH2 0x9C2 JUMPI PUSH1 0x40 MLOAD PUSH32 0x8C379A000000000000000000000000000000000000000000000000000000000 DUP2 MSTORE PUSH1 0x4 ADD PUSH2 0x9B9 SWAP1 PUSH2 0x1607 JUMP JUMPDEST PUSH1 0x40 MLOAD DUP1 SWAP2 SUB SWAP1 REVERT JUMPDEST PUSH2 0x9CD CALLER DUP4 DUP4 PUSH2 0x6B6 JUMP JUMPDEST PUSH2 0xA0C JUMPI PUSH1 0x40 MLOAD PUSH32 0x8C379A000000000000000000000000000000000000000000000000000000000 DUP2 MSTORE PUSH1 0x4 ADD PUSH2 0xA03 SWAP1 PUSH2 0x166F JUMP JUMPDEST PUSH1 0x40 MLOAD DUP1 SWAP2 SUB SWAP1 REVERT JUMPDEST DUP1 DUP3 PUSH20 0xFFFFFFFFFFFFFFFFFFFFFFFFFFFFFFFFFFFFFFFF AND PUSH4 0x70A08231 ADDRESS PUSH1 0x40 MLOAD DUP3 PUSH4 0xFFFFFFFF AND PUSH1 0xE0 SHL DUP2 MSTORE PUSH1 0x4 ADD PUSH2 0xA46 SWAP2 SWAP1 PUSH2 0x1206 JUMP JUMPDEST PUSH1 0x20 PUSH1 0x40 MLOAD DUP1 DUP4 SUB DUP2 DUP7 GAS STATICCALL ISZERO DUP1 ISZERO PUSH2 0xA61 JUMPI RETURNDATASIZE PUSH0 DUP1 RETURNDATACOPY RETURNDATASIZE PUSH0 REVERT JUMPDEST POP POP POP POP PUSH1 0x40 MLOAD RETURNDATASIZE PUSH1 0x1F NOT PUSH1 0x1F DUP3 ADD AND DUP3 ADD DUP1 PUSH1 0x40 MSTORE POP DUP2 ADD SWAP1 PUSH2 0xA85 SWAP2 SWAP1 PUSH2 0x16A1 JUMP JUMPDEST LT ISZERO PUSH2 0xAC6 JUMPI PUSH1 0x40 MLOAD PUSH32 0x8C379A000000000000000000000000000000000000000000000000000000000 DUP2 MSTORE PUSH1 0x4 ADD PUSH2 0xABD SWAP1 PUSH2 0x173C JUMP JUMPDEST PUSH1 0x40 MLOAD DUP1 SWAP2 SUB SWAP1 REVERT JUMPDEST DUP1 PUSH1 0x4 PUSH0 DUP5 PUSH20 0xFFFFFFFFFFFFFFFFFFFFFFFFFFFFFFFFFFFFFFFF AND PUSH20 0xFFFFFFFFFFFFFFFFFFFFFFFFFFFFFFFFFFFFFFFF AND DUP2 MSTORE PUSH1 0x20 ADD SWAP1 DUP2 MSTORE PUSH1 0x20 ADD PUSH0 KECCAK256 PUSH0 CALLER PUSH20 0xFFFFFFFFFFFFFFFFFFFFFFFFFFFFFFFFFFFFFFFF AND PUSH20 0xFFFFFFFFFFFFFFFFFFFFFFFFFFFFFFFFFFFFFFFF AND DUP2 MSTORE PUSH1 0x20 ADD SWAP1 DUP2 MSTORE PUSH1 0x20 ADD PUSH0 KECCAK256 PUSH0 DUP3 DUP3 SLOAD PUSH2 0xB4D SWAP2 SWAP1 PUSH2 0x144C JUMP JUMPDEST SWAP3 POP POP DUP2 SWAP1 SSTORE POP DUP1 PUSH1 0x6 PUSH0 DUP5 PUSH20 0xFFFFFFFFFFFFFFFFFFFFFFFFFFFFFFFFFFFFFFFF AND PUSH20 0xFFFFFFFFFFFFFFFFFFFFFFFFFFFFFFFFFFFFFFFF AND DUP2 MSTORE PUSH1 0x20 ADD SWAP1 DUP2 MSTORE PUSH1 0x20 ADD PUSH0 KECCAK256 PUSH0 DUP3 DUP3 SLOAD PUSH2 0xBA0 SWAP2 SWAP1 PUSH2 0x144C JUMP JUMPDEST SWAP3 POP POP DUP2 SWAP1 SSTORE POP DUP1 PUSH1 0x7 PUSH0 CALLER PUSH20 0xFFFFFFFFFFFFFFFFFFFFFFFFFFFFFFFFFFFFFFFF AND PUSH20 0xFFFFFFFFFFFFFFFFFFFFFFFFFFFFFFFFFFFFFFFF AND DUP2 MSTORE PUSH1 0x20 ADD SWAP1 DUP2 MSTORE PUSH1 0x20 ADD PUSH0 KECCAK256 PUSH0 DUP3 DUP3 SLOAD PUSH2 0xBF3 SWAP2 SWAP1 PUSH2 0x144C JUMP JUMPDEST SWAP3 POP POP DUP2 SWAP1 SSTORE POP PUSH2 0xC0D DUP3 CALLER PUSH2 0xC08 DUP5 PUSH2 0x6B0 JUMP JUMPDEST PUSH2 0xE70 JUMP JUMPDEST PUSH0 TIMESTAMP SWAP1 POP PUSH0 DUP2 PUSH1 0x1 SLOAD PUSH2 0xC20 SWAP2 SWAP1 PUSH2 0x144C JUMP JUMPDEST SWAP1 POP PUSH1 0x40 MLOAD DUP1 PUSH1 0x60 ADD PUSH1 0x40 MSTORE DUP1 DUP5 DUP2 MSTORE PUSH1 0x20 ADD DUP3 DUP2 MSTORE PUSH1 0x20 ADD TIMESTAMP DUP2 MSTORE POP PUSH1 0x8 PUSH0 CALLER PUSH20 0xFFFFFFFFFFFFFFFFFFFFFFFFFFFFFFFFFFFFFFFF AND PUSH20 0xFFFFFFFFFFFFFFFFFFFFFFFFFFFFFFFFFFFFFFFF AND DUP2 MSTORE PUSH1 0x20 ADD SWAP1 DUP2 MSTORE PUSH1 0x20 ADD PUSH0 KECCAK256 PUSH0 DUP7 PUSH20 0xFFFFFFFFFFFFFFFFFFFFFFFFFFFFFFFFFFFFFFFF AND PUSH20 0xFFFFFFFFFFFFFFFFFFFFFFFFFFFFFFFFFFFFFFFF AND DUP2 MSTORE PUSH1 0x20 ADD SWAP1 DUP2 MSTORE PUSH1 0x20 ADD PUSH0 KECCAK256 PUSH0 DUP3 ADD MLOAD DUP2 PUSH0 ADD SSTORE PUSH1 0x20 DUP3 ADD MLOAD DUP2 PUSH1 0x1 ADD SSTORE PUSH1 0x40 DUP3 ADD MLOAD DUP2 PUSH1 0x2 ADD SSTORE SWAP1 POP POP DUP4 PUSH20 0xFFFFFFFFFFFFFFFFFFFFFFFFFFFFFFFFFFFFFFFF AND CALLER PUSH20 0xFFFFFFFFFFFFFFFFFFFFFFFFFFFFFFFFFFFFFFFF AND PUSH32 0xC1CBA78646FEF030830D099FC25CB498953709C9D47D883848F81FD207174C9F DUP6 DUP5 TIMESTAMP PUSH1 0x40 MLOAD PUSH2 0xD35 SWAP4 SWAP3 SWAP2 SWAP1 PUSH2 0x10C4 JUMP JUMPDEST PUSH1 0x40 MLOAD DUP1 SWAP2 SUB SWAP1 LOG3 POP POP PUSH2 0xD47 PUSH2 0xF5B JUMP JUMPDEST POP POP JUMP JUMPDEST PUSH0 PUSH1 0x2 PUSH0 DUP4 PUSH20 0xFFFFFFFFFFFFFFFFFFFFFFFFFFFFFFFFFFFFFFFF AND PUSH20 0xFFFFFFFFFFFFFFFFFFFFFFFFFFFFFFFFFFFFFFFF AND DUP2 MSTORE PUSH1 0x20 ADD SWAP1 DUP2 MSTORE PUSH1 0x20 ADD PUSH0 KECCAK256 PUSH0 DUP5 PUSH20 0xFFFFFFFFFFFFFFFFFFFFFFFFFFFFFFFFFFFFFFFF AND PUSH20 0xFFFFFFFFFFFFFFFFFFFFFFFFFFFFFFFFFFFFFFFF AND DUP2 MSTORE PUSH1 0x20 ADD SWAP1 DUP2 MSTORE PUSH1 0x20 ADD PUSH0 KECCAK256 SLOAD SWAP1 POP SWAP3 SWAP2 POP POP JUMP JUMPDEST PUSH0 SWAP4 SWAP3 POP POP POP JUMP JUMPDEST PUSH1 0x1 SLOAD DUP2 JUMP JUMPDEST PUSH1 0x3 DUP2 DUP2 SLOAD DUP2 LT PUSH2 0xDEA JUMPI PUSH0 DUP1 REVERT JUMPDEST SWAP1 PUSH0 MSTORE PUSH1 0x20 PUSH0 KECCAK256 ADD PUSH0 SWAP2 POP SLOAD SWAP1 PUSH2 0x100 EXP SWAP1 DIV PUSH20 0xFFFFFFFFFFFFFFFFFFFFFFFFFFFFFFFFFFFFFFFF AND DUP2 JUMP JUMPDEST PUSH1 0x5 PUSH1 0x20 MSTORE DUP2 PUSH0 MSTORE PUSH1 0x40 PUSH0 KECCAK256 PUSH1 0x20 MSTORE DUP1 PUSH0 MSTORE PUSH1 0x40 PUSH0 KECCAK256 PUSH0 SWAP2 POP SWAP2 POP POP SLOAD DUP2 JUMP JUMPDEST PUSH1 0x9 PUSH0 SWAP1 SLOAD SWAP1 PUSH2 0x100 EXP SWAP1 DIV PUSH20 0xFFFFFFFFFFFFFFFFFFFFFFFFFFFFFFFFFFFFFFFF AND DUP2 JUMP JUMPDEST PUSH1 0x6 PUSH1 0x20 MSTORE DUP1 PUSH0 MSTORE PUSH1 0x40 PUSH0 KECCAK256 PUSH0 SWAP2 POP SWAP1 POP SLOAD DUP2 JUMP JUMPDEST POP POP POP JUMP JUMPDEST PUSH1 0x2 PUSH0 SLOAD SUB PUSH2 0xEB9 JUMPI PUSH1 0x40 MLOAD PUSH32 0x8C379A000000000000000000000000000000000000000000000000000000000 DUP2 MSTORE PUSH1 0x4 ADD PUSH2 0xEB0 SWAP1 PUSH2 0x17A4 JUMP JUMPDEST PUSH1 0x40 MLOAD DUP1 SWAP2 SUB SWAP1 REVERT JUMPDEST PUSH1 0x2 PUSH0 DUP2 SWAP1 SSTORE POP JUMP JUMPDEST PUSH0 DUP1 PUSH1 0x8 PUSH0 DUP6 PUSH20 0xFFFFFFFFFFFFFFFFFFFFFFFFFFFFFFFFFFFFFFFF AND PUSH20 0xFFFFFFFFFFFFFFFFFFFFFFFFFFFFFFFFFFFFFFFF AND DUP2 MSTORE PUSH1 0x20 ADD SWAP1 DUP2 MSTORE PUSH1 0x20 ADD PUSH0 KECCAK256 PUSH0 DUP5 PUSH20 0xFFFFFFFFFFFFFFFFFFFFFFFFFFFFFFFFFFFFFFFF AND PUSH20 0xFFFFFFFFFFFFFFFFFFFFFFFFFFFFFFFFFFFFFFFF AND DUP2 MSTORE PUSH1 0x20 ADD SWAP1 DUP2 MSTORE PUSH1 0x20 ADD PUSH0 KECCAK256 SWAP1 POP DUP1 PUSH1 0x2 ADD SLOAD DUP2 PUSH1 0x1 ADD SLOAD PUSH2 0xF52 SWAP2 SWAP1 PUSH2 0x144C JUMP JUMPDEST SWAP2 POP POP SWAP3 SWAP2 POP POP JUMP JUMPDEST PUSH1 0x1 PUSH0 DUP2 SWAP1 SSTORE POP JUMP JUMPDEST PUSH0 DUP1 REVERT JUMPDEST PUSH0 PUSH20 0xFFFFFFFFFFFFFFFFFFFFFFFFFFFFFFFFFFFFFFFF DUP3 AND SWAP1 POP SWAP2 SWAP1 POP JUMP JUMPDEST PUSH0 PUSH2 0xF91 DUP3 PUSH2 0xF68 JUMP JUMPDEST SWAP1 POP SWAP2 SWAP1 POP JUMP JUMPDEST PUSH2 0xFA1 DUP2 PUSH2 0xF87 JUMP JUMPDEST DUP2 EQ PUSH2 0xFAB JUMPI PUSH0 DUP1 REVERT JUMPDEST POP JUMP JUMPDEST PUSH0 DUP2 CALLDATALOAD SWAP1 POP PUSH2 0xFBC DUP2 PUSH2 0xF98 JUMP JUMPDEST SWAP3 SWAP2 POP POP JUMP JUMPDEST PUSH0 DUP2 SWAP1 POP SWAP2 SWAP1 POP JUMP JUMPDEST PUSH2 0xFD4 DUP2 PUSH2 0xFC2 JUMP JUMPDEST DUP2 EQ PUSH2 0xFDE JUMPI PUSH0 DUP1 REVERT JUMPDEST POP JUMP JUMPDEST PUSH0 DUP2 CALLDATALOAD SWAP1 POP PUSH2 0xFEF DUP2 PUSH2 0xFCB JUMP JUMPDEST SWAP3 SWAP2 POP POP JUMP JUMPDEST PUSH0 DUP1 PUSH1 0x40 DUP4 DUP6 SUB SLT ISZERO PUSH2 0x100B JUMPI PUSH2 0x100A PUSH2 0xF64 JUMP JUMPDEST JUMPDEST PUSH0 PUSH2 0x1018 DUP6 DUP3 DUP7 ADD PUSH2 0xFAE JUMP JUMPDEST SWAP3 POP POP PUSH1 0x20 PUSH2 0x1029 DUP6 DUP3 DUP7 ADD PUSH2 0xFE1 JUMP JUMPDEST SWAP2 POP POP SWAP3 POP SWAP3 SWAP1 POP JUMP JUMPDEST PUSH0 DUP1 PUSH1 0x40 DUP4 DUP6 SUB SLT ISZERO PUSH2 0x1049 JUMPI PUSH2 0x1048 PUSH2 0xF64 JUMP JUMPDEST JUMPDEST PUSH0 PUSH2 0x1056 DUP6 DUP3 DUP7 ADD PUSH2 0xFAE JUMP JUMPDEST SWAP3 POP POP PUSH1 0x20 PUSH2 0x1067 DUP6 DUP3 DUP7 ADD PUSH2 0xFAE JUMP JUMPDEST SWAP2 POP POP SWAP3 POP SWAP3 SWAP1 POP JUMP JUMPDEST PUSH2 0x107A DUP2 PUSH2 0xFC2 JUMP JUMPDEST DUP3 MSTORE POP POP JUMP JUMPDEST PUSH0 PUSH1 0x20 DUP3 ADD SWAP1 POP PUSH2 0x1093 PUSH0 DUP4 ADD DUP5 PUSH2 0x1071 JUMP JUMPDEST SWAP3 SWAP2 POP POP JUMP JUMPDEST PUSH0 PUSH1 0x20 DUP3 DUP5 SUB SLT ISZERO PUSH2 0x10AE JUMPI PUSH2 0x10AD PUSH2 0xF64 JUMP JUMPDEST JUMPDEST PUSH0 PUSH2 0x10BB DUP5 DUP3 DUP6 ADD PUSH2 0xFAE JUMP JUMPDEST SWAP2 POP POP SWAP3 SWAP2 POP POP JUMP JUMPDEST PUSH0 PUSH1 0x60 DUP3 ADD SWAP1 POP PUSH2 0x10D7 PUSH0 DUP4 ADD DUP7 PUSH2 0x1071 JUMP JUMPDEST PUSH2 0x10E4 PUSH1 0x20 DUP4 ADD DUP6 PUSH2 0x1071 JUMP JUMPDEST PUSH2 0x10F1 PUSH1 0x40 DUP4 ADD DUP5 PUSH2 0x1071 JUMP JUMPDEST SWAP5 SWAP4 POP POP POP POP JUMP JUMPDEST PUSH0 DUP1 PUSH0 PUSH1 0x60 DUP5 DUP7 SUB SLT ISZERO PUSH2 0x1110 JUMPI PUSH2 0x110F PUSH2 0xF64 JUMP JUMPDEST JUMPDEST PUSH0 PUSH2 0x111D DUP7 DUP3 DUP8 ADD PUSH2 0xFAE JUMP JUMPDEST SWAP4 POP POP PUSH1 0x20 PUSH2 0x112E DUP7 DUP3 DUP8 ADD PUSH2 0xFAE JUMP JUMPDEST SWAP3 POP POP PUSH1 0x40 PUSH2 0x113F DUP7 DUP3 DUP8 ADD PUSH2 0xFE1 JUMP JUMPDEST SWAP2 POP POP SWAP3 POP SWAP3 POP SWAP3 JUMP JUMPDEST PUSH0 PUSH1 0x20 DUP3 DUP5 SUB SLT ISZERO PUSH2 0x115E JUMPI PUSH2 0x115D PUSH2 0xF64 JUMP JUMPDEST JUMPDEST PUSH0 PUSH2 0x116B DUP5 DUP3 DUP6 ADD PUSH2 0xFE1 JUMP JUMPDEST SWAP2 POP POP SWAP3 SWAP2 POP POP JUMP JUMPDEST PUSH0 DUP2 ISZERO ISZERO SWAP1 POP SWAP2 SWAP1 POP JUMP JUMPDEST PUSH2 0x1188 DUP2 PUSH2 0x1174 JUMP JUMPDEST DUP3 MSTORE POP POP JUMP JUMPDEST PUSH0 PUSH1 0x20 DUP3 ADD SWAP1 POP PUSH2 0x11A1 PUSH0 DUP4 ADD DUP5 PUSH2 0x117F JUMP JUMPDEST SWAP3 SWAP2 POP POP JUMP JUMPDEST PUSH0 DUP1 PUSH0 PUSH1 0x60 DUP5 DUP7 SUB SLT ISZERO PUSH2 0x11BE JUMPI PUSH2 0x11BD PUSH2 0xF64 JUMP JUMPDEST JUMPDEST PUSH0 PUSH2 0x11CB DUP7 DUP3 DUP8 ADD PUSH2 0xFAE JUMP JUMPDEST SWAP4 POP POP PUSH1 0x20 PUSH2 0x11DC DUP7 DUP3 DUP8 ADD PUSH2 0xFE1 JUMP JUMPDEST SWAP3 POP POP PUSH1 0x40 PUSH2 0x11ED DUP7 DUP3 DUP8 ADD PUSH2 0xFE1 JUMP JUMPDEST SWAP2 POP POP SWAP3 POP SWAP3 POP SWAP3 JUMP JUMPDEST PUSH2 0x1200 DUP2 PUSH2 0xF87 JUMP JUMPDEST DUP3 MSTORE POP POP JUMP JUMPDEST PUSH0 PUSH1 0x20 DUP3 ADD SWAP1 POP PUSH2 0x1219 PUSH0 DUP4 ADD DUP5 PUSH2 0x11F7 JUMP JUMPDEST SWAP3 SWAP2 POP POP JUMP JUMPDEST PUSH0 DUP2 SWAP1 POP SWAP2 SWAP1 POP JUMP JUMPDEST PUSH0 PUSH2 0x1242 PUSH2 0x123D PUSH2 0x1238 DUP5 PUSH2 0xF68 JUMP JUMPDEST PUSH2 0x121F JUMP JUMPDEST PUSH2 0xF68 JUMP JUMPDEST SWAP1 POP SWAP2 SWAP1 POP JUMP JUMPDEST PUSH0 PUSH2 0x1253 DUP3 PUSH2 0x1228 JUMP JUMPDEST SWAP1 POP SWAP2 SWAP1 POP JUMP JUMPDEST PUSH0 PUSH2 0x1264 DUP3 PUSH2 0x1249 JUMP JUMPDEST SWAP1 POP SWAP2 SWAP1 POP JUMP JUMPDEST PUSH2 0x1274 DUP2 PUSH2 0x125A JUMP JUMPDEST DUP3 MSTORE POP POP JUMP JUMPDEST PUSH0 PUSH1 0x20 DUP3 ADD SWAP1 POP PUSH2 0x128D PUSH0 DUP4 ADD DUP5 PUSH2 0x126B JUMP JUMPDEST SWAP3 SWAP2 POP POP JUMP JUMPDEST PUSH0 DUP3 DUP3 MSTORE PUSH1 0x20 DUP3 ADD SWAP1 POP SWAP3 SWAP2 POP POP JUMP JUMPDEST PUSH32 0x52657061796D656E7420616D6F756E74206D7573742062652067726561746572 PUSH0 DUP3 ADD MSTORE PUSH32 0x207468616E207A65726F00000000000000000000000000000000000000000000 PUSH1 0x20 DUP3 ADD MSTORE POP JUMP JUMPDEST PUSH0 PUSH2 0x12FD PUSH1 0x2A DUP4 PUSH2 0x1293 JUMP JUMPDEST SWAP2 POP PUSH2 0x1308 DUP3 PUSH2 0x12A3 JUMP JUMPDEST PUSH1 0x40 DUP3 ADD SWAP1 POP SWAP2 SWAP1 POP JUMP JUMPDEST PUSH0 PUSH1 0x20 DUP3 ADD SWAP1 POP DUP2 DUP2 SUB PUSH0 DUP4 ADD MSTORE PUSH2 0x132A DUP2 PUSH2 0x12F1 JUMP JUMPDEST SWAP1 POP SWAP2 SWAP1 POP JUMP JUMPDEST PUSH32 0x4E487B7100000000000000000000000000000000000000000000000000000000 PUSH0 MSTORE PUSH1 0x11 PUSH1 0x4 MSTORE PUSH1 0x24 PUSH0 REVERT JUMPDEST PUSH0 PUSH2 0x1368 DUP3 PUSH2 0xFC2 JUMP JUMPDEST SWAP2 POP PUSH2 0x1373 DUP4 PUSH2 0xFC2 JUMP JUMPDEST SWAP3 POP DUP3 DUP3 SUB SWAP1 POP DUP2 DUP2 GT ISZERO PUSH2 0x138B JUMPI PUSH2 0x138A PUSH2 0x1331 JUMP JUMPDEST JUMPDEST SWAP3 SWAP2 POP POP JUMP JUMPDEST PUSH32 0x52657061796D656E7420616D6F756E74206578636565647320626F72726F7720 PUSH0 DUP3 ADD MSTORE PUSH32 0x616D6F756E740000000000000000000000000000000000000000000000000000 PUSH1 0x20 DUP3 ADD MSTORE POP JUMP JUMPDEST PUSH0 PUSH2 0x13EB PUSH1 0x26 DUP4 PUSH2 0x1293 JUMP JUMPDEST SWAP2 POP PUSH2 0x13F6 DUP3 PUSH2 0x1391 JUMP JUMPDEST PUSH1 0x40 DUP3 ADD SWAP1 POP SWAP2 SWAP1 POP JUMP JUMPDEST PUSH0 PUSH1 0x20 DUP3 ADD SWAP1 POP DUP2 DUP2 SUB PUSH0 DUP4 ADD MSTORE PUSH2 0x1418 DUP2 PUSH2 0x13DF JUMP JUMPDEST SWAP1 POP SWAP2 SWAP1 POP JUMP JUMPDEST PUSH32 0x4E487B7100000000000000000000000000000000000000000000000000000000 PUSH0 MSTORE PUSH1 0x32 PUSH1 0x4 MSTORE PUSH1 0x24 PUSH0 REVERT JUMPDEST PUSH0 PUSH2 0x1456 DUP3 PUSH2 0xFC2 JUMP JUMPDEST SWAP2 POP PUSH2 0x1461 DUP4 PUSH2 0xFC2 JUMP JUMPDEST SWAP3 POP DUP3 DUP3 ADD SWAP1 POP DUP1 DUP3 GT ISZERO PUSH2 0x1479 JUMPI PUSH2 0x1478 PUSH2 0x1331 JUMP JUMPDEST JUMPDEST SWAP3 SWAP2 POP POP JUMP JUMPDEST PUSH32 0x4465706F73697420616D6F756E74206D75737420626520677265617465722074 PUSH0 DUP3 ADD MSTORE PUSH32 0x68616E207A65726F000000000000000000000000000000000000000000000000 PUSH1 0x20 DUP3 ADD MSTORE POP JUMP JUMPDEST PUSH0 PUSH2 0x14D9 PUSH1 0x28 DUP4 PUSH2 0x1293 JUMP JUMPDEST SWAP2 POP PUSH2 0x14E4 DUP3 PUSH2 0x147F JUMP JUMPDEST PUSH1 0x40 DUP3 ADD SWAP1 POP SWAP2 SWAP1 POP JUMP JUMPDEST PUSH0 PUSH1 0x20 DUP3 ADD SWAP1 POP DUP2 DUP2 SUB PUSH0 DUP4 ADD MSTORE PUSH2 0x1506 DUP2 PUSH2 0x14CD JUMP JUMPDEST SWAP1 POP SWAP2 SWAP1 POP JUMP JUMPDEST PUSH0 PUSH1 0x60 DUP3 ADD SWAP1 POP PUSH2 0x1520 PUSH0 DUP4 ADD DUP7 PUSH2 0x11F7 JUMP JUMPDEST PUSH2 0x152D PUSH1 0x20 DUP4 ADD DUP6 PUSH2 0x11F7 JUMP JUMPDEST PUSH2 0x153A PUSH1 0x40 DUP4 ADD DUP5 PUSH2 0x1071 JUMP JUMPDEST SWAP5 SWAP4 POP POP POP POP JUMP JUMPDEST PUSH2 0x154B DUP2 PUSH2 0x1174 JUMP JUMPDEST DUP2 EQ PUSH2 0x1555 JUMPI PUSH0 DUP1 REVERT JUMPDEST POP JUMP JUMPDEST PUSH0 DUP2 MLOAD SWAP1 POP PUSH2 0x1566 DUP2 PUSH2 0x1542 JUMP JUMPDEST SWAP3 SWAP2 POP POP JUMP JUMPDEST PUSH0 PUSH1 0x20 DUP3 DUP5 SUB SLT ISZERO PUSH2 0x1581 JUMPI PUSH2 0x1580 PUSH2 0xF64 JUMP JUMPDEST JUMPDEST PUSH0 PUSH2 0x158E DUP5 DUP3 DUP6 ADD PUSH2 0x1558 JUMP JUMPDEST SWAP2 POP POP SWAP3 SWAP2 POP POP JUMP JUMPDEST PUSH32 0x426F72726F7720616D6F756E74206D7573742062652067726561746572207468 PUSH0 DUP3 ADD MSTORE PUSH32 0x616E207A65726F00000000000000000000000000000000000000000000000000 PUSH1 0x20 DUP3 ADD MSTORE POP JUMP JUMPDEST PUSH0 PUSH2 0x15F1 PUSH1 0x27 DUP4 PUSH2 0x1293 JUMP JUMPDEST SWAP2 POP PUSH2 0x15FC DUP3 PUSH2 0x1597 JUMP JUMPDEST PUSH1 0x40 DUP3 ADD SWAP1 POP SWAP2 SWAP1 POP JUMP JUMPDEST PUSH0 PUSH1 0x20 DUP3 ADD SWAP1 POP DUP2 DUP2 SUB PUSH0 DUP4 ADD MSTORE PUSH2 0x161E DUP2 PUSH2 0x15E5 JUMP JUMPDEST SWAP1 POP SWAP2 SWAP1 POP JUMP JUMPDEST PUSH32 0x496E73756666696369656E7420636F6C6C61746572616C000000000000000000 PUSH0 DUP3 ADD MSTORE POP JUMP JUMPDEST PUSH0 PUSH2 0x1659 PUSH1 0x17 DUP4 PUSH2 0x1293 JUMP JUMPDEST SWAP2 POP PUSH2 0x1664 DUP3 PUSH2 0x1625 JUMP JUMPDEST PUSH1 0x20 DUP3 ADD SWAP1 POP SWAP2 SWAP1 POP JUMP JUMPDEST PUSH0 PUSH1 0x20 DUP3 ADD SWAP1 POP DUP2 DUP2 SUB PUSH0 DUP4 ADD MSTORE PUSH2 0x1686 DUP2 PUSH2 0x164D JUMP JUMPDEST SWAP1 POP SWAP2 SWAP1 POP JUMP JUMPDEST PUSH0 DUP2 MLOAD SWAP1 POP PUSH2 0x169B DUP2 PUSH2 0xFCB JUMP JUMPDEST SWAP3 SWAP2 POP POP JUMP JUMPDEST PUSH0 PUSH1 0x20 DUP3 DUP5 SUB SLT ISZERO PUSH2 0x16B6 JUMPI PUSH2 0x16B5 PUSH2 0xF64 JUMP JUMPDEST JUMPDEST PUSH0 PUSH2 0x16C3 DUP5 DUP3 DUP6 ADD PUSH2 0x168D JUMP JUMPDEST SWAP2 POP POP SWAP3 SWAP2 POP POP JUMP JUMPDEST PUSH32 0x496E73756666696369656E74206C697175696469747920666F7220626F72726F PUSH0 DUP3 ADD MSTORE PUSH32 0x77696E6700000000000000000000000000000000000000000000000000000000 PUSH1 0x20 DUP3 ADD MSTORE POP JUMP JUMPDEST PUSH0 PUSH2 0x1726 PUSH1 0x24 DUP4 PUSH2 0x1293 JUMP JUMPDEST SWAP2 POP PUSH2 0x1731 DUP3 PUSH2 0x16CC JUMP JUMPDEST PUSH1 0x40 DUP3 ADD SWAP1 POP SWAP2 SWAP1 POP JUMP JUMPDEST PUSH0 PUSH1 0x20 DUP3 ADD SWAP1 POP DUP2 DUP2 SUB PUSH0 DUP4 ADD MSTORE PUSH2 0x1753 DUP2 PUSH2 0x171A JUMP JUMPDEST SWAP1 POP SWAP2 SWAP1 POP JUMP JUMPDEST PUSH32 0x5265656E7472616E637947756172643A207265656E7472616E742063616C6C00 PUSH0 DUP3 ADD MSTORE POP JUMP JUMPDEST PUSH0 PUSH2 0x178E PUSH1 0x1F DUP4 PUSH2 0x1293 JUMP JUMPDEST SWAP2 POP PUSH2 0x1799 DUP3 PUSH2 0x175A JUMP JUMPDEST PUSH1 0x20 DUP3 ADD SWAP1 POP SWAP2 SWAP1 POP JUMP JUMPDEST PUSH0 PUSH1 0x20 DUP3 ADD SWAP1 POP DUP2 DUP2 SUB PUSH0 DUP4 ADD MSTORE PUSH2 0x17BB DUP2 PUSH2 0x1782 JUMP JUMPDEST SWAP1 POP SWAP2 SWAP1 POP JUMP INVALID LOG2 PUSH5 0x6970667358 0x22 SLT KECCAK256 0xDF DUP7 0xD4 ISZERO 0xBD PUSH11 0xB23BA3DA2DB67AD444EFE3 DIV 0xD8 0x2C 0xDB SWAP2 LOG3 0x21 BLOCKHASH 0xAD 0xBB 0xBD DUP13 KECCAK256 0xEE 0xE PUSH5 0x736F6C6343 STOP ADDMOD XOR STOP CALLER "
				},
				"gasEstimates": {
					"creation": {
						"codeDepositCost": "1227200",
						"executionCost": "infinite",
						"totalCost": "infinite"
					},
					"external": {
						"baseInterestRate()": "2514",
						"borrow(address,uint256)": "infinite",
						"borrowedToken(address,address)": "infinite",
						"calculateInterestRate(address,uint256,uint256)": "infinite",
						"calculateRequiredCollateral(uint256)": "infinite",
						"collateral(address,address)": "infinite",
						"deposit(address,uint256)": "infinite",
						"depositCollateral(address,address,uint256)": "infinite",
						"escrow()": "infinite",
						"getUserBalance(address,address)": "infinite",
						"isSufficientCollateral(address,address,uint256)": "infinite",
						"repay(address,uint256)": "infinite",
						"supportedTokens(uint256)": "4966",
						"totalBorrowedperToken(address)": "2890",
						"totalBorrowedperUser(address)": "2870",
						"userBorrows(address,address)": "infinite",
						"userDeposits(address,address)": "infinite",
						"withdrawCollateral(address,address,uint256)": "infinite"
					},
					"internal": {
						"calculateAccruedInterest(address,address)": "infinite"
					}
				},
				"methodIdentifiers": {
					"baseInterestRate()": "afd92762",
					"borrow(address,uint256)": "4b8a3529",
					"borrowedToken(address,address)": "272d1b8e",
					"calculateInterestRate(address,uint256,uint256)": "9ee7f702",
					"calculateRequiredCollateral(uint256)": "34931b4b",
					"collateral(address,address)": "cc218ece",
					"deposit(address,uint256)": "47e7ef24",
					"depositCollateral(address,address,uint256)": "f970c3b7",
					"escrow()": "e2fdcc17",
					"getUserBalance(address,address)": "6805d6ad",
					"isSufficientCollateral(address,address,uint256)": "3b591d6a",
					"repay(address,uint256)": "22867d78",
					"supportedTokens(uint256)": "c6255626",
					"totalBorrowedperToken(address)": "e80894b6",
					"totalBorrowedperUser(address)": "23d0fda1",
					"userBorrows(address,address)": "234a14f9",
					"userDeposits(address,address)": "436d8039",
					"withdrawCollateral(address,address,uint256)": "2ae8bdfe"
				}
			},
			"storageLayout": {
				"storage": [
					{
						"astId": 147,
						"contract": "contracts/LendingPool.sol:LendingPool",
						"label": "_status",
						"offset": 0,
						"slot": "0",
						"type": "t_uint256"
					},
					{
						"astId": 865,
						"contract": "contracts/LendingPool.sol:LendingPool",
						"label": "baseInterestRate",
						"offset": 0,
						"slot": "1",
						"type": "t_uint256"
					},
					{
						"astId": 871,
						"contract": "contracts/LendingPool.sol:LendingPool",
						"label": "userDeposits",
						"offset": 0,
						"slot": "2",
						"type": "t_mapping(t_address,t_mapping(t_address,t_uint256))"
					},
					{
						"astId": 874,
						"contract": "contracts/LendingPool.sol:LendingPool",
						"label": "supportedTokens",
						"offset": 0,
						"slot": "3",
						"type": "t_array(t_address)dyn_storage"
					},
					{
						"astId": 880,
						"contract": "contracts/LendingPool.sol:LendingPool",
						"label": "userBorrows",
						"offset": 0,
						"slot": "4",
						"type": "t_mapping(t_address,t_mapping(t_address,t_uint256))"
					},
					{
						"astId": 886,
						"contract": "contracts/LendingPool.sol:LendingPool",
						"label": "collateral",
						"offset": 0,
						"slot": "5",
						"type": "t_mapping(t_address,t_mapping(t_address,t_uint256))"
					},
					{
						"astId": 890,
						"contract": "contracts/LendingPool.sol:LendingPool",
						"label": "totalBorrowedperToken",
						"offset": 0,
						"slot": "6",
						"type": "t_mapping(t_address,t_uint256)"
					},
					{
						"astId": 894,
						"contract": "contracts/LendingPool.sol:LendingPool",
						"label": "totalBorrowedperUser",
						"offset": 0,
						"slot": "7",
						"type": "t_mapping(t_address,t_uint256)"
					},
					{
						"astId": 908,
						"contract": "contracts/LendingPool.sol:LendingPool",
						"label": "borrowedToken",
						"offset": 0,
						"slot": "8",
						"type": "t_mapping(t_address,t_mapping(t_address,t_struct(BorrowInfo)901_storage))"
					},
					{
						"astId": 911,
						"contract": "contracts/LendingPool.sol:LendingPool",
						"label": "escrow",
						"offset": 0,
						"slot": "9",
						"type": "t_contract(Escrow)855"
					}
				],
				"types": {
					"t_address": {
						"encoding": "inplace",
						"label": "address",
						"numberOfBytes": "20"
					},
					"t_array(t_address)dyn_storage": {
						"base": "t_address",
						"encoding": "dynamic_array",
						"label": "address[]",
						"numberOfBytes": "32"
					},
					"t_contract(Escrow)855": {
						"encoding": "inplace",
						"label": "contract Escrow",
						"numberOfBytes": "20"
					},
					"t_mapping(t_address,t_mapping(t_address,t_struct(BorrowInfo)901_storage))": {
						"encoding": "mapping",
						"key": "t_address",
						"label": "mapping(address => mapping(address => struct LendingPool.BorrowInfo))",
						"numberOfBytes": "32",
						"value": "t_mapping(t_address,t_struct(BorrowInfo)901_storage)"
					},
					"t_mapping(t_address,t_mapping(t_address,t_uint256))": {
						"encoding": "mapping",
						"key": "t_address",
						"label": "mapping(address => mapping(address => uint256))",
						"numberOfBytes": "32",
						"value": "t_mapping(t_address,t_uint256)"
					},
					"t_mapping(t_address,t_struct(BorrowInfo)901_storage)": {
						"encoding": "mapping",
						"key": "t_address",
						"label": "mapping(address => struct LendingPool.BorrowInfo)",
						"numberOfBytes": "32",
						"value": "t_struct(BorrowInfo)901_storage"
					},
					"t_mapping(t_address,t_uint256)": {
						"encoding": "mapping",
						"key": "t_address",
						"label": "mapping(address => uint256)",
						"numberOfBytes": "32",
						"value": "t_uint256"
					},
					"t_struct(BorrowInfo)901_storage": {
						"encoding": "inplace",
						"label": "struct LendingPool.BorrowInfo",
						"members": [
							{
								"astId": 896,
								"contract": "contracts/LendingPool.sol:LendingPool",
								"label": "amount",
								"offset": 0,
								"slot": "0",
								"type": "t_uint256"
							},
							{
								"astId": 898,
								"contract": "contracts/LendingPool.sol:LendingPool",
								"label": "interestRate",
								"offset": 0,
								"slot": "1",
								"type": "t_uint256"
							},
							{
								"astId": 900,
								"contract": "contracts/LendingPool.sol:LendingPool",
								"label": "startTime",
								"offset": 0,
								"slot": "2",
								"type": "t_uint256"
							}
						],
						"numberOfBytes": "96"
					},
					"t_uint256": {
						"encoding": "inplace",
						"label": "uint256",
						"numberOfBytes": "32"
					}
				}
			},
			"userdoc": {
				"kind": "user",
				"methods": {},
				"version": 1
			}
		}
	}
}