{
	"contracts/LendingPool.sol": {
		"LendingPool": {
			"abi": [
				{
					"inputs": [
						{
							"internalType": "contract Escrow",
							"name": "_escrow",
							"type": "address"
						}
					],
					"stateMutability": "nonpayable",
					"type": "constructor"
				},
				{
					"anonymous": false,
					"inputs": [
						{
							"indexed": true,
							"internalType": "address",
							"name": "user",
							"type": "address"
						},
						{
							"indexed": true,
							"internalType": "address",
							"name": "token",
							"type": "address"
						},
						{
							"indexed": false,
							"internalType": "uint256",
							"name": "amount",
							"type": "uint256"
						},
						{
							"indexed": false,
							"internalType": "uint256",
							"name": "interestRate",
							"type": "uint256"
						},
						{
							"indexed": false,
							"internalType": "uint256",
							"name": "startTime",
							"type": "uint256"
						}
					],
					"name": "Borrowed",
					"type": "event"
				},
				{
					"anonymous": false,
					"inputs": [
						{
							"indexed": true,
							"internalType": "address",
							"name": "token",
							"type": "address"
						},
						{
							"indexed": true,
							"internalType": "address",
							"name": "user",
							"type": "address"
						},
						{
							"indexed": false,
							"internalType": "uint256",
							"name": "amount",
							"type": "uint256"
						}
					],
					"name": "DepositMade",
					"type": "event"
				},
				{
					"inputs": [],
					"name": "baseInterestRate",
					"outputs": [
						{
							"internalType": "uint256",
							"name": "",
							"type": "uint256"
						}
					],
					"stateMutability": "view",
					"type": "function"
				},
				{
					"inputs": [
						{
							"internalType": "address",
							"name": "token",
							"type": "address"
						},
						{
							"internalType": "uint256",
							"name": "amount",
							"type": "uint256"
						}
					],
					"name": "borrow",
					"outputs": [],
					"stateMutability": "nonpayable",
					"type": "function"
				},
				{
					"inputs": [
						{
							"internalType": "address",
							"name": "",
							"type": "address"
						},
						{
							"internalType": "address",
							"name": "",
							"type": "address"
						}
					],
					"name": "borrowedToken",
					"outputs": [
						{
							"internalType": "uint256",
							"name": "amount",
							"type": "uint256"
						},
						{
							"internalType": "uint256",
							"name": "interestRate",
							"type": "uint256"
						},
						{
							"internalType": "uint256",
							"name": "startTime",
							"type": "uint256"
						}
					],
					"stateMutability": "view",
					"type": "function"
				},
				{
					"inputs": [
						{
							"internalType": "address",
							"name": "token",
							"type": "address"
						},
						{
							"internalType": "address",
							"name": "user",
							"type": "address"
						}
					],
					"name": "calculateAccruedInterest",
					"outputs": [
						{
							"internalType": "uint256",
							"name": "",
							"type": "uint256"
						}
					],
					"stateMutability": "view",
					"type": "function"
				},
				{
					"inputs": [
						{
							"internalType": "address",
							"name": "token",
							"type": "address"
						},
						{
							"internalType": "uint256",
							"name": "totalSupply",
							"type": "uint256"
						},
						{
							"internalType": "uint256",
							"name": "totalBorrows",
							"type": "uint256"
						}
					],
					"name": "calculateInterestRate",
					"outputs": [
						{
							"internalType": "uint256",
							"name": "",
							"type": "uint256"
						}
					],
					"stateMutability": "view",
					"type": "function"
				},
				{
					"inputs": [
						{
							"internalType": "uint256",
							"name": "repayAmount",
							"type": "uint256"
						},
						{
							"internalType": "uint256",
							"name": "accruedInterest",
							"type": "uint256"
						}
					],
					"name": "calculateRepayableCollateral",
					"outputs": [
						{
							"internalType": "uint256",
							"name": "",
							"type": "uint256"
						}
					],
					"stateMutability": "nonpayable",
					"type": "function"
				},
				{
					"inputs": [
						{
							"internalType": "uint256",
							"name": "borrowAmount",
							"type": "uint256"
						}
					],
					"name": "calculateRequiredCollateral",
					"outputs": [
						{
							"internalType": "uint256",
							"name": "",
							"type": "uint256"
						}
					],
					"stateMutability": "pure",
					"type": "function"
				},
				{
					"inputs": [
						{
							"internalType": "address",
							"name": "",
							"type": "address"
						},
						{
							"internalType": "address",
							"name": "",
							"type": "address"
						}
					],
					"name": "collateral",
					"outputs": [
						{
							"internalType": "uint256",
							"name": "",
							"type": "uint256"
						}
					],
					"stateMutability": "view",
					"type": "function"
				},
				{
					"inputs": [
						{
							"internalType": "address",
							"name": "token",
							"type": "address"
						},
						{
							"internalType": "uint256",
							"name": "amount",
							"type": "uint256"
						}
					],
					"name": "deposit",
					"outputs": [],
					"stateMutability": "nonpayable",
					"type": "function"
				},
				{
					"inputs": [
						{
							"internalType": "address",
							"name": "token",
							"type": "address"
						},
						{
							"internalType": "address",
							"name": "borrower",
							"type": "address"
						},
						{
							"internalType": "uint256",
							"name": "amount",
							"type": "uint256"
						}
					],
					"name": "depositCollateral",
					"outputs": [],
					"stateMutability": "nonpayable",
					"type": "function"
				},
				{
					"inputs": [],
					"name": "escrow",
					"outputs": [
						{
							"internalType": "contract Escrow",
							"name": "",
							"type": "address"
						}
					],
					"stateMutability": "view",
					"type": "function"
				},
				{
					"inputs": [
						{
							"internalType": "address",
							"name": "user",
							"type": "address"
						},
						{
							"internalType": "address",
							"name": "token",
							"type": "address"
						}
					],
					"name": "getUserBalance",
					"outputs": [
						{
							"internalType": "uint256",
							"name": "",
							"type": "uint256"
						}
					],
					"stateMutability": "view",
					"type": "function"
				},
				{
					"inputs": [
						{
							"internalType": "address",
							"name": "user",
							"type": "address"
						},
						{
							"internalType": "address",
							"name": "token",
							"type": "address"
						},
						{
							"internalType": "uint256",
							"name": "borrowAmount",
							"type": "uint256"
						}
					],
					"name": "isSufficientCollateral",
					"outputs": [
						{
							"internalType": "bool",
							"name": "",
							"type": "bool"
						}
					],
					"stateMutability": "view",
					"type": "function"
				},
				{
					"inputs": [
						{
							"internalType": "address",
							"name": "token",
							"type": "address"
						},
						{
							"internalType": "uint256",
							"name": "amount",
							"type": "uint256"
						}
					],
					"name": "repay",
					"outputs": [],
					"stateMutability": "payable",
					"type": "function"
				},
				{
					"inputs": [
						{
							"internalType": "uint256",
							"name": "",
							"type": "uint256"
						}
					],
					"name": "supportedTokens",
					"outputs": [
						{
							"internalType": "address",
							"name": "",
							"type": "address"
						}
					],
					"stateMutability": "view",
					"type": "function"
				},
				{
					"inputs": [
						{
							"internalType": "address",
							"name": "",
							"type": "address"
						}
					],
					"name": "totalBorrowedperToken",
					"outputs": [
						{
							"internalType": "uint256",
							"name": "",
							"type": "uint256"
						}
					],
					"stateMutability": "view",
					"type": "function"
				},
				{
					"inputs": [
						{
							"internalType": "address",
							"name": "",
							"type": "address"
						}
					],
					"name": "totalBorrowedperUser",
					"outputs": [
						{
							"internalType": "uint256",
							"name": "",
							"type": "uint256"
						}
					],
					"stateMutability": "view",
					"type": "function"
				},
				{
					"inputs": [
						{
							"internalType": "address",
							"name": "",
							"type": "address"
						},
						{
							"internalType": "address",
							"name": "",
							"type": "address"
						}
					],
					"name": "userBorrows",
					"outputs": [
						{
							"internalType": "uint256",
							"name": "",
							"type": "uint256"
						}
					],
					"stateMutability": "view",
					"type": "function"
				},
				{
					"inputs": [
						{
							"internalType": "address",
							"name": "",
							"type": "address"
						},
						{
							"internalType": "address",
							"name": "",
							"type": "address"
						}
					],
					"name": "userDeposits",
					"outputs": [
						{
							"internalType": "uint256",
							"name": "",
							"type": "uint256"
						}
					],
					"stateMutability": "view",
					"type": "function"
				},
				{
					"inputs": [
						{
							"internalType": "address",
							"name": "token",
							"type": "address"
						},
						{
							"internalType": "address",
							"name": "borrower",
							"type": "address"
						},
						{
							"internalType": "uint256",
							"name": "amount",
							"type": "uint256"
						}
					],
					"name": "withdrawCollateral",
					"outputs": [],
					"stateMutability": "nonpayable",
					"type": "function"
				}
			],
			"devdoc": {
				"kind": "dev",
				"methods": {},
				"version": 1
			},
			"evm": {
				"assembly": "    /* \"contracts/LendingPool.sol\":208:7268  contract LendingPool is ReentrancyGuard... */\n  mstore(0x40, 0x80)\n    /* \"contracts/LendingPool.sol\":290:292  10 */\n  0x0a\n    /* \"contracts/LendingPool.sol\":256:292  uint256 public baseInterestRate = 10 */\n  0x01\n  sstore\n    /* \"contracts/LendingPool.sol\":1372:1440  constructor(Escrow _escrow)... */\n  callvalue\n  dup1\n  iszero\n  tag_1\n  jumpi\n  0x00\n  dup1\n  revert\ntag_1:\n  pop\n  mload(0x40)\n  sub(codesize, bytecodeSize)\n  dup1\n  bytecodeSize\n  dup4\n  codecopy\n  dup2\n  dup2\n  add\n  0x40\n  mstore\n  dup2\n  add\n  swap1\n  tag_2\n  swap2\n  swap1\n  tag_3\n  jump\t// in\ntag_2:\n    /* \"@openzeppelin/contracts/security/ReentrancyGuard.sol\":1716:1717  1 */\n  0x01\n    /* \"@openzeppelin/contracts/security/ReentrancyGuard.sol\":1821:1828  _status */\n  0x00\n    /* \"@openzeppelin/contracts/security/ReentrancyGuard.sol\":1821:1843  _status = _NOT_ENTERED */\n  dup2\n  swap1\n  sstore\n  pop\n    /* \"contracts/LendingPool.sol\":1425:1432  _escrow */\n  dup1\n    /* \"contracts/LendingPool.sol\":1416:1422  escrow */\n  0x09\n  0x00\n    /* \"contracts/LendingPool.sol\":1416:1432  escrow = _escrow */\n  0x0100\n  exp\n  dup2\n  sload\n  dup2\n  0xffffffffffffffffffffffffffffffffffffffff\n  mul\n  not\n  and\n  swap1\n  dup4\n  0xffffffffffffffffffffffffffffffffffffffff\n  and\n  mul\n  or\n  swap1\n  sstore\n  pop\n    /* \"contracts/LendingPool.sol\":1372:1440  constructor(Escrow _escrow)... */\n  pop\n    /* \"contracts/LendingPool.sol\":208:7268  contract LendingPool is ReentrancyGuard... */\n  jump(tag_8)\n    /* \"#utility.yul\":88:205   */\ntag_10:\n    /* \"#utility.yul\":197:198   */\n  0x00\n    /* \"#utility.yul\":194:195   */\n  dup1\n    /* \"#utility.yul\":187:199   */\n  revert\n    /* \"#utility.yul\":334:460   */\ntag_12:\n    /* \"#utility.yul\":371:378   */\n  0x00\n    /* \"#utility.yul\":411:453   */\n  0xffffffffffffffffffffffffffffffffffffffff\n    /* \"#utility.yul\":404:409   */\n  dup3\n    /* \"#utility.yul\":400:454   */\n  and\n    /* \"#utility.yul\":389:454   */\n  swap1\n  pop\n    /* \"#utility.yul\":334:460   */\n  swap2\n  swap1\n  pop\n  jump\t// out\n    /* \"#utility.yul\":466:562   */\ntag_13:\n    /* \"#utility.yul\":503:510   */\n  0x00\n    /* \"#utility.yul\":532:556   */\n  tag_23\n    /* \"#utility.yul\":550:555   */\n  dup3\n    /* \"#utility.yul\":532:556   */\n  tag_12\n  jump\t// in\ntag_23:\n    /* \"#utility.yul\":521:556   */\n  swap1\n  pop\n    /* \"#utility.yul\":466:562   */\n  swap2\n  swap1\n  pop\n  jump\t// out\n    /* \"#utility.yul\":568:678   */\ntag_14:\n    /* \"#utility.yul\":619:626   */\n  0x00\n    /* \"#utility.yul\":648:672   */\n  tag_25\n    /* \"#utility.yul\":666:671   */\n  dup3\n    /* \"#utility.yul\":648:672   */\n  tag_13\n  jump\t// in\ntag_25:\n    /* \"#utility.yul\":637:672   */\n  swap1\n  pop\n    /* \"#utility.yul\":568:678   */\n  swap2\n  swap1\n  pop\n  jump\t// out\n    /* \"#utility.yul\":684:834   */\ntag_15:\n    /* \"#utility.yul\":771:809   */\n  tag_27\n    /* \"#utility.yul\":803:808   */\n  dup2\n    /* \"#utility.yul\":771:809   */\n  tag_14\n  jump\t// in\ntag_27:\n    /* \"#utility.yul\":764:769   */\n  dup2\n    /* \"#utility.yul\":761:810   */\n  eq\n    /* \"#utility.yul\":751:828   */\n  tag_28\n  jumpi\n    /* \"#utility.yul\":824:825   */\n  0x00\n    /* \"#utility.yul\":821:822   */\n  dup1\n    /* \"#utility.yul\":814:826   */\n  revert\n    /* \"#utility.yul\":751:828   */\ntag_28:\n    /* \"#utility.yul\":684:834   */\n  pop\n  jump\t// out\n    /* \"#utility.yul\":840:1011   */\ntag_16:\n    /* \"#utility.yul\":911:916   */\n  0x00\n    /* \"#utility.yul\":942:948   */\n  dup2\n    /* \"#utility.yul\":936:949   */\n  mload\n    /* \"#utility.yul\":927:949   */\n  swap1\n  pop\n    /* \"#utility.yul\":958:1005   */\n  tag_30\n    /* \"#utility.yul\":999:1004   */\n  dup2\n    /* \"#utility.yul\":958:1005   */\n  tag_15\n  jump\t// in\ntag_30:\n    /* \"#utility.yul\":840:1011   */\n  swap3\n  swap2\n  pop\n  pop\n  jump\t// out\n    /* \"#utility.yul\":1017:1396   */\ntag_3:\n    /* \"#utility.yul\":1101:1107   */\n  0x00\n    /* \"#utility.yul\":1150:1152   */\n  0x20\n    /* \"#utility.yul\":1138:1147   */\n  dup3\n    /* \"#utility.yul\":1129:1136   */\n  dup5\n    /* \"#utility.yul\":1125:1148   */\n  sub\n    /* \"#utility.yul\":1121:1153   */\n  slt\n    /* \"#utility.yul\":1118:1237   */\n  iszero\n  tag_32\n  jumpi\n    /* \"#utility.yul\":1156:1235   */\n  tag_33\n  tag_10\n  jump\t// in\ntag_33:\n    /* \"#utility.yul\":1118:1237   */\ntag_32:\n    /* \"#utility.yul\":1276:1277   */\n  0x00\n    /* \"#utility.yul\":1301:1379   */\n  tag_34\n    /* \"#utility.yul\":1371:1378   */\n  dup5\n    /* \"#utility.yul\":1362:1368   */\n  dup3\n    /* \"#utility.yul\":1351:1360   */\n  dup6\n    /* \"#utility.yul\":1347:1369   */\n  add\n    /* \"#utility.yul\":1301:1379   */\n  tag_16\n  jump\t// in\ntag_34:\n    /* \"#utility.yul\":1291:1379   */\n  swap2\n  pop\n    /* \"#utility.yul\":1247:1389   */\n  pop\n    /* \"#utility.yul\":1017:1396   */\n  swap3\n  swap2\n  pop\n  pop\n  jump\t// out\n    /* \"contracts/LendingPool.sol\":208:7268  contract LendingPool is ReentrancyGuard... */\ntag_8:\n  dataSize(sub_0)\n  dup1\n  dataOffset(sub_0)\n  0x00\n  codecopy\n  0x00\n  return\nstop\n\nsub_0: assembly {\n        /* \"contracts/LendingPool.sol\":208:7268  contract LendingPool is ReentrancyGuard... */\n      mstore(0x40, 0x80)\n      jumpi(tag_1, lt(calldatasize, 0x04))\n      shr(0xe0, calldataload(0x00))\n      dup1\n      0x664fa64e\n      gt\n      tag_22\n      jumpi\n      dup1\n      0xcc218ece\n      gt\n      tag_23\n      jumpi\n      dup1\n      0xcc218ece\n      eq\n      tag_17\n      jumpi\n      dup1\n      0xd526fc2e\n      eq\n      tag_18\n      jumpi\n      dup1\n      0xe2fdcc17\n      eq\n      tag_19\n      jumpi\n      dup1\n      0xe80894b6\n      eq\n      tag_20\n      jumpi\n      dup1\n      0xf970c3b7\n      eq\n      tag_21\n      jumpi\n      jump(tag_1)\n    tag_23:\n      dup1\n      0x664fa64e\n      eq\n      tag_12\n      jumpi\n      dup1\n      0x6805d6ad\n      eq\n      tag_13\n      jumpi\n      dup1\n      0x9ee7f702\n      eq\n      tag_14\n      jumpi\n      dup1\n      0xafd92762\n      eq\n      tag_15\n      jumpi\n      dup1\n      0xc6255626\n      eq\n      tag_16\n      jumpi\n      jump(tag_1)\n    tag_22:\n      dup1\n      0x34931b4b\n      gt\n      tag_24\n      jumpi\n      dup1\n      0x34931b4b\n      eq\n      tag_7\n      jumpi\n      dup1\n      0x3b591d6a\n      eq\n      tag_8\n      jumpi\n      dup1\n      0x436d8039\n      eq\n      tag_9\n      jumpi\n      dup1\n      0x47e7ef24\n      eq\n      tag_10\n      jumpi\n      dup1\n      0x4b8a3529\n      eq\n      tag_11\n      jumpi\n      jump(tag_1)\n    tag_24:\n      dup1\n      0x22867d78\n      eq\n      tag_2\n      jumpi\n      dup1\n      0x234a14f9\n      eq\n      tag_3\n      jumpi\n      dup1\n      0x23d0fda1\n      eq\n      tag_4\n      jumpi\n      dup1\n      0x272d1b8e\n      eq\n      tag_5\n      jumpi\n      dup1\n      0x2ae8bdfe\n      eq\n      tag_6\n      jumpi\n    tag_1:\n      0x00\n      dup1\n      revert\n        /* \"contracts/LendingPool.sol\":3596:4722  function repay(address token, uint256 amount) public payable nonReentrant... */\n    tag_2:\n      tag_25\n      0x04\n      dup1\n      calldatasize\n      sub\n      dup2\n      add\n      swap1\n      tag_26\n      swap2\n      swap1\n      tag_27\n      jump\t// in\n    tag_26:\n      tag_28\n      jump\t// in\n    tag_25:\n      stop\n        /* \"contracts/LendingPool.sol\":525:593  mapping (address => mapping (address => uint256)) public userBorrows */\n    tag_3:\n      callvalue\n      dup1\n      iszero\n      tag_29\n      jumpi\n      0x00\n      dup1\n      revert\n    tag_29:\n      pop\n      tag_30\n      0x04\n      dup1\n      calldatasize\n      sub\n      dup2\n      add\n      swap1\n      tag_31\n      swap2\n      swap1\n      tag_32\n      jump\t// in\n    tag_31:\n      tag_33\n      jump\t// in\n    tag_30:\n      mload(0x40)\n      tag_34\n      swap2\n      swap1\n      tag_35\n      jump\t// in\n    tag_34:\n      mload(0x40)\n      dup1\n      swap2\n      sub\n      swap1\n      return\n        /* \"contracts/LendingPool.sol\":941:996  mapping(address => uint256) public totalBorrowedperUser */\n    tag_4:\n      callvalue\n      dup1\n      iszero\n      tag_36\n      jumpi\n      0x00\n      dup1\n      revert\n    tag_36:\n      pop\n      tag_37\n      0x04\n      dup1\n      calldatasize\n      sub\n      dup2\n      add\n      swap1\n      tag_38\n      swap2\n      swap1\n      tag_39\n      jump\t// in\n    tag_38:\n      tag_40\n      jump\t// in\n    tag_37:\n      mload(0x40)\n      tag_41\n      swap2\n      swap1\n      tag_35\n      jump\t// in\n    tag_41:\n      mload(0x40)\n      dup1\n      swap2\n      sub\n      swap1\n      return\n        /* \"contracts/LendingPool.sol\":1209:1280  mapping(address => mapping(address => BorrowInfo)) public borrowedToken */\n    tag_5:\n      callvalue\n      dup1\n      iszero\n      tag_42\n      jumpi\n      0x00\n      dup1\n      revert\n    tag_42:\n      pop\n      tag_43\n      0x04\n      dup1\n      calldatasize\n      sub\n      dup2\n      add\n      swap1\n      tag_44\n      swap2\n      swap1\n      tag_32\n      jump\t// in\n    tag_44:\n      tag_45\n      jump\t// in\n    tag_43:\n      mload(0x40)\n      tag_46\n      swap4\n      swap3\n      swap2\n      swap1\n      tag_47\n      jump\t// in\n    tag_46:\n      mload(0x40)\n      dup1\n      swap2\n      sub\n      swap1\n      return\n        /* \"contracts/LendingPool.sol\":6940:7026  function withdrawCollateral(address token, address borrower, uint256 amount) public {} */\n    tag_6:\n      callvalue\n      dup1\n      iszero\n      tag_48\n      jumpi\n      0x00\n      dup1\n      revert\n    tag_48:\n      pop\n      tag_49\n      0x04\n      dup1\n      calldatasize\n      sub\n      dup2\n      add\n      swap1\n      tag_50\n      swap2\n      swap1\n      tag_51\n      jump\t// in\n    tag_50:\n      tag_52\n      jump\t// in\n    tag_49:\n      stop\n        /* \"contracts/LendingPool.sol\":6643:6904  function calculateRequiredCollateral(uint256 borrowAmount) public pure returns(uint256)... */\n    tag_7:\n      callvalue\n      dup1\n      iszero\n      tag_53\n      jumpi\n      0x00\n      dup1\n      revert\n    tag_53:\n      pop\n      tag_54\n      0x04\n      dup1\n      calldatasize\n      sub\n      dup2\n      add\n      swap1\n      tag_55\n      swap2\n      swap1\n      tag_56\n      jump\t// in\n    tag_55:\n      tag_57\n      jump\t// in\n    tag_54:\n      mload(0x40)\n      tag_58\n      swap2\n      swap1\n      tag_35\n      jump\t// in\n    tag_58:\n      mload(0x40)\n      dup1\n      swap2\n      sub\n      swap1\n      return\n        /* \"contracts/LendingPool.sol\":6312:6635  function isSufficientCollateral(address user, address token, uint256 borrowAmount) public view returns(bool)... */\n    tag_8:\n      callvalue\n      dup1\n      iszero\n      tag_59\n      jumpi\n      0x00\n      dup1\n      revert\n    tag_59:\n      pop\n      tag_60\n      0x04\n      dup1\n      calldatasize\n      sub\n      dup2\n      add\n      swap1\n      tag_61\n      swap2\n      swap1\n      tag_51\n      jump\t// in\n    tag_61:\n      tag_62\n      jump\t// in\n    tag_60:\n      mload(0x40)\n      tag_63\n      swap2\n      swap1\n      tag_64\n      jump\t// in\n    tag_63:\n      mload(0x40)\n      dup1\n      swap2\n      sub\n      swap1\n      return\n        /* \"contracts/LendingPool.sol\":337:405  mapping (address => mapping(address => uint256)) public userDeposits */\n    tag_9:\n      callvalue\n      dup1\n      iszero\n      tag_65\n      jumpi\n      0x00\n      dup1\n      revert\n    tag_65:\n      pop\n      tag_66\n      0x04\n      dup1\n      calldatasize\n      sub\n      dup2\n      add\n      swap1\n      tag_67\n      swap2\n      swap1\n      tag_32\n      jump\t// in\n    tag_67:\n      tag_68\n      jump\t// in\n    tag_66:\n      mload(0x40)\n      tag_69\n      swap2\n      swap1\n      tag_35\n      jump\t// in\n    tag_69:\n      mload(0x40)\n      dup1\n      swap2\n      sub\n      swap1\n      return\n        /* \"contracts/LendingPool.sol\":1716:2087  function deposit(address token, uint256 amount) public... */\n    tag_10:\n      callvalue\n      dup1\n      iszero\n      tag_70\n      jumpi\n      0x00\n      dup1\n      revert\n    tag_70:\n      pop\n      tag_71\n      0x04\n      dup1\n      calldatasize\n      sub\n      dup2\n      add\n      swap1\n      tag_72\n      swap2\n      swap1\n      tag_27\n      jump\t// in\n    tag_72:\n      tag_73\n      jump\t// in\n    tag_71:\n      stop\n        /* \"contracts/LendingPool.sol\":2406:3588  function borrow(address token, uint256 amount) public nonReentrant... */\n    tag_11:\n      callvalue\n      dup1\n      iszero\n      tag_74\n      jumpi\n      0x00\n      dup1\n      revert\n    tag_74:\n      pop\n      tag_75\n      0x04\n      dup1\n      calldatasize\n      sub\n      dup2\n      add\n      swap1\n      tag_76\n      swap2\n      swap1\n      tag_27\n      jump\t// in\n    tag_76:\n      tag_77\n      jump\t// in\n    tag_75:\n      stop\n        /* \"contracts/LendingPool.sol\":4773:5180  function calculateAccruedInterest(address token, address user) public view returns (uint256) {... */\n    tag_12:\n      callvalue\n      dup1\n      iszero\n      tag_78\n      jumpi\n      0x00\n      dup1\n      revert\n    tag_78:\n      pop\n      tag_79\n      0x04\n      dup1\n      calldatasize\n      sub\n      dup2\n      add\n      swap1\n      tag_80\n      swap2\n      swap1\n      tag_32\n      jump\t// in\n    tag_80:\n      tag_81\n      jump\t// in\n    tag_79:\n      mload(0x40)\n      tag_82\n      swap2\n      swap1\n      tag_35\n      jump\t// in\n    tag_82:\n      mload(0x40)\n      dup1\n      swap2\n      sub\n      swap1\n      return\n        /* \"contracts/LendingPool.sol\":2160:2345  function getUserBalance(address user, address token) public view returns(uint256)... */\n    tag_13:\n      callvalue\n      dup1\n      iszero\n      tag_83\n      jumpi\n      0x00\n      dup1\n      revert\n    tag_83:\n      pop\n      tag_84\n      0x04\n      dup1\n      calldatasize\n      sub\n      dup2\n      add\n      swap1\n      tag_85\n      swap2\n      swap1\n      tag_32\n      jump\t// in\n    tag_85:\n      tag_86\n      jump\t// in\n    tag_84:\n      mload(0x40)\n      tag_87\n      swap2\n      swap1\n      tag_35\n      jump\t// in\n    tag_87:\n      mload(0x40)\n      dup1\n      swap2\n      sub\n      swap1\n      return\n        /* \"contracts/LendingPool.sol\":7034:7259  function calculateInterestRate(address token, uint256 totalSupply, uint256 totalBorrows) public view returns (uint256) {... */\n    tag_14:\n      callvalue\n      dup1\n      iszero\n      tag_88\n      jumpi\n      0x00\n      dup1\n      revert\n    tag_88:\n      pop\n      tag_89\n      0x04\n      dup1\n      calldatasize\n      sub\n      dup2\n      add\n      swap1\n      tag_90\n      swap2\n      swap1\n      tag_91\n      jump\t// in\n    tag_90:\n      tag_92\n      jump\t// in\n    tag_89:\n      mload(0x40)\n      tag_93\n      swap2\n      swap1\n      tag_35\n      jump\t// in\n    tag_93:\n      mload(0x40)\n      dup1\n      swap2\n      sub\n      swap1\n      return\n        /* \"contracts/LendingPool.sol\":256:292  uint256 public baseInterestRate = 10 */\n    tag_15:\n      callvalue\n      dup1\n      iszero\n      tag_94\n      jumpi\n      0x00\n      dup1\n      revert\n    tag_94:\n      pop\n      tag_95\n      tag_96\n      jump\t// in\n    tag_95:\n      mload(0x40)\n      tag_97\n      swap2\n      swap1\n      tag_35\n      jump\t// in\n    tag_97:\n      mload(0x40)\n      dup1\n      swap2\n      sub\n      swap1\n      return\n        /* \"contracts/LendingPool.sol\":455:487  address[] public supportedTokens */\n    tag_16:\n      callvalue\n      dup1\n      iszero\n      tag_98\n      jumpi\n      0x00\n      dup1\n      revert\n    tag_98:\n      pop\n      tag_99\n      0x04\n      dup1\n      calldatasize\n      sub\n      dup2\n      add\n      swap1\n      tag_100\n      swap2\n      swap1\n      tag_56\n      jump\t// in\n    tag_100:\n      tag_101\n      jump\t// in\n    tag_99:\n      mload(0x40)\n      tag_102\n      swap2\n      swap1\n      tag_103\n      jump\t// in\n    tag_102:\n      mload(0x40)\n      dup1\n      swap2\n      sub\n      swap1\n      return\n        /* \"contracts/LendingPool.sol\":689:754  mapping(address => mapping(address => uint256)) public collateral */\n    tag_17:\n      callvalue\n      dup1\n      iszero\n      tag_104\n      jumpi\n      0x00\n      dup1\n      revert\n    tag_104:\n      pop\n      tag_105\n      0x04\n      dup1\n      calldatasize\n      sub\n      dup2\n      add\n      swap1\n      tag_106\n      swap2\n      swap1\n      tag_32\n      jump\t// in\n    tag_106:\n      tag_107\n      jump\t// in\n    tag_105:\n      mload(0x40)\n      tag_108\n      swap2\n      swap1\n      tag_35\n      jump\t// in\n    tag_108:\n      mload(0x40)\n      dup1\n      swap2\n      sub\n      swap1\n      return\n        /* \"contracts/LendingPool.sol\":5239:6070  function calculateRepayableCollateral(uint256 repayAmount, uint256 accruedInterest) public returns (uint256)... */\n    tag_18:\n      callvalue\n      dup1\n      iszero\n      tag_109\n      jumpi\n      0x00\n      dup1\n      revert\n    tag_109:\n      pop\n      tag_110\n      0x04\n      dup1\n      calldatasize\n      sub\n      dup2\n      add\n      swap1\n      tag_111\n      swap2\n      swap1\n      tag_112\n      jump\t// in\n    tag_111:\n      tag_113\n      jump\t// in\n    tag_110:\n      mload(0x40)\n      tag_114\n      swap2\n      swap1\n      tag_35\n      jump\t// in\n    tag_114:\n      mload(0x40)\n      dup1\n      swap2\n      sub\n      swap1\n      return\n        /* \"contracts/LendingPool.sol\":1339:1359  Escrow public escrow */\n    tag_19:\n      callvalue\n      dup1\n      iszero\n      tag_115\n      jumpi\n      0x00\n      dup1\n      revert\n    tag_115:\n      pop\n      tag_116\n      tag_117\n      jump\t// in\n    tag_116:\n      mload(0x40)\n      tag_118\n      swap2\n      swap1\n      tag_119\n      jump\t// in\n    tag_118:\n      mload(0x40)\n      dup1\n      swap2\n      sub\n      swap1\n      return\n        /* \"contracts/LendingPool.sol\":845:901  mapping(address => uint256) public totalBorrowedperToken */\n    tag_20:\n      callvalue\n      dup1\n      iszero\n      tag_120\n      jumpi\n      0x00\n      dup1\n      revert\n    tag_120:\n      pop\n      tag_121\n      0x04\n      dup1\n      calldatasize\n      sub\n      dup2\n      add\n      swap1\n      tag_122\n      swap2\n      swap1\n      tag_39\n      jump\t// in\n    tag_122:\n      tag_123\n      jump\t// in\n    tag_121:\n      mload(0x40)\n      tag_124\n      swap2\n      swap1\n      tag_35\n      jump\t// in\n    tag_124:\n      mload(0x40)\n      dup1\n      swap2\n      sub\n      swap1\n      return\n        /* \"contracts/LendingPool.sol\":6220:6304  function depositCollateral(address token, address borrower, uint256 amount) public{} */\n    tag_21:\n      callvalue\n      dup1\n      iszero\n      tag_125\n      jumpi\n      0x00\n      dup1\n      revert\n    tag_125:\n      pop\n      tag_126\n      0x04\n      dup1\n      calldatasize\n      sub\n      dup2\n      add\n      swap1\n      tag_127\n      swap2\n      swap1\n      tag_51\n      jump\t// in\n    tag_127:\n      tag_128\n      jump\t// in\n    tag_126:\n      stop\n        /* \"contracts/LendingPool.sol\":3596:4722  function repay(address token, uint256 amount) public payable nonReentrant... */\n    tag_28:\n        /* \"@openzeppelin/contracts/security/ReentrancyGuard.sol\":2261:2282  _nonReentrantBefore() */\n      tag_130\n        /* \"@openzeppelin/contracts/security/ReentrancyGuard.sol\":2261:2280  _nonReentrantBefore */\n      tag_131\n        /* \"@openzeppelin/contracts/security/ReentrancyGuard.sol\":2261:2282  _nonReentrantBefore() */\n      jump\t// in\n    tag_130:\n        /* \"contracts/LendingPool.sol\":3703:3704  0 */\n      0x00\n        /* \"contracts/LendingPool.sol\":3694:3700  amount */\n      dup2\n        /* \"contracts/LendingPool.sol\":3694:3704  amount > 0 */\n      gt\n        /* \"contracts/LendingPool.sol\":3686:3751  require(amount > 0, \"Repayment amount must be greater than zero\") */\n      tag_133\n      jumpi\n      mload(0x40)\n      0x08c379a000000000000000000000000000000000000000000000000000000000\n      dup2\n      mstore\n      0x04\n      add\n      tag_134\n      swap1\n      tag_135\n      jump\t// in\n    tag_134:\n      mload(0x40)\n      dup1\n      swap2\n      sub\n      swap1\n      revert\n    tag_133:\n        /* \"contracts/LendingPool.sol\":3858:3864  amount */\n      dup1\n        /* \"contracts/LendingPool.sol\":3824:3835  userBorrows */\n      0x04\n        /* \"contracts/LendingPool.sol\":3824:3842  userBorrows[token] */\n      0x00\n        /* \"contracts/LendingPool.sol\":3836:3841  token */\n      dup5\n        /* \"contracts/LendingPool.sol\":3824:3842  userBorrows[token] */\n      0xffffffffffffffffffffffffffffffffffffffff\n      and\n      0xffffffffffffffffffffffffffffffffffffffff\n      and\n      dup2\n      mstore\n      0x20\n      add\n      swap1\n      dup2\n      mstore\n      0x20\n      add\n      0x00\n      keccak256\n        /* \"contracts/LendingPool.sol\":3824:3854  userBorrows[token][msg.sender] */\n      0x00\n        /* \"contracts/LendingPool.sol\":3843:3853  msg.sender */\n      caller\n        /* \"contracts/LendingPool.sol\":3824:3854  userBorrows[token][msg.sender] */\n      0xffffffffffffffffffffffffffffffffffffffff\n      and\n      0xffffffffffffffffffffffffffffffffffffffff\n      and\n      dup2\n      mstore\n      0x20\n      add\n      swap1\n      dup2\n      mstore\n      0x20\n      add\n      0x00\n      keccak256\n      0x00\n        /* \"contracts/LendingPool.sol\":3824:3864  userBorrows[token][msg.sender] -= amount */\n      dup3\n      dup3\n      sload\n      tag_136\n      swap2\n      swap1\n      tag_137\n      jump\t// in\n    tag_136:\n      swap3\n      pop\n      pop\n      dup2\n      swap1\n      sstore\n      pop\n        /* \"contracts/LendingPool.sol\":3907:3913  amount */\n      dup1\n        /* \"contracts/LendingPool.sol\":3875:3896  totalBorrowedperToken */\n      0x06\n        /* \"contracts/LendingPool.sol\":3875:3903  totalBorrowedperToken[token] */\n      0x00\n        /* \"contracts/LendingPool.sol\":3897:3902  token */\n      dup5\n        /* \"contracts/LendingPool.sol\":3875:3903  totalBorrowedperToken[token] */\n      0xffffffffffffffffffffffffffffffffffffffff\n      and\n      0xffffffffffffffffffffffffffffffffffffffff\n      and\n      dup2\n      mstore\n      0x20\n      add\n      swap1\n      dup2\n      mstore\n      0x20\n      add\n      0x00\n      keccak256\n      0x00\n        /* \"contracts/LendingPool.sol\":3875:3913  totalBorrowedperToken[token] -= amount */\n      dup3\n      dup3\n      sload\n      tag_138\n      swap2\n      swap1\n      tag_137\n      jump\t// in\n    tag_138:\n      swap3\n      pop\n      pop\n      dup2\n      swap1\n      sstore\n      pop\n        /* \"contracts/LendingPool.sol\":3960:3966  amount */\n      dup1\n        /* \"contracts/LendingPool.sol\":3924:3944  totalBorrowedperUser */\n      0x07\n        /* \"contracts/LendingPool.sol\":3924:3956  totalBorrowedperUser[msg.sender] */\n      0x00\n        /* \"contracts/LendingPool.sol\":3945:3955  msg.sender */\n      caller\n        /* \"contracts/LendingPool.sol\":3924:3956  totalBorrowedperUser[msg.sender] */\n      0xffffffffffffffffffffffffffffffffffffffff\n      and\n      0xffffffffffffffffffffffffffffffffffffffff\n      and\n      dup2\n      mstore\n      0x20\n      add\n      swap1\n      dup2\n      mstore\n      0x20\n      add\n      0x00\n      keccak256\n      0x00\n        /* \"contracts/LendingPool.sol\":3924:3966  totalBorrowedperUser[msg.sender] -= amount */\n      dup3\n      dup3\n      sload\n      tag_139\n      swap2\n      swap1\n      tag_137\n      jump\t// in\n    tag_139:\n      swap3\n      pop\n      pop\n      dup2\n      swap1\n      sstore\n      pop\n        /* \"contracts/LendingPool.sol\":4018:4041  uint256 accruedInterest */\n      0x00\n        /* \"contracts/LendingPool.sol\":4044:4087  calculateAccruedInterest(token, msg.sender) */\n      tag_140\n        /* \"contracts/LendingPool.sol\":4069:4074  token */\n      dup4\n        /* \"contracts/LendingPool.sol\":4076:4086  msg.sender */\n      caller\n        /* \"contracts/LendingPool.sol\":4044:4068  calculateAccruedInterest */\n      tag_81\n        /* \"contracts/LendingPool.sol\":4044:4087  calculateAccruedInterest(token, msg.sender) */\n      jump\t// in\n    tag_140:\n        /* \"contracts/LendingPool.sol\":4018:4087  uint256 accruedInterest = calculateAccruedInterest(token, msg.sender) */\n      swap1\n      pop\n        /* \"contracts/LendingPool.sol\":4184:4199  accruedInterest */\n      dup1\n        /* \"contracts/LendingPool.sol\":4175:4181  amount */\n      dup3\n        /* \"contracts/LendingPool.sol\":4175:4199  amount + accruedInterest */\n      tag_141\n      swap2\n      swap1\n      tag_142\n      jump\t// in\n    tag_141:\n        /* \"contracts/LendingPool.sol\":4141:4152  userBorrows */\n      0x04\n        /* \"contracts/LendingPool.sol\":4141:4159  userBorrows[token] */\n      0x00\n        /* \"contracts/LendingPool.sol\":4153:4158  token */\n      dup6\n        /* \"contracts/LendingPool.sol\":4141:4159  userBorrows[token] */\n      0xffffffffffffffffffffffffffffffffffffffff\n      and\n      0xffffffffffffffffffffffffffffffffffffffff\n      and\n      dup2\n      mstore\n      0x20\n      add\n      swap1\n      dup2\n      mstore\n      0x20\n      add\n      0x00\n      keccak256\n        /* \"contracts/LendingPool.sol\":4141:4171  userBorrows[token][msg.sender] */\n      0x00\n        /* \"contracts/LendingPool.sol\":4160:4170  msg.sender */\n      caller\n        /* \"contracts/LendingPool.sol\":4141:4171  userBorrows[token][msg.sender] */\n      0xffffffffffffffffffffffffffffffffffffffff\n      and\n      0xffffffffffffffffffffffffffffffffffffffff\n      and\n      dup2\n      mstore\n      0x20\n      add\n      swap1\n      dup2\n      mstore\n      0x20\n      add\n      0x00\n      keccak256\n      sload\n        /* \"contracts/LendingPool.sol\":4141:4199  userBorrows[token][msg.sender] >= amount + accruedInterest */\n      lt\n      iszero\n        /* \"contracts/LendingPool.sol\":4133:4242  require(userBorrows[token][msg.sender] >= amount + accruedInterest, \"Repayment amount exceeds borrow amount\") */\n      tag_143\n      jumpi\n      mload(0x40)\n      0x08c379a000000000000000000000000000000000000000000000000000000000\n      dup2\n      mstore\n      0x04\n      add\n      tag_144\n      swap1\n      tag_145\n      jump\t// in\n    tag_144:\n      mload(0x40)\n      dup1\n      swap2\n      sub\n      swap1\n      revert\n    tag_143:\n        /* \"contracts/LendingPool.sol\":4390:4399  msg.value */\n      callvalue\n        /* \"contracts/LendingPool.sol\":4371:4386  accruedInterest */\n      dup2\n        /* \"contracts/LendingPool.sol\":4362:4368  amount */\n      dup4\n        /* \"contracts/LendingPool.sol\":4362:4386  amount + accruedInterest */\n      tag_146\n      swap2\n      swap1\n      tag_142\n      jump\t// in\n    tag_146:\n        /* \"contracts/LendingPool.sol\":4362:4399  amount + accruedInterest >= msg.value */\n      lt\n      iszero\n        /* \"contracts/LendingPool.sol\":4354:4457  require(amount + accruedInterest >= msg.value, \"Insufficient funds for repayment and accrued interest\") */\n      tag_147\n      jumpi\n      mload(0x40)\n      0x08c379a000000000000000000000000000000000000000000000000000000000\n      dup2\n      mstore\n      0x04\n      add\n      tag_148\n      swap1\n      tag_149\n      jump\t// in\n    tag_148:\n      mload(0x40)\n      dup1\n      swap2\n      sub\n      swap1\n      revert\n    tag_147:\n        /* \"contracts/LendingPool.sol\":4547:4556  msg.value */\n      callvalue\n        /* \"contracts/LendingPool.sol\":4529:4544  accruedInterest */\n      dup2\n        /* \"contracts/LendingPool.sol\":4520:4526  amount */\n      dup4\n        /* \"contracts/LendingPool.sol\":4520:4544  amount + accruedInterest */\n      tag_150\n      swap2\n      swap1\n      tag_142\n      jump\t// in\n    tag_150:\n        /* \"contracts/LendingPool.sol\":4520:4556  amount + accruedInterest > msg.value */\n      gt\n        /* \"contracts/LendingPool.sol\":4517:4658  if(amount + accruedInterest > msg.value)... */\n      iszero\n      tag_151\n      jumpi\n        /* \"contracts/LendingPool.sol\":4590:4600  msg.sender */\n      caller\n        /* \"contracts/LendingPool.sol\":4582:4610  payable(msg.sender).transfer */\n      0xffffffffffffffffffffffffffffffffffffffff\n      and\n        /* \"contracts/LendingPool.sol\":4582:4646  payable(msg.sender).transfer(amount+accruedInterest - msg.value) */\n      0x08fc\n        /* \"contracts/LendingPool.sol\":4636:4645  msg.value */\n      callvalue\n        /* \"contracts/LendingPool.sol\":4618:4633  accruedInterest */\n      dup4\n        /* \"contracts/LendingPool.sol\":4611:4617  amount */\n      dup6\n        /* \"contracts/LendingPool.sol\":4611:4633  amount+accruedInterest */\n      tag_152\n      swap2\n      swap1\n      tag_142\n      jump\t// in\n    tag_152:\n        /* \"contracts/LendingPool.sol\":4611:4645  amount+accruedInterest - msg.value */\n      tag_153\n      swap2\n      swap1\n      tag_137\n      jump\t// in\n    tag_153:\n        /* \"contracts/LendingPool.sol\":4582:4646  payable(msg.sender).transfer(amount+accruedInterest - msg.value) */\n      swap1\n      dup2\n      iszero\n      mul\n      swap1\n      mload(0x40)\n      0x00\n      mload(0x40)\n      dup1\n      dup4\n      sub\n      dup2\n      dup6\n      dup9\n      dup9\n      call\n      swap4\n      pop\n      pop\n      pop\n      pop\n      iszero\n      dup1\n      iszero\n      tag_155\n      jumpi\n      returndatasize\n      0x00\n      dup1\n      returndatacopy\n      revert(0x00, returndatasize)\n    tag_155:\n      pop\n        /* \"contracts/LendingPool.sol\":4517:4658  if(amount + accruedInterest > msg.value)... */\n    tag_151:\n        /* \"contracts/LendingPool.sol\":3675:4722  {... */\n      pop\n        /* \"@openzeppelin/contracts/security/ReentrancyGuard.sol\":2303:2323  _nonReentrantAfter() */\n      tag_156\n        /* \"@openzeppelin/contracts/security/ReentrancyGuard.sol\":2303:2321  _nonReentrantAfter */\n      tag_157\n        /* \"@openzeppelin/contracts/security/ReentrancyGuard.sol\":2303:2323  _nonReentrantAfter() */\n      jump\t// in\n    tag_156:\n        /* \"contracts/LendingPool.sol\":3596:4722  function repay(address token, uint256 amount) public payable nonReentrant... */\n      pop\n      pop\n      jump\t// out\n        /* \"contracts/LendingPool.sol\":525:593  mapping (address => mapping (address => uint256)) public userBorrows */\n    tag_33:\n      mstore(0x20, 0x04)\n      dup2\n      0x00\n      mstore\n      mstore(0x20, keccak256(0x00, 0x40))\n      dup1\n      0x00\n      mstore\n      keccak256(0x00, 0x40)\n      0x00\n      swap2\n      pop\n      swap2\n      pop\n      pop\n      sload\n      dup2\n      jump\t// out\n        /* \"contracts/LendingPool.sol\":941:996  mapping(address => uint256) public totalBorrowedperUser */\n    tag_40:\n      mstore(0x20, 0x07)\n      dup1\n      0x00\n      mstore\n      keccak256(0x00, 0x40)\n      0x00\n      swap2\n      pop\n      swap1\n      pop\n      sload\n      dup2\n      jump\t// out\n        /* \"contracts/LendingPool.sol\":1209:1280  mapping(address => mapping(address => BorrowInfo)) public borrowedToken */\n    tag_45:\n      mstore(0x20, 0x08)\n      dup2\n      0x00\n      mstore\n      mstore(0x20, keccak256(0x00, 0x40))\n      dup1\n      0x00\n      mstore\n      keccak256(0x00, 0x40)\n      0x00\n      swap2\n      pop\n      swap2\n      pop\n      pop\n      dup1\n      0x00\n      add\n      sload\n      swap1\n      dup1\n      0x01\n      add\n      sload\n      swap1\n      dup1\n      0x02\n      add\n      sload\n      swap1\n      pop\n      dup4\n      jump\t// out\n        /* \"contracts/LendingPool.sol\":6940:7026  function withdrawCollateral(address token, address borrower, uint256 amount) public {} */\n    tag_52:\n      pop\n      pop\n      pop\n      jump\t// out\n        /* \"contracts/LendingPool.sol\":6643:6904  function calculateRequiredCollateral(uint256 borrowAmount) public pure returns(uint256)... */\n    tag_57:\n        /* \"contracts/LendingPool.sol\":6722:6729  uint256 */\n      0x00\n        /* \"contracts/LendingPool.sol\":6643:6904  function calculateRequiredCollateral(uint256 borrowAmount) public pure returns(uint256)... */\n      swap2\n      swap1\n      pop\n      jump\t// out\n        /* \"contracts/LendingPool.sol\":6312:6635  function isSufficientCollateral(address user, address token, uint256 borrowAmount) public view returns(bool)... */\n    tag_62:\n        /* \"contracts/LendingPool.sol\":6415:6419  bool */\n      0x00\n        /* \"contracts/LendingPool.sol\":6437:6462  uint256 totalUserDeposits */\n      dup1\n        /* \"contracts/LendingPool.sol\":6465:6466  0 */\n      0x00\n        /* \"contracts/LendingPool.sol\":6437:6466  uint256 totalUserDeposits = 0 */\n      swap1\n      pop\n        /* \"contracts/LendingPool.sol\":6481:6490  uint256 i */\n      0x00\n        /* \"contracts/LendingPool.sol\":6477:6620  for(uint256 i=0; i<supportedTokens.length; i++)... */\n    tag_161:\n        /* \"contracts/LendingPool.sol\":6496:6511  supportedTokens */\n      0x03\n        /* \"contracts/LendingPool.sol\":6496:6518  supportedTokens.length */\n      dup1\n      sload\n      swap1\n      pop\n        /* \"contracts/LendingPool.sol\":6494:6495  i */\n      dup2\n        /* \"contracts/LendingPool.sol\":6494:6518  i<supportedTokens.length */\n      lt\n        /* \"contracts/LendingPool.sol\":6477:6620  for(uint256 i=0; i<supportedTokens.length; i++)... */\n      iszero\n      tag_162\n      jumpi\n        /* \"contracts/LendingPool.sol\":6570:6582  userDeposits */\n      0x02\n        /* \"contracts/LendingPool.sol\":6570:6602  userDeposits[supportedTokens[i]] */\n      0x00\n        /* \"contracts/LendingPool.sol\":6583:6598  supportedTokens */\n      0x03\n        /* \"contracts/LendingPool.sol\":6599:6600  i */\n      dup4\n        /* \"contracts/LendingPool.sol\":6583:6601  supportedTokens[i] */\n      dup2\n      sload\n      dup2\n      lt\n      tag_164\n      jumpi\n      tag_165\n      tag_166\n      jump\t// in\n    tag_165:\n    tag_164:\n      swap1\n      0x00\n      mstore\n      keccak256(0x00, 0x20)\n      add\n      0x00\n      swap1\n      sload\n      swap1\n      0x0100\n      exp\n      swap1\n      div\n      0xffffffffffffffffffffffffffffffffffffffff\n      and\n        /* \"contracts/LendingPool.sol\":6570:6602  userDeposits[supportedTokens[i]] */\n      0xffffffffffffffffffffffffffffffffffffffff\n      and\n      0xffffffffffffffffffffffffffffffffffffffff\n      and\n      dup2\n      mstore\n      0x20\n      add\n      swap1\n      dup2\n      mstore\n      0x20\n      add\n      0x00\n      keccak256\n        /* \"contracts/LendingPool.sol\":6570:6608  userDeposits[supportedTokens[i]][user] */\n      0x00\n        /* \"contracts/LendingPool.sol\":6603:6607  user */\n      dup8\n        /* \"contracts/LendingPool.sol\":6570:6608  userDeposits[supportedTokens[i]][user] */\n      0xffffffffffffffffffffffffffffffffffffffff\n      and\n      0xffffffffffffffffffffffffffffffffffffffff\n      and\n      dup2\n      mstore\n      0x20\n      add\n      swap1\n      dup2\n      mstore\n      0x20\n      add\n      0x00\n      keccak256\n      sload\n        /* \"contracts/LendingPool.sol\":6549:6608  totalUserDeposits += userDeposits[supportedTokens[i]][user] */\n      dup3\n      tag_168\n      swap2\n      swap1\n      tag_142\n      jump\t// in\n    tag_168:\n      swap2\n      pop\n        /* \"contracts/LendingPool.sol\":6520:6523  i++ */\n      dup1\n      dup1\n      0x01\n      add\n      swap2\n      pop\n      pop\n        /* \"contracts/LendingPool.sol\":6477:6620  for(uint256 i=0; i<supportedTokens.length; i++)... */\n      jump(tag_161)\n    tag_162:\n      pop\n        /* \"contracts/LendingPool.sol\":6426:6635  {... */\n      pop\n        /* \"contracts/LendingPool.sol\":6312:6635  function isSufficientCollateral(address user, address token, uint256 borrowAmount) public view returns(bool)... */\n      swap4\n      swap3\n      pop\n      pop\n      pop\n      jump\t// out\n        /* \"contracts/LendingPool.sol\":337:405  mapping (address => mapping(address => uint256)) public userDeposits */\n    tag_68:\n      mstore(0x20, 0x02)\n      dup2\n      0x00\n      mstore\n      mstore(0x20, keccak256(0x00, 0x40))\n      dup1\n      0x00\n      mstore\n      keccak256(0x00, 0x40)\n      0x00\n      swap2\n      pop\n      swap2\n      pop\n      pop\n      sload\n      dup2\n      jump\t// out\n        /* \"contracts/LendingPool.sol\":1716:2087  function deposit(address token, uint256 amount) public... */\n    tag_73:\n        /* \"contracts/LendingPool.sol\":1804:1805  0 */\n      0x00\n        /* \"contracts/LendingPool.sol\":1795:1801  amount */\n      dup2\n        /* \"contracts/LendingPool.sol\":1795:1805  amount > 0 */\n      gt\n        /* \"contracts/LendingPool.sol\":1787:1850  require(amount > 0, \"Deposit amount must be greater than zero\") */\n      tag_170\n      jumpi\n      mload(0x40)\n      0x08c379a000000000000000000000000000000000000000000000000000000000\n      dup2\n      mstore\n      0x04\n      add\n      tag_171\n      swap1\n      tag_172\n      jump\t// in\n    tag_171:\n      mload(0x40)\n      dup1\n      swap2\n      sub\n      swap1\n      revert\n    tag_170:\n        /* \"contracts/LendingPool.sol\":1918:1923  token */\n      dup2\n        /* \"contracts/LendingPool.sol\":1911:1937  IERC20(token).transferFrom */\n      0xffffffffffffffffffffffffffffffffffffffff\n      and\n      0x23b872dd\n        /* \"contracts/LendingPool.sol\":1938:1948  msg.sender */\n      caller\n        /* \"contracts/LendingPool.sol\":1958:1962  this */\n      address\n        /* \"contracts/LendingPool.sol\":1965:1971  amount */\n      dup5\n        /* \"contracts/LendingPool.sol\":1911:1972  IERC20(token).transferFrom(msg.sender, address(this), amount) */\n      mload(0x40)\n      dup5\n      0xffffffff\n      and\n      0xe0\n      shl\n      dup2\n      mstore\n      0x04\n      add\n      tag_173\n      swap4\n      swap3\n      swap2\n      swap1\n      tag_174\n      jump\t// in\n    tag_173:\n      0x20\n      mload(0x40)\n      dup1\n      dup4\n      sub\n      dup2\n      0x00\n      dup8\n      gas\n      call\n      iszero\n      dup1\n      iszero\n      tag_176\n      jumpi\n      returndatasize\n      0x00\n      dup1\n      returndatacopy\n      revert(0x00, returndatasize)\n    tag_176:\n      pop\n      pop\n      pop\n      pop\n      mload(0x40)\n      returndatasize\n      not(0x1f)\n      0x1f\n      dup3\n      add\n      and\n      dup3\n      add\n      dup1\n      0x40\n      mstore\n      pop\n      dup2\n      add\n      swap1\n      tag_177\n      swap2\n      swap1\n      tag_178\n      jump\t// in\n    tag_177:\n      pop\n        /* \"contracts/LendingPool.sol\":2019:2025  amount */\n      dup1\n        /* \"contracts/LendingPool.sol\":1984:1996  userDeposits */\n      0x02\n        /* \"contracts/LendingPool.sol\":1984:2003  userDeposits[token] */\n      0x00\n        /* \"contracts/LendingPool.sol\":1997:2002  token */\n      dup5\n        /* \"contracts/LendingPool.sol\":1984:2003  userDeposits[token] */\n      0xffffffffffffffffffffffffffffffffffffffff\n      and\n      0xffffffffffffffffffffffffffffffffffffffff\n      and\n      dup2\n      mstore\n      0x20\n      add\n      swap1\n      dup2\n      mstore\n      0x20\n      add\n      0x00\n      keccak256\n        /* \"contracts/LendingPool.sol\":1984:2015  userDeposits[token][msg.sender] */\n      0x00\n        /* \"contracts/LendingPool.sol\":2004:2014  msg.sender */\n      caller\n        /* \"contracts/LendingPool.sol\":1984:2015  userDeposits[token][msg.sender] */\n      0xffffffffffffffffffffffffffffffffffffffff\n      and\n      0xffffffffffffffffffffffffffffffffffffffff\n      and\n      dup2\n      mstore\n      0x20\n      add\n      swap1\n      dup2\n      mstore\n      0x20\n      add\n      0x00\n      keccak256\n      0x00\n        /* \"contracts/LendingPool.sol\":1984:2025  userDeposits[token][msg.sender] += amount */\n      dup3\n      dup3\n      sload\n      tag_179\n      swap2\n      swap1\n      tag_142\n      jump\t// in\n    tag_179:\n      swap3\n      pop\n      pop\n      dup2\n      swap1\n      sstore\n      pop\n        /* \"contracts/LendingPool.sol\":2060:2070  msg.sender */\n      caller\n        /* \"contracts/LendingPool.sol\":2041:2079  DepositMade(token, msg.sender, amount) */\n      0xffffffffffffffffffffffffffffffffffffffff\n      and\n        /* \"contracts/LendingPool.sol\":2053:2058  token */\n      dup3\n        /* \"contracts/LendingPool.sol\":2041:2079  DepositMade(token, msg.sender, amount) */\n      0xffffffffffffffffffffffffffffffffffffffff\n      and\n      0x1de3ece35391f6bba650736f2d5d3f12e2cfc54538a340cc5d762d34ca449de7\n        /* \"contracts/LendingPool.sol\":2072:2078  amount */\n      dup4\n        /* \"contracts/LendingPool.sol\":2041:2079  DepositMade(token, msg.sender, amount) */\n      mload(0x40)\n      tag_180\n      swap2\n      swap1\n      tag_35\n      jump\t// in\n    tag_180:\n      mload(0x40)\n      dup1\n      swap2\n      sub\n      swap1\n      log3\n        /* \"contracts/LendingPool.sol\":1716:2087  function deposit(address token, uint256 amount) public... */\n      pop\n      pop\n      jump\t// out\n        /* \"contracts/LendingPool.sol\":2406:3588  function borrow(address token, uint256 amount) public nonReentrant... */\n    tag_77:\n        /* \"@openzeppelin/contracts/security/ReentrancyGuard.sol\":2261:2282  _nonReentrantBefore() */\n      tag_182\n        /* \"@openzeppelin/contracts/security/ReentrancyGuard.sol\":2261:2280  _nonReentrantBefore */\n      tag_131\n        /* \"@openzeppelin/contracts/security/ReentrancyGuard.sol\":2261:2282  _nonReentrantBefore() */\n      jump\t// in\n    tag_182:\n        /* \"contracts/LendingPool.sol\":2506:2507  0 */\n      0x00\n        /* \"contracts/LendingPool.sol\":2497:2503  amount */\n      dup2\n        /* \"contracts/LendingPool.sol\":2497:2507  amount > 0 */\n      gt\n        /* \"contracts/LendingPool.sol\":2489:2551  require(amount > 0, \"Borrow amount must be greater than zero\") */\n      tag_184\n      jumpi\n      mload(0x40)\n      0x08c379a000000000000000000000000000000000000000000000000000000000\n      dup2\n      mstore\n      0x04\n      add\n      tag_185\n      swap1\n      tag_186\n      jump\t// in\n    tag_185:\n      mload(0x40)\n      dup1\n      swap2\n      sub\n      swap1\n      revert\n    tag_184:\n        /* \"contracts/LendingPool.sol\":2570:2619  isSufficientCollateral(msg.sender, token, amount) */\n      tag_187\n        /* \"contracts/LendingPool.sol\":2593:2603  msg.sender */\n      caller\n        /* \"contracts/LendingPool.sol\":2605:2610  token */\n      dup4\n        /* \"contracts/LendingPool.sol\":2612:2618  amount */\n      dup4\n        /* \"contracts/LendingPool.sol\":2570:2592  isSufficientCollateral */\n      tag_62\n        /* \"contracts/LendingPool.sol\":2570:2619  isSufficientCollateral(msg.sender, token, amount) */\n      jump\t// in\n    tag_187:\n        /* \"contracts/LendingPool.sol\":2562:2647  require(isSufficientCollateral(msg.sender, token, amount), \"Insufficient collateral\") */\n      tag_188\n      jumpi\n      mload(0x40)\n      0x08c379a000000000000000000000000000000000000000000000000000000000\n      dup2\n      mstore\n      0x04\n      add\n      tag_189\n      swap1\n      tag_190\n      jump\t// in\n    tag_189:\n      mload(0x40)\n      dup1\n      swap2\n      sub\n      swap1\n      revert\n    tag_188:\n        /* \"contracts/LendingPool.sol\":2708:2714  amount */\n      dup1\n        /* \"contracts/LendingPool.sol\":2673:2678  token */\n      dup3\n        /* \"contracts/LendingPool.sol\":2666:2689  IERC20(token).balanceOf */\n      0xffffffffffffffffffffffffffffffffffffffff\n      and\n      0x70a08231\n        /* \"contracts/LendingPool.sol\":2698:2702  this */\n      address\n        /* \"contracts/LendingPool.sol\":2666:2704  IERC20(token).balanceOf(address(this)) */\n      mload(0x40)\n      dup3\n      0xffffffff\n      and\n      0xe0\n      shl\n      dup2\n      mstore\n      0x04\n      add\n      tag_191\n      swap2\n      swap1\n      tag_103\n      jump\t// in\n    tag_191:\n      0x20\n      mload(0x40)\n      dup1\n      dup4\n      sub\n      dup2\n      dup7\n      gas\n      staticcall\n      iszero\n      dup1\n      iszero\n      tag_193\n      jumpi\n      returndatasize\n      0x00\n      dup1\n      returndatacopy\n      revert(0x00, returndatasize)\n    tag_193:\n      pop\n      pop\n      pop\n      pop\n      mload(0x40)\n      returndatasize\n      not(0x1f)\n      0x1f\n      dup3\n      add\n      and\n      dup3\n      add\n      dup1\n      0x40\n      mstore\n      pop\n      dup2\n      add\n      swap1\n      tag_194\n      swap2\n      swap1\n      tag_195\n      jump\t// in\n    tag_194:\n        /* \"contracts/LendingPool.sol\":2666:2714  IERC20(token).balanceOf(address(this)) >= amount */\n      lt\n      iszero\n        /* \"contracts/LendingPool.sol\":2658:2755  require(IERC20(token).balanceOf(address(this)) >= amount, \"Insufficient liquidity for borrowing\") */\n      tag_196\n      jumpi\n      mload(0x40)\n      0x08c379a000000000000000000000000000000000000000000000000000000000\n      dup2\n      mstore\n      0x04\n      add\n      tag_197\n      swap1\n      tag_198\n      jump\t// in\n    tag_197:\n      mload(0x40)\n      dup1\n      swap2\n      sub\n      swap1\n      revert\n    tag_196:\n        /* \"contracts/LendingPool.sol\":2852:2858  amount */\n      dup1\n        /* \"contracts/LendingPool.sol\":2818:2829  userBorrows */\n      0x04\n        /* \"contracts/LendingPool.sol\":2818:2836  userBorrows[token] */\n      0x00\n        /* \"contracts/LendingPool.sol\":2830:2835  token */\n      dup5\n        /* \"contracts/LendingPool.sol\":2818:2836  userBorrows[token] */\n      0xffffffffffffffffffffffffffffffffffffffff\n      and\n      0xffffffffffffffffffffffffffffffffffffffff\n      and\n      dup2\n      mstore\n      0x20\n      add\n      swap1\n      dup2\n      mstore\n      0x20\n      add\n      0x00\n      keccak256\n        /* \"contracts/LendingPool.sol\":2818:2848  userBorrows[token][msg.sender] */\n      0x00\n        /* \"contracts/LendingPool.sol\":2837:2847  msg.sender */\n      caller\n        /* \"contracts/LendingPool.sol\":2818:2848  userBorrows[token][msg.sender] */\n      0xffffffffffffffffffffffffffffffffffffffff\n      and\n      0xffffffffffffffffffffffffffffffffffffffff\n      and\n      dup2\n      mstore\n      0x20\n      add\n      swap1\n      dup2\n      mstore\n      0x20\n      add\n      0x00\n      keccak256\n      0x00\n        /* \"contracts/LendingPool.sol\":2818:2858  userBorrows[token][msg.sender] += amount */\n      dup3\n      dup3\n      sload\n      tag_199\n      swap2\n      swap1\n      tag_142\n      jump\t// in\n    tag_199:\n      swap3\n      pop\n      pop\n      dup2\n      swap1\n      sstore\n      pop\n        /* \"contracts/LendingPool.sol\":2901:2907  amount */\n      dup1\n        /* \"contracts/LendingPool.sol\":2869:2890  totalBorrowedperToken */\n      0x06\n        /* \"contracts/LendingPool.sol\":2869:2897  totalBorrowedperToken[token] */\n      0x00\n        /* \"contracts/LendingPool.sol\":2891:2896  token */\n      dup5\n        /* \"contracts/LendingPool.sol\":2869:2897  totalBorrowedperToken[token] */\n      0xffffffffffffffffffffffffffffffffffffffff\n      and\n      0xffffffffffffffffffffffffffffffffffffffff\n      and\n      dup2\n      mstore\n      0x20\n      add\n      swap1\n      dup2\n      mstore\n      0x20\n      add\n      0x00\n      keccak256\n      0x00\n        /* \"contracts/LendingPool.sol\":2869:2907  totalBorrowedperToken[token] += amount */\n      dup3\n      dup3\n      sload\n      tag_200\n      swap2\n      swap1\n      tag_142\n      jump\t// in\n    tag_200:\n      swap3\n      pop\n      pop\n      dup2\n      swap1\n      sstore\n      pop\n        /* \"contracts/LendingPool.sol\":2954:2960  amount */\n      dup1\n        /* \"contracts/LendingPool.sol\":2918:2938  totalBorrowedperUser */\n      0x07\n        /* \"contracts/LendingPool.sol\":2918:2950  totalBorrowedperUser[msg.sender] */\n      0x00\n        /* \"contracts/LendingPool.sol\":2939:2949  msg.sender */\n      caller\n        /* \"contracts/LendingPool.sol\":2918:2950  totalBorrowedperUser[msg.sender] */\n      0xffffffffffffffffffffffffffffffffffffffff\n      and\n      0xffffffffffffffffffffffffffffffffffffffff\n      and\n      dup2\n      mstore\n      0x20\n      add\n      swap1\n      dup2\n      mstore\n      0x20\n      add\n      0x00\n      keccak256\n      0x00\n        /* \"contracts/LendingPool.sol\":2918:2960  totalBorrowedperUser[msg.sender] += amount */\n      dup3\n      dup3\n      sload\n      tag_201\n      swap2\n      swap1\n      tag_142\n      jump\t// in\n    tag_201:\n      swap3\n      pop\n      pop\n      dup2\n      swap1\n      sstore\n      pop\n        /* \"contracts/LendingPool.sol\":3025:3098  depositCollateral(token, msg.sender, calculateRequiredCollateral(amount)) */\n      tag_202\n        /* \"contracts/LendingPool.sol\":3043:3048  token */\n      dup3\n        /* \"contracts/LendingPool.sol\":3050:3060  msg.sender */\n      caller\n        /* \"contracts/LendingPool.sol\":3062:3097  calculateRequiredCollateral(amount) */\n      tag_203\n        /* \"contracts/LendingPool.sol\":3090:3096  amount */\n      dup5\n        /* \"contracts/LendingPool.sol\":3062:3089  calculateRequiredCollateral */\n      tag_57\n        /* \"contracts/LendingPool.sol\":3062:3097  calculateRequiredCollateral(amount) */\n      jump\t// in\n    tag_203:\n        /* \"contracts/LendingPool.sol\":3025:3042  depositCollateral */\n      tag_128\n        /* \"contracts/LendingPool.sol\":3025:3098  depositCollateral(token, msg.sender, calculateRequiredCollateral(amount)) */\n      jump\t// in\n    tag_202:\n        /* \"contracts/LendingPool.sol\":3188:3206  uint256 timeFactor */\n      0x00\n        /* \"contracts/LendingPool.sol\":3209:3224  block.timestamp */\n      timestamp\n        /* \"contracts/LendingPool.sol\":3188:3224  uint256 timeFactor = block.timestamp */\n      swap1\n      pop\n        /* \"contracts/LendingPool.sol\":3235:3255  uint256 interestRate */\n      0x00\n        /* \"contracts/LendingPool.sol\":3277:3287  timeFactor */\n      dup2\n        /* \"contracts/LendingPool.sol\":3258:3274  baseInterestRate */\n      sload(0x01)\n        /* \"contracts/LendingPool.sol\":3258:3287  baseInterestRate + timeFactor */\n      tag_204\n      swap2\n      swap1\n      tag_142\n      jump\t// in\n    tag_204:\n        /* \"contracts/LendingPool.sol\":3235:3287  uint256 interestRate = baseInterestRate + timeFactor */\n      swap1\n      pop\n        /* \"contracts/LendingPool.sol\":3412:3496  BorrowInfo({amount: amount, interestRate: interestRate, startTime: block.timestamp}) */\n      mload(0x40)\n      dup1\n      0x60\n      add\n      0x40\n      mstore\n      dup1\n        /* \"contracts/LendingPool.sol\":3432:3438  amount */\n      dup5\n        /* \"contracts/LendingPool.sol\":3412:3496  BorrowInfo({amount: amount, interestRate: interestRate, startTime: block.timestamp}) */\n      dup2\n      mstore\n      0x20\n      add\n        /* \"contracts/LendingPool.sol\":3454:3466  interestRate */\n      dup3\n        /* \"contracts/LendingPool.sol\":3412:3496  BorrowInfo({amount: amount, interestRate: interestRate, startTime: block.timestamp}) */\n      dup2\n      mstore\n      0x20\n      add\n        /* \"contracts/LendingPool.sol\":3479:3494  block.timestamp */\n      timestamp\n        /* \"contracts/LendingPool.sol\":3412:3496  BorrowInfo({amount: amount, interestRate: interestRate, startTime: block.timestamp}) */\n      dup2\n      mstore\n      pop\n        /* \"contracts/LendingPool.sol\":3377:3390  borrowedToken */\n      0x08\n        /* \"contracts/LendingPool.sol\":3377:3402  borrowedToken[msg.sender] */\n      0x00\n        /* \"contracts/LendingPool.sol\":3391:3401  msg.sender */\n      caller\n        /* \"contracts/LendingPool.sol\":3377:3402  borrowedToken[msg.sender] */\n      0xffffffffffffffffffffffffffffffffffffffff\n      and\n      0xffffffffffffffffffffffffffffffffffffffff\n      and\n      dup2\n      mstore\n      0x20\n      add\n      swap1\n      dup2\n      mstore\n      0x20\n      add\n      0x00\n      keccak256\n        /* \"contracts/LendingPool.sol\":3377:3409  borrowedToken[msg.sender][token] */\n      0x00\n        /* \"contracts/LendingPool.sol\":3403:3408  token */\n      dup7\n        /* \"contracts/LendingPool.sol\":3377:3409  borrowedToken[msg.sender][token] */\n      0xffffffffffffffffffffffffffffffffffffffff\n      and\n      0xffffffffffffffffffffffffffffffffffffffff\n      and\n      dup2\n      mstore\n      0x20\n      add\n      swap1\n      dup2\n      mstore\n      0x20\n      add\n      0x00\n      keccak256\n        /* \"contracts/LendingPool.sol\":3377:3496  borrowedToken[msg.sender][token] = BorrowInfo({amount: amount, interestRate: interestRate, startTime: block.timestamp}) */\n      0x00\n      dup3\n      add\n      mload\n      dup2\n      0x00\n      add\n      sstore\n      0x20\n      dup3\n      add\n      mload\n      dup2\n      0x01\n      add\n      sstore\n      0x40\n      dup3\n      add\n      mload\n      dup2\n      0x02\n      add\n      sstore\n      swap1\n      pop\n      pop\n        /* \"contracts/LendingPool.sol\":3535:3540  token */\n      dup4\n        /* \"contracts/LendingPool.sol\":3514:3580  Borrowed(msg.sender, token, amount, interestRate, block.timestamp) */\n      0xffffffffffffffffffffffffffffffffffffffff\n      and\n        /* \"contracts/LendingPool.sol\":3523:3533  msg.sender */\n      caller\n        /* \"contracts/LendingPool.sol\":3514:3580  Borrowed(msg.sender, token, amount, interestRate, block.timestamp) */\n      0xffffffffffffffffffffffffffffffffffffffff\n      and\n      0xc1cba78646fef030830d099fc25cb498953709c9d47d883848f81fd207174c9f\n        /* \"contracts/LendingPool.sol\":3542:3548  amount */\n      dup6\n        /* \"contracts/LendingPool.sol\":3550:3562  interestRate */\n      dup5\n        /* \"contracts/LendingPool.sol\":3564:3579  block.timestamp */\n      timestamp\n        /* \"contracts/LendingPool.sol\":3514:3580  Borrowed(msg.sender, token, amount, interestRate, block.timestamp) */\n      mload(0x40)\n      tag_205\n      swap4\n      swap3\n      swap2\n      swap1\n      tag_47\n      jump\t// in\n    tag_205:\n      mload(0x40)\n      dup1\n      swap2\n      sub\n      swap1\n      log3\n        /* \"contracts/LendingPool.sol\":2478:3588  {... */\n      pop\n      pop\n        /* \"@openzeppelin/contracts/security/ReentrancyGuard.sol\":2303:2323  _nonReentrantAfter() */\n      tag_206\n        /* \"@openzeppelin/contracts/security/ReentrancyGuard.sol\":2303:2321  _nonReentrantAfter */\n      tag_157\n        /* \"@openzeppelin/contracts/security/ReentrancyGuard.sol\":2303:2323  _nonReentrantAfter() */\n      jump\t// in\n    tag_206:\n        /* \"contracts/LendingPool.sol\":2406:3588  function borrow(address token, uint256 amount) public nonReentrant... */\n      pop\n      pop\n      jump\t// out\n        /* \"contracts/LendingPool.sol\":4773:5180  function calculateAccruedInterest(address token, address user) public view returns (uint256) {... */\n    tag_81:\n        /* \"contracts/LendingPool.sol\":4857:4864  uint256 */\n      0x00\n        /* \"contracts/LendingPool.sol\":4877:4905  BorrowInfo memory borrowInfo */\n      dup1\n        /* \"contracts/LendingPool.sol\":4908:4921  borrowedToken */\n      0x08\n        /* \"contracts/LendingPool.sol\":4908:4927  borrowedToken[user] */\n      0x00\n        /* \"contracts/LendingPool.sol\":4922:4926  user */\n      dup5\n        /* \"contracts/LendingPool.sol\":4908:4927  borrowedToken[user] */\n      0xffffffffffffffffffffffffffffffffffffffff\n      and\n      0xffffffffffffffffffffffffffffffffffffffff\n      and\n      dup2\n      mstore\n      0x20\n      add\n      swap1\n      dup2\n      mstore\n      0x20\n      add\n      0x00\n      keccak256\n        /* \"contracts/LendingPool.sol\":4908:4934  borrowedToken[user][token] */\n      0x00\n        /* \"contracts/LendingPool.sol\":4928:4933  token */\n      dup6\n        /* \"contracts/LendingPool.sol\":4908:4934  borrowedToken[user][token] */\n      0xffffffffffffffffffffffffffffffffffffffff\n      and\n      0xffffffffffffffffffffffffffffffffffffffff\n      and\n      dup2\n      mstore\n      0x20\n      add\n      swap1\n      dup2\n      mstore\n      0x20\n      add\n      0x00\n      keccak256\n        /* \"contracts/LendingPool.sol\":4877:4934  BorrowInfo memory borrowInfo = borrowedToken[user][token] */\n      mload(0x40)\n      dup1\n      0x60\n      add\n      0x40\n      mstore\n      swap1\n      dup2\n      0x00\n      dup3\n      add\n      sload\n      dup2\n      mstore\n      0x20\n      add\n      0x01\n      dup3\n      add\n      sload\n      dup2\n      mstore\n      0x20\n      add\n      0x02\n      dup3\n      add\n      sload\n      dup2\n      mstore\n      pop\n      pop\n      swap1\n      pop\n        /* \"contracts/LendingPool.sol\":4945:4964  uint256 timeElapsed */\n      0x00\n        /* \"contracts/LendingPool.sol\":4985:4995  borrowInfo */\n      dup2\n        /* \"contracts/LendingPool.sol\":4985:5005  borrowInfo.startTime */\n      0x40\n      add\n      mload\n        /* \"contracts/LendingPool.sol\":4967:4982  block.timestamp */\n      timestamp\n        /* \"contracts/LendingPool.sol\":4967:5005  block.timestamp - borrowInfo.startTime */\n      tag_208\n      swap2\n      swap1\n      tag_137\n      jump\t// in\n    tag_208:\n        /* \"contracts/LendingPool.sol\":4945:5005  uint256 timeElapsed = block.timestamp - borrowInfo.startTime */\n      swap1\n      pop\n        /* \"contracts/LendingPool.sol\":5056:5079  uint256 interestAccrued */\n      0x00\n        /* \"contracts/LendingPool.sol\":5128:5139  timeElapsed */\n      dup2\n        /* \"contracts/LendingPool.sol\":5102:5112  borrowInfo */\n      dup4\n        /* \"contracts/LendingPool.sol\":5102:5125  borrowInfo.interestRate */\n      0x20\n      add\n      mload\n        /* \"contracts/LendingPool.sol\":5082:5092  borrowInfo */\n      dup5\n        /* \"contracts/LendingPool.sol\":5082:5099  borrowInfo.amount */\n      0x00\n      add\n      mload\n        /* \"contracts/LendingPool.sol\":5082:5125  borrowInfo.amount * borrowInfo.interestRate */\n      tag_209\n      swap2\n      swap1\n      tag_210\n      jump\t// in\n    tag_209:\n        /* \"contracts/LendingPool.sol\":5082:5139  borrowInfo.amount * borrowInfo.interestRate * timeElapsed */\n      tag_211\n      swap2\n      swap1\n      tag_210\n      jump\t// in\n    tag_211:\n        /* \"contracts/LendingPool.sol\":5056:5139  uint256 interestAccrued = borrowInfo.amount * borrowInfo.interestRate * timeElapsed */\n      swap1\n      pop\n        /* \"contracts/LendingPool.sol\":5157:5172  interestAccrued */\n      dup1\n        /* \"contracts/LendingPool.sol\":5150:5172  return interestAccrued */\n      swap4\n      pop\n      pop\n      pop\n      pop\n        /* \"contracts/LendingPool.sol\":4773:5180  function calculateAccruedInterest(address token, address user) public view returns (uint256) {... */\n      swap3\n      swap2\n      pop\n      pop\n      jump\t// out\n        /* \"contracts/LendingPool.sol\":2160:2345  function getUserBalance(address user, address token) public view returns(uint256)... */\n    tag_86:\n        /* \"contracts/LendingPool.sol\":2233:2240  uint256 */\n      0x00\n        /* \"contracts/LendingPool.sol\":2265:2277  userDeposits */\n      0x02\n        /* \"contracts/LendingPool.sol\":2265:2284  userDeposits[token] */\n      0x00\n        /* \"contracts/LendingPool.sol\":2278:2283  token */\n      dup4\n        /* \"contracts/LendingPool.sol\":2265:2284  userDeposits[token] */\n      0xffffffffffffffffffffffffffffffffffffffff\n      and\n      0xffffffffffffffffffffffffffffffffffffffff\n      and\n      dup2\n      mstore\n      0x20\n      add\n      swap1\n      dup2\n      mstore\n      0x20\n      add\n      0x00\n      keccak256\n        /* \"contracts/LendingPool.sol\":2265:2290  userDeposits[token][user] */\n      0x00\n        /* \"contracts/LendingPool.sol\":2285:2289  user */\n      dup5\n        /* \"contracts/LendingPool.sol\":2265:2290  userDeposits[token][user] */\n      0xffffffffffffffffffffffffffffffffffffffff\n      and\n      0xffffffffffffffffffffffffffffffffffffffff\n      and\n      dup2\n      mstore\n      0x20\n      add\n      swap1\n      dup2\n      mstore\n      0x20\n      add\n      0x00\n      keccak256\n      sload\n        /* \"contracts/LendingPool.sol\":2258:2290  return userDeposits[token][user] */\n      swap1\n      pop\n        /* \"contracts/LendingPool.sol\":2160:2345  function getUserBalance(address user, address token) public view returns(uint256)... */\n      swap3\n      swap2\n      pop\n      pop\n      jump\t// out\n        /* \"contracts/LendingPool.sol\":7034:7259  function calculateInterestRate(address token, uint256 totalSupply, uint256 totalBorrows) public view returns (uint256) {... */\n    tag_92:\n        /* \"contracts/LendingPool.sol\":7144:7151  uint256 */\n      0x00\n        /* \"contracts/LendingPool.sol\":7034:7259  function calculateInterestRate(address token, uint256 totalSupply, uint256 totalBorrows) public view returns (uint256) {... */\n      swap4\n      swap3\n      pop\n      pop\n      pop\n      jump\t// out\n        /* \"contracts/LendingPool.sol\":256:292  uint256 public baseInterestRate = 10 */\n    tag_96:\n      sload(0x01)\n      dup2\n      jump\t// out\n        /* \"contracts/LendingPool.sol\":455:487  address[] public supportedTokens */\n    tag_101:\n      0x03\n      dup2\n      dup2\n      sload\n      dup2\n      lt\n      tag_214\n      jumpi\n      0x00\n      dup1\n      revert\n    tag_214:\n      swap1\n      0x00\n      mstore\n      keccak256(0x00, 0x20)\n      add\n      0x00\n      swap2\n      pop\n      sload\n      swap1\n      0x0100\n      exp\n      swap1\n      div\n      0xffffffffffffffffffffffffffffffffffffffff\n      and\n      dup2\n      jump\t// out\n        /* \"contracts/LendingPool.sol\":689:754  mapping(address => mapping(address => uint256)) public collateral */\n    tag_107:\n      mstore(0x20, 0x05)\n      dup2\n      0x00\n      mstore\n      mstore(0x20, keccak256(0x00, 0x40))\n      dup1\n      0x00\n      mstore\n      keccak256(0x00, 0x40)\n      0x00\n      swap2\n      pop\n      swap2\n      pop\n      pop\n      sload\n      dup2\n      jump\t// out\n        /* \"contracts/LendingPool.sol\":5239:6070  function calculateRepayableCollateral(uint256 repayAmount, uint256 accruedInterest) public returns (uint256)... */\n    tag_113:\n        /* \"contracts/LendingPool.sol\":5339:5346  uint256 */\n      0x00\n        /* \"contracts/LendingPool.sol\":5460:5489  uint256 minRequiredCollateral */\n      dup1\n        /* \"contracts/LendingPool.sol\":5522:5552  OVER_COLLATERALIZATION_RATIO() */\n      tag_217\n        /* \"contracts/LendingPool.sol\":5522:5550  OVER_COLLATERALIZATION_RATIO */\n      tag_218\n        /* \"contracts/LendingPool.sol\":5522:5552  OVER_COLLATERALIZATION_RATIO() */\n      jump\t// in\n    tag_217:\n        /* \"contracts/LendingPool.sol\":5506:5521  accruedInterest */\n      dup4\n        /* \"contracts/LendingPool.sol\":5506:5552  accruedInterest/OVER_COLLATERALIZATION_RATIO() */\n      tag_219\n      swap2\n      swap1\n      tag_220\n      jump\t// in\n    tag_219:\n        /* \"contracts/LendingPool.sol\":5492:5503  repayAmount */\n      dup5\n        /* \"contracts/LendingPool.sol\":5492:5552  repayAmount + accruedInterest/OVER_COLLATERALIZATION_RATIO() */\n      tag_221\n      swap2\n      swap1\n      tag_142\n      jump\t// in\n    tag_221:\n        /* \"contracts/LendingPool.sol\":5460:5552  uint256 minRequiredCollateral = repayAmount + accruedInterest/OVER_COLLATERALIZATION_RATIO() */\n      swap1\n      pop\n        /* \"contracts/LendingPool.sol\":5625:5650  uint256 totalUserDeposits */\n      0x00\n        /* \"contracts/LendingPool.sol\":5669:5678  uint256 i */\n      dup1\n        /* \"contracts/LendingPool.sol\":5665:5814  for(uint256 i=0; i<supportedTokens.length; i++)... */\n    tag_222:\n        /* \"contracts/LendingPool.sol\":5684:5699  supportedTokens */\n      0x03\n        /* \"contracts/LendingPool.sol\":5684:5706  supportedTokens.length */\n      dup1\n      sload\n      swap1\n      pop\n        /* \"contracts/LendingPool.sol\":5682:5683  i */\n      dup2\n        /* \"contracts/LendingPool.sol\":5682:5706  i<supportedTokens.length */\n      lt\n        /* \"contracts/LendingPool.sol\":5665:5814  for(uint256 i=0; i<supportedTokens.length; i++)... */\n      iszero\n      tag_223\n      jumpi\n        /* \"contracts/LendingPool.sol\":5758:5770  userDeposits */\n      0x02\n        /* \"contracts/LendingPool.sol\":5758:5790  userDeposits[supportedTokens[i]] */\n      0x00\n        /* \"contracts/LendingPool.sol\":5771:5786  supportedTokens */\n      0x03\n        /* \"contracts/LendingPool.sol\":5787:5788  i */\n      dup4\n        /* \"contracts/LendingPool.sol\":5771:5789  supportedTokens[i] */\n      dup2\n      sload\n      dup2\n      lt\n      tag_225\n      jumpi\n      tag_226\n      tag_166\n      jump\t// in\n    tag_226:\n    tag_225:\n      swap1\n      0x00\n      mstore\n      keccak256(0x00, 0x20)\n      add\n      0x00\n      swap1\n      sload\n      swap1\n      0x0100\n      exp\n      swap1\n      div\n      0xffffffffffffffffffffffffffffffffffffffff\n      and\n        /* \"contracts/LendingPool.sol\":5758:5790  userDeposits[supportedTokens[i]] */\n      0xffffffffffffffffffffffffffffffffffffffff\n      and\n      0xffffffffffffffffffffffffffffffffffffffff\n      and\n      dup2\n      mstore\n      0x20\n      add\n      swap1\n      dup2\n      mstore\n      0x20\n      add\n      0x00\n      keccak256\n        /* \"contracts/LendingPool.sol\":5758:5802  userDeposits[supportedTokens[i]][msg.sender] */\n      0x00\n        /* \"contracts/LendingPool.sol\":5791:5801  msg.sender */\n      caller\n        /* \"contracts/LendingPool.sol\":5758:5802  userDeposits[supportedTokens[i]][msg.sender] */\n      0xffffffffffffffffffffffffffffffffffffffff\n      and\n      0xffffffffffffffffffffffffffffffffffffffff\n      and\n      dup2\n      mstore\n      0x20\n      add\n      swap1\n      dup2\n      mstore\n      0x20\n      add\n      0x00\n      keccak256\n      sload\n        /* \"contracts/LendingPool.sol\":5737:5802  totalUserDeposits += userDeposits[supportedTokens[i]][msg.sender] */\n      dup3\n      tag_228\n      swap2\n      swap1\n      tag_142\n      jump\t// in\n    tag_228:\n      swap2\n      pop\n        /* \"contracts/LendingPool.sol\":5708:5711  i++ */\n      dup1\n      dup1\n      0x01\n      add\n      swap2\n      pop\n      pop\n        /* \"contracts/LendingPool.sol\":5665:5814  for(uint256 i=0; i<supportedTokens.length; i++)... */\n      jump(tag_222)\n    tag_223:\n      pop\n        /* \"contracts/LendingPool.sol\":5910:5937  uint256 collateralToRelease */\n      0x00\n        /* \"contracts/LendingPool.sol\":5954:5969  accruedInterest */\n      dup5\n        /* \"contracts/LendingPool.sol\":5940:5951  repayAmount */\n      dup7\n        /* \"contracts/LendingPool.sol\":5940:5969  repayAmount + accruedInterest */\n      tag_229\n      swap2\n      swap1\n      tag_142\n      jump\t// in\n    tag_229:\n        /* \"contracts/LendingPool.sol\":5910:5969  uint256 collateralToRelease = repayAmount + accruedInterest */\n      swap1\n      pop\n        /* \"contracts/LendingPool.sol\":5353:6070  {... */\n      pop\n      pop\n      pop\n        /* \"contracts/LendingPool.sol\":5239:6070  function calculateRepayableCollateral(uint256 repayAmount, uint256 accruedInterest) public returns (uint256)... */\n      swap3\n      swap2\n      pop\n      pop\n      jump\t// out\n        /* \"contracts/LendingPool.sol\":1339:1359  Escrow public escrow */\n    tag_117:\n      0x09\n      0x00\n      swap1\n      sload\n      swap1\n      0x0100\n      exp\n      swap1\n      div\n      0xffffffffffffffffffffffffffffffffffffffff\n      and\n      dup2\n      jump\t// out\n        /* \"contracts/LendingPool.sol\":845:901  mapping(address => uint256) public totalBorrowedperToken */\n    tag_123:\n      mstore(0x20, 0x06)\n      dup1\n      0x00\n      mstore\n      keccak256(0x00, 0x40)\n      0x00\n      swap2\n      pop\n      swap1\n      pop\n      sload\n      dup2\n      jump\t// out\n        /* \"contracts/LendingPool.sol\":6220:6304  function depositCollateral(address token, address borrower, uint256 amount) public{} */\n    tag_128:\n      pop\n      pop\n      pop\n      jump\t// out\n        /* \"@openzeppelin/contracts/security/ReentrancyGuard.sol\":2336:2623  function _nonReentrantBefore() private {... */\n    tag_131:\n        /* \"@openzeppelin/contracts/security/ReentrancyGuard.sol\":1759:1760  2 */\n      0x02\n        /* \"@openzeppelin/contracts/security/ReentrancyGuard.sol\":2468:2475  _status */\n      sload(0x00)\n        /* \"@openzeppelin/contracts/security/ReentrancyGuard.sol\":2468:2487  _status != _ENTERED */\n      sub\n        /* \"@openzeppelin/contracts/security/ReentrancyGuard.sol\":2460:2523  require(_status != _ENTERED, \"ReentrancyGuard: reentrant call\") */\n      tag_233\n      jumpi\n      mload(0x40)\n      0x08c379a000000000000000000000000000000000000000000000000000000000\n      dup2\n      mstore\n      0x04\n      add\n      tag_234\n      swap1\n      tag_235\n      jump\t// in\n    tag_234:\n      mload(0x40)\n      dup1\n      swap2\n      sub\n      swap1\n      revert\n    tag_233:\n        /* \"@openzeppelin/contracts/security/ReentrancyGuard.sol\":1759:1760  2 */\n      0x02\n        /* \"@openzeppelin/contracts/security/ReentrancyGuard.sol\":2598:2605  _status */\n      0x00\n        /* \"@openzeppelin/contracts/security/ReentrancyGuard.sol\":2598:2616  _status = _ENTERED */\n      dup2\n      swap1\n      sstore\n      pop\n        /* \"@openzeppelin/contracts/security/ReentrancyGuard.sol\":2336:2623  function _nonReentrantBefore() private {... */\n      jump\t// out\n        /* \"@openzeppelin/contracts/security/ReentrancyGuard.sol\":2629:2838  function _nonReentrantAfter() private {... */\n    tag_157:\n        /* \"@openzeppelin/contracts/security/ReentrancyGuard.sol\":1716:1717  1 */\n      0x01\n        /* \"@openzeppelin/contracts/security/ReentrancyGuard.sol\":2809:2816  _status */\n      0x00\n        /* \"@openzeppelin/contracts/security/ReentrancyGuard.sol\":2809:2831  _status = _NOT_ENTERED */\n      dup2\n      swap1\n      sstore\n      pop\n        /* \"@openzeppelin/contracts/security/ReentrancyGuard.sol\":2629:2838  function _nonReentrantAfter() private {... */\n      jump\t// out\n        /* \"contracts/LendingPool.sol\":6078:6181  function OVER_COLLATERALIZATION_RATIO() internal view returns(uint256)... */\n    tag_218:\n        /* \"contracts/LendingPool.sol\":6140:6147  uint256 */\n      0x00\n        /* \"contracts/LendingPool.sol\":6172:6173  2 */\n      0x02\n        /* \"contracts/LendingPool.sol\":6165:6173  return 2 */\n      swap1\n      pop\n        /* \"contracts/LendingPool.sol\":6078:6181  function OVER_COLLATERALIZATION_RATIO() internal view returns(uint256)... */\n      swap1\n      jump\t// out\n        /* \"#utility.yul\":88:205   */\n    tag_239:\n        /* \"#utility.yul\":197:198   */\n      0x00\n        /* \"#utility.yul\":194:195   */\n      dup1\n        /* \"#utility.yul\":187:199   */\n      revert\n        /* \"#utility.yul\":334:460   */\n    tag_241:\n        /* \"#utility.yul\":371:378   */\n      0x00\n        /* \"#utility.yul\":411:453   */\n      0xffffffffffffffffffffffffffffffffffffffff\n        /* \"#utility.yul\":404:409   */\n      dup3\n        /* \"#utility.yul\":400:454   */\n      and\n        /* \"#utility.yul\":389:454   */\n      swap1\n      pop\n        /* \"#utility.yul\":334:460   */\n      swap2\n      swap1\n      pop\n      jump\t// out\n        /* \"#utility.yul\":466:562   */\n    tag_242:\n        /* \"#utility.yul\":503:510   */\n      0x00\n        /* \"#utility.yul\":532:556   */\n      tag_285\n        /* \"#utility.yul\":550:555   */\n      dup3\n        /* \"#utility.yul\":532:556   */\n      tag_241\n      jump\t// in\n    tag_285:\n        /* \"#utility.yul\":521:556   */\n      swap1\n      pop\n        /* \"#utility.yul\":466:562   */\n      swap2\n      swap1\n      pop\n      jump\t// out\n        /* \"#utility.yul\":568:690   */\n    tag_243:\n        /* \"#utility.yul\":641:665   */\n      tag_287\n        /* \"#utility.yul\":659:664   */\n      dup2\n        /* \"#utility.yul\":641:665   */\n      tag_242\n      jump\t// in\n    tag_287:\n        /* \"#utility.yul\":634:639   */\n      dup2\n        /* \"#utility.yul\":631:666   */\n      eq\n        /* \"#utility.yul\":621:684   */\n      tag_288\n      jumpi\n        /* \"#utility.yul\":680:681   */\n      0x00\n        /* \"#utility.yul\":677:678   */\n      dup1\n        /* \"#utility.yul\":670:682   */\n      revert\n        /* \"#utility.yul\":621:684   */\n    tag_288:\n        /* \"#utility.yul\":568:690   */\n      pop\n      jump\t// out\n        /* \"#utility.yul\":696:835   */\n    tag_244:\n        /* \"#utility.yul\":742:747   */\n      0x00\n        /* \"#utility.yul\":780:786   */\n      dup2\n        /* \"#utility.yul\":767:787   */\n      calldataload\n        /* \"#utility.yul\":758:787   */\n      swap1\n      pop\n        /* \"#utility.yul\":796:829   */\n      tag_290\n        /* \"#utility.yul\":823:828   */\n      dup2\n        /* \"#utility.yul\":796:829   */\n      tag_243\n      jump\t// in\n    tag_290:\n        /* \"#utility.yul\":696:835   */\n      swap3\n      swap2\n      pop\n      pop\n      jump\t// out\n        /* \"#utility.yul\":841:918   */\n    tag_245:\n        /* \"#utility.yul\":878:885   */\n      0x00\n        /* \"#utility.yul\":907:912   */\n      dup2\n        /* \"#utility.yul\":896:912   */\n      swap1\n      pop\n        /* \"#utility.yul\":841:918   */\n      swap2\n      swap1\n      pop\n      jump\t// out\n        /* \"#utility.yul\":924:1046   */\n    tag_246:\n        /* \"#utility.yul\":997:1021   */\n      tag_293\n        /* \"#utility.yul\":1015:1020   */\n      dup2\n        /* \"#utility.yul\":997:1021   */\n      tag_245\n      jump\t// in\n    tag_293:\n        /* \"#utility.yul\":990:995   */\n      dup2\n        /* \"#utility.yul\":987:1022   */\n      eq\n        /* \"#utility.yul\":977:1040   */\n      tag_294\n      jumpi\n        /* \"#utility.yul\":1036:1037   */\n      0x00\n        /* \"#utility.yul\":1033:1034   */\n      dup1\n        /* \"#utility.yul\":1026:1038   */\n      revert\n        /* \"#utility.yul\":977:1040   */\n    tag_294:\n        /* \"#utility.yul\":924:1046   */\n      pop\n      jump\t// out\n        /* \"#utility.yul\":1052:1191   */\n    tag_247:\n        /* \"#utility.yul\":1098:1103   */\n      0x00\n        /* \"#utility.yul\":1136:1142   */\n      dup2\n        /* \"#utility.yul\":1123:1143   */\n      calldataload\n        /* \"#utility.yul\":1114:1143   */\n      swap1\n      pop\n        /* \"#utility.yul\":1152:1185   */\n      tag_296\n        /* \"#utility.yul\":1179:1184   */\n      dup2\n        /* \"#utility.yul\":1152:1185   */\n      tag_246\n      jump\t// in\n    tag_296:\n        /* \"#utility.yul\":1052:1191   */\n      swap3\n      swap2\n      pop\n      pop\n      jump\t// out\n        /* \"#utility.yul\":1197:1671   */\n    tag_27:\n        /* \"#utility.yul\":1265:1271   */\n      0x00\n        /* \"#utility.yul\":1273:1279   */\n      dup1\n        /* \"#utility.yul\":1322:1324   */\n      0x40\n        /* \"#utility.yul\":1310:1319   */\n      dup4\n        /* \"#utility.yul\":1301:1308   */\n      dup6\n        /* \"#utility.yul\":1297:1320   */\n      sub\n        /* \"#utility.yul\":1293:1325   */\n      slt\n        /* \"#utility.yul\":1290:1409   */\n      iszero\n      tag_298\n      jumpi\n        /* \"#utility.yul\":1328:1407   */\n      tag_299\n      tag_239\n      jump\t// in\n    tag_299:\n        /* \"#utility.yul\":1290:1409   */\n    tag_298:\n        /* \"#utility.yul\":1448:1449   */\n      0x00\n        /* \"#utility.yul\":1473:1526   */\n      tag_300\n        /* \"#utility.yul\":1518:1525   */\n      dup6\n        /* \"#utility.yul\":1509:1515   */\n      dup3\n        /* \"#utility.yul\":1498:1507   */\n      dup7\n        /* \"#utility.yul\":1494:1516   */\n      add\n        /* \"#utility.yul\":1473:1526   */\n      tag_244\n      jump\t// in\n    tag_300:\n        /* \"#utility.yul\":1463:1526   */\n      swap3\n      pop\n        /* \"#utility.yul\":1419:1536   */\n      pop\n        /* \"#utility.yul\":1575:1577   */\n      0x20\n        /* \"#utility.yul\":1601:1654   */\n      tag_301\n        /* \"#utility.yul\":1646:1653   */\n      dup6\n        /* \"#utility.yul\":1637:1643   */\n      dup3\n        /* \"#utility.yul\":1626:1635   */\n      dup7\n        /* \"#utility.yul\":1622:1644   */\n      add\n        /* \"#utility.yul\":1601:1654   */\n      tag_247\n      jump\t// in\n    tag_301:\n        /* \"#utility.yul\":1591:1654   */\n      swap2\n      pop\n        /* \"#utility.yul\":1546:1664   */\n      pop\n        /* \"#utility.yul\":1197:1671   */\n      swap3\n      pop\n      swap3\n      swap1\n      pop\n      jump\t// out\n        /* \"#utility.yul\":1677:2151   */\n    tag_32:\n        /* \"#utility.yul\":1745:1751   */\n      0x00\n        /* \"#utility.yul\":1753:1759   */\n      dup1\n        /* \"#utility.yul\":1802:1804   */\n      0x40\n        /* \"#utility.yul\":1790:1799   */\n      dup4\n        /* \"#utility.yul\":1781:1788   */\n      dup6\n        /* \"#utility.yul\":1777:1800   */\n      sub\n        /* \"#utility.yul\":1773:1805   */\n      slt\n        /* \"#utility.yul\":1770:1889   */\n      iszero\n      tag_303\n      jumpi\n        /* \"#utility.yul\":1808:1887   */\n      tag_304\n      tag_239\n      jump\t// in\n    tag_304:\n        /* \"#utility.yul\":1770:1889   */\n    tag_303:\n        /* \"#utility.yul\":1928:1929   */\n      0x00\n        /* \"#utility.yul\":1953:2006   */\n      tag_305\n        /* \"#utility.yul\":1998:2005   */\n      dup6\n        /* \"#utility.yul\":1989:1995   */\n      dup3\n        /* \"#utility.yul\":1978:1987   */\n      dup7\n        /* \"#utility.yul\":1974:1996   */\n      add\n        /* \"#utility.yul\":1953:2006   */\n      tag_244\n      jump\t// in\n    tag_305:\n        /* \"#utility.yul\":1943:2006   */\n      swap3\n      pop\n        /* \"#utility.yul\":1899:2016   */\n      pop\n        /* \"#utility.yul\":2055:2057   */\n      0x20\n        /* \"#utility.yul\":2081:2134   */\n      tag_306\n        /* \"#utility.yul\":2126:2133   */\n      dup6\n        /* \"#utility.yul\":2117:2123   */\n      dup3\n        /* \"#utility.yul\":2106:2115   */\n      dup7\n        /* \"#utility.yul\":2102:2124   */\n      add\n        /* \"#utility.yul\":2081:2134   */\n      tag_244\n      jump\t// in\n    tag_306:\n        /* \"#utility.yul\":2071:2134   */\n      swap2\n      pop\n        /* \"#utility.yul\":2026:2144   */\n      pop\n        /* \"#utility.yul\":1677:2151   */\n      swap3\n      pop\n      swap3\n      swap1\n      pop\n      jump\t// out\n        /* \"#utility.yul\":2157:2275   */\n    tag_248:\n        /* \"#utility.yul\":2244:2268   */\n      tag_308\n        /* \"#utility.yul\":2262:2267   */\n      dup2\n        /* \"#utility.yul\":2244:2268   */\n      tag_245\n      jump\t// in\n    tag_308:\n        /* \"#utility.yul\":2239:2242   */\n      dup3\n        /* \"#utility.yul\":2232:2269   */\n      mstore\n        /* \"#utility.yul\":2157:2275   */\n      pop\n      pop\n      jump\t// out\n        /* \"#utility.yul\":2281:2503   */\n    tag_35:\n        /* \"#utility.yul\":2374:2378   */\n      0x00\n        /* \"#utility.yul\":2412:2414   */\n      0x20\n        /* \"#utility.yul\":2401:2410   */\n      dup3\n        /* \"#utility.yul\":2397:2415   */\n      add\n        /* \"#utility.yul\":2389:2415   */\n      swap1\n      pop\n        /* \"#utility.yul\":2425:2496   */\n      tag_310\n        /* \"#utility.yul\":2493:2494   */\n      0x00\n        /* \"#utility.yul\":2482:2491   */\n      dup4\n        /* \"#utility.yul\":2478:2495   */\n      add\n        /* \"#utility.yul\":2469:2475   */\n      dup5\n        /* \"#utility.yul\":2425:2496   */\n      tag_248\n      jump\t// in\n    tag_310:\n        /* \"#utility.yul\":2281:2503   */\n      swap3\n      swap2\n      pop\n      pop\n      jump\t// out\n        /* \"#utility.yul\":2509:2838   */\n    tag_39:\n        /* \"#utility.yul\":2568:2574   */\n      0x00\n        /* \"#utility.yul\":2617:2619   */\n      0x20\n        /* \"#utility.yul\":2605:2614   */\n      dup3\n        /* \"#utility.yul\":2596:2603   */\n      dup5\n        /* \"#utility.yul\":2592:2615   */\n      sub\n        /* \"#utility.yul\":2588:2620   */\n      slt\n        /* \"#utility.yul\":2585:2704   */\n      iszero\n      tag_312\n      jumpi\n        /* \"#utility.yul\":2623:2702   */\n      tag_313\n      tag_239\n      jump\t// in\n    tag_313:\n        /* \"#utility.yul\":2585:2704   */\n    tag_312:\n        /* \"#utility.yul\":2743:2744   */\n      0x00\n        /* \"#utility.yul\":2768:2821   */\n      tag_314\n        /* \"#utility.yul\":2813:2820   */\n      dup5\n        /* \"#utility.yul\":2804:2810   */\n      dup3\n        /* \"#utility.yul\":2793:2802   */\n      dup6\n        /* \"#utility.yul\":2789:2811   */\n      add\n        /* \"#utility.yul\":2768:2821   */\n      tag_244\n      jump\t// in\n    tag_314:\n        /* \"#utility.yul\":2758:2821   */\n      swap2\n      pop\n        /* \"#utility.yul\":2714:2831   */\n      pop\n        /* \"#utility.yul\":2509:2838   */\n      swap3\n      swap2\n      pop\n      pop\n      jump\t// out\n        /* \"#utility.yul\":2844:3286   */\n    tag_47:\n        /* \"#utility.yul\":2993:2997   */\n      0x00\n        /* \"#utility.yul\":3031:3033   */\n      0x60\n        /* \"#utility.yul\":3020:3029   */\n      dup3\n        /* \"#utility.yul\":3016:3034   */\n      add\n        /* \"#utility.yul\":3008:3034   */\n      swap1\n      pop\n        /* \"#utility.yul\":3044:3115   */\n      tag_316\n        /* \"#utility.yul\":3112:3113   */\n      0x00\n        /* \"#utility.yul\":3101:3110   */\n      dup4\n        /* \"#utility.yul\":3097:3114   */\n      add\n        /* \"#utility.yul\":3088:3094   */\n      dup7\n        /* \"#utility.yul\":3044:3115   */\n      tag_248\n      jump\t// in\n    tag_316:\n        /* \"#utility.yul\":3125:3197   */\n      tag_317\n        /* \"#utility.yul\":3193:3195   */\n      0x20\n        /* \"#utility.yul\":3182:3191   */\n      dup4\n        /* \"#utility.yul\":3178:3196   */\n      add\n        /* \"#utility.yul\":3169:3175   */\n      dup6\n        /* \"#utility.yul\":3125:3197   */\n      tag_248\n      jump\t// in\n    tag_317:\n        /* \"#utility.yul\":3207:3279   */\n      tag_318\n        /* \"#utility.yul\":3275:3277   */\n      0x40\n        /* \"#utility.yul\":3264:3273   */\n      dup4\n        /* \"#utility.yul\":3260:3278   */\n      add\n        /* \"#utility.yul\":3251:3257   */\n      dup5\n        /* \"#utility.yul\":3207:3279   */\n      tag_248\n      jump\t// in\n    tag_318:\n        /* \"#utility.yul\":2844:3286   */\n      swap5\n      swap4\n      pop\n      pop\n      pop\n      pop\n      jump\t// out\n        /* \"#utility.yul\":3292:3911   */\n    tag_51:\n        /* \"#utility.yul\":3369:3375   */\n      0x00\n        /* \"#utility.yul\":3377:3383   */\n      dup1\n        /* \"#utility.yul\":3385:3391   */\n      0x00\n        /* \"#utility.yul\":3434:3436   */\n      0x60\n        /* \"#utility.yul\":3422:3431   */\n      dup5\n        /* \"#utility.yul\":3413:3420   */\n      dup7\n        /* \"#utility.yul\":3409:3432   */\n      sub\n        /* \"#utility.yul\":3405:3437   */\n      slt\n        /* \"#utility.yul\":3402:3521   */\n      iszero\n      tag_320\n      jumpi\n        /* \"#utility.yul\":3440:3519   */\n      tag_321\n      tag_239\n      jump\t// in\n    tag_321:\n        /* \"#utility.yul\":3402:3521   */\n    tag_320:\n        /* \"#utility.yul\":3560:3561   */\n      0x00\n        /* \"#utility.yul\":3585:3638   */\n      tag_322\n        /* \"#utility.yul\":3630:3637   */\n      dup7\n        /* \"#utility.yul\":3621:3627   */\n      dup3\n        /* \"#utility.yul\":3610:3619   */\n      dup8\n        /* \"#utility.yul\":3606:3628   */\n      add\n        /* \"#utility.yul\":3585:3638   */\n      tag_244\n      jump\t// in\n    tag_322:\n        /* \"#utility.yul\":3575:3638   */\n      swap4\n      pop\n        /* \"#utility.yul\":3531:3648   */\n      pop\n        /* \"#utility.yul\":3687:3689   */\n      0x20\n        /* \"#utility.yul\":3713:3766   */\n      tag_323\n        /* \"#utility.yul\":3758:3765   */\n      dup7\n        /* \"#utility.yul\":3749:3755   */\n      dup3\n        /* \"#utility.yul\":3738:3747   */\n      dup8\n        /* \"#utility.yul\":3734:3756   */\n      add\n        /* \"#utility.yul\":3713:3766   */\n      tag_244\n      jump\t// in\n    tag_323:\n        /* \"#utility.yul\":3703:3766   */\n      swap3\n      pop\n        /* \"#utility.yul\":3658:3776   */\n      pop\n        /* \"#utility.yul\":3815:3817   */\n      0x40\n        /* \"#utility.yul\":3841:3894   */\n      tag_324\n        /* \"#utility.yul\":3886:3893   */\n      dup7\n        /* \"#utility.yul\":3877:3883   */\n      dup3\n        /* \"#utility.yul\":3866:3875   */\n      dup8\n        /* \"#utility.yul\":3862:3884   */\n      add\n        /* \"#utility.yul\":3841:3894   */\n      tag_247\n      jump\t// in\n    tag_324:\n        /* \"#utility.yul\":3831:3894   */\n      swap2\n      pop\n        /* \"#utility.yul\":3786:3904   */\n      pop\n        /* \"#utility.yul\":3292:3911   */\n      swap3\n      pop\n      swap3\n      pop\n      swap3\n      jump\t// out\n        /* \"#utility.yul\":3917:4246   */\n    tag_56:\n        /* \"#utility.yul\":3976:3982   */\n      0x00\n        /* \"#utility.yul\":4025:4027   */\n      0x20\n        /* \"#utility.yul\":4013:4022   */\n      dup3\n        /* \"#utility.yul\":4004:4011   */\n      dup5\n        /* \"#utility.yul\":4000:4023   */\n      sub\n        /* \"#utility.yul\":3996:4028   */\n      slt\n        /* \"#utility.yul\":3993:4112   */\n      iszero\n      tag_326\n      jumpi\n        /* \"#utility.yul\":4031:4110   */\n      tag_327\n      tag_239\n      jump\t// in\n    tag_327:\n        /* \"#utility.yul\":3993:4112   */\n    tag_326:\n        /* \"#utility.yul\":4151:4152   */\n      0x00\n        /* \"#utility.yul\":4176:4229   */\n      tag_328\n        /* \"#utility.yul\":4221:4228   */\n      dup5\n        /* \"#utility.yul\":4212:4218   */\n      dup3\n        /* \"#utility.yul\":4201:4210   */\n      dup6\n        /* \"#utility.yul\":4197:4219   */\n      add\n        /* \"#utility.yul\":4176:4229   */\n      tag_247\n      jump\t// in\n    tag_328:\n        /* \"#utility.yul\":4166:4229   */\n      swap2\n      pop\n        /* \"#utility.yul\":4122:4239   */\n      pop\n        /* \"#utility.yul\":3917:4246   */\n      swap3\n      swap2\n      pop\n      pop\n      jump\t// out\n        /* \"#utility.yul\":4252:4342   */\n    tag_249:\n        /* \"#utility.yul\":4286:4293   */\n      0x00\n        /* \"#utility.yul\":4329:4334   */\n      dup2\n        /* \"#utility.yul\":4322:4335   */\n      iszero\n        /* \"#utility.yul\":4315:4336   */\n      iszero\n        /* \"#utility.yul\":4304:4336   */\n      swap1\n      pop\n        /* \"#utility.yul\":4252:4342   */\n      swap2\n      swap1\n      pop\n      jump\t// out\n        /* \"#utility.yul\":4348:4457   */\n    tag_250:\n        /* \"#utility.yul\":4429:4450   */\n      tag_331\n        /* \"#utility.yul\":4444:4449   */\n      dup2\n        /* \"#utility.yul\":4429:4450   */\n      tag_249\n      jump\t// in\n    tag_331:\n        /* \"#utility.yul\":4424:4427   */\n      dup3\n        /* \"#utility.yul\":4417:4451   */\n      mstore\n        /* \"#utility.yul\":4348:4457   */\n      pop\n      pop\n      jump\t// out\n        /* \"#utility.yul\":4463:4673   */\n    tag_64:\n        /* \"#utility.yul\":4550:4554   */\n      0x00\n        /* \"#utility.yul\":4588:4590   */\n      0x20\n        /* \"#utility.yul\":4577:4586   */\n      dup3\n        /* \"#utility.yul\":4573:4591   */\n      add\n        /* \"#utility.yul\":4565:4591   */\n      swap1\n      pop\n        /* \"#utility.yul\":4601:4666   */\n      tag_333\n        /* \"#utility.yul\":4663:4664   */\n      0x00\n        /* \"#utility.yul\":4652:4661   */\n      dup4\n        /* \"#utility.yul\":4648:4665   */\n      add\n        /* \"#utility.yul\":4639:4645   */\n      dup5\n        /* \"#utility.yul\":4601:4666   */\n      tag_250\n      jump\t// in\n    tag_333:\n        /* \"#utility.yul\":4463:4673   */\n      swap3\n      swap2\n      pop\n      pop\n      jump\t// out\n        /* \"#utility.yul\":4679:5298   */\n    tag_91:\n        /* \"#utility.yul\":4756:4762   */\n      0x00\n        /* \"#utility.yul\":4764:4770   */\n      dup1\n        /* \"#utility.yul\":4772:4778   */\n      0x00\n        /* \"#utility.yul\":4821:4823   */\n      0x60\n        /* \"#utility.yul\":4809:4818   */\n      dup5\n        /* \"#utility.yul\":4800:4807   */\n      dup7\n        /* \"#utility.yul\":4796:4819   */\n      sub\n        /* \"#utility.yul\":4792:4824   */\n      slt\n        /* \"#utility.yul\":4789:4908   */\n      iszero\n      tag_335\n      jumpi\n        /* \"#utility.yul\":4827:4906   */\n      tag_336\n      tag_239\n      jump\t// in\n    tag_336:\n        /* \"#utility.yul\":4789:4908   */\n    tag_335:\n        /* \"#utility.yul\":4947:4948   */\n      0x00\n        /* \"#utility.yul\":4972:5025   */\n      tag_337\n        /* \"#utility.yul\":5017:5024   */\n      dup7\n        /* \"#utility.yul\":5008:5014   */\n      dup3\n        /* \"#utility.yul\":4997:5006   */\n      dup8\n        /* \"#utility.yul\":4993:5015   */\n      add\n        /* \"#utility.yul\":4972:5025   */\n      tag_244\n      jump\t// in\n    tag_337:\n        /* \"#utility.yul\":4962:5025   */\n      swap4\n      pop\n        /* \"#utility.yul\":4918:5035   */\n      pop\n        /* \"#utility.yul\":5074:5076   */\n      0x20\n        /* \"#utility.yul\":5100:5153   */\n      tag_338\n        /* \"#utility.yul\":5145:5152   */\n      dup7\n        /* \"#utility.yul\":5136:5142   */\n      dup3\n        /* \"#utility.yul\":5125:5134   */\n      dup8\n        /* \"#utility.yul\":5121:5143   */\n      add\n        /* \"#utility.yul\":5100:5153   */\n      tag_247\n      jump\t// in\n    tag_338:\n        /* \"#utility.yul\":5090:5153   */\n      swap3\n      pop\n        /* \"#utility.yul\":5045:5163   */\n      pop\n        /* \"#utility.yul\":5202:5204   */\n      0x40\n        /* \"#utility.yul\":5228:5281   */\n      tag_339\n        /* \"#utility.yul\":5273:5280   */\n      dup7\n        /* \"#utility.yul\":5264:5270   */\n      dup3\n        /* \"#utility.yul\":5253:5262   */\n      dup8\n        /* \"#utility.yul\":5249:5271   */\n      add\n        /* \"#utility.yul\":5228:5281   */\n      tag_247\n      jump\t// in\n    tag_339:\n        /* \"#utility.yul\":5218:5281   */\n      swap2\n      pop\n        /* \"#utility.yul\":5173:5291   */\n      pop\n        /* \"#utility.yul\":4679:5298   */\n      swap3\n      pop\n      swap3\n      pop\n      swap3\n      jump\t// out\n        /* \"#utility.yul\":5304:5422   */\n    tag_251:\n        /* \"#utility.yul\":5391:5415   */\n      tag_341\n        /* \"#utility.yul\":5409:5414   */\n      dup2\n        /* \"#utility.yul\":5391:5415   */\n      tag_242\n      jump\t// in\n    tag_341:\n        /* \"#utility.yul\":5386:5389   */\n      dup3\n        /* \"#utility.yul\":5379:5416   */\n      mstore\n        /* \"#utility.yul\":5304:5422   */\n      pop\n      pop\n      jump\t// out\n        /* \"#utility.yul\":5428:5650   */\n    tag_103:\n        /* \"#utility.yul\":5521:5525   */\n      0x00\n        /* \"#utility.yul\":5559:5561   */\n      0x20\n        /* \"#utility.yul\":5548:5557   */\n      dup3\n        /* \"#utility.yul\":5544:5562   */\n      add\n        /* \"#utility.yul\":5536:5562   */\n      swap1\n      pop\n        /* \"#utility.yul\":5572:5643   */\n      tag_343\n        /* \"#utility.yul\":5640:5641   */\n      0x00\n        /* \"#utility.yul\":5629:5638   */\n      dup4\n        /* \"#utility.yul\":5625:5642   */\n      add\n        /* \"#utility.yul\":5616:5622   */\n      dup5\n        /* \"#utility.yul\":5572:5643   */\n      tag_251\n      jump\t// in\n    tag_343:\n        /* \"#utility.yul\":5428:5650   */\n      swap3\n      swap2\n      pop\n      pop\n      jump\t// out\n        /* \"#utility.yul\":5656:6130   */\n    tag_112:\n        /* \"#utility.yul\":5724:5730   */\n      0x00\n        /* \"#utility.yul\":5732:5738   */\n      dup1\n        /* \"#utility.yul\":5781:5783   */\n      0x40\n        /* \"#utility.yul\":5769:5778   */\n      dup4\n        /* \"#utility.yul\":5760:5767   */\n      dup6\n        /* \"#utility.yul\":5756:5779   */\n      sub\n        /* \"#utility.yul\":5752:5784   */\n      slt\n        /* \"#utility.yul\":5749:5868   */\n      iszero\n      tag_345\n      jumpi\n        /* \"#utility.yul\":5787:5866   */\n      tag_346\n      tag_239\n      jump\t// in\n    tag_346:\n        /* \"#utility.yul\":5749:5868   */\n    tag_345:\n        /* \"#utility.yul\":5907:5908   */\n      0x00\n        /* \"#utility.yul\":5932:5985   */\n      tag_347\n        /* \"#utility.yul\":5977:5984   */\n      dup6\n        /* \"#utility.yul\":5968:5974   */\n      dup3\n        /* \"#utility.yul\":5957:5966   */\n      dup7\n        /* \"#utility.yul\":5953:5975   */\n      add\n        /* \"#utility.yul\":5932:5985   */\n      tag_247\n      jump\t// in\n    tag_347:\n        /* \"#utility.yul\":5922:5985   */\n      swap3\n      pop\n        /* \"#utility.yul\":5878:5995   */\n      pop\n        /* \"#utility.yul\":6034:6036   */\n      0x20\n        /* \"#utility.yul\":6060:6113   */\n      tag_348\n        /* \"#utility.yul\":6105:6112   */\n      dup6\n        /* \"#utility.yul\":6096:6102   */\n      dup3\n        /* \"#utility.yul\":6085:6094   */\n      dup7\n        /* \"#utility.yul\":6081:6103   */\n      add\n        /* \"#utility.yul\":6060:6113   */\n      tag_247\n      jump\t// in\n    tag_348:\n        /* \"#utility.yul\":6050:6113   */\n      swap2\n      pop\n        /* \"#utility.yul\":6005:6123   */\n      pop\n        /* \"#utility.yul\":5656:6130   */\n      swap3\n      pop\n      swap3\n      swap1\n      pop\n      jump\t// out\n        /* \"#utility.yul\":6136:6196   */\n    tag_252:\n        /* \"#utility.yul\":6164:6167   */\n      0x00\n        /* \"#utility.yul\":6185:6190   */\n      dup2\n        /* \"#utility.yul\":6178:6190   */\n      swap1\n      pop\n        /* \"#utility.yul\":6136:6196   */\n      swap2\n      swap1\n      pop\n      jump\t// out\n        /* \"#utility.yul\":6202:6344   */\n    tag_253:\n        /* \"#utility.yul\":6252:6261   */\n      0x00\n        /* \"#utility.yul\":6285:6338   */\n      tag_351\n        /* \"#utility.yul\":6303:6337   */\n      tag_352\n        /* \"#utility.yul\":6312:6336   */\n      tag_353\n        /* \"#utility.yul\":6330:6335   */\n      dup5\n        /* \"#utility.yul\":6312:6336   */\n      tag_241\n      jump\t// in\n    tag_353:\n        /* \"#utility.yul\":6303:6337   */\n      tag_252\n      jump\t// in\n    tag_352:\n        /* \"#utility.yul\":6285:6338   */\n      tag_241\n      jump\t// in\n    tag_351:\n        /* \"#utility.yul\":6272:6338   */\n      swap1\n      pop\n        /* \"#utility.yul\":6202:6344   */\n      swap2\n      swap1\n      pop\n      jump\t// out\n        /* \"#utility.yul\":6350:6476   */\n    tag_254:\n        /* \"#utility.yul\":6400:6409   */\n      0x00\n        /* \"#utility.yul\":6433:6470   */\n      tag_355\n        /* \"#utility.yul\":6464:6469   */\n      dup3\n        /* \"#utility.yul\":6433:6470   */\n      tag_253\n      jump\t// in\n    tag_355:\n        /* \"#utility.yul\":6420:6470   */\n      swap1\n      pop\n        /* \"#utility.yul\":6350:6476   */\n      swap2\n      swap1\n      pop\n      jump\t// out\n        /* \"#utility.yul\":6482:6622   */\n    tag_255:\n        /* \"#utility.yul\":6546:6555   */\n      0x00\n        /* \"#utility.yul\":6579:6616   */\n      tag_357\n        /* \"#utility.yul\":6610:6615   */\n      dup3\n        /* \"#utility.yul\":6579:6616   */\n      tag_254\n      jump\t// in\n    tag_357:\n        /* \"#utility.yul\":6566:6616   */\n      swap1\n      pop\n        /* \"#utility.yul\":6482:6622   */\n      swap2\n      swap1\n      pop\n      jump\t// out\n        /* \"#utility.yul\":6628:6787   */\n    tag_256:\n        /* \"#utility.yul\":6729:6780   */\n      tag_359\n        /* \"#utility.yul\":6774:6779   */\n      dup2\n        /* \"#utility.yul\":6729:6780   */\n      tag_255\n      jump\t// in\n    tag_359:\n        /* \"#utility.yul\":6724:6727   */\n      dup3\n        /* \"#utility.yul\":6717:6781   */\n      mstore\n        /* \"#utility.yul\":6628:6787   */\n      pop\n      pop\n      jump\t// out\n        /* \"#utility.yul\":6793:7043   */\n    tag_119:\n        /* \"#utility.yul\":6900:6904   */\n      0x00\n        /* \"#utility.yul\":6938:6940   */\n      0x20\n        /* \"#utility.yul\":6927:6936   */\n      dup3\n        /* \"#utility.yul\":6923:6941   */\n      add\n        /* \"#utility.yul\":6915:6941   */\n      swap1\n      pop\n        /* \"#utility.yul\":6951:7036   */\n      tag_361\n        /* \"#utility.yul\":7033:7034   */\n      0x00\n        /* \"#utility.yul\":7022:7031   */\n      dup4\n        /* \"#utility.yul\":7018:7035   */\n      add\n        /* \"#utility.yul\":7009:7015   */\n      dup5\n        /* \"#utility.yul\":6951:7036   */\n      tag_256\n      jump\t// in\n    tag_361:\n        /* \"#utility.yul\":6793:7043   */\n      swap3\n      swap2\n      pop\n      pop\n      jump\t// out\n        /* \"#utility.yul\":7049:7218   */\n    tag_257:\n        /* \"#utility.yul\":7133:7144   */\n      0x00\n        /* \"#utility.yul\":7167:7173   */\n      dup3\n        /* \"#utility.yul\":7162:7165   */\n      dup3\n        /* \"#utility.yul\":7155:7174   */\n      mstore\n        /* \"#utility.yul\":7207:7211   */\n      0x20\n        /* \"#utility.yul\":7202:7205   */\n      dup3\n        /* \"#utility.yul\":7198:7212   */\n      add\n        /* \"#utility.yul\":7183:7212   */\n      swap1\n      pop\n        /* \"#utility.yul\":7049:7218   */\n      swap3\n      swap2\n      pop\n      pop\n      jump\t// out\n        /* \"#utility.yul\":7224:7453   */\n    tag_258:\n        /* \"#utility.yul\":7364:7398   */\n      0x52657061796d656e7420616d6f756e74206d7573742062652067726561746572\n        /* \"#utility.yul\":7360:7361   */\n      0x00\n        /* \"#utility.yul\":7352:7358   */\n      dup3\n        /* \"#utility.yul\":7348:7362   */\n      add\n        /* \"#utility.yul\":7341:7399   */\n      mstore\n        /* \"#utility.yul\":7433:7445   */\n      0x207468616e207a65726f00000000000000000000000000000000000000000000\n        /* \"#utility.yul\":7428:7430   */\n      0x20\n        /* \"#utility.yul\":7420:7426   */\n      dup3\n        /* \"#utility.yul\":7416:7431   */\n      add\n        /* \"#utility.yul\":7409:7446   */\n      mstore\n        /* \"#utility.yul\":7224:7453   */\n      pop\n      jump\t// out\n        /* \"#utility.yul\":7459:7825   */\n    tag_259:\n        /* \"#utility.yul\":7601:7604   */\n      0x00\n        /* \"#utility.yul\":7622:7689   */\n      tag_365\n        /* \"#utility.yul\":7686:7688   */\n      0x2a\n        /* \"#utility.yul\":7681:7684   */\n      dup4\n        /* \"#utility.yul\":7622:7689   */\n      tag_257\n      jump\t// in\n    tag_365:\n        /* \"#utility.yul\":7615:7689   */\n      swap2\n      pop\n        /* \"#utility.yul\":7698:7791   */\n      tag_366\n        /* \"#utility.yul\":7787:7790   */\n      dup3\n        /* \"#utility.yul\":7698:7791   */\n      tag_258\n      jump\t// in\n    tag_366:\n        /* \"#utility.yul\":7816:7818   */\n      0x40\n        /* \"#utility.yul\":7811:7814   */\n      dup3\n        /* \"#utility.yul\":7807:7819   */\n      add\n        /* \"#utility.yul\":7800:7819   */\n      swap1\n      pop\n        /* \"#utility.yul\":7459:7825   */\n      swap2\n      swap1\n      pop\n      jump\t// out\n        /* \"#utility.yul\":7831:8250   */\n    tag_135:\n        /* \"#utility.yul\":7997:8001   */\n      0x00\n        /* \"#utility.yul\":8035:8037   */\n      0x20\n        /* \"#utility.yul\":8024:8033   */\n      dup3\n        /* \"#utility.yul\":8020:8038   */\n      add\n        /* \"#utility.yul\":8012:8038   */\n      swap1\n      pop\n        /* \"#utility.yul\":8084:8093   */\n      dup2\n        /* \"#utility.yul\":8078:8082   */\n      dup2\n        /* \"#utility.yul\":8074:8094   */\n      sub\n        /* \"#utility.yul\":8070:8071   */\n      0x00\n        /* \"#utility.yul\":8059:8068   */\n      dup4\n        /* \"#utility.yul\":8055:8072   */\n      add\n        /* \"#utility.yul\":8048:8095   */\n      mstore\n        /* \"#utility.yul\":8112:8243   */\n      tag_368\n        /* \"#utility.yul\":8238:8242   */\n      dup2\n        /* \"#utility.yul\":8112:8243   */\n      tag_259\n      jump\t// in\n    tag_368:\n        /* \"#utility.yul\":8104:8243   */\n      swap1\n      pop\n        /* \"#utility.yul\":7831:8250   */\n      swap2\n      swap1\n      pop\n      jump\t// out\n        /* \"#utility.yul\":8256:8436   */\n    tag_260:\n        /* \"#utility.yul\":8304:8381   */\n      0x4e487b7100000000000000000000000000000000000000000000000000000000\n        /* \"#utility.yul\":8301:8302   */\n      0x00\n        /* \"#utility.yul\":8294:8382   */\n      mstore\n        /* \"#utility.yul\":8401:8405   */\n      0x11\n        /* \"#utility.yul\":8398:8399   */\n      0x04\n        /* \"#utility.yul\":8391:8406   */\n      mstore\n        /* \"#utility.yul\":8425:8429   */\n      0x24\n        /* \"#utility.yul\":8422:8423   */\n      0x00\n        /* \"#utility.yul\":8415:8430   */\n      revert\n        /* \"#utility.yul\":8442:8636   */\n    tag_137:\n        /* \"#utility.yul\":8482:8486   */\n      0x00\n        /* \"#utility.yul\":8502:8522   */\n      tag_371\n        /* \"#utility.yul\":8520:8521   */\n      dup3\n        /* \"#utility.yul\":8502:8522   */\n      tag_245\n      jump\t// in\n    tag_371:\n        /* \"#utility.yul\":8497:8522   */\n      swap2\n      pop\n        /* \"#utility.yul\":8536:8556   */\n      tag_372\n        /* \"#utility.yul\":8554:8555   */\n      dup4\n        /* \"#utility.yul\":8536:8556   */\n      tag_245\n      jump\t// in\n    tag_372:\n        /* \"#utility.yul\":8531:8556   */\n      swap3\n      pop\n        /* \"#utility.yul\":8580:8581   */\n      dup3\n        /* \"#utility.yul\":8577:8578   */\n      dup3\n        /* \"#utility.yul\":8573:8582   */\n      sub\n        /* \"#utility.yul\":8565:8582   */\n      swap1\n      pop\n        /* \"#utility.yul\":8604:8605   */\n      dup2\n        /* \"#utility.yul\":8598:8602   */\n      dup2\n        /* \"#utility.yul\":8595:8606   */\n      gt\n        /* \"#utility.yul\":8592:8629   */\n      iszero\n      tag_373\n      jumpi\n        /* \"#utility.yul\":8609:8627   */\n      tag_374\n      tag_260\n      jump\t// in\n    tag_374:\n        /* \"#utility.yul\":8592:8629   */\n    tag_373:\n        /* \"#utility.yul\":8442:8636   */\n      swap3\n      swap2\n      pop\n      pop\n      jump\t// out\n        /* \"#utility.yul\":8642:8833   */\n    tag_142:\n        /* \"#utility.yul\":8682:8685   */\n      0x00\n        /* \"#utility.yul\":8701:8721   */\n      tag_376\n        /* \"#utility.yul\":8719:8720   */\n      dup3\n        /* \"#utility.yul\":8701:8721   */\n      tag_245\n      jump\t// in\n    tag_376:\n        /* \"#utility.yul\":8696:8721   */\n      swap2\n      pop\n        /* \"#utility.yul\":8735:8755   */\n      tag_377\n        /* \"#utility.yul\":8753:8754   */\n      dup4\n        /* \"#utility.yul\":8735:8755   */\n      tag_245\n      jump\t// in\n    tag_377:\n        /* \"#utility.yul\":8730:8755   */\n      swap3\n      pop\n        /* \"#utility.yul\":8778:8779   */\n      dup3\n        /* \"#utility.yul\":8775:8776   */\n      dup3\n        /* \"#utility.yul\":8771:8780   */\n      add\n        /* \"#utility.yul\":8764:8780   */\n      swap1\n      pop\n        /* \"#utility.yul\":8799:8802   */\n      dup1\n        /* \"#utility.yul\":8796:8797   */\n      dup3\n        /* \"#utility.yul\":8793:8803   */\n      gt\n        /* \"#utility.yul\":8790:8826   */\n      iszero\n      tag_378\n      jumpi\n        /* \"#utility.yul\":8806:8824   */\n      tag_379\n      tag_260\n      jump\t// in\n    tag_379:\n        /* \"#utility.yul\":8790:8826   */\n    tag_378:\n        /* \"#utility.yul\":8642:8833   */\n      swap3\n      swap2\n      pop\n      pop\n      jump\t// out\n        /* \"#utility.yul\":8839:9064   */\n    tag_261:\n        /* \"#utility.yul\":8979:9013   */\n      0x52657061796d656e7420616d6f756e74206578636565647320626f72726f7720\n        /* \"#utility.yul\":8975:8976   */\n      0x00\n        /* \"#utility.yul\":8967:8973   */\n      dup3\n        /* \"#utility.yul\":8963:8977   */\n      add\n        /* \"#utility.yul\":8956:9014   */\n      mstore\n        /* \"#utility.yul\":9048:9056   */\n      0x616d6f756e740000000000000000000000000000000000000000000000000000\n        /* \"#utility.yul\":9043:9045   */\n      0x20\n        /* \"#utility.yul\":9035:9041   */\n      dup3\n        /* \"#utility.yul\":9031:9046   */\n      add\n        /* \"#utility.yul\":9024:9057   */\n      mstore\n        /* \"#utility.yul\":8839:9064   */\n      pop\n      jump\t// out\n        /* \"#utility.yul\":9070:9436   */\n    tag_262:\n        /* \"#utility.yul\":9212:9215   */\n      0x00\n        /* \"#utility.yul\":9233:9300   */\n      tag_382\n        /* \"#utility.yul\":9297:9299   */\n      0x26\n        /* \"#utility.yul\":9292:9295   */\n      dup4\n        /* \"#utility.yul\":9233:9300   */\n      tag_257\n      jump\t// in\n    tag_382:\n        /* \"#utility.yul\":9226:9300   */\n      swap2\n      pop\n        /* \"#utility.yul\":9309:9402   */\n      tag_383\n        /* \"#utility.yul\":9398:9401   */\n      dup3\n        /* \"#utility.yul\":9309:9402   */\n      tag_261\n      jump\t// in\n    tag_383:\n        /* \"#utility.yul\":9427:9429   */\n      0x40\n        /* \"#utility.yul\":9422:9425   */\n      dup3\n        /* \"#utility.yul\":9418:9430   */\n      add\n        /* \"#utility.yul\":9411:9430   */\n      swap1\n      pop\n        /* \"#utility.yul\":9070:9436   */\n      swap2\n      swap1\n      pop\n      jump\t// out\n        /* \"#utility.yul\":9442:9861   */\n    tag_145:\n        /* \"#utility.yul\":9608:9612   */\n      0x00\n        /* \"#utility.yul\":9646:9648   */\n      0x20\n        /* \"#utility.yul\":9635:9644   */\n      dup3\n        /* \"#utility.yul\":9631:9649   */\n      add\n        /* \"#utility.yul\":9623:9649   */\n      swap1\n      pop\n        /* \"#utility.yul\":9695:9704   */\n      dup2\n        /* \"#utility.yul\":9689:9693   */\n      dup2\n        /* \"#utility.yul\":9685:9705   */\n      sub\n        /* \"#utility.yul\":9681:9682   */\n      0x00\n        /* \"#utility.yul\":9670:9679   */\n      dup4\n        /* \"#utility.yul\":9666:9683   */\n      add\n        /* \"#utility.yul\":9659:9706   */\n      mstore\n        /* \"#utility.yul\":9723:9854   */\n      tag_385\n        /* \"#utility.yul\":9849:9853   */\n      dup2\n        /* \"#utility.yul\":9723:9854   */\n      tag_262\n      jump\t// in\n    tag_385:\n        /* \"#utility.yul\":9715:9854   */\n      swap1\n      pop\n        /* \"#utility.yul\":9442:9861   */\n      swap2\n      swap1\n      pop\n      jump\t// out\n        /* \"#utility.yul\":9867:10107   */\n    tag_263:\n        /* \"#utility.yul\":10007:10041   */\n      0x496e73756666696369656e742066756e647320666f722072657061796d656e74\n        /* \"#utility.yul\":10003:10004   */\n      0x00\n        /* \"#utility.yul\":9995:10001   */\n      dup3\n        /* \"#utility.yul\":9991:10005   */\n      add\n        /* \"#utility.yul\":9984:10042   */\n      mstore\n        /* \"#utility.yul\":10076:10099   */\n      0x20616e64206163637275656420696e7465726573740000000000000000000000\n        /* \"#utility.yul\":10071:10073   */\n      0x20\n        /* \"#utility.yul\":10063:10069   */\n      dup3\n        /* \"#utility.yul\":10059:10074   */\n      add\n        /* \"#utility.yul\":10052:10100   */\n      mstore\n        /* \"#utility.yul\":9867:10107   */\n      pop\n      jump\t// out\n        /* \"#utility.yul\":10113:10479   */\n    tag_264:\n        /* \"#utility.yul\":10255:10258   */\n      0x00\n        /* \"#utility.yul\":10276:10343   */\n      tag_388\n        /* \"#utility.yul\":10340:10342   */\n      0x35\n        /* \"#utility.yul\":10335:10338   */\n      dup4\n        /* \"#utility.yul\":10276:10343   */\n      tag_257\n      jump\t// in\n    tag_388:\n        /* \"#utility.yul\":10269:10343   */\n      swap2\n      pop\n        /* \"#utility.yul\":10352:10445   */\n      tag_389\n        /* \"#utility.yul\":10441:10444   */\n      dup3\n        /* \"#utility.yul\":10352:10445   */\n      tag_263\n      jump\t// in\n    tag_389:\n        /* \"#utility.yul\":10470:10472   */\n      0x40\n        /* \"#utility.yul\":10465:10468   */\n      dup3\n        /* \"#utility.yul\":10461:10473   */\n      add\n        /* \"#utility.yul\":10454:10473   */\n      swap1\n      pop\n        /* \"#utility.yul\":10113:10479   */\n      swap2\n      swap1\n      pop\n      jump\t// out\n        /* \"#utility.yul\":10485:10904   */\n    tag_149:\n        /* \"#utility.yul\":10651:10655   */\n      0x00\n        /* \"#utility.yul\":10689:10691   */\n      0x20\n        /* \"#utility.yul\":10678:10687   */\n      dup3\n        /* \"#utility.yul\":10674:10692   */\n      add\n        /* \"#utility.yul\":10666:10692   */\n      swap1\n      pop\n        /* \"#utility.yul\":10738:10747   */\n      dup2\n        /* \"#utility.yul\":10732:10736   */\n      dup2\n        /* \"#utility.yul\":10728:10748   */\n      sub\n        /* \"#utility.yul\":10724:10725   */\n      0x00\n        /* \"#utility.yul\":10713:10722   */\n      dup4\n        /* \"#utility.yul\":10709:10726   */\n      add\n        /* \"#utility.yul\":10702:10749   */\n      mstore\n        /* \"#utility.yul\":10766:10897   */\n      tag_391\n        /* \"#utility.yul\":10892:10896   */\n      dup2\n        /* \"#utility.yul\":10766:10897   */\n      tag_264\n      jump\t// in\n    tag_391:\n        /* \"#utility.yul\":10758:10897   */\n      swap1\n      pop\n        /* \"#utility.yul\":10485:10904   */\n      swap2\n      swap1\n      pop\n      jump\t// out\n        /* \"#utility.yul\":10910:11090   */\n    tag_166:\n        /* \"#utility.yul\":10958:11035   */\n      0x4e487b7100000000000000000000000000000000000000000000000000000000\n        /* \"#utility.yul\":10955:10956   */\n      0x00\n        /* \"#utility.yul\":10948:11036   */\n      mstore\n        /* \"#utility.yul\":11055:11059   */\n      0x32\n        /* \"#utility.yul\":11052:11053   */\n      0x04\n        /* \"#utility.yul\":11045:11060   */\n      mstore\n        /* \"#utility.yul\":11079:11083   */\n      0x24\n        /* \"#utility.yul\":11076:11077   */\n      0x00\n        /* \"#utility.yul\":11069:11084   */\n      revert\n        /* \"#utility.yul\":11096:11323   */\n    tag_265:\n        /* \"#utility.yul\":11236:11270   */\n      0x4465706f73697420616d6f756e74206d75737420626520677265617465722074\n        /* \"#utility.yul\":11232:11233   */\n      0x00\n        /* \"#utility.yul\":11224:11230   */\n      dup3\n        /* \"#utility.yul\":11220:11234   */\n      add\n        /* \"#utility.yul\":11213:11271   */\n      mstore\n        /* \"#utility.yul\":11305:11315   */\n      0x68616e207a65726f000000000000000000000000000000000000000000000000\n        /* \"#utility.yul\":11300:11302   */\n      0x20\n        /* \"#utility.yul\":11292:11298   */\n      dup3\n        /* \"#utility.yul\":11288:11303   */\n      add\n        /* \"#utility.yul\":11281:11316   */\n      mstore\n        /* \"#utility.yul\":11096:11323   */\n      pop\n      jump\t// out\n        /* \"#utility.yul\":11329:11695   */\n    tag_266:\n        /* \"#utility.yul\":11471:11474   */\n      0x00\n        /* \"#utility.yul\":11492:11559   */\n      tag_395\n        /* \"#utility.yul\":11556:11558   */\n      0x28\n        /* \"#utility.yul\":11551:11554   */\n      dup4\n        /* \"#utility.yul\":11492:11559   */\n      tag_257\n      jump\t// in\n    tag_395:\n        /* \"#utility.yul\":11485:11559   */\n      swap2\n      pop\n        /* \"#utility.yul\":11568:11661   */\n      tag_396\n        /* \"#utility.yul\":11657:11660   */\n      dup3\n        /* \"#utility.yul\":11568:11661   */\n      tag_265\n      jump\t// in\n    tag_396:\n        /* \"#utility.yul\":11686:11688   */\n      0x40\n        /* \"#utility.yul\":11681:11684   */\n      dup3\n        /* \"#utility.yul\":11677:11689   */\n      add\n        /* \"#utility.yul\":11670:11689   */\n      swap1\n      pop\n        /* \"#utility.yul\":11329:11695   */\n      swap2\n      swap1\n      pop\n      jump\t// out\n        /* \"#utility.yul\":11701:12120   */\n    tag_172:\n        /* \"#utility.yul\":11867:11871   */\n      0x00\n        /* \"#utility.yul\":11905:11907   */\n      0x20\n        /* \"#utility.yul\":11894:11903   */\n      dup3\n        /* \"#utility.yul\":11890:11908   */\n      add\n        /* \"#utility.yul\":11882:11908   */\n      swap1\n      pop\n        /* \"#utility.yul\":11954:11963   */\n      dup2\n        /* \"#utility.yul\":11948:11952   */\n      dup2\n        /* \"#utility.yul\":11944:11964   */\n      sub\n        /* \"#utility.yul\":11940:11941   */\n      0x00\n        /* \"#utility.yul\":11929:11938   */\n      dup4\n        /* \"#utility.yul\":11925:11942   */\n      add\n        /* \"#utility.yul\":11918:11965   */\n      mstore\n        /* \"#utility.yul\":11982:12113   */\n      tag_398\n        /* \"#utility.yul\":12108:12112   */\n      dup2\n        /* \"#utility.yul\":11982:12113   */\n      tag_266\n      jump\t// in\n    tag_398:\n        /* \"#utility.yul\":11974:12113   */\n      swap1\n      pop\n        /* \"#utility.yul\":11701:12120   */\n      swap2\n      swap1\n      pop\n      jump\t// out\n        /* \"#utility.yul\":12126:12568   */\n    tag_174:\n        /* \"#utility.yul\":12275:12279   */\n      0x00\n        /* \"#utility.yul\":12313:12315   */\n      0x60\n        /* \"#utility.yul\":12302:12311   */\n      dup3\n        /* \"#utility.yul\":12298:12316   */\n      add\n        /* \"#utility.yul\":12290:12316   */\n      swap1\n      pop\n        /* \"#utility.yul\":12326:12397   */\n      tag_400\n        /* \"#utility.yul\":12394:12395   */\n      0x00\n        /* \"#utility.yul\":12383:12392   */\n      dup4\n        /* \"#utility.yul\":12379:12396   */\n      add\n        /* \"#utility.yul\":12370:12376   */\n      dup7\n        /* \"#utility.yul\":12326:12397   */\n      tag_251\n      jump\t// in\n    tag_400:\n        /* \"#utility.yul\":12407:12479   */\n      tag_401\n        /* \"#utility.yul\":12475:12477   */\n      0x20\n        /* \"#utility.yul\":12464:12473   */\n      dup4\n        /* \"#utility.yul\":12460:12478   */\n      add\n        /* \"#utility.yul\":12451:12457   */\n      dup6\n        /* \"#utility.yul\":12407:12479   */\n      tag_251\n      jump\t// in\n    tag_401:\n        /* \"#utility.yul\":12489:12561   */\n      tag_402\n        /* \"#utility.yul\":12557:12559   */\n      0x40\n        /* \"#utility.yul\":12546:12555   */\n      dup4\n        /* \"#utility.yul\":12542:12560   */\n      add\n        /* \"#utility.yul\":12533:12539   */\n      dup5\n        /* \"#utility.yul\":12489:12561   */\n      tag_248\n      jump\t// in\n    tag_402:\n        /* \"#utility.yul\":12126:12568   */\n      swap5\n      swap4\n      pop\n      pop\n      pop\n      pop\n      jump\t// out\n        /* \"#utility.yul\":12574:12690   */\n    tag_267:\n        /* \"#utility.yul\":12644:12665   */\n      tag_404\n        /* \"#utility.yul\":12659:12664   */\n      dup2\n        /* \"#utility.yul\":12644:12665   */\n      tag_249\n      jump\t// in\n    tag_404:\n        /* \"#utility.yul\":12637:12642   */\n      dup2\n        /* \"#utility.yul\":12634:12666   */\n      eq\n        /* \"#utility.yul\":12624:12684   */\n      tag_405\n      jumpi\n        /* \"#utility.yul\":12680:12681   */\n      0x00\n        /* \"#utility.yul\":12677:12678   */\n      dup1\n        /* \"#utility.yul\":12670:12682   */\n      revert\n        /* \"#utility.yul\":12624:12684   */\n    tag_405:\n        /* \"#utility.yul\":12574:12690   */\n      pop\n      jump\t// out\n        /* \"#utility.yul\":12696:12833   */\n    tag_268:\n        /* \"#utility.yul\":12750:12755   */\n      0x00\n        /* \"#utility.yul\":12781:12787   */\n      dup2\n        /* \"#utility.yul\":12775:12788   */\n      mload\n        /* \"#utility.yul\":12766:12788   */\n      swap1\n      pop\n        /* \"#utility.yul\":12797:12827   */\n      tag_407\n        /* \"#utility.yul\":12821:12826   */\n      dup2\n        /* \"#utility.yul\":12797:12827   */\n      tag_267\n      jump\t// in\n    tag_407:\n        /* \"#utility.yul\":12696:12833   */\n      swap3\n      swap2\n      pop\n      pop\n      jump\t// out\n        /* \"#utility.yul\":12839:13184   */\n    tag_178:\n        /* \"#utility.yul\":12906:12912   */\n      0x00\n        /* \"#utility.yul\":12955:12957   */\n      0x20\n        /* \"#utility.yul\":12943:12952   */\n      dup3\n        /* \"#utility.yul\":12934:12941   */\n      dup5\n        /* \"#utility.yul\":12930:12953   */\n      sub\n        /* \"#utility.yul\":12926:12958   */\n      slt\n        /* \"#utility.yul\":12923:13042   */\n      iszero\n      tag_409\n      jumpi\n        /* \"#utility.yul\":12961:13040   */\n      tag_410\n      tag_239\n      jump\t// in\n    tag_410:\n        /* \"#utility.yul\":12923:13042   */\n    tag_409:\n        /* \"#utility.yul\":13081:13082   */\n      0x00\n        /* \"#utility.yul\":13106:13167   */\n      tag_411\n        /* \"#utility.yul\":13159:13166   */\n      dup5\n        /* \"#utility.yul\":13150:13156   */\n      dup3\n        /* \"#utility.yul\":13139:13148   */\n      dup6\n        /* \"#utility.yul\":13135:13157   */\n      add\n        /* \"#utility.yul\":13106:13167   */\n      tag_268\n      jump\t// in\n    tag_411:\n        /* \"#utility.yul\":13096:13167   */\n      swap2\n      pop\n        /* \"#utility.yul\":13052:13177   */\n      pop\n        /* \"#utility.yul\":12839:13184   */\n      swap3\n      swap2\n      pop\n      pop\n      jump\t// out\n        /* \"#utility.yul\":13190:13416   */\n    tag_269:\n        /* \"#utility.yul\":13330:13364   */\n      0x426f72726f7720616d6f756e74206d7573742062652067726561746572207468\n        /* \"#utility.yul\":13326:13327   */\n      0x00\n        /* \"#utility.yul\":13318:13324   */\n      dup3\n        /* \"#utility.yul\":13314:13328   */\n      add\n        /* \"#utility.yul\":13307:13365   */\n      mstore\n        /* \"#utility.yul\":13399:13408   */\n      0x616e207a65726f00000000000000000000000000000000000000000000000000\n        /* \"#utility.yul\":13394:13396   */\n      0x20\n        /* \"#utility.yul\":13386:13392   */\n      dup3\n        /* \"#utility.yul\":13382:13397   */\n      add\n        /* \"#utility.yul\":13375:13409   */\n      mstore\n        /* \"#utility.yul\":13190:13416   */\n      pop\n      jump\t// out\n        /* \"#utility.yul\":13422:13788   */\n    tag_270:\n        /* \"#utility.yul\":13564:13567   */\n      0x00\n        /* \"#utility.yul\":13585:13652   */\n      tag_414\n        /* \"#utility.yul\":13649:13651   */\n      0x27\n        /* \"#utility.yul\":13644:13647   */\n      dup4\n        /* \"#utility.yul\":13585:13652   */\n      tag_257\n      jump\t// in\n    tag_414:\n        /* \"#utility.yul\":13578:13652   */\n      swap2\n      pop\n        /* \"#utility.yul\":13661:13754   */\n      tag_415\n        /* \"#utility.yul\":13750:13753   */\n      dup3\n        /* \"#utility.yul\":13661:13754   */\n      tag_269\n      jump\t// in\n    tag_415:\n        /* \"#utility.yul\":13779:13781   */\n      0x40\n        /* \"#utility.yul\":13774:13777   */\n      dup3\n        /* \"#utility.yul\":13770:13782   */\n      add\n        /* \"#utility.yul\":13763:13782   */\n      swap1\n      pop\n        /* \"#utility.yul\":13422:13788   */\n      swap2\n      swap1\n      pop\n      jump\t// out\n        /* \"#utility.yul\":13794:14213   */\n    tag_186:\n        /* \"#utility.yul\":13960:13964   */\n      0x00\n        /* \"#utility.yul\":13998:14000   */\n      0x20\n        /* \"#utility.yul\":13987:13996   */\n      dup3\n        /* \"#utility.yul\":13983:14001   */\n      add\n        /* \"#utility.yul\":13975:14001   */\n      swap1\n      pop\n        /* \"#utility.yul\":14047:14056   */\n      dup2\n        /* \"#utility.yul\":14041:14045   */\n      dup2\n        /* \"#utility.yul\":14037:14057   */\n      sub\n        /* \"#utility.yul\":14033:14034   */\n      0x00\n        /* \"#utility.yul\":14022:14031   */\n      dup4\n        /* \"#utility.yul\":14018:14035   */\n      add\n        /* \"#utility.yul\":14011:14058   */\n      mstore\n        /* \"#utility.yul\":14075:14206   */\n      tag_417\n        /* \"#utility.yul\":14201:14205   */\n      dup2\n        /* \"#utility.yul\":14075:14206   */\n      tag_270\n      jump\t// in\n    tag_417:\n        /* \"#utility.yul\":14067:14206   */\n      swap1\n      pop\n        /* \"#utility.yul\":13794:14213   */\n      swap2\n      swap1\n      pop\n      jump\t// out\n        /* \"#utility.yul\":14219:14392   */\n    tag_271:\n        /* \"#utility.yul\":14359:14384   */\n      0x496e73756666696369656e7420636f6c6c61746572616c000000000000000000\n        /* \"#utility.yul\":14355:14356   */\n      0x00\n        /* \"#utility.yul\":14347:14353   */\n      dup3\n        /* \"#utility.yul\":14343:14357   */\n      add\n        /* \"#utility.yul\":14336:14385   */\n      mstore\n        /* \"#utility.yul\":14219:14392   */\n      pop\n      jump\t// out\n        /* \"#utility.yul\":14398:14764   */\n    tag_272:\n        /* \"#utility.yul\":14540:14543   */\n      0x00\n        /* \"#utility.yul\":14561:14628   */\n      tag_420\n        /* \"#utility.yul\":14625:14627   */\n      0x17\n        /* \"#utility.yul\":14620:14623   */\n      dup4\n        /* \"#utility.yul\":14561:14628   */\n      tag_257\n      jump\t// in\n    tag_420:\n        /* \"#utility.yul\":14554:14628   */\n      swap2\n      pop\n        /* \"#utility.yul\":14637:14730   */\n      tag_421\n        /* \"#utility.yul\":14726:14729   */\n      dup3\n        /* \"#utility.yul\":14637:14730   */\n      tag_271\n      jump\t// in\n    tag_421:\n        /* \"#utility.yul\":14755:14757   */\n      0x20\n        /* \"#utility.yul\":14750:14753   */\n      dup3\n        /* \"#utility.yul\":14746:14758   */\n      add\n        /* \"#utility.yul\":14739:14758   */\n      swap1\n      pop\n        /* \"#utility.yul\":14398:14764   */\n      swap2\n      swap1\n      pop\n      jump\t// out\n        /* \"#utility.yul\":14770:15189   */\n    tag_190:\n        /* \"#utility.yul\":14936:14940   */\n      0x00\n        /* \"#utility.yul\":14974:14976   */\n      0x20\n        /* \"#utility.yul\":14963:14972   */\n      dup3\n        /* \"#utility.yul\":14959:14977   */\n      add\n        /* \"#utility.yul\":14951:14977   */\n      swap1\n      pop\n        /* \"#utility.yul\":15023:15032   */\n      dup2\n        /* \"#utility.yul\":15017:15021   */\n      dup2\n        /* \"#utility.yul\":15013:15033   */\n      sub\n        /* \"#utility.yul\":15009:15010   */\n      0x00\n        /* \"#utility.yul\":14998:15007   */\n      dup4\n        /* \"#utility.yul\":14994:15011   */\n      add\n        /* \"#utility.yul\":14987:15034   */\n      mstore\n        /* \"#utility.yul\":15051:15182   */\n      tag_423\n        /* \"#utility.yul\":15177:15181   */\n      dup2\n        /* \"#utility.yul\":15051:15182   */\n      tag_272\n      jump\t// in\n    tag_423:\n        /* \"#utility.yul\":15043:15182   */\n      swap1\n      pop\n        /* \"#utility.yul\":14770:15189   */\n      swap2\n      swap1\n      pop\n      jump\t// out\n        /* \"#utility.yul\":15195:15338   */\n    tag_273:\n        /* \"#utility.yul\":15252:15257   */\n      0x00\n        /* \"#utility.yul\":15283:15289   */\n      dup2\n        /* \"#utility.yul\":15277:15290   */\n      mload\n        /* \"#utility.yul\":15268:15290   */\n      swap1\n      pop\n        /* \"#utility.yul\":15299:15332   */\n      tag_425\n        /* \"#utility.yul\":15326:15331   */\n      dup2\n        /* \"#utility.yul\":15299:15332   */\n      tag_246\n      jump\t// in\n    tag_425:\n        /* \"#utility.yul\":15195:15338   */\n      swap3\n      swap2\n      pop\n      pop\n      jump\t// out\n        /* \"#utility.yul\":15344:15695   */\n    tag_195:\n        /* \"#utility.yul\":15414:15420   */\n      0x00\n        /* \"#utility.yul\":15463:15465   */\n      0x20\n        /* \"#utility.yul\":15451:15460   */\n      dup3\n        /* \"#utility.yul\":15442:15449   */\n      dup5\n        /* \"#utility.yul\":15438:15461   */\n      sub\n        /* \"#utility.yul\":15434:15466   */\n      slt\n        /* \"#utility.yul\":15431:15550   */\n      iszero\n      tag_427\n      jumpi\n        /* \"#utility.yul\":15469:15548   */\n      tag_428\n      tag_239\n      jump\t// in\n    tag_428:\n        /* \"#utility.yul\":15431:15550   */\n    tag_427:\n        /* \"#utility.yul\":15589:15590   */\n      0x00\n        /* \"#utility.yul\":15614:15678   */\n      tag_429\n        /* \"#utility.yul\":15670:15677   */\n      dup5\n        /* \"#utility.yul\":15661:15667   */\n      dup3\n        /* \"#utility.yul\":15650:15659   */\n      dup6\n        /* \"#utility.yul\":15646:15668   */\n      add\n        /* \"#utility.yul\":15614:15678   */\n      tag_273\n      jump\t// in\n    tag_429:\n        /* \"#utility.yul\":15604:15678   */\n      swap2\n      pop\n        /* \"#utility.yul\":15560:15688   */\n      pop\n        /* \"#utility.yul\":15344:15695   */\n      swap3\n      swap2\n      pop\n      pop\n      jump\t// out\n        /* \"#utility.yul\":15701:15924   */\n    tag_274:\n        /* \"#utility.yul\":15841:15875   */\n      0x496e73756666696369656e74206c697175696469747920666f7220626f72726f\n        /* \"#utility.yul\":15837:15838   */\n      0x00\n        /* \"#utility.yul\":15829:15835   */\n      dup3\n        /* \"#utility.yul\":15825:15839   */\n      add\n        /* \"#utility.yul\":15818:15876   */\n      mstore\n        /* \"#utility.yul\":15910:15916   */\n      0x77696e6700000000000000000000000000000000000000000000000000000000\n        /* \"#utility.yul\":15905:15907   */\n      0x20\n        /* \"#utility.yul\":15897:15903   */\n      dup3\n        /* \"#utility.yul\":15893:15908   */\n      add\n        /* \"#utility.yul\":15886:15917   */\n      mstore\n        /* \"#utility.yul\":15701:15924   */\n      pop\n      jump\t// out\n        /* \"#utility.yul\":15930:16296   */\n    tag_275:\n        /* \"#utility.yul\":16072:16075   */\n      0x00\n        /* \"#utility.yul\":16093:16160   */\n      tag_432\n        /* \"#utility.yul\":16157:16159   */\n      0x24\n        /* \"#utility.yul\":16152:16155   */\n      dup4\n        /* \"#utility.yul\":16093:16160   */\n      tag_257\n      jump\t// in\n    tag_432:\n        /* \"#utility.yul\":16086:16160   */\n      swap2\n      pop\n        /* \"#utility.yul\":16169:16262   */\n      tag_433\n        /* \"#utility.yul\":16258:16261   */\n      dup3\n        /* \"#utility.yul\":16169:16262   */\n      tag_274\n      jump\t// in\n    tag_433:\n        /* \"#utility.yul\":16287:16289   */\n      0x40\n        /* \"#utility.yul\":16282:16285   */\n      dup3\n        /* \"#utility.yul\":16278:16290   */\n      add\n        /* \"#utility.yul\":16271:16290   */\n      swap1\n      pop\n        /* \"#utility.yul\":15930:16296   */\n      swap2\n      swap1\n      pop\n      jump\t// out\n        /* \"#utility.yul\":16302:16721   */\n    tag_198:\n        /* \"#utility.yul\":16468:16472   */\n      0x00\n        /* \"#utility.yul\":16506:16508   */\n      0x20\n        /* \"#utility.yul\":16495:16504   */\n      dup3\n        /* \"#utility.yul\":16491:16509   */\n      add\n        /* \"#utility.yul\":16483:16509   */\n      swap1\n      pop\n        /* \"#utility.yul\":16555:16564   */\n      dup2\n        /* \"#utility.yul\":16549:16553   */\n      dup2\n        /* \"#utility.yul\":16545:16565   */\n      sub\n        /* \"#utility.yul\":16541:16542   */\n      0x00\n        /* \"#utility.yul\":16530:16539   */\n      dup4\n        /* \"#utility.yul\":16526:16543   */\n      add\n        /* \"#utility.yul\":16519:16566   */\n      mstore\n        /* \"#utility.yul\":16583:16714   */\n      tag_435\n        /* \"#utility.yul\":16709:16713   */\n      dup2\n        /* \"#utility.yul\":16583:16714   */\n      tag_275\n      jump\t// in\n    tag_435:\n        /* \"#utility.yul\":16575:16714   */\n      swap1\n      pop\n        /* \"#utility.yul\":16302:16721   */\n      swap2\n      swap1\n      pop\n      jump\t// out\n        /* \"#utility.yul\":16727:17137   */\n    tag_210:\n        /* \"#utility.yul\":16767:16774   */\n      0x00\n        /* \"#utility.yul\":16790:16810   */\n      tag_437\n        /* \"#utility.yul\":16808:16809   */\n      dup3\n        /* \"#utility.yul\":16790:16810   */\n      tag_245\n      jump\t// in\n    tag_437:\n        /* \"#utility.yul\":16785:16810   */\n      swap2\n      pop\n        /* \"#utility.yul\":16824:16844   */\n      tag_438\n        /* \"#utility.yul\":16842:16843   */\n      dup4\n        /* \"#utility.yul\":16824:16844   */\n      tag_245\n      jump\t// in\n    tag_438:\n        /* \"#utility.yul\":16819:16844   */\n      swap3\n      pop\n        /* \"#utility.yul\":16879:16880   */\n      dup3\n        /* \"#utility.yul\":16876:16877   */\n      dup3\n        /* \"#utility.yul\":16872:16881   */\n      mul\n        /* \"#utility.yul\":16901:16931   */\n      tag_439\n        /* \"#utility.yul\":16919:16930   */\n      dup2\n        /* \"#utility.yul\":16901:16931   */\n      tag_245\n      jump\t// in\n    tag_439:\n        /* \"#utility.yul\":16890:16931   */\n      swap2\n      pop\n        /* \"#utility.yul\":17080:17081   */\n      dup3\n        /* \"#utility.yul\":17071:17078   */\n      dup3\n        /* \"#utility.yul\":17067:17082   */\n      div\n        /* \"#utility.yul\":17064:17065   */\n      dup5\n        /* \"#utility.yul\":17061:17083   */\n      eq\n        /* \"#utility.yul\":17041:17042   */\n      dup4\n        /* \"#utility.yul\":17034:17043   */\n      iszero\n        /* \"#utility.yul\":17014:17097   */\n      or\n        /* \"#utility.yul\":16991:17130   */\n      tag_440\n      jumpi\n        /* \"#utility.yul\":17110:17128   */\n      tag_441\n      tag_260\n      jump\t// in\n    tag_441:\n        /* \"#utility.yul\":16991:17130   */\n    tag_440:\n        /* \"#utility.yul\":16775:17137   */\n      pop\n        /* \"#utility.yul\":16727:17137   */\n      swap3\n      swap2\n      pop\n      pop\n      jump\t// out\n        /* \"#utility.yul\":17143:17323   */\n    tag_276:\n        /* \"#utility.yul\":17191:17268   */\n      0x4e487b7100000000000000000000000000000000000000000000000000000000\n        /* \"#utility.yul\":17188:17189   */\n      0x00\n        /* \"#utility.yul\":17181:17269   */\n      mstore\n        /* \"#utility.yul\":17288:17292   */\n      0x12\n        /* \"#utility.yul\":17285:17286   */\n      0x04\n        /* \"#utility.yul\":17278:17293   */\n      mstore\n        /* \"#utility.yul\":17312:17316   */\n      0x24\n        /* \"#utility.yul\":17309:17310   */\n      0x00\n        /* \"#utility.yul\":17302:17317   */\n      revert\n        /* \"#utility.yul\":17329:17514   */\n    tag_220:\n        /* \"#utility.yul\":17369:17370   */\n      0x00\n        /* \"#utility.yul\":17386:17406   */\n      tag_444\n        /* \"#utility.yul\":17404:17405   */\n      dup3\n        /* \"#utility.yul\":17386:17406   */\n      tag_245\n      jump\t// in\n    tag_444:\n        /* \"#utility.yul\":17381:17406   */\n      swap2\n      pop\n        /* \"#utility.yul\":17420:17440   */\n      tag_445\n        /* \"#utility.yul\":17438:17439   */\n      dup4\n        /* \"#utility.yul\":17420:17440   */\n      tag_245\n      jump\t// in\n    tag_445:\n        /* \"#utility.yul\":17415:17440   */\n      swap3\n      pop\n        /* \"#utility.yul\":17459:17460   */\n      dup3\n        /* \"#utility.yul\":17449:17484   */\n      tag_446\n      jumpi\n        /* \"#utility.yul\":17464:17482   */\n      tag_447\n      tag_276\n      jump\t// in\n    tag_447:\n        /* \"#utility.yul\":17449:17484   */\n    tag_446:\n        /* \"#utility.yul\":17506:17507   */\n      dup3\n        /* \"#utility.yul\":17503:17504   */\n      dup3\n        /* \"#utility.yul\":17499:17508   */\n      div\n        /* \"#utility.yul\":17494:17508   */\n      swap1\n      pop\n        /* \"#utility.yul\":17329:17514   */\n      swap3\n      swap2\n      pop\n      pop\n      jump\t// out\n        /* \"#utility.yul\":17520:17701   */\n    tag_277:\n        /* \"#utility.yul\":17660:17693   */\n      0x5265656e7472616e637947756172643a207265656e7472616e742063616c6c00\n        /* \"#utility.yul\":17656:17657   */\n      0x00\n        /* \"#utility.yul\":17648:17654   */\n      dup3\n        /* \"#utility.yul\":17644:17658   */\n      add\n        /* \"#utility.yul\":17637:17694   */\n      mstore\n        /* \"#utility.yul\":17520:17701   */\n      pop\n      jump\t// out\n        /* \"#utility.yul\":17707:18073   */\n    tag_278:\n        /* \"#utility.yul\":17849:17852   */\n      0x00\n        /* \"#utility.yul\":17870:17937   */\n      tag_450\n        /* \"#utility.yul\":17934:17936   */\n      0x1f\n        /* \"#utility.yul\":17929:17932   */\n      dup4\n        /* \"#utility.yul\":17870:17937   */\n      tag_257\n      jump\t// in\n    tag_450:\n        /* \"#utility.yul\":17863:17937   */\n      swap2\n      pop\n        /* \"#utility.yul\":17946:18039   */\n      tag_451\n        /* \"#utility.yul\":18035:18038   */\n      dup3\n        /* \"#utility.yul\":17946:18039   */\n      tag_277\n      jump\t// in\n    tag_451:\n        /* \"#utility.yul\":18064:18066   */\n      0x20\n        /* \"#utility.yul\":18059:18062   */\n      dup3\n        /* \"#utility.yul\":18055:18067   */\n      add\n        /* \"#utility.yul\":18048:18067   */\n      swap1\n      pop\n        /* \"#utility.yul\":17707:18073   */\n      swap2\n      swap1\n      pop\n      jump\t// out\n        /* \"#utility.yul\":18079:18498   */\n    tag_235:\n        /* \"#utility.yul\":18245:18249   */\n      0x00\n        /* \"#utility.yul\":18283:18285   */\n      0x20\n        /* \"#utility.yul\":18272:18281   */\n      dup3\n        /* \"#utility.yul\":18268:18286   */\n      add\n        /* \"#utility.yul\":18260:18286   */\n      swap1\n      pop\n        /* \"#utility.yul\":18332:18341   */\n      dup2\n        /* \"#utility.yul\":18326:18330   */\n      dup2\n        /* \"#utility.yul\":18322:18342   */\n      sub\n        /* \"#utility.yul\":18318:18319   */\n      0x00\n        /* \"#utility.yul\":18307:18316   */\n      dup4\n        /* \"#utility.yul\":18303:18320   */\n      add\n        /* \"#utility.yul\":18296:18343   */\n      mstore\n        /* \"#utility.yul\":18360:18491   */\n      tag_453\n        /* \"#utility.yul\":18486:18490   */\n      dup2\n        /* \"#utility.yul\":18360:18491   */\n      tag_278\n      jump\t// in\n    tag_453:\n        /* \"#utility.yul\":18352:18491   */\n      swap1\n      pop\n        /* \"#utility.yul\":18079:18498   */\n      swap2\n      swap1\n      pop\n      jump\t// out\n\n    auxdata: 0xa26469706673582212206665f7bae2c91499d0f86efea03fa5066f55e24c4fb7c648bb7997d13738e6e864736f6c63430008180033\n}\n",
				"bytecode": {
					"linkReferences": {},
					"object": "6080604052600a60015534801562000015575f80fd5b5060405162001e2238038062001e2283398181016040528101906200003b919062000101565b60015f819055508060095f6101000a81548173ffffffffffffffffffffffffffffffffffffffff021916908373ffffffffffffffffffffffffffffffffffffffff1602179055505062000131565b5f80fd5b5f73ffffffffffffffffffffffffffffffffffffffff82169050919050565b5f620000b8826200008d565b9050919050565b5f620000cb82620000ac565b9050919050565b620000dd81620000bf565b8114620000e8575f80fd5b50565b5f81519050620000fb81620000d2565b92915050565b5f6020828403121562000119576200011862000089565b5b5f6200012884828501620000eb565b91505092915050565b611ce3806200013f5f395ff3fe60806040526004361061011e575f3560e01c8063664fa64e1161009f578063cc218ece11610063578063cc218ece1461043a578063d526fc2e14610476578063e2fdcc17146104b2578063e80894b6146104dc578063f970c3b7146105185761011e565b8063664fa64e146103205780636805d6ad1461035c5780639ee7f70214610398578063afd92762146103d4578063c6255626146103fe5761011e565b806334931b4b116100e657806334931b4b1461021c5780633b591d6a14610258578063436d80391461029457806347e7ef24146102d05780634b8a3529146102f85761011e565b806322867d7814610122578063234a14f91461013e57806323d0fda11461017a578063272d1b8e146101b65780632ae8bdfe146101f4575b5f80fd5b61013c60048036038101906101379190611376565b610540565b005b348015610149575f80fd5b50610164600480360381019061015f91906113b4565b61085a565b6040516101719190611401565b60405180910390f35b348015610185575f80fd5b506101a0600480360381019061019b919061141a565b61087a565b6040516101ad9190611401565b60405180910390f35b3480156101c1575f80fd5b506101dc60048036038101906101d791906113b4565b61088f565b6040516101eb93929190611445565b60405180910390f35b3480156101ff575f80fd5b5061021a6004803603810190610215919061147a565b6108c0565b005b348015610227575f80fd5b50610242600480360381019061023d91906114ca565b6108c5565b60405161024f9190611401565b60405180910390f35b348015610263575f80fd5b5061027e6004803603810190610279919061147a565b6108cb565b60405161028b919061150f565b60405180910390f35b34801561029f575f80fd5b506102ba60048036038101906102b591906113b4565b6109b6565b6040516102c79190611401565b60405180910390f35b3480156102db575f80fd5b506102f660048036038101906102f19190611376565b6109d6565b005b348015610303575f80fd5b5061031e60048036038101906103199190611376565b610b8d565b005b34801561032b575f80fd5b50610346600480360381019061034191906113b4565b610f60565b6040516103539190611401565b60405180910390f35b348015610367575f80fd5b50610382600480360381019061037d91906113b4565b611044565b60405161038f9190611401565b60405180910390f35b3480156103a3575f80fd5b506103be60048036038101906103b99190611528565b6110c6565b6040516103cb9190611401565b60405180910390f35b3480156103df575f80fd5b506103e86110ce565b6040516103f59190611401565b60405180910390f35b348015610409575f80fd5b50610424600480360381019061041f91906114ca565b6110d4565b6040516104319190611587565b60405180910390f35b348015610445575f80fd5b50610460600480360381019061045b91906113b4565b61110f565b60405161046d9190611401565b60405180910390f35b348015610481575f80fd5b5061049c600480360381019061049791906115a0565b61112f565b6040516104a99190611401565b60405180910390f35b3480156104bd575f80fd5b506104c6611248565b6040516104d39190611639565b60405180910390f35b3480156104e7575f80fd5b5061050260048036038101906104fd919061141a565b61126d565b60405161050f9190611401565b60405180910390f35b348015610523575f80fd5b5061053e6004803603810190610539919061147a565b611282565b005b610548611287565b5f811161058a576040517f08c379a0000000000000000000000000000000000000000000000000000000008152600401610581906116d2565b60405180910390fd5b8060045f8473ffffffffffffffffffffffffffffffffffffffff1673ffffffffffffffffffffffffffffffffffffffff1681526020019081526020015f205f3373ffffffffffffffffffffffffffffffffffffffff1673ffffffffffffffffffffffffffffffffffffffff1681526020019081526020015f205f828254610611919061171d565b925050819055508060065f8473ffffffffffffffffffffffffffffffffffffffff1673ffffffffffffffffffffffffffffffffffffffff1681526020019081526020015f205f828254610664919061171d565b925050819055508060075f3373ffffffffffffffffffffffffffffffffffffffff1673ffffffffffffffffffffffffffffffffffffffff1681526020019081526020015f205f8282546106b7919061171d565b925050819055505f6106c98333610f60565b905080826106d79190611750565b60045f8573ffffffffffffffffffffffffffffffffffffffff1673ffffffffffffffffffffffffffffffffffffffff1681526020019081526020015f205f3373ffffffffffffffffffffffffffffffffffffffff1673ffffffffffffffffffffffffffffffffffffffff1681526020019081526020015f20541015610791576040517f08c379a0000000000000000000000000000000000000000000000000000000008152600401610788906117f3565b60405180910390fd5b34818361079e9190611750565b10156107df576040517f08c379a00000000000000000000000000000000000000000000000000000000081526004016107d690611881565b60405180910390fd5b3481836107ec9190611750565b111561084d573373ffffffffffffffffffffffffffffffffffffffff166108fc3483856108199190611750565b610823919061171d565b90811502906040515f60405180830381858888f1935050505015801561084b573d5f803e3d5ffd5b505b506108566112d4565b5050565b6004602052815f5260405f20602052805f5260405f205f91509150505481565b6007602052805f5260405f205f915090505481565b6008602052815f5260405f20602052805f5260405f205f9150915050805f0154908060010154908060020154905083565b505050565b5f919050565b5f805f90505f5b6003805490508110156109ad5760025f600383815481106108f6576108f561189f565b5b905f5260205f20015f9054906101000a900473ffffffffffffffffffffffffffffffffffffffff1673ffffffffffffffffffffffffffffffffffffffff1673ffffffffffffffffffffffffffffffffffffffff1681526020019081526020015f205f8773ffffffffffffffffffffffffffffffffffffffff1673ffffffffffffffffffffffffffffffffffffffff1681526020019081526020015f20548261099e9190611750565b915080806001019150506108d2565b50509392505050565b6002602052815f5260405f20602052805f5260405f205f91509150505481565b5f8111610a18576040517f08c379a0000000000000000000000000000000000000000000000000000000008152600401610a0f9061193c565b60405180910390fd5b8173ffffffffffffffffffffffffffffffffffffffff166323b872dd3330846040518463ffffffff1660e01b8152600401610a559392919061195a565b6020604051808303815f875af1158015610a71573d5f803e3d5ffd5b505050506040513d601f19601f82011682018060405250810190610a9591906119b9565b508060025f8473ffffffffffffffffffffffffffffffffffffffff1673ffffffffffffffffffffffffffffffffffffffff1681526020019081526020015f205f3373ffffffffffffffffffffffffffffffffffffffff1673ffffffffffffffffffffffffffffffffffffffff1681526020019081526020015f205f828254610b1d9190611750565b925050819055503373ffffffffffffffffffffffffffffffffffffffff168273ffffffffffffffffffffffffffffffffffffffff167f1de3ece35391f6bba650736f2d5d3f12e2cfc54538a340cc5d762d34ca449de783604051610b819190611401565b60405180910390a35050565b610b95611287565b5f8111610bd7576040517f08c379a0000000000000000000000000000000000000000000000000000000008152600401610bce90611a54565b60405180910390fd5b610be23383836108cb565b610c21576040517f08c379a0000000000000000000000000000000000000000000000000000000008152600401610c1890611abc565b60405180910390fd5b808273ffffffffffffffffffffffffffffffffffffffff166370a08231306040518263ffffffff1660e01b8152600401610c5b9190611587565b602060405180830381865afa158015610c76573d5f803e3d5ffd5b505050506040513d601f19601f82011682018060405250810190610c9a9190611aee565b1015610cdb576040517f08c379a0000000000000000000000000000000000000000000000000000000008152600401610cd290611b89565b60405180910390fd5b8060045f8473ffffffffffffffffffffffffffffffffffffffff1673ffffffffffffffffffffffffffffffffffffffff1681526020019081526020015f205f3373ffffffffffffffffffffffffffffffffffffffff1673ffffffffffffffffffffffffffffffffffffffff1681526020019081526020015f205f828254610d629190611750565b925050819055508060065f8473ffffffffffffffffffffffffffffffffffffffff1673ffffffffffffffffffffffffffffffffffffffff1681526020019081526020015f205f828254610db59190611750565b925050819055508060075f3373ffffffffffffffffffffffffffffffffffffffff1673ffffffffffffffffffffffffffffffffffffffff1681526020019081526020015f205f828254610e089190611750565b92505081905550610e228233610e1d846108c5565b611282565b5f4290505f81600154610e359190611750565b905060405180606001604052808481526020018281526020014281525060085f3373ffffffffffffffffffffffffffffffffffffffff1673ffffffffffffffffffffffffffffffffffffffff1681526020019081526020015f205f8673ffffffffffffffffffffffffffffffffffffffff1673ffffffffffffffffffffffffffffffffffffffff1681526020019081526020015f205f820151815f015560208201518160010155604082015181600201559050508373ffffffffffffffffffffffffffffffffffffffff163373ffffffffffffffffffffffffffffffffffffffff167fc1cba78646fef030830d099fc25cb498953709c9d47d883848f81fd207174c9f858442604051610f4a93929190611445565b60405180910390a35050610f5c6112d4565b5050565b5f8060085f8473ffffffffffffffffffffffffffffffffffffffff1673ffffffffffffffffffffffffffffffffffffffff1681526020019081526020015f205f8573ffffffffffffffffffffffffffffffffffffffff1673ffffffffffffffffffffffffffffffffffffffff1681526020019081526020015f206040518060600160405290815f82015481526020016001820154815260200160028201548152505090505f816040015142611015919061171d565b90505f818360200151845f015161102c9190611ba7565b6110369190611ba7565b905080935050505092915050565b5f60025f8373ffffffffffffffffffffffffffffffffffffffff1673ffffffffffffffffffffffffffffffffffffffff1681526020019081526020015f205f8473ffffffffffffffffffffffffffffffffffffffff1673ffffffffffffffffffffffffffffffffffffffff1681526020019081526020015f2054905092915050565b5f9392505050565b60015481565b600381815481106110e3575f80fd5b905f5260205f20015f915054906101000a900473ffffffffffffffffffffffffffffffffffffffff1681565b6005602052815f5260405f20602052805f5260405f205f91509150505481565b5f806111396112dd565b836111449190611c15565b8461114f9190611750565b90505f805b60038054905081101561122f5760025f600383815481106111785761117761189f565b5b905f5260205f20015f9054906101000a900473ffffffffffffffffffffffffffffffffffffffff1673ffffffffffffffffffffffffffffffffffffffff1673ffffffffffffffffffffffffffffffffffffffff1681526020019081526020015f205f3373ffffffffffffffffffffffffffffffffffffffff1673ffffffffffffffffffffffffffffffffffffffff1681526020019081526020015f2054826112209190611750565b91508080600101915050611154565b505f848661123d9190611750565b905050505092915050565b60095f9054906101000a900473ffffffffffffffffffffffffffffffffffffffff1681565b6006602052805f5260405f205f915090505481565b505050565b60025f54036112cb576040517f08c379a00000000000000000000000000000000000000000000000000000000081526004016112c290611c8f565b60405180910390fd5b60025f81905550565b60015f81905550565b5f6002905090565b5f80fd5b5f73ffffffffffffffffffffffffffffffffffffffff82169050919050565b5f611312826112e9565b9050919050565b61132281611308565b811461132c575f80fd5b50565b5f8135905061133d81611319565b92915050565b5f819050919050565b61135581611343565b811461135f575f80fd5b50565b5f813590506113708161134c565b92915050565b5f806040838503121561138c5761138b6112e5565b5b5f6113998582860161132f565b92505060206113aa85828601611362565b9150509250929050565b5f80604083850312156113ca576113c96112e5565b5b5f6113d78582860161132f565b92505060206113e88582860161132f565b9150509250929050565b6113fb81611343565b82525050565b5f6020820190506114145f8301846113f2565b92915050565b5f6020828403121561142f5761142e6112e5565b5b5f61143c8482850161132f565b91505092915050565b5f6060820190506114585f8301866113f2565b61146560208301856113f2565b61147260408301846113f2565b949350505050565b5f805f60608486031215611491576114906112e5565b5b5f61149e8682870161132f565b93505060206114af8682870161132f565b92505060406114c086828701611362565b9150509250925092565b5f602082840312156114df576114de6112e5565b5b5f6114ec84828501611362565b91505092915050565b5f8115159050919050565b611509816114f5565b82525050565b5f6020820190506115225f830184611500565b92915050565b5f805f6060848603121561153f5761153e6112e5565b5b5f61154c8682870161132f565b935050602061155d86828701611362565b925050604061156e86828701611362565b9150509250925092565b61158181611308565b82525050565b5f60208201905061159a5f830184611578565b92915050565b5f80604083850312156115b6576115b56112e5565b5b5f6115c385828601611362565b92505060206115d485828601611362565b9150509250929050565b5f819050919050565b5f6116016115fc6115f7846112e9565b6115de565b6112e9565b9050919050565b5f611612826115e7565b9050919050565b5f61162382611608565b9050919050565b61163381611619565b82525050565b5f60208201905061164c5f83018461162a565b92915050565b5f82825260208201905092915050565b7f52657061796d656e7420616d6f756e74206d75737420626520677265617465725f8201527f207468616e207a65726f00000000000000000000000000000000000000000000602082015250565b5f6116bc602a83611652565b91506116c782611662565b604082019050919050565b5f6020820190508181035f8301526116e9816116b0565b9050919050565b7f4e487b71000000000000000000000000000000000000000000000000000000005f52601160045260245ffd5b5f61172782611343565b915061173283611343565b925082820390508181111561174a576117496116f0565b5b92915050565b5f61175a82611343565b915061176583611343565b925082820190508082111561177d5761177c6116f0565b5b92915050565b7f52657061796d656e7420616d6f756e74206578636565647320626f72726f77205f8201527f616d6f756e740000000000000000000000000000000000000000000000000000602082015250565b5f6117dd602683611652565b91506117e882611783565b604082019050919050565b5f6020820190508181035f83015261180a816117d1565b9050919050565b7f496e73756666696369656e742066756e647320666f722072657061796d656e745f8201527f20616e64206163637275656420696e7465726573740000000000000000000000602082015250565b5f61186b603583611652565b915061187682611811565b604082019050919050565b5f6020820190508181035f8301526118988161185f565b9050919050565b7f4e487b71000000000000000000000000000000000000000000000000000000005f52603260045260245ffd5b7f4465706f73697420616d6f756e74206d757374206265206772656174657220745f8201527f68616e207a65726f000000000000000000000000000000000000000000000000602082015250565b5f611926602883611652565b9150611931826118cc565b604082019050919050565b5f6020820190508181035f8301526119538161191a565b9050919050565b5f60608201905061196d5f830186611578565b61197a6020830185611578565b61198760408301846113f2565b949350505050565b611998816114f5565b81146119a2575f80fd5b50565b5f815190506119b38161198f565b92915050565b5f602082840312156119ce576119cd6112e5565b5b5f6119db848285016119a5565b91505092915050565b7f426f72726f7720616d6f756e74206d75737420626520677265617465722074685f8201527f616e207a65726f00000000000000000000000000000000000000000000000000602082015250565b5f611a3e602783611652565b9150611a49826119e4565b604082019050919050565b5f6020820190508181035f830152611a6b81611a32565b9050919050565b7f496e73756666696369656e7420636f6c6c61746572616c0000000000000000005f82015250565b5f611aa6601783611652565b9150611ab182611a72565b602082019050919050565b5f6020820190508181035f830152611ad381611a9a565b9050919050565b5f81519050611ae88161134c565b92915050565b5f60208284031215611b0357611b026112e5565b5b5f611b1084828501611ada565b91505092915050565b7f496e73756666696369656e74206c697175696469747920666f7220626f72726f5f8201527f77696e6700000000000000000000000000000000000000000000000000000000602082015250565b5f611b73602483611652565b9150611b7e82611b19565b604082019050919050565b5f6020820190508181035f830152611ba081611b67565b9050919050565b5f611bb182611343565b9150611bbc83611343565b9250828202611bca81611343565b91508282048414831517611be157611be06116f0565b5b5092915050565b7f4e487b71000000000000000000000000000000000000000000000000000000005f52601260045260245ffd5b5f611c1f82611343565b9150611c2a83611343565b925082611c3a57611c39611be8565b5b828204905092915050565b7f5265656e7472616e637947756172643a207265656e7472616e742063616c6c005f82015250565b5f611c79601f83611652565b9150611c8482611c45565b602082019050919050565b5f6020820190508181035f830152611ca681611c6d565b905091905056fea26469706673582212206665f7bae2c91499d0f86efea03fa5066f55e24c4fb7c648bb7997d13738e6e864736f6c63430008180033",
					"opcodes": "PUSH1 0x80 PUSH1 0x40 MSTORE PUSH1 0xA PUSH1 0x1 SSTORE CALLVALUE DUP1 ISZERO PUSH3 0x15 JUMPI PUSH0 DUP1 REVERT JUMPDEST POP PUSH1 0x40 MLOAD PUSH3 0x1E22 CODESIZE SUB DUP1 PUSH3 0x1E22 DUP4 CODECOPY DUP2 DUP2 ADD PUSH1 0x40 MSTORE DUP2 ADD SWAP1 PUSH3 0x3B SWAP2 SWAP1 PUSH3 0x101 JUMP JUMPDEST PUSH1 0x1 PUSH0 DUP2 SWAP1 SSTORE POP DUP1 PUSH1 0x9 PUSH0 PUSH2 0x100 EXP DUP2 SLOAD DUP2 PUSH20 0xFFFFFFFFFFFFFFFFFFFFFFFFFFFFFFFFFFFFFFFF MUL NOT AND SWAP1 DUP4 PUSH20 0xFFFFFFFFFFFFFFFFFFFFFFFFFFFFFFFFFFFFFFFF AND MUL OR SWAP1 SSTORE POP POP PUSH3 0x131 JUMP JUMPDEST PUSH0 DUP1 REVERT JUMPDEST PUSH0 PUSH20 0xFFFFFFFFFFFFFFFFFFFFFFFFFFFFFFFFFFFFFFFF DUP3 AND SWAP1 POP SWAP2 SWAP1 POP JUMP JUMPDEST PUSH0 PUSH3 0xB8 DUP3 PUSH3 0x8D JUMP JUMPDEST SWAP1 POP SWAP2 SWAP1 POP JUMP JUMPDEST PUSH0 PUSH3 0xCB DUP3 PUSH3 0xAC JUMP JUMPDEST SWAP1 POP SWAP2 SWAP1 POP JUMP JUMPDEST PUSH3 0xDD DUP2 PUSH3 0xBF JUMP JUMPDEST DUP2 EQ PUSH3 0xE8 JUMPI PUSH0 DUP1 REVERT JUMPDEST POP JUMP JUMPDEST PUSH0 DUP2 MLOAD SWAP1 POP PUSH3 0xFB DUP2 PUSH3 0xD2 JUMP JUMPDEST SWAP3 SWAP2 POP POP JUMP JUMPDEST PUSH0 PUSH1 0x20 DUP3 DUP5 SUB SLT ISZERO PUSH3 0x119 JUMPI PUSH3 0x118 PUSH3 0x89 JUMP JUMPDEST JUMPDEST PUSH0 PUSH3 0x128 DUP5 DUP3 DUP6 ADD PUSH3 0xEB JUMP JUMPDEST SWAP2 POP POP SWAP3 SWAP2 POP POP JUMP JUMPDEST PUSH2 0x1CE3 DUP1 PUSH3 0x13F PUSH0 CODECOPY PUSH0 RETURN INVALID PUSH1 0x80 PUSH1 0x40 MSTORE PUSH1 0x4 CALLDATASIZE LT PUSH2 0x11E JUMPI PUSH0 CALLDATALOAD PUSH1 0xE0 SHR DUP1 PUSH4 0x664FA64E GT PUSH2 0x9F JUMPI DUP1 PUSH4 0xCC218ECE GT PUSH2 0x63 JUMPI DUP1 PUSH4 0xCC218ECE EQ PUSH2 0x43A JUMPI DUP1 PUSH4 0xD526FC2E EQ PUSH2 0x476 JUMPI DUP1 PUSH4 0xE2FDCC17 EQ PUSH2 0x4B2 JUMPI DUP1 PUSH4 0xE80894B6 EQ PUSH2 0x4DC JUMPI DUP1 PUSH4 0xF970C3B7 EQ PUSH2 0x518 JUMPI PUSH2 0x11E JUMP JUMPDEST DUP1 PUSH4 0x664FA64E EQ PUSH2 0x320 JUMPI DUP1 PUSH4 0x6805D6AD EQ PUSH2 0x35C JUMPI DUP1 PUSH4 0x9EE7F702 EQ PUSH2 0x398 JUMPI DUP1 PUSH4 0xAFD92762 EQ PUSH2 0x3D4 JUMPI DUP1 PUSH4 0xC6255626 EQ PUSH2 0x3FE JUMPI PUSH2 0x11E JUMP JUMPDEST DUP1 PUSH4 0x34931B4B GT PUSH2 0xE6 JUMPI DUP1 PUSH4 0x34931B4B EQ PUSH2 0x21C JUMPI DUP1 PUSH4 0x3B591D6A EQ PUSH2 0x258 JUMPI DUP1 PUSH4 0x436D8039 EQ PUSH2 0x294 JUMPI DUP1 PUSH4 0x47E7EF24 EQ PUSH2 0x2D0 JUMPI DUP1 PUSH4 0x4B8A3529 EQ PUSH2 0x2F8 JUMPI PUSH2 0x11E JUMP JUMPDEST DUP1 PUSH4 0x22867D78 EQ PUSH2 0x122 JUMPI DUP1 PUSH4 0x234A14F9 EQ PUSH2 0x13E JUMPI DUP1 PUSH4 0x23D0FDA1 EQ PUSH2 0x17A JUMPI DUP1 PUSH4 0x272D1B8E EQ PUSH2 0x1B6 JUMPI DUP1 PUSH4 0x2AE8BDFE EQ PUSH2 0x1F4 JUMPI JUMPDEST PUSH0 DUP1 REVERT JUMPDEST PUSH2 0x13C PUSH1 0x4 DUP1 CALLDATASIZE SUB DUP2 ADD SWAP1 PUSH2 0x137 SWAP2 SWAP1 PUSH2 0x1376 JUMP JUMPDEST PUSH2 0x540 JUMP JUMPDEST STOP JUMPDEST CALLVALUE DUP1 ISZERO PUSH2 0x149 JUMPI PUSH0 DUP1 REVERT JUMPDEST POP PUSH2 0x164 PUSH1 0x4 DUP1 CALLDATASIZE SUB DUP2 ADD SWAP1 PUSH2 0x15F SWAP2 SWAP1 PUSH2 0x13B4 JUMP JUMPDEST PUSH2 0x85A JUMP JUMPDEST PUSH1 0x40 MLOAD PUSH2 0x171 SWAP2 SWAP1 PUSH2 0x1401 JUMP JUMPDEST PUSH1 0x40 MLOAD DUP1 SWAP2 SUB SWAP1 RETURN JUMPDEST CALLVALUE DUP1 ISZERO PUSH2 0x185 JUMPI PUSH0 DUP1 REVERT JUMPDEST POP PUSH2 0x1A0 PUSH1 0x4 DUP1 CALLDATASIZE SUB DUP2 ADD SWAP1 PUSH2 0x19B SWAP2 SWAP1 PUSH2 0x141A JUMP JUMPDEST PUSH2 0x87A JUMP JUMPDEST PUSH1 0x40 MLOAD PUSH2 0x1AD SWAP2 SWAP1 PUSH2 0x1401 JUMP JUMPDEST PUSH1 0x40 MLOAD DUP1 SWAP2 SUB SWAP1 RETURN JUMPDEST CALLVALUE DUP1 ISZERO PUSH2 0x1C1 JUMPI PUSH0 DUP1 REVERT JUMPDEST POP PUSH2 0x1DC PUSH1 0x4 DUP1 CALLDATASIZE SUB DUP2 ADD SWAP1 PUSH2 0x1D7 SWAP2 SWAP1 PUSH2 0x13B4 JUMP JUMPDEST PUSH2 0x88F JUMP JUMPDEST PUSH1 0x40 MLOAD PUSH2 0x1EB SWAP4 SWAP3 SWAP2 SWAP1 PUSH2 0x1445 JUMP JUMPDEST PUSH1 0x40 MLOAD DUP1 SWAP2 SUB SWAP1 RETURN JUMPDEST CALLVALUE DUP1 ISZERO PUSH2 0x1FF JUMPI PUSH0 DUP1 REVERT JUMPDEST POP PUSH2 0x21A PUSH1 0x4 DUP1 CALLDATASIZE SUB DUP2 ADD SWAP1 PUSH2 0x215 SWAP2 SWAP1 PUSH2 0x147A JUMP JUMPDEST PUSH2 0x8C0 JUMP JUMPDEST STOP JUMPDEST CALLVALUE DUP1 ISZERO PUSH2 0x227 JUMPI PUSH0 DUP1 REVERT JUMPDEST POP PUSH2 0x242 PUSH1 0x4 DUP1 CALLDATASIZE SUB DUP2 ADD SWAP1 PUSH2 0x23D SWAP2 SWAP1 PUSH2 0x14CA JUMP JUMPDEST PUSH2 0x8C5 JUMP JUMPDEST PUSH1 0x40 MLOAD PUSH2 0x24F SWAP2 SWAP1 PUSH2 0x1401 JUMP JUMPDEST PUSH1 0x40 MLOAD DUP1 SWAP2 SUB SWAP1 RETURN JUMPDEST CALLVALUE DUP1 ISZERO PUSH2 0x263 JUMPI PUSH0 DUP1 REVERT JUMPDEST POP PUSH2 0x27E PUSH1 0x4 DUP1 CALLDATASIZE SUB DUP2 ADD SWAP1 PUSH2 0x279 SWAP2 SWAP1 PUSH2 0x147A JUMP JUMPDEST PUSH2 0x8CB JUMP JUMPDEST PUSH1 0x40 MLOAD PUSH2 0x28B SWAP2 SWAP1 PUSH2 0x150F JUMP JUMPDEST PUSH1 0x40 MLOAD DUP1 SWAP2 SUB SWAP1 RETURN JUMPDEST CALLVALUE DUP1 ISZERO PUSH2 0x29F JUMPI PUSH0 DUP1 REVERT JUMPDEST POP PUSH2 0x2BA PUSH1 0x4 DUP1 CALLDATASIZE SUB DUP2 ADD SWAP1 PUSH2 0x2B5 SWAP2 SWAP1 PUSH2 0x13B4 JUMP JUMPDEST PUSH2 0x9B6 JUMP JUMPDEST PUSH1 0x40 MLOAD PUSH2 0x2C7 SWAP2 SWAP1 PUSH2 0x1401 JUMP JUMPDEST PUSH1 0x40 MLOAD DUP1 SWAP2 SUB SWAP1 RETURN JUMPDEST CALLVALUE DUP1 ISZERO PUSH2 0x2DB JUMPI PUSH0 DUP1 REVERT JUMPDEST POP PUSH2 0x2F6 PUSH1 0x4 DUP1 CALLDATASIZE SUB DUP2 ADD SWAP1 PUSH2 0x2F1 SWAP2 SWAP1 PUSH2 0x1376 JUMP JUMPDEST PUSH2 0x9D6 JUMP JUMPDEST STOP JUMPDEST CALLVALUE DUP1 ISZERO PUSH2 0x303 JUMPI PUSH0 DUP1 REVERT JUMPDEST POP PUSH2 0x31E PUSH1 0x4 DUP1 CALLDATASIZE SUB DUP2 ADD SWAP1 PUSH2 0x319 SWAP2 SWAP1 PUSH2 0x1376 JUMP JUMPDEST PUSH2 0xB8D JUMP JUMPDEST STOP JUMPDEST CALLVALUE DUP1 ISZERO PUSH2 0x32B JUMPI PUSH0 DUP1 REVERT JUMPDEST POP PUSH2 0x346 PUSH1 0x4 DUP1 CALLDATASIZE SUB DUP2 ADD SWAP1 PUSH2 0x341 SWAP2 SWAP1 PUSH2 0x13B4 JUMP JUMPDEST PUSH2 0xF60 JUMP JUMPDEST PUSH1 0x40 MLOAD PUSH2 0x353 SWAP2 SWAP1 PUSH2 0x1401 JUMP JUMPDEST PUSH1 0x40 MLOAD DUP1 SWAP2 SUB SWAP1 RETURN JUMPDEST CALLVALUE DUP1 ISZERO PUSH2 0x367 JUMPI PUSH0 DUP1 REVERT JUMPDEST POP PUSH2 0x382 PUSH1 0x4 DUP1 CALLDATASIZE SUB DUP2 ADD SWAP1 PUSH2 0x37D SWAP2 SWAP1 PUSH2 0x13B4 JUMP JUMPDEST PUSH2 0x1044 JUMP JUMPDEST PUSH1 0x40 MLOAD PUSH2 0x38F SWAP2 SWAP1 PUSH2 0x1401 JUMP JUMPDEST PUSH1 0x40 MLOAD DUP1 SWAP2 SUB SWAP1 RETURN JUMPDEST CALLVALUE DUP1 ISZERO PUSH2 0x3A3 JUMPI PUSH0 DUP1 REVERT JUMPDEST POP PUSH2 0x3BE PUSH1 0x4 DUP1 CALLDATASIZE SUB DUP2 ADD SWAP1 PUSH2 0x3B9 SWAP2 SWAP1 PUSH2 0x1528 JUMP JUMPDEST PUSH2 0x10C6 JUMP JUMPDEST PUSH1 0x40 MLOAD PUSH2 0x3CB SWAP2 SWAP1 PUSH2 0x1401 JUMP JUMPDEST PUSH1 0x40 MLOAD DUP1 SWAP2 SUB SWAP1 RETURN JUMPDEST CALLVALUE DUP1 ISZERO PUSH2 0x3DF JUMPI PUSH0 DUP1 REVERT JUMPDEST POP PUSH2 0x3E8 PUSH2 0x10CE JUMP JUMPDEST PUSH1 0x40 MLOAD PUSH2 0x3F5 SWAP2 SWAP1 PUSH2 0x1401 JUMP JUMPDEST PUSH1 0x40 MLOAD DUP1 SWAP2 SUB SWAP1 RETURN JUMPDEST CALLVALUE DUP1 ISZERO PUSH2 0x409 JUMPI PUSH0 DUP1 REVERT JUMPDEST POP PUSH2 0x424 PUSH1 0x4 DUP1 CALLDATASIZE SUB DUP2 ADD SWAP1 PUSH2 0x41F SWAP2 SWAP1 PUSH2 0x14CA JUMP JUMPDEST PUSH2 0x10D4 JUMP JUMPDEST PUSH1 0x40 MLOAD PUSH2 0x431 SWAP2 SWAP1 PUSH2 0x1587 JUMP JUMPDEST PUSH1 0x40 MLOAD DUP1 SWAP2 SUB SWAP1 RETURN JUMPDEST CALLVALUE DUP1 ISZERO PUSH2 0x445 JUMPI PUSH0 DUP1 REVERT JUMPDEST POP PUSH2 0x460 PUSH1 0x4 DUP1 CALLDATASIZE SUB DUP2 ADD SWAP1 PUSH2 0x45B SWAP2 SWAP1 PUSH2 0x13B4 JUMP JUMPDEST PUSH2 0x110F JUMP JUMPDEST PUSH1 0x40 MLOAD PUSH2 0x46D SWAP2 SWAP1 PUSH2 0x1401 JUMP JUMPDEST PUSH1 0x40 MLOAD DUP1 SWAP2 SUB SWAP1 RETURN JUMPDEST CALLVALUE DUP1 ISZERO PUSH2 0x481 JUMPI PUSH0 DUP1 REVERT JUMPDEST POP PUSH2 0x49C PUSH1 0x4 DUP1 CALLDATASIZE SUB DUP2 ADD SWAP1 PUSH2 0x497 SWAP2 SWAP1 PUSH2 0x15A0 JUMP JUMPDEST PUSH2 0x112F JUMP JUMPDEST PUSH1 0x40 MLOAD PUSH2 0x4A9 SWAP2 SWAP1 PUSH2 0x1401 JUMP JUMPDEST PUSH1 0x40 MLOAD DUP1 SWAP2 SUB SWAP1 RETURN JUMPDEST CALLVALUE DUP1 ISZERO PUSH2 0x4BD JUMPI PUSH0 DUP1 REVERT JUMPDEST POP PUSH2 0x4C6 PUSH2 0x1248 JUMP JUMPDEST PUSH1 0x40 MLOAD PUSH2 0x4D3 SWAP2 SWAP1 PUSH2 0x1639 JUMP JUMPDEST PUSH1 0x40 MLOAD DUP1 SWAP2 SUB SWAP1 RETURN JUMPDEST CALLVALUE DUP1 ISZERO PUSH2 0x4E7 JUMPI PUSH0 DUP1 REVERT JUMPDEST POP PUSH2 0x502 PUSH1 0x4 DUP1 CALLDATASIZE SUB DUP2 ADD SWAP1 PUSH2 0x4FD SWAP2 SWAP1 PUSH2 0x141A JUMP JUMPDEST PUSH2 0x126D JUMP JUMPDEST PUSH1 0x40 MLOAD PUSH2 0x50F SWAP2 SWAP1 PUSH2 0x1401 JUMP JUMPDEST PUSH1 0x40 MLOAD DUP1 SWAP2 SUB SWAP1 RETURN JUMPDEST CALLVALUE DUP1 ISZERO PUSH2 0x523 JUMPI PUSH0 DUP1 REVERT JUMPDEST POP PUSH2 0x53E PUSH1 0x4 DUP1 CALLDATASIZE SUB DUP2 ADD SWAP1 PUSH2 0x539 SWAP2 SWAP1 PUSH2 0x147A JUMP JUMPDEST PUSH2 0x1282 JUMP JUMPDEST STOP JUMPDEST PUSH2 0x548 PUSH2 0x1287 JUMP JUMPDEST PUSH0 DUP2 GT PUSH2 0x58A JUMPI PUSH1 0x40 MLOAD PUSH32 0x8C379A000000000000000000000000000000000000000000000000000000000 DUP2 MSTORE PUSH1 0x4 ADD PUSH2 0x581 SWAP1 PUSH2 0x16D2 JUMP JUMPDEST PUSH1 0x40 MLOAD DUP1 SWAP2 SUB SWAP1 REVERT JUMPDEST DUP1 PUSH1 0x4 PUSH0 DUP5 PUSH20 0xFFFFFFFFFFFFFFFFFFFFFFFFFFFFFFFFFFFFFFFF AND PUSH20 0xFFFFFFFFFFFFFFFFFFFFFFFFFFFFFFFFFFFFFFFF AND DUP2 MSTORE PUSH1 0x20 ADD SWAP1 DUP2 MSTORE PUSH1 0x20 ADD PUSH0 KECCAK256 PUSH0 CALLER PUSH20 0xFFFFFFFFFFFFFFFFFFFFFFFFFFFFFFFFFFFFFFFF AND PUSH20 0xFFFFFFFFFFFFFFFFFFFFFFFFFFFFFFFFFFFFFFFF AND DUP2 MSTORE PUSH1 0x20 ADD SWAP1 DUP2 MSTORE PUSH1 0x20 ADD PUSH0 KECCAK256 PUSH0 DUP3 DUP3 SLOAD PUSH2 0x611 SWAP2 SWAP1 PUSH2 0x171D JUMP JUMPDEST SWAP3 POP POP DUP2 SWAP1 SSTORE POP DUP1 PUSH1 0x6 PUSH0 DUP5 PUSH20 0xFFFFFFFFFFFFFFFFFFFFFFFFFFFFFFFFFFFFFFFF AND PUSH20 0xFFFFFFFFFFFFFFFFFFFFFFFFFFFFFFFFFFFFFFFF AND DUP2 MSTORE PUSH1 0x20 ADD SWAP1 DUP2 MSTORE PUSH1 0x20 ADD PUSH0 KECCAK256 PUSH0 DUP3 DUP3 SLOAD PUSH2 0x664 SWAP2 SWAP1 PUSH2 0x171D JUMP JUMPDEST SWAP3 POP POP DUP2 SWAP1 SSTORE POP DUP1 PUSH1 0x7 PUSH0 CALLER PUSH20 0xFFFFFFFFFFFFFFFFFFFFFFFFFFFFFFFFFFFFFFFF AND PUSH20 0xFFFFFFFFFFFFFFFFFFFFFFFFFFFFFFFFFFFFFFFF AND DUP2 MSTORE PUSH1 0x20 ADD SWAP1 DUP2 MSTORE PUSH1 0x20 ADD PUSH0 KECCAK256 PUSH0 DUP3 DUP3 SLOAD PUSH2 0x6B7 SWAP2 SWAP1 PUSH2 0x171D JUMP JUMPDEST SWAP3 POP POP DUP2 SWAP1 SSTORE POP PUSH0 PUSH2 0x6C9 DUP4 CALLER PUSH2 0xF60 JUMP JUMPDEST SWAP1 POP DUP1 DUP3 PUSH2 0x6D7 SWAP2 SWAP1 PUSH2 0x1750 JUMP JUMPDEST PUSH1 0x4 PUSH0 DUP6 PUSH20 0xFFFFFFFFFFFFFFFFFFFFFFFFFFFFFFFFFFFFFFFF AND PUSH20 0xFFFFFFFFFFFFFFFFFFFFFFFFFFFFFFFFFFFFFFFF AND DUP2 MSTORE PUSH1 0x20 ADD SWAP1 DUP2 MSTORE PUSH1 0x20 ADD PUSH0 KECCAK256 PUSH0 CALLER PUSH20 0xFFFFFFFFFFFFFFFFFFFFFFFFFFFFFFFFFFFFFFFF AND PUSH20 0xFFFFFFFFFFFFFFFFFFFFFFFFFFFFFFFFFFFFFFFF AND DUP2 MSTORE PUSH1 0x20 ADD SWAP1 DUP2 MSTORE PUSH1 0x20 ADD PUSH0 KECCAK256 SLOAD LT ISZERO PUSH2 0x791 JUMPI PUSH1 0x40 MLOAD PUSH32 0x8C379A000000000000000000000000000000000000000000000000000000000 DUP2 MSTORE PUSH1 0x4 ADD PUSH2 0x788 SWAP1 PUSH2 0x17F3 JUMP JUMPDEST PUSH1 0x40 MLOAD DUP1 SWAP2 SUB SWAP1 REVERT JUMPDEST CALLVALUE DUP2 DUP4 PUSH2 0x79E SWAP2 SWAP1 PUSH2 0x1750 JUMP JUMPDEST LT ISZERO PUSH2 0x7DF JUMPI PUSH1 0x40 MLOAD PUSH32 0x8C379A000000000000000000000000000000000000000000000000000000000 DUP2 MSTORE PUSH1 0x4 ADD PUSH2 0x7D6 SWAP1 PUSH2 0x1881 JUMP JUMPDEST PUSH1 0x40 MLOAD DUP1 SWAP2 SUB SWAP1 REVERT JUMPDEST CALLVALUE DUP2 DUP4 PUSH2 0x7EC SWAP2 SWAP1 PUSH2 0x1750 JUMP JUMPDEST GT ISZERO PUSH2 0x84D JUMPI CALLER PUSH20 0xFFFFFFFFFFFFFFFFFFFFFFFFFFFFFFFFFFFFFFFF AND PUSH2 0x8FC CALLVALUE DUP4 DUP6 PUSH2 0x819 SWAP2 SWAP1 PUSH2 0x1750 JUMP JUMPDEST PUSH2 0x823 SWAP2 SWAP1 PUSH2 0x171D JUMP JUMPDEST SWAP1 DUP2 ISZERO MUL SWAP1 PUSH1 0x40 MLOAD PUSH0 PUSH1 0x40 MLOAD DUP1 DUP4 SUB DUP2 DUP6 DUP9 DUP9 CALL SWAP4 POP POP POP POP ISZERO DUP1 ISZERO PUSH2 0x84B JUMPI RETURNDATASIZE PUSH0 DUP1 RETURNDATACOPY RETURNDATASIZE PUSH0 REVERT JUMPDEST POP JUMPDEST POP PUSH2 0x856 PUSH2 0x12D4 JUMP JUMPDEST POP POP JUMP JUMPDEST PUSH1 0x4 PUSH1 0x20 MSTORE DUP2 PUSH0 MSTORE PUSH1 0x40 PUSH0 KECCAK256 PUSH1 0x20 MSTORE DUP1 PUSH0 MSTORE PUSH1 0x40 PUSH0 KECCAK256 PUSH0 SWAP2 POP SWAP2 POP POP SLOAD DUP2 JUMP JUMPDEST PUSH1 0x7 PUSH1 0x20 MSTORE DUP1 PUSH0 MSTORE PUSH1 0x40 PUSH0 KECCAK256 PUSH0 SWAP2 POP SWAP1 POP SLOAD DUP2 JUMP JUMPDEST PUSH1 0x8 PUSH1 0x20 MSTORE DUP2 PUSH0 MSTORE PUSH1 0x40 PUSH0 KECCAK256 PUSH1 0x20 MSTORE DUP1 PUSH0 MSTORE PUSH1 0x40 PUSH0 KECCAK256 PUSH0 SWAP2 POP SWAP2 POP POP DUP1 PUSH0 ADD SLOAD SWAP1 DUP1 PUSH1 0x1 ADD SLOAD SWAP1 DUP1 PUSH1 0x2 ADD SLOAD SWAP1 POP DUP4 JUMP JUMPDEST POP POP POP JUMP JUMPDEST PUSH0 SWAP2 SWAP1 POP JUMP JUMPDEST PUSH0 DUP1 PUSH0 SWAP1 POP PUSH0 JUMPDEST PUSH1 0x3 DUP1 SLOAD SWAP1 POP DUP2 LT ISZERO PUSH2 0x9AD JUMPI PUSH1 0x2 PUSH0 PUSH1 0x3 DUP4 DUP2 SLOAD DUP2 LT PUSH2 0x8F6 JUMPI PUSH2 0x8F5 PUSH2 0x189F JUMP JUMPDEST JUMPDEST SWAP1 PUSH0 MSTORE PUSH1 0x20 PUSH0 KECCAK256 ADD PUSH0 SWAP1 SLOAD SWAP1 PUSH2 0x100 EXP SWAP1 DIV PUSH20 0xFFFFFFFFFFFFFFFFFFFFFFFFFFFFFFFFFFFFFFFF AND PUSH20 0xFFFFFFFFFFFFFFFFFFFFFFFFFFFFFFFFFFFFFFFF AND PUSH20 0xFFFFFFFFFFFFFFFFFFFFFFFFFFFFFFFFFFFFFFFF AND DUP2 MSTORE PUSH1 0x20 ADD SWAP1 DUP2 MSTORE PUSH1 0x20 ADD PUSH0 KECCAK256 PUSH0 DUP8 PUSH20 0xFFFFFFFFFFFFFFFFFFFFFFFFFFFFFFFFFFFFFFFF AND PUSH20 0xFFFFFFFFFFFFFFFFFFFFFFFFFFFFFFFFFFFFFFFF AND DUP2 MSTORE PUSH1 0x20 ADD SWAP1 DUP2 MSTORE PUSH1 0x20 ADD PUSH0 KECCAK256 SLOAD DUP3 PUSH2 0x99E SWAP2 SWAP1 PUSH2 0x1750 JUMP JUMPDEST SWAP2 POP DUP1 DUP1 PUSH1 0x1 ADD SWAP2 POP POP PUSH2 0x8D2 JUMP JUMPDEST POP POP SWAP4 SWAP3 POP POP POP JUMP JUMPDEST PUSH1 0x2 PUSH1 0x20 MSTORE DUP2 PUSH0 MSTORE PUSH1 0x40 PUSH0 KECCAK256 PUSH1 0x20 MSTORE DUP1 PUSH0 MSTORE PUSH1 0x40 PUSH0 KECCAK256 PUSH0 SWAP2 POP SWAP2 POP POP SLOAD DUP2 JUMP JUMPDEST PUSH0 DUP2 GT PUSH2 0xA18 JUMPI PUSH1 0x40 MLOAD PUSH32 0x8C379A000000000000000000000000000000000000000000000000000000000 DUP2 MSTORE PUSH1 0x4 ADD PUSH2 0xA0F SWAP1 PUSH2 0x193C JUMP JUMPDEST PUSH1 0x40 MLOAD DUP1 SWAP2 SUB SWAP1 REVERT JUMPDEST DUP2 PUSH20 0xFFFFFFFFFFFFFFFFFFFFFFFFFFFFFFFFFFFFFFFF AND PUSH4 0x23B872DD CALLER ADDRESS DUP5 PUSH1 0x40 MLOAD DUP5 PUSH4 0xFFFFFFFF AND PUSH1 0xE0 SHL DUP2 MSTORE PUSH1 0x4 ADD PUSH2 0xA55 SWAP4 SWAP3 SWAP2 SWAP1 PUSH2 0x195A JUMP JUMPDEST PUSH1 0x20 PUSH1 0x40 MLOAD DUP1 DUP4 SUB DUP2 PUSH0 DUP8 GAS CALL ISZERO DUP1 ISZERO PUSH2 0xA71 JUMPI RETURNDATASIZE PUSH0 DUP1 RETURNDATACOPY RETURNDATASIZE PUSH0 REVERT JUMPDEST POP POP POP POP PUSH1 0x40 MLOAD RETURNDATASIZE PUSH1 0x1F NOT PUSH1 0x1F DUP3 ADD AND DUP3 ADD DUP1 PUSH1 0x40 MSTORE POP DUP2 ADD SWAP1 PUSH2 0xA95 SWAP2 SWAP1 PUSH2 0x19B9 JUMP JUMPDEST POP DUP1 PUSH1 0x2 PUSH0 DUP5 PUSH20 0xFFFFFFFFFFFFFFFFFFFFFFFFFFFFFFFFFFFFFFFF AND PUSH20 0xFFFFFFFFFFFFFFFFFFFFFFFFFFFFFFFFFFFFFFFF AND DUP2 MSTORE PUSH1 0x20 ADD SWAP1 DUP2 MSTORE PUSH1 0x20 ADD PUSH0 KECCAK256 PUSH0 CALLER PUSH20 0xFFFFFFFFFFFFFFFFFFFFFFFFFFFFFFFFFFFFFFFF AND PUSH20 0xFFFFFFFFFFFFFFFFFFFFFFFFFFFFFFFFFFFFFFFF AND DUP2 MSTORE PUSH1 0x20 ADD SWAP1 DUP2 MSTORE PUSH1 0x20 ADD PUSH0 KECCAK256 PUSH0 DUP3 DUP3 SLOAD PUSH2 0xB1D SWAP2 SWAP1 PUSH2 0x1750 JUMP JUMPDEST SWAP3 POP POP DUP2 SWAP1 SSTORE POP CALLER PUSH20 0xFFFFFFFFFFFFFFFFFFFFFFFFFFFFFFFFFFFFFFFF AND DUP3 PUSH20 0xFFFFFFFFFFFFFFFFFFFFFFFFFFFFFFFFFFFFFFFF AND PUSH32 0x1DE3ECE35391F6BBA650736F2D5D3F12E2CFC54538A340CC5D762D34CA449DE7 DUP4 PUSH1 0x40 MLOAD PUSH2 0xB81 SWAP2 SWAP1 PUSH2 0x1401 JUMP JUMPDEST PUSH1 0x40 MLOAD DUP1 SWAP2 SUB SWAP1 LOG3 POP POP JUMP JUMPDEST PUSH2 0xB95 PUSH2 0x1287 JUMP JUMPDEST PUSH0 DUP2 GT PUSH2 0xBD7 JUMPI PUSH1 0x40 MLOAD PUSH32 0x8C379A000000000000000000000000000000000000000000000000000000000 DUP2 MSTORE PUSH1 0x4 ADD PUSH2 0xBCE SWAP1 PUSH2 0x1A54 JUMP JUMPDEST PUSH1 0x40 MLOAD DUP1 SWAP2 SUB SWAP1 REVERT JUMPDEST PUSH2 0xBE2 CALLER DUP4 DUP4 PUSH2 0x8CB JUMP JUMPDEST PUSH2 0xC21 JUMPI PUSH1 0x40 MLOAD PUSH32 0x8C379A000000000000000000000000000000000000000000000000000000000 DUP2 MSTORE PUSH1 0x4 ADD PUSH2 0xC18 SWAP1 PUSH2 0x1ABC JUMP JUMPDEST PUSH1 0x40 MLOAD DUP1 SWAP2 SUB SWAP1 REVERT JUMPDEST DUP1 DUP3 PUSH20 0xFFFFFFFFFFFFFFFFFFFFFFFFFFFFFFFFFFFFFFFF AND PUSH4 0x70A08231 ADDRESS PUSH1 0x40 MLOAD DUP3 PUSH4 0xFFFFFFFF AND PUSH1 0xE0 SHL DUP2 MSTORE PUSH1 0x4 ADD PUSH2 0xC5B SWAP2 SWAP1 PUSH2 0x1587 JUMP JUMPDEST PUSH1 0x20 PUSH1 0x40 MLOAD DUP1 DUP4 SUB DUP2 DUP7 GAS STATICCALL ISZERO DUP1 ISZERO PUSH2 0xC76 JUMPI RETURNDATASIZE PUSH0 DUP1 RETURNDATACOPY RETURNDATASIZE PUSH0 REVERT JUMPDEST POP POP POP POP PUSH1 0x40 MLOAD RETURNDATASIZE PUSH1 0x1F NOT PUSH1 0x1F DUP3 ADD AND DUP3 ADD DUP1 PUSH1 0x40 MSTORE POP DUP2 ADD SWAP1 PUSH2 0xC9A SWAP2 SWAP1 PUSH2 0x1AEE JUMP JUMPDEST LT ISZERO PUSH2 0xCDB JUMPI PUSH1 0x40 MLOAD PUSH32 0x8C379A000000000000000000000000000000000000000000000000000000000 DUP2 MSTORE PUSH1 0x4 ADD PUSH2 0xCD2 SWAP1 PUSH2 0x1B89 JUMP JUMPDEST PUSH1 0x40 MLOAD DUP1 SWAP2 SUB SWAP1 REVERT JUMPDEST DUP1 PUSH1 0x4 PUSH0 DUP5 PUSH20 0xFFFFFFFFFFFFFFFFFFFFFFFFFFFFFFFFFFFFFFFF AND PUSH20 0xFFFFFFFFFFFFFFFFFFFFFFFFFFFFFFFFFFFFFFFF AND DUP2 MSTORE PUSH1 0x20 ADD SWAP1 DUP2 MSTORE PUSH1 0x20 ADD PUSH0 KECCAK256 PUSH0 CALLER PUSH20 0xFFFFFFFFFFFFFFFFFFFFFFFFFFFFFFFFFFFFFFFF AND PUSH20 0xFFFFFFFFFFFFFFFFFFFFFFFFFFFFFFFFFFFFFFFF AND DUP2 MSTORE PUSH1 0x20 ADD SWAP1 DUP2 MSTORE PUSH1 0x20 ADD PUSH0 KECCAK256 PUSH0 DUP3 DUP3 SLOAD PUSH2 0xD62 SWAP2 SWAP1 PUSH2 0x1750 JUMP JUMPDEST SWAP3 POP POP DUP2 SWAP1 SSTORE POP DUP1 PUSH1 0x6 PUSH0 DUP5 PUSH20 0xFFFFFFFFFFFFFFFFFFFFFFFFFFFFFFFFFFFFFFFF AND PUSH20 0xFFFFFFFFFFFFFFFFFFFFFFFFFFFFFFFFFFFFFFFF AND DUP2 MSTORE PUSH1 0x20 ADD SWAP1 DUP2 MSTORE PUSH1 0x20 ADD PUSH0 KECCAK256 PUSH0 DUP3 DUP3 SLOAD PUSH2 0xDB5 SWAP2 SWAP1 PUSH2 0x1750 JUMP JUMPDEST SWAP3 POP POP DUP2 SWAP1 SSTORE POP DUP1 PUSH1 0x7 PUSH0 CALLER PUSH20 0xFFFFFFFFFFFFFFFFFFFFFFFFFFFFFFFFFFFFFFFF AND PUSH20 0xFFFFFFFFFFFFFFFFFFFFFFFFFFFFFFFFFFFFFFFF AND DUP2 MSTORE PUSH1 0x20 ADD SWAP1 DUP2 MSTORE PUSH1 0x20 ADD PUSH0 KECCAK256 PUSH0 DUP3 DUP3 SLOAD PUSH2 0xE08 SWAP2 SWAP1 PUSH2 0x1750 JUMP JUMPDEST SWAP3 POP POP DUP2 SWAP1 SSTORE POP PUSH2 0xE22 DUP3 CALLER PUSH2 0xE1D DUP5 PUSH2 0x8C5 JUMP JUMPDEST PUSH2 0x1282 JUMP JUMPDEST PUSH0 TIMESTAMP SWAP1 POP PUSH0 DUP2 PUSH1 0x1 SLOAD PUSH2 0xE35 SWAP2 SWAP1 PUSH2 0x1750 JUMP JUMPDEST SWAP1 POP PUSH1 0x40 MLOAD DUP1 PUSH1 0x60 ADD PUSH1 0x40 MSTORE DUP1 DUP5 DUP2 MSTORE PUSH1 0x20 ADD DUP3 DUP2 MSTORE PUSH1 0x20 ADD TIMESTAMP DUP2 MSTORE POP PUSH1 0x8 PUSH0 CALLER PUSH20 0xFFFFFFFFFFFFFFFFFFFFFFFFFFFFFFFFFFFFFFFF AND PUSH20 0xFFFFFFFFFFFFFFFFFFFFFFFFFFFFFFFFFFFFFFFF AND DUP2 MSTORE PUSH1 0x20 ADD SWAP1 DUP2 MSTORE PUSH1 0x20 ADD PUSH0 KECCAK256 PUSH0 DUP7 PUSH20 0xFFFFFFFFFFFFFFFFFFFFFFFFFFFFFFFFFFFFFFFF AND PUSH20 0xFFFFFFFFFFFFFFFFFFFFFFFFFFFFFFFFFFFFFFFF AND DUP2 MSTORE PUSH1 0x20 ADD SWAP1 DUP2 MSTORE PUSH1 0x20 ADD PUSH0 KECCAK256 PUSH0 DUP3 ADD MLOAD DUP2 PUSH0 ADD SSTORE PUSH1 0x20 DUP3 ADD MLOAD DUP2 PUSH1 0x1 ADD SSTORE PUSH1 0x40 DUP3 ADD MLOAD DUP2 PUSH1 0x2 ADD SSTORE SWAP1 POP POP DUP4 PUSH20 0xFFFFFFFFFFFFFFFFFFFFFFFFFFFFFFFFFFFFFFFF AND CALLER PUSH20 0xFFFFFFFFFFFFFFFFFFFFFFFFFFFFFFFFFFFFFFFF AND PUSH32 0xC1CBA78646FEF030830D099FC25CB498953709C9D47D883848F81FD207174C9F DUP6 DUP5 TIMESTAMP PUSH1 0x40 MLOAD PUSH2 0xF4A SWAP4 SWAP3 SWAP2 SWAP1 PUSH2 0x1445 JUMP JUMPDEST PUSH1 0x40 MLOAD DUP1 SWAP2 SUB SWAP1 LOG3 POP POP PUSH2 0xF5C PUSH2 0x12D4 JUMP JUMPDEST POP POP JUMP JUMPDEST PUSH0 DUP1 PUSH1 0x8 PUSH0 DUP5 PUSH20 0xFFFFFFFFFFFFFFFFFFFFFFFFFFFFFFFFFFFFFFFF AND PUSH20 0xFFFFFFFFFFFFFFFFFFFFFFFFFFFFFFFFFFFFFFFF AND DUP2 MSTORE PUSH1 0x20 ADD SWAP1 DUP2 MSTORE PUSH1 0x20 ADD PUSH0 KECCAK256 PUSH0 DUP6 PUSH20 0xFFFFFFFFFFFFFFFFFFFFFFFFFFFFFFFFFFFFFFFF AND PUSH20 0xFFFFFFFFFFFFFFFFFFFFFFFFFFFFFFFFFFFFFFFF AND DUP2 MSTORE PUSH1 0x20 ADD SWAP1 DUP2 MSTORE PUSH1 0x20 ADD PUSH0 KECCAK256 PUSH1 0x40 MLOAD DUP1 PUSH1 0x60 ADD PUSH1 0x40 MSTORE SWAP1 DUP2 PUSH0 DUP3 ADD SLOAD DUP2 MSTORE PUSH1 0x20 ADD PUSH1 0x1 DUP3 ADD SLOAD DUP2 MSTORE PUSH1 0x20 ADD PUSH1 0x2 DUP3 ADD SLOAD DUP2 MSTORE POP POP SWAP1 POP PUSH0 DUP2 PUSH1 0x40 ADD MLOAD TIMESTAMP PUSH2 0x1015 SWAP2 SWAP1 PUSH2 0x171D JUMP JUMPDEST SWAP1 POP PUSH0 DUP2 DUP4 PUSH1 0x20 ADD MLOAD DUP5 PUSH0 ADD MLOAD PUSH2 0x102C SWAP2 SWAP1 PUSH2 0x1BA7 JUMP JUMPDEST PUSH2 0x1036 SWAP2 SWAP1 PUSH2 0x1BA7 JUMP JUMPDEST SWAP1 POP DUP1 SWAP4 POP POP POP POP SWAP3 SWAP2 POP POP JUMP JUMPDEST PUSH0 PUSH1 0x2 PUSH0 DUP4 PUSH20 0xFFFFFFFFFFFFFFFFFFFFFFFFFFFFFFFFFFFFFFFF AND PUSH20 0xFFFFFFFFFFFFFFFFFFFFFFFFFFFFFFFFFFFFFFFF AND DUP2 MSTORE PUSH1 0x20 ADD SWAP1 DUP2 MSTORE PUSH1 0x20 ADD PUSH0 KECCAK256 PUSH0 DUP5 PUSH20 0xFFFFFFFFFFFFFFFFFFFFFFFFFFFFFFFFFFFFFFFF AND PUSH20 0xFFFFFFFFFFFFFFFFFFFFFFFFFFFFFFFFFFFFFFFF AND DUP2 MSTORE PUSH1 0x20 ADD SWAP1 DUP2 MSTORE PUSH1 0x20 ADD PUSH0 KECCAK256 SLOAD SWAP1 POP SWAP3 SWAP2 POP POP JUMP JUMPDEST PUSH0 SWAP4 SWAP3 POP POP POP JUMP JUMPDEST PUSH1 0x1 SLOAD DUP2 JUMP JUMPDEST PUSH1 0x3 DUP2 DUP2 SLOAD DUP2 LT PUSH2 0x10E3 JUMPI PUSH0 DUP1 REVERT JUMPDEST SWAP1 PUSH0 MSTORE PUSH1 0x20 PUSH0 KECCAK256 ADD PUSH0 SWAP2 POP SLOAD SWAP1 PUSH2 0x100 EXP SWAP1 DIV PUSH20 0xFFFFFFFFFFFFFFFFFFFFFFFFFFFFFFFFFFFFFFFF AND DUP2 JUMP JUMPDEST PUSH1 0x5 PUSH1 0x20 MSTORE DUP2 PUSH0 MSTORE PUSH1 0x40 PUSH0 KECCAK256 PUSH1 0x20 MSTORE DUP1 PUSH0 MSTORE PUSH1 0x40 PUSH0 KECCAK256 PUSH0 SWAP2 POP SWAP2 POP POP SLOAD DUP2 JUMP JUMPDEST PUSH0 DUP1 PUSH2 0x1139 PUSH2 0x12DD JUMP JUMPDEST DUP4 PUSH2 0x1144 SWAP2 SWAP1 PUSH2 0x1C15 JUMP JUMPDEST DUP5 PUSH2 0x114F SWAP2 SWAP1 PUSH2 0x1750 JUMP JUMPDEST SWAP1 POP PUSH0 DUP1 JUMPDEST PUSH1 0x3 DUP1 SLOAD SWAP1 POP DUP2 LT ISZERO PUSH2 0x122F JUMPI PUSH1 0x2 PUSH0 PUSH1 0x3 DUP4 DUP2 SLOAD DUP2 LT PUSH2 0x1178 JUMPI PUSH2 0x1177 PUSH2 0x189F JUMP JUMPDEST JUMPDEST SWAP1 PUSH0 MSTORE PUSH1 0x20 PUSH0 KECCAK256 ADD PUSH0 SWAP1 SLOAD SWAP1 PUSH2 0x100 EXP SWAP1 DIV PUSH20 0xFFFFFFFFFFFFFFFFFFFFFFFFFFFFFFFFFFFFFFFF AND PUSH20 0xFFFFFFFFFFFFFFFFFFFFFFFFFFFFFFFFFFFFFFFF AND PUSH20 0xFFFFFFFFFFFFFFFFFFFFFFFFFFFFFFFFFFFFFFFF AND DUP2 MSTORE PUSH1 0x20 ADD SWAP1 DUP2 MSTORE PUSH1 0x20 ADD PUSH0 KECCAK256 PUSH0 CALLER PUSH20 0xFFFFFFFFFFFFFFFFFFFFFFFFFFFFFFFFFFFFFFFF AND PUSH20 0xFFFFFFFFFFFFFFFFFFFFFFFFFFFFFFFFFFFFFFFF AND DUP2 MSTORE PUSH1 0x20 ADD SWAP1 DUP2 MSTORE PUSH1 0x20 ADD PUSH0 KECCAK256 SLOAD DUP3 PUSH2 0x1220 SWAP2 SWAP1 PUSH2 0x1750 JUMP JUMPDEST SWAP2 POP DUP1 DUP1 PUSH1 0x1 ADD SWAP2 POP POP PUSH2 0x1154 JUMP JUMPDEST POP PUSH0 DUP5 DUP7 PUSH2 0x123D SWAP2 SWAP1 PUSH2 0x1750 JUMP JUMPDEST SWAP1 POP POP POP POP SWAP3 SWAP2 POP POP JUMP JUMPDEST PUSH1 0x9 PUSH0 SWAP1 SLOAD SWAP1 PUSH2 0x100 EXP SWAP1 DIV PUSH20 0xFFFFFFFFFFFFFFFFFFFFFFFFFFFFFFFFFFFFFFFF AND DUP2 JUMP JUMPDEST PUSH1 0x6 PUSH1 0x20 MSTORE DUP1 PUSH0 MSTORE PUSH1 0x40 PUSH0 KECCAK256 PUSH0 SWAP2 POP SWAP1 POP SLOAD DUP2 JUMP JUMPDEST POP POP POP JUMP JUMPDEST PUSH1 0x2 PUSH0 SLOAD SUB PUSH2 0x12CB JUMPI PUSH1 0x40 MLOAD PUSH32 0x8C379A000000000000000000000000000000000000000000000000000000000 DUP2 MSTORE PUSH1 0x4 ADD PUSH2 0x12C2 SWAP1 PUSH2 0x1C8F JUMP JUMPDEST PUSH1 0x40 MLOAD DUP1 SWAP2 SUB SWAP1 REVERT JUMPDEST PUSH1 0x2 PUSH0 DUP2 SWAP1 SSTORE POP JUMP JUMPDEST PUSH1 0x1 PUSH0 DUP2 SWAP1 SSTORE POP JUMP JUMPDEST PUSH0 PUSH1 0x2 SWAP1 POP SWAP1 JUMP JUMPDEST PUSH0 DUP1 REVERT JUMPDEST PUSH0 PUSH20 0xFFFFFFFFFFFFFFFFFFFFFFFFFFFFFFFFFFFFFFFF DUP3 AND SWAP1 POP SWAP2 SWAP1 POP JUMP JUMPDEST PUSH0 PUSH2 0x1312 DUP3 PUSH2 0x12E9 JUMP JUMPDEST SWAP1 POP SWAP2 SWAP1 POP JUMP JUMPDEST PUSH2 0x1322 DUP2 PUSH2 0x1308 JUMP JUMPDEST DUP2 EQ PUSH2 0x132C JUMPI PUSH0 DUP1 REVERT JUMPDEST POP JUMP JUMPDEST PUSH0 DUP2 CALLDATALOAD SWAP1 POP PUSH2 0x133D DUP2 PUSH2 0x1319 JUMP JUMPDEST SWAP3 SWAP2 POP POP JUMP JUMPDEST PUSH0 DUP2 SWAP1 POP SWAP2 SWAP1 POP JUMP JUMPDEST PUSH2 0x1355 DUP2 PUSH2 0x1343 JUMP JUMPDEST DUP2 EQ PUSH2 0x135F JUMPI PUSH0 DUP1 REVERT JUMPDEST POP JUMP JUMPDEST PUSH0 DUP2 CALLDATALOAD SWAP1 POP PUSH2 0x1370 DUP2 PUSH2 0x134C JUMP JUMPDEST SWAP3 SWAP2 POP POP JUMP JUMPDEST PUSH0 DUP1 PUSH1 0x40 DUP4 DUP6 SUB SLT ISZERO PUSH2 0x138C JUMPI PUSH2 0x138B PUSH2 0x12E5 JUMP JUMPDEST JUMPDEST PUSH0 PUSH2 0x1399 DUP6 DUP3 DUP7 ADD PUSH2 0x132F JUMP JUMPDEST SWAP3 POP POP PUSH1 0x20 PUSH2 0x13AA DUP6 DUP3 DUP7 ADD PUSH2 0x1362 JUMP JUMPDEST SWAP2 POP POP SWAP3 POP SWAP3 SWAP1 POP JUMP JUMPDEST PUSH0 DUP1 PUSH1 0x40 DUP4 DUP6 SUB SLT ISZERO PUSH2 0x13CA JUMPI PUSH2 0x13C9 PUSH2 0x12E5 JUMP JUMPDEST JUMPDEST PUSH0 PUSH2 0x13D7 DUP6 DUP3 DUP7 ADD PUSH2 0x132F JUMP JUMPDEST SWAP3 POP POP PUSH1 0x20 PUSH2 0x13E8 DUP6 DUP3 DUP7 ADD PUSH2 0x132F JUMP JUMPDEST SWAP2 POP POP SWAP3 POP SWAP3 SWAP1 POP JUMP JUMPDEST PUSH2 0x13FB DUP2 PUSH2 0x1343 JUMP JUMPDEST DUP3 MSTORE POP POP JUMP JUMPDEST PUSH0 PUSH1 0x20 DUP3 ADD SWAP1 POP PUSH2 0x1414 PUSH0 DUP4 ADD DUP5 PUSH2 0x13F2 JUMP JUMPDEST SWAP3 SWAP2 POP POP JUMP JUMPDEST PUSH0 PUSH1 0x20 DUP3 DUP5 SUB SLT ISZERO PUSH2 0x142F JUMPI PUSH2 0x142E PUSH2 0x12E5 JUMP JUMPDEST JUMPDEST PUSH0 PUSH2 0x143C DUP5 DUP3 DUP6 ADD PUSH2 0x132F JUMP JUMPDEST SWAP2 POP POP SWAP3 SWAP2 POP POP JUMP JUMPDEST PUSH0 PUSH1 0x60 DUP3 ADD SWAP1 POP PUSH2 0x1458 PUSH0 DUP4 ADD DUP7 PUSH2 0x13F2 JUMP JUMPDEST PUSH2 0x1465 PUSH1 0x20 DUP4 ADD DUP6 PUSH2 0x13F2 JUMP JUMPDEST PUSH2 0x1472 PUSH1 0x40 DUP4 ADD DUP5 PUSH2 0x13F2 JUMP JUMPDEST SWAP5 SWAP4 POP POP POP POP JUMP JUMPDEST PUSH0 DUP1 PUSH0 PUSH1 0x60 DUP5 DUP7 SUB SLT ISZERO PUSH2 0x1491 JUMPI PUSH2 0x1490 PUSH2 0x12E5 JUMP JUMPDEST JUMPDEST PUSH0 PUSH2 0x149E DUP7 DUP3 DUP8 ADD PUSH2 0x132F JUMP JUMPDEST SWAP4 POP POP PUSH1 0x20 PUSH2 0x14AF DUP7 DUP3 DUP8 ADD PUSH2 0x132F JUMP JUMPDEST SWAP3 POP POP PUSH1 0x40 PUSH2 0x14C0 DUP7 DUP3 DUP8 ADD PUSH2 0x1362 JUMP JUMPDEST SWAP2 POP POP SWAP3 POP SWAP3 POP SWAP3 JUMP JUMPDEST PUSH0 PUSH1 0x20 DUP3 DUP5 SUB SLT ISZERO PUSH2 0x14DF JUMPI PUSH2 0x14DE PUSH2 0x12E5 JUMP JUMPDEST JUMPDEST PUSH0 PUSH2 0x14EC DUP5 DUP3 DUP6 ADD PUSH2 0x1362 JUMP JUMPDEST SWAP2 POP POP SWAP3 SWAP2 POP POP JUMP JUMPDEST PUSH0 DUP2 ISZERO ISZERO SWAP1 POP SWAP2 SWAP1 POP JUMP JUMPDEST PUSH2 0x1509 DUP2 PUSH2 0x14F5 JUMP JUMPDEST DUP3 MSTORE POP POP JUMP JUMPDEST PUSH0 PUSH1 0x20 DUP3 ADD SWAP1 POP PUSH2 0x1522 PUSH0 DUP4 ADD DUP5 PUSH2 0x1500 JUMP JUMPDEST SWAP3 SWAP2 POP POP JUMP JUMPDEST PUSH0 DUP1 PUSH0 PUSH1 0x60 DUP5 DUP7 SUB SLT ISZERO PUSH2 0x153F JUMPI PUSH2 0x153E PUSH2 0x12E5 JUMP JUMPDEST JUMPDEST PUSH0 PUSH2 0x154C DUP7 DUP3 DUP8 ADD PUSH2 0x132F JUMP JUMPDEST SWAP4 POP POP PUSH1 0x20 PUSH2 0x155D DUP7 DUP3 DUP8 ADD PUSH2 0x1362 JUMP JUMPDEST SWAP3 POP POP PUSH1 0x40 PUSH2 0x156E DUP7 DUP3 DUP8 ADD PUSH2 0x1362 JUMP JUMPDEST SWAP2 POP POP SWAP3 POP SWAP3 POP SWAP3 JUMP JUMPDEST PUSH2 0x1581 DUP2 PUSH2 0x1308 JUMP JUMPDEST DUP3 MSTORE POP POP JUMP JUMPDEST PUSH0 PUSH1 0x20 DUP3 ADD SWAP1 POP PUSH2 0x159A PUSH0 DUP4 ADD DUP5 PUSH2 0x1578 JUMP JUMPDEST SWAP3 SWAP2 POP POP JUMP JUMPDEST PUSH0 DUP1 PUSH1 0x40 DUP4 DUP6 SUB SLT ISZERO PUSH2 0x15B6 JUMPI PUSH2 0x15B5 PUSH2 0x12E5 JUMP JUMPDEST JUMPDEST PUSH0 PUSH2 0x15C3 DUP6 DUP3 DUP7 ADD PUSH2 0x1362 JUMP JUMPDEST SWAP3 POP POP PUSH1 0x20 PUSH2 0x15D4 DUP6 DUP3 DUP7 ADD PUSH2 0x1362 JUMP JUMPDEST SWAP2 POP POP SWAP3 POP SWAP3 SWAP1 POP JUMP JUMPDEST PUSH0 DUP2 SWAP1 POP SWAP2 SWAP1 POP JUMP JUMPDEST PUSH0 PUSH2 0x1601 PUSH2 0x15FC PUSH2 0x15F7 DUP5 PUSH2 0x12E9 JUMP JUMPDEST PUSH2 0x15DE JUMP JUMPDEST PUSH2 0x12E9 JUMP JUMPDEST SWAP1 POP SWAP2 SWAP1 POP JUMP JUMPDEST PUSH0 PUSH2 0x1612 DUP3 PUSH2 0x15E7 JUMP JUMPDEST SWAP1 POP SWAP2 SWAP1 POP JUMP JUMPDEST PUSH0 PUSH2 0x1623 DUP3 PUSH2 0x1608 JUMP JUMPDEST SWAP1 POP SWAP2 SWAP1 POP JUMP JUMPDEST PUSH2 0x1633 DUP2 PUSH2 0x1619 JUMP JUMPDEST DUP3 MSTORE POP POP JUMP JUMPDEST PUSH0 PUSH1 0x20 DUP3 ADD SWAP1 POP PUSH2 0x164C PUSH0 DUP4 ADD DUP5 PUSH2 0x162A JUMP JUMPDEST SWAP3 SWAP2 POP POP JUMP JUMPDEST PUSH0 DUP3 DUP3 MSTORE PUSH1 0x20 DUP3 ADD SWAP1 POP SWAP3 SWAP2 POP POP JUMP JUMPDEST PUSH32 0x52657061796D656E7420616D6F756E74206D7573742062652067726561746572 PUSH0 DUP3 ADD MSTORE PUSH32 0x207468616E207A65726F00000000000000000000000000000000000000000000 PUSH1 0x20 DUP3 ADD MSTORE POP JUMP JUMPDEST PUSH0 PUSH2 0x16BC PUSH1 0x2A DUP4 PUSH2 0x1652 JUMP JUMPDEST SWAP2 POP PUSH2 0x16C7 DUP3 PUSH2 0x1662 JUMP JUMPDEST PUSH1 0x40 DUP3 ADD SWAP1 POP SWAP2 SWAP1 POP JUMP JUMPDEST PUSH0 PUSH1 0x20 DUP3 ADD SWAP1 POP DUP2 DUP2 SUB PUSH0 DUP4 ADD MSTORE PUSH2 0x16E9 DUP2 PUSH2 0x16B0 JUMP JUMPDEST SWAP1 POP SWAP2 SWAP1 POP JUMP JUMPDEST PUSH32 0x4E487B7100000000000000000000000000000000000000000000000000000000 PUSH0 MSTORE PUSH1 0x11 PUSH1 0x4 MSTORE PUSH1 0x24 PUSH0 REVERT JUMPDEST PUSH0 PUSH2 0x1727 DUP3 PUSH2 0x1343 JUMP JUMPDEST SWAP2 POP PUSH2 0x1732 DUP4 PUSH2 0x1343 JUMP JUMPDEST SWAP3 POP DUP3 DUP3 SUB SWAP1 POP DUP2 DUP2 GT ISZERO PUSH2 0x174A JUMPI PUSH2 0x1749 PUSH2 0x16F0 JUMP JUMPDEST JUMPDEST SWAP3 SWAP2 POP POP JUMP JUMPDEST PUSH0 PUSH2 0x175A DUP3 PUSH2 0x1343 JUMP JUMPDEST SWAP2 POP PUSH2 0x1765 DUP4 PUSH2 0x1343 JUMP JUMPDEST SWAP3 POP DUP3 DUP3 ADD SWAP1 POP DUP1 DUP3 GT ISZERO PUSH2 0x177D JUMPI PUSH2 0x177C PUSH2 0x16F0 JUMP JUMPDEST JUMPDEST SWAP3 SWAP2 POP POP JUMP JUMPDEST PUSH32 0x52657061796D656E7420616D6F756E74206578636565647320626F72726F7720 PUSH0 DUP3 ADD MSTORE PUSH32 0x616D6F756E740000000000000000000000000000000000000000000000000000 PUSH1 0x20 DUP3 ADD MSTORE POP JUMP JUMPDEST PUSH0 PUSH2 0x17DD PUSH1 0x26 DUP4 PUSH2 0x1652 JUMP JUMPDEST SWAP2 POP PUSH2 0x17E8 DUP3 PUSH2 0x1783 JUMP JUMPDEST PUSH1 0x40 DUP3 ADD SWAP1 POP SWAP2 SWAP1 POP JUMP JUMPDEST PUSH0 PUSH1 0x20 DUP3 ADD SWAP1 POP DUP2 DUP2 SUB PUSH0 DUP4 ADD MSTORE PUSH2 0x180A DUP2 PUSH2 0x17D1 JUMP JUMPDEST SWAP1 POP SWAP2 SWAP1 POP JUMP JUMPDEST PUSH32 0x496E73756666696369656E742066756E647320666F722072657061796D656E74 PUSH0 DUP3 ADD MSTORE PUSH32 0x20616E64206163637275656420696E7465726573740000000000000000000000 PUSH1 0x20 DUP3 ADD MSTORE POP JUMP JUMPDEST PUSH0 PUSH2 0x186B PUSH1 0x35 DUP4 PUSH2 0x1652 JUMP JUMPDEST SWAP2 POP PUSH2 0x1876 DUP3 PUSH2 0x1811 JUMP JUMPDEST PUSH1 0x40 DUP3 ADD SWAP1 POP SWAP2 SWAP1 POP JUMP JUMPDEST PUSH0 PUSH1 0x20 DUP3 ADD SWAP1 POP DUP2 DUP2 SUB PUSH0 DUP4 ADD MSTORE PUSH2 0x1898 DUP2 PUSH2 0x185F JUMP JUMPDEST SWAP1 POP SWAP2 SWAP1 POP JUMP JUMPDEST PUSH32 0x4E487B7100000000000000000000000000000000000000000000000000000000 PUSH0 MSTORE PUSH1 0x32 PUSH1 0x4 MSTORE PUSH1 0x24 PUSH0 REVERT JUMPDEST PUSH32 0x4465706F73697420616D6F756E74206D75737420626520677265617465722074 PUSH0 DUP3 ADD MSTORE PUSH32 0x68616E207A65726F000000000000000000000000000000000000000000000000 PUSH1 0x20 DUP3 ADD MSTORE POP JUMP JUMPDEST PUSH0 PUSH2 0x1926 PUSH1 0x28 DUP4 PUSH2 0x1652 JUMP JUMPDEST SWAP2 POP PUSH2 0x1931 DUP3 PUSH2 0x18CC JUMP JUMPDEST PUSH1 0x40 DUP3 ADD SWAP1 POP SWAP2 SWAP1 POP JUMP JUMPDEST PUSH0 PUSH1 0x20 DUP3 ADD SWAP1 POP DUP2 DUP2 SUB PUSH0 DUP4 ADD MSTORE PUSH2 0x1953 DUP2 PUSH2 0x191A JUMP JUMPDEST SWAP1 POP SWAP2 SWAP1 POP JUMP JUMPDEST PUSH0 PUSH1 0x60 DUP3 ADD SWAP1 POP PUSH2 0x196D PUSH0 DUP4 ADD DUP7 PUSH2 0x1578 JUMP JUMPDEST PUSH2 0x197A PUSH1 0x20 DUP4 ADD DUP6 PUSH2 0x1578 JUMP JUMPDEST PUSH2 0x1987 PUSH1 0x40 DUP4 ADD DUP5 PUSH2 0x13F2 JUMP JUMPDEST SWAP5 SWAP4 POP POP POP POP JUMP JUMPDEST PUSH2 0x1998 DUP2 PUSH2 0x14F5 JUMP JUMPDEST DUP2 EQ PUSH2 0x19A2 JUMPI PUSH0 DUP1 REVERT JUMPDEST POP JUMP JUMPDEST PUSH0 DUP2 MLOAD SWAP1 POP PUSH2 0x19B3 DUP2 PUSH2 0x198F JUMP JUMPDEST SWAP3 SWAP2 POP POP JUMP JUMPDEST PUSH0 PUSH1 0x20 DUP3 DUP5 SUB SLT ISZERO PUSH2 0x19CE JUMPI PUSH2 0x19CD PUSH2 0x12E5 JUMP JUMPDEST JUMPDEST PUSH0 PUSH2 0x19DB DUP5 DUP3 DUP6 ADD PUSH2 0x19A5 JUMP JUMPDEST SWAP2 POP POP SWAP3 SWAP2 POP POP JUMP JUMPDEST PUSH32 0x426F72726F7720616D6F756E74206D7573742062652067726561746572207468 PUSH0 DUP3 ADD MSTORE PUSH32 0x616E207A65726F00000000000000000000000000000000000000000000000000 PUSH1 0x20 DUP3 ADD MSTORE POP JUMP JUMPDEST PUSH0 PUSH2 0x1A3E PUSH1 0x27 DUP4 PUSH2 0x1652 JUMP JUMPDEST SWAP2 POP PUSH2 0x1A49 DUP3 PUSH2 0x19E4 JUMP JUMPDEST PUSH1 0x40 DUP3 ADD SWAP1 POP SWAP2 SWAP1 POP JUMP JUMPDEST PUSH0 PUSH1 0x20 DUP3 ADD SWAP1 POP DUP2 DUP2 SUB PUSH0 DUP4 ADD MSTORE PUSH2 0x1A6B DUP2 PUSH2 0x1A32 JUMP JUMPDEST SWAP1 POP SWAP2 SWAP1 POP JUMP JUMPDEST PUSH32 0x496E73756666696369656E7420636F6C6C61746572616C000000000000000000 PUSH0 DUP3 ADD MSTORE POP JUMP JUMPDEST PUSH0 PUSH2 0x1AA6 PUSH1 0x17 DUP4 PUSH2 0x1652 JUMP JUMPDEST SWAP2 POP PUSH2 0x1AB1 DUP3 PUSH2 0x1A72 JUMP JUMPDEST PUSH1 0x20 DUP3 ADD SWAP1 POP SWAP2 SWAP1 POP JUMP JUMPDEST PUSH0 PUSH1 0x20 DUP3 ADD SWAP1 POP DUP2 DUP2 SUB PUSH0 DUP4 ADD MSTORE PUSH2 0x1AD3 DUP2 PUSH2 0x1A9A JUMP JUMPDEST SWAP1 POP SWAP2 SWAP1 POP JUMP JUMPDEST PUSH0 DUP2 MLOAD SWAP1 POP PUSH2 0x1AE8 DUP2 PUSH2 0x134C JUMP JUMPDEST SWAP3 SWAP2 POP POP JUMP JUMPDEST PUSH0 PUSH1 0x20 DUP3 DUP5 SUB SLT ISZERO PUSH2 0x1B03 JUMPI PUSH2 0x1B02 PUSH2 0x12E5 JUMP JUMPDEST JUMPDEST PUSH0 PUSH2 0x1B10 DUP5 DUP3 DUP6 ADD PUSH2 0x1ADA JUMP JUMPDEST SWAP2 POP POP SWAP3 SWAP2 POP POP JUMP JUMPDEST PUSH32 0x496E73756666696369656E74206C697175696469747920666F7220626F72726F PUSH0 DUP3 ADD MSTORE PUSH32 0x77696E6700000000000000000000000000000000000000000000000000000000 PUSH1 0x20 DUP3 ADD MSTORE POP JUMP JUMPDEST PUSH0 PUSH2 0x1B73 PUSH1 0x24 DUP4 PUSH2 0x1652 JUMP JUMPDEST SWAP2 POP PUSH2 0x1B7E DUP3 PUSH2 0x1B19 JUMP JUMPDEST PUSH1 0x40 DUP3 ADD SWAP1 POP SWAP2 SWAP1 POP JUMP JUMPDEST PUSH0 PUSH1 0x20 DUP3 ADD SWAP1 POP DUP2 DUP2 SUB PUSH0 DUP4 ADD MSTORE PUSH2 0x1BA0 DUP2 PUSH2 0x1B67 JUMP JUMPDEST SWAP1 POP SWAP2 SWAP1 POP JUMP JUMPDEST PUSH0 PUSH2 0x1BB1 DUP3 PUSH2 0x1343 JUMP JUMPDEST SWAP2 POP PUSH2 0x1BBC DUP4 PUSH2 0x1343 JUMP JUMPDEST SWAP3 POP DUP3 DUP3 MUL PUSH2 0x1BCA DUP2 PUSH2 0x1343 JUMP JUMPDEST SWAP2 POP DUP3 DUP3 DIV DUP5 EQ DUP4 ISZERO OR PUSH2 0x1BE1 JUMPI PUSH2 0x1BE0 PUSH2 0x16F0 JUMP JUMPDEST JUMPDEST POP SWAP3 SWAP2 POP POP JUMP JUMPDEST PUSH32 0x4E487B7100000000000000000000000000000000000000000000000000000000 PUSH0 MSTORE PUSH1 0x12 PUSH1 0x4 MSTORE PUSH1 0x24 PUSH0 REVERT JUMPDEST PUSH0 PUSH2 0x1C1F DUP3 PUSH2 0x1343 JUMP JUMPDEST SWAP2 POP PUSH2 0x1C2A DUP4 PUSH2 0x1343 JUMP JUMPDEST SWAP3 POP DUP3 PUSH2 0x1C3A JUMPI PUSH2 0x1C39 PUSH2 0x1BE8 JUMP JUMPDEST JUMPDEST DUP3 DUP3 DIV SWAP1 POP SWAP3 SWAP2 POP POP JUMP JUMPDEST PUSH32 0x5265656E7472616E637947756172643A207265656E7472616E742063616C6C00 PUSH0 DUP3 ADD MSTORE POP JUMP JUMPDEST PUSH0 PUSH2 0x1C79 PUSH1 0x1F DUP4 PUSH2 0x1652 JUMP JUMPDEST SWAP2 POP PUSH2 0x1C84 DUP3 PUSH2 0x1C45 JUMP JUMPDEST PUSH1 0x20 DUP3 ADD SWAP1 POP SWAP2 SWAP1 POP JUMP JUMPDEST PUSH0 PUSH1 0x20 DUP3 ADD SWAP1 POP DUP2 DUP2 SUB PUSH0 DUP4 ADD MSTORE PUSH2 0x1CA6 DUP2 PUSH2 0x1C6D JUMP JUMPDEST SWAP1 POP SWAP2 SWAP1 POP JUMP INVALID LOG2 PUSH5 0x6970667358 0x22 SLT KECCAK256 PUSH7 0x65F7BAE2C91499 0xD0 0xF8 PUSH15 0xFEA03FA5066F55E24C4FB7C648BB79 SWAP8 0xD1 CALLDATACOPY CODESIZE 0xE6 0xE8 PUSH5 0x736F6C6343 STOP ADDMOD XOR STOP CALLER "
				},
				"gasEstimates": {
					"creation": {
						"codeDepositCost": "1479000",
						"executionCost": "infinite",
						"totalCost": "infinite"
					},
					"external": {
						"baseInterestRate()": "2514",
						"borrow(address,uint256)": "infinite",
						"borrowedToken(address,address)": "infinite",
						"calculateAccruedInterest(address,address)": "infinite",
						"calculateInterestRate(address,uint256,uint256)": "infinite",
						"calculateRepayableCollateral(uint256,uint256)": "infinite",
						"calculateRequiredCollateral(uint256)": "infinite",
						"collateral(address,address)": "infinite",
						"deposit(address,uint256)": "infinite",
						"depositCollateral(address,address,uint256)": "infinite",
						"escrow()": "infinite",
						"getUserBalance(address,address)": "infinite",
						"isSufficientCollateral(address,address,uint256)": "infinite",
						"repay(address,uint256)": "infinite",
						"supportedTokens(uint256)": "5055",
						"totalBorrowedperToken(address)": "2890",
						"totalBorrowedperUser(address)": "2870",
						"userBorrows(address,address)": "infinite",
						"userDeposits(address,address)": "infinite",
						"withdrawCollateral(address,address,uint256)": "infinite"
					},
					"internal": {
						"OVER_COLLATERALIZATION_RATIO()": "22"
					}
				},
				"methodIdentifiers": {
					"baseInterestRate()": "afd92762",
					"borrow(address,uint256)": "4b8a3529",
					"borrowedToken(address,address)": "272d1b8e",
					"calculateAccruedInterest(address,address)": "664fa64e",
					"calculateInterestRate(address,uint256,uint256)": "9ee7f702",
					"calculateRepayableCollateral(uint256,uint256)": "d526fc2e",
					"calculateRequiredCollateral(uint256)": "34931b4b",
					"collateral(address,address)": "cc218ece",
					"deposit(address,uint256)": "47e7ef24",
					"depositCollateral(address,address,uint256)": "f970c3b7",
					"escrow()": "e2fdcc17",
					"getUserBalance(address,address)": "6805d6ad",
					"isSufficientCollateral(address,address,uint256)": "3b591d6a",
					"repay(address,uint256)": "22867d78",
					"supportedTokens(uint256)": "c6255626",
					"totalBorrowedperToken(address)": "e80894b6",
					"totalBorrowedperUser(address)": "23d0fda1",
					"userBorrows(address,address)": "234a14f9",
					"userDeposits(address,address)": "436d8039",
					"withdrawCollateral(address,address,uint256)": "2ae8bdfe"
				}
			},
			"storageLayout": {
				"storage": [
					{
						"astId": 147,
						"contract": "contracts/LendingPool.sol:LendingPool",
						"label": "_status",
						"offset": 0,
						"slot": "0",
						"type": "t_uint256"
					},
					{
						"astId": 865,
						"contract": "contracts/LendingPool.sol:LendingPool",
						"label": "baseInterestRate",
						"offset": 0,
						"slot": "1",
						"type": "t_uint256"
					},
					{
						"astId": 871,
						"contract": "contracts/LendingPool.sol:LendingPool",
						"label": "userDeposits",
						"offset": 0,
						"slot": "2",
						"type": "t_mapping(t_address,t_mapping(t_address,t_uint256))"
					},
					{
						"astId": 874,
						"contract": "contracts/LendingPool.sol:LendingPool",
						"label": "supportedTokens",
						"offset": 0,
						"slot": "3",
						"type": "t_array(t_address)dyn_storage"
					},
					{
						"astId": 880,
						"contract": "contracts/LendingPool.sol:LendingPool",
						"label": "userBorrows",
						"offset": 0,
						"slot": "4",
						"type": "t_mapping(t_address,t_mapping(t_address,t_uint256))"
					},
					{
						"astId": 886,
						"contract": "contracts/LendingPool.sol:LendingPool",
						"label": "collateral",
						"offset": 0,
						"slot": "5",
						"type": "t_mapping(t_address,t_mapping(t_address,t_uint256))"
					},
					{
						"astId": 890,
						"contract": "contracts/LendingPool.sol:LendingPool",
						"label": "totalBorrowedperToken",
						"offset": 0,
						"slot": "6",
						"type": "t_mapping(t_address,t_uint256)"
					},
					{
						"astId": 894,
						"contract": "contracts/LendingPool.sol:LendingPool",
						"label": "totalBorrowedperUser",
						"offset": 0,
						"slot": "7",
						"type": "t_mapping(t_address,t_uint256)"
					},
					{
						"astId": 908,
						"contract": "contracts/LendingPool.sol:LendingPool",
						"label": "borrowedToken",
						"offset": 0,
						"slot": "8",
						"type": "t_mapping(t_address,t_mapping(t_address,t_struct(BorrowInfo)901_storage))"
					},
					{
						"astId": 911,
						"contract": "contracts/LendingPool.sol:LendingPool",
						"label": "escrow",
						"offset": 0,
						"slot": "9",
						"type": "t_contract(Escrow)855"
					}
				],
				"types": {
					"t_address": {
						"encoding": "inplace",
						"label": "address",
						"numberOfBytes": "20"
					},
					"t_array(t_address)dyn_storage": {
						"base": "t_address",
						"encoding": "dynamic_array",
						"label": "address[]",
						"numberOfBytes": "32"
					},
					"t_contract(Escrow)855": {
						"encoding": "inplace",
						"label": "contract Escrow",
						"numberOfBytes": "20"
					},
					"t_mapping(t_address,t_mapping(t_address,t_struct(BorrowInfo)901_storage))": {
						"encoding": "mapping",
						"key": "t_address",
						"label": "mapping(address => mapping(address => struct LendingPool.BorrowInfo))",
						"numberOfBytes": "32",
						"value": "t_mapping(t_address,t_struct(BorrowInfo)901_storage)"
					},
					"t_mapping(t_address,t_mapping(t_address,t_uint256))": {
						"encoding": "mapping",
						"key": "t_address",
						"label": "mapping(address => mapping(address => uint256))",
						"numberOfBytes": "32",
						"value": "t_mapping(t_address,t_uint256)"
					},
					"t_mapping(t_address,t_struct(BorrowInfo)901_storage)": {
						"encoding": "mapping",
						"key": "t_address",
						"label": "mapping(address => struct LendingPool.BorrowInfo)",
						"numberOfBytes": "32",
						"value": "t_struct(BorrowInfo)901_storage"
					},
					"t_mapping(t_address,t_uint256)": {
						"encoding": "mapping",
						"key": "t_address",
						"label": "mapping(address => uint256)",
						"numberOfBytes": "32",
						"value": "t_uint256"
					},
					"t_struct(BorrowInfo)901_storage": {
						"encoding": "inplace",
						"label": "struct LendingPool.BorrowInfo",
						"members": [
							{
								"astId": 896,
								"contract": "contracts/LendingPool.sol:LendingPool",
								"label": "amount",
								"offset": 0,
								"slot": "0",
								"type": "t_uint256"
							},
							{
								"astId": 898,
								"contract": "contracts/LendingPool.sol:LendingPool",
								"label": "interestRate",
								"offset": 0,
								"slot": "1",
								"type": "t_uint256"
							},
							{
								"astId": 900,
								"contract": "contracts/LendingPool.sol:LendingPool",
								"label": "startTime",
								"offset": 0,
								"slot": "2",
								"type": "t_uint256"
							}
						],
						"numberOfBytes": "96"
					},
					"t_uint256": {
						"encoding": "inplace",
						"label": "uint256",
						"numberOfBytes": "32"
					}
				}
			},
			"userdoc": {
				"kind": "user",
				"methods": {},
				"version": 1
			}
		}
	}
}